{
	"data": {
		"bytecode": {
			"linkReferences": {},
			"object": "608060408190526000805473e49b05f2c7dd51f61e415e1dfac10b80074b001a6001600160a01b0319918216179091556001805473874069fa1eb16d44d622f2e0ca25eea172369bc192168217905563313ce56760e01b82529063313ce56790608490602090600481865afa1580156200007d573d6000803e3d6000fd5b505050506040513d601f19601f82011682018060405250810190620000a39190620000c7565b620000b090600a62000208565b600255348015620000c057600080fd5b5062000219565b600060208284031215620000da57600080fd5b815160ff81168114620000ec57600080fd5b9392505050565b634e487b7160e01b600052601160045260246000fd5b600181815b808511156200014a5781600019048211156200012e576200012e620000f3565b808516156200013c57918102915b93841c93908002906200010e565b509250929050565b600082620001635750600162000202565b81620001725750600062000202565b81600181146200018b57600281146200019657620001b6565b600191505062000202565b60ff841115620001aa57620001aa620000f3565b50506001821b62000202565b5060208310610133831016604e8410600b8410161715620001db575081810a62000202565b620001e7838362000109565b8060001904821115620001fe57620001fe620000f3565b0290505b92915050565b6000620000ec60ff84168362000152565b6151e780620002296000396000f3fe608060405234801561001057600080fd5b50600436106103af5760003560e01c80638c056233116101f4578063c37030481161011a578063de63f432116100ad578063e9d3ac501161007c578063e9d3ac5014610b3f578063e9da102914610b52578063ed04470c14610b65578063fae0f23f14610b6e57600080fd5b8063de63f43214610abf578063e1ff3fb714610b03578063e35a844114610b0c578063e926ca4514610b2c57600080fd5b8063d243b249116100e9578063d243b24914610a61578063d39f622a14610a74578063d9ad496d14610a7d578063db8ac18114610aac57600080fd5b8063c3703048146109c6578063c64d0d85146109eb578063cca050a114610a0b578063ccf9844f14610a4157600080fd5b8063a4bfaddf11610192578063b251429211610161578063b251429214610948578063baf3f49e1461096e578063bd7863fd1461099d578063c1df9e90146109a657600080fd5b8063a4bfaddf146108d6578063ad9adead146108df578063b034458014610906578063b0eebd181461093557600080fd5b80639100b5dd116101ce5780639100b5dd146108875780639d30dc6114610890578063a064dda2146108b0578063a382148a146108c357600080fd5b80638c0562331461083e5780638e1afc951461085e578063904716f61461086757600080fd5b806360cdd94a116102d957806378c5ab69116102775780637ddc914a116102465780637ddc914a146107d85780637f868a8e146107f8578063818d52541461080b578063852c8ea71461082b57600080fd5b806378c5ab691461072f57806378d618651461074257806379382f00146107a557806379f19780146107c557600080fd5b806369db2db3116102b357806369db2db3146106985780636a098823146106b85780636e93e563146106f157806378c38f3a1461071c57600080fd5b806360cdd94a146105f7578063621d571d146106175780636861f01f1461066a57600080fd5b806338a59a07116103515780634464ce95116103205780634464ce95146105965780634633f488146105b65780634d148f40146105c95780635bf35e66146105ee57600080fd5b806338a59a07146104f45780633a6a44e2146105095780634217d66f1461054a578063431b710a1461055d57600080fd5b80630df630821161038d5780630df63082146104335780631d4d3ba4146104465780632f8e211e146104665780633755c2b2146104a457600080fd5b806306c49713146103b4578063072df68a146103e75780630de0350f1461041e575b600080fd5b6103c76103c2366004614522565b610b81565b6040516103de9b9a99989796959493929190614588565b60405180910390f35b6104106103f5366004614627565b6001600160a01b03166000908152600b602052604090205490565b6040519081526020016103de565b61043161042c3660046146e5565b610d10565b005b61043161044136600461477e565b610f45565b610459610454366004614522565b611198565b6040516103de9190614848565b61049461047436600461485b565b601360209081526000928352604080842090915290825290205460ff1681565b60405190151581526020016103de565b6104b76104b2366004614887565b6112d2565b6040805196875260208701959095526001600160a01b039093169385019390935260608401526080830191909152151560a082015260c0016103de565b6104fc611332565b6040516103de9190614967565b610532610517366004614522565b600c602052600090815260409020546001600160a01b031681565b6040516001600160a01b0390911681526020016103de565b61041061055836600461485b565b611533565b61049461056b36600461485b565b60009182526012602090815260408084206001600160a01b0393909316845291905290205460ff1690565b6104106105a4366004614522565b60066020526000908152604090205481565b6104316105c43660046149c9565b61166d565b6105dc6105d7366004614627565b61186f565b6040516103de969594939291906149eb565b610410601a5481565b61060a610605366004614627565b6119c2565b6040516103de9190614aeb565b61062a610625366004614522565b611c76565b6040805197885260208801969096529486019390935260608501919091526001600160a01b0316608084015260a0830152151560c082015260e0016103de565b61049461067836600461485b565b601260209081526000928352604080842090915290825290205460ff1681565b6104106106a6366004614522565b60009081526007602052604090205490565b6104946106c636600461485b565b60009182526013602090815260408084206001600160a01b0393909316845291905290205460ff1690565b6104106106ff36600461485b565b600f60209081526000928352604080842090915290825290205481565b61043161072a366004614afe565b611cd1565b61041061073d366004614522565b611dc4565b61075561075036600461485b565b611e05565b6040516103de9190600060c0820190508251825260208301516020830152604083015160408301526060830151606083015260808301511515608083015260a0830151151560a083015292915050565b6107b86107b3366004614522565b611ee3565b6040516103de9190614b8b565b61060a6107d3366004614522565b6120e1565b6107eb6107e6366004614522565b612113565b6040516103de9190614be0565b610431610806366004614bf3565b612302565b610410610819366004614627565b600b6020526000908152604090205481565b610410610839366004614522565b6123e4565b61041061084c366004614522565b60076020526000908152604090205481565b61041060175481565b61087a610875366004614522565b612410565b6040516103de9190614c67565b61041060195481565b6108a361089e366004614627565b61261a565b6040516103de9190614cbc565b61060a6108be366004614522565b61282b565b6107b86108d1366004614627565b612973565b610410601b5481565b6108f26108ed366004614627565b612b84565b6040516103de989796959493929190614d49565b610494610914366004614627565b6001600160a01b03166000908152600d602052604090206005015460ff1690565b610431610943366004614dcf565b612df4565b61095b610956366004614522565b612f18565b6040516103de9796959493929190614e8d565b61049461097c366004614627565b6001600160a01b031660009081526003602052604090206005015460ff1690565b61041060155481565b6104106109b4366004614627565b600a6020526000908152604090205481565b6109d96109d4366004614627565b613001565b6040516103de96959493929190614edb565b6104106109f9366004614627565b60046020526000908152604090205481565b610410610a1936600461485b565b6000918252600f602090815260408084206001600160a01b0393909316845291905290205490565b610a54610a4f366004614522565b6131db565b6040516103de9190614f41565b610410610a6f366004614627565b6132fc565b61041060165481565b610494610a8b366004614627565b6001600160a01b031660009081526008602052604090206007015460ff1690565b610431610aba366004614fc4565b6133c8565b610ad2610acd366004614522565b6136e4565b60408051968752602087019590955293850192909252606084015215156080830152151560a082015260c0016103de565b61041060185481565b610b1f610b1a366004614627565b613731565b6040516103de919061500a565b61060a610b3a366004614522565b6138b9565b610410610b4d366004614522565b613969565b610459610b60366004615082565b613985565b61041060145481565b6104fc610b7c366004614627565b613a05565b60058181548110610b9157600080fd5b6000918252602090912060099091020180546001820154600283015460038401805493955091936001600160a01b0390911692909190610bd0906150b7565b80601f0160208091040260200160405190810160405280929190818152602001828054610bfc906150b7565b8015610c495780601f10610c1e57610100808354040283529160200191610c49565b820191906000526020600020905b815481529060010190602001808311610c2c57829003601f168201915b505050505090806004018054610c5e906150b7565b80601f0160208091040260200160405190810160405280929190818152602001828054610c8a906150b7565b8015610cd75780601f10610cac57610100808354040283529160200191610cd7565b820191906000526020600020905b815481529060010190602001808311610cba57829003601f168201915b505050506005830154600684015460078501546008909501549394919390925060ff80821691610100810482169162010000909104168b565b601554610d1b614289565b818152602081018990526001600160a01b0388166040820152606081018790526080810186905260a0810185905260c081018490526001610140820152600254600090610d689085615107565b60e0830181905260058054600181018255600091909152835160099091027f036b6384b5eca791c62761152d0c79bb0604c104a5fb6f4eb0703f3154bb3db081019182556020808601517f036b6384b5eca791c62761152d0c79bb0604c104a5fb6f4eb0703f3154bb3db183015560408601517f036b6384b5eca791c62761152d0c79bb0604c104a5fb6f4eb0703f3154bb3db2830180546001600160a01b039092166001600160a01b0319909216919091179055606086015180519495508694610e5a937f036b6384b5eca791c62761152d0c79bb0604c104a5fb6f4eb0703f3154bb3db3019291909101906142f2565b5060808201518051610e769160048401916020909101906142f2565b5060a0820151600582015560c0820151600682015560e0820151600782015561010080830151600890920180546101208501516101409095015161ffff1990911693151561ff001916939093179315159091029290921762ff0000191662010000911515919091021790556001600160a01b03891660009081526004602052604081205490610f06826001615126565b6001600160a01b038c1660009081526004602052604081208290556015805492935090610f328361513e565b9190505550505050505050505050505050565b6000610f5085612113565b905080610100015115610f6257600080fd5b60008581526012602090815260408083206001600160a01b038716845290915290205460ff1615610f9257600080fd5b601754610f9d614376565b81815260208082018781526001600160a01b0387811660408501908152606085018b815260808601898152600160c0880181905260098054918201815560005287517f6e1540171b6c0c960b71a7020d9f60077f6af931a8bbf590da0223dacf75c7af600690920291820190815595517f6e1540171b6c0c960b71a7020d9f60077f6af931a8bbf590da0223dacf75c7b082015592517f6e1540171b6c0c960b71a7020d9f60077f6af931a8bbf590da0223dacf75c7b1840180546001600160a01b0319169190951617909355517f6e1540171b6c0c960b71a7020d9f60077f6af931a8bbf590da0223dacf75c7b28201559051805185946110c3937f6e1540171b6c0c960b71a7020d9f60077f6af931a8bbf590da0223dacf75c7b3019201906142f2565b5060a08201516005909101805460c09093015115156101000261ff00199215159290921661ffff199093169290921717905560008781526006602052604081205490611110826001615126565b60008a81526006602090815260408083208490556001600160a01b038b168352600a909152812054919250611146826001615126565b6001600160a01b038a166000908152600a6020526040812082905560178054929350906111728361513e565b91905055508660a00151830361118b5761118b8b613ccf565b5050505050505050505050565b6111a0614376565b600982815481106111b3576111b3615157565b90600052602060002090600602016040518060e001604052908160008201548152602001600182015481526020016002820160009054906101000a90046001600160a01b03166001600160a01b03166001600160a01b0316815260200160038201548152602001600482018054611229906150b7565b80601f0160208091040260200160405190810160405280929190818152602001828054611255906150b7565b80156112a25780601f10611277576101008083540402835291602001916112a2565b820191906000526020600020905b81548152906001019060200180831161128557829003601f168201915b50505091835250506005919091015460ff8082161515602084015261010090910416151560409091015292915050565b601160205281600052604060002081815481106112ee57600080fd5b60009182526020909120600690910201805460018201546002830154600384015460048501546005909501549396509194506001600160a01b031692909160ff1686565b60606005805480602002602001604051908101604052809291908181526020016000905b8282101561152a5760008481526020908190206040805161016081018252600986029092018054835260018101549383019390935260028301546001600160a01b0316908201526003820180549192916060840191906113b5906150b7565b80601f01602080910402602001604051908101604052809291908181526020018280546113e1906150b7565b801561142e5780601f106114035761010080835404028352916020019161142e565b820191906000526020600020905b81548152906001019060200180831161141157829003601f168201915b50505050508152602001600482018054611447906150b7565b80601f0160208091040260200160405190810160405280929190818152602001828054611473906150b7565b80156114c05780601f10611495576101008083540402835291602001916114c0565b820191906000526020600020905b8154815290600101906020018083116114a357829003601f168201915b50505091835250506005820154602080830191909152600683015460408301526007830154606083015260089092015460ff8082161515608084015261010082048116151560a08401526201000090910416151560c0909101529082526001929092019101611356565b50505050905090565b6001600160a01b038116600090815260116020908152604080832080548251818502810185019093528083528493849084015b828210156115dc5760008481526020908190206040805160c08101825260068602909201805483526001808201548486015260028201546001600160a01b03169284019290925260038101546060840152600481015460808401526005015460ff16151560a08301529083529092019101611566565b5050505090506000805b825181101561166457600083828151811061160357611603615157565b602002602001015190508681602001511480156116355750856001600160a01b031681604001516001600160a01b0316145b156116515760808101516116499084615126565b925050611664565b508061165c8161513e565b9150506115e6565b50949350505050565b60006009838154811061168257611682615157565b90600052602060002090600602016040518060e001604052908160008201548152602001600182015481526020016002820160009054906101000a90046001600160a01b03166001600160a01b03166001600160a01b03168152602001600382015481526020016004820180546116f8906150b7565b80601f0160208091040260200160405190810160405280929190818152602001828054611724906150b7565b80156117715780601f1061174657610100808354040283529160200191611771565b820191906000526020600020905b81548152906001019060200180831161175457829003601f168201915b50505091835250506005919091015460ff8082161515602084015261010090910416151560409091015260608101519091508290036103af57600160a082015260098054829190859081106117c8576117c8615157565b600091825260209182902083516006929092020190815582820151600182015560408301516002820180546001600160a01b0319166001600160a01b0390921691909117905560608301516003820155608083015180519192611833926004850192909101906142f2565b5060a08201516005909101805460c09093015115156101000261ff00199215159290921661ffff1990931692909217179055505050565b505050565b60036020526000908152604090208054600182015460028301805492936001600160a01b03909216926118a1906150b7565b80601f01602080910402602001604051908101604052809291908181526020018280546118cd906150b7565b801561191a5780601f106118ef5761010080835404028352916020019161191a565b820191906000526020600020905b8154815290600101906020018083116118fd57829003601f168201915b50505050509080600301805461192f906150b7565b80601f016020809104026020016040519081016040528092919081815260200182805461195b906150b7565b80156119a85780601f1061197d576101008083540402835291602001916119a8565b820191906000526020600020905b81548152906001019060200180831161198b57829003601f168201915b50505050600483015460059093015491929160ff16905086565b6119ca6143c0565b6001600160a01b0380831660009081526008602090815260409182902082516101008101845281548152600182015492810192909252600281015490931691810191909152600382018054919291606084019190611a27906150b7565b80601f0160208091040260200160405190810160405280929190818152602001828054611a53906150b7565b8015611aa05780601f10611a7557610100808354040283529160200191611aa0565b820191906000526020600020905b815481529060010190602001808311611a8357829003601f168201915b50505050508152602001600482018054611ab9906150b7565b80601f0160208091040260200160405190810160405280929190818152602001828054611ae5906150b7565b8015611b325780601f10611b0757610100808354040283529160200191611b32565b820191906000526020600020905b815481529060010190602001808311611b1557829003601f168201915b50505050508152602001600582018054611b4b906150b7565b80601f0160208091040260200160405190810160405280929190818152602001828054611b77906150b7565b8015611bc45780601f10611b9957610100808354040283529160200191611bc4565b820191906000526020600020905b815481529060010190602001808311611ba757829003601f168201915b50505050508152602001600682018054611bdd906150b7565b80601f0160208091040260200160405190810160405280929190818152602001828054611c09906150b7565b8015611c565780601f10611c2b57610100808354040283529160200191611c56565b820191906000526020600020905b815481529060010190602001808311611c3957829003601f168201915b50505091835250506007919091015460ff16151560209091015292915050565b60108181548110611c8657600080fd5b600091825260209091206007909102018054600182015460028301546003840154600485015460058601546006909601549496509294919390926001600160a01b0316919060ff1687565b601854611cdc614410565b8181526001600160a01b03868116602080840182815260408086018a8152606087018a905260808701899052600160a088018190526000958652600d85529190942086518155915190820180546001600160a01b031916919095161790935590518051849392611d539260028501929101906142f2565b5060608201518051611d6f9160038401916020909101906142f2565b5060808201518051611d8b9160048401916020909101906142f2565b5060a091909101516005909101805460ff191691151591909117905560188054906000611db78361513e565b9190505550505050505050565b600080611dd083612113565b90508060c0015160648260e00151600f611dea9190615107565b611df4919061516d565b611dfe919061516d565b9392505050565b611e0d614451565b611e15614451565b6000611e208461261a565b905060005b600e54811015611ed9576000600e8281548110611e4457611e44615157565b60009182526020918290206040805160c08101825260059093029091018054835260018101549383019390935260028301549082015260038201546060820181905260049092015460ff8082161515608084015261010090910416151560a0820152915087148015611eba575082516020820151145b15611ec6579250611ed9565b5080611ed18161513e565b915050611e25565b5090949350505050565b6000818152600660205260408120546060918167ffffffffffffffff811115611f0e57611f0e614642565b604051908082528060200260200182016040528015611f4757816020015b611f34614376565b815260200190600190039081611f2c5790505b5090506000805b600954811015611ed957600060098281548110611f6d57611f6d615157565b90600052602060002090600602016040518060e001604052908160008201548152602001600182015481526020016002820160009054906101000a90046001600160a01b03166001600160a01b03166001600160a01b0316815260200160038201548152602001600482018054611fe3906150b7565b80601f016020809104026020016040519081016040528092919081815260200182805461200f906150b7565b801561205c5780601f106120315761010080835404028352916020019161205c565b820191906000526020600020905b81548152906001019060200180831161203f57829003601f168201915b50505091835250506005919091015460ff8082161515602084015261010090910416151560409091015260608101519091508790036120ce57808484815181106120a8576120a8615157565b602002602001018190525082806120be9061513e565b9350508483036120ce5750611ed9565b50806120d98161513e565b915050611f4e565b6120e96143c0565b6000828152600c60205260408120546001600160a01b03169061210b826119c2565b949350505050565b61211b614289565b6005828154811061212e5761212e615157565b90600052602060002090600902016040518061016001604052908160008201548152602001600182015481526020016002820160009054906101000a90046001600160a01b03166001600160a01b03166001600160a01b0316815260200160038201805461219b906150b7565b80601f01602080910402602001604051908101604052809291908181526020018280546121c7906150b7565b80156122145780601f106121e957610100808354040283529160200191612214565b820191906000526020600020905b8154815290600101906020018083116121f757829003601f168201915b5050505050815260200160048201805461222d906150b7565b80601f0160208091040260200160405190810160405280929190818152602001828054612259906150b7565b80156122a65780601f1061227b576101008083540402835291602001916122a6565b820191906000526020600020905b81548152906001019060200180831161228957829003601f168201915b505050918352505060058201546020820152600682015460408201526007820154606082015260089091015460ff8082161515608084015261010082048116151560a08401526201000090910416151560c09091015292915050565b60145461230d61448b565b8181526001600160a01b038581166020808401828152604080860189815260608701899052600060808801819052600160a08901819052958152600385529190912086518155915193820180546001600160a01b0319169490951693909317909355905180518493926123879260028501929101906142f2565b50606082015180516123a39160038401916020909101906142f2565b506080820151600482015560a0909101516005909101805460ff1916911515919091179055601480549060006123d88361513e565b91905055505050505050565b600060646123f183612113565b60e0015161240090604b615107565b61240a919061516d565b92915050565b6000818152600660205260408120546060918167ffffffffffffffff81111561243b5761243b614642565b60405190808252806020026020018201604052801561247457816020015b6124616143c0565b8152602001906001900390816124595790505b5090506000805b600954811015611ed95760006009828154811061249a5761249a615157565b90600052602060002090600602016040518060e001604052908160008201548152602001600182015481526020016002820160009054906101000a90046001600160a01b03166001600160a01b03166001600160a01b0316815260200160038201548152602001600482018054612510906150b7565b80601f016020809104026020016040519081016040528092919081815260200182805461253c906150b7565b80156125895780601f1061255e57610100808354040283529160200191612589565b820191906000526020600020905b81548152906001019060200180831161256c57829003601f168201915b50505091835250506005919091015460ff808216151560208401526101009091041615156040909101526060810151909150879003612607576125cf81604001516119c2565b8484815181106125e1576125e1615157565b602002602001018190525082806125f79061513e565b9350508483036126075750611ed9565b50806126128161513e565b91505061247b565b612622614410565b6001600160a01b038083166000908152600d6020908152604091829020825160c08101845281548152600182015490941691840191909152600281018054919284019161266e906150b7565b80601f016020809104026020016040519081016040528092919081815260200182805461269a906150b7565b80156126e75780601f106126bc576101008083540402835291602001916126e7565b820191906000526020600020905b8154815290600101906020018083116126ca57829003601f168201915b50505050508152602001600382018054612700906150b7565b80601f016020809104026020016040519081016040528092919081815260200182805461272c906150b7565b80156127795780601f1061274e57610100808354040283529160200191612779565b820191906000526020600020905b81548152906001019060200180831161275c57829003601f168201915b50505050508152602001600482018054612792906150b7565b80601f01602080910402602001604051908101604052809291908181526020018280546127be906150b7565b801561280b5780601f106127e05761010080835404028352916020019161280b565b820191906000526020600020905b8154815290600101906020018083116127ee57829003601f168201915b50505091835250506005919091015460ff16151560209091015292915050565b6128336143c0565b60006009838154811061284857612848615157565b90600052602060002090600602016040518060e001604052908160008201548152602001600182015481526020016002820160009054906101000a90046001600160a01b03166001600160a01b03166001600160a01b03168152602001600382015481526020016004820180546128be906150b7565b80601f01602080910402602001604051908101604052809291908181526020018280546128ea906150b7565b80156129375780601f1061290c57610100808354040283529160200191612937565b820191906000526020600020905b81548152906001019060200180831161291a57829003601f168201915b50505091835250506005919091015460ff8082161515602084015261010090910416151560409182015281015190915060009061210b906119c2565b6001600160a01b0381166000908152600a60205260408120546060918167ffffffffffffffff8111156129a8576129a8614642565b6040519080825280602002602001820160405280156129e157816020015b6129ce614376565b8152602001906001900390816129c65790505b5090506000805b600954811015611ed957600060098281548110612a0757612a07615157565b90600052602060002090600602016040518060e001604052908160008201548152602001600182015481526020016002820160009054906101000a90046001600160a01b03166001600160a01b03166001600160a01b0316815260200160038201548152602001600482018054612a7d906150b7565b80601f0160208091040260200160405190810160405280929190818152602001828054612aa9906150b7565b8015612af65780601f10612acb57610100808354040283529160200191612af6565b820191906000526020600020905b815481529060010190602001808311612ad957829003601f168201915b50505091835250506005919091015460ff808216151560208401526101009091041615156040918201528101519091506001600160a01b03808916911603612b715780848481518110612b4b57612b4b615157565b60200260200101819052508280612b619061513e565b935050848303612b715750611ed9565b5080612b7c8161513e565b9150506129e8565b6008602052600090815260409020805460018201546002830154600384018054939492936001600160a01b039092169291612bbe906150b7565b80601f0160208091040260200160405190810160405280929190818152602001828054612bea906150b7565b8015612c375780601f10612c0c57610100808354040283529160200191612c37565b820191906000526020600020905b815481529060010190602001808311612c1a57829003601f168201915b505050505090806004018054612c4c906150b7565b80601f0160208091040260200160405190810160405280929190818152602001828054612c78906150b7565b8015612cc55780601f10612c9a57610100808354040283529160200191612cc5565b820191906000526020600020905b815481529060010190602001808311612ca857829003601f168201915b505050505090806005018054612cda906150b7565b80601f0160208091040260200160405190810160405280929190818152602001828054612d06906150b7565b8015612d535780601f10612d2857610100808354040283529160200191612d53565b820191906000526020600020905b815481529060010190602001808311612d3657829003601f168201915b505050505090806006018054612d68906150b7565b80601f0160208091040260200160405190810160405280929190818152602001828054612d94906150b7565b8015612de15780601f10612db657610100808354040283529160200191612de1565b820191906000526020600020905b815481529060010190602001808311612dc457829003601f168201915b5050506007909301549192505060ff1688565b601654612dff6143c0565b8181526001600160a01b038781166040808401828152606085018a8152608086018a905260a0860189905260c08601889052600160e087018190526000948552600860209081529390942086518155838701519481019490945590516002840180546001600160a01b0319169190951617909355915180518493612e8a9260038501929101906142f2565b5060808201518051612ea69160048401916020909101906142f2565b5060a08201518051612ec29160058401916020909101906142f2565b5060c08201518051612ede9160068401916020909101906142f2565b5060e091909101516007909101805460ff191691151591909117905560168054906000612f0a8361513e565b919050555050505050505050565b60098181548110612f2857600080fd5b60009182526020909120600690910201805460018201546002830154600384015460048501805494965092946001600160a01b0390921693909290612f6c906150b7565b80601f0160208091040260200160405190810160405280929190818152602001828054612f98906150b7565b8015612fe55780601f10612fba57610100808354040283529160200191612fe5565b820191906000526020600020905b815481529060010190602001808311612fc857829003601f168201915b5050506005909301549192505060ff8082169161010090041687565b600d6020526000908152604090208054600182015460028301805492936001600160a01b0390921692613033906150b7565b80601f016020809104026020016040519081016040528092919081815260200182805461305f906150b7565b80156130ac5780601f10613081576101008083540402835291602001916130ac565b820191906000526020600020905b81548152906001019060200180831161308f57829003601f168201915b5050505050908060030180546130c1906150b7565b80601f01602080910402602001604051908101604052809291908181526020018280546130ed906150b7565b801561313a5780601f1061310f5761010080835404028352916020019161313a565b820191906000526020600020905b81548152906001019060200180831161311d57829003601f168201915b50505050509080600401805461314f906150b7565b80601f016020809104026020016040519081016040528092919081815260200182805461317b906150b7565b80156131c85780601f1061319d576101008083540402835291602001916131c8565b820191906000526020600020905b8154815290600101906020018083116131ab57829003601f168201915b5050506005909301549192505060ff1686565b606060006131e883612410565b90506000815167ffffffffffffffff81111561320657613206614642565b60405190808252806020026020018201604052801561323f57816020015b61322c6144cc565b8152602001906001900390816132245790505b50905060005b82518110156132f457600083828151811061326257613262615157565b6020908102919091018101516000888152600f83526040808220818401516001600160a01b03168352909352919091205490915061329e6144cc565b838152602081018890528251604082015260808101829052600160a0820152845181908690869081106132d3576132d3615157565b602002602001018190525050505080806132ec9061513e565b915050613245565b509392505050565b600080805b6010548110156133c15760006010828154811061332057613320615157565b60009182526020918290206040805160e0810182526007909302909101805483526001810154938301939093526002830154908201526003820154606082015260048201546001600160a01b0390811660808301819052600584015460a084015260069093015460ff16151560c0830152909250861690036133ae5760a08101516133ab9084615126565b92505b50806133b98161513e565b915050613301565b5092915050565b60006133d385612113565b9050806101200151156133e557600080fd5b60008581526013602090815260408083206001600160a01b038616845290915290205460ff161561341557600080fd5b600061342085611198565b60195490915060006134318561261a565b905061343b614451565b82815281516020808301918252858101516040808501918252606085018d8152600160a08701818152600e805480840182556000918252895160059091027fbb7b4a454dc3493923482f07822329ed19e8244eff582cc204f8554c3620c3fd81019190915597517fbb7b4a454dc3493923482f07822329ed19e8244eff582cc204f8554c3620c3fe89015594517fbb7b4a454dc3493923482f07822329ed19e8244eff582cc204f8554c3620c3ff88015591517fbb7b4a454dc3493923482f07822329ed19e8244eff582cc204f8554c3620c40087015560808701517fbb7b4a454dc3493923482f07822329ed19e8244eff582cc204f8554c3620c4019096018054925115156101000261ff00199715159790971661ffff199093169290921795909517905588518083526013845281832084880180516001600160a01b0316855294529120805460ff191690931790925551613599908290613de7565b600081815260076020526040812054906135b4826001615126565b6000848152600760209081526040808320849055888201516001600160a01b03168352600b9091528120549192506135ed826001615126565b905080600b600089602001516001600160a01b03166001600160a01b03168152602001908152602001600020819055506000600f600087815260200190815260200160002060008e6001600160a01b03166001600160a01b0316815260200190815260200160002054905060008160016136679190615126565b6000888152600f602090815260408083208f8201516001600160a01b03168452909152902081905560c08d015190915085036136bd576136a687613f6e565b6136b4878c60200151613f9a565b6136bd87614203565b601980549060006136cd8361513e565b919050555050505050505050505050505050505050565b600e81815481106136f457600080fd5b6000918252602090912060059091020180546001820154600283015460038401546004909401549294509092909160ff8082169161010090041686565b61373961448b565b6001600160a01b03808316600090815260036020908152604091829020825160c081018452815481526001820154909416918401919091526002810180549192840191613785906150b7565b80601f01602080910402602001604051908101604052809291908181526020018280546137b1906150b7565b80156137fe5780601f106137d3576101008083540402835291602001916137fe565b820191906000526020600020905b8154815290600101906020018083116137e157829003601f168201915b50505050508152602001600382018054613817906150b7565b80601f0160208091040260200160405190810160405280929190818152602001828054613843906150b7565b80156138905780601f1061386557610100808354040283529160200191613890565b820191906000526020600020905b81548152906001019060200180831161387357829003601f168201915b50505091835250506004820154602082015260059091015460ff16151560409091015292915050565b6138c16143c0565b60006138cb6143c0565b60006138d685612410565b905060005b8151811015611ed95760008282815181106138f8576138f8615157565b6020908102919091018101516000898152600f83526040808220818401516001600160a01b031683529093529190912054909150858111156139545780955083838151811061394957613949615157565b602002602001015194505b505080806139619061513e565b9150506138db565b6000606461397683612113565b60e0015161240090600a615107565b61398d614376565b600061399883612973565b90506139a2614376565b60005b82518110156139fb5760008382815181106139c2576139c2615157565b602002602001015190508781606001511480156139df5750805187145b156139e8578092505b50806139f38161513e565b9150506139a5565b5095945050505050565b6001600160a01b0381166000908152600460205260408120546060918167ffffffffffffffff811115613a3a57613a3a614642565b604051908082528060200260200182016040528015613a7357816020015b613a60614289565b815260200190600190039081613a585790505b5090506000805b600554811015611ed957600060058281548110613a9957613a99615157565b90600052602060002090600902016040518061016001604052908160008201548152602001600182015481526020016002820160009054906101000a90046001600160a01b03166001600160a01b03166001600160a01b03168152602001600382018054613b06906150b7565b80601f0160208091040260200160405190810160405280929190818152602001828054613b32906150b7565b8015613b7f5780601f10613b5457610100808354040283529160200191613b7f565b820191906000526020600020905b815481529060010190602001808311613b6257829003601f168201915b50505050508152602001600482018054613b98906150b7565b80601f0160208091040260200160405190810160405280929190818152602001828054613bc4906150b7565b8015613c115780601f10613be657610100808354040283529160200191613c11565b820191906000526020600020905b815481529060010190602001808311613bf457829003601f168201915b50505091835250506005820154602082015260068201546040808301919091526007830154606083015260089092015460ff8082161515608084015261010082048116151560a08401526201000090910416151560c0909101528101519091506001600160a01b03808916911603613cbc5780848481518110613c9657613c96615157565b60200260200101819052508280613cac9061513e565b935050848303613cbc5750611ed9565b5080613cc78161513e565b915050613a7a565b6000613cda82612113565b600161010082015260058054919250829184908110613cfb57613cfb615157565b600091825260209182902083516009929092020190815582820151600182015560408301516002820180546001600160a01b0319166001600160a01b03909216919091179055606083015180519192613d5c926003850192909101906142f2565b5060808201518051613d789160048401916020909101906142f2565b5060a0820151600582015560c0820151600682015560e0820151600782015561010080830151600890920180546101208501516101409095015161ffff1990911693151561ff001916939093179315159091029290921762ff0000191662010000911515919091021790555050565b601b546000613df58361261a565b90506000613e0285611dc4565b9050613e486040518060c00160405280600081526020016000815260200160006001600160a01b0316815260200160008152602001600081526020016000151581525090565b83815282516020808301918252808501516001600160a01b039081166040808601918252606086018b815260808701888152600160a089018181528d8716600081815260118a52868120805480860182559082529990208b516006909a020198895598518883015594516002880180546001600160a01b031916918816919091179055915160038701555160048087019190915592516005909501805460ff1916951515959095179094559254925163a9059cbb60e01b81529081019390935260248301859052169063a9059cbb906044016020604051808303816000875af1158015613f39573d6000803e3d6000fd5b505050506040513d601f19601f82011682018060405250810190613f5d919061518f565b50601b8054906000611db78361513e565b6000613f7982612113565b600161012082015260058054919250829184908110613cfb57613cfb615157565b6000613fa5836138b9565b90506000613fb2846123e4565b90506000601a5490506140066040518060e001604052806000815260200160008152602001600081526020016000815260200160006001600160a01b03168152602001600081526020016000151581525090565b8181526020810186815260608201868152604086810180516001600160a01b039081166080870190815260a08701898152600160c089018181526010805480840182556000919091528a517f1b6847dc741a1b0cd08d278845f9d819d87b734759afb55fe2de5cb82a9ae67260079092029182015598517f1b6847dc741a1b0cd08d278845f9d819d87b734759afb55fe2de5cb82a9ae6738a0155868a01517f1b6847dc741a1b0cd08d278845f9d819d87b734759afb55fe2de5cb82a9ae6748a015596517f1b6847dc741a1b0cd08d278845f9d819d87b734759afb55fe2de5cb82a9ae67589015591517f1b6847dc741a1b0cd08d278845f9d819d87b734759afb55fe2de5cb82a9ae676880180546001600160a01b031916918516919091179055517f1b6847dc741a1b0cd08d278845f9d819d87b734759afb55fe2de5cb82a9ae67787015593517f1b6847dc741a1b0cd08d278845f9d819d87b734759afb55fe2de5cb82a9ae678909501805460ff19169515159590951790945591549151905163a9059cbb60e01b815290831660048201526024810186905291169063a9059cbb906044016020604051808303816000875af11580156141ce573d6000803e3d6000fd5b505050506040513d601f19601f820116820180604052508101906141f2919061518f565b50601a8054906000611db78361513e565b600061420e82613969565b60015460005460405163a9059cbb60e01b81526001600160a01b03918216600482015260248101849052929350169063a9059cbb906044016020604051808303816000875af1158015614265573d6000803e3d6000fd5b505050506040513d601f19601f8201168201806040525081019061186a919061518f565b604051806101600160405280600081526020016000815260200160006001600160a01b0316815260200160608152602001606081526020016000815260200160008152602001600081526020016000151581526020016000151581526020016000151581525090565b8280546142fe906150b7565b90600052602060002090601f0160209004810192826143205760008555614366565b82601f1061433957805160ff1916838001178555614366565b82800160010185558215614366579182015b8281111561436657825182559160200191906001019061434b565b5061437292915061450d565b5090565b6040518060e00160405280600081526020016000815260200160006001600160a01b0316815260200160008152602001606081526020016000151581526020016000151581525090565b604051806101000160405280600081526020016000815260200160006001600160a01b03168152602001606081526020016060815260200160608152602001606081526020016000151581525090565b6040518060c001604052806000815260200160006001600160a01b031681526020016060815260200160608152602001606081526020016000151581525090565b6040518060c00160405280600081526020016000815260200160008152602001600081526020016000151581526020016000151581525090565b6040518060c001604052806000815260200160006001600160a01b031681526020016060815260200160608152602001600081526020016000151581525090565b6040518060c0016040528060008152602001600081526020016000815260200160006001600160a01b03168152602001600081526020016000151581525090565b5b80821115614372576000815560010161450e565b60006020828403121561453457600080fd5b5035919050565b6000815180845260005b8181101561456157602081850181015186830182015201614545565b81811115614573576000602083870101525b50601f01601f19169290920160200192915050565b8b8152602081018b90526001600160a01b038a166040820152610160606082018190526000906145ba8382018c61453b565b905082810360808401526145ce818b61453b565b60a0840199909952505060c081019590955260e0850193909352901515610100840152151561012083015215156101409091015295945050505050565b80356001600160a01b038116811461462257600080fd5b919050565b60006020828403121561463957600080fd5b611dfe8261460b565b634e487b7160e01b600052604160045260246000fd5b600082601f83011261466957600080fd5b813567ffffffffffffffff8082111561468457614684614642565b604051601f8301601f19908116603f011681019082821181831017156146ac576146ac614642565b816040528381528660208588010111156146c557600080fd5b836020870160208301376000602085830101528094505050505092915050565b600080600080600080600060e0888a03121561470057600080fd5b873596506147106020890161460b565b9550604088013567ffffffffffffffff8082111561472d57600080fd5b6147398b838c01614658565b965060608a013591508082111561474f57600080fd5b5061475c8a828b01614658565b979a969950949760808101359660a0820135965060c090910135945092505050565b6000806000806080858703121561479457600080fd5b84359350602085013592506147ab6040860161460b565b9150606085013567ffffffffffffffff8111156147c757600080fd5b6147d387828801614658565b91505092959194509250565b805182526020810151602083015260018060a01b036040820151166040830152606081015160608301526000608082015160e0608085015261482460e085018261453b565b905060a0830151151560a085015260c0830151151560c08501528091505092915050565b602081526000611dfe60208301846147df565b6000806040838503121561486e57600080fd5b8235915061487e6020840161460b565b90509250929050565b6000806040838503121561489a57600080fd5b6148a38361460b565b946020939093013593505050565b6000610160825184526020830151602085015260408301516148de60408601826001600160a01b03169052565b5060608301518160608601526148f68286018261453b565b91505060808301518482036080860152614910828261453b565b91505060a083015160a085015260c083015160c085015260e083015160e0850152610100808401516149458287018215159052565b5050610120838101511515908501526101408084015180151582870152611ed9565b6000602080830181845280855180835260408601915060408160051b870101925083870160005b828110156149bc57603f198886030184526149aa8583516148b1565b9450928501929085019060010161498e565b5092979650505050505050565b600080604083850312156149dc57600080fd5b50508035926020909101359150565b8681526001600160a01b038616602082015260c060408201819052600090614a159083018761453b565b8281036060840152614a27818761453b565b6080840195909552505090151560a090910152949350505050565b600061010082518452602083015160208501526040830151614a6f60408601826001600160a01b03169052565b506060830151816060860152614a878286018261453b565b91505060808301518482036080860152614aa1828261453b565b91505060a083015184820360a0860152614abb828261453b565b91505060c083015184820360c0860152614ad5828261453b565b91505060e08301516132f460e086018215159052565b602081526000611dfe6020830184614a42565b60008060008060808587031215614b1457600080fd5b614b1d8561460b565b9350602085013567ffffffffffffffff80821115614b3a57600080fd5b614b4688838901614658565b94506040870135915080821115614b5c57600080fd5b614b6888838901614658565b93506060870135915080821115614b7e57600080fd5b506147d387828801614658565b6000602080830181845280855180835260408601915060408160051b870101925083870160005b828110156149bc57603f19888603018452614bce8583516147df565b94509285019290850190600101614bb2565b602081526000611dfe60208301846148b1565b600080600060608486031215614c0857600080fd5b614c118461460b565b9250602084013567ffffffffffffffff80821115614c2e57600080fd5b614c3a87838801614658565b93506040860135915080821115614c5057600080fd5b50614c5d86828701614658565b9150509250925092565b6000602080830181845280855180835260408601915060408160051b870101925083870160005b828110156149bc57603f19888603018452614caa858351614a42565b94509285019290850190600101614c8e565b602081528151602082015260018060a01b0360208301511660408201526000604083015160c06060840152614cf460e084018261453b565b90506060840151601f1980858403016080860152614d12838361453b565b925060808601519150808584030160a086015250614d30828261453b565b91505060a0840151151560c08401528091505092915050565b888152602081018890526001600160a01b038716604082015261010060608201819052600090614d7b8382018961453b565b90508281036080840152614d8f818861453b565b905082810360a0840152614da3818761453b565b905082810360c0840152614db7818661453b565b91505082151560e08301529998505050505050505050565b600080600080600060a08688031215614de757600080fd5b614df08661460b565b9450602086013567ffffffffffffffff80821115614e0d57600080fd5b614e1989838a01614658565b95506040880135915080821115614e2f57600080fd5b614e3b89838a01614658565b94506060880135915080821115614e5157600080fd5b614e5d89838a01614658565b93506080880135915080821115614e7357600080fd5b50614e8088828901614658565b9150509295509295909350565b87815286602082015260018060a01b038616604082015284606082015260e060808201526000614ec060e083018661453b565b93151560a08301525090151560c09091015295945050505050565b8681526001600160a01b038616602082015260c060408201819052600090614f059083018761453b565b8281036060840152614f17818761453b565b90508281036080840152614f2b818661453b565b91505082151560a0830152979650505050505050565b602080825282518282018190526000919060409081850190868401855b82811015614fb757815180518552868101518786015285810151868601526060808201516001600160a01b0316908601526080808201519086015260a09081015115159085015260c09093019290850190600101614f5e565b5091979650505050505050565b60008060008060808587031215614fda57600080fd5b8435935060208501359250614ff16040860161460b565b9150614fff6060860161460b565b905092959194509250565b602081528151602082015260018060a01b0360208301511660408201526000604083015160c0606084015261504260e084018261453b565b90506060840151601f1984830301608085015261505f828261453b565b915050608084015160a084015260a0840151151560c08401528091505092915050565b60008060006060848603121561509757600080fd5b83359250602084013591506150ae6040850161460b565b90509250925092565b600181811c908216806150cb57607f821691505b6020821081036150eb57634e487b7160e01b600052602260045260246000fd5b50919050565b634e487b7160e01b600052601160045260246000fd5b6000816000190483118215151615615121576151216150f1565b500290565b60008219821115615139576151396150f1565b500190565b600060018201615150576151506150f1565b5060010190565b634e487b7160e01b600052603260045260246000fd5b60008261518a57634e487b7160e01b600052601260045260246000fd5b500490565b6000602082840312156151a157600080fd5b81518015158114611dfe57600080fdfea26469706673582212200af3637c529908a293461d3cdbb83f2abf729779621037ce9567ac039e1a073364736f6c634300080d0033",
			"opcodes": "PUSH1 0x80 PUSH1 0x40 DUP2 SWAP1 MSTORE PUSH1 0x0 DUP1 SLOAD PUSH20 0xE49B05F2C7DD51F61E415E1DFAC10B80074B001A PUSH1 0x1 PUSH1 0x1 PUSH1 0xA0 SHL SUB NOT SWAP2 DUP3 AND OR SWAP1 SWAP2 SSTORE PUSH1 0x1 DUP1 SLOAD PUSH20 0x874069FA1EB16D44D622F2E0CA25EEA172369BC1 SWAP3 AND DUP3 OR SWAP1 SSTORE PUSH4 0x313CE567 PUSH1 0xE0 SHL DUP3 MSTORE SWAP1 PUSH4 0x313CE567 SWAP1 PUSH1 0x84 SWAP1 PUSH1 0x20 SWAP1 PUSH1 0x4 DUP2 DUP7 GAS STATICCALL ISZERO DUP1 ISZERO PUSH3 0x7D JUMPI RETURNDATASIZE PUSH1 0x0 DUP1 RETURNDATACOPY RETURNDATASIZE PUSH1 0x0 REVERT JUMPDEST POP POP POP POP PUSH1 0x40 MLOAD RETURNDATASIZE PUSH1 0x1F NOT PUSH1 0x1F DUP3 ADD AND DUP3 ADD DUP1 PUSH1 0x40 MSTORE POP DUP2 ADD SWAP1 PUSH3 0xA3 SWAP2 SWAP1 PUSH3 0xC7 JUMP JUMPDEST PUSH3 0xB0 SWAP1 PUSH1 0xA PUSH3 0x208 JUMP JUMPDEST PUSH1 0x2 SSTORE CALLVALUE DUP1 ISZERO PUSH3 0xC0 JUMPI PUSH1 0x0 DUP1 REVERT JUMPDEST POP PUSH3 0x219 JUMP JUMPDEST PUSH1 0x0 PUSH1 0x20 DUP3 DUP5 SUB SLT ISZERO PUSH3 0xDA JUMPI PUSH1 0x0 DUP1 REVERT JUMPDEST DUP2 MLOAD PUSH1 0xFF DUP2 AND DUP2 EQ PUSH3 0xEC JUMPI PUSH1 0x0 DUP1 REVERT JUMPDEST SWAP4 SWAP3 POP POP POP JUMP JUMPDEST PUSH4 0x4E487B71 PUSH1 0xE0 SHL PUSH1 0x0 MSTORE PUSH1 0x11 PUSH1 0x4 MSTORE PUSH1 0x24 PUSH1 0x0 REVERT JUMPDEST PUSH1 0x1 DUP2 DUP2 JUMPDEST DUP1 DUP6 GT ISZERO PUSH3 0x14A JUMPI DUP2 PUSH1 0x0 NOT DIV DUP3 GT ISZERO PUSH3 0x12E JUMPI PUSH3 0x12E PUSH3 0xF3 JUMP JUMPDEST DUP1 DUP6 AND ISZERO PUSH3 0x13C JUMPI SWAP2 DUP2 MUL SWAP2 JUMPDEST SWAP4 DUP5 SHR SWAP4 SWAP1 DUP1 MUL SWAP1 PUSH3 0x10E JUMP JUMPDEST POP SWAP3 POP SWAP3 SWAP1 POP JUMP JUMPDEST PUSH1 0x0 DUP3 PUSH3 0x163 JUMPI POP PUSH1 0x1 PUSH3 0x202 JUMP JUMPDEST DUP2 PUSH3 0x172 JUMPI POP PUSH1 0x0 PUSH3 0x202 JUMP JUMPDEST DUP2 PUSH1 0x1 DUP2 EQ PUSH3 0x18B JUMPI PUSH1 0x2 DUP2 EQ PUSH3 0x196 JUMPI PUSH3 0x1B6 JUMP JUMPDEST PUSH1 0x1 SWAP2 POP POP PUSH3 0x202 JUMP JUMPDEST PUSH1 0xFF DUP5 GT ISZERO PUSH3 0x1AA JUMPI PUSH3 0x1AA PUSH3 0xF3 JUMP JUMPDEST POP POP PUSH1 0x1 DUP3 SHL PUSH3 0x202 JUMP JUMPDEST POP PUSH1 0x20 DUP4 LT PUSH2 0x133 DUP4 LT AND PUSH1 0x4E DUP5 LT PUSH1 0xB DUP5 LT AND OR ISZERO PUSH3 0x1DB JUMPI POP DUP2 DUP2 EXP PUSH3 0x202 JUMP JUMPDEST PUSH3 0x1E7 DUP4 DUP4 PUSH3 0x109 JUMP JUMPDEST DUP1 PUSH1 0x0 NOT DIV DUP3 GT ISZERO PUSH3 0x1FE JUMPI PUSH3 0x1FE PUSH3 0xF3 JUMP JUMPDEST MUL SWAP1 POP JUMPDEST SWAP3 SWAP2 POP POP JUMP JUMPDEST PUSH1 0x0 PUSH3 0xEC PUSH1 0xFF DUP5 AND DUP4 PUSH3 0x152 JUMP JUMPDEST PUSH2 0x51E7 DUP1 PUSH3 0x229 PUSH1 0x0 CODECOPY PUSH1 0x0 RETURN INVALID PUSH1 0x80 PUSH1 0x40 MSTORE CALLVALUE DUP1 ISZERO PUSH2 0x10 JUMPI PUSH1 0x0 DUP1 REVERT JUMPDEST POP PUSH1 0x4 CALLDATASIZE LT PUSH2 0x3AF JUMPI PUSH1 0x0 CALLDATALOAD PUSH1 0xE0 SHR DUP1 PUSH4 0x8C056233 GT PUSH2 0x1F4 JUMPI DUP1 PUSH4 0xC3703048 GT PUSH2 0x11A JUMPI DUP1 PUSH4 0xDE63F432 GT PUSH2 0xAD JUMPI DUP1 PUSH4 0xE9D3AC50 GT PUSH2 0x7C JUMPI DUP1 PUSH4 0xE9D3AC50 EQ PUSH2 0xB3F JUMPI DUP1 PUSH4 0xE9DA1029 EQ PUSH2 0xB52 JUMPI DUP1 PUSH4 0xED04470C EQ PUSH2 0xB65 JUMPI DUP1 PUSH4 0xFAE0F23F EQ PUSH2 0xB6E JUMPI PUSH1 0x0 DUP1 REVERT JUMPDEST DUP1 PUSH4 0xDE63F432 EQ PUSH2 0xABF JUMPI DUP1 PUSH4 0xE1FF3FB7 EQ PUSH2 0xB03 JUMPI DUP1 PUSH4 0xE35A8441 EQ PUSH2 0xB0C JUMPI DUP1 PUSH4 0xE926CA45 EQ PUSH2 0xB2C JUMPI PUSH1 0x0 DUP1 REVERT JUMPDEST DUP1 PUSH4 0xD243B249 GT PUSH2 0xE9 JUMPI DUP1 PUSH4 0xD243B249 EQ PUSH2 0xA61 JUMPI DUP1 PUSH4 0xD39F622A EQ PUSH2 0xA74 JUMPI DUP1 PUSH4 0xD9AD496D EQ PUSH2 0xA7D JUMPI DUP1 PUSH4 0xDB8AC181 EQ PUSH2 0xAAC JUMPI PUSH1 0x0 DUP1 REVERT JUMPDEST DUP1 PUSH4 0xC3703048 EQ PUSH2 0x9C6 JUMPI DUP1 PUSH4 0xC64D0D85 EQ PUSH2 0x9EB JUMPI DUP1 PUSH4 0xCCA050A1 EQ PUSH2 0xA0B JUMPI DUP1 PUSH4 0xCCF9844F EQ PUSH2 0xA41 JUMPI PUSH1 0x0 DUP1 REVERT JUMPDEST DUP1 PUSH4 0xA4BFADDF GT PUSH2 0x192 JUMPI DUP1 PUSH4 0xB2514292 GT PUSH2 0x161 JUMPI DUP1 PUSH4 0xB2514292 EQ PUSH2 0x948 JUMPI DUP1 PUSH4 0xBAF3F49E EQ PUSH2 0x96E JUMPI DUP1 PUSH4 0xBD7863FD EQ PUSH2 0x99D JUMPI DUP1 PUSH4 0xC1DF9E90 EQ PUSH2 0x9A6 JUMPI PUSH1 0x0 DUP1 REVERT JUMPDEST DUP1 PUSH4 0xA4BFADDF EQ PUSH2 0x8D6 JUMPI DUP1 PUSH4 0xAD9ADEAD EQ PUSH2 0x8DF JUMPI DUP1 PUSH4 0xB0344580 EQ PUSH2 0x906 JUMPI DUP1 PUSH4 0xB0EEBD18 EQ PUSH2 0x935 JUMPI PUSH1 0x0 DUP1 REVERT JUMPDEST DUP1 PUSH4 0x9100B5DD GT PUSH2 0x1CE JUMPI DUP1 PUSH4 0x9100B5DD EQ PUSH2 0x887 JUMPI DUP1 PUSH4 0x9D30DC61 EQ PUSH2 0x890 JUMPI DUP1 PUSH4 0xA064DDA2 EQ PUSH2 0x8B0 JUMPI DUP1 PUSH4 0xA382148A EQ PUSH2 0x8C3 JUMPI PUSH1 0x0 DUP1 REVERT JUMPDEST DUP1 PUSH4 0x8C056233 EQ PUSH2 0x83E JUMPI DUP1 PUSH4 0x8E1AFC95 EQ PUSH2 0x85E JUMPI DUP1 PUSH4 0x904716F6 EQ PUSH2 0x867 JUMPI PUSH1 0x0 DUP1 REVERT JUMPDEST DUP1 PUSH4 0x60CDD94A GT PUSH2 0x2D9 JUMPI DUP1 PUSH4 0x78C5AB69 GT PUSH2 0x277 JUMPI DUP1 PUSH4 0x7DDC914A GT PUSH2 0x246 JUMPI DUP1 PUSH4 0x7DDC914A EQ PUSH2 0x7D8 JUMPI DUP1 PUSH4 0x7F868A8E EQ PUSH2 0x7F8 JUMPI DUP1 PUSH4 0x818D5254 EQ PUSH2 0x80B JUMPI DUP1 PUSH4 0x852C8EA7 EQ PUSH2 0x82B JUMPI PUSH1 0x0 DUP1 REVERT JUMPDEST DUP1 PUSH4 0x78C5AB69 EQ PUSH2 0x72F JUMPI DUP1 PUSH4 0x78D61865 EQ PUSH2 0x742 JUMPI DUP1 PUSH4 0x79382F00 EQ PUSH2 0x7A5 JUMPI DUP1 PUSH4 0x79F19780 EQ PUSH2 0x7C5 JUMPI PUSH1 0x0 DUP1 REVERT JUMPDEST DUP1 PUSH4 0x69DB2DB3 GT PUSH2 0x2B3 JUMPI DUP1 PUSH4 0x69DB2DB3 EQ PUSH2 0x698 JUMPI DUP1 PUSH4 0x6A098823 EQ PUSH2 0x6B8 JUMPI DUP1 PUSH4 0x6E93E563 EQ PUSH2 0x6F1 JUMPI DUP1 PUSH4 0x78C38F3A EQ PUSH2 0x71C JUMPI PUSH1 0x0 DUP1 REVERT JUMPDEST DUP1 PUSH4 0x60CDD94A EQ PUSH2 0x5F7 JUMPI DUP1 PUSH4 0x621D571D EQ PUSH2 0x617 JUMPI DUP1 PUSH4 0x6861F01F EQ PUSH2 0x66A JUMPI PUSH1 0x0 DUP1 REVERT JUMPDEST DUP1 PUSH4 0x38A59A07 GT PUSH2 0x351 JUMPI DUP1 PUSH4 0x4464CE95 GT PUSH2 0x320 JUMPI DUP1 PUSH4 0x4464CE95 EQ PUSH2 0x596 JUMPI DUP1 PUSH4 0x4633F488 EQ PUSH2 0x5B6 JUMPI DUP1 PUSH4 0x4D148F40 EQ PUSH2 0x5C9 JUMPI DUP1 PUSH4 0x5BF35E66 EQ PUSH2 0x5EE JUMPI PUSH1 0x0 DUP1 REVERT JUMPDEST DUP1 PUSH4 0x38A59A07 EQ PUSH2 0x4F4 JUMPI DUP1 PUSH4 0x3A6A44E2 EQ PUSH2 0x509 JUMPI DUP1 PUSH4 0x4217D66F EQ PUSH2 0x54A JUMPI DUP1 PUSH4 0x431B710A EQ PUSH2 0x55D JUMPI PUSH1 0x0 DUP1 REVERT JUMPDEST DUP1 PUSH4 0xDF63082 GT PUSH2 0x38D JUMPI DUP1 PUSH4 0xDF63082 EQ PUSH2 0x433 JUMPI DUP1 PUSH4 0x1D4D3BA4 EQ PUSH2 0x446 JUMPI DUP1 PUSH4 0x2F8E211E EQ PUSH2 0x466 JUMPI DUP1 PUSH4 0x3755C2B2 EQ PUSH2 0x4A4 JUMPI PUSH1 0x0 DUP1 REVERT JUMPDEST DUP1 PUSH4 0x6C49713 EQ PUSH2 0x3B4 JUMPI DUP1 PUSH4 0x72DF68A EQ PUSH2 0x3E7 JUMPI DUP1 PUSH4 0xDE0350F EQ PUSH2 0x41E JUMPI JUMPDEST PUSH1 0x0 DUP1 REVERT JUMPDEST PUSH2 0x3C7 PUSH2 0x3C2 CALLDATASIZE PUSH1 0x4 PUSH2 0x4522 JUMP JUMPDEST PUSH2 0xB81 JUMP JUMPDEST PUSH1 0x40 MLOAD PUSH2 0x3DE SWAP12 SWAP11 SWAP10 SWAP9 SWAP8 SWAP7 SWAP6 SWAP5 SWAP4 SWAP3 SWAP2 SWAP1 PUSH2 0x4588 JUMP JUMPDEST PUSH1 0x40 MLOAD DUP1 SWAP2 SUB SWAP1 RETURN JUMPDEST PUSH2 0x410 PUSH2 0x3F5 CALLDATASIZE PUSH1 0x4 PUSH2 0x4627 JUMP JUMPDEST PUSH1 0x1 PUSH1 0x1 PUSH1 0xA0 SHL SUB AND PUSH1 0x0 SWAP1 DUP2 MSTORE PUSH1 0xB PUSH1 0x20 MSTORE PUSH1 0x40 SWAP1 KECCAK256 SLOAD SWAP1 JUMP JUMPDEST PUSH1 0x40 MLOAD SWAP1 DUP2 MSTORE PUSH1 0x20 ADD PUSH2 0x3DE JUMP JUMPDEST PUSH2 0x431 PUSH2 0x42C CALLDATASIZE PUSH1 0x4 PUSH2 0x46E5 JUMP JUMPDEST PUSH2 0xD10 JUMP JUMPDEST STOP JUMPDEST PUSH2 0x431 PUSH2 0x441 CALLDATASIZE PUSH1 0x4 PUSH2 0x477E JUMP JUMPDEST PUSH2 0xF45 JUMP JUMPDEST PUSH2 0x459 PUSH2 0x454 CALLDATASIZE PUSH1 0x4 PUSH2 0x4522 JUMP JUMPDEST PUSH2 0x1198 JUMP JUMPDEST PUSH1 0x40 MLOAD PUSH2 0x3DE SWAP2 SWAP1 PUSH2 0x4848 JUMP JUMPDEST PUSH2 0x494 PUSH2 0x474 CALLDATASIZE PUSH1 0x4 PUSH2 0x485B JUMP JUMPDEST PUSH1 0x13 PUSH1 0x20 SWAP1 DUP2 MSTORE PUSH1 0x0 SWAP3 DUP4 MSTORE PUSH1 0x40 DUP1 DUP5 KECCAK256 SWAP1 SWAP2 MSTORE SWAP1 DUP3 MSTORE SWAP1 KECCAK256 SLOAD PUSH1 0xFF AND DUP2 JUMP JUMPDEST PUSH1 0x40 MLOAD SWAP1 ISZERO ISZERO DUP2 MSTORE PUSH1 0x20 ADD PUSH2 0x3DE JUMP JUMPDEST PUSH2 0x4B7 PUSH2 0x4B2 CALLDATASIZE PUSH1 0x4 PUSH2 0x4887 JUMP JUMPDEST PUSH2 0x12D2 JUMP JUMPDEST PUSH1 0x40 DUP1 MLOAD SWAP7 DUP8 MSTORE PUSH1 0x20 DUP8 ADD SWAP6 SWAP1 SWAP6 MSTORE PUSH1 0x1 PUSH1 0x1 PUSH1 0xA0 SHL SUB SWAP1 SWAP4 AND SWAP4 DUP6 ADD SWAP4 SWAP1 SWAP4 MSTORE PUSH1 0x60 DUP5 ADD MSTORE PUSH1 0x80 DUP4 ADD SWAP2 SWAP1 SWAP2 MSTORE ISZERO ISZERO PUSH1 0xA0 DUP3 ADD MSTORE PUSH1 0xC0 ADD PUSH2 0x3DE JUMP JUMPDEST PUSH2 0x4FC PUSH2 0x1332 JUMP JUMPDEST PUSH1 0x40 MLOAD PUSH2 0x3DE SWAP2 SWAP1 PUSH2 0x4967 JUMP JUMPDEST PUSH2 0x532 PUSH2 0x517 CALLDATASIZE PUSH1 0x4 PUSH2 0x4522 JUMP JUMPDEST PUSH1 0xC PUSH1 0x20 MSTORE PUSH1 0x0 SWAP1 DUP2 MSTORE PUSH1 0x40 SWAP1 KECCAK256 SLOAD PUSH1 0x1 PUSH1 0x1 PUSH1 0xA0 SHL SUB AND DUP2 JUMP JUMPDEST PUSH1 0x40 MLOAD PUSH1 0x1 PUSH1 0x1 PUSH1 0xA0 SHL SUB SWAP1 SWAP2 AND DUP2 MSTORE PUSH1 0x20 ADD PUSH2 0x3DE JUMP JUMPDEST PUSH2 0x410 PUSH2 0x558 CALLDATASIZE PUSH1 0x4 PUSH2 0x485B JUMP JUMPDEST PUSH2 0x1533 JUMP JUMPDEST PUSH2 0x494 PUSH2 0x56B CALLDATASIZE PUSH1 0x4 PUSH2 0x485B JUMP JUMPDEST PUSH1 0x0 SWAP2 DUP3 MSTORE PUSH1 0x12 PUSH1 0x20 SWAP1 DUP2 MSTORE PUSH1 0x40 DUP1 DUP5 KECCAK256 PUSH1 0x1 PUSH1 0x1 PUSH1 0xA0 SHL SUB SWAP4 SWAP1 SWAP4 AND DUP5 MSTORE SWAP2 SWAP1 MSTORE SWAP1 KECCAK256 SLOAD PUSH1 0xFF AND SWAP1 JUMP JUMPDEST PUSH2 0x410 PUSH2 0x5A4 CALLDATASIZE PUSH1 0x4 PUSH2 0x4522 JUMP JUMPDEST PUSH1 0x6 PUSH1 0x20 MSTORE PUSH1 0x0 SWAP1 DUP2 MSTORE PUSH1 0x40 SWAP1 KECCAK256 SLOAD DUP2 JUMP JUMPDEST PUSH2 0x431 PUSH2 0x5C4 CALLDATASIZE PUSH1 0x4 PUSH2 0x49C9 JUMP JUMPDEST PUSH2 0x166D JUMP JUMPDEST PUSH2 0x5DC PUSH2 0x5D7 CALLDATASIZE PUSH1 0x4 PUSH2 0x4627 JUMP JUMPDEST PUSH2 0x186F JUMP JUMPDEST PUSH1 0x40 MLOAD PUSH2 0x3DE SWAP7 SWAP6 SWAP5 SWAP4 SWAP3 SWAP2 SWAP1 PUSH2 0x49EB JUMP JUMPDEST PUSH2 0x410 PUSH1 0x1A SLOAD DUP2 JUMP JUMPDEST PUSH2 0x60A PUSH2 0x605 CALLDATASIZE PUSH1 0x4 PUSH2 0x4627 JUMP JUMPDEST PUSH2 0x19C2 JUMP JUMPDEST PUSH1 0x40 MLOAD PUSH2 0x3DE SWAP2 SWAP1 PUSH2 0x4AEB JUMP JUMPDEST PUSH2 0x62A PUSH2 0x625 CALLDATASIZE PUSH1 0x4 PUSH2 0x4522 JUMP JUMPDEST PUSH2 0x1C76 JUMP JUMPDEST PUSH1 0x40 DUP1 MLOAD SWAP8 DUP9 MSTORE PUSH1 0x20 DUP9 ADD SWAP7 SWAP1 SWAP7 MSTORE SWAP5 DUP7 ADD SWAP4 SWAP1 SWAP4 MSTORE PUSH1 0x60 DUP6 ADD SWAP2 SWAP1 SWAP2 MSTORE PUSH1 0x1 PUSH1 0x1 PUSH1 0xA0 SHL SUB AND PUSH1 0x80 DUP5 ADD MSTORE PUSH1 0xA0 DUP4 ADD MSTORE ISZERO ISZERO PUSH1 0xC0 DUP3 ADD MSTORE PUSH1 0xE0 ADD PUSH2 0x3DE JUMP JUMPDEST PUSH2 0x494 PUSH2 0x678 CALLDATASIZE PUSH1 0x4 PUSH2 0x485B JUMP JUMPDEST PUSH1 0x12 PUSH1 0x20 SWAP1 DUP2 MSTORE PUSH1 0x0 SWAP3 DUP4 MSTORE PUSH1 0x40 DUP1 DUP5 KECCAK256 SWAP1 SWAP2 MSTORE SWAP1 DUP3 MSTORE SWAP1 KECCAK256 SLOAD PUSH1 0xFF AND DUP2 JUMP JUMPDEST PUSH2 0x410 PUSH2 0x6A6 CALLDATASIZE PUSH1 0x4 PUSH2 0x4522 JUMP JUMPDEST PUSH1 0x0 SWAP1 DUP2 MSTORE PUSH1 0x7 PUSH1 0x20 MSTORE PUSH1 0x40 SWAP1 KECCAK256 SLOAD SWAP1 JUMP JUMPDEST PUSH2 0x494 PUSH2 0x6C6 CALLDATASIZE PUSH1 0x4 PUSH2 0x485B JUMP JUMPDEST PUSH1 0x0 SWAP2 DUP3 MSTORE PUSH1 0x13 PUSH1 0x20 SWAP1 DUP2 MSTORE PUSH1 0x40 DUP1 DUP5 KECCAK256 PUSH1 0x1 PUSH1 0x1 PUSH1 0xA0 SHL SUB SWAP4 SWAP1 SWAP4 AND DUP5 MSTORE SWAP2 SWAP1 MSTORE SWAP1 KECCAK256 SLOAD PUSH1 0xFF AND SWAP1 JUMP JUMPDEST PUSH2 0x410 PUSH2 0x6FF CALLDATASIZE PUSH1 0x4 PUSH2 0x485B JUMP JUMPDEST PUSH1 0xF PUSH1 0x20 SWAP1 DUP2 MSTORE PUSH1 0x0 SWAP3 DUP4 MSTORE PUSH1 0x40 DUP1 DUP5 KECCAK256 SWAP1 SWAP2 MSTORE SWAP1 DUP3 MSTORE SWAP1 KECCAK256 SLOAD DUP2 JUMP JUMPDEST PUSH2 0x431 PUSH2 0x72A CALLDATASIZE PUSH1 0x4 PUSH2 0x4AFE JUMP JUMPDEST PUSH2 0x1CD1 JUMP JUMPDEST PUSH2 0x410 PUSH2 0x73D CALLDATASIZE PUSH1 0x4 PUSH2 0x4522 JUMP JUMPDEST PUSH2 0x1DC4 JUMP JUMPDEST PUSH2 0x755 PUSH2 0x750 CALLDATASIZE PUSH1 0x4 PUSH2 0x485B JUMP JUMPDEST PUSH2 0x1E05 JUMP JUMPDEST PUSH1 0x40 MLOAD PUSH2 0x3DE SWAP2 SWAP1 PUSH1 0x0 PUSH1 0xC0 DUP3 ADD SWAP1 POP DUP3 MLOAD DUP3 MSTORE PUSH1 0x20 DUP4 ADD MLOAD PUSH1 0x20 DUP4 ADD MSTORE PUSH1 0x40 DUP4 ADD MLOAD PUSH1 0x40 DUP4 ADD MSTORE PUSH1 0x60 DUP4 ADD MLOAD PUSH1 0x60 DUP4 ADD MSTORE PUSH1 0x80 DUP4 ADD MLOAD ISZERO ISZERO PUSH1 0x80 DUP4 ADD MSTORE PUSH1 0xA0 DUP4 ADD MLOAD ISZERO ISZERO PUSH1 0xA0 DUP4 ADD MSTORE SWAP3 SWAP2 POP POP JUMP JUMPDEST PUSH2 0x7B8 PUSH2 0x7B3 CALLDATASIZE PUSH1 0x4 PUSH2 0x4522 JUMP JUMPDEST PUSH2 0x1EE3 JUMP JUMPDEST PUSH1 0x40 MLOAD PUSH2 0x3DE SWAP2 SWAP1 PUSH2 0x4B8B JUMP JUMPDEST PUSH2 0x60A PUSH2 0x7D3 CALLDATASIZE PUSH1 0x4 PUSH2 0x4522 JUMP JUMPDEST PUSH2 0x20E1 JUMP JUMPDEST PUSH2 0x7EB PUSH2 0x7E6 CALLDATASIZE PUSH1 0x4 PUSH2 0x4522 JUMP JUMPDEST PUSH2 0x2113 JUMP JUMPDEST PUSH1 0x40 MLOAD PUSH2 0x3DE SWAP2 SWAP1 PUSH2 0x4BE0 JUMP JUMPDEST PUSH2 0x431 PUSH2 0x806 CALLDATASIZE PUSH1 0x4 PUSH2 0x4BF3 JUMP JUMPDEST PUSH2 0x2302 JUMP JUMPDEST PUSH2 0x410 PUSH2 0x819 CALLDATASIZE PUSH1 0x4 PUSH2 0x4627 JUMP JUMPDEST PUSH1 0xB PUSH1 0x20 MSTORE PUSH1 0x0 SWAP1 DUP2 MSTORE PUSH1 0x40 SWAP1 KECCAK256 SLOAD DUP2 JUMP JUMPDEST PUSH2 0x410 PUSH2 0x839 CALLDATASIZE PUSH1 0x4 PUSH2 0x4522 JUMP JUMPDEST PUSH2 0x23E4 JUMP JUMPDEST PUSH2 0x410 PUSH2 0x84C CALLDATASIZE PUSH1 0x4 PUSH2 0x4522 JUMP JUMPDEST PUSH1 0x7 PUSH1 0x20 MSTORE PUSH1 0x0 SWAP1 DUP2 MSTORE PUSH1 0x40 SWAP1 KECCAK256 SLOAD DUP2 JUMP JUMPDEST PUSH2 0x410 PUSH1 0x17 SLOAD DUP2 JUMP JUMPDEST PUSH2 0x87A PUSH2 0x875 CALLDATASIZE PUSH1 0x4 PUSH2 0x4522 JUMP JUMPDEST PUSH2 0x2410 JUMP JUMPDEST PUSH1 0x40 MLOAD PUSH2 0x3DE SWAP2 SWAP1 PUSH2 0x4C67 JUMP JUMPDEST PUSH2 0x410 PUSH1 0x19 SLOAD DUP2 JUMP JUMPDEST PUSH2 0x8A3 PUSH2 0x89E CALLDATASIZE PUSH1 0x4 PUSH2 0x4627 JUMP JUMPDEST PUSH2 0x261A JUMP JUMPDEST PUSH1 0x40 MLOAD PUSH2 0x3DE SWAP2 SWAP1 PUSH2 0x4CBC JUMP JUMPDEST PUSH2 0x60A PUSH2 0x8BE CALLDATASIZE PUSH1 0x4 PUSH2 0x4522 JUMP JUMPDEST PUSH2 0x282B JUMP JUMPDEST PUSH2 0x7B8 PUSH2 0x8D1 CALLDATASIZE PUSH1 0x4 PUSH2 0x4627 JUMP JUMPDEST PUSH2 0x2973 JUMP JUMPDEST PUSH2 0x410 PUSH1 0x1B SLOAD DUP2 JUMP JUMPDEST PUSH2 0x8F2 PUSH2 0x8ED CALLDATASIZE PUSH1 0x4 PUSH2 0x4627 JUMP JUMPDEST PUSH2 0x2B84 JUMP JUMPDEST PUSH1 0x40 MLOAD PUSH2 0x3DE SWAP9 SWAP8 SWAP7 SWAP6 SWAP5 SWAP4 SWAP3 SWAP2 SWAP1 PUSH2 0x4D49 JUMP JUMPDEST PUSH2 0x494 PUSH2 0x914 CALLDATASIZE PUSH1 0x4 PUSH2 0x4627 JUMP JUMPDEST PUSH1 0x1 PUSH1 0x1 PUSH1 0xA0 SHL SUB AND PUSH1 0x0 SWAP1 DUP2 MSTORE PUSH1 0xD PUSH1 0x20 MSTORE PUSH1 0x40 SWAP1 KECCAK256 PUSH1 0x5 ADD SLOAD PUSH1 0xFF AND SWAP1 JUMP JUMPDEST PUSH2 0x431 PUSH2 0x943 CALLDATASIZE PUSH1 0x4 PUSH2 0x4DCF JUMP JUMPDEST PUSH2 0x2DF4 JUMP JUMPDEST PUSH2 0x95B PUSH2 0x956 CALLDATASIZE PUSH1 0x4 PUSH2 0x4522 JUMP JUMPDEST PUSH2 0x2F18 JUMP JUMPDEST PUSH1 0x40 MLOAD PUSH2 0x3DE SWAP8 SWAP7 SWAP6 SWAP5 SWAP4 SWAP3 SWAP2 SWAP1 PUSH2 0x4E8D JUMP JUMPDEST PUSH2 0x494 PUSH2 0x97C CALLDATASIZE PUSH1 0x4 PUSH2 0x4627 JUMP JUMPDEST PUSH1 0x1 PUSH1 0x1 PUSH1 0xA0 SHL SUB AND PUSH1 0x0 SWAP1 DUP2 MSTORE PUSH1 0x3 PUSH1 0x20 MSTORE PUSH1 0x40 SWAP1 KECCAK256 PUSH1 0x5 ADD SLOAD PUSH1 0xFF AND SWAP1 JUMP JUMPDEST PUSH2 0x410 PUSH1 0x15 SLOAD DUP2 JUMP JUMPDEST PUSH2 0x410 PUSH2 0x9B4 CALLDATASIZE PUSH1 0x4 PUSH2 0x4627 JUMP JUMPDEST PUSH1 0xA PUSH1 0x20 MSTORE PUSH1 0x0 SWAP1 DUP2 MSTORE PUSH1 0x40 SWAP1 KECCAK256 SLOAD DUP2 JUMP JUMPDEST PUSH2 0x9D9 PUSH2 0x9D4 CALLDATASIZE PUSH1 0x4 PUSH2 0x4627 JUMP JUMPDEST PUSH2 0x3001 JUMP JUMPDEST PUSH1 0x40 MLOAD PUSH2 0x3DE SWAP7 SWAP6 SWAP5 SWAP4 SWAP3 SWAP2 SWAP1 PUSH2 0x4EDB JUMP JUMPDEST PUSH2 0x410 PUSH2 0x9F9 CALLDATASIZE PUSH1 0x4 PUSH2 0x4627 JUMP JUMPDEST PUSH1 0x4 PUSH1 0x20 MSTORE PUSH1 0x0 SWAP1 DUP2 MSTORE PUSH1 0x40 SWAP1 KECCAK256 SLOAD DUP2 JUMP JUMPDEST PUSH2 0x410 PUSH2 0xA19 CALLDATASIZE PUSH1 0x4 PUSH2 0x485B JUMP JUMPDEST PUSH1 0x0 SWAP2 DUP3 MSTORE PUSH1 0xF PUSH1 0x20 SWAP1 DUP2 MSTORE PUSH1 0x40 DUP1 DUP5 KECCAK256 PUSH1 0x1 PUSH1 0x1 PUSH1 0xA0 SHL SUB SWAP4 SWAP1 SWAP4 AND DUP5 MSTORE SWAP2 SWAP1 MSTORE SWAP1 KECCAK256 SLOAD SWAP1 JUMP JUMPDEST PUSH2 0xA54 PUSH2 0xA4F CALLDATASIZE PUSH1 0x4 PUSH2 0x4522 JUMP JUMPDEST PUSH2 0x31DB JUMP JUMPDEST PUSH1 0x40 MLOAD PUSH2 0x3DE SWAP2 SWAP1 PUSH2 0x4F41 JUMP JUMPDEST PUSH2 0x410 PUSH2 0xA6F CALLDATASIZE PUSH1 0x4 PUSH2 0x4627 JUMP JUMPDEST PUSH2 0x32FC JUMP JUMPDEST PUSH2 0x410 PUSH1 0x16 SLOAD DUP2 JUMP JUMPDEST PUSH2 0x494 PUSH2 0xA8B CALLDATASIZE PUSH1 0x4 PUSH2 0x4627 JUMP JUMPDEST PUSH1 0x1 PUSH1 0x1 PUSH1 0xA0 SHL SUB AND PUSH1 0x0 SWAP1 DUP2 MSTORE PUSH1 0x8 PUSH1 0x20 MSTORE PUSH1 0x40 SWAP1 KECCAK256 PUSH1 0x7 ADD SLOAD PUSH1 0xFF AND SWAP1 JUMP JUMPDEST PUSH2 0x431 PUSH2 0xABA CALLDATASIZE PUSH1 0x4 PUSH2 0x4FC4 JUMP JUMPDEST PUSH2 0x33C8 JUMP JUMPDEST PUSH2 0xAD2 PUSH2 0xACD CALLDATASIZE PUSH1 0x4 PUSH2 0x4522 JUMP JUMPDEST PUSH2 0x36E4 JUMP JUMPDEST PUSH1 0x40 DUP1 MLOAD SWAP7 DUP8 MSTORE PUSH1 0x20 DUP8 ADD SWAP6 SWAP1 SWAP6 MSTORE SWAP4 DUP6 ADD SWAP3 SWAP1 SWAP3 MSTORE PUSH1 0x60 DUP5 ADD MSTORE ISZERO ISZERO PUSH1 0x80 DUP4 ADD MSTORE ISZERO ISZERO PUSH1 0xA0 DUP3 ADD MSTORE PUSH1 0xC0 ADD PUSH2 0x3DE JUMP JUMPDEST PUSH2 0x410 PUSH1 0x18 SLOAD DUP2 JUMP JUMPDEST PUSH2 0xB1F PUSH2 0xB1A CALLDATASIZE PUSH1 0x4 PUSH2 0x4627 JUMP JUMPDEST PUSH2 0x3731 JUMP JUMPDEST PUSH1 0x40 MLOAD PUSH2 0x3DE SWAP2 SWAP1 PUSH2 0x500A JUMP JUMPDEST PUSH2 0x60A PUSH2 0xB3A CALLDATASIZE PUSH1 0x4 PUSH2 0x4522 JUMP JUMPDEST PUSH2 0x38B9 JUMP JUMPDEST PUSH2 0x410 PUSH2 0xB4D CALLDATASIZE PUSH1 0x4 PUSH2 0x4522 JUMP JUMPDEST PUSH2 0x3969 JUMP JUMPDEST PUSH2 0x459 PUSH2 0xB60 CALLDATASIZE PUSH1 0x4 PUSH2 0x5082 JUMP JUMPDEST PUSH2 0x3985 JUMP JUMPDEST PUSH2 0x410 PUSH1 0x14 SLOAD DUP2 JUMP JUMPDEST PUSH2 0x4FC PUSH2 0xB7C CALLDATASIZE PUSH1 0x4 PUSH2 0x4627 JUMP JUMPDEST PUSH2 0x3A05 JUMP JUMPDEST PUSH1 0x5 DUP2 DUP2 SLOAD DUP2 LT PUSH2 0xB91 JUMPI PUSH1 0x0 DUP1 REVERT JUMPDEST PUSH1 0x0 SWAP2 DUP3 MSTORE PUSH1 0x20 SWAP1 SWAP2 KECCAK256 PUSH1 0x9 SWAP1 SWAP2 MUL ADD DUP1 SLOAD PUSH1 0x1 DUP3 ADD SLOAD PUSH1 0x2 DUP4 ADD SLOAD PUSH1 0x3 DUP5 ADD DUP1 SLOAD SWAP4 SWAP6 POP SWAP2 SWAP4 PUSH1 0x1 PUSH1 0x1 PUSH1 0xA0 SHL SUB SWAP1 SWAP2 AND SWAP3 SWAP1 SWAP2 SWAP1 PUSH2 0xBD0 SWAP1 PUSH2 0x50B7 JUMP JUMPDEST DUP1 PUSH1 0x1F ADD PUSH1 0x20 DUP1 SWAP2 DIV MUL PUSH1 0x20 ADD PUSH1 0x40 MLOAD SWAP1 DUP2 ADD PUSH1 0x40 MSTORE DUP1 SWAP3 SWAP2 SWAP1 DUP2 DUP2 MSTORE PUSH1 0x20 ADD DUP3 DUP1 SLOAD PUSH2 0xBFC SWAP1 PUSH2 0x50B7 JUMP JUMPDEST DUP1 ISZERO PUSH2 0xC49 JUMPI DUP1 PUSH1 0x1F LT PUSH2 0xC1E JUMPI PUSH2 0x100 DUP1 DUP4 SLOAD DIV MUL DUP4 MSTORE SWAP2 PUSH1 0x20 ADD SWAP2 PUSH2 0xC49 JUMP JUMPDEST DUP3 ADD SWAP2 SWAP1 PUSH1 0x0 MSTORE PUSH1 0x20 PUSH1 0x0 KECCAK256 SWAP1 JUMPDEST DUP2 SLOAD DUP2 MSTORE SWAP1 PUSH1 0x1 ADD SWAP1 PUSH1 0x20 ADD DUP1 DUP4 GT PUSH2 0xC2C JUMPI DUP3 SWAP1 SUB PUSH1 0x1F AND DUP3 ADD SWAP2 JUMPDEST POP POP POP POP POP SWAP1 DUP1 PUSH1 0x4 ADD DUP1 SLOAD PUSH2 0xC5E SWAP1 PUSH2 0x50B7 JUMP JUMPDEST DUP1 PUSH1 0x1F ADD PUSH1 0x20 DUP1 SWAP2 DIV MUL PUSH1 0x20 ADD PUSH1 0x40 MLOAD SWAP1 DUP2 ADD PUSH1 0x40 MSTORE DUP1 SWAP3 SWAP2 SWAP1 DUP2 DUP2 MSTORE PUSH1 0x20 ADD DUP3 DUP1 SLOAD PUSH2 0xC8A SWAP1 PUSH2 0x50B7 JUMP JUMPDEST DUP1 ISZERO PUSH2 0xCD7 JUMPI DUP1 PUSH1 0x1F LT PUSH2 0xCAC JUMPI PUSH2 0x100 DUP1 DUP4 SLOAD DIV MUL DUP4 MSTORE SWAP2 PUSH1 0x20 ADD SWAP2 PUSH2 0xCD7 JUMP JUMPDEST DUP3 ADD SWAP2 SWAP1 PUSH1 0x0 MSTORE PUSH1 0x20 PUSH1 0x0 KECCAK256 SWAP1 JUMPDEST DUP2 SLOAD DUP2 MSTORE SWAP1 PUSH1 0x1 ADD SWAP1 PUSH1 0x20 ADD DUP1 DUP4 GT PUSH2 0xCBA JUMPI DUP3 SWAP1 SUB PUSH1 0x1F AND DUP3 ADD SWAP2 JUMPDEST POP POP POP POP PUSH1 0x5 DUP4 ADD SLOAD PUSH1 0x6 DUP5 ADD SLOAD PUSH1 0x7 DUP6 ADD SLOAD PUSH1 0x8 SWAP1 SWAP6 ADD SLOAD SWAP4 SWAP5 SWAP2 SWAP4 SWAP1 SWAP3 POP PUSH1 0xFF DUP1 DUP3 AND SWAP2 PUSH2 0x100 DUP2 DIV DUP3 AND SWAP2 PUSH3 0x10000 SWAP1 SWAP2 DIV AND DUP12 JUMP JUMPDEST PUSH1 0x15 SLOAD PUSH2 0xD1B PUSH2 0x4289 JUMP JUMPDEST DUP2 DUP2 MSTORE PUSH1 0x20 DUP2 ADD DUP10 SWAP1 MSTORE PUSH1 0x1 PUSH1 0x1 PUSH1 0xA0 SHL SUB DUP9 AND PUSH1 0x40 DUP3 ADD MSTORE PUSH1 0x60 DUP2 ADD DUP8 SWAP1 MSTORE PUSH1 0x80 DUP2 ADD DUP7 SWAP1 MSTORE PUSH1 0xA0 DUP2 ADD DUP6 SWAP1 MSTORE PUSH1 0xC0 DUP2 ADD DUP5 SWAP1 MSTORE PUSH1 0x1 PUSH2 0x140 DUP3 ADD MSTORE PUSH1 0x2 SLOAD PUSH1 0x0 SWAP1 PUSH2 0xD68 SWAP1 DUP6 PUSH2 0x5107 JUMP JUMPDEST PUSH1 0xE0 DUP4 ADD DUP2 SWAP1 MSTORE PUSH1 0x5 DUP1 SLOAD PUSH1 0x1 DUP2 ADD DUP3 SSTORE PUSH1 0x0 SWAP2 SWAP1 SWAP2 MSTORE DUP4 MLOAD PUSH1 0x9 SWAP1 SWAP2 MUL PUSH32 0x36B6384B5ECA791C62761152D0C79BB0604C104A5FB6F4EB0703F3154BB3DB0 DUP2 ADD SWAP2 DUP3 SSTORE PUSH1 0x20 DUP1 DUP7 ADD MLOAD PUSH32 0x36B6384B5ECA791C62761152D0C79BB0604C104A5FB6F4EB0703F3154BB3DB1 DUP4 ADD SSTORE PUSH1 0x40 DUP7 ADD MLOAD PUSH32 0x36B6384B5ECA791C62761152D0C79BB0604C104A5FB6F4EB0703F3154BB3DB2 DUP4 ADD DUP1 SLOAD PUSH1 0x1 PUSH1 0x1 PUSH1 0xA0 SHL SUB SWAP1 SWAP3 AND PUSH1 0x1 PUSH1 0x1 PUSH1 0xA0 SHL SUB NOT SWAP1 SWAP3 AND SWAP2 SWAP1 SWAP2 OR SWAP1 SSTORE PUSH1 0x60 DUP7 ADD MLOAD DUP1 MLOAD SWAP5 SWAP6 POP DUP7 SWAP5 PUSH2 0xE5A SWAP4 PUSH32 0x36B6384B5ECA791C62761152D0C79BB0604C104A5FB6F4EB0703F3154BB3DB3 ADD SWAP3 SWAP2 SWAP1 SWAP2 ADD SWAP1 PUSH2 0x42F2 JUMP JUMPDEST POP PUSH1 0x80 DUP3 ADD MLOAD DUP1 MLOAD PUSH2 0xE76 SWAP2 PUSH1 0x4 DUP5 ADD SWAP2 PUSH1 0x20 SWAP1 SWAP2 ADD SWAP1 PUSH2 0x42F2 JUMP JUMPDEST POP PUSH1 0xA0 DUP3 ADD MLOAD PUSH1 0x5 DUP3 ADD SSTORE PUSH1 0xC0 DUP3 ADD MLOAD PUSH1 0x6 DUP3 ADD SSTORE PUSH1 0xE0 DUP3 ADD MLOAD PUSH1 0x7 DUP3 ADD SSTORE PUSH2 0x100 DUP1 DUP4 ADD MLOAD PUSH1 0x8 SWAP1 SWAP3 ADD DUP1 SLOAD PUSH2 0x120 DUP6 ADD MLOAD PUSH2 0x140 SWAP1 SWAP6 ADD MLOAD PUSH2 0xFFFF NOT SWAP1 SWAP2 AND SWAP4 ISZERO ISZERO PUSH2 0xFF00 NOT AND SWAP4 SWAP1 SWAP4 OR SWAP4 ISZERO ISZERO SWAP1 SWAP2 MUL SWAP3 SWAP1 SWAP3 OR PUSH3 0xFF0000 NOT AND PUSH3 0x10000 SWAP2 ISZERO ISZERO SWAP2 SWAP1 SWAP2 MUL OR SWAP1 SSTORE PUSH1 0x1 PUSH1 0x1 PUSH1 0xA0 SHL SUB DUP10 AND PUSH1 0x0 SWAP1 DUP2 MSTORE PUSH1 0x4 PUSH1 0x20 MSTORE PUSH1 0x40 DUP2 KECCAK256 SLOAD SWAP1 PUSH2 0xF06 DUP3 PUSH1 0x1 PUSH2 0x5126 JUMP JUMPDEST PUSH1 0x1 PUSH1 0x1 PUSH1 0xA0 SHL SUB DUP13 AND PUSH1 0x0 SWAP1 DUP2 MSTORE PUSH1 0x4 PUSH1 0x20 MSTORE PUSH1 0x40 DUP2 KECCAK256 DUP3 SWAP1 SSTORE PUSH1 0x15 DUP1 SLOAD SWAP3 SWAP4 POP SWAP1 PUSH2 0xF32 DUP4 PUSH2 0x513E JUMP JUMPDEST SWAP2 SWAP1 POP SSTORE POP POP POP POP POP POP POP POP POP POP POP POP POP JUMP JUMPDEST PUSH1 0x0 PUSH2 0xF50 DUP6 PUSH2 0x2113 JUMP JUMPDEST SWAP1 POP DUP1 PUSH2 0x100 ADD MLOAD ISZERO PUSH2 0xF62 JUMPI PUSH1 0x0 DUP1 REVERT JUMPDEST PUSH1 0x0 DUP6 DUP2 MSTORE PUSH1 0x12 PUSH1 0x20 SWAP1 DUP2 MSTORE PUSH1 0x40 DUP1 DUP4 KECCAK256 PUSH1 0x1 PUSH1 0x1 PUSH1 0xA0 SHL SUB DUP8 AND DUP5 MSTORE SWAP1 SWAP2 MSTORE SWAP1 KECCAK256 SLOAD PUSH1 0xFF AND ISZERO PUSH2 0xF92 JUMPI PUSH1 0x0 DUP1 REVERT JUMPDEST PUSH1 0x17 SLOAD PUSH2 0xF9D PUSH2 0x4376 JUMP JUMPDEST DUP2 DUP2 MSTORE PUSH1 0x20 DUP1 DUP3 ADD DUP8 DUP2 MSTORE PUSH1 0x1 PUSH1 0x1 PUSH1 0xA0 SHL SUB DUP8 DUP2 AND PUSH1 0x40 DUP6 ADD SWAP1 DUP2 MSTORE PUSH1 0x60 DUP6 ADD DUP12 DUP2 MSTORE PUSH1 0x80 DUP7 ADD DUP10 DUP2 MSTORE PUSH1 0x1 PUSH1 0xC0 DUP9 ADD DUP2 SWAP1 MSTORE PUSH1 0x9 DUP1 SLOAD SWAP2 DUP3 ADD DUP2 SSTORE PUSH1 0x0 MSTORE DUP8 MLOAD PUSH32 0x6E1540171B6C0C960B71A7020D9F60077F6AF931A8BBF590DA0223DACF75C7AF PUSH1 0x6 SWAP1 SWAP3 MUL SWAP2 DUP3 ADD SWAP1 DUP2 SSTORE SWAP6 MLOAD PUSH32 0x6E1540171B6C0C960B71A7020D9F60077F6AF931A8BBF590DA0223DACF75C7B0 DUP3 ADD SSTORE SWAP3 MLOAD PUSH32 0x6E1540171B6C0C960B71A7020D9F60077F6AF931A8BBF590DA0223DACF75C7B1 DUP5 ADD DUP1 SLOAD PUSH1 0x1 PUSH1 0x1 PUSH1 0xA0 SHL SUB NOT AND SWAP2 SWAP1 SWAP6 AND OR SWAP1 SWAP4 SSTORE MLOAD PUSH32 0x6E1540171B6C0C960B71A7020D9F60077F6AF931A8BBF590DA0223DACF75C7B2 DUP3 ADD SSTORE SWAP1 MLOAD DUP1 MLOAD DUP6 SWAP5 PUSH2 0x10C3 SWAP4 PUSH32 0x6E1540171B6C0C960B71A7020D9F60077F6AF931A8BBF590DA0223DACF75C7B3 ADD SWAP3 ADD SWAP1 PUSH2 0x42F2 JUMP JUMPDEST POP PUSH1 0xA0 DUP3 ADD MLOAD PUSH1 0x5 SWAP1 SWAP2 ADD DUP1 SLOAD PUSH1 0xC0 SWAP1 SWAP4 ADD MLOAD ISZERO ISZERO PUSH2 0x100 MUL PUSH2 0xFF00 NOT SWAP3 ISZERO ISZERO SWAP3 SWAP1 SWAP3 AND PUSH2 0xFFFF NOT SWAP1 SWAP4 AND SWAP3 SWAP1 SWAP3 OR OR SWAP1 SSTORE PUSH1 0x0 DUP8 DUP2 MSTORE PUSH1 0x6 PUSH1 0x20 MSTORE PUSH1 0x40 DUP2 KECCAK256 SLOAD SWAP1 PUSH2 0x1110 DUP3 PUSH1 0x1 PUSH2 0x5126 JUMP JUMPDEST PUSH1 0x0 DUP11 DUP2 MSTORE PUSH1 0x6 PUSH1 0x20 SWAP1 DUP2 MSTORE PUSH1 0x40 DUP1 DUP4 KECCAK256 DUP5 SWAP1 SSTORE PUSH1 0x1 PUSH1 0x1 PUSH1 0xA0 SHL SUB DUP12 AND DUP4 MSTORE PUSH1 0xA SWAP1 SWAP2 MSTORE DUP2 KECCAK256 SLOAD SWAP2 SWAP3 POP PUSH2 0x1146 DUP3 PUSH1 0x1 PUSH2 0x5126 JUMP JUMPDEST PUSH1 0x1 PUSH1 0x1 PUSH1 0xA0 SHL SUB DUP11 AND PUSH1 0x0 SWAP1 DUP2 MSTORE PUSH1 0xA PUSH1 0x20 MSTORE PUSH1 0x40 DUP2 KECCAK256 DUP3 SWAP1 SSTORE PUSH1 0x17 DUP1 SLOAD SWAP3 SWAP4 POP SWAP1 PUSH2 0x1172 DUP4 PUSH2 0x513E JUMP JUMPDEST SWAP2 SWAP1 POP SSTORE POP DUP7 PUSH1 0xA0 ADD MLOAD DUP4 SUB PUSH2 0x118B JUMPI PUSH2 0x118B DUP12 PUSH2 0x3CCF JUMP JUMPDEST POP POP POP POP POP POP POP POP POP POP POP JUMP JUMPDEST PUSH2 0x11A0 PUSH2 0x4376 JUMP JUMPDEST PUSH1 0x9 DUP3 DUP2 SLOAD DUP2 LT PUSH2 0x11B3 JUMPI PUSH2 0x11B3 PUSH2 0x5157 JUMP JUMPDEST SWAP1 PUSH1 0x0 MSTORE PUSH1 0x20 PUSH1 0x0 KECCAK256 SWAP1 PUSH1 0x6 MUL ADD PUSH1 0x40 MLOAD DUP1 PUSH1 0xE0 ADD PUSH1 0x40 MSTORE SWAP1 DUP2 PUSH1 0x0 DUP3 ADD SLOAD DUP2 MSTORE PUSH1 0x20 ADD PUSH1 0x1 DUP3 ADD SLOAD DUP2 MSTORE PUSH1 0x20 ADD PUSH1 0x2 DUP3 ADD PUSH1 0x0 SWAP1 SLOAD SWAP1 PUSH2 0x100 EXP SWAP1 DIV PUSH1 0x1 PUSH1 0x1 PUSH1 0xA0 SHL SUB AND PUSH1 0x1 PUSH1 0x1 PUSH1 0xA0 SHL SUB AND PUSH1 0x1 PUSH1 0x1 PUSH1 0xA0 SHL SUB AND DUP2 MSTORE PUSH1 0x20 ADD PUSH1 0x3 DUP3 ADD SLOAD DUP2 MSTORE PUSH1 0x20 ADD PUSH1 0x4 DUP3 ADD DUP1 SLOAD PUSH2 0x1229 SWAP1 PUSH2 0x50B7 JUMP JUMPDEST DUP1 PUSH1 0x1F ADD PUSH1 0x20 DUP1 SWAP2 DIV MUL PUSH1 0x20 ADD PUSH1 0x40 MLOAD SWAP1 DUP2 ADD PUSH1 0x40 MSTORE DUP1 SWAP3 SWAP2 SWAP1 DUP2 DUP2 MSTORE PUSH1 0x20 ADD DUP3 DUP1 SLOAD PUSH2 0x1255 SWAP1 PUSH2 0x50B7 JUMP JUMPDEST DUP1 ISZERO PUSH2 0x12A2 JUMPI DUP1 PUSH1 0x1F LT PUSH2 0x1277 JUMPI PUSH2 0x100 DUP1 DUP4 SLOAD DIV MUL DUP4 MSTORE SWAP2 PUSH1 0x20 ADD SWAP2 PUSH2 0x12A2 JUMP JUMPDEST DUP3 ADD SWAP2 SWAP1 PUSH1 0x0 MSTORE PUSH1 0x20 PUSH1 0x0 KECCAK256 SWAP1 JUMPDEST DUP2 SLOAD DUP2 MSTORE SWAP1 PUSH1 0x1 ADD SWAP1 PUSH1 0x20 ADD DUP1 DUP4 GT PUSH2 0x1285 JUMPI DUP3 SWAP1 SUB PUSH1 0x1F AND DUP3 ADD SWAP2 JUMPDEST POP POP POP SWAP2 DUP4 MSTORE POP POP PUSH1 0x5 SWAP2 SWAP1 SWAP2 ADD SLOAD PUSH1 0xFF DUP1 DUP3 AND ISZERO ISZERO PUSH1 0x20 DUP5 ADD MSTORE PUSH2 0x100 SWAP1 SWAP2 DIV AND ISZERO ISZERO PUSH1 0x40 SWAP1 SWAP2 ADD MSTORE SWAP3 SWAP2 POP POP JUMP JUMPDEST PUSH1 0x11 PUSH1 0x20 MSTORE DUP2 PUSH1 0x0 MSTORE PUSH1 0x40 PUSH1 0x0 KECCAK256 DUP2 DUP2 SLOAD DUP2 LT PUSH2 0x12EE JUMPI PUSH1 0x0 DUP1 REVERT JUMPDEST PUSH1 0x0 SWAP2 DUP3 MSTORE PUSH1 0x20 SWAP1 SWAP2 KECCAK256 PUSH1 0x6 SWAP1 SWAP2 MUL ADD DUP1 SLOAD PUSH1 0x1 DUP3 ADD SLOAD PUSH1 0x2 DUP4 ADD SLOAD PUSH1 0x3 DUP5 ADD SLOAD PUSH1 0x4 DUP6 ADD SLOAD PUSH1 0x5 SWAP1 SWAP6 ADD SLOAD SWAP4 SWAP7 POP SWAP2 SWAP5 POP PUSH1 0x1 PUSH1 0x1 PUSH1 0xA0 SHL SUB AND SWAP3 SWAP1 SWAP2 PUSH1 0xFF AND DUP7 JUMP JUMPDEST PUSH1 0x60 PUSH1 0x5 DUP1 SLOAD DUP1 PUSH1 0x20 MUL PUSH1 0x20 ADD PUSH1 0x40 MLOAD SWAP1 DUP2 ADD PUSH1 0x40 MSTORE DUP1 SWAP3 SWAP2 SWAP1 DUP2 DUP2 MSTORE PUSH1 0x20 ADD PUSH1 0x0 SWAP1 JUMPDEST DUP3 DUP3 LT ISZERO PUSH2 0x152A JUMPI PUSH1 0x0 DUP5 DUP2 MSTORE PUSH1 0x20 SWAP1 DUP2 SWAP1 KECCAK256 PUSH1 0x40 DUP1 MLOAD PUSH2 0x160 DUP2 ADD DUP3 MSTORE PUSH1 0x9 DUP7 MUL SWAP1 SWAP3 ADD DUP1 SLOAD DUP4 MSTORE PUSH1 0x1 DUP2 ADD SLOAD SWAP4 DUP4 ADD SWAP4 SWAP1 SWAP4 MSTORE PUSH1 0x2 DUP4 ADD SLOAD PUSH1 0x1 PUSH1 0x1 PUSH1 0xA0 SHL SUB AND SWAP1 DUP3 ADD MSTORE PUSH1 0x3 DUP3 ADD DUP1 SLOAD SWAP2 SWAP3 SWAP2 PUSH1 0x60 DUP5 ADD SWAP2 SWAP1 PUSH2 0x13B5 SWAP1 PUSH2 0x50B7 JUMP JUMPDEST DUP1 PUSH1 0x1F ADD PUSH1 0x20 DUP1 SWAP2 DIV MUL PUSH1 0x20 ADD PUSH1 0x40 MLOAD SWAP1 DUP2 ADD PUSH1 0x40 MSTORE DUP1 SWAP3 SWAP2 SWAP1 DUP2 DUP2 MSTORE PUSH1 0x20 ADD DUP3 DUP1 SLOAD PUSH2 0x13E1 SWAP1 PUSH2 0x50B7 JUMP JUMPDEST DUP1 ISZERO PUSH2 0x142E JUMPI DUP1 PUSH1 0x1F LT PUSH2 0x1403 JUMPI PUSH2 0x100 DUP1 DUP4 SLOAD DIV MUL DUP4 MSTORE SWAP2 PUSH1 0x20 ADD SWAP2 PUSH2 0x142E JUMP JUMPDEST DUP3 ADD SWAP2 SWAP1 PUSH1 0x0 MSTORE PUSH1 0x20 PUSH1 0x0 KECCAK256 SWAP1 JUMPDEST DUP2 SLOAD DUP2 MSTORE SWAP1 PUSH1 0x1 ADD SWAP1 PUSH1 0x20 ADD DUP1 DUP4 GT PUSH2 0x1411 JUMPI DUP3 SWAP1 SUB PUSH1 0x1F AND DUP3 ADD SWAP2 JUMPDEST POP POP POP POP POP DUP2 MSTORE PUSH1 0x20 ADD PUSH1 0x4 DUP3 ADD DUP1 SLOAD PUSH2 0x1447 SWAP1 PUSH2 0x50B7 JUMP JUMPDEST DUP1 PUSH1 0x1F ADD PUSH1 0x20 DUP1 SWAP2 DIV MUL PUSH1 0x20 ADD PUSH1 0x40 MLOAD SWAP1 DUP2 ADD PUSH1 0x40 MSTORE DUP1 SWAP3 SWAP2 SWAP1 DUP2 DUP2 MSTORE PUSH1 0x20 ADD DUP3 DUP1 SLOAD PUSH2 0x1473 SWAP1 PUSH2 0x50B7 JUMP JUMPDEST DUP1 ISZERO PUSH2 0x14C0 JUMPI DUP1 PUSH1 0x1F LT PUSH2 0x1495 JUMPI PUSH2 0x100 DUP1 DUP4 SLOAD DIV MUL DUP4 MSTORE SWAP2 PUSH1 0x20 ADD SWAP2 PUSH2 0x14C0 JUMP JUMPDEST DUP3 ADD SWAP2 SWAP1 PUSH1 0x0 MSTORE PUSH1 0x20 PUSH1 0x0 KECCAK256 SWAP1 JUMPDEST DUP2 SLOAD DUP2 MSTORE SWAP1 PUSH1 0x1 ADD SWAP1 PUSH1 0x20 ADD DUP1 DUP4 GT PUSH2 0x14A3 JUMPI DUP3 SWAP1 SUB PUSH1 0x1F AND DUP3 ADD SWAP2 JUMPDEST POP POP POP SWAP2 DUP4 MSTORE POP POP PUSH1 0x5 DUP3 ADD SLOAD PUSH1 0x20 DUP1 DUP4 ADD SWAP2 SWAP1 SWAP2 MSTORE PUSH1 0x6 DUP4 ADD SLOAD PUSH1 0x40 DUP4 ADD MSTORE PUSH1 0x7 DUP4 ADD SLOAD PUSH1 0x60 DUP4 ADD MSTORE PUSH1 0x8 SWAP1 SWAP3 ADD SLOAD PUSH1 0xFF DUP1 DUP3 AND ISZERO ISZERO PUSH1 0x80 DUP5 ADD MSTORE PUSH2 0x100 DUP3 DIV DUP2 AND ISZERO ISZERO PUSH1 0xA0 DUP5 ADD MSTORE PUSH3 0x10000 SWAP1 SWAP2 DIV AND ISZERO ISZERO PUSH1 0xC0 SWAP1 SWAP2 ADD MSTORE SWAP1 DUP3 MSTORE PUSH1 0x1 SWAP3 SWAP1 SWAP3 ADD SWAP2 ADD PUSH2 0x1356 JUMP JUMPDEST POP POP POP POP SWAP1 POP SWAP1 JUMP JUMPDEST PUSH1 0x1 PUSH1 0x1 PUSH1 0xA0 SHL SUB DUP2 AND PUSH1 0x0 SWAP1 DUP2 MSTORE PUSH1 0x11 PUSH1 0x20 SWAP1 DUP2 MSTORE PUSH1 0x40 DUP1 DUP4 KECCAK256 DUP1 SLOAD DUP3 MLOAD DUP2 DUP6 MUL DUP2 ADD DUP6 ADD SWAP1 SWAP4 MSTORE DUP1 DUP4 MSTORE DUP5 SWAP4 DUP5 SWAP1 DUP5 ADD JUMPDEST DUP3 DUP3 LT ISZERO PUSH2 0x15DC JUMPI PUSH1 0x0 DUP5 DUP2 MSTORE PUSH1 0x20 SWAP1 DUP2 SWAP1 KECCAK256 PUSH1 0x40 DUP1 MLOAD PUSH1 0xC0 DUP2 ADD DUP3 MSTORE PUSH1 0x6 DUP7 MUL SWAP1 SWAP3 ADD DUP1 SLOAD DUP4 MSTORE PUSH1 0x1 DUP1 DUP3 ADD SLOAD DUP5 DUP7 ADD MSTORE PUSH1 0x2 DUP3 ADD SLOAD PUSH1 0x1 PUSH1 0x1 PUSH1 0xA0 SHL SUB AND SWAP3 DUP5 ADD SWAP3 SWAP1 SWAP3 MSTORE PUSH1 0x3 DUP2 ADD SLOAD PUSH1 0x60 DUP5 ADD MSTORE PUSH1 0x4 DUP2 ADD SLOAD PUSH1 0x80 DUP5 ADD MSTORE PUSH1 0x5 ADD SLOAD PUSH1 0xFF AND ISZERO ISZERO PUSH1 0xA0 DUP4 ADD MSTORE SWAP1 DUP4 MSTORE SWAP1 SWAP3 ADD SWAP2 ADD PUSH2 0x1566 JUMP JUMPDEST POP POP POP POP SWAP1 POP PUSH1 0x0 DUP1 JUMPDEST DUP3 MLOAD DUP2 LT ISZERO PUSH2 0x1664 JUMPI PUSH1 0x0 DUP4 DUP3 DUP2 MLOAD DUP2 LT PUSH2 0x1603 JUMPI PUSH2 0x1603 PUSH2 0x5157 JUMP JUMPDEST PUSH1 0x20 MUL PUSH1 0x20 ADD ADD MLOAD SWAP1 POP DUP7 DUP2 PUSH1 0x20 ADD MLOAD EQ DUP1 ISZERO PUSH2 0x1635 JUMPI POP DUP6 PUSH1 0x1 PUSH1 0x1 PUSH1 0xA0 SHL SUB AND DUP2 PUSH1 0x40 ADD MLOAD PUSH1 0x1 PUSH1 0x1 PUSH1 0xA0 SHL SUB AND EQ JUMPDEST ISZERO PUSH2 0x1651 JUMPI PUSH1 0x80 DUP2 ADD MLOAD PUSH2 0x1649 SWAP1 DUP5 PUSH2 0x5126 JUMP JUMPDEST SWAP3 POP POP PUSH2 0x1664 JUMP JUMPDEST POP DUP1 PUSH2 0x165C DUP2 PUSH2 0x513E JUMP JUMPDEST SWAP2 POP POP PUSH2 0x15E6 JUMP JUMPDEST POP SWAP5 SWAP4 POP POP POP POP JUMP JUMPDEST PUSH1 0x0 PUSH1 0x9 DUP4 DUP2 SLOAD DUP2 LT PUSH2 0x1682 JUMPI PUSH2 0x1682 PUSH2 0x5157 JUMP JUMPDEST SWAP1 PUSH1 0x0 MSTORE PUSH1 0x20 PUSH1 0x0 KECCAK256 SWAP1 PUSH1 0x6 MUL ADD PUSH1 0x40 MLOAD DUP1 PUSH1 0xE0 ADD PUSH1 0x40 MSTORE SWAP1 DUP2 PUSH1 0x0 DUP3 ADD SLOAD DUP2 MSTORE PUSH1 0x20 ADD PUSH1 0x1 DUP3 ADD SLOAD DUP2 MSTORE PUSH1 0x20 ADD PUSH1 0x2 DUP3 ADD PUSH1 0x0 SWAP1 SLOAD SWAP1 PUSH2 0x100 EXP SWAP1 DIV PUSH1 0x1 PUSH1 0x1 PUSH1 0xA0 SHL SUB AND PUSH1 0x1 PUSH1 0x1 PUSH1 0xA0 SHL SUB AND PUSH1 0x1 PUSH1 0x1 PUSH1 0xA0 SHL SUB AND DUP2 MSTORE PUSH1 0x20 ADD PUSH1 0x3 DUP3 ADD SLOAD DUP2 MSTORE PUSH1 0x20 ADD PUSH1 0x4 DUP3 ADD DUP1 SLOAD PUSH2 0x16F8 SWAP1 PUSH2 0x50B7 JUMP JUMPDEST DUP1 PUSH1 0x1F ADD PUSH1 0x20 DUP1 SWAP2 DIV MUL PUSH1 0x20 ADD PUSH1 0x40 MLOAD SWAP1 DUP2 ADD PUSH1 0x40 MSTORE DUP1 SWAP3 SWAP2 SWAP1 DUP2 DUP2 MSTORE PUSH1 0x20 ADD DUP3 DUP1 SLOAD PUSH2 0x1724 SWAP1 PUSH2 0x50B7 JUMP JUMPDEST DUP1 ISZERO PUSH2 0x1771 JUMPI DUP1 PUSH1 0x1F LT PUSH2 0x1746 JUMPI PUSH2 0x100 DUP1 DUP4 SLOAD DIV MUL DUP4 MSTORE SWAP2 PUSH1 0x20 ADD SWAP2 PUSH2 0x1771 JUMP JUMPDEST DUP3 ADD SWAP2 SWAP1 PUSH1 0x0 MSTORE PUSH1 0x20 PUSH1 0x0 KECCAK256 SWAP1 JUMPDEST DUP2 SLOAD DUP2 MSTORE SWAP1 PUSH1 0x1 ADD SWAP1 PUSH1 0x20 ADD DUP1 DUP4 GT PUSH2 0x1754 JUMPI DUP3 SWAP1 SUB PUSH1 0x1F AND DUP3 ADD SWAP2 JUMPDEST POP POP POP SWAP2 DUP4 MSTORE POP POP PUSH1 0x5 SWAP2 SWAP1 SWAP2 ADD SLOAD PUSH1 0xFF DUP1 DUP3 AND ISZERO ISZERO PUSH1 0x20 DUP5 ADD MSTORE PUSH2 0x100 SWAP1 SWAP2 DIV AND ISZERO ISZERO PUSH1 0x40 SWAP1 SWAP2 ADD MSTORE PUSH1 0x60 DUP2 ADD MLOAD SWAP1 SWAP2 POP DUP3 SWAP1 SUB PUSH2 0x3AF JUMPI PUSH1 0x1 PUSH1 0xA0 DUP3 ADD MSTORE PUSH1 0x9 DUP1 SLOAD DUP3 SWAP2 SWAP1 DUP6 SWAP1 DUP2 LT PUSH2 0x17C8 JUMPI PUSH2 0x17C8 PUSH2 0x5157 JUMP JUMPDEST PUSH1 0x0 SWAP2 DUP3 MSTORE PUSH1 0x20 SWAP2 DUP3 SWAP1 KECCAK256 DUP4 MLOAD PUSH1 0x6 SWAP3 SWAP1 SWAP3 MUL ADD SWAP1 DUP2 SSTORE DUP3 DUP3 ADD MLOAD PUSH1 0x1 DUP3 ADD SSTORE PUSH1 0x40 DUP4 ADD MLOAD PUSH1 0x2 DUP3 ADD DUP1 SLOAD PUSH1 0x1 PUSH1 0x1 PUSH1 0xA0 SHL SUB NOT AND PUSH1 0x1 PUSH1 0x1 PUSH1 0xA0 SHL SUB SWAP1 SWAP3 AND SWAP2 SWAP1 SWAP2 OR SWAP1 SSTORE PUSH1 0x60 DUP4 ADD MLOAD PUSH1 0x3 DUP3 ADD SSTORE PUSH1 0x80 DUP4 ADD MLOAD DUP1 MLOAD SWAP2 SWAP3 PUSH2 0x1833 SWAP3 PUSH1 0x4 DUP6 ADD SWAP3 SWAP1 SWAP2 ADD SWAP1 PUSH2 0x42F2 JUMP JUMPDEST POP PUSH1 0xA0 DUP3 ADD MLOAD PUSH1 0x5 SWAP1 SWAP2 ADD DUP1 SLOAD PUSH1 0xC0 SWAP1 SWAP4 ADD MLOAD ISZERO ISZERO PUSH2 0x100 MUL PUSH2 0xFF00 NOT SWAP3 ISZERO ISZERO SWAP3 SWAP1 SWAP3 AND PUSH2 0xFFFF NOT SWAP1 SWAP4 AND SWAP3 SWAP1 SWAP3 OR OR SWAP1 SSTORE POP POP POP JUMP JUMPDEST POP POP POP JUMP JUMPDEST PUSH1 0x3 PUSH1 0x20 MSTORE PUSH1 0x0 SWAP1 DUP2 MSTORE PUSH1 0x40 SWAP1 KECCAK256 DUP1 SLOAD PUSH1 0x1 DUP3 ADD SLOAD PUSH1 0x2 DUP4 ADD DUP1 SLOAD SWAP3 SWAP4 PUSH1 0x1 PUSH1 0x1 PUSH1 0xA0 SHL SUB SWAP1 SWAP3 AND SWAP3 PUSH2 0x18A1 SWAP1 PUSH2 0x50B7 JUMP JUMPDEST DUP1 PUSH1 0x1F ADD PUSH1 0x20 DUP1 SWAP2 DIV MUL PUSH1 0x20 ADD PUSH1 0x40 MLOAD SWAP1 DUP2 ADD PUSH1 0x40 MSTORE DUP1 SWAP3 SWAP2 SWAP1 DUP2 DUP2 MSTORE PUSH1 0x20 ADD DUP3 DUP1 SLOAD PUSH2 0x18CD SWAP1 PUSH2 0x50B7 JUMP JUMPDEST DUP1 ISZERO PUSH2 0x191A JUMPI DUP1 PUSH1 0x1F LT PUSH2 0x18EF JUMPI PUSH2 0x100 DUP1 DUP4 SLOAD DIV MUL DUP4 MSTORE SWAP2 PUSH1 0x20 ADD SWAP2 PUSH2 0x191A JUMP JUMPDEST DUP3 ADD SWAP2 SWAP1 PUSH1 0x0 MSTORE PUSH1 0x20 PUSH1 0x0 KECCAK256 SWAP1 JUMPDEST DUP2 SLOAD DUP2 MSTORE SWAP1 PUSH1 0x1 ADD SWAP1 PUSH1 0x20 ADD DUP1 DUP4 GT PUSH2 0x18FD JUMPI DUP3 SWAP1 SUB PUSH1 0x1F AND DUP3 ADD SWAP2 JUMPDEST POP POP POP POP POP SWAP1 DUP1 PUSH1 0x3 ADD DUP1 SLOAD PUSH2 0x192F SWAP1 PUSH2 0x50B7 JUMP JUMPDEST DUP1 PUSH1 0x1F ADD PUSH1 0x20 DUP1 SWAP2 DIV MUL PUSH1 0x20 ADD PUSH1 0x40 MLOAD SWAP1 DUP2 ADD PUSH1 0x40 MSTORE DUP1 SWAP3 SWAP2 SWAP1 DUP2 DUP2 MSTORE PUSH1 0x20 ADD DUP3 DUP1 SLOAD PUSH2 0x195B SWAP1 PUSH2 0x50B7 JUMP JUMPDEST DUP1 ISZERO PUSH2 0x19A8 JUMPI DUP1 PUSH1 0x1F LT PUSH2 0x197D JUMPI PUSH2 0x100 DUP1 DUP4 SLOAD DIV MUL DUP4 MSTORE SWAP2 PUSH1 0x20 ADD SWAP2 PUSH2 0x19A8 JUMP JUMPDEST DUP3 ADD SWAP2 SWAP1 PUSH1 0x0 MSTORE PUSH1 0x20 PUSH1 0x0 KECCAK256 SWAP1 JUMPDEST DUP2 SLOAD DUP2 MSTORE SWAP1 PUSH1 0x1 ADD SWAP1 PUSH1 0x20 ADD DUP1 DUP4 GT PUSH2 0x198B JUMPI DUP3 SWAP1 SUB PUSH1 0x1F AND DUP3 ADD SWAP2 JUMPDEST POP POP POP POP PUSH1 0x4 DUP4 ADD SLOAD PUSH1 0x5 SWAP1 SWAP4 ADD SLOAD SWAP2 SWAP3 SWAP2 PUSH1 0xFF AND SWAP1 POP DUP7 JUMP JUMPDEST PUSH2 0x19CA PUSH2 0x43C0 JUMP JUMPDEST PUSH1 0x1 PUSH1 0x1 PUSH1 0xA0 SHL SUB DUP1 DUP4 AND PUSH1 0x0 SWAP1 DUP2 MSTORE PUSH1 0x8 PUSH1 0x20 SWAP1 DUP2 MSTORE PUSH1 0x40 SWAP2 DUP3 SWAP1 KECCAK256 DUP3 MLOAD PUSH2 0x100 DUP2 ADD DUP5 MSTORE DUP2 SLOAD DUP2 MSTORE PUSH1 0x1 DUP3 ADD SLOAD SWAP3 DUP2 ADD SWAP3 SWAP1 SWAP3 MSTORE PUSH1 0x2 DUP2 ADD SLOAD SWAP1 SWAP4 AND SWAP2 DUP2 ADD SWAP2 SWAP1 SWAP2 MSTORE PUSH1 0x3 DUP3 ADD DUP1 SLOAD SWAP2 SWAP3 SWAP2 PUSH1 0x60 DUP5 ADD SWAP2 SWAP1 PUSH2 0x1A27 SWAP1 PUSH2 0x50B7 JUMP JUMPDEST DUP1 PUSH1 0x1F ADD PUSH1 0x20 DUP1 SWAP2 DIV MUL PUSH1 0x20 ADD PUSH1 0x40 MLOAD SWAP1 DUP2 ADD PUSH1 0x40 MSTORE DUP1 SWAP3 SWAP2 SWAP1 DUP2 DUP2 MSTORE PUSH1 0x20 ADD DUP3 DUP1 SLOAD PUSH2 0x1A53 SWAP1 PUSH2 0x50B7 JUMP JUMPDEST DUP1 ISZERO PUSH2 0x1AA0 JUMPI DUP1 PUSH1 0x1F LT PUSH2 0x1A75 JUMPI PUSH2 0x100 DUP1 DUP4 SLOAD DIV MUL DUP4 MSTORE SWAP2 PUSH1 0x20 ADD SWAP2 PUSH2 0x1AA0 JUMP JUMPDEST DUP3 ADD SWAP2 SWAP1 PUSH1 0x0 MSTORE PUSH1 0x20 PUSH1 0x0 KECCAK256 SWAP1 JUMPDEST DUP2 SLOAD DUP2 MSTORE SWAP1 PUSH1 0x1 ADD SWAP1 PUSH1 0x20 ADD DUP1 DUP4 GT PUSH2 0x1A83 JUMPI DUP3 SWAP1 SUB PUSH1 0x1F AND DUP3 ADD SWAP2 JUMPDEST POP POP POP POP POP DUP2 MSTORE PUSH1 0x20 ADD PUSH1 0x4 DUP3 ADD DUP1 SLOAD PUSH2 0x1AB9 SWAP1 PUSH2 0x50B7 JUMP JUMPDEST DUP1 PUSH1 0x1F ADD PUSH1 0x20 DUP1 SWAP2 DIV MUL PUSH1 0x20 ADD PUSH1 0x40 MLOAD SWAP1 DUP2 ADD PUSH1 0x40 MSTORE DUP1 SWAP3 SWAP2 SWAP1 DUP2 DUP2 MSTORE PUSH1 0x20 ADD DUP3 DUP1 SLOAD PUSH2 0x1AE5 SWAP1 PUSH2 0x50B7 JUMP JUMPDEST DUP1 ISZERO PUSH2 0x1B32 JUMPI DUP1 PUSH1 0x1F LT PUSH2 0x1B07 JUMPI PUSH2 0x100 DUP1 DUP4 SLOAD DIV MUL DUP4 MSTORE SWAP2 PUSH1 0x20 ADD SWAP2 PUSH2 0x1B32 JUMP JUMPDEST DUP3 ADD SWAP2 SWAP1 PUSH1 0x0 MSTORE PUSH1 0x20 PUSH1 0x0 KECCAK256 SWAP1 JUMPDEST DUP2 SLOAD DUP2 MSTORE SWAP1 PUSH1 0x1 ADD SWAP1 PUSH1 0x20 ADD DUP1 DUP4 GT PUSH2 0x1B15 JUMPI DUP3 SWAP1 SUB PUSH1 0x1F AND DUP3 ADD SWAP2 JUMPDEST POP POP POP POP POP DUP2 MSTORE PUSH1 0x20 ADD PUSH1 0x5 DUP3 ADD DUP1 SLOAD PUSH2 0x1B4B SWAP1 PUSH2 0x50B7 JUMP JUMPDEST DUP1 PUSH1 0x1F ADD PUSH1 0x20 DUP1 SWAP2 DIV MUL PUSH1 0x20 ADD PUSH1 0x40 MLOAD SWAP1 DUP2 ADD PUSH1 0x40 MSTORE DUP1 SWAP3 SWAP2 SWAP1 DUP2 DUP2 MSTORE PUSH1 0x20 ADD DUP3 DUP1 SLOAD PUSH2 0x1B77 SWAP1 PUSH2 0x50B7 JUMP JUMPDEST DUP1 ISZERO PUSH2 0x1BC4 JUMPI DUP1 PUSH1 0x1F LT PUSH2 0x1B99 JUMPI PUSH2 0x100 DUP1 DUP4 SLOAD DIV MUL DUP4 MSTORE SWAP2 PUSH1 0x20 ADD SWAP2 PUSH2 0x1BC4 JUMP JUMPDEST DUP3 ADD SWAP2 SWAP1 PUSH1 0x0 MSTORE PUSH1 0x20 PUSH1 0x0 KECCAK256 SWAP1 JUMPDEST DUP2 SLOAD DUP2 MSTORE SWAP1 PUSH1 0x1 ADD SWAP1 PUSH1 0x20 ADD DUP1 DUP4 GT PUSH2 0x1BA7 JUMPI DUP3 SWAP1 SUB PUSH1 0x1F AND DUP3 ADD SWAP2 JUMPDEST POP POP POP POP POP DUP2 MSTORE PUSH1 0x20 ADD PUSH1 0x6 DUP3 ADD DUP1 SLOAD PUSH2 0x1BDD SWAP1 PUSH2 0x50B7 JUMP JUMPDEST DUP1 PUSH1 0x1F ADD PUSH1 0x20 DUP1 SWAP2 DIV MUL PUSH1 0x20 ADD PUSH1 0x40 MLOAD SWAP1 DUP2 ADD PUSH1 0x40 MSTORE DUP1 SWAP3 SWAP2 SWAP1 DUP2 DUP2 MSTORE PUSH1 0x20 ADD DUP3 DUP1 SLOAD PUSH2 0x1C09 SWAP1 PUSH2 0x50B7 JUMP JUMPDEST DUP1 ISZERO PUSH2 0x1C56 JUMPI DUP1 PUSH1 0x1F LT PUSH2 0x1C2B JUMPI PUSH2 0x100 DUP1 DUP4 SLOAD DIV MUL DUP4 MSTORE SWAP2 PUSH1 0x20 ADD SWAP2 PUSH2 0x1C56 JUMP JUMPDEST DUP3 ADD SWAP2 SWAP1 PUSH1 0x0 MSTORE PUSH1 0x20 PUSH1 0x0 KECCAK256 SWAP1 JUMPDEST DUP2 SLOAD DUP2 MSTORE SWAP1 PUSH1 0x1 ADD SWAP1 PUSH1 0x20 ADD DUP1 DUP4 GT PUSH2 0x1C39 JUMPI DUP3 SWAP1 SUB PUSH1 0x1F AND DUP3 ADD SWAP2 JUMPDEST POP POP POP SWAP2 DUP4 MSTORE POP POP PUSH1 0x7 SWAP2 SWAP1 SWAP2 ADD SLOAD PUSH1 0xFF AND ISZERO ISZERO PUSH1 0x20 SWAP1 SWAP2 ADD MSTORE SWAP3 SWAP2 POP POP JUMP JUMPDEST PUSH1 0x10 DUP2 DUP2 SLOAD DUP2 LT PUSH2 0x1C86 JUMPI PUSH1 0x0 DUP1 REVERT JUMPDEST PUSH1 0x0 SWAP2 DUP3 MSTORE PUSH1 0x20 SWAP1 SWAP2 KECCAK256 PUSH1 0x7 SWAP1 SWAP2 MUL ADD DUP1 SLOAD PUSH1 0x1 DUP3 ADD SLOAD PUSH1 0x2 DUP4 ADD SLOAD PUSH1 0x3 DUP5 ADD SLOAD PUSH1 0x4 DUP6 ADD SLOAD PUSH1 0x5 DUP7 ADD SLOAD PUSH1 0x6 SWAP1 SWAP7 ADD SLOAD SWAP5 SWAP7 POP SWAP3 SWAP5 SWAP2 SWAP4 SWAP1 SWAP3 PUSH1 0x1 PUSH1 0x1 PUSH1 0xA0 SHL SUB AND SWAP2 SWAP1 PUSH1 0xFF AND DUP8 JUMP JUMPDEST PUSH1 0x18 SLOAD PUSH2 0x1CDC PUSH2 0x4410 JUMP JUMPDEST DUP2 DUP2 MSTORE PUSH1 0x1 PUSH1 0x1 PUSH1 0xA0 SHL SUB DUP7 DUP2 AND PUSH1 0x20 DUP1 DUP5 ADD DUP3 DUP2 MSTORE PUSH1 0x40 DUP1 DUP7 ADD DUP11 DUP2 MSTORE PUSH1 0x60 DUP8 ADD DUP11 SWAP1 MSTORE PUSH1 0x80 DUP8 ADD DUP10 SWAP1 MSTORE PUSH1 0x1 PUSH1 0xA0 DUP9 ADD DUP2 SWAP1 MSTORE PUSH1 0x0 SWAP6 DUP7 MSTORE PUSH1 0xD DUP6 MSTORE SWAP2 SWAP1 SWAP5 KECCAK256 DUP7 MLOAD DUP2 SSTORE SWAP2 MLOAD SWAP1 DUP3 ADD DUP1 SLOAD PUSH1 0x1 PUSH1 0x1 PUSH1 0xA0 SHL SUB NOT AND SWAP2 SWAP1 SWAP6 AND OR SWAP1 SWAP4 SSTORE SWAP1 MLOAD DUP1 MLOAD DUP5 SWAP4 SWAP3 PUSH2 0x1D53 SWAP3 PUSH1 0x2 DUP6 ADD SWAP3 SWAP2 ADD SWAP1 PUSH2 0x42F2 JUMP JUMPDEST POP PUSH1 0x60 DUP3 ADD MLOAD DUP1 MLOAD PUSH2 0x1D6F SWAP2 PUSH1 0x3 DUP5 ADD SWAP2 PUSH1 0x20 SWAP1 SWAP2 ADD SWAP1 PUSH2 0x42F2 JUMP JUMPDEST POP PUSH1 0x80 DUP3 ADD MLOAD DUP1 MLOAD PUSH2 0x1D8B SWAP2 PUSH1 0x4 DUP5 ADD SWAP2 PUSH1 0x20 SWAP1 SWAP2 ADD SWAP1 PUSH2 0x42F2 JUMP JUMPDEST POP PUSH1 0xA0 SWAP2 SWAP1 SWAP2 ADD MLOAD PUSH1 0x5 SWAP1 SWAP2 ADD DUP1 SLOAD PUSH1 0xFF NOT AND SWAP2 ISZERO ISZERO SWAP2 SWAP1 SWAP2 OR SWAP1 SSTORE PUSH1 0x18 DUP1 SLOAD SWAP1 PUSH1 0x0 PUSH2 0x1DB7 DUP4 PUSH2 0x513E JUMP JUMPDEST SWAP2 SWAP1 POP SSTORE POP POP POP POP POP POP POP JUMP JUMPDEST PUSH1 0x0 DUP1 PUSH2 0x1DD0 DUP4 PUSH2 0x2113 JUMP JUMPDEST SWAP1 POP DUP1 PUSH1 0xC0 ADD MLOAD PUSH1 0x64 DUP3 PUSH1 0xE0 ADD MLOAD PUSH1 0xF PUSH2 0x1DEA SWAP2 SWAP1 PUSH2 0x5107 JUMP JUMPDEST PUSH2 0x1DF4 SWAP2 SWAP1 PUSH2 0x516D JUMP JUMPDEST PUSH2 0x1DFE SWAP2 SWAP1 PUSH2 0x516D JUMP JUMPDEST SWAP4 SWAP3 POP POP POP JUMP JUMPDEST PUSH2 0x1E0D PUSH2 0x4451 JUMP JUMPDEST PUSH2 0x1E15 PUSH2 0x4451 JUMP JUMPDEST PUSH1 0x0 PUSH2 0x1E20 DUP5 PUSH2 0x261A JUMP JUMPDEST SWAP1 POP PUSH1 0x0 JUMPDEST PUSH1 0xE SLOAD DUP2 LT ISZERO PUSH2 0x1ED9 JUMPI PUSH1 0x0 PUSH1 0xE DUP3 DUP2 SLOAD DUP2 LT PUSH2 0x1E44 JUMPI PUSH2 0x1E44 PUSH2 0x5157 JUMP JUMPDEST PUSH1 0x0 SWAP2 DUP3 MSTORE PUSH1 0x20 SWAP2 DUP3 SWAP1 KECCAK256 PUSH1 0x40 DUP1 MLOAD PUSH1 0xC0 DUP2 ADD DUP3 MSTORE PUSH1 0x5 SWAP1 SWAP4 MUL SWAP1 SWAP2 ADD DUP1 SLOAD DUP4 MSTORE PUSH1 0x1 DUP2 ADD SLOAD SWAP4 DUP4 ADD SWAP4 SWAP1 SWAP4 MSTORE PUSH1 0x2 DUP4 ADD SLOAD SWAP1 DUP3 ADD MSTORE PUSH1 0x3 DUP3 ADD SLOAD PUSH1 0x60 DUP3 ADD DUP2 SWAP1 MSTORE PUSH1 0x4 SWAP1 SWAP3 ADD SLOAD PUSH1 0xFF DUP1 DUP3 AND ISZERO ISZERO PUSH1 0x80 DUP5 ADD MSTORE PUSH2 0x100 SWAP1 SWAP2 DIV AND ISZERO ISZERO PUSH1 0xA0 DUP3 ADD MSTORE SWAP2 POP DUP8 EQ DUP1 ISZERO PUSH2 0x1EBA JUMPI POP DUP3 MLOAD PUSH1 0x20 DUP3 ADD MLOAD EQ JUMPDEST ISZERO PUSH2 0x1EC6 JUMPI SWAP3 POP PUSH2 0x1ED9 JUMP JUMPDEST POP DUP1 PUSH2 0x1ED1 DUP2 PUSH2 0x513E JUMP JUMPDEST SWAP2 POP POP PUSH2 0x1E25 JUMP JUMPDEST POP SWAP1 SWAP5 SWAP4 POP POP POP POP JUMP JUMPDEST PUSH1 0x0 DUP2 DUP2 MSTORE PUSH1 0x6 PUSH1 0x20 MSTORE PUSH1 0x40 DUP2 KECCAK256 SLOAD PUSH1 0x60 SWAP2 DUP2 PUSH8 0xFFFFFFFFFFFFFFFF DUP2 GT ISZERO PUSH2 0x1F0E JUMPI PUSH2 0x1F0E PUSH2 0x4642 JUMP JUMPDEST PUSH1 0x40 MLOAD SWAP1 DUP1 DUP3 MSTORE DUP1 PUSH1 0x20 MUL PUSH1 0x20 ADD DUP3 ADD PUSH1 0x40 MSTORE DUP1 ISZERO PUSH2 0x1F47 JUMPI DUP2 PUSH1 0x20 ADD JUMPDEST PUSH2 0x1F34 PUSH2 0x4376 JUMP JUMPDEST DUP2 MSTORE PUSH1 0x20 ADD SWAP1 PUSH1 0x1 SWAP1 SUB SWAP1 DUP2 PUSH2 0x1F2C JUMPI SWAP1 POP JUMPDEST POP SWAP1 POP PUSH1 0x0 DUP1 JUMPDEST PUSH1 0x9 SLOAD DUP2 LT ISZERO PUSH2 0x1ED9 JUMPI PUSH1 0x0 PUSH1 0x9 DUP3 DUP2 SLOAD DUP2 LT PUSH2 0x1F6D JUMPI PUSH2 0x1F6D PUSH2 0x5157 JUMP JUMPDEST SWAP1 PUSH1 0x0 MSTORE PUSH1 0x20 PUSH1 0x0 KECCAK256 SWAP1 PUSH1 0x6 MUL ADD PUSH1 0x40 MLOAD DUP1 PUSH1 0xE0 ADD PUSH1 0x40 MSTORE SWAP1 DUP2 PUSH1 0x0 DUP3 ADD SLOAD DUP2 MSTORE PUSH1 0x20 ADD PUSH1 0x1 DUP3 ADD SLOAD DUP2 MSTORE PUSH1 0x20 ADD PUSH1 0x2 DUP3 ADD PUSH1 0x0 SWAP1 SLOAD SWAP1 PUSH2 0x100 EXP SWAP1 DIV PUSH1 0x1 PUSH1 0x1 PUSH1 0xA0 SHL SUB AND PUSH1 0x1 PUSH1 0x1 PUSH1 0xA0 SHL SUB AND PUSH1 0x1 PUSH1 0x1 PUSH1 0xA0 SHL SUB AND DUP2 MSTORE PUSH1 0x20 ADD PUSH1 0x3 DUP3 ADD SLOAD DUP2 MSTORE PUSH1 0x20 ADD PUSH1 0x4 DUP3 ADD DUP1 SLOAD PUSH2 0x1FE3 SWAP1 PUSH2 0x50B7 JUMP JUMPDEST DUP1 PUSH1 0x1F ADD PUSH1 0x20 DUP1 SWAP2 DIV MUL PUSH1 0x20 ADD PUSH1 0x40 MLOAD SWAP1 DUP2 ADD PUSH1 0x40 MSTORE DUP1 SWAP3 SWAP2 SWAP1 DUP2 DUP2 MSTORE PUSH1 0x20 ADD DUP3 DUP1 SLOAD PUSH2 0x200F SWAP1 PUSH2 0x50B7 JUMP JUMPDEST DUP1 ISZERO PUSH2 0x205C JUMPI DUP1 PUSH1 0x1F LT PUSH2 0x2031 JUMPI PUSH2 0x100 DUP1 DUP4 SLOAD DIV MUL DUP4 MSTORE SWAP2 PUSH1 0x20 ADD SWAP2 PUSH2 0x205C JUMP JUMPDEST DUP3 ADD SWAP2 SWAP1 PUSH1 0x0 MSTORE PUSH1 0x20 PUSH1 0x0 KECCAK256 SWAP1 JUMPDEST DUP2 SLOAD DUP2 MSTORE SWAP1 PUSH1 0x1 ADD SWAP1 PUSH1 0x20 ADD DUP1 DUP4 GT PUSH2 0x203F JUMPI DUP3 SWAP1 SUB PUSH1 0x1F AND DUP3 ADD SWAP2 JUMPDEST POP POP POP SWAP2 DUP4 MSTORE POP POP PUSH1 0x5 SWAP2 SWAP1 SWAP2 ADD SLOAD PUSH1 0xFF DUP1 DUP3 AND ISZERO ISZERO PUSH1 0x20 DUP5 ADD MSTORE PUSH2 0x100 SWAP1 SWAP2 DIV AND ISZERO ISZERO PUSH1 0x40 SWAP1 SWAP2 ADD MSTORE PUSH1 0x60 DUP2 ADD MLOAD SWAP1 SWAP2 POP DUP8 SWAP1 SUB PUSH2 0x20CE JUMPI DUP1 DUP5 DUP5 DUP2 MLOAD DUP2 LT PUSH2 0x20A8 JUMPI PUSH2 0x20A8 PUSH2 0x5157 JUMP JUMPDEST PUSH1 0x20 MUL PUSH1 0x20 ADD ADD DUP2 SWAP1 MSTORE POP DUP3 DUP1 PUSH2 0x20BE SWAP1 PUSH2 0x513E JUMP JUMPDEST SWAP4 POP POP DUP5 DUP4 SUB PUSH2 0x20CE JUMPI POP PUSH2 0x1ED9 JUMP JUMPDEST POP DUP1 PUSH2 0x20D9 DUP2 PUSH2 0x513E JUMP JUMPDEST SWAP2 POP POP PUSH2 0x1F4E JUMP JUMPDEST PUSH2 0x20E9 PUSH2 0x43C0 JUMP JUMPDEST PUSH1 0x0 DUP3 DUP2 MSTORE PUSH1 0xC PUSH1 0x20 MSTORE PUSH1 0x40 DUP2 KECCAK256 SLOAD PUSH1 0x1 PUSH1 0x1 PUSH1 0xA0 SHL SUB AND SWAP1 PUSH2 0x210B DUP3 PUSH2 0x19C2 JUMP JUMPDEST SWAP5 SWAP4 POP POP POP POP JUMP JUMPDEST PUSH2 0x211B PUSH2 0x4289 JUMP JUMPDEST PUSH1 0x5 DUP3 DUP2 SLOAD DUP2 LT PUSH2 0x212E JUMPI PUSH2 0x212E PUSH2 0x5157 JUMP JUMPDEST SWAP1 PUSH1 0x0 MSTORE PUSH1 0x20 PUSH1 0x0 KECCAK256 SWAP1 PUSH1 0x9 MUL ADD PUSH1 0x40 MLOAD DUP1 PUSH2 0x160 ADD PUSH1 0x40 MSTORE SWAP1 DUP2 PUSH1 0x0 DUP3 ADD SLOAD DUP2 MSTORE PUSH1 0x20 ADD PUSH1 0x1 DUP3 ADD SLOAD DUP2 MSTORE PUSH1 0x20 ADD PUSH1 0x2 DUP3 ADD PUSH1 0x0 SWAP1 SLOAD SWAP1 PUSH2 0x100 EXP SWAP1 DIV PUSH1 0x1 PUSH1 0x1 PUSH1 0xA0 SHL SUB AND PUSH1 0x1 PUSH1 0x1 PUSH1 0xA0 SHL SUB AND PUSH1 0x1 PUSH1 0x1 PUSH1 0xA0 SHL SUB AND DUP2 MSTORE PUSH1 0x20 ADD PUSH1 0x3 DUP3 ADD DUP1 SLOAD PUSH2 0x219B SWAP1 PUSH2 0x50B7 JUMP JUMPDEST DUP1 PUSH1 0x1F ADD PUSH1 0x20 DUP1 SWAP2 DIV MUL PUSH1 0x20 ADD PUSH1 0x40 MLOAD SWAP1 DUP2 ADD PUSH1 0x40 MSTORE DUP1 SWAP3 SWAP2 SWAP1 DUP2 DUP2 MSTORE PUSH1 0x20 ADD DUP3 DUP1 SLOAD PUSH2 0x21C7 SWAP1 PUSH2 0x50B7 JUMP JUMPDEST DUP1 ISZERO PUSH2 0x2214 JUMPI DUP1 PUSH1 0x1F LT PUSH2 0x21E9 JUMPI PUSH2 0x100 DUP1 DUP4 SLOAD DIV MUL DUP4 MSTORE SWAP2 PUSH1 0x20 ADD SWAP2 PUSH2 0x2214 JUMP JUMPDEST DUP3 ADD SWAP2 SWAP1 PUSH1 0x0 MSTORE PUSH1 0x20 PUSH1 0x0 KECCAK256 SWAP1 JUMPDEST DUP2 SLOAD DUP2 MSTORE SWAP1 PUSH1 0x1 ADD SWAP1 PUSH1 0x20 ADD DUP1 DUP4 GT PUSH2 0x21F7 JUMPI DUP3 SWAP1 SUB PUSH1 0x1F AND DUP3 ADD SWAP2 JUMPDEST POP POP POP POP POP DUP2 MSTORE PUSH1 0x20 ADD PUSH1 0x4 DUP3 ADD DUP1 SLOAD PUSH2 0x222D SWAP1 PUSH2 0x50B7 JUMP JUMPDEST DUP1 PUSH1 0x1F ADD PUSH1 0x20 DUP1 SWAP2 DIV MUL PUSH1 0x20 ADD PUSH1 0x40 MLOAD SWAP1 DUP2 ADD PUSH1 0x40 MSTORE DUP1 SWAP3 SWAP2 SWAP1 DUP2 DUP2 MSTORE PUSH1 0x20 ADD DUP3 DUP1 SLOAD PUSH2 0x2259 SWAP1 PUSH2 0x50B7 JUMP JUMPDEST DUP1 ISZERO PUSH2 0x22A6 JUMPI DUP1 PUSH1 0x1F LT PUSH2 0x227B JUMPI PUSH2 0x100 DUP1 DUP4 SLOAD DIV MUL DUP4 MSTORE SWAP2 PUSH1 0x20 ADD SWAP2 PUSH2 0x22A6 JUMP JUMPDEST DUP3 ADD SWAP2 SWAP1 PUSH1 0x0 MSTORE PUSH1 0x20 PUSH1 0x0 KECCAK256 SWAP1 JUMPDEST DUP2 SLOAD DUP2 MSTORE SWAP1 PUSH1 0x1 ADD SWAP1 PUSH1 0x20 ADD DUP1 DUP4 GT PUSH2 0x2289 JUMPI DUP3 SWAP1 SUB PUSH1 0x1F AND DUP3 ADD SWAP2 JUMPDEST POP POP POP SWAP2 DUP4 MSTORE POP POP PUSH1 0x5 DUP3 ADD SLOAD PUSH1 0x20 DUP3 ADD MSTORE PUSH1 0x6 DUP3 ADD SLOAD PUSH1 0x40 DUP3 ADD MSTORE PUSH1 0x7 DUP3 ADD SLOAD PUSH1 0x60 DUP3 ADD MSTORE PUSH1 0x8 SWAP1 SWAP2 ADD SLOAD PUSH1 0xFF DUP1 DUP3 AND ISZERO ISZERO PUSH1 0x80 DUP5 ADD MSTORE PUSH2 0x100 DUP3 DIV DUP2 AND ISZERO ISZERO PUSH1 0xA0 DUP5 ADD MSTORE PUSH3 0x10000 SWAP1 SWAP2 DIV AND ISZERO ISZERO PUSH1 0xC0 SWAP1 SWAP2 ADD MSTORE SWAP3 SWAP2 POP POP JUMP JUMPDEST PUSH1 0x14 SLOAD PUSH2 0x230D PUSH2 0x448B JUMP JUMPDEST DUP2 DUP2 MSTORE PUSH1 0x1 PUSH1 0x1 PUSH1 0xA0 SHL SUB DUP6 DUP2 AND PUSH1 0x20 DUP1 DUP5 ADD DUP3 DUP2 MSTORE PUSH1 0x40 DUP1 DUP7 ADD DUP10 DUP2 MSTORE PUSH1 0x60 DUP8 ADD DUP10 SWAP1 MSTORE PUSH1 0x0 PUSH1 0x80 DUP9 ADD DUP2 SWAP1 MSTORE PUSH1 0x1 PUSH1 0xA0 DUP10 ADD DUP2 SWAP1 MSTORE SWAP6 DUP2 MSTORE PUSH1 0x3 DUP6 MSTORE SWAP2 SWAP1 SWAP2 KECCAK256 DUP7 MLOAD DUP2 SSTORE SWAP2 MLOAD SWAP4 DUP3 ADD DUP1 SLOAD PUSH1 0x1 PUSH1 0x1 PUSH1 0xA0 SHL SUB NOT AND SWAP5 SWAP1 SWAP6 AND SWAP4 SWAP1 SWAP4 OR SWAP1 SWAP4 SSTORE SWAP1 MLOAD DUP1 MLOAD DUP5 SWAP4 SWAP3 PUSH2 0x2387 SWAP3 PUSH1 0x2 DUP6 ADD SWAP3 SWAP2 ADD SWAP1 PUSH2 0x42F2 JUMP JUMPDEST POP PUSH1 0x60 DUP3 ADD MLOAD DUP1 MLOAD PUSH2 0x23A3 SWAP2 PUSH1 0x3 DUP5 ADD SWAP2 PUSH1 0x20 SWAP1 SWAP2 ADD SWAP1 PUSH2 0x42F2 JUMP JUMPDEST POP PUSH1 0x80 DUP3 ADD MLOAD PUSH1 0x4 DUP3 ADD SSTORE PUSH1 0xA0 SWAP1 SWAP2 ADD MLOAD PUSH1 0x5 SWAP1 SWAP2 ADD DUP1 SLOAD PUSH1 0xFF NOT AND SWAP2 ISZERO ISZERO SWAP2 SWAP1 SWAP2 OR SWAP1 SSTORE PUSH1 0x14 DUP1 SLOAD SWAP1 PUSH1 0x0 PUSH2 0x23D8 DUP4 PUSH2 0x513E JUMP JUMPDEST SWAP2 SWAP1 POP SSTORE POP POP POP POP POP POP JUMP JUMPDEST PUSH1 0x0 PUSH1 0x64 PUSH2 0x23F1 DUP4 PUSH2 0x2113 JUMP JUMPDEST PUSH1 0xE0 ADD MLOAD PUSH2 0x2400 SWAP1 PUSH1 0x4B PUSH2 0x5107 JUMP JUMPDEST PUSH2 0x240A SWAP2 SWAP1 PUSH2 0x516D JUMP JUMPDEST SWAP3 SWAP2 POP POP JUMP JUMPDEST PUSH1 0x0 DUP2 DUP2 MSTORE PUSH1 0x6 PUSH1 0x20 MSTORE PUSH1 0x40 DUP2 KECCAK256 SLOAD PUSH1 0x60 SWAP2 DUP2 PUSH8 0xFFFFFFFFFFFFFFFF DUP2 GT ISZERO PUSH2 0x243B JUMPI PUSH2 0x243B PUSH2 0x4642 JUMP JUMPDEST PUSH1 0x40 MLOAD SWAP1 DUP1 DUP3 MSTORE DUP1 PUSH1 0x20 MUL PUSH1 0x20 ADD DUP3 ADD PUSH1 0x40 MSTORE DUP1 ISZERO PUSH2 0x2474 JUMPI DUP2 PUSH1 0x20 ADD JUMPDEST PUSH2 0x2461 PUSH2 0x43C0 JUMP JUMPDEST DUP2 MSTORE PUSH1 0x20 ADD SWAP1 PUSH1 0x1 SWAP1 SUB SWAP1 DUP2 PUSH2 0x2459 JUMPI SWAP1 POP JUMPDEST POP SWAP1 POP PUSH1 0x0 DUP1 JUMPDEST PUSH1 0x9 SLOAD DUP2 LT ISZERO PUSH2 0x1ED9 JUMPI PUSH1 0x0 PUSH1 0x9 DUP3 DUP2 SLOAD DUP2 LT PUSH2 0x249A JUMPI PUSH2 0x249A PUSH2 0x5157 JUMP JUMPDEST SWAP1 PUSH1 0x0 MSTORE PUSH1 0x20 PUSH1 0x0 KECCAK256 SWAP1 PUSH1 0x6 MUL ADD PUSH1 0x40 MLOAD DUP1 PUSH1 0xE0 ADD PUSH1 0x40 MSTORE SWAP1 DUP2 PUSH1 0x0 DUP3 ADD SLOAD DUP2 MSTORE PUSH1 0x20 ADD PUSH1 0x1 DUP3 ADD SLOAD DUP2 MSTORE PUSH1 0x20 ADD PUSH1 0x2 DUP3 ADD PUSH1 0x0 SWAP1 SLOAD SWAP1 PUSH2 0x100 EXP SWAP1 DIV PUSH1 0x1 PUSH1 0x1 PUSH1 0xA0 SHL SUB AND PUSH1 0x1 PUSH1 0x1 PUSH1 0xA0 SHL SUB AND PUSH1 0x1 PUSH1 0x1 PUSH1 0xA0 SHL SUB AND DUP2 MSTORE PUSH1 0x20 ADD PUSH1 0x3 DUP3 ADD SLOAD DUP2 MSTORE PUSH1 0x20 ADD PUSH1 0x4 DUP3 ADD DUP1 SLOAD PUSH2 0x2510 SWAP1 PUSH2 0x50B7 JUMP JUMPDEST DUP1 PUSH1 0x1F ADD PUSH1 0x20 DUP1 SWAP2 DIV MUL PUSH1 0x20 ADD PUSH1 0x40 MLOAD SWAP1 DUP2 ADD PUSH1 0x40 MSTORE DUP1 SWAP3 SWAP2 SWAP1 DUP2 DUP2 MSTORE PUSH1 0x20 ADD DUP3 DUP1 SLOAD PUSH2 0x253C SWAP1 PUSH2 0x50B7 JUMP JUMPDEST DUP1 ISZERO PUSH2 0x2589 JUMPI DUP1 PUSH1 0x1F LT PUSH2 0x255E JUMPI PUSH2 0x100 DUP1 DUP4 SLOAD DIV MUL DUP4 MSTORE SWAP2 PUSH1 0x20 ADD SWAP2 PUSH2 0x2589 JUMP JUMPDEST DUP3 ADD SWAP2 SWAP1 PUSH1 0x0 MSTORE PUSH1 0x20 PUSH1 0x0 KECCAK256 SWAP1 JUMPDEST DUP2 SLOAD DUP2 MSTORE SWAP1 PUSH1 0x1 ADD SWAP1 PUSH1 0x20 ADD DUP1 DUP4 GT PUSH2 0x256C JUMPI DUP3 SWAP1 SUB PUSH1 0x1F AND DUP3 ADD SWAP2 JUMPDEST POP POP POP SWAP2 DUP4 MSTORE POP POP PUSH1 0x5 SWAP2 SWAP1 SWAP2 ADD SLOAD PUSH1 0xFF DUP1 DUP3 AND ISZERO ISZERO PUSH1 0x20 DUP5 ADD MSTORE PUSH2 0x100 SWAP1 SWAP2 DIV AND ISZERO ISZERO PUSH1 0x40 SWAP1 SWAP2 ADD MSTORE PUSH1 0x60 DUP2 ADD MLOAD SWAP1 SWAP2 POP DUP8 SWAP1 SUB PUSH2 0x2607 JUMPI PUSH2 0x25CF DUP2 PUSH1 0x40 ADD MLOAD PUSH2 0x19C2 JUMP JUMPDEST DUP5 DUP5 DUP2 MLOAD DUP2 LT PUSH2 0x25E1 JUMPI PUSH2 0x25E1 PUSH2 0x5157 JUMP JUMPDEST PUSH1 0x20 MUL PUSH1 0x20 ADD ADD DUP2 SWAP1 MSTORE POP DUP3 DUP1 PUSH2 0x25F7 SWAP1 PUSH2 0x513E JUMP JUMPDEST SWAP4 POP POP DUP5 DUP4 SUB PUSH2 0x2607 JUMPI POP PUSH2 0x1ED9 JUMP JUMPDEST POP DUP1 PUSH2 0x2612 DUP2 PUSH2 0x513E JUMP JUMPDEST SWAP2 POP POP PUSH2 0x247B JUMP JUMPDEST PUSH2 0x2622 PUSH2 0x4410 JUMP JUMPDEST PUSH1 0x1 PUSH1 0x1 PUSH1 0xA0 SHL SUB DUP1 DUP4 AND PUSH1 0x0 SWAP1 DUP2 MSTORE PUSH1 0xD PUSH1 0x20 SWAP1 DUP2 MSTORE PUSH1 0x40 SWAP2 DUP3 SWAP1 KECCAK256 DUP3 MLOAD PUSH1 0xC0 DUP2 ADD DUP5 MSTORE DUP2 SLOAD DUP2 MSTORE PUSH1 0x1 DUP3 ADD SLOAD SWAP1 SWAP5 AND SWAP2 DUP5 ADD SWAP2 SWAP1 SWAP2 MSTORE PUSH1 0x2 DUP2 ADD DUP1 SLOAD SWAP2 SWAP3 DUP5 ADD SWAP2 PUSH2 0x266E SWAP1 PUSH2 0x50B7 JUMP JUMPDEST DUP1 PUSH1 0x1F ADD PUSH1 0x20 DUP1 SWAP2 DIV MUL PUSH1 0x20 ADD PUSH1 0x40 MLOAD SWAP1 DUP2 ADD PUSH1 0x40 MSTORE DUP1 SWAP3 SWAP2 SWAP1 DUP2 DUP2 MSTORE PUSH1 0x20 ADD DUP3 DUP1 SLOAD PUSH2 0x269A SWAP1 PUSH2 0x50B7 JUMP JUMPDEST DUP1 ISZERO PUSH2 0x26E7 JUMPI DUP1 PUSH1 0x1F LT PUSH2 0x26BC JUMPI PUSH2 0x100 DUP1 DUP4 SLOAD DIV MUL DUP4 MSTORE SWAP2 PUSH1 0x20 ADD SWAP2 PUSH2 0x26E7 JUMP JUMPDEST DUP3 ADD SWAP2 SWAP1 PUSH1 0x0 MSTORE PUSH1 0x20 PUSH1 0x0 KECCAK256 SWAP1 JUMPDEST DUP2 SLOAD DUP2 MSTORE SWAP1 PUSH1 0x1 ADD SWAP1 PUSH1 0x20 ADD DUP1 DUP4 GT PUSH2 0x26CA JUMPI DUP3 SWAP1 SUB PUSH1 0x1F AND DUP3 ADD SWAP2 JUMPDEST POP POP POP POP POP DUP2 MSTORE PUSH1 0x20 ADD PUSH1 0x3 DUP3 ADD DUP1 SLOAD PUSH2 0x2700 SWAP1 PUSH2 0x50B7 JUMP JUMPDEST DUP1 PUSH1 0x1F ADD PUSH1 0x20 DUP1 SWAP2 DIV MUL PUSH1 0x20 ADD PUSH1 0x40 MLOAD SWAP1 DUP2 ADD PUSH1 0x40 MSTORE DUP1 SWAP3 SWAP2 SWAP1 DUP2 DUP2 MSTORE PUSH1 0x20 ADD DUP3 DUP1 SLOAD PUSH2 0x272C SWAP1 PUSH2 0x50B7 JUMP JUMPDEST DUP1 ISZERO PUSH2 0x2779 JUMPI DUP1 PUSH1 0x1F LT PUSH2 0x274E JUMPI PUSH2 0x100 DUP1 DUP4 SLOAD DIV MUL DUP4 MSTORE SWAP2 PUSH1 0x20 ADD SWAP2 PUSH2 0x2779 JUMP JUMPDEST DUP3 ADD SWAP2 SWAP1 PUSH1 0x0 MSTORE PUSH1 0x20 PUSH1 0x0 KECCAK256 SWAP1 JUMPDEST DUP2 SLOAD DUP2 MSTORE SWAP1 PUSH1 0x1 ADD SWAP1 PUSH1 0x20 ADD DUP1 DUP4 GT PUSH2 0x275C JUMPI DUP3 SWAP1 SUB PUSH1 0x1F AND DUP3 ADD SWAP2 JUMPDEST POP POP POP POP POP DUP2 MSTORE PUSH1 0x20 ADD PUSH1 0x4 DUP3 ADD DUP1 SLOAD PUSH2 0x2792 SWAP1 PUSH2 0x50B7 JUMP JUMPDEST DUP1 PUSH1 0x1F ADD PUSH1 0x20 DUP1 SWAP2 DIV MUL PUSH1 0x20 ADD PUSH1 0x40 MLOAD SWAP1 DUP2 ADD PUSH1 0x40 MSTORE DUP1 SWAP3 SWAP2 SWAP1 DUP2 DUP2 MSTORE PUSH1 0x20 ADD DUP3 DUP1 SLOAD PUSH2 0x27BE SWAP1 PUSH2 0x50B7 JUMP JUMPDEST DUP1 ISZERO PUSH2 0x280B JUMPI DUP1 PUSH1 0x1F LT PUSH2 0x27E0 JUMPI PUSH2 0x100 DUP1 DUP4 SLOAD DIV MUL DUP4 MSTORE SWAP2 PUSH1 0x20 ADD SWAP2 PUSH2 0x280B JUMP JUMPDEST DUP3 ADD SWAP2 SWAP1 PUSH1 0x0 MSTORE PUSH1 0x20 PUSH1 0x0 KECCAK256 SWAP1 JUMPDEST DUP2 SLOAD DUP2 MSTORE SWAP1 PUSH1 0x1 ADD SWAP1 PUSH1 0x20 ADD DUP1 DUP4 GT PUSH2 0x27EE JUMPI DUP3 SWAP1 SUB PUSH1 0x1F AND DUP3 ADD SWAP2 JUMPDEST POP POP POP SWAP2 DUP4 MSTORE POP POP PUSH1 0x5 SWAP2 SWAP1 SWAP2 ADD SLOAD PUSH1 0xFF AND ISZERO ISZERO PUSH1 0x20 SWAP1 SWAP2 ADD MSTORE SWAP3 SWAP2 POP POP JUMP JUMPDEST PUSH2 0x2833 PUSH2 0x43C0 JUMP JUMPDEST PUSH1 0x0 PUSH1 0x9 DUP4 DUP2 SLOAD DUP2 LT PUSH2 0x2848 JUMPI PUSH2 0x2848 PUSH2 0x5157 JUMP JUMPDEST SWAP1 PUSH1 0x0 MSTORE PUSH1 0x20 PUSH1 0x0 KECCAK256 SWAP1 PUSH1 0x6 MUL ADD PUSH1 0x40 MLOAD DUP1 PUSH1 0xE0 ADD PUSH1 0x40 MSTORE SWAP1 DUP2 PUSH1 0x0 DUP3 ADD SLOAD DUP2 MSTORE PUSH1 0x20 ADD PUSH1 0x1 DUP3 ADD SLOAD DUP2 MSTORE PUSH1 0x20 ADD PUSH1 0x2 DUP3 ADD PUSH1 0x0 SWAP1 SLOAD SWAP1 PUSH2 0x100 EXP SWAP1 DIV PUSH1 0x1 PUSH1 0x1 PUSH1 0xA0 SHL SUB AND PUSH1 0x1 PUSH1 0x1 PUSH1 0xA0 SHL SUB AND PUSH1 0x1 PUSH1 0x1 PUSH1 0xA0 SHL SUB AND DUP2 MSTORE PUSH1 0x20 ADD PUSH1 0x3 DUP3 ADD SLOAD DUP2 MSTORE PUSH1 0x20 ADD PUSH1 0x4 DUP3 ADD DUP1 SLOAD PUSH2 0x28BE SWAP1 PUSH2 0x50B7 JUMP JUMPDEST DUP1 PUSH1 0x1F ADD PUSH1 0x20 DUP1 SWAP2 DIV MUL PUSH1 0x20 ADD PUSH1 0x40 MLOAD SWAP1 DUP2 ADD PUSH1 0x40 MSTORE DUP1 SWAP3 SWAP2 SWAP1 DUP2 DUP2 MSTORE PUSH1 0x20 ADD DUP3 DUP1 SLOAD PUSH2 0x28EA SWAP1 PUSH2 0x50B7 JUMP JUMPDEST DUP1 ISZERO PUSH2 0x2937 JUMPI DUP1 PUSH1 0x1F LT PUSH2 0x290C JUMPI PUSH2 0x100 DUP1 DUP4 SLOAD DIV MUL DUP4 MSTORE SWAP2 PUSH1 0x20 ADD SWAP2 PUSH2 0x2937 JUMP JUMPDEST DUP3 ADD SWAP2 SWAP1 PUSH1 0x0 MSTORE PUSH1 0x20 PUSH1 0x0 KECCAK256 SWAP1 JUMPDEST DUP2 SLOAD DUP2 MSTORE SWAP1 PUSH1 0x1 ADD SWAP1 PUSH1 0x20 ADD DUP1 DUP4 GT PUSH2 0x291A JUMPI DUP3 SWAP1 SUB PUSH1 0x1F AND DUP3 ADD SWAP2 JUMPDEST POP POP POP SWAP2 DUP4 MSTORE POP POP PUSH1 0x5 SWAP2 SWAP1 SWAP2 ADD SLOAD PUSH1 0xFF DUP1 DUP3 AND ISZERO ISZERO PUSH1 0x20 DUP5 ADD MSTORE PUSH2 0x100 SWAP1 SWAP2 DIV AND ISZERO ISZERO PUSH1 0x40 SWAP2 DUP3 ADD MSTORE DUP2 ADD MLOAD SWAP1 SWAP2 POP PUSH1 0x0 SWAP1 PUSH2 0x210B SWAP1 PUSH2 0x19C2 JUMP JUMPDEST PUSH1 0x1 PUSH1 0x1 PUSH1 0xA0 SHL SUB DUP2 AND PUSH1 0x0 SWAP1 DUP2 MSTORE PUSH1 0xA PUSH1 0x20 MSTORE PUSH1 0x40 DUP2 KECCAK256 SLOAD PUSH1 0x60 SWAP2 DUP2 PUSH8 0xFFFFFFFFFFFFFFFF DUP2 GT ISZERO PUSH2 0x29A8 JUMPI PUSH2 0x29A8 PUSH2 0x4642 JUMP JUMPDEST PUSH1 0x40 MLOAD SWAP1 DUP1 DUP3 MSTORE DUP1 PUSH1 0x20 MUL PUSH1 0x20 ADD DUP3 ADD PUSH1 0x40 MSTORE DUP1 ISZERO PUSH2 0x29E1 JUMPI DUP2 PUSH1 0x20 ADD JUMPDEST PUSH2 0x29CE PUSH2 0x4376 JUMP JUMPDEST DUP2 MSTORE PUSH1 0x20 ADD SWAP1 PUSH1 0x1 SWAP1 SUB SWAP1 DUP2 PUSH2 0x29C6 JUMPI SWAP1 POP JUMPDEST POP SWAP1 POP PUSH1 0x0 DUP1 JUMPDEST PUSH1 0x9 SLOAD DUP2 LT ISZERO PUSH2 0x1ED9 JUMPI PUSH1 0x0 PUSH1 0x9 DUP3 DUP2 SLOAD DUP2 LT PUSH2 0x2A07 JUMPI PUSH2 0x2A07 PUSH2 0x5157 JUMP JUMPDEST SWAP1 PUSH1 0x0 MSTORE PUSH1 0x20 PUSH1 0x0 KECCAK256 SWAP1 PUSH1 0x6 MUL ADD PUSH1 0x40 MLOAD DUP1 PUSH1 0xE0 ADD PUSH1 0x40 MSTORE SWAP1 DUP2 PUSH1 0x0 DUP3 ADD SLOAD DUP2 MSTORE PUSH1 0x20 ADD PUSH1 0x1 DUP3 ADD SLOAD DUP2 MSTORE PUSH1 0x20 ADD PUSH1 0x2 DUP3 ADD PUSH1 0x0 SWAP1 SLOAD SWAP1 PUSH2 0x100 EXP SWAP1 DIV PUSH1 0x1 PUSH1 0x1 PUSH1 0xA0 SHL SUB AND PUSH1 0x1 PUSH1 0x1 PUSH1 0xA0 SHL SUB AND PUSH1 0x1 PUSH1 0x1 PUSH1 0xA0 SHL SUB AND DUP2 MSTORE PUSH1 0x20 ADD PUSH1 0x3 DUP3 ADD SLOAD DUP2 MSTORE PUSH1 0x20 ADD PUSH1 0x4 DUP3 ADD DUP1 SLOAD PUSH2 0x2A7D SWAP1 PUSH2 0x50B7 JUMP JUMPDEST DUP1 PUSH1 0x1F ADD PUSH1 0x20 DUP1 SWAP2 DIV MUL PUSH1 0x20 ADD PUSH1 0x40 MLOAD SWAP1 DUP2 ADD PUSH1 0x40 MSTORE DUP1 SWAP3 SWAP2 SWAP1 DUP2 DUP2 MSTORE PUSH1 0x20 ADD DUP3 DUP1 SLOAD PUSH2 0x2AA9 SWAP1 PUSH2 0x50B7 JUMP JUMPDEST DUP1 ISZERO PUSH2 0x2AF6 JUMPI DUP1 PUSH1 0x1F LT PUSH2 0x2ACB JUMPI PUSH2 0x100 DUP1 DUP4 SLOAD DIV MUL DUP4 MSTORE SWAP2 PUSH1 0x20 ADD SWAP2 PUSH2 0x2AF6 JUMP JUMPDEST DUP3 ADD SWAP2 SWAP1 PUSH1 0x0 MSTORE PUSH1 0x20 PUSH1 0x0 KECCAK256 SWAP1 JUMPDEST DUP2 SLOAD DUP2 MSTORE SWAP1 PUSH1 0x1 ADD SWAP1 PUSH1 0x20 ADD DUP1 DUP4 GT PUSH2 0x2AD9 JUMPI DUP3 SWAP1 SUB PUSH1 0x1F AND DUP3 ADD SWAP2 JUMPDEST POP POP POP SWAP2 DUP4 MSTORE POP POP PUSH1 0x5 SWAP2 SWAP1 SWAP2 ADD SLOAD PUSH1 0xFF DUP1 DUP3 AND ISZERO ISZERO PUSH1 0x20 DUP5 ADD MSTORE PUSH2 0x100 SWAP1 SWAP2 DIV AND ISZERO ISZERO PUSH1 0x40 SWAP2 DUP3 ADD MSTORE DUP2 ADD MLOAD SWAP1 SWAP2 POP PUSH1 0x1 PUSH1 0x1 PUSH1 0xA0 SHL SUB DUP1 DUP10 AND SWAP2 AND SUB PUSH2 0x2B71 JUMPI DUP1 DUP5 DUP5 DUP2 MLOAD DUP2 LT PUSH2 0x2B4B JUMPI PUSH2 0x2B4B PUSH2 0x5157 JUMP JUMPDEST PUSH1 0x20 MUL PUSH1 0x20 ADD ADD DUP2 SWAP1 MSTORE POP DUP3 DUP1 PUSH2 0x2B61 SWAP1 PUSH2 0x513E JUMP JUMPDEST SWAP4 POP POP DUP5 DUP4 SUB PUSH2 0x2B71 JUMPI POP PUSH2 0x1ED9 JUMP JUMPDEST POP DUP1 PUSH2 0x2B7C DUP2 PUSH2 0x513E JUMP JUMPDEST SWAP2 POP POP PUSH2 0x29E8 JUMP JUMPDEST PUSH1 0x8 PUSH1 0x20 MSTORE PUSH1 0x0 SWAP1 DUP2 MSTORE PUSH1 0x40 SWAP1 KECCAK256 DUP1 SLOAD PUSH1 0x1 DUP3 ADD SLOAD PUSH1 0x2 DUP4 ADD SLOAD PUSH1 0x3 DUP5 ADD DUP1 SLOAD SWAP4 SWAP5 SWAP3 SWAP4 PUSH1 0x1 PUSH1 0x1 PUSH1 0xA0 SHL SUB SWAP1 SWAP3 AND SWAP3 SWAP2 PUSH2 0x2BBE SWAP1 PUSH2 0x50B7 JUMP JUMPDEST DUP1 PUSH1 0x1F ADD PUSH1 0x20 DUP1 SWAP2 DIV MUL PUSH1 0x20 ADD PUSH1 0x40 MLOAD SWAP1 DUP2 ADD PUSH1 0x40 MSTORE DUP1 SWAP3 SWAP2 SWAP1 DUP2 DUP2 MSTORE PUSH1 0x20 ADD DUP3 DUP1 SLOAD PUSH2 0x2BEA SWAP1 PUSH2 0x50B7 JUMP JUMPDEST DUP1 ISZERO PUSH2 0x2C37 JUMPI DUP1 PUSH1 0x1F LT PUSH2 0x2C0C JUMPI PUSH2 0x100 DUP1 DUP4 SLOAD DIV MUL DUP4 MSTORE SWAP2 PUSH1 0x20 ADD SWAP2 PUSH2 0x2C37 JUMP JUMPDEST DUP3 ADD SWAP2 SWAP1 PUSH1 0x0 MSTORE PUSH1 0x20 PUSH1 0x0 KECCAK256 SWAP1 JUMPDEST DUP2 SLOAD DUP2 MSTORE SWAP1 PUSH1 0x1 ADD SWAP1 PUSH1 0x20 ADD DUP1 DUP4 GT PUSH2 0x2C1A JUMPI DUP3 SWAP1 SUB PUSH1 0x1F AND DUP3 ADD SWAP2 JUMPDEST POP POP POP POP POP SWAP1 DUP1 PUSH1 0x4 ADD DUP1 SLOAD PUSH2 0x2C4C SWAP1 PUSH2 0x50B7 JUMP JUMPDEST DUP1 PUSH1 0x1F ADD PUSH1 0x20 DUP1 SWAP2 DIV MUL PUSH1 0x20 ADD PUSH1 0x40 MLOAD SWAP1 DUP2 ADD PUSH1 0x40 MSTORE DUP1 SWAP3 SWAP2 SWAP1 DUP2 DUP2 MSTORE PUSH1 0x20 ADD DUP3 DUP1 SLOAD PUSH2 0x2C78 SWAP1 PUSH2 0x50B7 JUMP JUMPDEST DUP1 ISZERO PUSH2 0x2CC5 JUMPI DUP1 PUSH1 0x1F LT PUSH2 0x2C9A JUMPI PUSH2 0x100 DUP1 DUP4 SLOAD DIV MUL DUP4 MSTORE SWAP2 PUSH1 0x20 ADD SWAP2 PUSH2 0x2CC5 JUMP JUMPDEST DUP3 ADD SWAP2 SWAP1 PUSH1 0x0 MSTORE PUSH1 0x20 PUSH1 0x0 KECCAK256 SWAP1 JUMPDEST DUP2 SLOAD DUP2 MSTORE SWAP1 PUSH1 0x1 ADD SWAP1 PUSH1 0x20 ADD DUP1 DUP4 GT PUSH2 0x2CA8 JUMPI DUP3 SWAP1 SUB PUSH1 0x1F AND DUP3 ADD SWAP2 JUMPDEST POP POP POP POP POP SWAP1 DUP1 PUSH1 0x5 ADD DUP1 SLOAD PUSH2 0x2CDA SWAP1 PUSH2 0x50B7 JUMP JUMPDEST DUP1 PUSH1 0x1F ADD PUSH1 0x20 DUP1 SWAP2 DIV MUL PUSH1 0x20 ADD PUSH1 0x40 MLOAD SWAP1 DUP2 ADD PUSH1 0x40 MSTORE DUP1 SWAP3 SWAP2 SWAP1 DUP2 DUP2 MSTORE PUSH1 0x20 ADD DUP3 DUP1 SLOAD PUSH2 0x2D06 SWAP1 PUSH2 0x50B7 JUMP JUMPDEST DUP1 ISZERO PUSH2 0x2D53 JUMPI DUP1 PUSH1 0x1F LT PUSH2 0x2D28 JUMPI PUSH2 0x100 DUP1 DUP4 SLOAD DIV MUL DUP4 MSTORE SWAP2 PUSH1 0x20 ADD SWAP2 PUSH2 0x2D53 JUMP JUMPDEST DUP3 ADD SWAP2 SWAP1 PUSH1 0x0 MSTORE PUSH1 0x20 PUSH1 0x0 KECCAK256 SWAP1 JUMPDEST DUP2 SLOAD DUP2 MSTORE SWAP1 PUSH1 0x1 ADD SWAP1 PUSH1 0x20 ADD DUP1 DUP4 GT PUSH2 0x2D36 JUMPI DUP3 SWAP1 SUB PUSH1 0x1F AND DUP3 ADD SWAP2 JUMPDEST POP POP POP POP POP SWAP1 DUP1 PUSH1 0x6 ADD DUP1 SLOAD PUSH2 0x2D68 SWAP1 PUSH2 0x50B7 JUMP JUMPDEST DUP1 PUSH1 0x1F ADD PUSH1 0x20 DUP1 SWAP2 DIV MUL PUSH1 0x20 ADD PUSH1 0x40 MLOAD SWAP1 DUP2 ADD PUSH1 0x40 MSTORE DUP1 SWAP3 SWAP2 SWAP1 DUP2 DUP2 MSTORE PUSH1 0x20 ADD DUP3 DUP1 SLOAD PUSH2 0x2D94 SWAP1 PUSH2 0x50B7 JUMP JUMPDEST DUP1 ISZERO PUSH2 0x2DE1 JUMPI DUP1 PUSH1 0x1F LT PUSH2 0x2DB6 JUMPI PUSH2 0x100 DUP1 DUP4 SLOAD DIV MUL DUP4 MSTORE SWAP2 PUSH1 0x20 ADD SWAP2 PUSH2 0x2DE1 JUMP JUMPDEST DUP3 ADD SWAP2 SWAP1 PUSH1 0x0 MSTORE PUSH1 0x20 PUSH1 0x0 KECCAK256 SWAP1 JUMPDEST DUP2 SLOAD DUP2 MSTORE SWAP1 PUSH1 0x1 ADD SWAP1 PUSH1 0x20 ADD DUP1 DUP4 GT PUSH2 0x2DC4 JUMPI DUP3 SWAP1 SUB PUSH1 0x1F AND DUP3 ADD SWAP2 JUMPDEST POP POP POP PUSH1 0x7 SWAP1 SWAP4 ADD SLOAD SWAP2 SWAP3 POP POP PUSH1 0xFF AND DUP9 JUMP JUMPDEST PUSH1 0x16 SLOAD PUSH2 0x2DFF PUSH2 0x43C0 JUMP JUMPDEST DUP2 DUP2 MSTORE PUSH1 0x1 PUSH1 0x1 PUSH1 0xA0 SHL SUB DUP8 DUP2 AND PUSH1 0x40 DUP1 DUP5 ADD DUP3 DUP2 MSTORE PUSH1 0x60 DUP6 ADD DUP11 DUP2 MSTORE PUSH1 0x80 DUP7 ADD DUP11 SWAP1 MSTORE PUSH1 0xA0 DUP7 ADD DUP10 SWAP1 MSTORE PUSH1 0xC0 DUP7 ADD DUP9 SWAP1 MSTORE PUSH1 0x1 PUSH1 0xE0 DUP8 ADD DUP2 SWAP1 MSTORE PUSH1 0x0 SWAP5 DUP6 MSTORE PUSH1 0x8 PUSH1 0x20 SWAP1 DUP2 MSTORE SWAP4 SWAP1 SWAP5 KECCAK256 DUP7 MLOAD DUP2 SSTORE DUP4 DUP8 ADD MLOAD SWAP5 DUP2 ADD SWAP5 SWAP1 SWAP5 SSTORE SWAP1 MLOAD PUSH1 0x2 DUP5 ADD DUP1 SLOAD PUSH1 0x1 PUSH1 0x1 PUSH1 0xA0 SHL SUB NOT AND SWAP2 SWAP1 SWAP6 AND OR SWAP1 SWAP4 SSTORE SWAP2 MLOAD DUP1 MLOAD DUP5 SWAP4 PUSH2 0x2E8A SWAP3 PUSH1 0x3 DUP6 ADD SWAP3 SWAP2 ADD SWAP1 PUSH2 0x42F2 JUMP JUMPDEST POP PUSH1 0x80 DUP3 ADD MLOAD DUP1 MLOAD PUSH2 0x2EA6 SWAP2 PUSH1 0x4 DUP5 ADD SWAP2 PUSH1 0x20 SWAP1 SWAP2 ADD SWAP1 PUSH2 0x42F2 JUMP JUMPDEST POP PUSH1 0xA0 DUP3 ADD MLOAD DUP1 MLOAD PUSH2 0x2EC2 SWAP2 PUSH1 0x5 DUP5 ADD SWAP2 PUSH1 0x20 SWAP1 SWAP2 ADD SWAP1 PUSH2 0x42F2 JUMP JUMPDEST POP PUSH1 0xC0 DUP3 ADD MLOAD DUP1 MLOAD PUSH2 0x2EDE SWAP2 PUSH1 0x6 DUP5 ADD SWAP2 PUSH1 0x20 SWAP1 SWAP2 ADD SWAP1 PUSH2 0x42F2 JUMP JUMPDEST POP PUSH1 0xE0 SWAP2 SWAP1 SWAP2 ADD MLOAD PUSH1 0x7 SWAP1 SWAP2 ADD DUP1 SLOAD PUSH1 0xFF NOT AND SWAP2 ISZERO ISZERO SWAP2 SWAP1 SWAP2 OR SWAP1 SSTORE PUSH1 0x16 DUP1 SLOAD SWAP1 PUSH1 0x0 PUSH2 0x2F0A DUP4 PUSH2 0x513E JUMP JUMPDEST SWAP2 SWAP1 POP SSTORE POP POP POP POP POP POP POP POP JUMP JUMPDEST PUSH1 0x9 DUP2 DUP2 SLOAD DUP2 LT PUSH2 0x2F28 JUMPI PUSH1 0x0 DUP1 REVERT JUMPDEST PUSH1 0x0 SWAP2 DUP3 MSTORE PUSH1 0x20 SWAP1 SWAP2 KECCAK256 PUSH1 0x6 SWAP1 SWAP2 MUL ADD DUP1 SLOAD PUSH1 0x1 DUP3 ADD SLOAD PUSH1 0x2 DUP4 ADD SLOAD PUSH1 0x3 DUP5 ADD SLOAD PUSH1 0x4 DUP6 ADD DUP1 SLOAD SWAP5 SWAP7 POP SWAP3 SWAP5 PUSH1 0x1 PUSH1 0x1 PUSH1 0xA0 SHL SUB SWAP1 SWAP3 AND SWAP4 SWAP1 SWAP3 SWAP1 PUSH2 0x2F6C SWAP1 PUSH2 0x50B7 JUMP JUMPDEST DUP1 PUSH1 0x1F ADD PUSH1 0x20 DUP1 SWAP2 DIV MUL PUSH1 0x20 ADD PUSH1 0x40 MLOAD SWAP1 DUP2 ADD PUSH1 0x40 MSTORE DUP1 SWAP3 SWAP2 SWAP1 DUP2 DUP2 MSTORE PUSH1 0x20 ADD DUP3 DUP1 SLOAD PUSH2 0x2F98 SWAP1 PUSH2 0x50B7 JUMP JUMPDEST DUP1 ISZERO PUSH2 0x2FE5 JUMPI DUP1 PUSH1 0x1F LT PUSH2 0x2FBA JUMPI PUSH2 0x100 DUP1 DUP4 SLOAD DIV MUL DUP4 MSTORE SWAP2 PUSH1 0x20 ADD SWAP2 PUSH2 0x2FE5 JUMP JUMPDEST DUP3 ADD SWAP2 SWAP1 PUSH1 0x0 MSTORE PUSH1 0x20 PUSH1 0x0 KECCAK256 SWAP1 JUMPDEST DUP2 SLOAD DUP2 MSTORE SWAP1 PUSH1 0x1 ADD SWAP1 PUSH1 0x20 ADD DUP1 DUP4 GT PUSH2 0x2FC8 JUMPI DUP3 SWAP1 SUB PUSH1 0x1F AND DUP3 ADD SWAP2 JUMPDEST POP POP POP PUSH1 0x5 SWAP1 SWAP4 ADD SLOAD SWAP2 SWAP3 POP POP PUSH1 0xFF DUP1 DUP3 AND SWAP2 PUSH2 0x100 SWAP1 DIV AND DUP8 JUMP JUMPDEST PUSH1 0xD PUSH1 0x20 MSTORE PUSH1 0x0 SWAP1 DUP2 MSTORE PUSH1 0x40 SWAP1 KECCAK256 DUP1 SLOAD PUSH1 0x1 DUP3 ADD SLOAD PUSH1 0x2 DUP4 ADD DUP1 SLOAD SWAP3 SWAP4 PUSH1 0x1 PUSH1 0x1 PUSH1 0xA0 SHL SUB SWAP1 SWAP3 AND SWAP3 PUSH2 0x3033 SWAP1 PUSH2 0x50B7 JUMP JUMPDEST DUP1 PUSH1 0x1F ADD PUSH1 0x20 DUP1 SWAP2 DIV MUL PUSH1 0x20 ADD PUSH1 0x40 MLOAD SWAP1 DUP2 ADD PUSH1 0x40 MSTORE DUP1 SWAP3 SWAP2 SWAP1 DUP2 DUP2 MSTORE PUSH1 0x20 ADD DUP3 DUP1 SLOAD PUSH2 0x305F SWAP1 PUSH2 0x50B7 JUMP JUMPDEST DUP1 ISZERO PUSH2 0x30AC JUMPI DUP1 PUSH1 0x1F LT PUSH2 0x3081 JUMPI PUSH2 0x100 DUP1 DUP4 SLOAD DIV MUL DUP4 MSTORE SWAP2 PUSH1 0x20 ADD SWAP2 PUSH2 0x30AC JUMP JUMPDEST DUP3 ADD SWAP2 SWAP1 PUSH1 0x0 MSTORE PUSH1 0x20 PUSH1 0x0 KECCAK256 SWAP1 JUMPDEST DUP2 SLOAD DUP2 MSTORE SWAP1 PUSH1 0x1 ADD SWAP1 PUSH1 0x20 ADD DUP1 DUP4 GT PUSH2 0x308F JUMPI DUP3 SWAP1 SUB PUSH1 0x1F AND DUP3 ADD SWAP2 JUMPDEST POP POP POP POP POP SWAP1 DUP1 PUSH1 0x3 ADD DUP1 SLOAD PUSH2 0x30C1 SWAP1 PUSH2 0x50B7 JUMP JUMPDEST DUP1 PUSH1 0x1F ADD PUSH1 0x20 DUP1 SWAP2 DIV MUL PUSH1 0x20 ADD PUSH1 0x40 MLOAD SWAP1 DUP2 ADD PUSH1 0x40 MSTORE DUP1 SWAP3 SWAP2 SWAP1 DUP2 DUP2 MSTORE PUSH1 0x20 ADD DUP3 DUP1 SLOAD PUSH2 0x30ED SWAP1 PUSH2 0x50B7 JUMP JUMPDEST DUP1 ISZERO PUSH2 0x313A JUMPI DUP1 PUSH1 0x1F LT PUSH2 0x310F JUMPI PUSH2 0x100 DUP1 DUP4 SLOAD DIV MUL DUP4 MSTORE SWAP2 PUSH1 0x20 ADD SWAP2 PUSH2 0x313A JUMP JUMPDEST DUP3 ADD SWAP2 SWAP1 PUSH1 0x0 MSTORE PUSH1 0x20 PUSH1 0x0 KECCAK256 SWAP1 JUMPDEST DUP2 SLOAD DUP2 MSTORE SWAP1 PUSH1 0x1 ADD SWAP1 PUSH1 0x20 ADD DUP1 DUP4 GT PUSH2 0x311D JUMPI DUP3 SWAP1 SUB PUSH1 0x1F AND DUP3 ADD SWAP2 JUMPDEST POP POP POP POP POP SWAP1 DUP1 PUSH1 0x4 ADD DUP1 SLOAD PUSH2 0x314F SWAP1 PUSH2 0x50B7 JUMP JUMPDEST DUP1 PUSH1 0x1F ADD PUSH1 0x20 DUP1 SWAP2 DIV MUL PUSH1 0x20 ADD PUSH1 0x40 MLOAD SWAP1 DUP2 ADD PUSH1 0x40 MSTORE DUP1 SWAP3 SWAP2 SWAP1 DUP2 DUP2 MSTORE PUSH1 0x20 ADD DUP3 DUP1 SLOAD PUSH2 0x317B SWAP1 PUSH2 0x50B7 JUMP JUMPDEST DUP1 ISZERO PUSH2 0x31C8 JUMPI DUP1 PUSH1 0x1F LT PUSH2 0x319D JUMPI PUSH2 0x100 DUP1 DUP4 SLOAD DIV MUL DUP4 MSTORE SWAP2 PUSH1 0x20 ADD SWAP2 PUSH2 0x31C8 JUMP JUMPDEST DUP3 ADD SWAP2 SWAP1 PUSH1 0x0 MSTORE PUSH1 0x20 PUSH1 0x0 KECCAK256 SWAP1 JUMPDEST DUP2 SLOAD DUP2 MSTORE SWAP1 PUSH1 0x1 ADD SWAP1 PUSH1 0x20 ADD DUP1 DUP4 GT PUSH2 0x31AB JUMPI DUP3 SWAP1 SUB PUSH1 0x1F AND DUP3 ADD SWAP2 JUMPDEST POP POP POP PUSH1 0x5 SWAP1 SWAP4 ADD SLOAD SWAP2 SWAP3 POP POP PUSH1 0xFF AND DUP7 JUMP JUMPDEST PUSH1 0x60 PUSH1 0x0 PUSH2 0x31E8 DUP4 PUSH2 0x2410 JUMP JUMPDEST SWAP1 POP PUSH1 0x0 DUP2 MLOAD PUSH8 0xFFFFFFFFFFFFFFFF DUP2 GT ISZERO PUSH2 0x3206 JUMPI PUSH2 0x3206 PUSH2 0x4642 JUMP JUMPDEST PUSH1 0x40 MLOAD SWAP1 DUP1 DUP3 MSTORE DUP1 PUSH1 0x20 MUL PUSH1 0x20 ADD DUP3 ADD PUSH1 0x40 MSTORE DUP1 ISZERO PUSH2 0x323F JUMPI DUP2 PUSH1 0x20 ADD JUMPDEST PUSH2 0x322C PUSH2 0x44CC JUMP JUMPDEST DUP2 MSTORE PUSH1 0x20 ADD SWAP1 PUSH1 0x1 SWAP1 SUB SWAP1 DUP2 PUSH2 0x3224 JUMPI SWAP1 POP JUMPDEST POP SWAP1 POP PUSH1 0x0 JUMPDEST DUP3 MLOAD DUP2 LT ISZERO PUSH2 0x32F4 JUMPI PUSH1 0x0 DUP4 DUP3 DUP2 MLOAD DUP2 LT PUSH2 0x3262 JUMPI PUSH2 0x3262 PUSH2 0x5157 JUMP JUMPDEST PUSH1 0x20 SWAP1 DUP2 MUL SWAP2 SWAP1 SWAP2 ADD DUP2 ADD MLOAD PUSH1 0x0 DUP9 DUP2 MSTORE PUSH1 0xF DUP4 MSTORE PUSH1 0x40 DUP1 DUP3 KECCAK256 DUP2 DUP5 ADD MLOAD PUSH1 0x1 PUSH1 0x1 PUSH1 0xA0 SHL SUB AND DUP4 MSTORE SWAP1 SWAP4 MSTORE SWAP2 SWAP1 SWAP2 KECCAK256 SLOAD SWAP1 SWAP2 POP PUSH2 0x329E PUSH2 0x44CC JUMP JUMPDEST DUP4 DUP2 MSTORE PUSH1 0x20 DUP2 ADD DUP9 SWAP1 MSTORE DUP3 MLOAD PUSH1 0x40 DUP3 ADD MSTORE PUSH1 0x80 DUP2 ADD DUP3 SWAP1 MSTORE PUSH1 0x1 PUSH1 0xA0 DUP3 ADD MSTORE DUP5 MLOAD DUP2 SWAP1 DUP7 SWAP1 DUP7 SWAP1 DUP2 LT PUSH2 0x32D3 JUMPI PUSH2 0x32D3 PUSH2 0x5157 JUMP JUMPDEST PUSH1 0x20 MUL PUSH1 0x20 ADD ADD DUP2 SWAP1 MSTORE POP POP POP POP DUP1 DUP1 PUSH2 0x32EC SWAP1 PUSH2 0x513E JUMP JUMPDEST SWAP2 POP POP PUSH2 0x3245 JUMP JUMPDEST POP SWAP4 SWAP3 POP POP POP JUMP JUMPDEST PUSH1 0x0 DUP1 DUP1 JUMPDEST PUSH1 0x10 SLOAD DUP2 LT ISZERO PUSH2 0x33C1 JUMPI PUSH1 0x0 PUSH1 0x10 DUP3 DUP2 SLOAD DUP2 LT PUSH2 0x3320 JUMPI PUSH2 0x3320 PUSH2 0x5157 JUMP JUMPDEST PUSH1 0x0 SWAP2 DUP3 MSTORE PUSH1 0x20 SWAP2 DUP3 SWAP1 KECCAK256 PUSH1 0x40 DUP1 MLOAD PUSH1 0xE0 DUP2 ADD DUP3 MSTORE PUSH1 0x7 SWAP1 SWAP4 MUL SWAP1 SWAP2 ADD DUP1 SLOAD DUP4 MSTORE PUSH1 0x1 DUP2 ADD SLOAD SWAP4 DUP4 ADD SWAP4 SWAP1 SWAP4 MSTORE PUSH1 0x2 DUP4 ADD SLOAD SWAP1 DUP3 ADD MSTORE PUSH1 0x3 DUP3 ADD SLOAD PUSH1 0x60 DUP3 ADD MSTORE PUSH1 0x4 DUP3 ADD SLOAD PUSH1 0x1 PUSH1 0x1 PUSH1 0xA0 SHL SUB SWAP1 DUP2 AND PUSH1 0x80 DUP4 ADD DUP2 SWAP1 MSTORE PUSH1 0x5 DUP5 ADD SLOAD PUSH1 0xA0 DUP5 ADD MSTORE PUSH1 0x6 SWAP1 SWAP4 ADD SLOAD PUSH1 0xFF AND ISZERO ISZERO PUSH1 0xC0 DUP4 ADD MSTORE SWAP1 SWAP3 POP DUP7 AND SWAP1 SUB PUSH2 0x33AE JUMPI PUSH1 0xA0 DUP2 ADD MLOAD PUSH2 0x33AB SWAP1 DUP5 PUSH2 0x5126 JUMP JUMPDEST SWAP3 POP JUMPDEST POP DUP1 PUSH2 0x33B9 DUP2 PUSH2 0x513E JUMP JUMPDEST SWAP2 POP POP PUSH2 0x3301 JUMP JUMPDEST POP SWAP3 SWAP2 POP POP JUMP JUMPDEST PUSH1 0x0 PUSH2 0x33D3 DUP6 PUSH2 0x2113 JUMP JUMPDEST SWAP1 POP DUP1 PUSH2 0x120 ADD MLOAD ISZERO PUSH2 0x33E5 JUMPI PUSH1 0x0 DUP1 REVERT JUMPDEST PUSH1 0x0 DUP6 DUP2 MSTORE PUSH1 0x13 PUSH1 0x20 SWAP1 DUP2 MSTORE PUSH1 0x40 DUP1 DUP4 KECCAK256 PUSH1 0x1 PUSH1 0x1 PUSH1 0xA0 SHL SUB DUP7 AND DUP5 MSTORE SWAP1 SWAP2 MSTORE SWAP1 KECCAK256 SLOAD PUSH1 0xFF AND ISZERO PUSH2 0x3415 JUMPI PUSH1 0x0 DUP1 REVERT JUMPDEST PUSH1 0x0 PUSH2 0x3420 DUP6 PUSH2 0x1198 JUMP JUMPDEST PUSH1 0x19 SLOAD SWAP1 SWAP2 POP PUSH1 0x0 PUSH2 0x3431 DUP6 PUSH2 0x261A JUMP JUMPDEST SWAP1 POP PUSH2 0x343B PUSH2 0x4451 JUMP JUMPDEST DUP3 DUP2 MSTORE DUP2 MLOAD PUSH1 0x20 DUP1 DUP4 ADD SWAP2 DUP3 MSTORE DUP6 DUP2 ADD MLOAD PUSH1 0x40 DUP1 DUP6 ADD SWAP2 DUP3 MSTORE PUSH1 0x60 DUP6 ADD DUP14 DUP2 MSTORE PUSH1 0x1 PUSH1 0xA0 DUP8 ADD DUP2 DUP2 MSTORE PUSH1 0xE DUP1 SLOAD DUP1 DUP5 ADD DUP3 SSTORE PUSH1 0x0 SWAP2 DUP3 MSTORE DUP10 MLOAD PUSH1 0x5 SWAP1 SWAP2 MUL PUSH32 0xBB7B4A454DC3493923482F07822329ED19E8244EFF582CC204F8554C3620C3FD DUP2 ADD SWAP2 SWAP1 SWAP2 SSTORE SWAP8 MLOAD PUSH32 0xBB7B4A454DC3493923482F07822329ED19E8244EFF582CC204F8554C3620C3FE DUP10 ADD SSTORE SWAP5 MLOAD PUSH32 0xBB7B4A454DC3493923482F07822329ED19E8244EFF582CC204F8554C3620C3FF DUP9 ADD SSTORE SWAP2 MLOAD PUSH32 0xBB7B4A454DC3493923482F07822329ED19E8244EFF582CC204F8554C3620C400 DUP8 ADD SSTORE PUSH1 0x80 DUP8 ADD MLOAD PUSH32 0xBB7B4A454DC3493923482F07822329ED19E8244EFF582CC204F8554C3620C401 SWAP1 SWAP7 ADD DUP1 SLOAD SWAP3 MLOAD ISZERO ISZERO PUSH2 0x100 MUL PUSH2 0xFF00 NOT SWAP8 ISZERO ISZERO SWAP8 SWAP1 SWAP8 AND PUSH2 0xFFFF NOT SWAP1 SWAP4 AND SWAP3 SWAP1 SWAP3 OR SWAP6 SWAP1 SWAP6 OR SWAP1 SSTORE DUP9 MLOAD DUP1 DUP4 MSTORE PUSH1 0x13 DUP5 MSTORE DUP2 DUP4 KECCAK256 DUP5 DUP9 ADD DUP1 MLOAD PUSH1 0x1 PUSH1 0x1 PUSH1 0xA0 SHL SUB AND DUP6 MSTORE SWAP5 MSTORE SWAP2 KECCAK256 DUP1 SLOAD PUSH1 0xFF NOT AND SWAP1 SWAP4 OR SWAP1 SWAP3 SSTORE MLOAD PUSH2 0x3599 SWAP1 DUP3 SWAP1 PUSH2 0x3DE7 JUMP JUMPDEST PUSH1 0x0 DUP2 DUP2 MSTORE PUSH1 0x7 PUSH1 0x20 MSTORE PUSH1 0x40 DUP2 KECCAK256 SLOAD SWAP1 PUSH2 0x35B4 DUP3 PUSH1 0x1 PUSH2 0x5126 JUMP JUMPDEST PUSH1 0x0 DUP5 DUP2 MSTORE PUSH1 0x7 PUSH1 0x20 SWAP1 DUP2 MSTORE PUSH1 0x40 DUP1 DUP4 KECCAK256 DUP5 SWAP1 SSTORE DUP9 DUP3 ADD MLOAD PUSH1 0x1 PUSH1 0x1 PUSH1 0xA0 SHL SUB AND DUP4 MSTORE PUSH1 0xB SWAP1 SWAP2 MSTORE DUP2 KECCAK256 SLOAD SWAP2 SWAP3 POP PUSH2 0x35ED DUP3 PUSH1 0x1 PUSH2 0x5126 JUMP JUMPDEST SWAP1 POP DUP1 PUSH1 0xB PUSH1 0x0 DUP10 PUSH1 0x20 ADD MLOAD PUSH1 0x1 PUSH1 0x1 PUSH1 0xA0 SHL SUB AND PUSH1 0x1 PUSH1 0x1 PUSH1 0xA0 SHL SUB AND DUP2 MSTORE PUSH1 0x20 ADD SWAP1 DUP2 MSTORE PUSH1 0x20 ADD PUSH1 0x0 KECCAK256 DUP2 SWAP1 SSTORE POP PUSH1 0x0 PUSH1 0xF PUSH1 0x0 DUP8 DUP2 MSTORE PUSH1 0x20 ADD SWAP1 DUP2 MSTORE PUSH1 0x20 ADD PUSH1 0x0 KECCAK256 PUSH1 0x0 DUP15 PUSH1 0x1 PUSH1 0x1 PUSH1 0xA0 SHL SUB AND PUSH1 0x1 PUSH1 0x1 PUSH1 0xA0 SHL SUB AND DUP2 MSTORE PUSH1 0x20 ADD SWAP1 DUP2 MSTORE PUSH1 0x20 ADD PUSH1 0x0 KECCAK256 SLOAD SWAP1 POP PUSH1 0x0 DUP2 PUSH1 0x1 PUSH2 0x3667 SWAP2 SWAP1 PUSH2 0x5126 JUMP JUMPDEST PUSH1 0x0 DUP9 DUP2 MSTORE PUSH1 0xF PUSH1 0x20 SWAP1 DUP2 MSTORE PUSH1 0x40 DUP1 DUP4 KECCAK256 DUP16 DUP3 ADD MLOAD PUSH1 0x1 PUSH1 0x1 PUSH1 0xA0 SHL SUB AND DUP5 MSTORE SWAP1 SWAP2 MSTORE SWAP1 KECCAK256 DUP2 SWAP1 SSTORE PUSH1 0xC0 DUP14 ADD MLOAD SWAP1 SWAP2 POP DUP6 SUB PUSH2 0x36BD JUMPI PUSH2 0x36A6 DUP8 PUSH2 0x3F6E JUMP JUMPDEST PUSH2 0x36B4 DUP8 DUP13 PUSH1 0x20 ADD MLOAD PUSH2 0x3F9A JUMP JUMPDEST PUSH2 0x36BD DUP8 PUSH2 0x4203 JUMP JUMPDEST PUSH1 0x19 DUP1 SLOAD SWAP1 PUSH1 0x0 PUSH2 0x36CD DUP4 PUSH2 0x513E JUMP JUMPDEST SWAP2 SWAP1 POP SSTORE POP POP POP POP POP POP POP POP POP POP POP POP POP POP POP POP POP JUMP JUMPDEST PUSH1 0xE DUP2 DUP2 SLOAD DUP2 LT PUSH2 0x36F4 JUMPI PUSH1 0x0 DUP1 REVERT JUMPDEST PUSH1 0x0 SWAP2 DUP3 MSTORE PUSH1 0x20 SWAP1 SWAP2 KECCAK256 PUSH1 0x5 SWAP1 SWAP2 MUL ADD DUP1 SLOAD PUSH1 0x1 DUP3 ADD SLOAD PUSH1 0x2 DUP4 ADD SLOAD PUSH1 0x3 DUP5 ADD SLOAD PUSH1 0x4 SWAP1 SWAP5 ADD SLOAD SWAP3 SWAP5 POP SWAP1 SWAP3 SWAP1 SWAP2 PUSH1 0xFF DUP1 DUP3 AND SWAP2 PUSH2 0x100 SWAP1 DIV AND DUP7 JUMP JUMPDEST PUSH2 0x3739 PUSH2 0x448B JUMP JUMPDEST PUSH1 0x1 PUSH1 0x1 PUSH1 0xA0 SHL SUB DUP1 DUP4 AND PUSH1 0x0 SWAP1 DUP2 MSTORE PUSH1 0x3 PUSH1 0x20 SWAP1 DUP2 MSTORE PUSH1 0x40 SWAP2 DUP3 SWAP1 KECCAK256 DUP3 MLOAD PUSH1 0xC0 DUP2 ADD DUP5 MSTORE DUP2 SLOAD DUP2 MSTORE PUSH1 0x1 DUP3 ADD SLOAD SWAP1 SWAP5 AND SWAP2 DUP5 ADD SWAP2 SWAP1 SWAP2 MSTORE PUSH1 0x2 DUP2 ADD DUP1 SLOAD SWAP2 SWAP3 DUP5 ADD SWAP2 PUSH2 0x3785 SWAP1 PUSH2 0x50B7 JUMP JUMPDEST DUP1 PUSH1 0x1F ADD PUSH1 0x20 DUP1 SWAP2 DIV MUL PUSH1 0x20 ADD PUSH1 0x40 MLOAD SWAP1 DUP2 ADD PUSH1 0x40 MSTORE DUP1 SWAP3 SWAP2 SWAP1 DUP2 DUP2 MSTORE PUSH1 0x20 ADD DUP3 DUP1 SLOAD PUSH2 0x37B1 SWAP1 PUSH2 0x50B7 JUMP JUMPDEST DUP1 ISZERO PUSH2 0x37FE JUMPI DUP1 PUSH1 0x1F LT PUSH2 0x37D3 JUMPI PUSH2 0x100 DUP1 DUP4 SLOAD DIV MUL DUP4 MSTORE SWAP2 PUSH1 0x20 ADD SWAP2 PUSH2 0x37FE JUMP JUMPDEST DUP3 ADD SWAP2 SWAP1 PUSH1 0x0 MSTORE PUSH1 0x20 PUSH1 0x0 KECCAK256 SWAP1 JUMPDEST DUP2 SLOAD DUP2 MSTORE SWAP1 PUSH1 0x1 ADD SWAP1 PUSH1 0x20 ADD DUP1 DUP4 GT PUSH2 0x37E1 JUMPI DUP3 SWAP1 SUB PUSH1 0x1F AND DUP3 ADD SWAP2 JUMPDEST POP POP POP POP POP DUP2 MSTORE PUSH1 0x20 ADD PUSH1 0x3 DUP3 ADD DUP1 SLOAD PUSH2 0x3817 SWAP1 PUSH2 0x50B7 JUMP JUMPDEST DUP1 PUSH1 0x1F ADD PUSH1 0x20 DUP1 SWAP2 DIV MUL PUSH1 0x20 ADD PUSH1 0x40 MLOAD SWAP1 DUP2 ADD PUSH1 0x40 MSTORE DUP1 SWAP3 SWAP2 SWAP1 DUP2 DUP2 MSTORE PUSH1 0x20 ADD DUP3 DUP1 SLOAD PUSH2 0x3843 SWAP1 PUSH2 0x50B7 JUMP JUMPDEST DUP1 ISZERO PUSH2 0x3890 JUMPI DUP1 PUSH1 0x1F LT PUSH2 0x3865 JUMPI PUSH2 0x100 DUP1 DUP4 SLOAD DIV MUL DUP4 MSTORE SWAP2 PUSH1 0x20 ADD SWAP2 PUSH2 0x3890 JUMP JUMPDEST DUP3 ADD SWAP2 SWAP1 PUSH1 0x0 MSTORE PUSH1 0x20 PUSH1 0x0 KECCAK256 SWAP1 JUMPDEST DUP2 SLOAD DUP2 MSTORE SWAP1 PUSH1 0x1 ADD SWAP1 PUSH1 0x20 ADD DUP1 DUP4 GT PUSH2 0x3873 JUMPI DUP3 SWAP1 SUB PUSH1 0x1F AND DUP3 ADD SWAP2 JUMPDEST POP POP POP SWAP2 DUP4 MSTORE POP POP PUSH1 0x4 DUP3 ADD SLOAD PUSH1 0x20 DUP3 ADD MSTORE PUSH1 0x5 SWAP1 SWAP2 ADD SLOAD PUSH1 0xFF AND ISZERO ISZERO PUSH1 0x40 SWAP1 SWAP2 ADD MSTORE SWAP3 SWAP2 POP POP JUMP JUMPDEST PUSH2 0x38C1 PUSH2 0x43C0 JUMP JUMPDEST PUSH1 0x0 PUSH2 0x38CB PUSH2 0x43C0 JUMP JUMPDEST PUSH1 0x0 PUSH2 0x38D6 DUP6 PUSH2 0x2410 JUMP JUMPDEST SWAP1 POP PUSH1 0x0 JUMPDEST DUP2 MLOAD DUP2 LT ISZERO PUSH2 0x1ED9 JUMPI PUSH1 0x0 DUP3 DUP3 DUP2 MLOAD DUP2 LT PUSH2 0x38F8 JUMPI PUSH2 0x38F8 PUSH2 0x5157 JUMP JUMPDEST PUSH1 0x20 SWAP1 DUP2 MUL SWAP2 SWAP1 SWAP2 ADD DUP2 ADD MLOAD PUSH1 0x0 DUP10 DUP2 MSTORE PUSH1 0xF DUP4 MSTORE PUSH1 0x40 DUP1 DUP3 KECCAK256 DUP2 DUP5 ADD MLOAD PUSH1 0x1 PUSH1 0x1 PUSH1 0xA0 SHL SUB AND DUP4 MSTORE SWAP1 SWAP4 MSTORE SWAP2 SWAP1 SWAP2 KECCAK256 SLOAD SWAP1 SWAP2 POP DUP6 DUP2 GT ISZERO PUSH2 0x3954 JUMPI DUP1 SWAP6 POP DUP4 DUP4 DUP2 MLOAD DUP2 LT PUSH2 0x3949 JUMPI PUSH2 0x3949 PUSH2 0x5157 JUMP JUMPDEST PUSH1 0x20 MUL PUSH1 0x20 ADD ADD MLOAD SWAP5 POP JUMPDEST POP POP DUP1 DUP1 PUSH2 0x3961 SWAP1 PUSH2 0x513E JUMP JUMPDEST SWAP2 POP POP PUSH2 0x38DB JUMP JUMPDEST PUSH1 0x0 PUSH1 0x64 PUSH2 0x3976 DUP4 PUSH2 0x2113 JUMP JUMPDEST PUSH1 0xE0 ADD MLOAD PUSH2 0x2400 SWAP1 PUSH1 0xA PUSH2 0x5107 JUMP JUMPDEST PUSH2 0x398D PUSH2 0x4376 JUMP JUMPDEST PUSH1 0x0 PUSH2 0x3998 DUP4 PUSH2 0x2973 JUMP JUMPDEST SWAP1 POP PUSH2 0x39A2 PUSH2 0x4376 JUMP JUMPDEST PUSH1 0x0 JUMPDEST DUP3 MLOAD DUP2 LT ISZERO PUSH2 0x39FB JUMPI PUSH1 0x0 DUP4 DUP3 DUP2 MLOAD DUP2 LT PUSH2 0x39C2 JUMPI PUSH2 0x39C2 PUSH2 0x5157 JUMP JUMPDEST PUSH1 0x20 MUL PUSH1 0x20 ADD ADD MLOAD SWAP1 POP DUP8 DUP2 PUSH1 0x60 ADD MLOAD EQ DUP1 ISZERO PUSH2 0x39DF JUMPI POP DUP1 MLOAD DUP8 EQ JUMPDEST ISZERO PUSH2 0x39E8 JUMPI DUP1 SWAP3 POP JUMPDEST POP DUP1 PUSH2 0x39F3 DUP2 PUSH2 0x513E JUMP JUMPDEST SWAP2 POP POP PUSH2 0x39A5 JUMP JUMPDEST POP SWAP6 SWAP5 POP POP POP POP POP JUMP JUMPDEST PUSH1 0x1 PUSH1 0x1 PUSH1 0xA0 SHL SUB DUP2 AND PUSH1 0x0 SWAP1 DUP2 MSTORE PUSH1 0x4 PUSH1 0x20 MSTORE PUSH1 0x40 DUP2 KECCAK256 SLOAD PUSH1 0x60 SWAP2 DUP2 PUSH8 0xFFFFFFFFFFFFFFFF DUP2 GT ISZERO PUSH2 0x3A3A JUMPI PUSH2 0x3A3A PUSH2 0x4642 JUMP JUMPDEST PUSH1 0x40 MLOAD SWAP1 DUP1 DUP3 MSTORE DUP1 PUSH1 0x20 MUL PUSH1 0x20 ADD DUP3 ADD PUSH1 0x40 MSTORE DUP1 ISZERO PUSH2 0x3A73 JUMPI DUP2 PUSH1 0x20 ADD JUMPDEST PUSH2 0x3A60 PUSH2 0x4289 JUMP JUMPDEST DUP2 MSTORE PUSH1 0x20 ADD SWAP1 PUSH1 0x1 SWAP1 SUB SWAP1 DUP2 PUSH2 0x3A58 JUMPI SWAP1 POP JUMPDEST POP SWAP1 POP PUSH1 0x0 DUP1 JUMPDEST PUSH1 0x5 SLOAD DUP2 LT ISZERO PUSH2 0x1ED9 JUMPI PUSH1 0x0 PUSH1 0x5 DUP3 DUP2 SLOAD DUP2 LT PUSH2 0x3A99 JUMPI PUSH2 0x3A99 PUSH2 0x5157 JUMP JUMPDEST SWAP1 PUSH1 0x0 MSTORE PUSH1 0x20 PUSH1 0x0 KECCAK256 SWAP1 PUSH1 0x9 MUL ADD PUSH1 0x40 MLOAD DUP1 PUSH2 0x160 ADD PUSH1 0x40 MSTORE SWAP1 DUP2 PUSH1 0x0 DUP3 ADD SLOAD DUP2 MSTORE PUSH1 0x20 ADD PUSH1 0x1 DUP3 ADD SLOAD DUP2 MSTORE PUSH1 0x20 ADD PUSH1 0x2 DUP3 ADD PUSH1 0x0 SWAP1 SLOAD SWAP1 PUSH2 0x100 EXP SWAP1 DIV PUSH1 0x1 PUSH1 0x1 PUSH1 0xA0 SHL SUB AND PUSH1 0x1 PUSH1 0x1 PUSH1 0xA0 SHL SUB AND PUSH1 0x1 PUSH1 0x1 PUSH1 0xA0 SHL SUB AND DUP2 MSTORE PUSH1 0x20 ADD PUSH1 0x3 DUP3 ADD DUP1 SLOAD PUSH2 0x3B06 SWAP1 PUSH2 0x50B7 JUMP JUMPDEST DUP1 PUSH1 0x1F ADD PUSH1 0x20 DUP1 SWAP2 DIV MUL PUSH1 0x20 ADD PUSH1 0x40 MLOAD SWAP1 DUP2 ADD PUSH1 0x40 MSTORE DUP1 SWAP3 SWAP2 SWAP1 DUP2 DUP2 MSTORE PUSH1 0x20 ADD DUP3 DUP1 SLOAD PUSH2 0x3B32 SWAP1 PUSH2 0x50B7 JUMP JUMPDEST DUP1 ISZERO PUSH2 0x3B7F JUMPI DUP1 PUSH1 0x1F LT PUSH2 0x3B54 JUMPI PUSH2 0x100 DUP1 DUP4 SLOAD DIV MUL DUP4 MSTORE SWAP2 PUSH1 0x20 ADD SWAP2 PUSH2 0x3B7F JUMP JUMPDEST DUP3 ADD SWAP2 SWAP1 PUSH1 0x0 MSTORE PUSH1 0x20 PUSH1 0x0 KECCAK256 SWAP1 JUMPDEST DUP2 SLOAD DUP2 MSTORE SWAP1 PUSH1 0x1 ADD SWAP1 PUSH1 0x20 ADD DUP1 DUP4 GT PUSH2 0x3B62 JUMPI DUP3 SWAP1 SUB PUSH1 0x1F AND DUP3 ADD SWAP2 JUMPDEST POP POP POP POP POP DUP2 MSTORE PUSH1 0x20 ADD PUSH1 0x4 DUP3 ADD DUP1 SLOAD PUSH2 0x3B98 SWAP1 PUSH2 0x50B7 JUMP JUMPDEST DUP1 PUSH1 0x1F ADD PUSH1 0x20 DUP1 SWAP2 DIV MUL PUSH1 0x20 ADD PUSH1 0x40 MLOAD SWAP1 DUP2 ADD PUSH1 0x40 MSTORE DUP1 SWAP3 SWAP2 SWAP1 DUP2 DUP2 MSTORE PUSH1 0x20 ADD DUP3 DUP1 SLOAD PUSH2 0x3BC4 SWAP1 PUSH2 0x50B7 JUMP JUMPDEST DUP1 ISZERO PUSH2 0x3C11 JUMPI DUP1 PUSH1 0x1F LT PUSH2 0x3BE6 JUMPI PUSH2 0x100 DUP1 DUP4 SLOAD DIV MUL DUP4 MSTORE SWAP2 PUSH1 0x20 ADD SWAP2 PUSH2 0x3C11 JUMP JUMPDEST DUP3 ADD SWAP2 SWAP1 PUSH1 0x0 MSTORE PUSH1 0x20 PUSH1 0x0 KECCAK256 SWAP1 JUMPDEST DUP2 SLOAD DUP2 MSTORE SWAP1 PUSH1 0x1 ADD SWAP1 PUSH1 0x20 ADD DUP1 DUP4 GT PUSH2 0x3BF4 JUMPI DUP3 SWAP1 SUB PUSH1 0x1F AND DUP3 ADD SWAP2 JUMPDEST POP POP POP SWAP2 DUP4 MSTORE POP POP PUSH1 0x5 DUP3 ADD SLOAD PUSH1 0x20 DUP3 ADD MSTORE PUSH1 0x6 DUP3 ADD SLOAD PUSH1 0x40 DUP1 DUP4 ADD SWAP2 SWAP1 SWAP2 MSTORE PUSH1 0x7 DUP4 ADD SLOAD PUSH1 0x60 DUP4 ADD MSTORE PUSH1 0x8 SWAP1 SWAP3 ADD SLOAD PUSH1 0xFF DUP1 DUP3 AND ISZERO ISZERO PUSH1 0x80 DUP5 ADD MSTORE PUSH2 0x100 DUP3 DIV DUP2 AND ISZERO ISZERO PUSH1 0xA0 DUP5 ADD MSTORE PUSH3 0x10000 SWAP1 SWAP2 DIV AND ISZERO ISZERO PUSH1 0xC0 SWAP1 SWAP2 ADD MSTORE DUP2 ADD MLOAD SWAP1 SWAP2 POP PUSH1 0x1 PUSH1 0x1 PUSH1 0xA0 SHL SUB DUP1 DUP10 AND SWAP2 AND SUB PUSH2 0x3CBC JUMPI DUP1 DUP5 DUP5 DUP2 MLOAD DUP2 LT PUSH2 0x3C96 JUMPI PUSH2 0x3C96 PUSH2 0x5157 JUMP JUMPDEST PUSH1 0x20 MUL PUSH1 0x20 ADD ADD DUP2 SWAP1 MSTORE POP DUP3 DUP1 PUSH2 0x3CAC SWAP1 PUSH2 0x513E JUMP JUMPDEST SWAP4 POP POP DUP5 DUP4 SUB PUSH2 0x3CBC JUMPI POP PUSH2 0x1ED9 JUMP JUMPDEST POP DUP1 PUSH2 0x3CC7 DUP2 PUSH2 0x513E JUMP JUMPDEST SWAP2 POP POP PUSH2 0x3A7A JUMP JUMPDEST PUSH1 0x0 PUSH2 0x3CDA DUP3 PUSH2 0x2113 JUMP JUMPDEST PUSH1 0x1 PUSH2 0x100 DUP3 ADD MSTORE PUSH1 0x5 DUP1 SLOAD SWAP2 SWAP3 POP DUP3 SWAP2 DUP5 SWAP1 DUP2 LT PUSH2 0x3CFB JUMPI PUSH2 0x3CFB PUSH2 0x5157 JUMP JUMPDEST PUSH1 0x0 SWAP2 DUP3 MSTORE PUSH1 0x20 SWAP2 DUP3 SWAP1 KECCAK256 DUP4 MLOAD PUSH1 0x9 SWAP3 SWAP1 SWAP3 MUL ADD SWAP1 DUP2 SSTORE DUP3 DUP3 ADD MLOAD PUSH1 0x1 DUP3 ADD SSTORE PUSH1 0x40 DUP4 ADD MLOAD PUSH1 0x2 DUP3 ADD DUP1 SLOAD PUSH1 0x1 PUSH1 0x1 PUSH1 0xA0 SHL SUB NOT AND PUSH1 0x1 PUSH1 0x1 PUSH1 0xA0 SHL SUB SWAP1 SWAP3 AND SWAP2 SWAP1 SWAP2 OR SWAP1 SSTORE PUSH1 0x60 DUP4 ADD MLOAD DUP1 MLOAD SWAP2 SWAP3 PUSH2 0x3D5C SWAP3 PUSH1 0x3 DUP6 ADD SWAP3 SWAP1 SWAP2 ADD SWAP1 PUSH2 0x42F2 JUMP JUMPDEST POP PUSH1 0x80 DUP3 ADD MLOAD DUP1 MLOAD PUSH2 0x3D78 SWAP2 PUSH1 0x4 DUP5 ADD SWAP2 PUSH1 0x20 SWAP1 SWAP2 ADD SWAP1 PUSH2 0x42F2 JUMP JUMPDEST POP PUSH1 0xA0 DUP3 ADD MLOAD PUSH1 0x5 DUP3 ADD SSTORE PUSH1 0xC0 DUP3 ADD MLOAD PUSH1 0x6 DUP3 ADD SSTORE PUSH1 0xE0 DUP3 ADD MLOAD PUSH1 0x7 DUP3 ADD SSTORE PUSH2 0x100 DUP1 DUP4 ADD MLOAD PUSH1 0x8 SWAP1 SWAP3 ADD DUP1 SLOAD PUSH2 0x120 DUP6 ADD MLOAD PUSH2 0x140 SWAP1 SWAP6 ADD MLOAD PUSH2 0xFFFF NOT SWAP1 SWAP2 AND SWAP4 ISZERO ISZERO PUSH2 0xFF00 NOT AND SWAP4 SWAP1 SWAP4 OR SWAP4 ISZERO ISZERO SWAP1 SWAP2 MUL SWAP3 SWAP1 SWAP3 OR PUSH3 0xFF0000 NOT AND PUSH3 0x10000 SWAP2 ISZERO ISZERO SWAP2 SWAP1 SWAP2 MUL OR SWAP1 SSTORE POP POP JUMP JUMPDEST PUSH1 0x1B SLOAD PUSH1 0x0 PUSH2 0x3DF5 DUP4 PUSH2 0x261A JUMP JUMPDEST SWAP1 POP PUSH1 0x0 PUSH2 0x3E02 DUP6 PUSH2 0x1DC4 JUMP JUMPDEST SWAP1 POP PUSH2 0x3E48 PUSH1 0x40 MLOAD DUP1 PUSH1 0xC0 ADD PUSH1 0x40 MSTORE DUP1 PUSH1 0x0 DUP2 MSTORE PUSH1 0x20 ADD PUSH1 0x0 DUP2 MSTORE PUSH1 0x20 ADD PUSH1 0x0 PUSH1 0x1 PUSH1 0x1 PUSH1 0xA0 SHL SUB AND DUP2 MSTORE PUSH1 0x20 ADD PUSH1 0x0 DUP2 MSTORE PUSH1 0x20 ADD PUSH1 0x0 DUP2 MSTORE PUSH1 0x20 ADD PUSH1 0x0 ISZERO ISZERO DUP2 MSTORE POP SWAP1 JUMP JUMPDEST DUP4 DUP2 MSTORE DUP3 MLOAD PUSH1 0x20 DUP1 DUP4 ADD SWAP2 DUP3 MSTORE DUP1 DUP6 ADD MLOAD PUSH1 0x1 PUSH1 0x1 PUSH1 0xA0 SHL SUB SWAP1 DUP2 AND PUSH1 0x40 DUP1 DUP7 ADD SWAP2 DUP3 MSTORE PUSH1 0x60 DUP7 ADD DUP12 DUP2 MSTORE PUSH1 0x80 DUP8 ADD DUP9 DUP2 MSTORE PUSH1 0x1 PUSH1 0xA0 DUP10 ADD DUP2 DUP2 MSTORE DUP14 DUP8 AND PUSH1 0x0 DUP2 DUP2 MSTORE PUSH1 0x11 DUP11 MSTORE DUP7 DUP2 KECCAK256 DUP1 SLOAD DUP1 DUP7 ADD DUP3 SSTORE SWAP1 DUP3 MSTORE SWAP10 SWAP1 KECCAK256 DUP12 MLOAD PUSH1 0x6 SWAP1 SWAP11 MUL ADD SWAP9 DUP10 SSTORE SWAP9 MLOAD DUP9 DUP4 ADD SSTORE SWAP5 MLOAD PUSH1 0x2 DUP9 ADD DUP1 SLOAD PUSH1 0x1 PUSH1 0x1 PUSH1 0xA0 SHL SUB NOT AND SWAP2 DUP9 AND SWAP2 SWAP1 SWAP2 OR SWAP1 SSTORE SWAP2 MLOAD PUSH1 0x3 DUP8 ADD SSTORE MLOAD PUSH1 0x4 DUP1 DUP8 ADD SWAP2 SWAP1 SWAP2 SSTORE SWAP3 MLOAD PUSH1 0x5 SWAP1 SWAP6 ADD DUP1 SLOAD PUSH1 0xFF NOT AND SWAP6 ISZERO ISZERO SWAP6 SWAP1 SWAP6 OR SWAP1 SWAP5 SSTORE SWAP3 SLOAD SWAP3 MLOAD PUSH4 0xA9059CBB PUSH1 0xE0 SHL DUP2 MSTORE SWAP1 DUP2 ADD SWAP4 SWAP1 SWAP4 MSTORE PUSH1 0x24 DUP4 ADD DUP6 SWAP1 MSTORE AND SWAP1 PUSH4 0xA9059CBB SWAP1 PUSH1 0x44 ADD PUSH1 0x20 PUSH1 0x40 MLOAD DUP1 DUP4 SUB DUP2 PUSH1 0x0 DUP8 GAS CALL ISZERO DUP1 ISZERO PUSH2 0x3F39 JUMPI RETURNDATASIZE PUSH1 0x0 DUP1 RETURNDATACOPY RETURNDATASIZE PUSH1 0x0 REVERT JUMPDEST POP POP POP POP PUSH1 0x40 MLOAD RETURNDATASIZE PUSH1 0x1F NOT PUSH1 0x1F DUP3 ADD AND DUP3 ADD DUP1 PUSH1 0x40 MSTORE POP DUP2 ADD SWAP1 PUSH2 0x3F5D SWAP2 SWAP1 PUSH2 0x518F JUMP JUMPDEST POP PUSH1 0x1B DUP1 SLOAD SWAP1 PUSH1 0x0 PUSH2 0x1DB7 DUP4 PUSH2 0x513E JUMP JUMPDEST PUSH1 0x0 PUSH2 0x3F79 DUP3 PUSH2 0x2113 JUMP JUMPDEST PUSH1 0x1 PUSH2 0x120 DUP3 ADD MSTORE PUSH1 0x5 DUP1 SLOAD SWAP2 SWAP3 POP DUP3 SWAP2 DUP5 SWAP1 DUP2 LT PUSH2 0x3CFB JUMPI PUSH2 0x3CFB PUSH2 0x5157 JUMP JUMPDEST PUSH1 0x0 PUSH2 0x3FA5 DUP4 PUSH2 0x38B9 JUMP JUMPDEST SWAP1 POP PUSH1 0x0 PUSH2 0x3FB2 DUP5 PUSH2 0x23E4 JUMP JUMPDEST SWAP1 POP PUSH1 0x0 PUSH1 0x1A SLOAD SWAP1 POP PUSH2 0x4006 PUSH1 0x40 MLOAD DUP1 PUSH1 0xE0 ADD PUSH1 0x40 MSTORE DUP1 PUSH1 0x0 DUP2 MSTORE PUSH1 0x20 ADD PUSH1 0x0 DUP2 MSTORE PUSH1 0x20 ADD PUSH1 0x0 DUP2 MSTORE PUSH1 0x20 ADD PUSH1 0x0 DUP2 MSTORE PUSH1 0x20 ADD PUSH1 0x0 PUSH1 0x1 PUSH1 0x1 PUSH1 0xA0 SHL SUB AND DUP2 MSTORE PUSH1 0x20 ADD PUSH1 0x0 DUP2 MSTORE PUSH1 0x20 ADD PUSH1 0x0 ISZERO ISZERO DUP2 MSTORE POP SWAP1 JUMP JUMPDEST DUP2 DUP2 MSTORE PUSH1 0x20 DUP2 ADD DUP7 DUP2 MSTORE PUSH1 0x60 DUP3 ADD DUP7 DUP2 MSTORE PUSH1 0x40 DUP7 DUP2 ADD DUP1 MLOAD PUSH1 0x1 PUSH1 0x1 PUSH1 0xA0 SHL SUB SWAP1 DUP2 AND PUSH1 0x80 DUP8 ADD SWAP1 DUP2 MSTORE PUSH1 0xA0 DUP8 ADD DUP10 DUP2 MSTORE PUSH1 0x1 PUSH1 0xC0 DUP10 ADD DUP2 DUP2 MSTORE PUSH1 0x10 DUP1 SLOAD DUP1 DUP5 ADD DUP3 SSTORE PUSH1 0x0 SWAP2 SWAP1 SWAP2 MSTORE DUP11 MLOAD PUSH32 0x1B6847DC741A1B0CD08D278845F9D819D87B734759AFB55FE2DE5CB82A9AE672 PUSH1 0x7 SWAP1 SWAP3 MUL SWAP2 DUP3 ADD SSTORE SWAP9 MLOAD PUSH32 0x1B6847DC741A1B0CD08D278845F9D819D87B734759AFB55FE2DE5CB82A9AE673 DUP11 ADD SSTORE DUP7 DUP11 ADD MLOAD PUSH32 0x1B6847DC741A1B0CD08D278845F9D819D87B734759AFB55FE2DE5CB82A9AE674 DUP11 ADD SSTORE SWAP7 MLOAD PUSH32 0x1B6847DC741A1B0CD08D278845F9D819D87B734759AFB55FE2DE5CB82A9AE675 DUP10 ADD SSTORE SWAP2 MLOAD PUSH32 0x1B6847DC741A1B0CD08D278845F9D819D87B734759AFB55FE2DE5CB82A9AE676 DUP9 ADD DUP1 SLOAD PUSH1 0x1 PUSH1 0x1 PUSH1 0xA0 SHL SUB NOT AND SWAP2 DUP6 AND SWAP2 SWAP1 SWAP2 OR SWAP1 SSTORE MLOAD PUSH32 0x1B6847DC741A1B0CD08D278845F9D819D87B734759AFB55FE2DE5CB82A9AE677 DUP8 ADD SSTORE SWAP4 MLOAD PUSH32 0x1B6847DC741A1B0CD08D278845F9D819D87B734759AFB55FE2DE5CB82A9AE678 SWAP1 SWAP6 ADD DUP1 SLOAD PUSH1 0xFF NOT AND SWAP6 ISZERO ISZERO SWAP6 SWAP1 SWAP6 OR SWAP1 SWAP5 SSTORE SWAP2 SLOAD SWAP2 MLOAD SWAP1 MLOAD PUSH4 0xA9059CBB PUSH1 0xE0 SHL DUP2 MSTORE SWAP1 DUP4 AND PUSH1 0x4 DUP3 ADD MSTORE PUSH1 0x24 DUP2 ADD DUP7 SWAP1 MSTORE SWAP2 AND SWAP1 PUSH4 0xA9059CBB SWAP1 PUSH1 0x44 ADD PUSH1 0x20 PUSH1 0x40 MLOAD DUP1 DUP4 SUB DUP2 PUSH1 0x0 DUP8 GAS CALL ISZERO DUP1 ISZERO PUSH2 0x41CE JUMPI RETURNDATASIZE PUSH1 0x0 DUP1 RETURNDATACOPY RETURNDATASIZE PUSH1 0x0 REVERT JUMPDEST POP POP POP POP PUSH1 0x40 MLOAD RETURNDATASIZE PUSH1 0x1F NOT PUSH1 0x1F DUP3 ADD AND DUP3 ADD DUP1 PUSH1 0x40 MSTORE POP DUP2 ADD SWAP1 PUSH2 0x41F2 SWAP2 SWAP1 PUSH2 0x518F JUMP JUMPDEST POP PUSH1 0x1A DUP1 SLOAD SWAP1 PUSH1 0x0 PUSH2 0x1DB7 DUP4 PUSH2 0x513E JUMP JUMPDEST PUSH1 0x0 PUSH2 0x420E DUP3 PUSH2 0x3969 JUMP JUMPDEST PUSH1 0x1 SLOAD PUSH1 0x0 SLOAD PUSH1 0x40 MLOAD PUSH4 0xA9059CBB PUSH1 0xE0 SHL DUP2 MSTORE PUSH1 0x1 PUSH1 0x1 PUSH1 0xA0 SHL SUB SWAP2 DUP3 AND PUSH1 0x4 DUP3 ADD MSTORE PUSH1 0x24 DUP2 ADD DUP5 SWAP1 MSTORE SWAP3 SWAP4 POP AND SWAP1 PUSH4 0xA9059CBB SWAP1 PUSH1 0x44 ADD PUSH1 0x20 PUSH1 0x40 MLOAD DUP1 DUP4 SUB DUP2 PUSH1 0x0 DUP8 GAS CALL ISZERO DUP1 ISZERO PUSH2 0x4265 JUMPI RETURNDATASIZE PUSH1 0x0 DUP1 RETURNDATACOPY RETURNDATASIZE PUSH1 0x0 REVERT JUMPDEST POP POP POP POP PUSH1 0x40 MLOAD RETURNDATASIZE PUSH1 0x1F NOT PUSH1 0x1F DUP3 ADD AND DUP3 ADD DUP1 PUSH1 0x40 MSTORE POP DUP2 ADD SWAP1 PUSH2 0x186A SWAP2 SWAP1 PUSH2 0x518F JUMP JUMPDEST PUSH1 0x40 MLOAD DUP1 PUSH2 0x160 ADD PUSH1 0x40 MSTORE DUP1 PUSH1 0x0 DUP2 MSTORE PUSH1 0x20 ADD PUSH1 0x0 DUP2 MSTORE PUSH1 0x20 ADD PUSH1 0x0 PUSH1 0x1 PUSH1 0x1 PUSH1 0xA0 SHL SUB AND DUP2 MSTORE PUSH1 0x20 ADD PUSH1 0x60 DUP2 MSTORE PUSH1 0x20 ADD PUSH1 0x60 DUP2 MSTORE PUSH1 0x20 ADD PUSH1 0x0 DUP2 MSTORE PUSH1 0x20 ADD PUSH1 0x0 DUP2 MSTORE PUSH1 0x20 ADD PUSH1 0x0 DUP2 MSTORE PUSH1 0x20 ADD PUSH1 0x0 ISZERO ISZERO DUP2 MSTORE PUSH1 0x20 ADD PUSH1 0x0 ISZERO ISZERO DUP2 MSTORE PUSH1 0x20 ADD PUSH1 0x0 ISZERO ISZERO DUP2 MSTORE POP SWAP1 JUMP JUMPDEST DUP3 DUP1 SLOAD PUSH2 0x42FE SWAP1 PUSH2 0x50B7 JUMP JUMPDEST SWAP1 PUSH1 0x0 MSTORE PUSH1 0x20 PUSH1 0x0 KECCAK256 SWAP1 PUSH1 0x1F ADD PUSH1 0x20 SWAP1 DIV DUP2 ADD SWAP3 DUP3 PUSH2 0x4320 JUMPI PUSH1 0x0 DUP6 SSTORE PUSH2 0x4366 JUMP JUMPDEST DUP3 PUSH1 0x1F LT PUSH2 0x4339 JUMPI DUP1 MLOAD PUSH1 0xFF NOT AND DUP4 DUP1 ADD OR DUP6 SSTORE PUSH2 0x4366 JUMP JUMPDEST DUP3 DUP1 ADD PUSH1 0x1 ADD DUP6 SSTORE DUP3 ISZERO PUSH2 0x4366 JUMPI SWAP2 DUP3 ADD JUMPDEST DUP3 DUP2 GT ISZERO PUSH2 0x4366 JUMPI DUP3 MLOAD DUP3 SSTORE SWAP2 PUSH1 0x20 ADD SWAP2 SWAP1 PUSH1 0x1 ADD SWAP1 PUSH2 0x434B JUMP JUMPDEST POP PUSH2 0x4372 SWAP3 SWAP2 POP PUSH2 0x450D JUMP JUMPDEST POP SWAP1 JUMP JUMPDEST PUSH1 0x40 MLOAD DUP1 PUSH1 0xE0 ADD PUSH1 0x40 MSTORE DUP1 PUSH1 0x0 DUP2 MSTORE PUSH1 0x20 ADD PUSH1 0x0 DUP2 MSTORE PUSH1 0x20 ADD PUSH1 0x0 PUSH1 0x1 PUSH1 0x1 PUSH1 0xA0 SHL SUB AND DUP2 MSTORE PUSH1 0x20 ADD PUSH1 0x0 DUP2 MSTORE PUSH1 0x20 ADD PUSH1 0x60 DUP2 MSTORE PUSH1 0x20 ADD PUSH1 0x0 ISZERO ISZERO DUP2 MSTORE PUSH1 0x20 ADD PUSH1 0x0 ISZERO ISZERO DUP2 MSTORE POP SWAP1 JUMP JUMPDEST PUSH1 0x40 MLOAD DUP1 PUSH2 0x100 ADD PUSH1 0x40 MSTORE DUP1 PUSH1 0x0 DUP2 MSTORE PUSH1 0x20 ADD PUSH1 0x0 DUP2 MSTORE PUSH1 0x20 ADD PUSH1 0x0 PUSH1 0x1 PUSH1 0x1 PUSH1 0xA0 SHL SUB AND DUP2 MSTORE PUSH1 0x20 ADD PUSH1 0x60 DUP2 MSTORE PUSH1 0x20 ADD PUSH1 0x60 DUP2 MSTORE PUSH1 0x20 ADD PUSH1 0x60 DUP2 MSTORE PUSH1 0x20 ADD PUSH1 0x60 DUP2 MSTORE PUSH1 0x20 ADD PUSH1 0x0 ISZERO ISZERO DUP2 MSTORE POP SWAP1 JUMP JUMPDEST PUSH1 0x40 MLOAD DUP1 PUSH1 0xC0 ADD PUSH1 0x40 MSTORE DUP1 PUSH1 0x0 DUP2 MSTORE PUSH1 0x20 ADD PUSH1 0x0 PUSH1 0x1 PUSH1 0x1 PUSH1 0xA0 SHL SUB AND DUP2 MSTORE PUSH1 0x20 ADD PUSH1 0x60 DUP2 MSTORE PUSH1 0x20 ADD PUSH1 0x60 DUP2 MSTORE PUSH1 0x20 ADD PUSH1 0x60 DUP2 MSTORE PUSH1 0x20 ADD PUSH1 0x0 ISZERO ISZERO DUP2 MSTORE POP SWAP1 JUMP JUMPDEST PUSH1 0x40 MLOAD DUP1 PUSH1 0xC0 ADD PUSH1 0x40 MSTORE DUP1 PUSH1 0x0 DUP2 MSTORE PUSH1 0x20 ADD PUSH1 0x0 DUP2 MSTORE PUSH1 0x20 ADD PUSH1 0x0 DUP2 MSTORE PUSH1 0x20 ADD PUSH1 0x0 DUP2 MSTORE PUSH1 0x20 ADD PUSH1 0x0 ISZERO ISZERO DUP2 MSTORE PUSH1 0x20 ADD PUSH1 0x0 ISZERO ISZERO DUP2 MSTORE POP SWAP1 JUMP JUMPDEST PUSH1 0x40 MLOAD DUP1 PUSH1 0xC0 ADD PUSH1 0x40 MSTORE DUP1 PUSH1 0x0 DUP2 MSTORE PUSH1 0x20 ADD PUSH1 0x0 PUSH1 0x1 PUSH1 0x1 PUSH1 0xA0 SHL SUB AND DUP2 MSTORE PUSH1 0x20 ADD PUSH1 0x60 DUP2 MSTORE PUSH1 0x20 ADD PUSH1 0x60 DUP2 MSTORE PUSH1 0x20 ADD PUSH1 0x0 DUP2 MSTORE PUSH1 0x20 ADD PUSH1 0x0 ISZERO ISZERO DUP2 MSTORE POP SWAP1 JUMP JUMPDEST PUSH1 0x40 MLOAD DUP1 PUSH1 0xC0 ADD PUSH1 0x40 MSTORE DUP1 PUSH1 0x0 DUP2 MSTORE PUSH1 0x20 ADD PUSH1 0x0 DUP2 MSTORE PUSH1 0x20 ADD PUSH1 0x0 DUP2 MSTORE PUSH1 0x20 ADD PUSH1 0x0 PUSH1 0x1 PUSH1 0x1 PUSH1 0xA0 SHL SUB AND DUP2 MSTORE PUSH1 0x20 ADD PUSH1 0x0 DUP2 MSTORE PUSH1 0x20 ADD PUSH1 0x0 ISZERO ISZERO DUP2 MSTORE POP SWAP1 JUMP JUMPDEST JUMPDEST DUP1 DUP3 GT ISZERO PUSH2 0x4372 JUMPI PUSH1 0x0 DUP2 SSTORE PUSH1 0x1 ADD PUSH2 0x450E JUMP JUMPDEST PUSH1 0x0 PUSH1 0x20 DUP3 DUP5 SUB SLT ISZERO PUSH2 0x4534 JUMPI PUSH1 0x0 DUP1 REVERT JUMPDEST POP CALLDATALOAD SWAP2 SWAP1 POP JUMP JUMPDEST PUSH1 0x0 DUP2 MLOAD DUP1 DUP5 MSTORE PUSH1 0x0 JUMPDEST DUP2 DUP2 LT ISZERO PUSH2 0x4561 JUMPI PUSH1 0x20 DUP2 DUP6 ADD DUP2 ADD MLOAD DUP7 DUP4 ADD DUP3 ADD MSTORE ADD PUSH2 0x4545 JUMP JUMPDEST DUP2 DUP2 GT ISZERO PUSH2 0x4573 JUMPI PUSH1 0x0 PUSH1 0x20 DUP4 DUP8 ADD ADD MSTORE JUMPDEST POP PUSH1 0x1F ADD PUSH1 0x1F NOT AND SWAP3 SWAP1 SWAP3 ADD PUSH1 0x20 ADD SWAP3 SWAP2 POP POP JUMP JUMPDEST DUP12 DUP2 MSTORE PUSH1 0x20 DUP2 ADD DUP12 SWAP1 MSTORE PUSH1 0x1 PUSH1 0x1 PUSH1 0xA0 SHL SUB DUP11 AND PUSH1 0x40 DUP3 ADD MSTORE PUSH2 0x160 PUSH1 0x60 DUP3 ADD DUP2 SWAP1 MSTORE PUSH1 0x0 SWAP1 PUSH2 0x45BA DUP4 DUP3 ADD DUP13 PUSH2 0x453B JUMP JUMPDEST SWAP1 POP DUP3 DUP2 SUB PUSH1 0x80 DUP5 ADD MSTORE PUSH2 0x45CE DUP2 DUP12 PUSH2 0x453B JUMP JUMPDEST PUSH1 0xA0 DUP5 ADD SWAP10 SWAP1 SWAP10 MSTORE POP POP PUSH1 0xC0 DUP2 ADD SWAP6 SWAP1 SWAP6 MSTORE PUSH1 0xE0 DUP6 ADD SWAP4 SWAP1 SWAP4 MSTORE SWAP1 ISZERO ISZERO PUSH2 0x100 DUP5 ADD MSTORE ISZERO ISZERO PUSH2 0x120 DUP4 ADD MSTORE ISZERO ISZERO PUSH2 0x140 SWAP1 SWAP2 ADD MSTORE SWAP6 SWAP5 POP POP POP POP POP JUMP JUMPDEST DUP1 CALLDATALOAD PUSH1 0x1 PUSH1 0x1 PUSH1 0xA0 SHL SUB DUP2 AND DUP2 EQ PUSH2 0x4622 JUMPI PUSH1 0x0 DUP1 REVERT JUMPDEST SWAP2 SWAP1 POP JUMP JUMPDEST PUSH1 0x0 PUSH1 0x20 DUP3 DUP5 SUB SLT ISZERO PUSH2 0x4639 JUMPI PUSH1 0x0 DUP1 REVERT JUMPDEST PUSH2 0x1DFE DUP3 PUSH2 0x460B JUMP JUMPDEST PUSH4 0x4E487B71 PUSH1 0xE0 SHL PUSH1 0x0 MSTORE PUSH1 0x41 PUSH1 0x4 MSTORE PUSH1 0x24 PUSH1 0x0 REVERT JUMPDEST PUSH1 0x0 DUP3 PUSH1 0x1F DUP4 ADD SLT PUSH2 0x4669 JUMPI PUSH1 0x0 DUP1 REVERT JUMPDEST DUP2 CALLDATALOAD PUSH8 0xFFFFFFFFFFFFFFFF DUP1 DUP3 GT ISZERO PUSH2 0x4684 JUMPI PUSH2 0x4684 PUSH2 0x4642 JUMP JUMPDEST PUSH1 0x40 MLOAD PUSH1 0x1F DUP4 ADD PUSH1 0x1F NOT SWAP1 DUP2 AND PUSH1 0x3F ADD AND DUP2 ADD SWAP1 DUP3 DUP3 GT DUP2 DUP4 LT OR ISZERO PUSH2 0x46AC JUMPI PUSH2 0x46AC PUSH2 0x4642 JUMP JUMPDEST DUP2 PUSH1 0x40 MSTORE DUP4 DUP2 MSTORE DUP7 PUSH1 0x20 DUP6 DUP9 ADD ADD GT ISZERO PUSH2 0x46C5 JUMPI PUSH1 0x0 DUP1 REVERT JUMPDEST DUP4 PUSH1 0x20 DUP8 ADD PUSH1 0x20 DUP4 ADD CALLDATACOPY PUSH1 0x0 PUSH1 0x20 DUP6 DUP4 ADD ADD MSTORE DUP1 SWAP5 POP POP POP POP POP SWAP3 SWAP2 POP POP JUMP JUMPDEST PUSH1 0x0 DUP1 PUSH1 0x0 DUP1 PUSH1 0x0 DUP1 PUSH1 0x0 PUSH1 0xE0 DUP9 DUP11 SUB SLT ISZERO PUSH2 0x4700 JUMPI PUSH1 0x0 DUP1 REVERT JUMPDEST DUP8 CALLDATALOAD SWAP7 POP PUSH2 0x4710 PUSH1 0x20 DUP10 ADD PUSH2 0x460B JUMP JUMPDEST SWAP6 POP PUSH1 0x40 DUP9 ADD CALLDATALOAD PUSH8 0xFFFFFFFFFFFFFFFF DUP1 DUP3 GT ISZERO PUSH2 0x472D JUMPI PUSH1 0x0 DUP1 REVERT JUMPDEST PUSH2 0x4739 DUP12 DUP4 DUP13 ADD PUSH2 0x4658 JUMP JUMPDEST SWAP7 POP PUSH1 0x60 DUP11 ADD CALLDATALOAD SWAP2 POP DUP1 DUP3 GT ISZERO PUSH2 0x474F JUMPI PUSH1 0x0 DUP1 REVERT JUMPDEST POP PUSH2 0x475C DUP11 DUP3 DUP12 ADD PUSH2 0x4658 JUMP JUMPDEST SWAP8 SWAP11 SWAP7 SWAP10 POP SWAP5 SWAP8 PUSH1 0x80 DUP2 ADD CALLDATALOAD SWAP7 PUSH1 0xA0 DUP3 ADD CALLDATALOAD SWAP7 POP PUSH1 0xC0 SWAP1 SWAP2 ADD CALLDATALOAD SWAP5 POP SWAP3 POP POP POP JUMP JUMPDEST PUSH1 0x0 DUP1 PUSH1 0x0 DUP1 PUSH1 0x80 DUP6 DUP8 SUB SLT ISZERO PUSH2 0x4794 JUMPI PUSH1 0x0 DUP1 REVERT JUMPDEST DUP5 CALLDATALOAD SWAP4 POP PUSH1 0x20 DUP6 ADD CALLDATALOAD SWAP3 POP PUSH2 0x47AB PUSH1 0x40 DUP7 ADD PUSH2 0x460B JUMP JUMPDEST SWAP2 POP PUSH1 0x60 DUP6 ADD CALLDATALOAD PUSH8 0xFFFFFFFFFFFFFFFF DUP2 GT ISZERO PUSH2 0x47C7 JUMPI PUSH1 0x0 DUP1 REVERT JUMPDEST PUSH2 0x47D3 DUP8 DUP3 DUP9 ADD PUSH2 0x4658 JUMP JUMPDEST SWAP2 POP POP SWAP3 SWAP6 SWAP2 SWAP5 POP SWAP3 POP JUMP JUMPDEST DUP1 MLOAD DUP3 MSTORE PUSH1 0x20 DUP2 ADD MLOAD PUSH1 0x20 DUP4 ADD MSTORE PUSH1 0x1 DUP1 PUSH1 0xA0 SHL SUB PUSH1 0x40 DUP3 ADD MLOAD AND PUSH1 0x40 DUP4 ADD MSTORE PUSH1 0x60 DUP2 ADD MLOAD PUSH1 0x60 DUP4 ADD MSTORE PUSH1 0x0 PUSH1 0x80 DUP3 ADD MLOAD PUSH1 0xE0 PUSH1 0x80 DUP6 ADD MSTORE PUSH2 0x4824 PUSH1 0xE0 DUP6 ADD DUP3 PUSH2 0x453B JUMP JUMPDEST SWAP1 POP PUSH1 0xA0 DUP4 ADD MLOAD ISZERO ISZERO PUSH1 0xA0 DUP6 ADD MSTORE PUSH1 0xC0 DUP4 ADD MLOAD ISZERO ISZERO PUSH1 0xC0 DUP6 ADD MSTORE DUP1 SWAP2 POP POP SWAP3 SWAP2 POP POP JUMP JUMPDEST PUSH1 0x20 DUP2 MSTORE PUSH1 0x0 PUSH2 0x1DFE PUSH1 0x20 DUP4 ADD DUP5 PUSH2 0x47DF JUMP JUMPDEST PUSH1 0x0 DUP1 PUSH1 0x40 DUP4 DUP6 SUB SLT ISZERO PUSH2 0x486E JUMPI PUSH1 0x0 DUP1 REVERT JUMPDEST DUP3 CALLDATALOAD SWAP2 POP PUSH2 0x487E PUSH1 0x20 DUP5 ADD PUSH2 0x460B JUMP JUMPDEST SWAP1 POP SWAP3 POP SWAP3 SWAP1 POP JUMP JUMPDEST PUSH1 0x0 DUP1 PUSH1 0x40 DUP4 DUP6 SUB SLT ISZERO PUSH2 0x489A JUMPI PUSH1 0x0 DUP1 REVERT JUMPDEST PUSH2 0x48A3 DUP4 PUSH2 0x460B JUMP JUMPDEST SWAP5 PUSH1 0x20 SWAP4 SWAP1 SWAP4 ADD CALLDATALOAD SWAP4 POP POP POP JUMP JUMPDEST PUSH1 0x0 PUSH2 0x160 DUP3 MLOAD DUP5 MSTORE PUSH1 0x20 DUP4 ADD MLOAD PUSH1 0x20 DUP6 ADD MSTORE PUSH1 0x40 DUP4 ADD MLOAD PUSH2 0x48DE PUSH1 0x40 DUP7 ADD DUP3 PUSH1 0x1 PUSH1 0x1 PUSH1 0xA0 SHL SUB AND SWAP1 MSTORE JUMP JUMPDEST POP PUSH1 0x60 DUP4 ADD MLOAD DUP2 PUSH1 0x60 DUP7 ADD MSTORE PUSH2 0x48F6 DUP3 DUP7 ADD DUP3 PUSH2 0x453B JUMP JUMPDEST SWAP2 POP POP PUSH1 0x80 DUP4 ADD MLOAD DUP5 DUP3 SUB PUSH1 0x80 DUP7 ADD MSTORE PUSH2 0x4910 DUP3 DUP3 PUSH2 0x453B JUMP JUMPDEST SWAP2 POP POP PUSH1 0xA0 DUP4 ADD MLOAD PUSH1 0xA0 DUP6 ADD MSTORE PUSH1 0xC0 DUP4 ADD MLOAD PUSH1 0xC0 DUP6 ADD MSTORE PUSH1 0xE0 DUP4 ADD MLOAD PUSH1 0xE0 DUP6 ADD MSTORE PUSH2 0x100 DUP1 DUP5 ADD MLOAD PUSH2 0x4945 DUP3 DUP8 ADD DUP3 ISZERO ISZERO SWAP1 MSTORE JUMP JUMPDEST POP POP PUSH2 0x120 DUP4 DUP2 ADD MLOAD ISZERO ISZERO SWAP1 DUP6 ADD MSTORE PUSH2 0x140 DUP1 DUP5 ADD MLOAD DUP1 ISZERO ISZERO DUP3 DUP8 ADD MSTORE PUSH2 0x1ED9 JUMP JUMPDEST PUSH1 0x0 PUSH1 0x20 DUP1 DUP4 ADD DUP2 DUP5 MSTORE DUP1 DUP6 MLOAD DUP1 DUP4 MSTORE PUSH1 0x40 DUP7 ADD SWAP2 POP PUSH1 0x40 DUP2 PUSH1 0x5 SHL DUP8 ADD ADD SWAP3 POP DUP4 DUP8 ADD PUSH1 0x0 JUMPDEST DUP3 DUP2 LT ISZERO PUSH2 0x49BC JUMPI PUSH1 0x3F NOT DUP9 DUP7 SUB ADD DUP5 MSTORE PUSH2 0x49AA DUP6 DUP4 MLOAD PUSH2 0x48B1 JUMP JUMPDEST SWAP5 POP SWAP3 DUP6 ADD SWAP3 SWAP1 DUP6 ADD SWAP1 PUSH1 0x1 ADD PUSH2 0x498E JUMP JUMPDEST POP SWAP3 SWAP8 SWAP7 POP POP POP POP POP POP POP JUMP JUMPDEST PUSH1 0x0 DUP1 PUSH1 0x40 DUP4 DUP6 SUB SLT ISZERO PUSH2 0x49DC JUMPI PUSH1 0x0 DUP1 REVERT JUMPDEST POP POP DUP1 CALLDATALOAD SWAP3 PUSH1 0x20 SWAP1 SWAP2 ADD CALLDATALOAD SWAP2 POP JUMP JUMPDEST DUP7 DUP2 MSTORE PUSH1 0x1 PUSH1 0x1 PUSH1 0xA0 SHL SUB DUP7 AND PUSH1 0x20 DUP3 ADD MSTORE PUSH1 0xC0 PUSH1 0x40 DUP3 ADD DUP2 SWAP1 MSTORE PUSH1 0x0 SWAP1 PUSH2 0x4A15 SWAP1 DUP4 ADD DUP8 PUSH2 0x453B JUMP JUMPDEST DUP3 DUP2 SUB PUSH1 0x60 DUP5 ADD MSTORE PUSH2 0x4A27 DUP2 DUP8 PUSH2 0x453B JUMP JUMPDEST PUSH1 0x80 DUP5 ADD SWAP6 SWAP1 SWAP6 MSTORE POP POP SWAP1 ISZERO ISZERO PUSH1 0xA0 SWAP1 SWAP2 ADD MSTORE SWAP5 SWAP4 POP POP POP POP JUMP JUMPDEST PUSH1 0x0 PUSH2 0x100 DUP3 MLOAD DUP5 MSTORE PUSH1 0x20 DUP4 ADD MLOAD PUSH1 0x20 DUP6 ADD MSTORE PUSH1 0x40 DUP4 ADD MLOAD PUSH2 0x4A6F PUSH1 0x40 DUP7 ADD DUP3 PUSH1 0x1 PUSH1 0x1 PUSH1 0xA0 SHL SUB AND SWAP1 MSTORE JUMP JUMPDEST POP PUSH1 0x60 DUP4 ADD MLOAD DUP2 PUSH1 0x60 DUP7 ADD MSTORE PUSH2 0x4A87 DUP3 DUP7 ADD DUP3 PUSH2 0x453B JUMP JUMPDEST SWAP2 POP POP PUSH1 0x80 DUP4 ADD MLOAD DUP5 DUP3 SUB PUSH1 0x80 DUP7 ADD MSTORE PUSH2 0x4AA1 DUP3 DUP3 PUSH2 0x453B JUMP JUMPDEST SWAP2 POP POP PUSH1 0xA0 DUP4 ADD MLOAD DUP5 DUP3 SUB PUSH1 0xA0 DUP7 ADD MSTORE PUSH2 0x4ABB DUP3 DUP3 PUSH2 0x453B JUMP JUMPDEST SWAP2 POP POP PUSH1 0xC0 DUP4 ADD MLOAD DUP5 DUP3 SUB PUSH1 0xC0 DUP7 ADD MSTORE PUSH2 0x4AD5 DUP3 DUP3 PUSH2 0x453B JUMP JUMPDEST SWAP2 POP POP PUSH1 0xE0 DUP4 ADD MLOAD PUSH2 0x32F4 PUSH1 0xE0 DUP7 ADD DUP3 ISZERO ISZERO SWAP1 MSTORE JUMP JUMPDEST PUSH1 0x20 DUP2 MSTORE PUSH1 0x0 PUSH2 0x1DFE PUSH1 0x20 DUP4 ADD DUP5 PUSH2 0x4A42 JUMP JUMPDEST PUSH1 0x0 DUP1 PUSH1 0x0 DUP1 PUSH1 0x80 DUP6 DUP8 SUB SLT ISZERO PUSH2 0x4B14 JUMPI PUSH1 0x0 DUP1 REVERT JUMPDEST PUSH2 0x4B1D DUP6 PUSH2 0x460B JUMP JUMPDEST SWAP4 POP PUSH1 0x20 DUP6 ADD CALLDATALOAD PUSH8 0xFFFFFFFFFFFFFFFF DUP1 DUP3 GT ISZERO PUSH2 0x4B3A JUMPI PUSH1 0x0 DUP1 REVERT JUMPDEST PUSH2 0x4B46 DUP9 DUP4 DUP10 ADD PUSH2 0x4658 JUMP JUMPDEST SWAP5 POP PUSH1 0x40 DUP8 ADD CALLDATALOAD SWAP2 POP DUP1 DUP3 GT ISZERO PUSH2 0x4B5C JUMPI PUSH1 0x0 DUP1 REVERT JUMPDEST PUSH2 0x4B68 DUP9 DUP4 DUP10 ADD PUSH2 0x4658 JUMP JUMPDEST SWAP4 POP PUSH1 0x60 DUP8 ADD CALLDATALOAD SWAP2 POP DUP1 DUP3 GT ISZERO PUSH2 0x4B7E JUMPI PUSH1 0x0 DUP1 REVERT JUMPDEST POP PUSH2 0x47D3 DUP8 DUP3 DUP9 ADD PUSH2 0x4658 JUMP JUMPDEST PUSH1 0x0 PUSH1 0x20 DUP1 DUP4 ADD DUP2 DUP5 MSTORE DUP1 DUP6 MLOAD DUP1 DUP4 MSTORE PUSH1 0x40 DUP7 ADD SWAP2 POP PUSH1 0x40 DUP2 PUSH1 0x5 SHL DUP8 ADD ADD SWAP3 POP DUP4 DUP8 ADD PUSH1 0x0 JUMPDEST DUP3 DUP2 LT ISZERO PUSH2 0x49BC JUMPI PUSH1 0x3F NOT DUP9 DUP7 SUB ADD DUP5 MSTORE PUSH2 0x4BCE DUP6 DUP4 MLOAD PUSH2 0x47DF JUMP JUMPDEST SWAP5 POP SWAP3 DUP6 ADD SWAP3 SWAP1 DUP6 ADD SWAP1 PUSH1 0x1 ADD PUSH2 0x4BB2 JUMP JUMPDEST PUSH1 0x20 DUP2 MSTORE PUSH1 0x0 PUSH2 0x1DFE PUSH1 0x20 DUP4 ADD DUP5 PUSH2 0x48B1 JUMP JUMPDEST PUSH1 0x0 DUP1 PUSH1 0x0 PUSH1 0x60 DUP5 DUP7 SUB SLT ISZERO PUSH2 0x4C08 JUMPI PUSH1 0x0 DUP1 REVERT JUMPDEST PUSH2 0x4C11 DUP5 PUSH2 0x460B JUMP JUMPDEST SWAP3 POP PUSH1 0x20 DUP5 ADD CALLDATALOAD PUSH8 0xFFFFFFFFFFFFFFFF DUP1 DUP3 GT ISZERO PUSH2 0x4C2E JUMPI PUSH1 0x0 DUP1 REVERT JUMPDEST PUSH2 0x4C3A DUP8 DUP4 DUP9 ADD PUSH2 0x4658 JUMP JUMPDEST SWAP4 POP PUSH1 0x40 DUP7 ADD CALLDATALOAD SWAP2 POP DUP1 DUP3 GT ISZERO PUSH2 0x4C50 JUMPI PUSH1 0x0 DUP1 REVERT JUMPDEST POP PUSH2 0x4C5D DUP7 DUP3 DUP8 ADD PUSH2 0x4658 JUMP JUMPDEST SWAP2 POP POP SWAP3 POP SWAP3 POP SWAP3 JUMP JUMPDEST PUSH1 0x0 PUSH1 0x20 DUP1 DUP4 ADD DUP2 DUP5 MSTORE DUP1 DUP6 MLOAD DUP1 DUP4 MSTORE PUSH1 0x40 DUP7 ADD SWAP2 POP PUSH1 0x40 DUP2 PUSH1 0x5 SHL DUP8 ADD ADD SWAP3 POP DUP4 DUP8 ADD PUSH1 0x0 JUMPDEST DUP3 DUP2 LT ISZERO PUSH2 0x49BC JUMPI PUSH1 0x3F NOT DUP9 DUP7 SUB ADD DUP5 MSTORE PUSH2 0x4CAA DUP6 DUP4 MLOAD PUSH2 0x4A42 JUMP JUMPDEST SWAP5 POP SWAP3 DUP6 ADD SWAP3 SWAP1 DUP6 ADD SWAP1 PUSH1 0x1 ADD PUSH2 0x4C8E JUMP JUMPDEST PUSH1 0x20 DUP2 MSTORE DUP2 MLOAD PUSH1 0x20 DUP3 ADD MSTORE PUSH1 0x1 DUP1 PUSH1 0xA0 SHL SUB PUSH1 0x20 DUP4 ADD MLOAD AND PUSH1 0x40 DUP3 ADD MSTORE PUSH1 0x0 PUSH1 0x40 DUP4 ADD MLOAD PUSH1 0xC0 PUSH1 0x60 DUP5 ADD MSTORE PUSH2 0x4CF4 PUSH1 0xE0 DUP5 ADD DUP3 PUSH2 0x453B JUMP JUMPDEST SWAP1 POP PUSH1 0x60 DUP5 ADD MLOAD PUSH1 0x1F NOT DUP1 DUP6 DUP5 SUB ADD PUSH1 0x80 DUP7 ADD MSTORE PUSH2 0x4D12 DUP4 DUP4 PUSH2 0x453B JUMP JUMPDEST SWAP3 POP PUSH1 0x80 DUP7 ADD MLOAD SWAP2 POP DUP1 DUP6 DUP5 SUB ADD PUSH1 0xA0 DUP7 ADD MSTORE POP PUSH2 0x4D30 DUP3 DUP3 PUSH2 0x453B JUMP JUMPDEST SWAP2 POP POP PUSH1 0xA0 DUP5 ADD MLOAD ISZERO ISZERO PUSH1 0xC0 DUP5 ADD MSTORE DUP1 SWAP2 POP POP SWAP3 SWAP2 POP POP JUMP JUMPDEST DUP9 DUP2 MSTORE PUSH1 0x20 DUP2 ADD DUP9 SWAP1 MSTORE PUSH1 0x1 PUSH1 0x1 PUSH1 0xA0 SHL SUB DUP8 AND PUSH1 0x40 DUP3 ADD MSTORE PUSH2 0x100 PUSH1 0x60 DUP3 ADD DUP2 SWAP1 MSTORE PUSH1 0x0 SWAP1 PUSH2 0x4D7B DUP4 DUP3 ADD DUP10 PUSH2 0x453B JUMP JUMPDEST SWAP1 POP DUP3 DUP2 SUB PUSH1 0x80 DUP5 ADD MSTORE PUSH2 0x4D8F DUP2 DUP9 PUSH2 0x453B JUMP JUMPDEST SWAP1 POP DUP3 DUP2 SUB PUSH1 0xA0 DUP5 ADD MSTORE PUSH2 0x4DA3 DUP2 DUP8 PUSH2 0x453B JUMP JUMPDEST SWAP1 POP DUP3 DUP2 SUB PUSH1 0xC0 DUP5 ADD MSTORE PUSH2 0x4DB7 DUP2 DUP7 PUSH2 0x453B JUMP JUMPDEST SWAP2 POP POP DUP3 ISZERO ISZERO PUSH1 0xE0 DUP4 ADD MSTORE SWAP10 SWAP9 POP POP POP POP POP POP POP POP POP JUMP JUMPDEST PUSH1 0x0 DUP1 PUSH1 0x0 DUP1 PUSH1 0x0 PUSH1 0xA0 DUP7 DUP9 SUB SLT ISZERO PUSH2 0x4DE7 JUMPI PUSH1 0x0 DUP1 REVERT JUMPDEST PUSH2 0x4DF0 DUP7 PUSH2 0x460B JUMP JUMPDEST SWAP5 POP PUSH1 0x20 DUP7 ADD CALLDATALOAD PUSH8 0xFFFFFFFFFFFFFFFF DUP1 DUP3 GT ISZERO PUSH2 0x4E0D JUMPI PUSH1 0x0 DUP1 REVERT JUMPDEST PUSH2 0x4E19 DUP10 DUP4 DUP11 ADD PUSH2 0x4658 JUMP JUMPDEST SWAP6 POP PUSH1 0x40 DUP9 ADD CALLDATALOAD SWAP2 POP DUP1 DUP3 GT ISZERO PUSH2 0x4E2F JUMPI PUSH1 0x0 DUP1 REVERT JUMPDEST PUSH2 0x4E3B DUP10 DUP4 DUP11 ADD PUSH2 0x4658 JUMP JUMPDEST SWAP5 POP PUSH1 0x60 DUP9 ADD CALLDATALOAD SWAP2 POP DUP1 DUP3 GT ISZERO PUSH2 0x4E51 JUMPI PUSH1 0x0 DUP1 REVERT JUMPDEST PUSH2 0x4E5D DUP10 DUP4 DUP11 ADD PUSH2 0x4658 JUMP JUMPDEST SWAP4 POP PUSH1 0x80 DUP9 ADD CALLDATALOAD SWAP2 POP DUP1 DUP3 GT ISZERO PUSH2 0x4E73 JUMPI PUSH1 0x0 DUP1 REVERT JUMPDEST POP PUSH2 0x4E80 DUP9 DUP3 DUP10 ADD PUSH2 0x4658 JUMP JUMPDEST SWAP2 POP POP SWAP3 SWAP6 POP SWAP3 SWAP6 SWAP1 SWAP4 POP JUMP JUMPDEST DUP8 DUP2 MSTORE DUP7 PUSH1 0x20 DUP3 ADD MSTORE PUSH1 0x1 DUP1 PUSH1 0xA0 SHL SUB DUP7 AND PUSH1 0x40 DUP3 ADD MSTORE DUP5 PUSH1 0x60 DUP3 ADD MSTORE PUSH1 0xE0 PUSH1 0x80 DUP3 ADD MSTORE PUSH1 0x0 PUSH2 0x4EC0 PUSH1 0xE0 DUP4 ADD DUP7 PUSH2 0x453B JUMP JUMPDEST SWAP4 ISZERO ISZERO PUSH1 0xA0 DUP4 ADD MSTORE POP SWAP1 ISZERO ISZERO PUSH1 0xC0 SWAP1 SWAP2 ADD MSTORE SWAP6 SWAP5 POP POP POP POP POP JUMP JUMPDEST DUP7 DUP2 MSTORE PUSH1 0x1 PUSH1 0x1 PUSH1 0xA0 SHL SUB DUP7 AND PUSH1 0x20 DUP3 ADD MSTORE PUSH1 0xC0 PUSH1 0x40 DUP3 ADD DUP2 SWAP1 MSTORE PUSH1 0x0 SWAP1 PUSH2 0x4F05 SWAP1 DUP4 ADD DUP8 PUSH2 0x453B JUMP JUMPDEST DUP3 DUP2 SUB PUSH1 0x60 DUP5 ADD MSTORE PUSH2 0x4F17 DUP2 DUP8 PUSH2 0x453B JUMP JUMPDEST SWAP1 POP DUP3 DUP2 SUB PUSH1 0x80 DUP5 ADD MSTORE PUSH2 0x4F2B DUP2 DUP7 PUSH2 0x453B JUMP JUMPDEST SWAP2 POP POP DUP3 ISZERO ISZERO PUSH1 0xA0 DUP4 ADD MSTORE SWAP8 SWAP7 POP POP POP POP POP POP POP JUMP JUMPDEST PUSH1 0x20 DUP1 DUP3 MSTORE DUP3 MLOAD DUP3 DUP3 ADD DUP2 SWAP1 MSTORE PUSH1 0x0 SWAP2 SWAP1 PUSH1 0x40 SWAP1 DUP2 DUP6 ADD SWAP1 DUP7 DUP5 ADD DUP6 JUMPDEST DUP3 DUP2 LT ISZERO PUSH2 0x4FB7 JUMPI DUP2 MLOAD DUP1 MLOAD DUP6 MSTORE DUP7 DUP2 ADD MLOAD DUP8 DUP7 ADD MSTORE DUP6 DUP2 ADD MLOAD DUP7 DUP7 ADD MSTORE PUSH1 0x60 DUP1 DUP3 ADD MLOAD PUSH1 0x1 PUSH1 0x1 PUSH1 0xA0 SHL SUB AND SWAP1 DUP7 ADD MSTORE PUSH1 0x80 DUP1 DUP3 ADD MLOAD SWAP1 DUP7 ADD MSTORE PUSH1 0xA0 SWAP1 DUP2 ADD MLOAD ISZERO ISZERO SWAP1 DUP6 ADD MSTORE PUSH1 0xC0 SWAP1 SWAP4 ADD SWAP3 SWAP1 DUP6 ADD SWAP1 PUSH1 0x1 ADD PUSH2 0x4F5E JUMP JUMPDEST POP SWAP2 SWAP8 SWAP7 POP POP POP POP POP POP POP JUMP JUMPDEST PUSH1 0x0 DUP1 PUSH1 0x0 DUP1 PUSH1 0x80 DUP6 DUP8 SUB SLT ISZERO PUSH2 0x4FDA JUMPI PUSH1 0x0 DUP1 REVERT JUMPDEST DUP5 CALLDATALOAD SWAP4 POP PUSH1 0x20 DUP6 ADD CALLDATALOAD SWAP3 POP PUSH2 0x4FF1 PUSH1 0x40 DUP7 ADD PUSH2 0x460B JUMP JUMPDEST SWAP2 POP PUSH2 0x4FFF PUSH1 0x60 DUP7 ADD PUSH2 0x460B JUMP JUMPDEST SWAP1 POP SWAP3 SWAP6 SWAP2 SWAP5 POP SWAP3 POP JUMP JUMPDEST PUSH1 0x20 DUP2 MSTORE DUP2 MLOAD PUSH1 0x20 DUP3 ADD MSTORE PUSH1 0x1 DUP1 PUSH1 0xA0 SHL SUB PUSH1 0x20 DUP4 ADD MLOAD AND PUSH1 0x40 DUP3 ADD MSTORE PUSH1 0x0 PUSH1 0x40 DUP4 ADD MLOAD PUSH1 0xC0 PUSH1 0x60 DUP5 ADD MSTORE PUSH2 0x5042 PUSH1 0xE0 DUP5 ADD DUP3 PUSH2 0x453B JUMP JUMPDEST SWAP1 POP PUSH1 0x60 DUP5 ADD MLOAD PUSH1 0x1F NOT DUP5 DUP4 SUB ADD PUSH1 0x80 DUP6 ADD MSTORE PUSH2 0x505F DUP3 DUP3 PUSH2 0x453B JUMP JUMPDEST SWAP2 POP POP PUSH1 0x80 DUP5 ADD MLOAD PUSH1 0xA0 DUP5 ADD MSTORE PUSH1 0xA0 DUP5 ADD MLOAD ISZERO ISZERO PUSH1 0xC0 DUP5 ADD MSTORE DUP1 SWAP2 POP POP SWAP3 SWAP2 POP POP JUMP JUMPDEST PUSH1 0x0 DUP1 PUSH1 0x0 PUSH1 0x60 DUP5 DUP7 SUB SLT ISZERO PUSH2 0x5097 JUMPI PUSH1 0x0 DUP1 REVERT JUMPDEST DUP4 CALLDATALOAD SWAP3 POP PUSH1 0x20 DUP5 ADD CALLDATALOAD SWAP2 POP PUSH2 0x50AE PUSH1 0x40 DUP6 ADD PUSH2 0x460B JUMP JUMPDEST SWAP1 POP SWAP3 POP SWAP3 POP SWAP3 JUMP JUMPDEST PUSH1 0x1 DUP2 DUP2 SHR SWAP1 DUP3 AND DUP1 PUSH2 0x50CB JUMPI PUSH1 0x7F DUP3 AND SWAP2 POP JUMPDEST PUSH1 0x20 DUP3 LT DUP2 SUB PUSH2 0x50EB JUMPI PUSH4 0x4E487B71 PUSH1 0xE0 SHL PUSH1 0x0 MSTORE PUSH1 0x22 PUSH1 0x4 MSTORE PUSH1 0x24 PUSH1 0x0 REVERT JUMPDEST POP SWAP2 SWAP1 POP JUMP JUMPDEST PUSH4 0x4E487B71 PUSH1 0xE0 SHL PUSH1 0x0 MSTORE PUSH1 0x11 PUSH1 0x4 MSTORE PUSH1 0x24 PUSH1 0x0 REVERT JUMPDEST PUSH1 0x0 DUP2 PUSH1 0x0 NOT DIV DUP4 GT DUP3 ISZERO ISZERO AND ISZERO PUSH2 0x5121 JUMPI PUSH2 0x5121 PUSH2 0x50F1 JUMP JUMPDEST POP MUL SWAP1 JUMP JUMPDEST PUSH1 0x0 DUP3 NOT DUP3 GT ISZERO PUSH2 0x5139 JUMPI PUSH2 0x5139 PUSH2 0x50F1 JUMP JUMPDEST POP ADD SWAP1 JUMP JUMPDEST PUSH1 0x0 PUSH1 0x1 DUP3 ADD PUSH2 0x5150 JUMPI PUSH2 0x5150 PUSH2 0x50F1 JUMP JUMPDEST POP PUSH1 0x1 ADD SWAP1 JUMP JUMPDEST PUSH4 0x4E487B71 PUSH1 0xE0 SHL PUSH1 0x0 MSTORE PUSH1 0x32 PUSH1 0x4 MSTORE PUSH1 0x24 PUSH1 0x0 REVERT JUMPDEST PUSH1 0x0 DUP3 PUSH2 0x518A JUMPI PUSH4 0x4E487B71 PUSH1 0xE0 SHL PUSH1 0x0 MSTORE PUSH1 0x12 PUSH1 0x4 MSTORE PUSH1 0x24 PUSH1 0x0 REVERT JUMPDEST POP DIV SWAP1 JUMP JUMPDEST PUSH1 0x0 PUSH1 0x20 DUP3 DUP5 SUB SLT ISZERO PUSH2 0x51A1 JUMPI PUSH1 0x0 DUP1 REVERT JUMPDEST DUP2 MLOAD DUP1 ISZERO ISZERO DUP2 EQ PUSH2 0x1DFE JUMPI PUSH1 0x0 DUP1 REVERT INVALID LOG2 PUSH5 0x6970667358 0x22 SLT KECCAK256 EXP RETURN PUSH4 0x7C529908 LOG2 SWAP4 CHAINID SAR EXTCODECOPY 0xDB 0xB8 EXTCODEHASH 0x2A 0xBF PUSH19 0x9779621037CE9567AC039E1A073364736F6C63 NUMBER STOP ADDMOD 0xD STOP CALLER "
		},
		"gasEstimates": {
			"creation": {
				"codeDepositCost": "4193400",
				"executionCost": "infinite",
				"totalCost": "infinite"
			},
			"external": {
				"allApplicants(address)": "infinite",
				"allApplications(uint256)": "infinite",
				"allDonations(uint256)": "infinite",
				"allDonors(address)": "infinite",
				"allGrants(uint256)": "17535",
				"allRewards(address,uint256)": "15619",
				"allVoteCountsOfApplicantsOfDonation(uint256,address)": "2729",
				"allVoters(address)": "infinite",
				"allVotes(uint256)": "13250",
				"applicationsToDonations(uint256,address)": "2742",
				"approveApplication(uint256,uint256)": "infinite",
				"checkIfApplicantExists(address)": "2666",
				"checkIfApplicantHasAlreadyMadeAnApplicationToDonation(uint256,address)": "2788",
				"checkIfDonorExists(address)": "2644",
				"checkIfVoterExists(address)": "2667",
				"checkIfVoterHasAlreadyMadeAVoteInDonation(uint256,address)": "2743",
				"createApplicantAccount(address,string,string,string,string)": "infinite",
				"createDonation(uint256,address,string,string,uint256,uint256,uint256)": "infinite",
				"createDonorAccount(address,string,string)": "infinite",
				"createVoterAccount(address,string,string,string)": "infinite",
				"currentApplicantId()": "2384",
				"currentApplicationId()": "2386",
				"currentDonationId()": "2406",
				"currentDonorId()": "2405",
				"currentGrantId()": "2429",
				"currentRewardId()": "2363",
				"currentVoteId()": "2363",
				"currentVoterId()": "2384",
				"getAllApplicantsOfDonation(uint256)": "infinite",
				"getAllApplicationsOfDonation(uint256)": "infinite",
				"getAllDonations()": "infinite",
				"getAllDonationsCreatedByDonor(address)": "infinite",
				"getApplicantByWalletAddress(address)": "infinite",
				"getApplicantOfDonation(uint256)": "infinite",
				"getApplicationById(uint256)": "infinite",
				"getApplicationOfApplicantForDonation(uint256,uint256,address)": "infinite",
				"getApplicationsOfApplicant(address)": "infinite",
				"getDonationById(uint256)": "infinite",
				"getDonorByWalletAddress(address)": "infinite",
				"getGranteeOfDonation(uint256)": "infinite",
				"getLatestResultsOfDonation(uint256)": "infinite",
				"getPotentialAmountOfGrantOfDonationInWei(uint256)": "infinite",
				"getPotentialAmountOfRewardOfDonationInWei(uint256)": "infinite",
				"getPotentialAmountOfRewardToBekwest(uint256)": "infinite",
				"getTotalAmountOfGrantsGivenToApplicantInWei(address)": "infinite",
				"getTotalAmountOfRewardsGivenToVoterInWei(uint256,address)": "infinite",
				"getTotalAmountOfVotesForDonation(uint256)": "2506",
				"getTotalAmountOfVotesMadeByVoter(address)": "2629",
				"getVoteCountOfApplicantOfDonation(uint256,address)": "2753",
				"getVoteOfVoterForDonation(uint256,address)": "infinite",
				"getVoterByWalletAddress(address)": "infinite",
				"getWinningApplicantOfDonation(uint256)": "infinite",
				"granteesOfDonations(uint256)": "2568",
				"makeAVote(uint256,uint256,address,address)": "infinite",
				"makeApplication(uint256,uint256,address,string)": "infinite",
				"numbersOfApplicationsForDonations(uint256)": "2506",
				"numbersOfApplicationsOfApplicants(address)": "2652",
				"numbersOfDonationsCreatedByDonors(address)": "2609",
				"numbersOfVotesForDonations(uint256)": "2507",
				"numbersOfVotesOfVoters(address)": "2630",
				"votingInDonation(uint256,address)": "2742"
			},
			"internal": {
				"closeApplicationOfDonation(uint256)": "infinite",
				"closeVotingOfDonation(uint256)": "infinite",
				"sendGrantToWinningApplicant(uint256,uint256)": "infinite",
				"sendRewardToBekwest(uint256)": "infinite",
				"sendRewardToVoter(uint256,address)": "infinite"
			}
		},
		"methodIdentifiers": {
			"allApplicants(address)": "ad9adead",
			"allApplications(uint256)": "b2514292",
			"allDonations(uint256)": "06c49713",
			"allDonors(address)": "4d148f40",
			"allGrants(uint256)": "621d571d",
			"allRewards(address,uint256)": "3755c2b2",
			"allVoteCountsOfApplicantsOfDonation(uint256,address)": "6e93e563",
			"allVoters(address)": "c3703048",
			"allVotes(uint256)": "de63f432",
			"applicationsToDonations(uint256,address)": "6861f01f",
			"approveApplication(uint256,uint256)": "4633f488",
			"checkIfApplicantExists(address)": "d9ad496d",
			"checkIfApplicantHasAlreadyMadeAnApplicationToDonation(uint256,address)": "431b710a",
			"checkIfDonorExists(address)": "baf3f49e",
			"checkIfVoterExists(address)": "b0344580",
			"checkIfVoterHasAlreadyMadeAVoteInDonation(uint256,address)": "6a098823",
			"createApplicantAccount(address,string,string,string,string)": "b0eebd18",
			"createDonation(uint256,address,string,string,uint256,uint256,uint256)": "0de0350f",
			"createDonorAccount(address,string,string)": "7f868a8e",
			"createVoterAccount(address,string,string,string)": "78c38f3a",
			"currentApplicantId()": "d39f622a",
			"currentApplicationId()": "8e1afc95",
			"currentDonationId()": "bd7863fd",
			"currentDonorId()": "ed04470c",
			"currentGrantId()": "5bf35e66",
			"currentRewardId()": "a4bfaddf",
			"currentVoteId()": "9100b5dd",
			"currentVoterId()": "e1ff3fb7",
			"getAllApplicantsOfDonation(uint256)": "904716f6",
			"getAllApplicationsOfDonation(uint256)": "79382f00",
			"getAllDonations()": "38a59a07",
			"getAllDonationsCreatedByDonor(address)": "fae0f23f",
			"getApplicantByWalletAddress(address)": "60cdd94a",
			"getApplicantOfDonation(uint256)": "a064dda2",
			"getApplicationById(uint256)": "1d4d3ba4",
			"getApplicationOfApplicantForDonation(uint256,uint256,address)": "e9da1029",
			"getApplicationsOfApplicant(address)": "a382148a",
			"getDonationById(uint256)": "7ddc914a",
			"getDonorByWalletAddress(address)": "e35a8441",
			"getGranteeOfDonation(uint256)": "79f19780",
			"getLatestResultsOfDonation(uint256)": "ccf9844f",
			"getPotentialAmountOfGrantOfDonationInWei(uint256)": "852c8ea7",
			"getPotentialAmountOfRewardOfDonationInWei(uint256)": "78c5ab69",
			"getPotentialAmountOfRewardToBekwest(uint256)": "e9d3ac50",
			"getTotalAmountOfGrantsGivenToApplicantInWei(address)": "d243b249",
			"getTotalAmountOfRewardsGivenToVoterInWei(uint256,address)": "4217d66f",
			"getTotalAmountOfVotesForDonation(uint256)": "69db2db3",
			"getTotalAmountOfVotesMadeByVoter(address)": "072df68a",
			"getVoteCountOfApplicantOfDonation(uint256,address)": "cca050a1",
			"getVoteOfVoterForDonation(uint256,address)": "78d61865",
			"getVoterByWalletAddress(address)": "9d30dc61",
			"getWinningApplicantOfDonation(uint256)": "e926ca45",
			"granteesOfDonations(uint256)": "3a6a44e2",
			"makeAVote(uint256,uint256,address,address)": "db8ac181",
			"makeApplication(uint256,uint256,address,string)": "0df63082",
			"numbersOfApplicationsForDonations(uint256)": "4464ce95",
			"numbersOfApplicationsOfApplicants(address)": "c1df9e90",
			"numbersOfDonationsCreatedByDonors(address)": "c64d0d85",
			"numbersOfVotesForDonations(uint256)": "8c056233",
			"numbersOfVotesOfVoters(address)": "818d5254",
			"votingInDonation(uint256,address)": "2f8e211e"
		}
	},
	"abi": [
		{
			"inputs": [
				{
					"internalType": "address",
					"name": "",
					"type": "address"
				}
			],
			"name": "allApplicants",
			"outputs": [
				{
					"internalType": "uint256",
					"name": "id",
					"type": "uint256"
				},
				{
					"internalType": "uint256",
					"name": "applicantId",
					"type": "uint256"
				},
				{
					"internalType": "address",
					"name": "walletAddress",
					"type": "address"
				},
				{
					"internalType": "string",
					"name": "adjective",
					"type": "string"
				},
				{
					"internalType": "string",
					"name": "gender",
					"type": "string"
				},
				{
					"internalType": "string",
					"name": "countryOfResidence",
					"type": "string"
				},
				{
					"internalType": "string",
					"name": "ageBracket",
					"type": "string"
				},
				{
					"internalType": "bool",
					"name": "isNotBlank",
					"type": "bool"
				}
			],
			"stateMutability": "view",
			"type": "function"
		},
		{
			"inputs": [
				{
					"internalType": "uint256",
					"name": "",
					"type": "uint256"
				}
			],
			"name": "allApplications",
			"outputs": [
				{
					"internalType": "uint256",
					"name": "id",
					"type": "uint256"
				},
				{
					"internalType": "uint256",
					"name": "applicantId",
					"type": "uint256"
				},
				{
					"internalType": "address",
					"name": "applicantWalletAddress",
					"type": "address"
				},
				{
					"internalType": "uint256",
					"name": "donationId",
					"type": "uint256"
				},
				{
					"internalType": "string",
					"name": "pitchStatement",
					"type": "string"
				},
				{
					"internalType": "bool",
					"name": "isApproved",
					"type": "bool"
				},
				{
					"internalType": "bool",
					"name": "isNotBlank",
					"type": "bool"
				}
			],
			"stateMutability": "view",
			"type": "function"
		},
		{
			"inputs": [
				{
					"internalType": "uint256",
					"name": "",
					"type": "uint256"
				}
			],
			"name": "allDonations",
			"outputs": [
				{
					"internalType": "uint256",
					"name": "id",
					"type": "uint256"
				},
				{
					"internalType": "uint256",
					"name": "donorId",
					"type": "uint256"
				},
				{
					"internalType": "address",
					"name": "donorWalletAddress",
					"type": "address"
				},
				{
					"internalType": "string",
					"name": "topic",
					"type": "string"
				},
				{
					"internalType": "string",
					"name": "industry",
					"type": "string"
				},
				{
					"internalType": "uint256",
					"name": "maxNumberOfApplications",
					"type": "uint256"
				},
				{
					"internalType": "uint256",
					"name": "maxNumberOfVotes",
					"type": "uint256"
				},
				{
					"internalType": "uint256",
					"name": "amountDonatedInWei",
					"type": "uint256"
				},
				{
					"internalType": "bool",
					"name": "applicationIsClosed",
					"type": "bool"
				},
				{
					"internalType": "bool",
					"name": "votingIsClosed",
					"type": "bool"
				},
				{
					"internalType": "bool",
					"name": "isNotBlank",
					"type": "bool"
				}
			],
			"stateMutability": "view",
			"type": "function"
		},
		{
			"inputs": [
				{
					"internalType": "address",
					"name": "",
					"type": "address"
				}
			],
			"name": "allDonors",
			"outputs": [
				{
					"internalType": "uint256",
					"name": "id",
					"type": "uint256"
				},
				{
					"internalType": "address",
					"name": "walletAddress",
					"type": "address"
				},
				{
					"internalType": "string",
					"name": "adjective",
					"type": "string"
				},
				{
					"internalType": "string",
					"name": "mainIndustryOfInterest",
					"type": "string"
				},
				{
					"internalType": "uint256",
					"name": "numberOfDonationsCreated",
					"type": "uint256"
				},
				{
					"internalType": "bool",
					"name": "isNotBlank",
					"type": "bool"
				}
			],
			"stateMutability": "view",
			"type": "function"
		},
		{
			"inputs": [
				{
					"internalType": "uint256",
					"name": "",
					"type": "uint256"
				}
			],
			"name": "allGrants",
			"outputs": [
				{
					"internalType": "uint256",
					"name": "id",
					"type": "uint256"
				},
				{
					"internalType": "uint256",
					"name": "donationId",
					"type": "uint256"
				},
				{
					"internalType": "uint256",
					"name": "applicationId",
					"type": "uint256"
				},
				{
					"internalType": "uint256",
					"name": "applicantId",
					"type": "uint256"
				},
				{
					"internalType": "address",
					"name": "applicantWalletAddress",
					"type": "address"
				},
				{
					"internalType": "uint256",
					"name": "amountGrantedInWei",
					"type": "uint256"
				},
				{
					"internalType": "bool",
					"name": "isNotBlank",
					"type": "bool"
				}
			],
			"stateMutability": "view",
			"type": "function"
		},
		{
			"inputs": [
				{
					"internalType": "address",
					"name": "",
					"type": "address"
				},
				{
					"internalType": "uint256",
					"name": "",
					"type": "uint256"
				}
			],
			"name": "allRewards",
			"outputs": [
				{
					"internalType": "uint256",
					"name": "id",
					"type": "uint256"
				},
				{
					"internalType": "uint256",
					"name": "voterId",
					"type": "uint256"
				},
				{
					"internalType": "address",
					"name": "voterWalletAddress",
					"type": "address"
				},
				{
					"internalType": "uint256",
					"name": "donationId",
					"type": "uint256"
				},
				{
					"internalType": "uint256",
					"name": "amountRewardedInWei",
					"type": "uint256"
				},
				{
					"internalType": "bool",
					"name": "isNotBlank",
					"type": "bool"
				}
			],
			"stateMutability": "view",
			"type": "function"
		},
		{
			"inputs": [
				{
					"internalType": "uint256",
					"name": "",
					"type": "uint256"
				},
				{
					"internalType": "address",
					"name": "",
					"type": "address"
				}
			],
			"name": "allVoteCountsOfApplicantsOfDonation",
			"outputs": [
				{
					"internalType": "uint256",
					"name": "",
					"type": "uint256"
				}
			],
			"stateMutability": "view",
			"type": "function"
		},
		{
			"inputs": [
				{
					"internalType": "address",
					"name": "",
					"type": "address"
				}
			],
			"name": "allVoters",
			"outputs": [
				{
					"internalType": "uint256",
					"name": "id",
					"type": "uint256"
				},
				{
					"internalType": "address",
					"name": "walletAddress",
					"type": "address"
				},
				{
					"internalType": "string",
					"name": "adjective",
					"type": "string"
				},
				{
					"internalType": "string",
					"name": "gender",
					"type": "string"
				},
				{
					"internalType": "string",
					"name": "countryOfResidence",
					"type": "string"
				},
				{
					"internalType": "bool",
					"name": "isNotBlank",
					"type": "bool"
				}
			],
			"stateMutability": "view",
			"type": "function"
		},
		{
			"inputs": [
				{
					"internalType": "uint256",
					"name": "",
					"type": "uint256"
				}
			],
			"name": "allVotes",
			"outputs": [
				{
					"internalType": "uint256",
					"name": "id",
					"type": "uint256"
				},
				{
					"internalType": "uint256",
					"name": "voterId",
					"type": "uint256"
				},
				{
					"internalType": "uint256",
					"name": "applicantId",
					"type": "uint256"
				},
				{
					"internalType": "uint256",
					"name": "donationId",
					"type": "uint256"
				},
				{
					"internalType": "bool",
					"name": "isRewarded",
					"type": "bool"
				},
				{
					"internalType": "bool",
					"name": "isNotBlank",
					"type": "bool"
				}
			],
			"stateMutability": "view",
			"type": "function"
		},
		{
			"inputs": [
				{
					"internalType": "uint256",
					"name": "",
					"type": "uint256"
				},
				{
					"internalType": "address",
					"name": "",
					"type": "address"
				}
			],
			"name": "applicationsToDonations",
			"outputs": [
				{
					"internalType": "bool",
					"name": "",
					"type": "bool"
				}
			],
			"stateMutability": "view",
			"type": "function"
		},
		{
			"inputs": [
				{
					"internalType": "uint256",
					"name": "_applicationId",
					"type": "uint256"
				},
				{
					"internalType": "uint256",
					"name": "_donationId",
					"type": "uint256"
				}
			],
			"name": "approveApplication",
			"outputs": [],
			"stateMutability": "nonpayable",
			"type": "function"
		},
		{
			"inputs": [
				{
					"internalType": "address",
					"name": "_applicantWalletAddress",
					"type": "address"
				}
			],
			"name": "checkIfApplicantExists",
			"outputs": [
				{
					"internalType": "bool",
					"name": "",
					"type": "bool"
				}
			],
			"stateMutability": "view",
			"type": "function"
		},
		{
			"inputs": [
				{
					"internalType": "uint256",
					"name": "_donationId",
					"type": "uint256"
				},
				{
					"internalType": "address",
					"name": "_applicantWalletAddress",
					"type": "address"
				}
			],
			"name": "checkIfApplicantHasAlreadyMadeAnApplicationToDonation",
			"outputs": [
				{
					"internalType": "bool",
					"name": "",
					"type": "bool"
				}
			],
			"stateMutability": "view",
			"type": "function"
		},
		{
			"inputs": [
				{
					"internalType": "address",
					"name": "_donorWalletAddress",
					"type": "address"
				}
			],
			"name": "checkIfDonorExists",
			"outputs": [
				{
					"internalType": "bool",
					"name": "",
					"type": "bool"
				}
			],
			"stateMutability": "view",
			"type": "function"
		},
		{
			"inputs": [
				{
					"internalType": "address",
					"name": "_voterWalletAddress",
					"type": "address"
				}
			],
			"name": "checkIfVoterExists",
			"outputs": [
				{
					"internalType": "bool",
					"name": "",
					"type": "bool"
				}
			],
			"stateMutability": "view",
			"type": "function"
		},
		{
			"inputs": [
				{
					"internalType": "uint256",
					"name": "_donationId",
					"type": "uint256"
				},
				{
					"internalType": "address",
					"name": "_voterWalletAddress",
					"type": "address"
				}
			],
			"name": "checkIfVoterHasAlreadyMadeAVoteInDonation",
			"outputs": [
				{
					"internalType": "bool",
					"name": "",
					"type": "bool"
				}
			],
			"stateMutability": "view",
			"type": "function"
		},
		{
			"inputs": [
				{
					"internalType": "address",
					"name": "_applicantWalletAddress",
					"type": "address"
				},
				{
					"internalType": "string",
					"name": "_adjective",
					"type": "string"
				},
				{
					"internalType": "string",
					"name": "_gender",
					"type": "string"
				},
				{
					"internalType": "string",
					"name": "_countryOfResidence",
					"type": "string"
				},
				{
					"internalType": "string",
					"name": "_ageBracket",
					"type": "string"
				}
			],
			"name": "createApplicantAccount",
			"outputs": [],
			"stateMutability": "nonpayable",
			"type": "function"
		},
		{
			"inputs": [
				{
					"internalType": "uint256",
					"name": "_donorId",
					"type": "uint256"
				},
				{
					"internalType": "address",
					"name": "_donorWalletAddress",
					"type": "address"
				},
				{
					"internalType": "string",
					"name": "_topic",
					"type": "string"
				},
				{
					"internalType": "string",
					"name": "_industry",
					"type": "string"
				},
				{
					"internalType": "uint256",
					"name": "_maxNumberOfApplications",
					"type": "uint256"
				},
				{
					"internalType": "uint256",
					"name": "_maxNumberOfVotes",
					"type": "uint256"
				},
				{
					"internalType": "uint256",
					"name": "_amountDonated",
					"type": "uint256"
				}
			],
			"name": "createDonation",
			"outputs": [],
			"stateMutability": "nonpayable",
			"type": "function"
		},
		{
			"inputs": [
				{
					"internalType": "address",
					"name": "_donorWalletAddress",
					"type": "address"
				},
				{
					"internalType": "string",
					"name": "_adjective",
					"type": "string"
				},
				{
					"internalType": "string",
					"name": "_mainIndustryOfInterest",
					"type": "string"
				}
			],
			"name": "createDonorAccount",
			"outputs": [],
			"stateMutability": "nonpayable",
			"type": "function"
		},
		{
			"inputs": [
				{
					"internalType": "address",
					"name": "_voterWalletAddress",
					"type": "address"
				},
				{
					"internalType": "string",
					"name": "_adjective",
					"type": "string"
				},
				{
					"internalType": "string",
					"name": "_gender",
					"type": "string"
				},
				{
					"internalType": "string",
					"name": "_countryOfResidence",
					"type": "string"
				}
			],
			"name": "createVoterAccount",
			"outputs": [],
			"stateMutability": "nonpayable",
			"type": "function"
		},
		{
			"inputs": [],
			"name": "currentApplicantId",
			"outputs": [
				{
					"internalType": "uint256",
					"name": "",
					"type": "uint256"
				}
			],
			"stateMutability": "view",
			"type": "function"
		},
		{
			"inputs": [],
			"name": "currentApplicationId",
			"outputs": [
				{
					"internalType": "uint256",
					"name": "",
					"type": "uint256"
				}
			],
			"stateMutability": "view",
			"type": "function"
		},
		{
			"inputs": [],
			"name": "currentDonationId",
			"outputs": [
				{
					"internalType": "uint256",
					"name": "",
					"type": "uint256"
				}
			],
			"stateMutability": "view",
			"type": "function"
		},
		{
			"inputs": [],
			"name": "currentDonorId",
			"outputs": [
				{
					"internalType": "uint256",
					"name": "",
					"type": "uint256"
				}
			],
			"stateMutability": "view",
			"type": "function"
		},
		{
			"inputs": [],
			"name": "currentGrantId",
			"outputs": [
				{
					"internalType": "uint256",
					"name": "",
					"type": "uint256"
				}
			],
			"stateMutability": "view",
			"type": "function"
		},
		{
			"inputs": [],
			"name": "currentRewardId",
			"outputs": [
				{
					"internalType": "uint256",
					"name": "",
					"type": "uint256"
				}
			],
			"stateMutability": "view",
			"type": "function"
		},
		{
			"inputs": [],
			"name": "currentVoteId",
			"outputs": [
				{
					"internalType": "uint256",
					"name": "",
					"type": "uint256"
				}
			],
			"stateMutability": "view",
			"type": "function"
		},
		{
			"inputs": [],
			"name": "currentVoterId",
			"outputs": [
				{
					"internalType": "uint256",
					"name": "",
					"type": "uint256"
				}
			],
			"stateMutability": "view",
			"type": "function"
		},
		{
			"inputs": [
				{
					"internalType": "uint256",
					"name": "_donationId",
					"type": "uint256"
				}
			],
			"name": "getAllApplicantsOfDonation",
			"outputs": [
				{
					"components": [
						{
							"internalType": "uint256",
							"name": "id",
							"type": "uint256"
						},
						{
							"internalType": "uint256",
							"name": "applicantId",
							"type": "uint256"
						},
						{
							"internalType": "address",
							"name": "walletAddress",
							"type": "address"
						},
						{
							"internalType": "string",
							"name": "adjective",
							"type": "string"
						},
						{
							"internalType": "string",
							"name": "gender",
							"type": "string"
						},
						{
							"internalType": "string",
							"name": "countryOfResidence",
							"type": "string"
						},
						{
							"internalType": "string",
							"name": "ageBracket",
							"type": "string"
						},
						{
							"internalType": "bool",
							"name": "isNotBlank",
							"type": "bool"
						}
					],
					"internalType": "struct Applicant[]",
					"name": "",
					"type": "tuple[]"
				}
			],
			"stateMutability": "view",
			"type": "function"
		},
		{
			"inputs": [
				{
					"internalType": "uint256",
					"name": "_donationId",
					"type": "uint256"
				}
			],
			"name": "getAllApplicationsOfDonation",
			"outputs": [
				{
					"components": [
						{
							"internalType": "uint256",
							"name": "id",
							"type": "uint256"
						},
						{
							"internalType": "uint256",
							"name": "applicantId",
							"type": "uint256"
						},
						{
							"internalType": "address",
							"name": "applicantWalletAddress",
							"type": "address"
						},
						{
							"internalType": "uint256",
							"name": "donationId",
							"type": "uint256"
						},
						{
							"internalType": "string",
							"name": "pitchStatement",
							"type": "string"
						},
						{
							"internalType": "bool",
							"name": "isApproved",
							"type": "bool"
						},
						{
							"internalType": "bool",
							"name": "isNotBlank",
							"type": "bool"
						}
					],
					"internalType": "struct Application[]",
					"name": "",
					"type": "tuple[]"
				}
			],
			"stateMutability": "view",
			"type": "function"
		},
		{
			"inputs": [],
			"name": "getAllDonations",
			"outputs": [
				{
					"components": [
						{
							"internalType": "uint256",
							"name": "id",
							"type": "uint256"
						},
						{
							"internalType": "uint256",
							"name": "donorId",
							"type": "uint256"
						},
						{
							"internalType": "address",
							"name": "donorWalletAddress",
							"type": "address"
						},
						{
							"internalType": "string",
							"name": "topic",
							"type": "string"
						},
						{
							"internalType": "string",
							"name": "industry",
							"type": "string"
						},
						{
							"internalType": "uint256",
							"name": "maxNumberOfApplications",
							"type": "uint256"
						},
						{
							"internalType": "uint256",
							"name": "maxNumberOfVotes",
							"type": "uint256"
						},
						{
							"internalType": "uint256",
							"name": "amountDonatedInWei",
							"type": "uint256"
						},
						{
							"internalType": "bool",
							"name": "applicationIsClosed",
							"type": "bool"
						},
						{
							"internalType": "bool",
							"name": "votingIsClosed",
							"type": "bool"
						},
						{
							"internalType": "bool",
							"name": "isNotBlank",
							"type": "bool"
						}
					],
					"internalType": "struct Donation[]",
					"name": "",
					"type": "tuple[]"
				}
			],
			"stateMutability": "view",
			"type": "function"
		},
		{
			"inputs": [
				{
					"internalType": "address",
					"name": "_donorWalletAddress",
					"type": "address"
				}
			],
			"name": "getAllDonationsCreatedByDonor",
			"outputs": [
				{
					"components": [
						{
							"internalType": "uint256",
							"name": "id",
							"type": "uint256"
						},
						{
							"internalType": "uint256",
							"name": "donorId",
							"type": "uint256"
						},
						{
							"internalType": "address",
							"name": "donorWalletAddress",
							"type": "address"
						},
						{
							"internalType": "string",
							"name": "topic",
							"type": "string"
						},
						{
							"internalType": "string",
							"name": "industry",
							"type": "string"
						},
						{
							"internalType": "uint256",
							"name": "maxNumberOfApplications",
							"type": "uint256"
						},
						{
							"internalType": "uint256",
							"name": "maxNumberOfVotes",
							"type": "uint256"
						},
						{
							"internalType": "uint256",
							"name": "amountDonatedInWei",
							"type": "uint256"
						},
						{
							"internalType": "bool",
							"name": "applicationIsClosed",
							"type": "bool"
						},
						{
							"internalType": "bool",
							"name": "votingIsClosed",
							"type": "bool"
						},
						{
							"internalType": "bool",
							"name": "isNotBlank",
							"type": "bool"
						}
					],
					"internalType": "struct Donation[]",
					"name": "",
					"type": "tuple[]"
				}
			],
			"stateMutability": "view",
			"type": "function"
		},
		{
			"inputs": [
				{
					"internalType": "address",
					"name": "_applicantWalletAddress",
					"type": "address"
				}
			],
			"name": "getApplicantByWalletAddress",
			"outputs": [
				{
					"components": [
						{
							"internalType": "uint256",
							"name": "id",
							"type": "uint256"
						},
						{
							"internalType": "uint256",
							"name": "applicantId",
							"type": "uint256"
						},
						{
							"internalType": "address",
							"name": "walletAddress",
							"type": "address"
						},
						{
							"internalType": "string",
							"name": "adjective",
							"type": "string"
						},
						{
							"internalType": "string",
							"name": "gender",
							"type": "string"
						},
						{
							"internalType": "string",
							"name": "countryOfResidence",
							"type": "string"
						},
						{
							"internalType": "string",
							"name": "ageBracket",
							"type": "string"
						},
						{
							"internalType": "bool",
							"name": "isNotBlank",
							"type": "bool"
						}
					],
					"internalType": "struct Applicant",
					"name": "",
					"type": "tuple"
				}
			],
			"stateMutability": "view",
			"type": "function"
		},
		{
			"inputs": [
				{
					"internalType": "uint256",
					"name": "_applicationId",
					"type": "uint256"
				}
			],
			"name": "getApplicantOfDonation",
			"outputs": [
				{
					"components": [
						{
							"internalType": "uint256",
							"name": "id",
							"type": "uint256"
						},
						{
							"internalType": "uint256",
							"name": "applicantId",
							"type": "uint256"
						},
						{
							"internalType": "address",
							"name": "walletAddress",
							"type": "address"
						},
						{
							"internalType": "string",
							"name": "adjective",
							"type": "string"
						},
						{
							"internalType": "string",
							"name": "gender",
							"type": "string"
						},
						{
							"internalType": "string",
							"name": "countryOfResidence",
							"type": "string"
						},
						{
							"internalType": "string",
							"name": "ageBracket",
							"type": "string"
						},
						{
							"internalType": "bool",
							"name": "isNotBlank",
							"type": "bool"
						}
					],
					"internalType": "struct Applicant",
					"name": "",
					"type": "tuple"
				}
			],
			"stateMutability": "view",
			"type": "function"
		},
		{
			"inputs": [
				{
					"internalType": "uint256",
					"name": "_applicationId",
					"type": "uint256"
				}
			],
			"name": "getApplicationById",
			"outputs": [
				{
					"components": [
						{
							"internalType": "uint256",
							"name": "id",
							"type": "uint256"
						},
						{
							"internalType": "uint256",
							"name": "applicantId",
							"type": "uint256"
						},
						{
							"internalType": "address",
							"name": "applicantWalletAddress",
							"type": "address"
						},
						{
							"internalType": "uint256",
							"name": "donationId",
							"type": "uint256"
						},
						{
							"internalType": "string",
							"name": "pitchStatement",
							"type": "string"
						},
						{
							"internalType": "bool",
							"name": "isApproved",
							"type": "bool"
						},
						{
							"internalType": "bool",
							"name": "isNotBlank",
							"type": "bool"
						}
					],
					"internalType": "struct Application",
					"name": "",
					"type": "tuple"
				}
			],
			"stateMutability": "view",
			"type": "function"
		},
		{
			"inputs": [
				{
					"internalType": "uint256",
					"name": "_donationId",
					"type": "uint256"
				},
				{
					"internalType": "uint256",
					"name": "_applicationId",
					"type": "uint256"
				},
				{
					"internalType": "address",
					"name": "_applicantWalletAddress",
					"type": "address"
				}
			],
			"name": "getApplicationOfApplicantForDonation",
			"outputs": [
				{
					"components": [
						{
							"internalType": "uint256",
							"name": "id",
							"type": "uint256"
						},
						{
							"internalType": "uint256",
							"name": "applicantId",
							"type": "uint256"
						},
						{
							"internalType": "address",
							"name": "applicantWalletAddress",
							"type": "address"
						},
						{
							"internalType": "uint256",
							"name": "donationId",
							"type": "uint256"
						},
						{
							"internalType": "string",
							"name": "pitchStatement",
							"type": "string"
						},
						{
							"internalType": "bool",
							"name": "isApproved",
							"type": "bool"
						},
						{
							"internalType": "bool",
							"name": "isNotBlank",
							"type": "bool"
						}
					],
					"internalType": "struct Application",
					"name": "",
					"type": "tuple"
				}
			],
			"stateMutability": "view",
			"type": "function"
		},
		{
			"inputs": [
				{
					"internalType": "address",
					"name": "_applicantWalletAddress",
					"type": "address"
				}
			],
			"name": "getApplicationsOfApplicant",
			"outputs": [
				{
					"components": [
						{
							"internalType": "uint256",
							"name": "id",
							"type": "uint256"
						},
						{
							"internalType": "uint256",
							"name": "applicantId",
							"type": "uint256"
						},
						{
							"internalType": "address",
							"name": "applicantWalletAddress",
							"type": "address"
						},
						{
							"internalType": "uint256",
							"name": "donationId",
							"type": "uint256"
						},
						{
							"internalType": "string",
							"name": "pitchStatement",
							"type": "string"
						},
						{
							"internalType": "bool",
							"name": "isApproved",
							"type": "bool"
						},
						{
							"internalType": "bool",
							"name": "isNotBlank",
							"type": "bool"
						}
					],
					"internalType": "struct Application[]",
					"name": "",
					"type": "tuple[]"
				}
			],
			"stateMutability": "view",
			"type": "function"
		},
		{
			"inputs": [
				{
					"internalType": "uint256",
					"name": "_donationId",
					"type": "uint256"
				}
			],
			"name": "getDonationById",
			"outputs": [
				{
					"components": [
						{
							"internalType": "uint256",
							"name": "id",
							"type": "uint256"
						},
						{
							"internalType": "uint256",
							"name": "donorId",
							"type": "uint256"
						},
						{
							"internalType": "address",
							"name": "donorWalletAddress",
							"type": "address"
						},
						{
							"internalType": "string",
							"name": "topic",
							"type": "string"
						},
						{
							"internalType": "string",
							"name": "industry",
							"type": "string"
						},
						{
							"internalType": "uint256",
							"name": "maxNumberOfApplications",
							"type": "uint256"
						},
						{
							"internalType": "uint256",
							"name": "maxNumberOfVotes",
							"type": "uint256"
						},
						{
							"internalType": "uint256",
							"name": "amountDonatedInWei",
							"type": "uint256"
						},
						{
							"internalType": "bool",
							"name": "applicationIsClosed",
							"type": "bool"
						},
						{
							"internalType": "bool",
							"name": "votingIsClosed",
							"type": "bool"
						},
						{
							"internalType": "bool",
							"name": "isNotBlank",
							"type": "bool"
						}
					],
					"internalType": "struct Donation",
					"name": "",
					"type": "tuple"
				}
			],
			"stateMutability": "view",
			"type": "function"
		},
		{
			"inputs": [
				{
					"internalType": "address",
					"name": "_donorWalletAddress",
					"type": "address"
				}
			],
			"name": "getDonorByWalletAddress",
			"outputs": [
				{
					"components": [
						{
							"internalType": "uint256",
							"name": "id",
							"type": "uint256"
						},
						{
							"internalType": "address",
							"name": "walletAddress",
							"type": "address"
						},
						{
							"internalType": "string",
							"name": "adjective",
							"type": "string"
						},
						{
							"internalType": "string",
							"name": "mainIndustryOfInterest",
							"type": "string"
						},
						{
							"internalType": "uint256",
							"name": "numberOfDonationsCreated",
							"type": "uint256"
						},
						{
							"internalType": "bool",
							"name": "isNotBlank",
							"type": "bool"
						}
					],
					"internalType": "struct Donor",
					"name": "",
					"type": "tuple"
				}
			],
			"stateMutability": "view",
			"type": "function"
		},
		{
			"inputs": [
				{
					"internalType": "uint256",
					"name": "_donationId",
					"type": "uint256"
				}
			],
			"name": "getGranteeOfDonation",
			"outputs": [
				{
					"components": [
						{
							"internalType": "uint256",
							"name": "id",
							"type": "uint256"
						},
						{
							"internalType": "uint256",
							"name": "applicantId",
							"type": "uint256"
						},
						{
							"internalType": "address",
							"name": "walletAddress",
							"type": "address"
						},
						{
							"internalType": "string",
							"name": "adjective",
							"type": "string"
						},
						{
							"internalType": "string",
							"name": "gender",
							"type": "string"
						},
						{
							"internalType": "string",
							"name": "countryOfResidence",
							"type": "string"
						},
						{
							"internalType": "string",
							"name": "ageBracket",
							"type": "string"
						},
						{
							"internalType": "bool",
							"name": "isNotBlank",
							"type": "bool"
						}
					],
					"internalType": "struct Applicant",
					"name": "",
					"type": "tuple"
				}
			],
			"stateMutability": "view",
			"type": "function"
		},
		{
			"inputs": [
				{
					"internalType": "uint256",
					"name": "_donationId",
					"type": "uint256"
				}
			],
			"name": "getLatestResultsOfDonation",
			"outputs": [
				{
					"components": [
						{
							"internalType": "uint256",
							"name": "id",
							"type": "uint256"
						},
						{
							"internalType": "uint256",
							"name": "donationId",
							"type": "uint256"
						},
						{
							"internalType": "uint256",
							"name": "applicantId",
							"type": "uint256"
						},
						{
							"internalType": "address",
							"name": "applicantWalletAddress",
							"type": "address"
						},
						{
							"internalType": "uint256",
							"name": "voteCount",
							"type": "uint256"
						},
						{
							"internalType": "bool",
							"name": "isNotBlank",
							"type": "bool"
						}
					],
					"internalType": "struct Result[]",
					"name": "",
					"type": "tuple[]"
				}
			],
			"stateMutability": "view",
			"type": "function"
		},
		{
			"inputs": [
				{
					"internalType": "uint256",
					"name": "_donationId",
					"type": "uint256"
				}
			],
			"name": "getPotentialAmountOfGrantOfDonationInWei",
			"outputs": [
				{
					"internalType": "uint256",
					"name": "",
					"type": "uint256"
				}
			],
			"stateMutability": "view",
			"type": "function"
		},
		{
			"inputs": [
				{
					"internalType": "uint256",
					"name": "_donationId",
					"type": "uint256"
				}
			],
			"name": "getPotentialAmountOfRewardOfDonationInWei",
			"outputs": [
				{
					"internalType": "uint256",
					"name": "",
					"type": "uint256"
				}
			],
			"stateMutability": "view",
			"type": "function"
		},
		{
			"inputs": [
				{
					"internalType": "uint256",
					"name": "_donationId",
					"type": "uint256"
				}
			],
			"name": "getPotentialAmountOfRewardToBekwest",
			"outputs": [
				{
					"internalType": "uint256",
					"name": "",
					"type": "uint256"
				}
			],
			"stateMutability": "view",
			"type": "function"
		},
		{
			"inputs": [
				{
					"internalType": "address",
					"name": "_applicantWalletAddress",
					"type": "address"
				}
			],
			"name": "getTotalAmountOfGrantsGivenToApplicantInWei",
			"outputs": [
				{
					"internalType": "uint256",
					"name": "",
					"type": "uint256"
				}
			],
			"stateMutability": "view",
			"type": "function"
		},
		{
			"inputs": [
				{
					"internalType": "uint256",
					"name": "_voterId",
					"type": "uint256"
				},
				{
					"internalType": "address",
					"name": "_voterWalletAddress",
					"type": "address"
				}
			],
			"name": "getTotalAmountOfRewardsGivenToVoterInWei",
			"outputs": [
				{
					"internalType": "uint256",
					"name": "",
					"type": "uint256"
				}
			],
			"stateMutability": "view",
			"type": "function"
		},
		{
			"inputs": [
				{
					"internalType": "uint256",
					"name": "_donationId",
					"type": "uint256"
				}
			],
			"name": "getTotalAmountOfVotesForDonation",
			"outputs": [
				{
					"internalType": "uint256",
					"name": "",
					"type": "uint256"
				}
			],
			"stateMutability": "view",
			"type": "function"
		},
		{
			"inputs": [
				{
					"internalType": "address",
					"name": "_voterWalletAddress",
					"type": "address"
				}
			],
			"name": "getTotalAmountOfVotesMadeByVoter",
			"outputs": [
				{
					"internalType": "uint256",
					"name": "",
					"type": "uint256"
				}
			],
			"stateMutability": "view",
			"type": "function"
		},
		{
			"inputs": [
				{
					"internalType": "uint256",
					"name": "_donationId",
					"type": "uint256"
				},
				{
					"internalType": "address",
					"name": "_applicantWalletAddress",
					"type": "address"
				}
			],
			"name": "getVoteCountOfApplicantOfDonation",
			"outputs": [
				{
					"internalType": "uint256",
					"name": "",
					"type": "uint256"
				}
			],
			"stateMutability": "view",
			"type": "function"
		},
		{
			"inputs": [
				{
					"internalType": "uint256",
					"name": "_donationId",
					"type": "uint256"
				},
				{
					"internalType": "address",
					"name": "_voterWalletAddress",
					"type": "address"
				}
			],
			"name": "getVoteOfVoterForDonation",
			"outputs": [
				{
					"components": [
						{
							"internalType": "uint256",
							"name": "id",
							"type": "uint256"
						},
						{
							"internalType": "uint256",
							"name": "voterId",
							"type": "uint256"
						},
						{
							"internalType": "uint256",
							"name": "applicantId",
							"type": "uint256"
						},
						{
							"internalType": "uint256",
							"name": "donationId",
							"type": "uint256"
						},
						{
							"internalType": "bool",
							"name": "isRewarded",
							"type": "bool"
						},
						{
							"internalType": "bool",
							"name": "isNotBlank",
							"type": "bool"
						}
					],
					"internalType": "struct Vote",
					"name": "",
					"type": "tuple"
				}
			],
			"stateMutability": "view",
			"type": "function"
		},
		{
			"inputs": [
				{
					"internalType": "address",
					"name": "_voterWalletAddress",
					"type": "address"
				}
			],
			"name": "getVoterByWalletAddress",
			"outputs": [
				{
					"components": [
						{
							"internalType": "uint256",
							"name": "id",
							"type": "uint256"
						},
						{
							"internalType": "address",
							"name": "walletAddress",
							"type": "address"
						},
						{
							"internalType": "string",
							"name": "adjective",
							"type": "string"
						},
						{
							"internalType": "string",
							"name": "gender",
							"type": "string"
						},
						{
							"internalType": "string",
							"name": "countryOfResidence",
							"type": "string"
						},
						{
							"internalType": "bool",
							"name": "isNotBlank",
							"type": "bool"
						}
					],
					"internalType": "struct Voter",
					"name": "",
					"type": "tuple"
				}
			],
			"stateMutability": "view",
			"type": "function"
		},
		{
			"inputs": [
				{
					"internalType": "uint256",
					"name": "_donationId",
					"type": "uint256"
				}
			],
			"name": "getWinningApplicantOfDonation",
			"outputs": [
				{
					"components": [
						{
							"internalType": "uint256",
							"name": "id",
							"type": "uint256"
						},
						{
							"internalType": "uint256",
							"name": "applicantId",
							"type": "uint256"
						},
						{
							"internalType": "address",
							"name": "walletAddress",
							"type": "address"
						},
						{
							"internalType": "string",
							"name": "adjective",
							"type": "string"
						},
						{
							"internalType": "string",
							"name": "gender",
							"type": "string"
						},
						{
							"internalType": "string",
							"name": "countryOfResidence",
							"type": "string"
						},
						{
							"internalType": "string",
							"name": "ageBracket",
							"type": "string"
						},
						{
							"internalType": "bool",
							"name": "isNotBlank",
							"type": "bool"
						}
					],
					"internalType": "struct Applicant",
					"name": "",
					"type": "tuple"
				}
			],
			"stateMutability": "view",
			"type": "function"
		},
		{
			"inputs": [
				{
					"internalType": "uint256",
					"name": "",
					"type": "uint256"
				}
			],
			"name": "granteesOfDonations",
			"outputs": [
				{
					"internalType": "address",
					"name": "",
					"type": "address"
				}
			],
			"stateMutability": "view",
			"type": "function"
		},
		{
			"inputs": [
				{
					"internalType": "uint256",
					"name": "_donationId",
					"type": "uint256"
				},
				{
					"internalType": "uint256",
					"name": "_applicationId",
					"type": "uint256"
				},
				{
					"internalType": "address",
					"name": "_applicantWalletAddress",
					"type": "address"
				},
				{
					"internalType": "address",
					"name": "_voterWalletAddress",
					"type": "address"
				}
			],
			"name": "makeAVote",
			"outputs": [],
			"stateMutability": "nonpayable",
			"type": "function"
		},
		{
			"inputs": [
				{
					"internalType": "uint256",
					"name": "_donationId",
					"type": "uint256"
				},
				{
					"internalType": "uint256",
					"name": "_applicantId",
					"type": "uint256"
				},
				{
					"internalType": "address",
					"name": "_applicantWalletAddress",
					"type": "address"
				},
				{
					"internalType": "string",
					"name": "_pitchStatement",
					"type": "string"
				}
			],
			"name": "makeApplication",
			"outputs": [],
			"stateMutability": "nonpayable",
			"type": "function"
		},
		{
			"inputs": [
				{
					"internalType": "uint256",
					"name": "",
					"type": "uint256"
				}
			],
			"name": "numbersOfApplicationsForDonations",
			"outputs": [
				{
					"internalType": "uint256",
					"name": "",
					"type": "uint256"
				}
			],
			"stateMutability": "view",
			"type": "function"
		},
		{
			"inputs": [
				{
					"internalType": "address",
					"name": "",
					"type": "address"
				}
			],
			"name": "numbersOfApplicationsOfApplicants",
			"outputs": [
				{
					"internalType": "uint256",
					"name": "",
					"type": "uint256"
				}
			],
			"stateMutability": "view",
			"type": "function"
		},
		{
			"inputs": [
				{
					"internalType": "address",
					"name": "",
					"type": "address"
				}
			],
			"name": "numbersOfDonationsCreatedByDonors",
			"outputs": [
				{
					"internalType": "uint256",
					"name": "",
					"type": "uint256"
				}
			],
			"stateMutability": "view",
			"type": "function"
		},
		{
			"inputs": [
				{
					"internalType": "uint256",
					"name": "",
					"type": "uint256"
				}
			],
			"name": "numbersOfVotesForDonations",
			"outputs": [
				{
					"internalType": "uint256",
					"name": "",
					"type": "uint256"
				}
			],
			"stateMutability": "view",
			"type": "function"
		},
		{
			"inputs": [
				{
					"internalType": "address",
					"name": "",
					"type": "address"
				}
			],
			"name": "numbersOfVotesOfVoters",
			"outputs": [
				{
					"internalType": "uint256",
					"name": "",
					"type": "uint256"
				}
			],
			"stateMutability": "view",
			"type": "function"
		},
		{
			"inputs": [
				{
					"internalType": "uint256",
					"name": "",
					"type": "uint256"
				},
				{
					"internalType": "address",
					"name": "",
					"type": "address"
				}
			],
			"name": "votingInDonation",
			"outputs": [
				{
					"internalType": "bool",
					"name": "",
					"type": "bool"
				}
			],
			"stateMutability": "view",
			"type": "function"
		}
	]
}