{
	"data": {
		"bytecode": {
			"linkReferences": {},
			"object": "6080604052600080546001600160a01b0319908116736dce6e80b113607babf97041a0c8c5accc4d1a4e179091556001805490911673874069fa1eb16d44d622f2e0ca25eea172369bc117905534801561005857600080fd5b50614baf806100686000396000f3fe608060405234801561001057600080fd5b50600436106102f15760003560e01c80637ddc914a1161019d578063baf3f49e116100e9578063d9ad496d116100a2578063e35a84411161007c578063e35a8441146109f0578063e926ca4514610a10578063e9da102914610a23578063fae0f23f14610a3657600080fd5b8063d9ad496d14610969578063db8ac18114610999578063de63f432146109ac57600080fd5b8063baf3f49e1461088c578063c1df9e90146108bb578063c3703048146108db578063c64d0d8514610900578063cca050a114610920578063d243b2491461095657600080fd5b80639d30dc6111610156578063ad9adead11610130578063ad9adead146107fd578063b034458014610824578063b0eebd1814610853578063b25142921461086657600080fd5b80639d30dc61146107b7578063a064dda2146107d7578063a382148a146107ea57600080fd5b80637ddc914a146107115780637f868a8e14610731578063818d525414610744578063852c8ea7146107645780638c05623314610777578063904716f61461079757600080fd5b80634464ce951161025c5780636a0988231161021557806378c5ab69116101ef57806378c5ab691461066857806378d618651461067b57806379382f00146106de57806379f19780146106fe57600080fd5b80636a098823146105f15780636e93e5631461062a57806378c38f3a1461065557600080fd5b80634464ce95146104eb5780634d148f401461050b57806360cdd94a14610530578063621d571d146105505780636861f01f146105a357806369db2db3146105d157600080fd5b80632f8e211e116102ae5780632f8e211e146103bb5780633755c2b2146103f957806338a59a07146104495780633a6a44e21461045e5780634217d66f1461049f578063431b710a146104b257600080fd5b806306c49713146102f6578063072df68a146103295780630de0350f146103605780630df63082146103755780631d4d3ba414610388578063213fbf1b146103a8575b600080fd5b610309610304366004613f87565b610a49565b6040516103209b9a99989796959493929190613fed565b60405180910390f35b61035261033736600461408c565b6001600160a01b03166000908152600a602052604090205490565b604051908152602001610320565b61037361036e36600461414a565b610bd8565b005b6103736103833660046141e3565b610ded565b61039b610396366004613f87565b610fe0565b60405161032091906142ad565b6103736103b6366004613f87565b61111a565b6103e96103c93660046142c0565b601260209081526000928352604080842090915290825290205460ff1681565b6040519015158152602001610320565b61040c6104073660046142ec565b611309565b6040805196875260208701959095526001600160a01b039093169385019390935260608401526080830191909152151560a082015260c001610320565b610451611369565b60405161032091906143cc565b61048761046c366004613f87565b600b602052600090815260409020546001600160a01b031681565b6040516001600160a01b039091168152602001610320565b6103526104ad3660046142c0565b61156a565b6103e96104c03660046142c0565b60009182526011602090815260408084206001600160a01b0393909316845291905290205460ff1690565b6103526104f9366004613f87565b60056020526000908152604090205481565b61051e61051936600461408c565b6116a4565b6040516103209695949392919061442e565b61054361053e36600461408c565b6117f8565b6040516103209190614536565b61056361055e366004613f87565b611aac565b6040805197885260208801969096529486019390935260608501919091526001600160a01b0316608084015260a0830152151560c082015260e001610320565b6103e96105b13660046142c0565b601160209081526000928352604080842090915290825290205460ff1681565b6103526105df366004613f87565b60009081526006602052604090205490565b6103e96105ff3660046142c0565b60009182526012602090815260408084206001600160a01b0393909316845291905290205460ff1690565b6103526106383660046142c0565b600e60209081526000928352604080842090915290825290205481565b610373610663366004614549565b611b07565b610352610676366004613f87565b611b5d565b61068e6106893660046142c0565b611ba2565b6040516103209190600060c0820190508251825260208301516020830152604083015160408301526060830151606083015260808301511515608083015260a0830151151560a083015292915050565b6106f16106ec366004613f87565b611c80565b60405161032091906145d6565b61054361070c366004613f87565b611e7e565b61072461071f366004613f87565b611eb0565b604051610320919061462b565b61037361073f36600461463e565b61209f565b61035261075236600461408c565b600a6020526000908152604090205481565b610352610772366004613f87565b61217e565b610352610785366004613f87565b60066020526000908152604090205481565b6107aa6107a5366004613f87565b6121aa565b60405161032091906146b2565b6107ca6107c536600461408c565b6123b4565b6040516103209190614707565b6105436107e5366004613f87565b6125c5565b6106f16107f836600461408c565b61270d565b61081061080b36600461408c565b61291e565b604051610320989796959493929190614794565b6103e961083236600461408c565b6001600160a01b03166000908152600c602052604090206005015460ff1690565b61037361086136600461481a565b612b8e565b610879610874366004613f87565b612cb2565b60405161032097969594939291906148d8565b6103e961089a36600461408c565b6001600160a01b031660009081526002602052604090206005015460ff1690565b6103526108c936600461408c565b60096020526000908152604090205481565b6108ee6108e936600461408c565b612d9b565b60405161032096959493929190614926565b61035261090e36600461408c565b60036020526000908152604090205481565b61035261092e3660046142c0565b6000918252600e602090815260408084206001600160a01b0393909316845291905290205490565b61035261096436600461408c565b612f75565b6103e961097736600461408c565b6001600160a01b03166000908152600760208190526040909120015460ff1690565b6103736109a736600461498c565b613041565b6109bf6109ba366004613f87565b613259565b60408051968752602087019590955293850192909252606084015215156080830152151560a082015260c001610320565b610a036109fe36600461408c565b6132a6565b60405161032091906149d2565b610543610a1e366004613f87565b61342d565b61039b610a31366004614a4a565b6134dd565b610451610a4436600461408c565b61355d565b60048181548110610a5957600080fd5b6000918252602090912060099091020180546001820154600283015460038401805493955091936001600160a01b0390911692909190610a9890614a7f565b80601f0160208091040260200160405190810160405280929190818152602001828054610ac490614a7f565b8015610b115780601f10610ae657610100808354040283529160200191610b11565b820191906000526020600020905b815481529060010190602001808311610af457829003601f168201915b505050505090806004018054610b2690614a7f565b80601f0160208091040260200160405190810160405280929190818152602001828054610b5290614a7f565b8015610b9f5780601f10610b7457610100808354040283529160200191610b9f565b820191906000526020600020905b815481529060010190602001808311610b8257829003601f168201915b505050506005830154600684015460078501546008909501549394919390925060ff80821691610100810482169162010000909104168b565b601454610be3613d2f565b81815260208082018a90526001600160a01b0389166040808401829052606084018a90526080840189905260a0840188905260c0840187905260e0840186905260008581526005845281812081905591825260039092529081205481610c4a826001614acf565b6001600160a01b038c8116600090815260036020908152604080832085905560048054600181018255935288517f8a35acfbc15ff81a39ae7d344fd709f28e8600b4aa8c65c6b64bfe7fe36bd19b6009909402938401908155898301517f8a35acfbc15ff81a39ae7d344fd709f28e8600b4aa8c65c6b64bfe7fe36bd19c850155908901517f8a35acfbc15ff81a39ae7d344fd709f28e8600b4aa8c65c6b64bfe7fe36bd19d840180546001600160a01b0319169190951617909355606088015180519495508894610d43937f8a35acfbc15ff81a39ae7d344fd709f28e8600b4aa8c65c6b64bfe7fe36bd19e01929190910190613d98565b5060808201518051610d5f916004840191602090910190613d98565b5060a0820151600582015560c0820151600682015560e0820151600782015561010080830151600890920180546101208501516101409095015161ffff1990911693151561ff001916939093179315159091029290921762ff00001916620100009115159190910217905560148054906000610dda83614ae7565b9190505550505050505050505050505050565b601654610df8613e1c565b81815260208082018681526001600160a01b0386811660408501908152606085018a815260808601888152600160c0880181905260088054918201815560005287517ff3f7a9fe364faab93b216da50a3214154f22a0a2b415b23a84c8169e8b636ee3600690920291820190815595517ff3f7a9fe364faab93b216da50a3214154f22a0a2b415b23a84c8169e8b636ee482015592517ff3f7a9fe364faab93b216da50a3214154f22a0a2b415b23a84c8169e8b636ee5840180546001600160a01b0319169190951617909355517ff3f7a9fe364faab93b216da50a3214154f22a0a2b415b23a84c8169e8b636ee6820155905180518594610f1e937ff3f7a9fe364faab93b216da50a3214154f22a0a2b415b23a84c8169e8b636ee701920190613d98565b5060a08201516005918201805460c09094015115156101000261ff00199215159290921661ffff1990941693909317179091556000878152602091909152604081205490610f6d826001614acf565b60008981526005602090815260408083208490556001600160a01b038a1683526009909152812054919250610fa3826001614acf565b6001600160a01b03891660009081526009602052604081208290556016805492935090610fcf83614ae7565b919050555050505050505050505050565b610fe8613e1c565b60088281548110610ffb57610ffb614b00565b90600052602060002090600602016040518060e001604052908160008201548152602001600182015481526020016002820160009054906101000a90046001600160a01b03166001600160a01b03166001600160a01b031681526020016003820154815260200160048201805461107190614a7f565b80601f016020809104026020016040519081016040528092919081815260200182805461109d90614a7f565b80156110ea5780601f106110bf576101008083540402835291602001916110ea565b820191906000526020600020905b8154815290600101906020018083116110cd57829003601f168201915b50505091835250506005919091015460ff8082161515602084015261010090910416151560409091015292915050565b60006008828154811061112f5761112f614b00565b90600052602060002090600602016040518060e001604052908160008201548152602001600182015481526020016002820160009054906101000a90046001600160a01b03166001600160a01b03166001600160a01b03168152602001600382015481526020016004820180546111a590614a7f565b80601f01602080910402602001604051908101604052809291908181526020018280546111d190614a7f565b801561121e5780601f106111f35761010080835404028352916020019161121e565b820191906000526020600020905b81548152906001019060200180831161120157829003601f168201915b50505091835250506005919091015460ff80821615156020840152610100909104161515604090910152600160a08201526008805491925082918490811061126857611268614b00565b600091825260209182902083516006929092020190815582820151600182015560408301516002820180546001600160a01b0319166001600160a01b03909216919091179055606083015160038201556080830151805191926112d392600485019290910190613d98565b5060a08201516005909101805460c09093015115156101000261ff00199215159290921661ffff19909316929092171790555050565b6010602052816000526040600020818154811061132557600080fd5b60009182526020909120600690910201805460018201546002830154600384015460048501546005909501549396509194506001600160a01b031692909160ff1686565b60606004805480602002602001604051908101604052809291908181526020016000905b828210156115615760008481526020908190206040805161016081018252600986029092018054835260018101549383019390935260028301546001600160a01b0316908201526003820180549192916060840191906113ec90614a7f565b80601f016020809104026020016040519081016040528092919081815260200182805461141890614a7f565b80156114655780601f1061143a57610100808354040283529160200191611465565b820191906000526020600020905b81548152906001019060200180831161144857829003601f168201915b5050505050815260200160048201805461147e90614a7f565b80601f01602080910402602001604051908101604052809291908181526020018280546114aa90614a7f565b80156114f75780601f106114cc576101008083540402835291602001916114f7565b820191906000526020600020905b8154815290600101906020018083116114da57829003601f168201915b50505091835250506005820154602080830191909152600683015460408301526007830154606083015260089092015460ff8082161515608084015261010082048116151560a08401526201000090910416151560c090910152908252600192909201910161138d565b50505050905090565b6001600160a01b038116600090815260106020908152604080832080548251818502810185019093528083528493849084015b828210156116135760008481526020908190206040805160c08101825260068602909201805483526001808201548486015260028201546001600160a01b03169284019290925260038101546060840152600481015460808401526005015460ff16151560a0830152908352909201910161159d565b5050505090506000805b825181101561169b57600083828151811061163a5761163a614b00565b6020026020010151905086816020015114801561166c5750856001600160a01b031681604001516001600160a01b0316145b156116885760808101516116809084614acf565b92505061169b565b508061169381614ae7565b91505061161d565b50949350505050565b600260208190526000918252604090912080546001820154928201805491936001600160a01b031692916116d790614a7f565b80601f016020809104026020016040519081016040528092919081815260200182805461170390614a7f565b80156117505780601f1061172557610100808354040283529160200191611750565b820191906000526020600020905b81548152906001019060200180831161173357829003601f168201915b50505050509080600301805461176590614a7f565b80601f016020809104026020016040519081016040528092919081815260200182805461179190614a7f565b80156117de5780601f106117b3576101008083540402835291602001916117de565b820191906000526020600020905b8154815290600101906020018083116117c157829003601f168201915b50505050600483015460059093015491929160ff16905086565b611800613e66565b6001600160a01b038083166000908152600760209081526040918290208251610100810184528154815260018201549281019290925260028101549093169181019190915260038201805491929160608401919061185d90614a7f565b80601f016020809104026020016040519081016040528092919081815260200182805461188990614a7f565b80156118d65780601f106118ab576101008083540402835291602001916118d6565b820191906000526020600020905b8154815290600101906020018083116118b957829003601f168201915b505050505081526020016004820180546118ef90614a7f565b80601f016020809104026020016040519081016040528092919081815260200182805461191b90614a7f565b80156119685780601f1061193d57610100808354040283529160200191611968565b820191906000526020600020905b81548152906001019060200180831161194b57829003601f168201915b5050505050815260200160058201805461198190614a7f565b80601f01602080910402602001604051908101604052809291908181526020018280546119ad90614a7f565b80156119fa5780601f106119cf576101008083540402835291602001916119fa565b820191906000526020600020905b8154815290600101906020018083116119dd57829003601f168201915b50505050508152602001600682018054611a1390614a7f565b80601f0160208091040260200160405190810160405280929190818152602001828054611a3f90614a7f565b8015611a8c5780601f10611a6157610100808354040283529160200191611a8c565b820191906000526020600020905b815481529060010190602001808311611a6f57829003601f168201915b50505091835250506007919091015460ff16151560209091015292915050565b600f8181548110611abc57600080fd5b600091825260209091206007909102018054600182015460028301546003840154600485015460058601546006909601549496509294919390926001600160a01b0316919060ff1687565b601754611b12613eb6565b8181526001600160a01b0386166020820152604081018590526060810184905260808101839052600160a082015260178054906000611b5083614ae7565b9190505550505050505050565b600081815260066020526040812054806064611b7885611eb0565b60e00151611b8790600a614b16565b611b919190614b35565b611b9b9190614b35565b9392505050565b611baa613ef7565b611bb2613ef7565b6000611bbd846123b4565b905060005b600d54811015611c76576000600d8281548110611be157611be1614b00565b60009182526020918290206040805160c08101825260059093029091018054835260018101549383019390935260028301549082015260038201546060820181905260049092015460ff8082161515608084015261010090910416151560a0820152915087148015611c57575082516020820151145b15611c63579250611c76565b5080611c6e81614ae7565b915050611bc2565b5090949350505050565b6000818152600560205260408120546060918167ffffffffffffffff811115611cab57611cab6140a7565b604051908082528060200260200182016040528015611ce457816020015b611cd1613e1c565b815260200190600190039081611cc95790505b5090506000805b600854811015611c7657600060088281548110611d0a57611d0a614b00565b90600052602060002090600602016040518060e001604052908160008201548152602001600182015481526020016002820160009054906101000a90046001600160a01b03166001600160a01b03166001600160a01b0316815260200160038201548152602001600482018054611d8090614a7f565b80601f0160208091040260200160405190810160405280929190818152602001828054611dac90614a7f565b8015611df95780601f10611dce57610100808354040283529160200191611df9565b820191906000526020600020905b815481529060010190602001808311611ddc57829003601f168201915b50505091835250506005919091015460ff808216151560208401526101009091041615156040909101526060810151909150879003611e6b5780848481518110611e4557611e45614b00565b60200260200101819052508280611e5b90614ae7565b935050848303611e6b5750611c76565b5080611e7681614ae7565b915050611ceb565b611e86613e66565b6000828152600b60205260408120546001600160a01b031690611ea8826117f8565b949350505050565b611eb8613d2f565b60048281548110611ecb57611ecb614b00565b90600052602060002090600902016040518061016001604052908160008201548152602001600182015481526020016002820160009054906101000a90046001600160a01b03166001600160a01b03166001600160a01b03168152602001600382018054611f3890614a7f565b80601f0160208091040260200160405190810160405280929190818152602001828054611f6490614a7f565b8015611fb15780601f10611f8657610100808354040283529160200191611fb1565b820191906000526020600020905b815481529060010190602001808311611f9457829003601f168201915b50505050508152602001600482018054611fca90614a7f565b80601f0160208091040260200160405190810160405280929190818152602001828054611ff690614a7f565b80156120435780601f1061201857610100808354040283529160200191612043565b820191906000526020600020905b81548152906001019060200180831161202657829003601f168201915b505050918352505060058201546020820152600682015460408201526007820154606082015260089091015460ff8082161515608084015261010082048116151560a08401526201000090910416151560c09091015292915050565b6013546120aa613f31565b8181526001600160a01b038581166020808401828152604080860189815260608701899052600060808801819052600160a08901819052958152600280865292902087518155925194830180546001600160a01b031916959096169490941790945591518051859461212193908501920190613d98565b506060820151805161213d916003840191602090910190613d98565b506080820151600482015560a0909101516005909101805460ff19169115159190911790556013805490600061217283614ae7565b91905055505050505050565b6000606461218b83611eb0565b60e0015161219a906050614b16565b6121a49190614b35565b92915050565b6000818152600560205260408120546060918167ffffffffffffffff8111156121d5576121d56140a7565b60405190808252806020026020018201604052801561220e57816020015b6121fb613e66565b8152602001906001900390816121f35790505b5090506000805b600854811015611c765760006008828154811061223457612234614b00565b90600052602060002090600602016040518060e001604052908160008201548152602001600182015481526020016002820160009054906101000a90046001600160a01b03166001600160a01b03166001600160a01b03168152602001600382015481526020016004820180546122aa90614a7f565b80601f01602080910402602001604051908101604052809291908181526020018280546122d690614a7f565b80156123235780601f106122f857610100808354040283529160200191612323565b820191906000526020600020905b81548152906001019060200180831161230657829003601f168201915b50505091835250506005919091015460ff8082161515602084015261010090910416151560409091015260608101519091508790036123a15761236981604001516117f8565b84848151811061237b5761237b614b00565b6020026020010181905250828061239190614ae7565b9350508483036123a15750611c76565b50806123ac81614ae7565b915050612215565b6123bc613eb6565b6001600160a01b038083166000908152600c6020908152604091829020825160c08101845281548152600182015490941691840191909152600281018054919284019161240890614a7f565b80601f016020809104026020016040519081016040528092919081815260200182805461243490614a7f565b80156124815780601f1061245657610100808354040283529160200191612481565b820191906000526020600020905b81548152906001019060200180831161246457829003601f168201915b5050505050815260200160038201805461249a90614a7f565b80601f01602080910402602001604051908101604052809291908181526020018280546124c690614a7f565b80156125135780601f106124e857610100808354040283529160200191612513565b820191906000526020600020905b8154815290600101906020018083116124f657829003601f168201915b5050505050815260200160048201805461252c90614a7f565b80601f016020809104026020016040519081016040528092919081815260200182805461255890614a7f565b80156125a55780601f1061257a576101008083540402835291602001916125a5565b820191906000526020600020905b81548152906001019060200180831161258857829003601f168201915b50505091835250506005919091015460ff16151560209091015292915050565b6125cd613e66565b6000600883815481106125e2576125e2614b00565b90600052602060002090600602016040518060e001604052908160008201548152602001600182015481526020016002820160009054906101000a90046001600160a01b03166001600160a01b03166001600160a01b031681526020016003820154815260200160048201805461265890614a7f565b80601f016020809104026020016040519081016040528092919081815260200182805461268490614a7f565b80156126d15780601f106126a6576101008083540402835291602001916126d1565b820191906000526020600020905b8154815290600101906020018083116126b457829003601f168201915b50505091835250506005919091015460ff80821615156020840152610100909104161515604091820152810151909150600090611ea8906117f8565b6001600160a01b0381166000908152600960205260408120546060918167ffffffffffffffff811115612742576127426140a7565b60405190808252806020026020018201604052801561277b57816020015b612768613e1c565b8152602001906001900390816127605790505b5090506000805b600854811015611c76576000600882815481106127a1576127a1614b00565b90600052602060002090600602016040518060e001604052908160008201548152602001600182015481526020016002820160009054906101000a90046001600160a01b03166001600160a01b03166001600160a01b031681526020016003820154815260200160048201805461281790614a7f565b80601f016020809104026020016040519081016040528092919081815260200182805461284390614a7f565b80156128905780601f1061286557610100808354040283529160200191612890565b820191906000526020600020905b81548152906001019060200180831161287357829003601f168201915b50505091835250506005919091015460ff808216151560208401526101009091041615156040918201528101519091506001600160a01b0380891691160361290b57808484815181106128e5576128e5614b00565b602002602001018190525082806128fb90614ae7565b93505084830361290b5750611c76565b508061291681614ae7565b915050612782565b6007602052600090815260409020805460018201546002830154600384018054939492936001600160a01b03909216929161295890614a7f565b80601f016020809104026020016040519081016040528092919081815260200182805461298490614a7f565b80156129d15780601f106129a6576101008083540402835291602001916129d1565b820191906000526020600020905b8154815290600101906020018083116129b457829003601f168201915b5050505050908060040180546129e690614a7f565b80601f0160208091040260200160405190810160405280929190818152602001828054612a1290614a7f565b8015612a5f5780601f10612a3457610100808354040283529160200191612a5f565b820191906000526020600020905b815481529060010190602001808311612a4257829003601f168201915b505050505090806005018054612a7490614a7f565b80601f0160208091040260200160405190810160405280929190818152602001828054612aa090614a7f565b8015612aed5780601f10612ac257610100808354040283529160200191612aed565b820191906000526020600020905b815481529060010190602001808311612ad057829003601f168201915b505050505090806006018054612b0290614a7f565b80601f0160208091040260200160405190810160405280929190818152602001828054612b2e90614a7f565b8015612b7b5780601f10612b5057610100808354040283529160200191612b7b565b820191906000526020600020905b815481529060010190602001808311612b5e57829003601f168201915b5050506007909301549192505060ff1688565b601554612b99613e66565b8181526001600160a01b038781166040808401828152606085018a8152608086018a905260a0860189905260c08601889052600160e087018190526000948552600760209081529390942086518155838701519481019490945590516002840180546001600160a01b0319169190951617909355915180518493612c24926003850192910190613d98565b5060808201518051612c40916004840191602090910190613d98565b5060a08201518051612c5c916005840191602090910190613d98565b5060c08201518051612c78916006840191602090910190613d98565b5060e091909101516007909101805460ff191691151591909117905560158054906000612ca483614ae7565b919050555050505050505050565b60088181548110612cc257600080fd5b60009182526020909120600690910201805460018201546002830154600384015460048501805494965092946001600160a01b0390921693909290612d0690614a7f565b80601f0160208091040260200160405190810160405280929190818152602001828054612d3290614a7f565b8015612d7f5780601f10612d5457610100808354040283529160200191612d7f565b820191906000526020600020905b815481529060010190602001808311612d6257829003601f168201915b5050506005909301549192505060ff8082169161010090041687565b600c6020526000908152604090208054600182015460028301805492936001600160a01b0390921692612dcd90614a7f565b80601f0160208091040260200160405190810160405280929190818152602001828054612df990614a7f565b8015612e465780601f10612e1b57610100808354040283529160200191612e46565b820191906000526020600020905b815481529060010190602001808311612e2957829003601f168201915b505050505090806003018054612e5b90614a7f565b80601f0160208091040260200160405190810160405280929190818152602001828054612e8790614a7f565b8015612ed45780601f10612ea957610100808354040283529160200191612ed4565b820191906000526020600020905b815481529060010190602001808311612eb757829003601f168201915b505050505090806004018054612ee990614a7f565b80601f0160208091040260200160405190810160405280929190818152602001828054612f1590614a7f565b8015612f625780601f10612f3757610100808354040283529160200191612f62565b820191906000526020600020905b815481529060010190602001808311612f4557829003601f168201915b5050506005909301549192505060ff1686565b600080805b600f5481101561303a576000600f8281548110612f9957612f99614b00565b60009182526020918290206040805160e0810182526007909302909101805483526001810154938301939093526002830154908201526003820154606082015260048201546001600160a01b0390811660808301819052600584015460a084015260069093015460ff16151560c0830152909250861690036130275760a08101516130249084614acf565b92505b508061303281614ae7565b915050612f7a565b5092915050565b60008481526012602090815260408083206001600160a01b038516845290915290205460ff161561307157600080fd5b600061307c85611eb0565b9050600061308985610fe0565b90508161012001511561309b57600080fd5b60185460006130a9856123b4565b90506130b3613ef7565b828152815160208083019190915284810151604080840191909152606083018b9052600160a08401819052875160008181526012855283812085880180516001600160a01b03168352955292909220805460ff19169091179055905161311a908290613827565b60008181526006602052604081205490613135826001614acf565b6000848152600660209081526040808320849055888201516001600160a01b03168352600a90915281205491925061316e826001614acf565b905080600a600089602001516001600160a01b03166001600160a01b03168152602001908152602001600020819055506000600e600087815260200190815260200160002060008e6001600160a01b03166001600160a01b0316815260200190815260200160002054905060008160016131e89190614acf565b905080600e600089815260200190815260200160002060008f6001600160a01b03166001600160a01b03168152602001908152602001600020819055508b60c00151850361324757613239876139ae565b613247878c60200151613ac6565b50505050505050505050505050505050565b600d818154811061326957600080fd5b6000918252602090912060059091020180546001820154600283015460038401546004909401549294509092909160ff8082169161010090041686565b6132ae613f31565b6001600160a01b03808316600090815260026020818152604092839020835160c08101855281548152600182015490951691850191909152908101805491928401916132f990614a7f565b80601f016020809104026020016040519081016040528092919081815260200182805461332590614a7f565b80156133725780601f1061334757610100808354040283529160200191613372565b820191906000526020600020905b81548152906001019060200180831161335557829003601f168201915b5050505050815260200160038201805461338b90614a7f565b80601f01602080910402602001604051908101604052809291908181526020018280546133b790614a7f565b80156134045780601f106133d957610100808354040283529160200191613404565b820191906000526020600020905b8154815290600101906020018083116133e757829003601f168201915b50505091835250506004820154602082015260059091015460ff16151560409091015292915050565b613435613e66565b600061343f613e66565b600061344a856121aa565b905060005b8151811015611c7657600082828151811061346c5761346c614b00565b6020908102919091018101516000898152600e83526040808220818401516001600160a01b031683529093529190912054909150858111156134c8578095508383815181106134bd576134bd614b00565b602002602001015194505b505080806134d590614ae7565b91505061344f565b6134e5613e1c565b60006134f08361270d565b90506134fa613e1c565b60005b825181101561355357600083828151811061351a5761351a614b00565b602002602001015190508781606001511480156135375750805187145b15613540578092505b508061354b81614ae7565b9150506134fd565b5095945050505050565b6001600160a01b0381166000908152600360205260408120546060918167ffffffffffffffff811115613592576135926140a7565b6040519080825280602002602001820160405280156135cb57816020015b6135b8613d2f565b8152602001906001900390816135b05790505b5090506000805b600454811015611c76576000600482815481106135f1576135f1614b00565b90600052602060002090600902016040518061016001604052908160008201548152602001600182015481526020016002820160009054906101000a90046001600160a01b03166001600160a01b03166001600160a01b0316815260200160038201805461365e90614a7f565b80601f016020809104026020016040519081016040528092919081815260200182805461368a90614a7f565b80156136d75780601f106136ac576101008083540402835291602001916136d7565b820191906000526020600020905b8154815290600101906020018083116136ba57829003601f168201915b505050505081526020016004820180546136f090614a7f565b80601f016020809104026020016040519081016040528092919081815260200182805461371c90614a7f565b80156137695780601f1061373e57610100808354040283529160200191613769565b820191906000526020600020905b81548152906001019060200180831161374c57829003601f168201915b50505091835250506005820154602082015260068201546040808301919091526007830154606083015260089092015460ff8082161515608084015261010082048116151560a08401526201000090910416151560c0909101528101519091506001600160a01b0380891691160361381457808484815181106137ee576137ee614b00565b6020026020010181905250828061380490614ae7565b9350508483036138145750611c76565b508061381f81614ae7565b9150506135d2565b601a546000613835836123b4565b9050600061384285611b5d565b90506138886040518060c00160405280600081526020016000815260200160006001600160a01b0316815260200160008152602001600081526020016000151581525090565b83815282516020808301918252808501516001600160a01b039081166040808601918252606086018b815260808701888152600160a089018181528d8716600081815260108a52868120805480860182559082529990208b516006909a020198895598518883015594516002880180546001600160a01b031916918816919091179055915160038701555160048087019190915592516005909501805460ff1916951515959095179094559254925163a9059cbb60e01b81529081019390935260248301859052169063a9059cbb906044016020604051808303816000875af1158015613979573d6000803e3d6000fd5b505050506040513d601f19601f8201168201806040525081019061399d9190614b57565b50601a8054906000611b5083614ae7565b60006139b982611eb0565b6001610120820152600480549192508291849081106139da576139da614b00565b600091825260209182902083516009929092020190815582820151600182015560408301516002820180546001600160a01b0319166001600160a01b03909216919091179055606083015180519192613a3b92600385019290910190613d98565b5060808201518051613a57916004840191602090910190613d98565b5060a0820151600582015560c0820151600682015560e0820151600782015561010080830151600890920180546101208501516101409095015161ffff1990911693151561ff001916939093179315159091029290921762ff0000191662010000911515919091021790555050565b6000613ad18361342d565b90506000613ade8461217e565b905060006019549050613b326040518060e001604052806000815260200160008152602001600081526020016000815260200160006001600160a01b03168152602001600081526020016000151581525090565b8181526020810186815260608201868152604086810180516001600160a01b039081166080870190815260a08701898152600160c08901818152600f805480840182556000919091528a517f8d1108e10bcb7c27dddfc02ed9d693a074039d026cf4ea4240b40f7d581ac80260079092029182015598517f8d1108e10bcb7c27dddfc02ed9d693a074039d026cf4ea4240b40f7d581ac8038a0155868a01517f8d1108e10bcb7c27dddfc02ed9d693a074039d026cf4ea4240b40f7d581ac8048a015596517f8d1108e10bcb7c27dddfc02ed9d693a074039d026cf4ea4240b40f7d581ac80589015591517f8d1108e10bcb7c27dddfc02ed9d693a074039d026cf4ea4240b40f7d581ac806880180546001600160a01b031916918516919091179055517f8d1108e10bcb7c27dddfc02ed9d693a074039d026cf4ea4240b40f7d581ac80787015593517f8d1108e10bcb7c27dddfc02ed9d693a074039d026cf4ea4240b40f7d581ac808909501805460ff19169515159590951790945591549151905163a9059cbb60e01b815290831660048201526024810186905291169063a9059cbb906044016020604051808303816000875af1158015613cfa573d6000803e3d6000fd5b505050506040513d601f19601f82011682018060405250810190613d1e9190614b57565b5060198054906000611b5083614ae7565b604051806101600160405280600081526020016000815260200160006001600160a01b0316815260200160608152602001606081526020016000815260200160008152602001600081526020016000151581526020016000151581526020016000151581525090565b828054613da490614a7f565b90600052602060002090601f016020900481019282613dc65760008555613e0c565b82601f10613ddf57805160ff1916838001178555613e0c565b82800160010185558215613e0c579182015b82811115613e0c578251825591602001919060010190613df1565b50613e18929150613f72565b5090565b6040518060e00160405280600081526020016000815260200160006001600160a01b0316815260200160008152602001606081526020016000151581526020016000151581525090565b604051806101000160405280600081526020016000815260200160006001600160a01b03168152602001606081526020016060815260200160608152602001606081526020016000151581525090565b6040518060c001604052806000815260200160006001600160a01b031681526020016060815260200160608152602001606081526020016000151581525090565b6040518060c00160405280600081526020016000815260200160008152602001600081526020016000151581526020016000151581525090565b6040518060c001604052806000815260200160006001600160a01b031681526020016060815260200160608152602001600081526020016000151581525090565b5b80821115613e185760008155600101613f73565b600060208284031215613f9957600080fd5b5035919050565b6000815180845260005b81811015613fc657602081850181015186830182015201613faa565b81811115613fd8576000602083870101525b50601f01601f19169290920160200192915050565b8b8152602081018b90526001600160a01b038a1660408201526101606060820181905260009061401f8382018c613fa0565b90508281036080840152614033818b613fa0565b60a0840199909952505060c081019590955260e0850193909352901515610100840152151561012083015215156101409091015295945050505050565b80356001600160a01b038116811461408757600080fd5b919050565b60006020828403121561409e57600080fd5b611b9b82614070565b634e487b7160e01b600052604160045260246000fd5b600082601f8301126140ce57600080fd5b813567ffffffffffffffff808211156140e9576140e96140a7565b604051601f8301601f19908116603f01168101908282118183101715614111576141116140a7565b8160405283815286602085880101111561412a57600080fd5b836020870160208301376000602085830101528094505050505092915050565b600080600080600080600060e0888a03121561416557600080fd5b8735965061417560208901614070565b9550604088013567ffffffffffffffff8082111561419257600080fd5b61419e8b838c016140bd565b965060608a01359150808211156141b457600080fd5b506141c18a828b016140bd565b979a969950949760808101359660a0820135965060c090910135945092505050565b600080600080608085870312156141f957600080fd5b843593506020850135925061421060408601614070565b9150606085013567ffffffffffffffff81111561422c57600080fd5b614238878288016140bd565b91505092959194509250565b805182526020810151602083015260018060a01b036040820151166040830152606081015160608301526000608082015160e0608085015261428960e0850182613fa0565b905060a0830151151560a085015260c0830151151560c08501528091505092915050565b602081526000611b9b6020830184614244565b600080604083850312156142d357600080fd5b823591506142e360208401614070565b90509250929050565b600080604083850312156142ff57600080fd5b61430883614070565b946020939093013593505050565b60006101608251845260208301516020850152604083015161434360408601826001600160a01b03169052565b50606083015181606086015261435b82860182613fa0565b915050608083015184820360808601526143758282613fa0565b91505060a083015160a085015260c083015160c085015260e083015160e0850152610100808401516143aa8287018215159052565b5050610120838101511515908501526101408084015180151582870152611c76565b6000602080830181845280855180835260408601915060408160051b870101925083870160005b8281101561442157603f1988860301845261440f858351614316565b945092850192908501906001016143f3565b5092979650505050505050565b8681526001600160a01b038616602082015260c06040820181905260009061445890830187613fa0565b828103606084015261446a8187613fa0565b6080840195909552505090151560a090910152949350505050565b6000610100825184526020830151602085015260408301516144b260408601826001600160a01b03169052565b5060608301518160608601526144ca82860182613fa0565b915050608083015184820360808601526144e48282613fa0565b91505060a083015184820360a08601526144fe8282613fa0565b91505060c083015184820360c08601526145188282613fa0565b91505060e083015161452e60e086018215159052565b509392505050565b602081526000611b9b6020830184614485565b6000806000806080858703121561455f57600080fd5b61456885614070565b9350602085013567ffffffffffffffff8082111561458557600080fd5b614591888389016140bd565b945060408701359150808211156145a757600080fd5b6145b3888389016140bd565b935060608701359150808211156145c957600080fd5b50614238878288016140bd565b6000602080830181845280855180835260408601915060408160051b870101925083870160005b8281101561442157603f19888603018452614619858351614244565b945092850192908501906001016145fd565b602081526000611b9b6020830184614316565b60008060006060848603121561465357600080fd5b61465c84614070565b9250602084013567ffffffffffffffff8082111561467957600080fd5b614685878388016140bd565b9350604086013591508082111561469b57600080fd5b506146a8868287016140bd565b9150509250925092565b6000602080830181845280855180835260408601915060408160051b870101925083870160005b8281101561442157603f198886030184526146f5858351614485565b945092850192908501906001016146d9565b602081528151602082015260018060a01b0360208301511660408201526000604083015160c0606084015261473f60e0840182613fa0565b90506060840151601f198085840301608086015261475d8383613fa0565b925060808601519150808584030160a08601525061477b8282613fa0565b91505060a0840151151560c08401528091505092915050565b888152602081018890526001600160a01b0387166040820152610100606082018190526000906147c683820189613fa0565b905082810360808401526147da8188613fa0565b905082810360a08401526147ee8187613fa0565b905082810360c08401526148028186613fa0565b91505082151560e08301529998505050505050505050565b600080600080600060a0868803121561483257600080fd5b61483b86614070565b9450602086013567ffffffffffffffff8082111561485857600080fd5b61486489838a016140bd565b9550604088013591508082111561487a57600080fd5b61488689838a016140bd565b9450606088013591508082111561489c57600080fd5b6148a889838a016140bd565b935060808801359150808211156148be57600080fd5b506148cb888289016140bd565b9150509295509295909350565b87815286602082015260018060a01b038616604082015284606082015260e06080820152600061490b60e0830186613fa0565b93151560a08301525090151560c09091015295945050505050565b8681526001600160a01b038616602082015260c06040820181905260009061495090830187613fa0565b82810360608401526149628187613fa0565b905082810360808401526149768186613fa0565b91505082151560a0830152979650505050505050565b600080600080608085870312156149a257600080fd5b84359350602085013592506149b960408601614070565b91506149c760608601614070565b905092959194509250565b602081528151602082015260018060a01b0360208301511660408201526000604083015160c06060840152614a0a60e0840182613fa0565b90506060840151601f19848303016080850152614a278282613fa0565b915050608084015160a084015260a0840151151560c08401528091505092915050565b600080600060608486031215614a5f57600080fd5b8335925060208401359150614a7660408501614070565b90509250925092565b600181811c90821680614a9357607f821691505b602082108103614ab357634e487b7160e01b600052602260045260246000fd5b50919050565b634e487b7160e01b600052601160045260246000fd5b60008219821115614ae257614ae2614ab9565b500190565b600060018201614af957614af9614ab9565b5060010190565b634e487b7160e01b600052603260045260246000fd5b6000816000190483118215151615614b3057614b30614ab9565b500290565b600082614b5257634e487b7160e01b600052601260045260246000fd5b500490565b600060208284031215614b6957600080fd5b81518015158114611b9b57600080fdfea26469706673582212203840132c70ddc9ec08ff02e34de14aed4e330191641cc661c3364b880492a94d64736f6c634300080d0033",
			"opcodes": "PUSH1 0x80 PUSH1 0x40 MSTORE PUSH1 0x0 DUP1 SLOAD PUSH1 0x1 PUSH1 0x1 PUSH1 0xA0 SHL SUB NOT SWAP1 DUP2 AND PUSH20 0x6DCE6E80B113607BABF97041A0C8C5ACCC4D1A4E OR SWAP1 SWAP2 SSTORE PUSH1 0x1 DUP1 SLOAD SWAP1 SWAP2 AND PUSH20 0x874069FA1EB16D44D622F2E0CA25EEA172369BC1 OR SWAP1 SSTORE CALLVALUE DUP1 ISZERO PUSH2 0x58 JUMPI PUSH1 0x0 DUP1 REVERT JUMPDEST POP PUSH2 0x4BAF DUP1 PUSH2 0x68 PUSH1 0x0 CODECOPY PUSH1 0x0 RETURN INVALID PUSH1 0x80 PUSH1 0x40 MSTORE CALLVALUE DUP1 ISZERO PUSH2 0x10 JUMPI PUSH1 0x0 DUP1 REVERT JUMPDEST POP PUSH1 0x4 CALLDATASIZE LT PUSH2 0x2F1 JUMPI PUSH1 0x0 CALLDATALOAD PUSH1 0xE0 SHR DUP1 PUSH4 0x7DDC914A GT PUSH2 0x19D JUMPI DUP1 PUSH4 0xBAF3F49E GT PUSH2 0xE9 JUMPI DUP1 PUSH4 0xD9AD496D GT PUSH2 0xA2 JUMPI DUP1 PUSH4 0xE35A8441 GT PUSH2 0x7C JUMPI DUP1 PUSH4 0xE35A8441 EQ PUSH2 0x9F0 JUMPI DUP1 PUSH4 0xE926CA45 EQ PUSH2 0xA10 JUMPI DUP1 PUSH4 0xE9DA1029 EQ PUSH2 0xA23 JUMPI DUP1 PUSH4 0xFAE0F23F EQ PUSH2 0xA36 JUMPI PUSH1 0x0 DUP1 REVERT JUMPDEST DUP1 PUSH4 0xD9AD496D EQ PUSH2 0x969 JUMPI DUP1 PUSH4 0xDB8AC181 EQ PUSH2 0x999 JUMPI DUP1 PUSH4 0xDE63F432 EQ PUSH2 0x9AC JUMPI PUSH1 0x0 DUP1 REVERT JUMPDEST DUP1 PUSH4 0xBAF3F49E EQ PUSH2 0x88C JUMPI DUP1 PUSH4 0xC1DF9E90 EQ PUSH2 0x8BB JUMPI DUP1 PUSH4 0xC3703048 EQ PUSH2 0x8DB JUMPI DUP1 PUSH4 0xC64D0D85 EQ PUSH2 0x900 JUMPI DUP1 PUSH4 0xCCA050A1 EQ PUSH2 0x920 JUMPI DUP1 PUSH4 0xD243B249 EQ PUSH2 0x956 JUMPI PUSH1 0x0 DUP1 REVERT JUMPDEST DUP1 PUSH4 0x9D30DC61 GT PUSH2 0x156 JUMPI DUP1 PUSH4 0xAD9ADEAD GT PUSH2 0x130 JUMPI DUP1 PUSH4 0xAD9ADEAD EQ PUSH2 0x7FD JUMPI DUP1 PUSH4 0xB0344580 EQ PUSH2 0x824 JUMPI DUP1 PUSH4 0xB0EEBD18 EQ PUSH2 0x853 JUMPI DUP1 PUSH4 0xB2514292 EQ PUSH2 0x866 JUMPI PUSH1 0x0 DUP1 REVERT JUMPDEST DUP1 PUSH4 0x9D30DC61 EQ PUSH2 0x7B7 JUMPI DUP1 PUSH4 0xA064DDA2 EQ PUSH2 0x7D7 JUMPI DUP1 PUSH4 0xA382148A EQ PUSH2 0x7EA JUMPI PUSH1 0x0 DUP1 REVERT JUMPDEST DUP1 PUSH4 0x7DDC914A EQ PUSH2 0x711 JUMPI DUP1 PUSH4 0x7F868A8E EQ PUSH2 0x731 JUMPI DUP1 PUSH4 0x818D5254 EQ PUSH2 0x744 JUMPI DUP1 PUSH4 0x852C8EA7 EQ PUSH2 0x764 JUMPI DUP1 PUSH4 0x8C056233 EQ PUSH2 0x777 JUMPI DUP1 PUSH4 0x904716F6 EQ PUSH2 0x797 JUMPI PUSH1 0x0 DUP1 REVERT JUMPDEST DUP1 PUSH4 0x4464CE95 GT PUSH2 0x25C JUMPI DUP1 PUSH4 0x6A098823 GT PUSH2 0x215 JUMPI DUP1 PUSH4 0x78C5AB69 GT PUSH2 0x1EF JUMPI DUP1 PUSH4 0x78C5AB69 EQ PUSH2 0x668 JUMPI DUP1 PUSH4 0x78D61865 EQ PUSH2 0x67B JUMPI DUP1 PUSH4 0x79382F00 EQ PUSH2 0x6DE JUMPI DUP1 PUSH4 0x79F19780 EQ PUSH2 0x6FE JUMPI PUSH1 0x0 DUP1 REVERT JUMPDEST DUP1 PUSH4 0x6A098823 EQ PUSH2 0x5F1 JUMPI DUP1 PUSH4 0x6E93E563 EQ PUSH2 0x62A JUMPI DUP1 PUSH4 0x78C38F3A EQ PUSH2 0x655 JUMPI PUSH1 0x0 DUP1 REVERT JUMPDEST DUP1 PUSH4 0x4464CE95 EQ PUSH2 0x4EB JUMPI DUP1 PUSH4 0x4D148F40 EQ PUSH2 0x50B JUMPI DUP1 PUSH4 0x60CDD94A EQ PUSH2 0x530 JUMPI DUP1 PUSH4 0x621D571D EQ PUSH2 0x550 JUMPI DUP1 PUSH4 0x6861F01F EQ PUSH2 0x5A3 JUMPI DUP1 PUSH4 0x69DB2DB3 EQ PUSH2 0x5D1 JUMPI PUSH1 0x0 DUP1 REVERT JUMPDEST DUP1 PUSH4 0x2F8E211E GT PUSH2 0x2AE JUMPI DUP1 PUSH4 0x2F8E211E EQ PUSH2 0x3BB JUMPI DUP1 PUSH4 0x3755C2B2 EQ PUSH2 0x3F9 JUMPI DUP1 PUSH4 0x38A59A07 EQ PUSH2 0x449 JUMPI DUP1 PUSH4 0x3A6A44E2 EQ PUSH2 0x45E JUMPI DUP1 PUSH4 0x4217D66F EQ PUSH2 0x49F JUMPI DUP1 PUSH4 0x431B710A EQ PUSH2 0x4B2 JUMPI PUSH1 0x0 DUP1 REVERT JUMPDEST DUP1 PUSH4 0x6C49713 EQ PUSH2 0x2F6 JUMPI DUP1 PUSH4 0x72DF68A EQ PUSH2 0x329 JUMPI DUP1 PUSH4 0xDE0350F EQ PUSH2 0x360 JUMPI DUP1 PUSH4 0xDF63082 EQ PUSH2 0x375 JUMPI DUP1 PUSH4 0x1D4D3BA4 EQ PUSH2 0x388 JUMPI DUP1 PUSH4 0x213FBF1B EQ PUSH2 0x3A8 JUMPI JUMPDEST PUSH1 0x0 DUP1 REVERT JUMPDEST PUSH2 0x309 PUSH2 0x304 CALLDATASIZE PUSH1 0x4 PUSH2 0x3F87 JUMP JUMPDEST PUSH2 0xA49 JUMP JUMPDEST PUSH1 0x40 MLOAD PUSH2 0x320 SWAP12 SWAP11 SWAP10 SWAP9 SWAP8 SWAP7 SWAP6 SWAP5 SWAP4 SWAP3 SWAP2 SWAP1 PUSH2 0x3FED JUMP JUMPDEST PUSH1 0x40 MLOAD DUP1 SWAP2 SUB SWAP1 RETURN JUMPDEST PUSH2 0x352 PUSH2 0x337 CALLDATASIZE PUSH1 0x4 PUSH2 0x408C JUMP JUMPDEST PUSH1 0x1 PUSH1 0x1 PUSH1 0xA0 SHL SUB AND PUSH1 0x0 SWAP1 DUP2 MSTORE PUSH1 0xA PUSH1 0x20 MSTORE PUSH1 0x40 SWAP1 KECCAK256 SLOAD SWAP1 JUMP JUMPDEST PUSH1 0x40 MLOAD SWAP1 DUP2 MSTORE PUSH1 0x20 ADD PUSH2 0x320 JUMP JUMPDEST PUSH2 0x373 PUSH2 0x36E CALLDATASIZE PUSH1 0x4 PUSH2 0x414A JUMP JUMPDEST PUSH2 0xBD8 JUMP JUMPDEST STOP JUMPDEST PUSH2 0x373 PUSH2 0x383 CALLDATASIZE PUSH1 0x4 PUSH2 0x41E3 JUMP JUMPDEST PUSH2 0xDED JUMP JUMPDEST PUSH2 0x39B PUSH2 0x396 CALLDATASIZE PUSH1 0x4 PUSH2 0x3F87 JUMP JUMPDEST PUSH2 0xFE0 JUMP JUMPDEST PUSH1 0x40 MLOAD PUSH2 0x320 SWAP2 SWAP1 PUSH2 0x42AD JUMP JUMPDEST PUSH2 0x373 PUSH2 0x3B6 CALLDATASIZE PUSH1 0x4 PUSH2 0x3F87 JUMP JUMPDEST PUSH2 0x111A JUMP JUMPDEST PUSH2 0x3E9 PUSH2 0x3C9 CALLDATASIZE PUSH1 0x4 PUSH2 0x42C0 JUMP JUMPDEST PUSH1 0x12 PUSH1 0x20 SWAP1 DUP2 MSTORE PUSH1 0x0 SWAP3 DUP4 MSTORE PUSH1 0x40 DUP1 DUP5 KECCAK256 SWAP1 SWAP2 MSTORE SWAP1 DUP3 MSTORE SWAP1 KECCAK256 SLOAD PUSH1 0xFF AND DUP2 JUMP JUMPDEST PUSH1 0x40 MLOAD SWAP1 ISZERO ISZERO DUP2 MSTORE PUSH1 0x20 ADD PUSH2 0x320 JUMP JUMPDEST PUSH2 0x40C PUSH2 0x407 CALLDATASIZE PUSH1 0x4 PUSH2 0x42EC JUMP JUMPDEST PUSH2 0x1309 JUMP JUMPDEST PUSH1 0x40 DUP1 MLOAD SWAP7 DUP8 MSTORE PUSH1 0x20 DUP8 ADD SWAP6 SWAP1 SWAP6 MSTORE PUSH1 0x1 PUSH1 0x1 PUSH1 0xA0 SHL SUB SWAP1 SWAP4 AND SWAP4 DUP6 ADD SWAP4 SWAP1 SWAP4 MSTORE PUSH1 0x60 DUP5 ADD MSTORE PUSH1 0x80 DUP4 ADD SWAP2 SWAP1 SWAP2 MSTORE ISZERO ISZERO PUSH1 0xA0 DUP3 ADD MSTORE PUSH1 0xC0 ADD PUSH2 0x320 JUMP JUMPDEST PUSH2 0x451 PUSH2 0x1369 JUMP JUMPDEST PUSH1 0x40 MLOAD PUSH2 0x320 SWAP2 SWAP1 PUSH2 0x43CC JUMP JUMPDEST PUSH2 0x487 PUSH2 0x46C CALLDATASIZE PUSH1 0x4 PUSH2 0x3F87 JUMP JUMPDEST PUSH1 0xB PUSH1 0x20 MSTORE PUSH1 0x0 SWAP1 DUP2 MSTORE PUSH1 0x40 SWAP1 KECCAK256 SLOAD PUSH1 0x1 PUSH1 0x1 PUSH1 0xA0 SHL SUB AND DUP2 JUMP JUMPDEST PUSH1 0x40 MLOAD PUSH1 0x1 PUSH1 0x1 PUSH1 0xA0 SHL SUB SWAP1 SWAP2 AND DUP2 MSTORE PUSH1 0x20 ADD PUSH2 0x320 JUMP JUMPDEST PUSH2 0x352 PUSH2 0x4AD CALLDATASIZE PUSH1 0x4 PUSH2 0x42C0 JUMP JUMPDEST PUSH2 0x156A JUMP JUMPDEST PUSH2 0x3E9 PUSH2 0x4C0 CALLDATASIZE PUSH1 0x4 PUSH2 0x42C0 JUMP JUMPDEST PUSH1 0x0 SWAP2 DUP3 MSTORE PUSH1 0x11 PUSH1 0x20 SWAP1 DUP2 MSTORE PUSH1 0x40 DUP1 DUP5 KECCAK256 PUSH1 0x1 PUSH1 0x1 PUSH1 0xA0 SHL SUB SWAP4 SWAP1 SWAP4 AND DUP5 MSTORE SWAP2 SWAP1 MSTORE SWAP1 KECCAK256 SLOAD PUSH1 0xFF AND SWAP1 JUMP JUMPDEST PUSH2 0x352 PUSH2 0x4F9 CALLDATASIZE PUSH1 0x4 PUSH2 0x3F87 JUMP JUMPDEST PUSH1 0x5 PUSH1 0x20 MSTORE PUSH1 0x0 SWAP1 DUP2 MSTORE PUSH1 0x40 SWAP1 KECCAK256 SLOAD DUP2 JUMP JUMPDEST PUSH2 0x51E PUSH2 0x519 CALLDATASIZE PUSH1 0x4 PUSH2 0x408C JUMP JUMPDEST PUSH2 0x16A4 JUMP JUMPDEST PUSH1 0x40 MLOAD PUSH2 0x320 SWAP7 SWAP6 SWAP5 SWAP4 SWAP3 SWAP2 SWAP1 PUSH2 0x442E JUMP JUMPDEST PUSH2 0x543 PUSH2 0x53E CALLDATASIZE PUSH1 0x4 PUSH2 0x408C JUMP JUMPDEST PUSH2 0x17F8 JUMP JUMPDEST PUSH1 0x40 MLOAD PUSH2 0x320 SWAP2 SWAP1 PUSH2 0x4536 JUMP JUMPDEST PUSH2 0x563 PUSH2 0x55E CALLDATASIZE PUSH1 0x4 PUSH2 0x3F87 JUMP JUMPDEST PUSH2 0x1AAC JUMP JUMPDEST PUSH1 0x40 DUP1 MLOAD SWAP8 DUP9 MSTORE PUSH1 0x20 DUP9 ADD SWAP7 SWAP1 SWAP7 MSTORE SWAP5 DUP7 ADD SWAP4 SWAP1 SWAP4 MSTORE PUSH1 0x60 DUP6 ADD SWAP2 SWAP1 SWAP2 MSTORE PUSH1 0x1 PUSH1 0x1 PUSH1 0xA0 SHL SUB AND PUSH1 0x80 DUP5 ADD MSTORE PUSH1 0xA0 DUP4 ADD MSTORE ISZERO ISZERO PUSH1 0xC0 DUP3 ADD MSTORE PUSH1 0xE0 ADD PUSH2 0x320 JUMP JUMPDEST PUSH2 0x3E9 PUSH2 0x5B1 CALLDATASIZE PUSH1 0x4 PUSH2 0x42C0 JUMP JUMPDEST PUSH1 0x11 PUSH1 0x20 SWAP1 DUP2 MSTORE PUSH1 0x0 SWAP3 DUP4 MSTORE PUSH1 0x40 DUP1 DUP5 KECCAK256 SWAP1 SWAP2 MSTORE SWAP1 DUP3 MSTORE SWAP1 KECCAK256 SLOAD PUSH1 0xFF AND DUP2 JUMP JUMPDEST PUSH2 0x352 PUSH2 0x5DF CALLDATASIZE PUSH1 0x4 PUSH2 0x3F87 JUMP JUMPDEST PUSH1 0x0 SWAP1 DUP2 MSTORE PUSH1 0x6 PUSH1 0x20 MSTORE PUSH1 0x40 SWAP1 KECCAK256 SLOAD SWAP1 JUMP JUMPDEST PUSH2 0x3E9 PUSH2 0x5FF CALLDATASIZE PUSH1 0x4 PUSH2 0x42C0 JUMP JUMPDEST PUSH1 0x0 SWAP2 DUP3 MSTORE PUSH1 0x12 PUSH1 0x20 SWAP1 DUP2 MSTORE PUSH1 0x40 DUP1 DUP5 KECCAK256 PUSH1 0x1 PUSH1 0x1 PUSH1 0xA0 SHL SUB SWAP4 SWAP1 SWAP4 AND DUP5 MSTORE SWAP2 SWAP1 MSTORE SWAP1 KECCAK256 SLOAD PUSH1 0xFF AND SWAP1 JUMP JUMPDEST PUSH2 0x352 PUSH2 0x638 CALLDATASIZE PUSH1 0x4 PUSH2 0x42C0 JUMP JUMPDEST PUSH1 0xE PUSH1 0x20 SWAP1 DUP2 MSTORE PUSH1 0x0 SWAP3 DUP4 MSTORE PUSH1 0x40 DUP1 DUP5 KECCAK256 SWAP1 SWAP2 MSTORE SWAP1 DUP3 MSTORE SWAP1 KECCAK256 SLOAD DUP2 JUMP JUMPDEST PUSH2 0x373 PUSH2 0x663 CALLDATASIZE PUSH1 0x4 PUSH2 0x4549 JUMP JUMPDEST PUSH2 0x1B07 JUMP JUMPDEST PUSH2 0x352 PUSH2 0x676 CALLDATASIZE PUSH1 0x4 PUSH2 0x3F87 JUMP JUMPDEST PUSH2 0x1B5D JUMP JUMPDEST PUSH2 0x68E PUSH2 0x689 CALLDATASIZE PUSH1 0x4 PUSH2 0x42C0 JUMP JUMPDEST PUSH2 0x1BA2 JUMP JUMPDEST PUSH1 0x40 MLOAD PUSH2 0x320 SWAP2 SWAP1 PUSH1 0x0 PUSH1 0xC0 DUP3 ADD SWAP1 POP DUP3 MLOAD DUP3 MSTORE PUSH1 0x20 DUP4 ADD MLOAD PUSH1 0x20 DUP4 ADD MSTORE PUSH1 0x40 DUP4 ADD MLOAD PUSH1 0x40 DUP4 ADD MSTORE PUSH1 0x60 DUP4 ADD MLOAD PUSH1 0x60 DUP4 ADD MSTORE PUSH1 0x80 DUP4 ADD MLOAD ISZERO ISZERO PUSH1 0x80 DUP4 ADD MSTORE PUSH1 0xA0 DUP4 ADD MLOAD ISZERO ISZERO PUSH1 0xA0 DUP4 ADD MSTORE SWAP3 SWAP2 POP POP JUMP JUMPDEST PUSH2 0x6F1 PUSH2 0x6EC CALLDATASIZE PUSH1 0x4 PUSH2 0x3F87 JUMP JUMPDEST PUSH2 0x1C80 JUMP JUMPDEST PUSH1 0x40 MLOAD PUSH2 0x320 SWAP2 SWAP1 PUSH2 0x45D6 JUMP JUMPDEST PUSH2 0x543 PUSH2 0x70C CALLDATASIZE PUSH1 0x4 PUSH2 0x3F87 JUMP JUMPDEST PUSH2 0x1E7E JUMP JUMPDEST PUSH2 0x724 PUSH2 0x71F CALLDATASIZE PUSH1 0x4 PUSH2 0x3F87 JUMP JUMPDEST PUSH2 0x1EB0 JUMP JUMPDEST PUSH1 0x40 MLOAD PUSH2 0x320 SWAP2 SWAP1 PUSH2 0x462B JUMP JUMPDEST PUSH2 0x373 PUSH2 0x73F CALLDATASIZE PUSH1 0x4 PUSH2 0x463E JUMP JUMPDEST PUSH2 0x209F JUMP JUMPDEST PUSH2 0x352 PUSH2 0x752 CALLDATASIZE PUSH1 0x4 PUSH2 0x408C JUMP JUMPDEST PUSH1 0xA PUSH1 0x20 MSTORE PUSH1 0x0 SWAP1 DUP2 MSTORE PUSH1 0x40 SWAP1 KECCAK256 SLOAD DUP2 JUMP JUMPDEST PUSH2 0x352 PUSH2 0x772 CALLDATASIZE PUSH1 0x4 PUSH2 0x3F87 JUMP JUMPDEST PUSH2 0x217E JUMP JUMPDEST PUSH2 0x352 PUSH2 0x785 CALLDATASIZE PUSH1 0x4 PUSH2 0x3F87 JUMP JUMPDEST PUSH1 0x6 PUSH1 0x20 MSTORE PUSH1 0x0 SWAP1 DUP2 MSTORE PUSH1 0x40 SWAP1 KECCAK256 SLOAD DUP2 JUMP JUMPDEST PUSH2 0x7AA PUSH2 0x7A5 CALLDATASIZE PUSH1 0x4 PUSH2 0x3F87 JUMP JUMPDEST PUSH2 0x21AA JUMP JUMPDEST PUSH1 0x40 MLOAD PUSH2 0x320 SWAP2 SWAP1 PUSH2 0x46B2 JUMP JUMPDEST PUSH2 0x7CA PUSH2 0x7C5 CALLDATASIZE PUSH1 0x4 PUSH2 0x408C JUMP JUMPDEST PUSH2 0x23B4 JUMP JUMPDEST PUSH1 0x40 MLOAD PUSH2 0x320 SWAP2 SWAP1 PUSH2 0x4707 JUMP JUMPDEST PUSH2 0x543 PUSH2 0x7E5 CALLDATASIZE PUSH1 0x4 PUSH2 0x3F87 JUMP JUMPDEST PUSH2 0x25C5 JUMP JUMPDEST PUSH2 0x6F1 PUSH2 0x7F8 CALLDATASIZE PUSH1 0x4 PUSH2 0x408C JUMP JUMPDEST PUSH2 0x270D JUMP JUMPDEST PUSH2 0x810 PUSH2 0x80B CALLDATASIZE PUSH1 0x4 PUSH2 0x408C JUMP JUMPDEST PUSH2 0x291E JUMP JUMPDEST PUSH1 0x40 MLOAD PUSH2 0x320 SWAP9 SWAP8 SWAP7 SWAP6 SWAP5 SWAP4 SWAP3 SWAP2 SWAP1 PUSH2 0x4794 JUMP JUMPDEST PUSH2 0x3E9 PUSH2 0x832 CALLDATASIZE PUSH1 0x4 PUSH2 0x408C JUMP JUMPDEST PUSH1 0x1 PUSH1 0x1 PUSH1 0xA0 SHL SUB AND PUSH1 0x0 SWAP1 DUP2 MSTORE PUSH1 0xC PUSH1 0x20 MSTORE PUSH1 0x40 SWAP1 KECCAK256 PUSH1 0x5 ADD SLOAD PUSH1 0xFF AND SWAP1 JUMP JUMPDEST PUSH2 0x373 PUSH2 0x861 CALLDATASIZE PUSH1 0x4 PUSH2 0x481A JUMP JUMPDEST PUSH2 0x2B8E JUMP JUMPDEST PUSH2 0x879 PUSH2 0x874 CALLDATASIZE PUSH1 0x4 PUSH2 0x3F87 JUMP JUMPDEST PUSH2 0x2CB2 JUMP JUMPDEST PUSH1 0x40 MLOAD PUSH2 0x320 SWAP8 SWAP7 SWAP6 SWAP5 SWAP4 SWAP3 SWAP2 SWAP1 PUSH2 0x48D8 JUMP JUMPDEST PUSH2 0x3E9 PUSH2 0x89A CALLDATASIZE PUSH1 0x4 PUSH2 0x408C JUMP JUMPDEST PUSH1 0x1 PUSH1 0x1 PUSH1 0xA0 SHL SUB AND PUSH1 0x0 SWAP1 DUP2 MSTORE PUSH1 0x2 PUSH1 0x20 MSTORE PUSH1 0x40 SWAP1 KECCAK256 PUSH1 0x5 ADD SLOAD PUSH1 0xFF AND SWAP1 JUMP JUMPDEST PUSH2 0x352 PUSH2 0x8C9 CALLDATASIZE PUSH1 0x4 PUSH2 0x408C JUMP JUMPDEST PUSH1 0x9 PUSH1 0x20 MSTORE PUSH1 0x0 SWAP1 DUP2 MSTORE PUSH1 0x40 SWAP1 KECCAK256 SLOAD DUP2 JUMP JUMPDEST PUSH2 0x8EE PUSH2 0x8E9 CALLDATASIZE PUSH1 0x4 PUSH2 0x408C JUMP JUMPDEST PUSH2 0x2D9B JUMP JUMPDEST PUSH1 0x40 MLOAD PUSH2 0x320 SWAP7 SWAP6 SWAP5 SWAP4 SWAP3 SWAP2 SWAP1 PUSH2 0x4926 JUMP JUMPDEST PUSH2 0x352 PUSH2 0x90E CALLDATASIZE PUSH1 0x4 PUSH2 0x408C JUMP JUMPDEST PUSH1 0x3 PUSH1 0x20 MSTORE PUSH1 0x0 SWAP1 DUP2 MSTORE PUSH1 0x40 SWAP1 KECCAK256 SLOAD DUP2 JUMP JUMPDEST PUSH2 0x352 PUSH2 0x92E CALLDATASIZE PUSH1 0x4 PUSH2 0x42C0 JUMP JUMPDEST PUSH1 0x0 SWAP2 DUP3 MSTORE PUSH1 0xE PUSH1 0x20 SWAP1 DUP2 MSTORE PUSH1 0x40 DUP1 DUP5 KECCAK256 PUSH1 0x1 PUSH1 0x1 PUSH1 0xA0 SHL SUB SWAP4 SWAP1 SWAP4 AND DUP5 MSTORE SWAP2 SWAP1 MSTORE SWAP1 KECCAK256 SLOAD SWAP1 JUMP JUMPDEST PUSH2 0x352 PUSH2 0x964 CALLDATASIZE PUSH1 0x4 PUSH2 0x408C JUMP JUMPDEST PUSH2 0x2F75 JUMP JUMPDEST PUSH2 0x3E9 PUSH2 0x977 CALLDATASIZE PUSH1 0x4 PUSH2 0x408C JUMP JUMPDEST PUSH1 0x1 PUSH1 0x1 PUSH1 0xA0 SHL SUB AND PUSH1 0x0 SWAP1 DUP2 MSTORE PUSH1 0x7 PUSH1 0x20 DUP2 SWAP1 MSTORE PUSH1 0x40 SWAP1 SWAP2 KECCAK256 ADD SLOAD PUSH1 0xFF AND SWAP1 JUMP JUMPDEST PUSH2 0x373 PUSH2 0x9A7 CALLDATASIZE PUSH1 0x4 PUSH2 0x498C JUMP JUMPDEST PUSH2 0x3041 JUMP JUMPDEST PUSH2 0x9BF PUSH2 0x9BA CALLDATASIZE PUSH1 0x4 PUSH2 0x3F87 JUMP JUMPDEST PUSH2 0x3259 JUMP JUMPDEST PUSH1 0x40 DUP1 MLOAD SWAP7 DUP8 MSTORE PUSH1 0x20 DUP8 ADD SWAP6 SWAP1 SWAP6 MSTORE SWAP4 DUP6 ADD SWAP3 SWAP1 SWAP3 MSTORE PUSH1 0x60 DUP5 ADD MSTORE ISZERO ISZERO PUSH1 0x80 DUP4 ADD MSTORE ISZERO ISZERO PUSH1 0xA0 DUP3 ADD MSTORE PUSH1 0xC0 ADD PUSH2 0x320 JUMP JUMPDEST PUSH2 0xA03 PUSH2 0x9FE CALLDATASIZE PUSH1 0x4 PUSH2 0x408C JUMP JUMPDEST PUSH2 0x32A6 JUMP JUMPDEST PUSH1 0x40 MLOAD PUSH2 0x320 SWAP2 SWAP1 PUSH2 0x49D2 JUMP JUMPDEST PUSH2 0x543 PUSH2 0xA1E CALLDATASIZE PUSH1 0x4 PUSH2 0x3F87 JUMP JUMPDEST PUSH2 0x342D JUMP JUMPDEST PUSH2 0x39B PUSH2 0xA31 CALLDATASIZE PUSH1 0x4 PUSH2 0x4A4A JUMP JUMPDEST PUSH2 0x34DD JUMP JUMPDEST PUSH2 0x451 PUSH2 0xA44 CALLDATASIZE PUSH1 0x4 PUSH2 0x408C JUMP JUMPDEST PUSH2 0x355D JUMP JUMPDEST PUSH1 0x4 DUP2 DUP2 SLOAD DUP2 LT PUSH2 0xA59 JUMPI PUSH1 0x0 DUP1 REVERT JUMPDEST PUSH1 0x0 SWAP2 DUP3 MSTORE PUSH1 0x20 SWAP1 SWAP2 KECCAK256 PUSH1 0x9 SWAP1 SWAP2 MUL ADD DUP1 SLOAD PUSH1 0x1 DUP3 ADD SLOAD PUSH1 0x2 DUP4 ADD SLOAD PUSH1 0x3 DUP5 ADD DUP1 SLOAD SWAP4 SWAP6 POP SWAP2 SWAP4 PUSH1 0x1 PUSH1 0x1 PUSH1 0xA0 SHL SUB SWAP1 SWAP2 AND SWAP3 SWAP1 SWAP2 SWAP1 PUSH2 0xA98 SWAP1 PUSH2 0x4A7F JUMP JUMPDEST DUP1 PUSH1 0x1F ADD PUSH1 0x20 DUP1 SWAP2 DIV MUL PUSH1 0x20 ADD PUSH1 0x40 MLOAD SWAP1 DUP2 ADD PUSH1 0x40 MSTORE DUP1 SWAP3 SWAP2 SWAP1 DUP2 DUP2 MSTORE PUSH1 0x20 ADD DUP3 DUP1 SLOAD PUSH2 0xAC4 SWAP1 PUSH2 0x4A7F JUMP JUMPDEST DUP1 ISZERO PUSH2 0xB11 JUMPI DUP1 PUSH1 0x1F LT PUSH2 0xAE6 JUMPI PUSH2 0x100 DUP1 DUP4 SLOAD DIV MUL DUP4 MSTORE SWAP2 PUSH1 0x20 ADD SWAP2 PUSH2 0xB11 JUMP JUMPDEST DUP3 ADD SWAP2 SWAP1 PUSH1 0x0 MSTORE PUSH1 0x20 PUSH1 0x0 KECCAK256 SWAP1 JUMPDEST DUP2 SLOAD DUP2 MSTORE SWAP1 PUSH1 0x1 ADD SWAP1 PUSH1 0x20 ADD DUP1 DUP4 GT PUSH2 0xAF4 JUMPI DUP3 SWAP1 SUB PUSH1 0x1F AND DUP3 ADD SWAP2 JUMPDEST POP POP POP POP POP SWAP1 DUP1 PUSH1 0x4 ADD DUP1 SLOAD PUSH2 0xB26 SWAP1 PUSH2 0x4A7F JUMP JUMPDEST DUP1 PUSH1 0x1F ADD PUSH1 0x20 DUP1 SWAP2 DIV MUL PUSH1 0x20 ADD PUSH1 0x40 MLOAD SWAP1 DUP2 ADD PUSH1 0x40 MSTORE DUP1 SWAP3 SWAP2 SWAP1 DUP2 DUP2 MSTORE PUSH1 0x20 ADD DUP3 DUP1 SLOAD PUSH2 0xB52 SWAP1 PUSH2 0x4A7F JUMP JUMPDEST DUP1 ISZERO PUSH2 0xB9F JUMPI DUP1 PUSH1 0x1F LT PUSH2 0xB74 JUMPI PUSH2 0x100 DUP1 DUP4 SLOAD DIV MUL DUP4 MSTORE SWAP2 PUSH1 0x20 ADD SWAP2 PUSH2 0xB9F JUMP JUMPDEST DUP3 ADD SWAP2 SWAP1 PUSH1 0x0 MSTORE PUSH1 0x20 PUSH1 0x0 KECCAK256 SWAP1 JUMPDEST DUP2 SLOAD DUP2 MSTORE SWAP1 PUSH1 0x1 ADD SWAP1 PUSH1 0x20 ADD DUP1 DUP4 GT PUSH2 0xB82 JUMPI DUP3 SWAP1 SUB PUSH1 0x1F AND DUP3 ADD SWAP2 JUMPDEST POP POP POP POP PUSH1 0x5 DUP4 ADD SLOAD PUSH1 0x6 DUP5 ADD SLOAD PUSH1 0x7 DUP6 ADD SLOAD PUSH1 0x8 SWAP1 SWAP6 ADD SLOAD SWAP4 SWAP5 SWAP2 SWAP4 SWAP1 SWAP3 POP PUSH1 0xFF DUP1 DUP3 AND SWAP2 PUSH2 0x100 DUP2 DIV DUP3 AND SWAP2 PUSH3 0x10000 SWAP1 SWAP2 DIV AND DUP12 JUMP JUMPDEST PUSH1 0x14 SLOAD PUSH2 0xBE3 PUSH2 0x3D2F JUMP JUMPDEST DUP2 DUP2 MSTORE PUSH1 0x20 DUP1 DUP3 ADD DUP11 SWAP1 MSTORE PUSH1 0x1 PUSH1 0x1 PUSH1 0xA0 SHL SUB DUP10 AND PUSH1 0x40 DUP1 DUP5 ADD DUP3 SWAP1 MSTORE PUSH1 0x60 DUP5 ADD DUP11 SWAP1 MSTORE PUSH1 0x80 DUP5 ADD DUP10 SWAP1 MSTORE PUSH1 0xA0 DUP5 ADD DUP9 SWAP1 MSTORE PUSH1 0xC0 DUP5 ADD DUP8 SWAP1 MSTORE PUSH1 0xE0 DUP5 ADD DUP7 SWAP1 MSTORE PUSH1 0x0 DUP6 DUP2 MSTORE PUSH1 0x5 DUP5 MSTORE DUP2 DUP2 KECCAK256 DUP2 SWAP1 SSTORE SWAP2 DUP3 MSTORE PUSH1 0x3 SWAP1 SWAP3 MSTORE SWAP1 DUP2 KECCAK256 SLOAD DUP2 PUSH2 0xC4A DUP3 PUSH1 0x1 PUSH2 0x4ACF JUMP JUMPDEST PUSH1 0x1 PUSH1 0x1 PUSH1 0xA0 SHL SUB DUP13 DUP2 AND PUSH1 0x0 SWAP1 DUP2 MSTORE PUSH1 0x3 PUSH1 0x20 SWAP1 DUP2 MSTORE PUSH1 0x40 DUP1 DUP4 KECCAK256 DUP6 SWAP1 SSTORE PUSH1 0x4 DUP1 SLOAD PUSH1 0x1 DUP2 ADD DUP3 SSTORE SWAP4 MSTORE DUP9 MLOAD PUSH32 0x8A35ACFBC15FF81A39AE7D344FD709F28E8600B4AA8C65C6B64BFE7FE36BD19B PUSH1 0x9 SWAP1 SWAP5 MUL SWAP4 DUP5 ADD SWAP1 DUP2 SSTORE DUP10 DUP4 ADD MLOAD PUSH32 0x8A35ACFBC15FF81A39AE7D344FD709F28E8600B4AA8C65C6B64BFE7FE36BD19C DUP6 ADD SSTORE SWAP1 DUP10 ADD MLOAD PUSH32 0x8A35ACFBC15FF81A39AE7D344FD709F28E8600B4AA8C65C6B64BFE7FE36BD19D DUP5 ADD DUP1 SLOAD PUSH1 0x1 PUSH1 0x1 PUSH1 0xA0 SHL SUB NOT AND SWAP2 SWAP1 SWAP6 AND OR SWAP1 SWAP4 SSTORE PUSH1 0x60 DUP9 ADD MLOAD DUP1 MLOAD SWAP5 SWAP6 POP DUP9 SWAP5 PUSH2 0xD43 SWAP4 PUSH32 0x8A35ACFBC15FF81A39AE7D344FD709F28E8600B4AA8C65C6B64BFE7FE36BD19E ADD SWAP3 SWAP2 SWAP1 SWAP2 ADD SWAP1 PUSH2 0x3D98 JUMP JUMPDEST POP PUSH1 0x80 DUP3 ADD MLOAD DUP1 MLOAD PUSH2 0xD5F SWAP2 PUSH1 0x4 DUP5 ADD SWAP2 PUSH1 0x20 SWAP1 SWAP2 ADD SWAP1 PUSH2 0x3D98 JUMP JUMPDEST POP PUSH1 0xA0 DUP3 ADD MLOAD PUSH1 0x5 DUP3 ADD SSTORE PUSH1 0xC0 DUP3 ADD MLOAD PUSH1 0x6 DUP3 ADD SSTORE PUSH1 0xE0 DUP3 ADD MLOAD PUSH1 0x7 DUP3 ADD SSTORE PUSH2 0x100 DUP1 DUP4 ADD MLOAD PUSH1 0x8 SWAP1 SWAP3 ADD DUP1 SLOAD PUSH2 0x120 DUP6 ADD MLOAD PUSH2 0x140 SWAP1 SWAP6 ADD MLOAD PUSH2 0xFFFF NOT SWAP1 SWAP2 AND SWAP4 ISZERO ISZERO PUSH2 0xFF00 NOT AND SWAP4 SWAP1 SWAP4 OR SWAP4 ISZERO ISZERO SWAP1 SWAP2 MUL SWAP3 SWAP1 SWAP3 OR PUSH3 0xFF0000 NOT AND PUSH3 0x10000 SWAP2 ISZERO ISZERO SWAP2 SWAP1 SWAP2 MUL OR SWAP1 SSTORE PUSH1 0x14 DUP1 SLOAD SWAP1 PUSH1 0x0 PUSH2 0xDDA DUP4 PUSH2 0x4AE7 JUMP JUMPDEST SWAP2 SWAP1 POP SSTORE POP POP POP POP POP POP POP POP POP POP POP POP POP JUMP JUMPDEST PUSH1 0x16 SLOAD PUSH2 0xDF8 PUSH2 0x3E1C JUMP JUMPDEST DUP2 DUP2 MSTORE PUSH1 0x20 DUP1 DUP3 ADD DUP7 DUP2 MSTORE PUSH1 0x1 PUSH1 0x1 PUSH1 0xA0 SHL SUB DUP7 DUP2 AND PUSH1 0x40 DUP6 ADD SWAP1 DUP2 MSTORE PUSH1 0x60 DUP6 ADD DUP11 DUP2 MSTORE PUSH1 0x80 DUP7 ADD DUP9 DUP2 MSTORE PUSH1 0x1 PUSH1 0xC0 DUP9 ADD DUP2 SWAP1 MSTORE PUSH1 0x8 DUP1 SLOAD SWAP2 DUP3 ADD DUP2 SSTORE PUSH1 0x0 MSTORE DUP8 MLOAD PUSH32 0xF3F7A9FE364FAAB93B216DA50A3214154F22A0A2B415B23A84C8169E8B636EE3 PUSH1 0x6 SWAP1 SWAP3 MUL SWAP2 DUP3 ADD SWAP1 DUP2 SSTORE SWAP6 MLOAD PUSH32 0xF3F7A9FE364FAAB93B216DA50A3214154F22A0A2B415B23A84C8169E8B636EE4 DUP3 ADD SSTORE SWAP3 MLOAD PUSH32 0xF3F7A9FE364FAAB93B216DA50A3214154F22A0A2B415B23A84C8169E8B636EE5 DUP5 ADD DUP1 SLOAD PUSH1 0x1 PUSH1 0x1 PUSH1 0xA0 SHL SUB NOT AND SWAP2 SWAP1 SWAP6 AND OR SWAP1 SWAP4 SSTORE MLOAD PUSH32 0xF3F7A9FE364FAAB93B216DA50A3214154F22A0A2B415B23A84C8169E8B636EE6 DUP3 ADD SSTORE SWAP1 MLOAD DUP1 MLOAD DUP6 SWAP5 PUSH2 0xF1E SWAP4 PUSH32 0xF3F7A9FE364FAAB93B216DA50A3214154F22A0A2B415B23A84C8169E8B636EE7 ADD SWAP3 ADD SWAP1 PUSH2 0x3D98 JUMP JUMPDEST POP PUSH1 0xA0 DUP3 ADD MLOAD PUSH1 0x5 SWAP2 DUP3 ADD DUP1 SLOAD PUSH1 0xC0 SWAP1 SWAP5 ADD MLOAD ISZERO ISZERO PUSH2 0x100 MUL PUSH2 0xFF00 NOT SWAP3 ISZERO ISZERO SWAP3 SWAP1 SWAP3 AND PUSH2 0xFFFF NOT SWAP1 SWAP5 AND SWAP4 SWAP1 SWAP4 OR OR SWAP1 SWAP2 SSTORE PUSH1 0x0 DUP8 DUP2 MSTORE PUSH1 0x20 SWAP2 SWAP1 SWAP2 MSTORE PUSH1 0x40 DUP2 KECCAK256 SLOAD SWAP1 PUSH2 0xF6D DUP3 PUSH1 0x1 PUSH2 0x4ACF JUMP JUMPDEST PUSH1 0x0 DUP10 DUP2 MSTORE PUSH1 0x5 PUSH1 0x20 SWAP1 DUP2 MSTORE PUSH1 0x40 DUP1 DUP4 KECCAK256 DUP5 SWAP1 SSTORE PUSH1 0x1 PUSH1 0x1 PUSH1 0xA0 SHL SUB DUP11 AND DUP4 MSTORE PUSH1 0x9 SWAP1 SWAP2 MSTORE DUP2 KECCAK256 SLOAD SWAP2 SWAP3 POP PUSH2 0xFA3 DUP3 PUSH1 0x1 PUSH2 0x4ACF JUMP JUMPDEST PUSH1 0x1 PUSH1 0x1 PUSH1 0xA0 SHL SUB DUP10 AND PUSH1 0x0 SWAP1 DUP2 MSTORE PUSH1 0x9 PUSH1 0x20 MSTORE PUSH1 0x40 DUP2 KECCAK256 DUP3 SWAP1 SSTORE PUSH1 0x16 DUP1 SLOAD SWAP3 SWAP4 POP SWAP1 PUSH2 0xFCF DUP4 PUSH2 0x4AE7 JUMP JUMPDEST SWAP2 SWAP1 POP SSTORE POP POP POP POP POP POP POP POP POP POP POP JUMP JUMPDEST PUSH2 0xFE8 PUSH2 0x3E1C JUMP JUMPDEST PUSH1 0x8 DUP3 DUP2 SLOAD DUP2 LT PUSH2 0xFFB JUMPI PUSH2 0xFFB PUSH2 0x4B00 JUMP JUMPDEST SWAP1 PUSH1 0x0 MSTORE PUSH1 0x20 PUSH1 0x0 KECCAK256 SWAP1 PUSH1 0x6 MUL ADD PUSH1 0x40 MLOAD DUP1 PUSH1 0xE0 ADD PUSH1 0x40 MSTORE SWAP1 DUP2 PUSH1 0x0 DUP3 ADD SLOAD DUP2 MSTORE PUSH1 0x20 ADD PUSH1 0x1 DUP3 ADD SLOAD DUP2 MSTORE PUSH1 0x20 ADD PUSH1 0x2 DUP3 ADD PUSH1 0x0 SWAP1 SLOAD SWAP1 PUSH2 0x100 EXP SWAP1 DIV PUSH1 0x1 PUSH1 0x1 PUSH1 0xA0 SHL SUB AND PUSH1 0x1 PUSH1 0x1 PUSH1 0xA0 SHL SUB AND PUSH1 0x1 PUSH1 0x1 PUSH1 0xA0 SHL SUB AND DUP2 MSTORE PUSH1 0x20 ADD PUSH1 0x3 DUP3 ADD SLOAD DUP2 MSTORE PUSH1 0x20 ADD PUSH1 0x4 DUP3 ADD DUP1 SLOAD PUSH2 0x1071 SWAP1 PUSH2 0x4A7F JUMP JUMPDEST DUP1 PUSH1 0x1F ADD PUSH1 0x20 DUP1 SWAP2 DIV MUL PUSH1 0x20 ADD PUSH1 0x40 MLOAD SWAP1 DUP2 ADD PUSH1 0x40 MSTORE DUP1 SWAP3 SWAP2 SWAP1 DUP2 DUP2 MSTORE PUSH1 0x20 ADD DUP3 DUP1 SLOAD PUSH2 0x109D SWAP1 PUSH2 0x4A7F JUMP JUMPDEST DUP1 ISZERO PUSH2 0x10EA JUMPI DUP1 PUSH1 0x1F LT PUSH2 0x10BF JUMPI PUSH2 0x100 DUP1 DUP4 SLOAD DIV MUL DUP4 MSTORE SWAP2 PUSH1 0x20 ADD SWAP2 PUSH2 0x10EA JUMP JUMPDEST DUP3 ADD SWAP2 SWAP1 PUSH1 0x0 MSTORE PUSH1 0x20 PUSH1 0x0 KECCAK256 SWAP1 JUMPDEST DUP2 SLOAD DUP2 MSTORE SWAP1 PUSH1 0x1 ADD SWAP1 PUSH1 0x20 ADD DUP1 DUP4 GT PUSH2 0x10CD JUMPI DUP3 SWAP1 SUB PUSH1 0x1F AND DUP3 ADD SWAP2 JUMPDEST POP POP POP SWAP2 DUP4 MSTORE POP POP PUSH1 0x5 SWAP2 SWAP1 SWAP2 ADD SLOAD PUSH1 0xFF DUP1 DUP3 AND ISZERO ISZERO PUSH1 0x20 DUP5 ADD MSTORE PUSH2 0x100 SWAP1 SWAP2 DIV AND ISZERO ISZERO PUSH1 0x40 SWAP1 SWAP2 ADD MSTORE SWAP3 SWAP2 POP POP JUMP JUMPDEST PUSH1 0x0 PUSH1 0x8 DUP3 DUP2 SLOAD DUP2 LT PUSH2 0x112F JUMPI PUSH2 0x112F PUSH2 0x4B00 JUMP JUMPDEST SWAP1 PUSH1 0x0 MSTORE PUSH1 0x20 PUSH1 0x0 KECCAK256 SWAP1 PUSH1 0x6 MUL ADD PUSH1 0x40 MLOAD DUP1 PUSH1 0xE0 ADD PUSH1 0x40 MSTORE SWAP1 DUP2 PUSH1 0x0 DUP3 ADD SLOAD DUP2 MSTORE PUSH1 0x20 ADD PUSH1 0x1 DUP3 ADD SLOAD DUP2 MSTORE PUSH1 0x20 ADD PUSH1 0x2 DUP3 ADD PUSH1 0x0 SWAP1 SLOAD SWAP1 PUSH2 0x100 EXP SWAP1 DIV PUSH1 0x1 PUSH1 0x1 PUSH1 0xA0 SHL SUB AND PUSH1 0x1 PUSH1 0x1 PUSH1 0xA0 SHL SUB AND PUSH1 0x1 PUSH1 0x1 PUSH1 0xA0 SHL SUB AND DUP2 MSTORE PUSH1 0x20 ADD PUSH1 0x3 DUP3 ADD SLOAD DUP2 MSTORE PUSH1 0x20 ADD PUSH1 0x4 DUP3 ADD DUP1 SLOAD PUSH2 0x11A5 SWAP1 PUSH2 0x4A7F JUMP JUMPDEST DUP1 PUSH1 0x1F ADD PUSH1 0x20 DUP1 SWAP2 DIV MUL PUSH1 0x20 ADD PUSH1 0x40 MLOAD SWAP1 DUP2 ADD PUSH1 0x40 MSTORE DUP1 SWAP3 SWAP2 SWAP1 DUP2 DUP2 MSTORE PUSH1 0x20 ADD DUP3 DUP1 SLOAD PUSH2 0x11D1 SWAP1 PUSH2 0x4A7F JUMP JUMPDEST DUP1 ISZERO PUSH2 0x121E JUMPI DUP1 PUSH1 0x1F LT PUSH2 0x11F3 JUMPI PUSH2 0x100 DUP1 DUP4 SLOAD DIV MUL DUP4 MSTORE SWAP2 PUSH1 0x20 ADD SWAP2 PUSH2 0x121E JUMP JUMPDEST DUP3 ADD SWAP2 SWAP1 PUSH1 0x0 MSTORE PUSH1 0x20 PUSH1 0x0 KECCAK256 SWAP1 JUMPDEST DUP2 SLOAD DUP2 MSTORE SWAP1 PUSH1 0x1 ADD SWAP1 PUSH1 0x20 ADD DUP1 DUP4 GT PUSH2 0x1201 JUMPI DUP3 SWAP1 SUB PUSH1 0x1F AND DUP3 ADD SWAP2 JUMPDEST POP POP POP SWAP2 DUP4 MSTORE POP POP PUSH1 0x5 SWAP2 SWAP1 SWAP2 ADD SLOAD PUSH1 0xFF DUP1 DUP3 AND ISZERO ISZERO PUSH1 0x20 DUP5 ADD MSTORE PUSH2 0x100 SWAP1 SWAP2 DIV AND ISZERO ISZERO PUSH1 0x40 SWAP1 SWAP2 ADD MSTORE PUSH1 0x1 PUSH1 0xA0 DUP3 ADD MSTORE PUSH1 0x8 DUP1 SLOAD SWAP2 SWAP3 POP DUP3 SWAP2 DUP5 SWAP1 DUP2 LT PUSH2 0x1268 JUMPI PUSH2 0x1268 PUSH2 0x4B00 JUMP JUMPDEST PUSH1 0x0 SWAP2 DUP3 MSTORE PUSH1 0x20 SWAP2 DUP3 SWAP1 KECCAK256 DUP4 MLOAD PUSH1 0x6 SWAP3 SWAP1 SWAP3 MUL ADD SWAP1 DUP2 SSTORE DUP3 DUP3 ADD MLOAD PUSH1 0x1 DUP3 ADD SSTORE PUSH1 0x40 DUP4 ADD MLOAD PUSH1 0x2 DUP3 ADD DUP1 SLOAD PUSH1 0x1 PUSH1 0x1 PUSH1 0xA0 SHL SUB NOT AND PUSH1 0x1 PUSH1 0x1 PUSH1 0xA0 SHL SUB SWAP1 SWAP3 AND SWAP2 SWAP1 SWAP2 OR SWAP1 SSTORE PUSH1 0x60 DUP4 ADD MLOAD PUSH1 0x3 DUP3 ADD SSTORE PUSH1 0x80 DUP4 ADD MLOAD DUP1 MLOAD SWAP2 SWAP3 PUSH2 0x12D3 SWAP3 PUSH1 0x4 DUP6 ADD SWAP3 SWAP1 SWAP2 ADD SWAP1 PUSH2 0x3D98 JUMP JUMPDEST POP PUSH1 0xA0 DUP3 ADD MLOAD PUSH1 0x5 SWAP1 SWAP2 ADD DUP1 SLOAD PUSH1 0xC0 SWAP1 SWAP4 ADD MLOAD ISZERO ISZERO PUSH2 0x100 MUL PUSH2 0xFF00 NOT SWAP3 ISZERO ISZERO SWAP3 SWAP1 SWAP3 AND PUSH2 0xFFFF NOT SWAP1 SWAP4 AND SWAP3 SWAP1 SWAP3 OR OR SWAP1 SSTORE POP POP JUMP JUMPDEST PUSH1 0x10 PUSH1 0x20 MSTORE DUP2 PUSH1 0x0 MSTORE PUSH1 0x40 PUSH1 0x0 KECCAK256 DUP2 DUP2 SLOAD DUP2 LT PUSH2 0x1325 JUMPI PUSH1 0x0 DUP1 REVERT JUMPDEST PUSH1 0x0 SWAP2 DUP3 MSTORE PUSH1 0x20 SWAP1 SWAP2 KECCAK256 PUSH1 0x6 SWAP1 SWAP2 MUL ADD DUP1 SLOAD PUSH1 0x1 DUP3 ADD SLOAD PUSH1 0x2 DUP4 ADD SLOAD PUSH1 0x3 DUP5 ADD SLOAD PUSH1 0x4 DUP6 ADD SLOAD PUSH1 0x5 SWAP1 SWAP6 ADD SLOAD SWAP4 SWAP7 POP SWAP2 SWAP5 POP PUSH1 0x1 PUSH1 0x1 PUSH1 0xA0 SHL SUB AND SWAP3 SWAP1 SWAP2 PUSH1 0xFF AND DUP7 JUMP JUMPDEST PUSH1 0x60 PUSH1 0x4 DUP1 SLOAD DUP1 PUSH1 0x20 MUL PUSH1 0x20 ADD PUSH1 0x40 MLOAD SWAP1 DUP2 ADD PUSH1 0x40 MSTORE DUP1 SWAP3 SWAP2 SWAP1 DUP2 DUP2 MSTORE PUSH1 0x20 ADD PUSH1 0x0 SWAP1 JUMPDEST DUP3 DUP3 LT ISZERO PUSH2 0x1561 JUMPI PUSH1 0x0 DUP5 DUP2 MSTORE PUSH1 0x20 SWAP1 DUP2 SWAP1 KECCAK256 PUSH1 0x40 DUP1 MLOAD PUSH2 0x160 DUP2 ADD DUP3 MSTORE PUSH1 0x9 DUP7 MUL SWAP1 SWAP3 ADD DUP1 SLOAD DUP4 MSTORE PUSH1 0x1 DUP2 ADD SLOAD SWAP4 DUP4 ADD SWAP4 SWAP1 SWAP4 MSTORE PUSH1 0x2 DUP4 ADD SLOAD PUSH1 0x1 PUSH1 0x1 PUSH1 0xA0 SHL SUB AND SWAP1 DUP3 ADD MSTORE PUSH1 0x3 DUP3 ADD DUP1 SLOAD SWAP2 SWAP3 SWAP2 PUSH1 0x60 DUP5 ADD SWAP2 SWAP1 PUSH2 0x13EC SWAP1 PUSH2 0x4A7F JUMP JUMPDEST DUP1 PUSH1 0x1F ADD PUSH1 0x20 DUP1 SWAP2 DIV MUL PUSH1 0x20 ADD PUSH1 0x40 MLOAD SWAP1 DUP2 ADD PUSH1 0x40 MSTORE DUP1 SWAP3 SWAP2 SWAP1 DUP2 DUP2 MSTORE PUSH1 0x20 ADD DUP3 DUP1 SLOAD PUSH2 0x1418 SWAP1 PUSH2 0x4A7F JUMP JUMPDEST DUP1 ISZERO PUSH2 0x1465 JUMPI DUP1 PUSH1 0x1F LT PUSH2 0x143A JUMPI PUSH2 0x100 DUP1 DUP4 SLOAD DIV MUL DUP4 MSTORE SWAP2 PUSH1 0x20 ADD SWAP2 PUSH2 0x1465 JUMP JUMPDEST DUP3 ADD SWAP2 SWAP1 PUSH1 0x0 MSTORE PUSH1 0x20 PUSH1 0x0 KECCAK256 SWAP1 JUMPDEST DUP2 SLOAD DUP2 MSTORE SWAP1 PUSH1 0x1 ADD SWAP1 PUSH1 0x20 ADD DUP1 DUP4 GT PUSH2 0x1448 JUMPI DUP3 SWAP1 SUB PUSH1 0x1F AND DUP3 ADD SWAP2 JUMPDEST POP POP POP POP POP DUP2 MSTORE PUSH1 0x20 ADD PUSH1 0x4 DUP3 ADD DUP1 SLOAD PUSH2 0x147E SWAP1 PUSH2 0x4A7F JUMP JUMPDEST DUP1 PUSH1 0x1F ADD PUSH1 0x20 DUP1 SWAP2 DIV MUL PUSH1 0x20 ADD PUSH1 0x40 MLOAD SWAP1 DUP2 ADD PUSH1 0x40 MSTORE DUP1 SWAP3 SWAP2 SWAP1 DUP2 DUP2 MSTORE PUSH1 0x20 ADD DUP3 DUP1 SLOAD PUSH2 0x14AA SWAP1 PUSH2 0x4A7F JUMP JUMPDEST DUP1 ISZERO PUSH2 0x14F7 JUMPI DUP1 PUSH1 0x1F LT PUSH2 0x14CC JUMPI PUSH2 0x100 DUP1 DUP4 SLOAD DIV MUL DUP4 MSTORE SWAP2 PUSH1 0x20 ADD SWAP2 PUSH2 0x14F7 JUMP JUMPDEST DUP3 ADD SWAP2 SWAP1 PUSH1 0x0 MSTORE PUSH1 0x20 PUSH1 0x0 KECCAK256 SWAP1 JUMPDEST DUP2 SLOAD DUP2 MSTORE SWAP1 PUSH1 0x1 ADD SWAP1 PUSH1 0x20 ADD DUP1 DUP4 GT PUSH2 0x14DA JUMPI DUP3 SWAP1 SUB PUSH1 0x1F AND DUP3 ADD SWAP2 JUMPDEST POP POP POP SWAP2 DUP4 MSTORE POP POP PUSH1 0x5 DUP3 ADD SLOAD PUSH1 0x20 DUP1 DUP4 ADD SWAP2 SWAP1 SWAP2 MSTORE PUSH1 0x6 DUP4 ADD SLOAD PUSH1 0x40 DUP4 ADD MSTORE PUSH1 0x7 DUP4 ADD SLOAD PUSH1 0x60 DUP4 ADD MSTORE PUSH1 0x8 SWAP1 SWAP3 ADD SLOAD PUSH1 0xFF DUP1 DUP3 AND ISZERO ISZERO PUSH1 0x80 DUP5 ADD MSTORE PUSH2 0x100 DUP3 DIV DUP2 AND ISZERO ISZERO PUSH1 0xA0 DUP5 ADD MSTORE PUSH3 0x10000 SWAP1 SWAP2 DIV AND ISZERO ISZERO PUSH1 0xC0 SWAP1 SWAP2 ADD MSTORE SWAP1 DUP3 MSTORE PUSH1 0x1 SWAP3 SWAP1 SWAP3 ADD SWAP2 ADD PUSH2 0x138D JUMP JUMPDEST POP POP POP POP SWAP1 POP SWAP1 JUMP JUMPDEST PUSH1 0x1 PUSH1 0x1 PUSH1 0xA0 SHL SUB DUP2 AND PUSH1 0x0 SWAP1 DUP2 MSTORE PUSH1 0x10 PUSH1 0x20 SWAP1 DUP2 MSTORE PUSH1 0x40 DUP1 DUP4 KECCAK256 DUP1 SLOAD DUP3 MLOAD DUP2 DUP6 MUL DUP2 ADD DUP6 ADD SWAP1 SWAP4 MSTORE DUP1 DUP4 MSTORE DUP5 SWAP4 DUP5 SWAP1 DUP5 ADD JUMPDEST DUP3 DUP3 LT ISZERO PUSH2 0x1613 JUMPI PUSH1 0x0 DUP5 DUP2 MSTORE PUSH1 0x20 SWAP1 DUP2 SWAP1 KECCAK256 PUSH1 0x40 DUP1 MLOAD PUSH1 0xC0 DUP2 ADD DUP3 MSTORE PUSH1 0x6 DUP7 MUL SWAP1 SWAP3 ADD DUP1 SLOAD DUP4 MSTORE PUSH1 0x1 DUP1 DUP3 ADD SLOAD DUP5 DUP7 ADD MSTORE PUSH1 0x2 DUP3 ADD SLOAD PUSH1 0x1 PUSH1 0x1 PUSH1 0xA0 SHL SUB AND SWAP3 DUP5 ADD SWAP3 SWAP1 SWAP3 MSTORE PUSH1 0x3 DUP2 ADD SLOAD PUSH1 0x60 DUP5 ADD MSTORE PUSH1 0x4 DUP2 ADD SLOAD PUSH1 0x80 DUP5 ADD MSTORE PUSH1 0x5 ADD SLOAD PUSH1 0xFF AND ISZERO ISZERO PUSH1 0xA0 DUP4 ADD MSTORE SWAP1 DUP4 MSTORE SWAP1 SWAP3 ADD SWAP2 ADD PUSH2 0x159D JUMP JUMPDEST POP POP POP POP SWAP1 POP PUSH1 0x0 DUP1 JUMPDEST DUP3 MLOAD DUP2 LT ISZERO PUSH2 0x169B JUMPI PUSH1 0x0 DUP4 DUP3 DUP2 MLOAD DUP2 LT PUSH2 0x163A JUMPI PUSH2 0x163A PUSH2 0x4B00 JUMP JUMPDEST PUSH1 0x20 MUL PUSH1 0x20 ADD ADD MLOAD SWAP1 POP DUP7 DUP2 PUSH1 0x20 ADD MLOAD EQ DUP1 ISZERO PUSH2 0x166C JUMPI POP DUP6 PUSH1 0x1 PUSH1 0x1 PUSH1 0xA0 SHL SUB AND DUP2 PUSH1 0x40 ADD MLOAD PUSH1 0x1 PUSH1 0x1 PUSH1 0xA0 SHL SUB AND EQ JUMPDEST ISZERO PUSH2 0x1688 JUMPI PUSH1 0x80 DUP2 ADD MLOAD PUSH2 0x1680 SWAP1 DUP5 PUSH2 0x4ACF JUMP JUMPDEST SWAP3 POP POP PUSH2 0x169B JUMP JUMPDEST POP DUP1 PUSH2 0x1693 DUP2 PUSH2 0x4AE7 JUMP JUMPDEST SWAP2 POP POP PUSH2 0x161D JUMP JUMPDEST POP SWAP5 SWAP4 POP POP POP POP JUMP JUMPDEST PUSH1 0x2 PUSH1 0x20 DUP2 SWAP1 MSTORE PUSH1 0x0 SWAP2 DUP3 MSTORE PUSH1 0x40 SWAP1 SWAP2 KECCAK256 DUP1 SLOAD PUSH1 0x1 DUP3 ADD SLOAD SWAP3 DUP3 ADD DUP1 SLOAD SWAP2 SWAP4 PUSH1 0x1 PUSH1 0x1 PUSH1 0xA0 SHL SUB AND SWAP3 SWAP2 PUSH2 0x16D7 SWAP1 PUSH2 0x4A7F JUMP JUMPDEST DUP1 PUSH1 0x1F ADD PUSH1 0x20 DUP1 SWAP2 DIV MUL PUSH1 0x20 ADD PUSH1 0x40 MLOAD SWAP1 DUP2 ADD PUSH1 0x40 MSTORE DUP1 SWAP3 SWAP2 SWAP1 DUP2 DUP2 MSTORE PUSH1 0x20 ADD DUP3 DUP1 SLOAD PUSH2 0x1703 SWAP1 PUSH2 0x4A7F JUMP JUMPDEST DUP1 ISZERO PUSH2 0x1750 JUMPI DUP1 PUSH1 0x1F LT PUSH2 0x1725 JUMPI PUSH2 0x100 DUP1 DUP4 SLOAD DIV MUL DUP4 MSTORE SWAP2 PUSH1 0x20 ADD SWAP2 PUSH2 0x1750 JUMP JUMPDEST DUP3 ADD SWAP2 SWAP1 PUSH1 0x0 MSTORE PUSH1 0x20 PUSH1 0x0 KECCAK256 SWAP1 JUMPDEST DUP2 SLOAD DUP2 MSTORE SWAP1 PUSH1 0x1 ADD SWAP1 PUSH1 0x20 ADD DUP1 DUP4 GT PUSH2 0x1733 JUMPI DUP3 SWAP1 SUB PUSH1 0x1F AND DUP3 ADD SWAP2 JUMPDEST POP POP POP POP POP SWAP1 DUP1 PUSH1 0x3 ADD DUP1 SLOAD PUSH2 0x1765 SWAP1 PUSH2 0x4A7F JUMP JUMPDEST DUP1 PUSH1 0x1F ADD PUSH1 0x20 DUP1 SWAP2 DIV MUL PUSH1 0x20 ADD PUSH1 0x40 MLOAD SWAP1 DUP2 ADD PUSH1 0x40 MSTORE DUP1 SWAP3 SWAP2 SWAP1 DUP2 DUP2 MSTORE PUSH1 0x20 ADD DUP3 DUP1 SLOAD PUSH2 0x1791 SWAP1 PUSH2 0x4A7F JUMP JUMPDEST DUP1 ISZERO PUSH2 0x17DE JUMPI DUP1 PUSH1 0x1F LT PUSH2 0x17B3 JUMPI PUSH2 0x100 DUP1 DUP4 SLOAD DIV MUL DUP4 MSTORE SWAP2 PUSH1 0x20 ADD SWAP2 PUSH2 0x17DE JUMP JUMPDEST DUP3 ADD SWAP2 SWAP1 PUSH1 0x0 MSTORE PUSH1 0x20 PUSH1 0x0 KECCAK256 SWAP1 JUMPDEST DUP2 SLOAD DUP2 MSTORE SWAP1 PUSH1 0x1 ADD SWAP1 PUSH1 0x20 ADD DUP1 DUP4 GT PUSH2 0x17C1 JUMPI DUP3 SWAP1 SUB PUSH1 0x1F AND DUP3 ADD SWAP2 JUMPDEST POP POP POP POP PUSH1 0x4 DUP4 ADD SLOAD PUSH1 0x5 SWAP1 SWAP4 ADD SLOAD SWAP2 SWAP3 SWAP2 PUSH1 0xFF AND SWAP1 POP DUP7 JUMP JUMPDEST PUSH2 0x1800 PUSH2 0x3E66 JUMP JUMPDEST PUSH1 0x1 PUSH1 0x1 PUSH1 0xA0 SHL SUB DUP1 DUP4 AND PUSH1 0x0 SWAP1 DUP2 MSTORE PUSH1 0x7 PUSH1 0x20 SWAP1 DUP2 MSTORE PUSH1 0x40 SWAP2 DUP3 SWAP1 KECCAK256 DUP3 MLOAD PUSH2 0x100 DUP2 ADD DUP5 MSTORE DUP2 SLOAD DUP2 MSTORE PUSH1 0x1 DUP3 ADD SLOAD SWAP3 DUP2 ADD SWAP3 SWAP1 SWAP3 MSTORE PUSH1 0x2 DUP2 ADD SLOAD SWAP1 SWAP4 AND SWAP2 DUP2 ADD SWAP2 SWAP1 SWAP2 MSTORE PUSH1 0x3 DUP3 ADD DUP1 SLOAD SWAP2 SWAP3 SWAP2 PUSH1 0x60 DUP5 ADD SWAP2 SWAP1 PUSH2 0x185D SWAP1 PUSH2 0x4A7F JUMP JUMPDEST DUP1 PUSH1 0x1F ADD PUSH1 0x20 DUP1 SWAP2 DIV MUL PUSH1 0x20 ADD PUSH1 0x40 MLOAD SWAP1 DUP2 ADD PUSH1 0x40 MSTORE DUP1 SWAP3 SWAP2 SWAP1 DUP2 DUP2 MSTORE PUSH1 0x20 ADD DUP3 DUP1 SLOAD PUSH2 0x1889 SWAP1 PUSH2 0x4A7F JUMP JUMPDEST DUP1 ISZERO PUSH2 0x18D6 JUMPI DUP1 PUSH1 0x1F LT PUSH2 0x18AB JUMPI PUSH2 0x100 DUP1 DUP4 SLOAD DIV MUL DUP4 MSTORE SWAP2 PUSH1 0x20 ADD SWAP2 PUSH2 0x18D6 JUMP JUMPDEST DUP3 ADD SWAP2 SWAP1 PUSH1 0x0 MSTORE PUSH1 0x20 PUSH1 0x0 KECCAK256 SWAP1 JUMPDEST DUP2 SLOAD DUP2 MSTORE SWAP1 PUSH1 0x1 ADD SWAP1 PUSH1 0x20 ADD DUP1 DUP4 GT PUSH2 0x18B9 JUMPI DUP3 SWAP1 SUB PUSH1 0x1F AND DUP3 ADD SWAP2 JUMPDEST POP POP POP POP POP DUP2 MSTORE PUSH1 0x20 ADD PUSH1 0x4 DUP3 ADD DUP1 SLOAD PUSH2 0x18EF SWAP1 PUSH2 0x4A7F JUMP JUMPDEST DUP1 PUSH1 0x1F ADD PUSH1 0x20 DUP1 SWAP2 DIV MUL PUSH1 0x20 ADD PUSH1 0x40 MLOAD SWAP1 DUP2 ADD PUSH1 0x40 MSTORE DUP1 SWAP3 SWAP2 SWAP1 DUP2 DUP2 MSTORE PUSH1 0x20 ADD DUP3 DUP1 SLOAD PUSH2 0x191B SWAP1 PUSH2 0x4A7F JUMP JUMPDEST DUP1 ISZERO PUSH2 0x1968 JUMPI DUP1 PUSH1 0x1F LT PUSH2 0x193D JUMPI PUSH2 0x100 DUP1 DUP4 SLOAD DIV MUL DUP4 MSTORE SWAP2 PUSH1 0x20 ADD SWAP2 PUSH2 0x1968 JUMP JUMPDEST DUP3 ADD SWAP2 SWAP1 PUSH1 0x0 MSTORE PUSH1 0x20 PUSH1 0x0 KECCAK256 SWAP1 JUMPDEST DUP2 SLOAD DUP2 MSTORE SWAP1 PUSH1 0x1 ADD SWAP1 PUSH1 0x20 ADD DUP1 DUP4 GT PUSH2 0x194B JUMPI DUP3 SWAP1 SUB PUSH1 0x1F AND DUP3 ADD SWAP2 JUMPDEST POP POP POP POP POP DUP2 MSTORE PUSH1 0x20 ADD PUSH1 0x5 DUP3 ADD DUP1 SLOAD PUSH2 0x1981 SWAP1 PUSH2 0x4A7F JUMP JUMPDEST DUP1 PUSH1 0x1F ADD PUSH1 0x20 DUP1 SWAP2 DIV MUL PUSH1 0x20 ADD PUSH1 0x40 MLOAD SWAP1 DUP2 ADD PUSH1 0x40 MSTORE DUP1 SWAP3 SWAP2 SWAP1 DUP2 DUP2 MSTORE PUSH1 0x20 ADD DUP3 DUP1 SLOAD PUSH2 0x19AD SWAP1 PUSH2 0x4A7F JUMP JUMPDEST DUP1 ISZERO PUSH2 0x19FA JUMPI DUP1 PUSH1 0x1F LT PUSH2 0x19CF JUMPI PUSH2 0x100 DUP1 DUP4 SLOAD DIV MUL DUP4 MSTORE SWAP2 PUSH1 0x20 ADD SWAP2 PUSH2 0x19FA JUMP JUMPDEST DUP3 ADD SWAP2 SWAP1 PUSH1 0x0 MSTORE PUSH1 0x20 PUSH1 0x0 KECCAK256 SWAP1 JUMPDEST DUP2 SLOAD DUP2 MSTORE SWAP1 PUSH1 0x1 ADD SWAP1 PUSH1 0x20 ADD DUP1 DUP4 GT PUSH2 0x19DD JUMPI DUP3 SWAP1 SUB PUSH1 0x1F AND DUP3 ADD SWAP2 JUMPDEST POP POP POP POP POP DUP2 MSTORE PUSH1 0x20 ADD PUSH1 0x6 DUP3 ADD DUP1 SLOAD PUSH2 0x1A13 SWAP1 PUSH2 0x4A7F JUMP JUMPDEST DUP1 PUSH1 0x1F ADD PUSH1 0x20 DUP1 SWAP2 DIV MUL PUSH1 0x20 ADD PUSH1 0x40 MLOAD SWAP1 DUP2 ADD PUSH1 0x40 MSTORE DUP1 SWAP3 SWAP2 SWAP1 DUP2 DUP2 MSTORE PUSH1 0x20 ADD DUP3 DUP1 SLOAD PUSH2 0x1A3F SWAP1 PUSH2 0x4A7F JUMP JUMPDEST DUP1 ISZERO PUSH2 0x1A8C JUMPI DUP1 PUSH1 0x1F LT PUSH2 0x1A61 JUMPI PUSH2 0x100 DUP1 DUP4 SLOAD DIV MUL DUP4 MSTORE SWAP2 PUSH1 0x20 ADD SWAP2 PUSH2 0x1A8C JUMP JUMPDEST DUP3 ADD SWAP2 SWAP1 PUSH1 0x0 MSTORE PUSH1 0x20 PUSH1 0x0 KECCAK256 SWAP1 JUMPDEST DUP2 SLOAD DUP2 MSTORE SWAP1 PUSH1 0x1 ADD SWAP1 PUSH1 0x20 ADD DUP1 DUP4 GT PUSH2 0x1A6F JUMPI DUP3 SWAP1 SUB PUSH1 0x1F AND DUP3 ADD SWAP2 JUMPDEST POP POP POP SWAP2 DUP4 MSTORE POP POP PUSH1 0x7 SWAP2 SWAP1 SWAP2 ADD SLOAD PUSH1 0xFF AND ISZERO ISZERO PUSH1 0x20 SWAP1 SWAP2 ADD MSTORE SWAP3 SWAP2 POP POP JUMP JUMPDEST PUSH1 0xF DUP2 DUP2 SLOAD DUP2 LT PUSH2 0x1ABC JUMPI PUSH1 0x0 DUP1 REVERT JUMPDEST PUSH1 0x0 SWAP2 DUP3 MSTORE PUSH1 0x20 SWAP1 SWAP2 KECCAK256 PUSH1 0x7 SWAP1 SWAP2 MUL ADD DUP1 SLOAD PUSH1 0x1 DUP3 ADD SLOAD PUSH1 0x2 DUP4 ADD SLOAD PUSH1 0x3 DUP5 ADD SLOAD PUSH1 0x4 DUP6 ADD SLOAD PUSH1 0x5 DUP7 ADD SLOAD PUSH1 0x6 SWAP1 SWAP7 ADD SLOAD SWAP5 SWAP7 POP SWAP3 SWAP5 SWAP2 SWAP4 SWAP1 SWAP3 PUSH1 0x1 PUSH1 0x1 PUSH1 0xA0 SHL SUB AND SWAP2 SWAP1 PUSH1 0xFF AND DUP8 JUMP JUMPDEST PUSH1 0x17 SLOAD PUSH2 0x1B12 PUSH2 0x3EB6 JUMP JUMPDEST DUP2 DUP2 MSTORE PUSH1 0x1 PUSH1 0x1 PUSH1 0xA0 SHL SUB DUP7 AND PUSH1 0x20 DUP3 ADD MSTORE PUSH1 0x40 DUP2 ADD DUP6 SWAP1 MSTORE PUSH1 0x60 DUP2 ADD DUP5 SWAP1 MSTORE PUSH1 0x80 DUP2 ADD DUP4 SWAP1 MSTORE PUSH1 0x1 PUSH1 0xA0 DUP3 ADD MSTORE PUSH1 0x17 DUP1 SLOAD SWAP1 PUSH1 0x0 PUSH2 0x1B50 DUP4 PUSH2 0x4AE7 JUMP JUMPDEST SWAP2 SWAP1 POP SSTORE POP POP POP POP POP POP POP JUMP JUMPDEST PUSH1 0x0 DUP2 DUP2 MSTORE PUSH1 0x6 PUSH1 0x20 MSTORE PUSH1 0x40 DUP2 KECCAK256 SLOAD DUP1 PUSH1 0x64 PUSH2 0x1B78 DUP6 PUSH2 0x1EB0 JUMP JUMPDEST PUSH1 0xE0 ADD MLOAD PUSH2 0x1B87 SWAP1 PUSH1 0xA PUSH2 0x4B16 JUMP JUMPDEST PUSH2 0x1B91 SWAP2 SWAP1 PUSH2 0x4B35 JUMP JUMPDEST PUSH2 0x1B9B SWAP2 SWAP1 PUSH2 0x4B35 JUMP JUMPDEST SWAP4 SWAP3 POP POP POP JUMP JUMPDEST PUSH2 0x1BAA PUSH2 0x3EF7 JUMP JUMPDEST PUSH2 0x1BB2 PUSH2 0x3EF7 JUMP JUMPDEST PUSH1 0x0 PUSH2 0x1BBD DUP5 PUSH2 0x23B4 JUMP JUMPDEST SWAP1 POP PUSH1 0x0 JUMPDEST PUSH1 0xD SLOAD DUP2 LT ISZERO PUSH2 0x1C76 JUMPI PUSH1 0x0 PUSH1 0xD DUP3 DUP2 SLOAD DUP2 LT PUSH2 0x1BE1 JUMPI PUSH2 0x1BE1 PUSH2 0x4B00 JUMP JUMPDEST PUSH1 0x0 SWAP2 DUP3 MSTORE PUSH1 0x20 SWAP2 DUP3 SWAP1 KECCAK256 PUSH1 0x40 DUP1 MLOAD PUSH1 0xC0 DUP2 ADD DUP3 MSTORE PUSH1 0x5 SWAP1 SWAP4 MUL SWAP1 SWAP2 ADD DUP1 SLOAD DUP4 MSTORE PUSH1 0x1 DUP2 ADD SLOAD SWAP4 DUP4 ADD SWAP4 SWAP1 SWAP4 MSTORE PUSH1 0x2 DUP4 ADD SLOAD SWAP1 DUP3 ADD MSTORE PUSH1 0x3 DUP3 ADD SLOAD PUSH1 0x60 DUP3 ADD DUP2 SWAP1 MSTORE PUSH1 0x4 SWAP1 SWAP3 ADD SLOAD PUSH1 0xFF DUP1 DUP3 AND ISZERO ISZERO PUSH1 0x80 DUP5 ADD MSTORE PUSH2 0x100 SWAP1 SWAP2 DIV AND ISZERO ISZERO PUSH1 0xA0 DUP3 ADD MSTORE SWAP2 POP DUP8 EQ DUP1 ISZERO PUSH2 0x1C57 JUMPI POP DUP3 MLOAD PUSH1 0x20 DUP3 ADD MLOAD EQ JUMPDEST ISZERO PUSH2 0x1C63 JUMPI SWAP3 POP PUSH2 0x1C76 JUMP JUMPDEST POP DUP1 PUSH2 0x1C6E DUP2 PUSH2 0x4AE7 JUMP JUMPDEST SWAP2 POP POP PUSH2 0x1BC2 JUMP JUMPDEST POP SWAP1 SWAP5 SWAP4 POP POP POP POP JUMP JUMPDEST PUSH1 0x0 DUP2 DUP2 MSTORE PUSH1 0x5 PUSH1 0x20 MSTORE PUSH1 0x40 DUP2 KECCAK256 SLOAD PUSH1 0x60 SWAP2 DUP2 PUSH8 0xFFFFFFFFFFFFFFFF DUP2 GT ISZERO PUSH2 0x1CAB JUMPI PUSH2 0x1CAB PUSH2 0x40A7 JUMP JUMPDEST PUSH1 0x40 MLOAD SWAP1 DUP1 DUP3 MSTORE DUP1 PUSH1 0x20 MUL PUSH1 0x20 ADD DUP3 ADD PUSH1 0x40 MSTORE DUP1 ISZERO PUSH2 0x1CE4 JUMPI DUP2 PUSH1 0x20 ADD JUMPDEST PUSH2 0x1CD1 PUSH2 0x3E1C JUMP JUMPDEST DUP2 MSTORE PUSH1 0x20 ADD SWAP1 PUSH1 0x1 SWAP1 SUB SWAP1 DUP2 PUSH2 0x1CC9 JUMPI SWAP1 POP JUMPDEST POP SWAP1 POP PUSH1 0x0 DUP1 JUMPDEST PUSH1 0x8 SLOAD DUP2 LT ISZERO PUSH2 0x1C76 JUMPI PUSH1 0x0 PUSH1 0x8 DUP3 DUP2 SLOAD DUP2 LT PUSH2 0x1D0A JUMPI PUSH2 0x1D0A PUSH2 0x4B00 JUMP JUMPDEST SWAP1 PUSH1 0x0 MSTORE PUSH1 0x20 PUSH1 0x0 KECCAK256 SWAP1 PUSH1 0x6 MUL ADD PUSH1 0x40 MLOAD DUP1 PUSH1 0xE0 ADD PUSH1 0x40 MSTORE SWAP1 DUP2 PUSH1 0x0 DUP3 ADD SLOAD DUP2 MSTORE PUSH1 0x20 ADD PUSH1 0x1 DUP3 ADD SLOAD DUP2 MSTORE PUSH1 0x20 ADD PUSH1 0x2 DUP3 ADD PUSH1 0x0 SWAP1 SLOAD SWAP1 PUSH2 0x100 EXP SWAP1 DIV PUSH1 0x1 PUSH1 0x1 PUSH1 0xA0 SHL SUB AND PUSH1 0x1 PUSH1 0x1 PUSH1 0xA0 SHL SUB AND PUSH1 0x1 PUSH1 0x1 PUSH1 0xA0 SHL SUB AND DUP2 MSTORE PUSH1 0x20 ADD PUSH1 0x3 DUP3 ADD SLOAD DUP2 MSTORE PUSH1 0x20 ADD PUSH1 0x4 DUP3 ADD DUP1 SLOAD PUSH2 0x1D80 SWAP1 PUSH2 0x4A7F JUMP JUMPDEST DUP1 PUSH1 0x1F ADD PUSH1 0x20 DUP1 SWAP2 DIV MUL PUSH1 0x20 ADD PUSH1 0x40 MLOAD SWAP1 DUP2 ADD PUSH1 0x40 MSTORE DUP1 SWAP3 SWAP2 SWAP1 DUP2 DUP2 MSTORE PUSH1 0x20 ADD DUP3 DUP1 SLOAD PUSH2 0x1DAC SWAP1 PUSH2 0x4A7F JUMP JUMPDEST DUP1 ISZERO PUSH2 0x1DF9 JUMPI DUP1 PUSH1 0x1F LT PUSH2 0x1DCE JUMPI PUSH2 0x100 DUP1 DUP4 SLOAD DIV MUL DUP4 MSTORE SWAP2 PUSH1 0x20 ADD SWAP2 PUSH2 0x1DF9 JUMP JUMPDEST DUP3 ADD SWAP2 SWAP1 PUSH1 0x0 MSTORE PUSH1 0x20 PUSH1 0x0 KECCAK256 SWAP1 JUMPDEST DUP2 SLOAD DUP2 MSTORE SWAP1 PUSH1 0x1 ADD SWAP1 PUSH1 0x20 ADD DUP1 DUP4 GT PUSH2 0x1DDC JUMPI DUP3 SWAP1 SUB PUSH1 0x1F AND DUP3 ADD SWAP2 JUMPDEST POP POP POP SWAP2 DUP4 MSTORE POP POP PUSH1 0x5 SWAP2 SWAP1 SWAP2 ADD SLOAD PUSH1 0xFF DUP1 DUP3 AND ISZERO ISZERO PUSH1 0x20 DUP5 ADD MSTORE PUSH2 0x100 SWAP1 SWAP2 DIV AND ISZERO ISZERO PUSH1 0x40 SWAP1 SWAP2 ADD MSTORE PUSH1 0x60 DUP2 ADD MLOAD SWAP1 SWAP2 POP DUP8 SWAP1 SUB PUSH2 0x1E6B JUMPI DUP1 DUP5 DUP5 DUP2 MLOAD DUP2 LT PUSH2 0x1E45 JUMPI PUSH2 0x1E45 PUSH2 0x4B00 JUMP JUMPDEST PUSH1 0x20 MUL PUSH1 0x20 ADD ADD DUP2 SWAP1 MSTORE POP DUP3 DUP1 PUSH2 0x1E5B SWAP1 PUSH2 0x4AE7 JUMP JUMPDEST SWAP4 POP POP DUP5 DUP4 SUB PUSH2 0x1E6B JUMPI POP PUSH2 0x1C76 JUMP JUMPDEST POP DUP1 PUSH2 0x1E76 DUP2 PUSH2 0x4AE7 JUMP JUMPDEST SWAP2 POP POP PUSH2 0x1CEB JUMP JUMPDEST PUSH2 0x1E86 PUSH2 0x3E66 JUMP JUMPDEST PUSH1 0x0 DUP3 DUP2 MSTORE PUSH1 0xB PUSH1 0x20 MSTORE PUSH1 0x40 DUP2 KECCAK256 SLOAD PUSH1 0x1 PUSH1 0x1 PUSH1 0xA0 SHL SUB AND SWAP1 PUSH2 0x1EA8 DUP3 PUSH2 0x17F8 JUMP JUMPDEST SWAP5 SWAP4 POP POP POP POP JUMP JUMPDEST PUSH2 0x1EB8 PUSH2 0x3D2F JUMP JUMPDEST PUSH1 0x4 DUP3 DUP2 SLOAD DUP2 LT PUSH2 0x1ECB JUMPI PUSH2 0x1ECB PUSH2 0x4B00 JUMP JUMPDEST SWAP1 PUSH1 0x0 MSTORE PUSH1 0x20 PUSH1 0x0 KECCAK256 SWAP1 PUSH1 0x9 MUL ADD PUSH1 0x40 MLOAD DUP1 PUSH2 0x160 ADD PUSH1 0x40 MSTORE SWAP1 DUP2 PUSH1 0x0 DUP3 ADD SLOAD DUP2 MSTORE PUSH1 0x20 ADD PUSH1 0x1 DUP3 ADD SLOAD DUP2 MSTORE PUSH1 0x20 ADD PUSH1 0x2 DUP3 ADD PUSH1 0x0 SWAP1 SLOAD SWAP1 PUSH2 0x100 EXP SWAP1 DIV PUSH1 0x1 PUSH1 0x1 PUSH1 0xA0 SHL SUB AND PUSH1 0x1 PUSH1 0x1 PUSH1 0xA0 SHL SUB AND PUSH1 0x1 PUSH1 0x1 PUSH1 0xA0 SHL SUB AND DUP2 MSTORE PUSH1 0x20 ADD PUSH1 0x3 DUP3 ADD DUP1 SLOAD PUSH2 0x1F38 SWAP1 PUSH2 0x4A7F JUMP JUMPDEST DUP1 PUSH1 0x1F ADD PUSH1 0x20 DUP1 SWAP2 DIV MUL PUSH1 0x20 ADD PUSH1 0x40 MLOAD SWAP1 DUP2 ADD PUSH1 0x40 MSTORE DUP1 SWAP3 SWAP2 SWAP1 DUP2 DUP2 MSTORE PUSH1 0x20 ADD DUP3 DUP1 SLOAD PUSH2 0x1F64 SWAP1 PUSH2 0x4A7F JUMP JUMPDEST DUP1 ISZERO PUSH2 0x1FB1 JUMPI DUP1 PUSH1 0x1F LT PUSH2 0x1F86 JUMPI PUSH2 0x100 DUP1 DUP4 SLOAD DIV MUL DUP4 MSTORE SWAP2 PUSH1 0x20 ADD SWAP2 PUSH2 0x1FB1 JUMP JUMPDEST DUP3 ADD SWAP2 SWAP1 PUSH1 0x0 MSTORE PUSH1 0x20 PUSH1 0x0 KECCAK256 SWAP1 JUMPDEST DUP2 SLOAD DUP2 MSTORE SWAP1 PUSH1 0x1 ADD SWAP1 PUSH1 0x20 ADD DUP1 DUP4 GT PUSH2 0x1F94 JUMPI DUP3 SWAP1 SUB PUSH1 0x1F AND DUP3 ADD SWAP2 JUMPDEST POP POP POP POP POP DUP2 MSTORE PUSH1 0x20 ADD PUSH1 0x4 DUP3 ADD DUP1 SLOAD PUSH2 0x1FCA SWAP1 PUSH2 0x4A7F JUMP JUMPDEST DUP1 PUSH1 0x1F ADD PUSH1 0x20 DUP1 SWAP2 DIV MUL PUSH1 0x20 ADD PUSH1 0x40 MLOAD SWAP1 DUP2 ADD PUSH1 0x40 MSTORE DUP1 SWAP3 SWAP2 SWAP1 DUP2 DUP2 MSTORE PUSH1 0x20 ADD DUP3 DUP1 SLOAD PUSH2 0x1FF6 SWAP1 PUSH2 0x4A7F JUMP JUMPDEST DUP1 ISZERO PUSH2 0x2043 JUMPI DUP1 PUSH1 0x1F LT PUSH2 0x2018 JUMPI PUSH2 0x100 DUP1 DUP4 SLOAD DIV MUL DUP4 MSTORE SWAP2 PUSH1 0x20 ADD SWAP2 PUSH2 0x2043 JUMP JUMPDEST DUP3 ADD SWAP2 SWAP1 PUSH1 0x0 MSTORE PUSH1 0x20 PUSH1 0x0 KECCAK256 SWAP1 JUMPDEST DUP2 SLOAD DUP2 MSTORE SWAP1 PUSH1 0x1 ADD SWAP1 PUSH1 0x20 ADD DUP1 DUP4 GT PUSH2 0x2026 JUMPI DUP3 SWAP1 SUB PUSH1 0x1F AND DUP3 ADD SWAP2 JUMPDEST POP POP POP SWAP2 DUP4 MSTORE POP POP PUSH1 0x5 DUP3 ADD SLOAD PUSH1 0x20 DUP3 ADD MSTORE PUSH1 0x6 DUP3 ADD SLOAD PUSH1 0x40 DUP3 ADD MSTORE PUSH1 0x7 DUP3 ADD SLOAD PUSH1 0x60 DUP3 ADD MSTORE PUSH1 0x8 SWAP1 SWAP2 ADD SLOAD PUSH1 0xFF DUP1 DUP3 AND ISZERO ISZERO PUSH1 0x80 DUP5 ADD MSTORE PUSH2 0x100 DUP3 DIV DUP2 AND ISZERO ISZERO PUSH1 0xA0 DUP5 ADD MSTORE PUSH3 0x10000 SWAP1 SWAP2 DIV AND ISZERO ISZERO PUSH1 0xC0 SWAP1 SWAP2 ADD MSTORE SWAP3 SWAP2 POP POP JUMP JUMPDEST PUSH1 0x13 SLOAD PUSH2 0x20AA PUSH2 0x3F31 JUMP JUMPDEST DUP2 DUP2 MSTORE PUSH1 0x1 PUSH1 0x1 PUSH1 0xA0 SHL SUB DUP6 DUP2 AND PUSH1 0x20 DUP1 DUP5 ADD DUP3 DUP2 MSTORE PUSH1 0x40 DUP1 DUP7 ADD DUP10 DUP2 MSTORE PUSH1 0x60 DUP8 ADD DUP10 SWAP1 MSTORE PUSH1 0x0 PUSH1 0x80 DUP9 ADD DUP2 SWAP1 MSTORE PUSH1 0x1 PUSH1 0xA0 DUP10 ADD DUP2 SWAP1 MSTORE SWAP6 DUP2 MSTORE PUSH1 0x2 DUP1 DUP7 MSTORE SWAP3 SWAP1 KECCAK256 DUP8 MLOAD DUP2 SSTORE SWAP3 MLOAD SWAP5 DUP4 ADD DUP1 SLOAD PUSH1 0x1 PUSH1 0x1 PUSH1 0xA0 SHL SUB NOT AND SWAP6 SWAP1 SWAP7 AND SWAP5 SWAP1 SWAP5 OR SWAP1 SWAP5 SSTORE SWAP2 MLOAD DUP1 MLOAD DUP6 SWAP5 PUSH2 0x2121 SWAP4 SWAP1 DUP6 ADD SWAP3 ADD SWAP1 PUSH2 0x3D98 JUMP JUMPDEST POP PUSH1 0x60 DUP3 ADD MLOAD DUP1 MLOAD PUSH2 0x213D SWAP2 PUSH1 0x3 DUP5 ADD SWAP2 PUSH1 0x20 SWAP1 SWAP2 ADD SWAP1 PUSH2 0x3D98 JUMP JUMPDEST POP PUSH1 0x80 DUP3 ADD MLOAD PUSH1 0x4 DUP3 ADD SSTORE PUSH1 0xA0 SWAP1 SWAP2 ADD MLOAD PUSH1 0x5 SWAP1 SWAP2 ADD DUP1 SLOAD PUSH1 0xFF NOT AND SWAP2 ISZERO ISZERO SWAP2 SWAP1 SWAP2 OR SWAP1 SSTORE PUSH1 0x13 DUP1 SLOAD SWAP1 PUSH1 0x0 PUSH2 0x2172 DUP4 PUSH2 0x4AE7 JUMP JUMPDEST SWAP2 SWAP1 POP SSTORE POP POP POP POP POP POP JUMP JUMPDEST PUSH1 0x0 PUSH1 0x64 PUSH2 0x218B DUP4 PUSH2 0x1EB0 JUMP JUMPDEST PUSH1 0xE0 ADD MLOAD PUSH2 0x219A SWAP1 PUSH1 0x50 PUSH2 0x4B16 JUMP JUMPDEST PUSH2 0x21A4 SWAP2 SWAP1 PUSH2 0x4B35 JUMP JUMPDEST SWAP3 SWAP2 POP POP JUMP JUMPDEST PUSH1 0x0 DUP2 DUP2 MSTORE PUSH1 0x5 PUSH1 0x20 MSTORE PUSH1 0x40 DUP2 KECCAK256 SLOAD PUSH1 0x60 SWAP2 DUP2 PUSH8 0xFFFFFFFFFFFFFFFF DUP2 GT ISZERO PUSH2 0x21D5 JUMPI PUSH2 0x21D5 PUSH2 0x40A7 JUMP JUMPDEST PUSH1 0x40 MLOAD SWAP1 DUP1 DUP3 MSTORE DUP1 PUSH1 0x20 MUL PUSH1 0x20 ADD DUP3 ADD PUSH1 0x40 MSTORE DUP1 ISZERO PUSH2 0x220E JUMPI DUP2 PUSH1 0x20 ADD JUMPDEST PUSH2 0x21FB PUSH2 0x3E66 JUMP JUMPDEST DUP2 MSTORE PUSH1 0x20 ADD SWAP1 PUSH1 0x1 SWAP1 SUB SWAP1 DUP2 PUSH2 0x21F3 JUMPI SWAP1 POP JUMPDEST POP SWAP1 POP PUSH1 0x0 DUP1 JUMPDEST PUSH1 0x8 SLOAD DUP2 LT ISZERO PUSH2 0x1C76 JUMPI PUSH1 0x0 PUSH1 0x8 DUP3 DUP2 SLOAD DUP2 LT PUSH2 0x2234 JUMPI PUSH2 0x2234 PUSH2 0x4B00 JUMP JUMPDEST SWAP1 PUSH1 0x0 MSTORE PUSH1 0x20 PUSH1 0x0 KECCAK256 SWAP1 PUSH1 0x6 MUL ADD PUSH1 0x40 MLOAD DUP1 PUSH1 0xE0 ADD PUSH1 0x40 MSTORE SWAP1 DUP2 PUSH1 0x0 DUP3 ADD SLOAD DUP2 MSTORE PUSH1 0x20 ADD PUSH1 0x1 DUP3 ADD SLOAD DUP2 MSTORE PUSH1 0x20 ADD PUSH1 0x2 DUP3 ADD PUSH1 0x0 SWAP1 SLOAD SWAP1 PUSH2 0x100 EXP SWAP1 DIV PUSH1 0x1 PUSH1 0x1 PUSH1 0xA0 SHL SUB AND PUSH1 0x1 PUSH1 0x1 PUSH1 0xA0 SHL SUB AND PUSH1 0x1 PUSH1 0x1 PUSH1 0xA0 SHL SUB AND DUP2 MSTORE PUSH1 0x20 ADD PUSH1 0x3 DUP3 ADD SLOAD DUP2 MSTORE PUSH1 0x20 ADD PUSH1 0x4 DUP3 ADD DUP1 SLOAD PUSH2 0x22AA SWAP1 PUSH2 0x4A7F JUMP JUMPDEST DUP1 PUSH1 0x1F ADD PUSH1 0x20 DUP1 SWAP2 DIV MUL PUSH1 0x20 ADD PUSH1 0x40 MLOAD SWAP1 DUP2 ADD PUSH1 0x40 MSTORE DUP1 SWAP3 SWAP2 SWAP1 DUP2 DUP2 MSTORE PUSH1 0x20 ADD DUP3 DUP1 SLOAD PUSH2 0x22D6 SWAP1 PUSH2 0x4A7F JUMP JUMPDEST DUP1 ISZERO PUSH2 0x2323 JUMPI DUP1 PUSH1 0x1F LT PUSH2 0x22F8 JUMPI PUSH2 0x100 DUP1 DUP4 SLOAD DIV MUL DUP4 MSTORE SWAP2 PUSH1 0x20 ADD SWAP2 PUSH2 0x2323 JUMP JUMPDEST DUP3 ADD SWAP2 SWAP1 PUSH1 0x0 MSTORE PUSH1 0x20 PUSH1 0x0 KECCAK256 SWAP1 JUMPDEST DUP2 SLOAD DUP2 MSTORE SWAP1 PUSH1 0x1 ADD SWAP1 PUSH1 0x20 ADD DUP1 DUP4 GT PUSH2 0x2306 JUMPI DUP3 SWAP1 SUB PUSH1 0x1F AND DUP3 ADD SWAP2 JUMPDEST POP POP POP SWAP2 DUP4 MSTORE POP POP PUSH1 0x5 SWAP2 SWAP1 SWAP2 ADD SLOAD PUSH1 0xFF DUP1 DUP3 AND ISZERO ISZERO PUSH1 0x20 DUP5 ADD MSTORE PUSH2 0x100 SWAP1 SWAP2 DIV AND ISZERO ISZERO PUSH1 0x40 SWAP1 SWAP2 ADD MSTORE PUSH1 0x60 DUP2 ADD MLOAD SWAP1 SWAP2 POP DUP8 SWAP1 SUB PUSH2 0x23A1 JUMPI PUSH2 0x2369 DUP2 PUSH1 0x40 ADD MLOAD PUSH2 0x17F8 JUMP JUMPDEST DUP5 DUP5 DUP2 MLOAD DUP2 LT PUSH2 0x237B JUMPI PUSH2 0x237B PUSH2 0x4B00 JUMP JUMPDEST PUSH1 0x20 MUL PUSH1 0x20 ADD ADD DUP2 SWAP1 MSTORE POP DUP3 DUP1 PUSH2 0x2391 SWAP1 PUSH2 0x4AE7 JUMP JUMPDEST SWAP4 POP POP DUP5 DUP4 SUB PUSH2 0x23A1 JUMPI POP PUSH2 0x1C76 JUMP JUMPDEST POP DUP1 PUSH2 0x23AC DUP2 PUSH2 0x4AE7 JUMP JUMPDEST SWAP2 POP POP PUSH2 0x2215 JUMP JUMPDEST PUSH2 0x23BC PUSH2 0x3EB6 JUMP JUMPDEST PUSH1 0x1 PUSH1 0x1 PUSH1 0xA0 SHL SUB DUP1 DUP4 AND PUSH1 0x0 SWAP1 DUP2 MSTORE PUSH1 0xC PUSH1 0x20 SWAP1 DUP2 MSTORE PUSH1 0x40 SWAP2 DUP3 SWAP1 KECCAK256 DUP3 MLOAD PUSH1 0xC0 DUP2 ADD DUP5 MSTORE DUP2 SLOAD DUP2 MSTORE PUSH1 0x1 DUP3 ADD SLOAD SWAP1 SWAP5 AND SWAP2 DUP5 ADD SWAP2 SWAP1 SWAP2 MSTORE PUSH1 0x2 DUP2 ADD DUP1 SLOAD SWAP2 SWAP3 DUP5 ADD SWAP2 PUSH2 0x2408 SWAP1 PUSH2 0x4A7F JUMP JUMPDEST DUP1 PUSH1 0x1F ADD PUSH1 0x20 DUP1 SWAP2 DIV MUL PUSH1 0x20 ADD PUSH1 0x40 MLOAD SWAP1 DUP2 ADD PUSH1 0x40 MSTORE DUP1 SWAP3 SWAP2 SWAP1 DUP2 DUP2 MSTORE PUSH1 0x20 ADD DUP3 DUP1 SLOAD PUSH2 0x2434 SWAP1 PUSH2 0x4A7F JUMP JUMPDEST DUP1 ISZERO PUSH2 0x2481 JUMPI DUP1 PUSH1 0x1F LT PUSH2 0x2456 JUMPI PUSH2 0x100 DUP1 DUP4 SLOAD DIV MUL DUP4 MSTORE SWAP2 PUSH1 0x20 ADD SWAP2 PUSH2 0x2481 JUMP JUMPDEST DUP3 ADD SWAP2 SWAP1 PUSH1 0x0 MSTORE PUSH1 0x20 PUSH1 0x0 KECCAK256 SWAP1 JUMPDEST DUP2 SLOAD DUP2 MSTORE SWAP1 PUSH1 0x1 ADD SWAP1 PUSH1 0x20 ADD DUP1 DUP4 GT PUSH2 0x2464 JUMPI DUP3 SWAP1 SUB PUSH1 0x1F AND DUP3 ADD SWAP2 JUMPDEST POP POP POP POP POP DUP2 MSTORE PUSH1 0x20 ADD PUSH1 0x3 DUP3 ADD DUP1 SLOAD PUSH2 0x249A SWAP1 PUSH2 0x4A7F JUMP JUMPDEST DUP1 PUSH1 0x1F ADD PUSH1 0x20 DUP1 SWAP2 DIV MUL PUSH1 0x20 ADD PUSH1 0x40 MLOAD SWAP1 DUP2 ADD PUSH1 0x40 MSTORE DUP1 SWAP3 SWAP2 SWAP1 DUP2 DUP2 MSTORE PUSH1 0x20 ADD DUP3 DUP1 SLOAD PUSH2 0x24C6 SWAP1 PUSH2 0x4A7F JUMP JUMPDEST DUP1 ISZERO PUSH2 0x2513 JUMPI DUP1 PUSH1 0x1F LT PUSH2 0x24E8 JUMPI PUSH2 0x100 DUP1 DUP4 SLOAD DIV MUL DUP4 MSTORE SWAP2 PUSH1 0x20 ADD SWAP2 PUSH2 0x2513 JUMP JUMPDEST DUP3 ADD SWAP2 SWAP1 PUSH1 0x0 MSTORE PUSH1 0x20 PUSH1 0x0 KECCAK256 SWAP1 JUMPDEST DUP2 SLOAD DUP2 MSTORE SWAP1 PUSH1 0x1 ADD SWAP1 PUSH1 0x20 ADD DUP1 DUP4 GT PUSH2 0x24F6 JUMPI DUP3 SWAP1 SUB PUSH1 0x1F AND DUP3 ADD SWAP2 JUMPDEST POP POP POP POP POP DUP2 MSTORE PUSH1 0x20 ADD PUSH1 0x4 DUP3 ADD DUP1 SLOAD PUSH2 0x252C SWAP1 PUSH2 0x4A7F JUMP JUMPDEST DUP1 PUSH1 0x1F ADD PUSH1 0x20 DUP1 SWAP2 DIV MUL PUSH1 0x20 ADD PUSH1 0x40 MLOAD SWAP1 DUP2 ADD PUSH1 0x40 MSTORE DUP1 SWAP3 SWAP2 SWAP1 DUP2 DUP2 MSTORE PUSH1 0x20 ADD DUP3 DUP1 SLOAD PUSH2 0x2558 SWAP1 PUSH2 0x4A7F JUMP JUMPDEST DUP1 ISZERO PUSH2 0x25A5 JUMPI DUP1 PUSH1 0x1F LT PUSH2 0x257A JUMPI PUSH2 0x100 DUP1 DUP4 SLOAD DIV MUL DUP4 MSTORE SWAP2 PUSH1 0x20 ADD SWAP2 PUSH2 0x25A5 JUMP JUMPDEST DUP3 ADD SWAP2 SWAP1 PUSH1 0x0 MSTORE PUSH1 0x20 PUSH1 0x0 KECCAK256 SWAP1 JUMPDEST DUP2 SLOAD DUP2 MSTORE SWAP1 PUSH1 0x1 ADD SWAP1 PUSH1 0x20 ADD DUP1 DUP4 GT PUSH2 0x2588 JUMPI DUP3 SWAP1 SUB PUSH1 0x1F AND DUP3 ADD SWAP2 JUMPDEST POP POP POP SWAP2 DUP4 MSTORE POP POP PUSH1 0x5 SWAP2 SWAP1 SWAP2 ADD SLOAD PUSH1 0xFF AND ISZERO ISZERO PUSH1 0x20 SWAP1 SWAP2 ADD MSTORE SWAP3 SWAP2 POP POP JUMP JUMPDEST PUSH2 0x25CD PUSH2 0x3E66 JUMP JUMPDEST PUSH1 0x0 PUSH1 0x8 DUP4 DUP2 SLOAD DUP2 LT PUSH2 0x25E2 JUMPI PUSH2 0x25E2 PUSH2 0x4B00 JUMP JUMPDEST SWAP1 PUSH1 0x0 MSTORE PUSH1 0x20 PUSH1 0x0 KECCAK256 SWAP1 PUSH1 0x6 MUL ADD PUSH1 0x40 MLOAD DUP1 PUSH1 0xE0 ADD PUSH1 0x40 MSTORE SWAP1 DUP2 PUSH1 0x0 DUP3 ADD SLOAD DUP2 MSTORE PUSH1 0x20 ADD PUSH1 0x1 DUP3 ADD SLOAD DUP2 MSTORE PUSH1 0x20 ADD PUSH1 0x2 DUP3 ADD PUSH1 0x0 SWAP1 SLOAD SWAP1 PUSH2 0x100 EXP SWAP1 DIV PUSH1 0x1 PUSH1 0x1 PUSH1 0xA0 SHL SUB AND PUSH1 0x1 PUSH1 0x1 PUSH1 0xA0 SHL SUB AND PUSH1 0x1 PUSH1 0x1 PUSH1 0xA0 SHL SUB AND DUP2 MSTORE PUSH1 0x20 ADD PUSH1 0x3 DUP3 ADD SLOAD DUP2 MSTORE PUSH1 0x20 ADD PUSH1 0x4 DUP3 ADD DUP1 SLOAD PUSH2 0x2658 SWAP1 PUSH2 0x4A7F JUMP JUMPDEST DUP1 PUSH1 0x1F ADD PUSH1 0x20 DUP1 SWAP2 DIV MUL PUSH1 0x20 ADD PUSH1 0x40 MLOAD SWAP1 DUP2 ADD PUSH1 0x40 MSTORE DUP1 SWAP3 SWAP2 SWAP1 DUP2 DUP2 MSTORE PUSH1 0x20 ADD DUP3 DUP1 SLOAD PUSH2 0x2684 SWAP1 PUSH2 0x4A7F JUMP JUMPDEST DUP1 ISZERO PUSH2 0x26D1 JUMPI DUP1 PUSH1 0x1F LT PUSH2 0x26A6 JUMPI PUSH2 0x100 DUP1 DUP4 SLOAD DIV MUL DUP4 MSTORE SWAP2 PUSH1 0x20 ADD SWAP2 PUSH2 0x26D1 JUMP JUMPDEST DUP3 ADD SWAP2 SWAP1 PUSH1 0x0 MSTORE PUSH1 0x20 PUSH1 0x0 KECCAK256 SWAP1 JUMPDEST DUP2 SLOAD DUP2 MSTORE SWAP1 PUSH1 0x1 ADD SWAP1 PUSH1 0x20 ADD DUP1 DUP4 GT PUSH2 0x26B4 JUMPI DUP3 SWAP1 SUB PUSH1 0x1F AND DUP3 ADD SWAP2 JUMPDEST POP POP POP SWAP2 DUP4 MSTORE POP POP PUSH1 0x5 SWAP2 SWAP1 SWAP2 ADD SLOAD PUSH1 0xFF DUP1 DUP3 AND ISZERO ISZERO PUSH1 0x20 DUP5 ADD MSTORE PUSH2 0x100 SWAP1 SWAP2 DIV AND ISZERO ISZERO PUSH1 0x40 SWAP2 DUP3 ADD MSTORE DUP2 ADD MLOAD SWAP1 SWAP2 POP PUSH1 0x0 SWAP1 PUSH2 0x1EA8 SWAP1 PUSH2 0x17F8 JUMP JUMPDEST PUSH1 0x1 PUSH1 0x1 PUSH1 0xA0 SHL SUB DUP2 AND PUSH1 0x0 SWAP1 DUP2 MSTORE PUSH1 0x9 PUSH1 0x20 MSTORE PUSH1 0x40 DUP2 KECCAK256 SLOAD PUSH1 0x60 SWAP2 DUP2 PUSH8 0xFFFFFFFFFFFFFFFF DUP2 GT ISZERO PUSH2 0x2742 JUMPI PUSH2 0x2742 PUSH2 0x40A7 JUMP JUMPDEST PUSH1 0x40 MLOAD SWAP1 DUP1 DUP3 MSTORE DUP1 PUSH1 0x20 MUL PUSH1 0x20 ADD DUP3 ADD PUSH1 0x40 MSTORE DUP1 ISZERO PUSH2 0x277B JUMPI DUP2 PUSH1 0x20 ADD JUMPDEST PUSH2 0x2768 PUSH2 0x3E1C JUMP JUMPDEST DUP2 MSTORE PUSH1 0x20 ADD SWAP1 PUSH1 0x1 SWAP1 SUB SWAP1 DUP2 PUSH2 0x2760 JUMPI SWAP1 POP JUMPDEST POP SWAP1 POP PUSH1 0x0 DUP1 JUMPDEST PUSH1 0x8 SLOAD DUP2 LT ISZERO PUSH2 0x1C76 JUMPI PUSH1 0x0 PUSH1 0x8 DUP3 DUP2 SLOAD DUP2 LT PUSH2 0x27A1 JUMPI PUSH2 0x27A1 PUSH2 0x4B00 JUMP JUMPDEST SWAP1 PUSH1 0x0 MSTORE PUSH1 0x20 PUSH1 0x0 KECCAK256 SWAP1 PUSH1 0x6 MUL ADD PUSH1 0x40 MLOAD DUP1 PUSH1 0xE0 ADD PUSH1 0x40 MSTORE SWAP1 DUP2 PUSH1 0x0 DUP3 ADD SLOAD DUP2 MSTORE PUSH1 0x20 ADD PUSH1 0x1 DUP3 ADD SLOAD DUP2 MSTORE PUSH1 0x20 ADD PUSH1 0x2 DUP3 ADD PUSH1 0x0 SWAP1 SLOAD SWAP1 PUSH2 0x100 EXP SWAP1 DIV PUSH1 0x1 PUSH1 0x1 PUSH1 0xA0 SHL SUB AND PUSH1 0x1 PUSH1 0x1 PUSH1 0xA0 SHL SUB AND PUSH1 0x1 PUSH1 0x1 PUSH1 0xA0 SHL SUB AND DUP2 MSTORE PUSH1 0x20 ADD PUSH1 0x3 DUP3 ADD SLOAD DUP2 MSTORE PUSH1 0x20 ADD PUSH1 0x4 DUP3 ADD DUP1 SLOAD PUSH2 0x2817 SWAP1 PUSH2 0x4A7F JUMP JUMPDEST DUP1 PUSH1 0x1F ADD PUSH1 0x20 DUP1 SWAP2 DIV MUL PUSH1 0x20 ADD PUSH1 0x40 MLOAD SWAP1 DUP2 ADD PUSH1 0x40 MSTORE DUP1 SWAP3 SWAP2 SWAP1 DUP2 DUP2 MSTORE PUSH1 0x20 ADD DUP3 DUP1 SLOAD PUSH2 0x2843 SWAP1 PUSH2 0x4A7F JUMP JUMPDEST DUP1 ISZERO PUSH2 0x2890 JUMPI DUP1 PUSH1 0x1F LT PUSH2 0x2865 JUMPI PUSH2 0x100 DUP1 DUP4 SLOAD DIV MUL DUP4 MSTORE SWAP2 PUSH1 0x20 ADD SWAP2 PUSH2 0x2890 JUMP JUMPDEST DUP3 ADD SWAP2 SWAP1 PUSH1 0x0 MSTORE PUSH1 0x20 PUSH1 0x0 KECCAK256 SWAP1 JUMPDEST DUP2 SLOAD DUP2 MSTORE SWAP1 PUSH1 0x1 ADD SWAP1 PUSH1 0x20 ADD DUP1 DUP4 GT PUSH2 0x2873 JUMPI DUP3 SWAP1 SUB PUSH1 0x1F AND DUP3 ADD SWAP2 JUMPDEST POP POP POP SWAP2 DUP4 MSTORE POP POP PUSH1 0x5 SWAP2 SWAP1 SWAP2 ADD SLOAD PUSH1 0xFF DUP1 DUP3 AND ISZERO ISZERO PUSH1 0x20 DUP5 ADD MSTORE PUSH2 0x100 SWAP1 SWAP2 DIV AND ISZERO ISZERO PUSH1 0x40 SWAP2 DUP3 ADD MSTORE DUP2 ADD MLOAD SWAP1 SWAP2 POP PUSH1 0x1 PUSH1 0x1 PUSH1 0xA0 SHL SUB DUP1 DUP10 AND SWAP2 AND SUB PUSH2 0x290B JUMPI DUP1 DUP5 DUP5 DUP2 MLOAD DUP2 LT PUSH2 0x28E5 JUMPI PUSH2 0x28E5 PUSH2 0x4B00 JUMP JUMPDEST PUSH1 0x20 MUL PUSH1 0x20 ADD ADD DUP2 SWAP1 MSTORE POP DUP3 DUP1 PUSH2 0x28FB SWAP1 PUSH2 0x4AE7 JUMP JUMPDEST SWAP4 POP POP DUP5 DUP4 SUB PUSH2 0x290B JUMPI POP PUSH2 0x1C76 JUMP JUMPDEST POP DUP1 PUSH2 0x2916 DUP2 PUSH2 0x4AE7 JUMP JUMPDEST SWAP2 POP POP PUSH2 0x2782 JUMP JUMPDEST PUSH1 0x7 PUSH1 0x20 MSTORE PUSH1 0x0 SWAP1 DUP2 MSTORE PUSH1 0x40 SWAP1 KECCAK256 DUP1 SLOAD PUSH1 0x1 DUP3 ADD SLOAD PUSH1 0x2 DUP4 ADD SLOAD PUSH1 0x3 DUP5 ADD DUP1 SLOAD SWAP4 SWAP5 SWAP3 SWAP4 PUSH1 0x1 PUSH1 0x1 PUSH1 0xA0 SHL SUB SWAP1 SWAP3 AND SWAP3 SWAP2 PUSH2 0x2958 SWAP1 PUSH2 0x4A7F JUMP JUMPDEST DUP1 PUSH1 0x1F ADD PUSH1 0x20 DUP1 SWAP2 DIV MUL PUSH1 0x20 ADD PUSH1 0x40 MLOAD SWAP1 DUP2 ADD PUSH1 0x40 MSTORE DUP1 SWAP3 SWAP2 SWAP1 DUP2 DUP2 MSTORE PUSH1 0x20 ADD DUP3 DUP1 SLOAD PUSH2 0x2984 SWAP1 PUSH2 0x4A7F JUMP JUMPDEST DUP1 ISZERO PUSH2 0x29D1 JUMPI DUP1 PUSH1 0x1F LT PUSH2 0x29A6 JUMPI PUSH2 0x100 DUP1 DUP4 SLOAD DIV MUL DUP4 MSTORE SWAP2 PUSH1 0x20 ADD SWAP2 PUSH2 0x29D1 JUMP JUMPDEST DUP3 ADD SWAP2 SWAP1 PUSH1 0x0 MSTORE PUSH1 0x20 PUSH1 0x0 KECCAK256 SWAP1 JUMPDEST DUP2 SLOAD DUP2 MSTORE SWAP1 PUSH1 0x1 ADD SWAP1 PUSH1 0x20 ADD DUP1 DUP4 GT PUSH2 0x29B4 JUMPI DUP3 SWAP1 SUB PUSH1 0x1F AND DUP3 ADD SWAP2 JUMPDEST POP POP POP POP POP SWAP1 DUP1 PUSH1 0x4 ADD DUP1 SLOAD PUSH2 0x29E6 SWAP1 PUSH2 0x4A7F JUMP JUMPDEST DUP1 PUSH1 0x1F ADD PUSH1 0x20 DUP1 SWAP2 DIV MUL PUSH1 0x20 ADD PUSH1 0x40 MLOAD SWAP1 DUP2 ADD PUSH1 0x40 MSTORE DUP1 SWAP3 SWAP2 SWAP1 DUP2 DUP2 MSTORE PUSH1 0x20 ADD DUP3 DUP1 SLOAD PUSH2 0x2A12 SWAP1 PUSH2 0x4A7F JUMP JUMPDEST DUP1 ISZERO PUSH2 0x2A5F JUMPI DUP1 PUSH1 0x1F LT PUSH2 0x2A34 JUMPI PUSH2 0x100 DUP1 DUP4 SLOAD DIV MUL DUP4 MSTORE SWAP2 PUSH1 0x20 ADD SWAP2 PUSH2 0x2A5F JUMP JUMPDEST DUP3 ADD SWAP2 SWAP1 PUSH1 0x0 MSTORE PUSH1 0x20 PUSH1 0x0 KECCAK256 SWAP1 JUMPDEST DUP2 SLOAD DUP2 MSTORE SWAP1 PUSH1 0x1 ADD SWAP1 PUSH1 0x20 ADD DUP1 DUP4 GT PUSH2 0x2A42 JUMPI DUP3 SWAP1 SUB PUSH1 0x1F AND DUP3 ADD SWAP2 JUMPDEST POP POP POP POP POP SWAP1 DUP1 PUSH1 0x5 ADD DUP1 SLOAD PUSH2 0x2A74 SWAP1 PUSH2 0x4A7F JUMP JUMPDEST DUP1 PUSH1 0x1F ADD PUSH1 0x20 DUP1 SWAP2 DIV MUL PUSH1 0x20 ADD PUSH1 0x40 MLOAD SWAP1 DUP2 ADD PUSH1 0x40 MSTORE DUP1 SWAP3 SWAP2 SWAP1 DUP2 DUP2 MSTORE PUSH1 0x20 ADD DUP3 DUP1 SLOAD PUSH2 0x2AA0 SWAP1 PUSH2 0x4A7F JUMP JUMPDEST DUP1 ISZERO PUSH2 0x2AED JUMPI DUP1 PUSH1 0x1F LT PUSH2 0x2AC2 JUMPI PUSH2 0x100 DUP1 DUP4 SLOAD DIV MUL DUP4 MSTORE SWAP2 PUSH1 0x20 ADD SWAP2 PUSH2 0x2AED JUMP JUMPDEST DUP3 ADD SWAP2 SWAP1 PUSH1 0x0 MSTORE PUSH1 0x20 PUSH1 0x0 KECCAK256 SWAP1 JUMPDEST DUP2 SLOAD DUP2 MSTORE SWAP1 PUSH1 0x1 ADD SWAP1 PUSH1 0x20 ADD DUP1 DUP4 GT PUSH2 0x2AD0 JUMPI DUP3 SWAP1 SUB PUSH1 0x1F AND DUP3 ADD SWAP2 JUMPDEST POP POP POP POP POP SWAP1 DUP1 PUSH1 0x6 ADD DUP1 SLOAD PUSH2 0x2B02 SWAP1 PUSH2 0x4A7F JUMP JUMPDEST DUP1 PUSH1 0x1F ADD PUSH1 0x20 DUP1 SWAP2 DIV MUL PUSH1 0x20 ADD PUSH1 0x40 MLOAD SWAP1 DUP2 ADD PUSH1 0x40 MSTORE DUP1 SWAP3 SWAP2 SWAP1 DUP2 DUP2 MSTORE PUSH1 0x20 ADD DUP3 DUP1 SLOAD PUSH2 0x2B2E SWAP1 PUSH2 0x4A7F JUMP JUMPDEST DUP1 ISZERO PUSH2 0x2B7B JUMPI DUP1 PUSH1 0x1F LT PUSH2 0x2B50 JUMPI PUSH2 0x100 DUP1 DUP4 SLOAD DIV MUL DUP4 MSTORE SWAP2 PUSH1 0x20 ADD SWAP2 PUSH2 0x2B7B JUMP JUMPDEST DUP3 ADD SWAP2 SWAP1 PUSH1 0x0 MSTORE PUSH1 0x20 PUSH1 0x0 KECCAK256 SWAP1 JUMPDEST DUP2 SLOAD DUP2 MSTORE SWAP1 PUSH1 0x1 ADD SWAP1 PUSH1 0x20 ADD DUP1 DUP4 GT PUSH2 0x2B5E JUMPI DUP3 SWAP1 SUB PUSH1 0x1F AND DUP3 ADD SWAP2 JUMPDEST POP POP POP PUSH1 0x7 SWAP1 SWAP4 ADD SLOAD SWAP2 SWAP3 POP POP PUSH1 0xFF AND DUP9 JUMP JUMPDEST PUSH1 0x15 SLOAD PUSH2 0x2B99 PUSH2 0x3E66 JUMP JUMPDEST DUP2 DUP2 MSTORE PUSH1 0x1 PUSH1 0x1 PUSH1 0xA0 SHL SUB DUP8 DUP2 AND PUSH1 0x40 DUP1 DUP5 ADD DUP3 DUP2 MSTORE PUSH1 0x60 DUP6 ADD DUP11 DUP2 MSTORE PUSH1 0x80 DUP7 ADD DUP11 SWAP1 MSTORE PUSH1 0xA0 DUP7 ADD DUP10 SWAP1 MSTORE PUSH1 0xC0 DUP7 ADD DUP9 SWAP1 MSTORE PUSH1 0x1 PUSH1 0xE0 DUP8 ADD DUP2 SWAP1 MSTORE PUSH1 0x0 SWAP5 DUP6 MSTORE PUSH1 0x7 PUSH1 0x20 SWAP1 DUP2 MSTORE SWAP4 SWAP1 SWAP5 KECCAK256 DUP7 MLOAD DUP2 SSTORE DUP4 DUP8 ADD MLOAD SWAP5 DUP2 ADD SWAP5 SWAP1 SWAP5 SSTORE SWAP1 MLOAD PUSH1 0x2 DUP5 ADD DUP1 SLOAD PUSH1 0x1 PUSH1 0x1 PUSH1 0xA0 SHL SUB NOT AND SWAP2 SWAP1 SWAP6 AND OR SWAP1 SWAP4 SSTORE SWAP2 MLOAD DUP1 MLOAD DUP5 SWAP4 PUSH2 0x2C24 SWAP3 PUSH1 0x3 DUP6 ADD SWAP3 SWAP2 ADD SWAP1 PUSH2 0x3D98 JUMP JUMPDEST POP PUSH1 0x80 DUP3 ADD MLOAD DUP1 MLOAD PUSH2 0x2C40 SWAP2 PUSH1 0x4 DUP5 ADD SWAP2 PUSH1 0x20 SWAP1 SWAP2 ADD SWAP1 PUSH2 0x3D98 JUMP JUMPDEST POP PUSH1 0xA0 DUP3 ADD MLOAD DUP1 MLOAD PUSH2 0x2C5C SWAP2 PUSH1 0x5 DUP5 ADD SWAP2 PUSH1 0x20 SWAP1 SWAP2 ADD SWAP1 PUSH2 0x3D98 JUMP JUMPDEST POP PUSH1 0xC0 DUP3 ADD MLOAD DUP1 MLOAD PUSH2 0x2C78 SWAP2 PUSH1 0x6 DUP5 ADD SWAP2 PUSH1 0x20 SWAP1 SWAP2 ADD SWAP1 PUSH2 0x3D98 JUMP JUMPDEST POP PUSH1 0xE0 SWAP2 SWAP1 SWAP2 ADD MLOAD PUSH1 0x7 SWAP1 SWAP2 ADD DUP1 SLOAD PUSH1 0xFF NOT AND SWAP2 ISZERO ISZERO SWAP2 SWAP1 SWAP2 OR SWAP1 SSTORE PUSH1 0x15 DUP1 SLOAD SWAP1 PUSH1 0x0 PUSH2 0x2CA4 DUP4 PUSH2 0x4AE7 JUMP JUMPDEST SWAP2 SWAP1 POP SSTORE POP POP POP POP POP POP POP POP JUMP JUMPDEST PUSH1 0x8 DUP2 DUP2 SLOAD DUP2 LT PUSH2 0x2CC2 JUMPI PUSH1 0x0 DUP1 REVERT JUMPDEST PUSH1 0x0 SWAP2 DUP3 MSTORE PUSH1 0x20 SWAP1 SWAP2 KECCAK256 PUSH1 0x6 SWAP1 SWAP2 MUL ADD DUP1 SLOAD PUSH1 0x1 DUP3 ADD SLOAD PUSH1 0x2 DUP4 ADD SLOAD PUSH1 0x3 DUP5 ADD SLOAD PUSH1 0x4 DUP6 ADD DUP1 SLOAD SWAP5 SWAP7 POP SWAP3 SWAP5 PUSH1 0x1 PUSH1 0x1 PUSH1 0xA0 SHL SUB SWAP1 SWAP3 AND SWAP4 SWAP1 SWAP3 SWAP1 PUSH2 0x2D06 SWAP1 PUSH2 0x4A7F JUMP JUMPDEST DUP1 PUSH1 0x1F ADD PUSH1 0x20 DUP1 SWAP2 DIV MUL PUSH1 0x20 ADD PUSH1 0x40 MLOAD SWAP1 DUP2 ADD PUSH1 0x40 MSTORE DUP1 SWAP3 SWAP2 SWAP1 DUP2 DUP2 MSTORE PUSH1 0x20 ADD DUP3 DUP1 SLOAD PUSH2 0x2D32 SWAP1 PUSH2 0x4A7F JUMP JUMPDEST DUP1 ISZERO PUSH2 0x2D7F JUMPI DUP1 PUSH1 0x1F LT PUSH2 0x2D54 JUMPI PUSH2 0x100 DUP1 DUP4 SLOAD DIV MUL DUP4 MSTORE SWAP2 PUSH1 0x20 ADD SWAP2 PUSH2 0x2D7F JUMP JUMPDEST DUP3 ADD SWAP2 SWAP1 PUSH1 0x0 MSTORE PUSH1 0x20 PUSH1 0x0 KECCAK256 SWAP1 JUMPDEST DUP2 SLOAD DUP2 MSTORE SWAP1 PUSH1 0x1 ADD SWAP1 PUSH1 0x20 ADD DUP1 DUP4 GT PUSH2 0x2D62 JUMPI DUP3 SWAP1 SUB PUSH1 0x1F AND DUP3 ADD SWAP2 JUMPDEST POP POP POP PUSH1 0x5 SWAP1 SWAP4 ADD SLOAD SWAP2 SWAP3 POP POP PUSH1 0xFF DUP1 DUP3 AND SWAP2 PUSH2 0x100 SWAP1 DIV AND DUP8 JUMP JUMPDEST PUSH1 0xC PUSH1 0x20 MSTORE PUSH1 0x0 SWAP1 DUP2 MSTORE PUSH1 0x40 SWAP1 KECCAK256 DUP1 SLOAD PUSH1 0x1 DUP3 ADD SLOAD PUSH1 0x2 DUP4 ADD DUP1 SLOAD SWAP3 SWAP4 PUSH1 0x1 PUSH1 0x1 PUSH1 0xA0 SHL SUB SWAP1 SWAP3 AND SWAP3 PUSH2 0x2DCD SWAP1 PUSH2 0x4A7F JUMP JUMPDEST DUP1 PUSH1 0x1F ADD PUSH1 0x20 DUP1 SWAP2 DIV MUL PUSH1 0x20 ADD PUSH1 0x40 MLOAD SWAP1 DUP2 ADD PUSH1 0x40 MSTORE DUP1 SWAP3 SWAP2 SWAP1 DUP2 DUP2 MSTORE PUSH1 0x20 ADD DUP3 DUP1 SLOAD PUSH2 0x2DF9 SWAP1 PUSH2 0x4A7F JUMP JUMPDEST DUP1 ISZERO PUSH2 0x2E46 JUMPI DUP1 PUSH1 0x1F LT PUSH2 0x2E1B JUMPI PUSH2 0x100 DUP1 DUP4 SLOAD DIV MUL DUP4 MSTORE SWAP2 PUSH1 0x20 ADD SWAP2 PUSH2 0x2E46 JUMP JUMPDEST DUP3 ADD SWAP2 SWAP1 PUSH1 0x0 MSTORE PUSH1 0x20 PUSH1 0x0 KECCAK256 SWAP1 JUMPDEST DUP2 SLOAD DUP2 MSTORE SWAP1 PUSH1 0x1 ADD SWAP1 PUSH1 0x20 ADD DUP1 DUP4 GT PUSH2 0x2E29 JUMPI DUP3 SWAP1 SUB PUSH1 0x1F AND DUP3 ADD SWAP2 JUMPDEST POP POP POP POP POP SWAP1 DUP1 PUSH1 0x3 ADD DUP1 SLOAD PUSH2 0x2E5B SWAP1 PUSH2 0x4A7F JUMP JUMPDEST DUP1 PUSH1 0x1F ADD PUSH1 0x20 DUP1 SWAP2 DIV MUL PUSH1 0x20 ADD PUSH1 0x40 MLOAD SWAP1 DUP2 ADD PUSH1 0x40 MSTORE DUP1 SWAP3 SWAP2 SWAP1 DUP2 DUP2 MSTORE PUSH1 0x20 ADD DUP3 DUP1 SLOAD PUSH2 0x2E87 SWAP1 PUSH2 0x4A7F JUMP JUMPDEST DUP1 ISZERO PUSH2 0x2ED4 JUMPI DUP1 PUSH1 0x1F LT PUSH2 0x2EA9 JUMPI PUSH2 0x100 DUP1 DUP4 SLOAD DIV MUL DUP4 MSTORE SWAP2 PUSH1 0x20 ADD SWAP2 PUSH2 0x2ED4 JUMP JUMPDEST DUP3 ADD SWAP2 SWAP1 PUSH1 0x0 MSTORE PUSH1 0x20 PUSH1 0x0 KECCAK256 SWAP1 JUMPDEST DUP2 SLOAD DUP2 MSTORE SWAP1 PUSH1 0x1 ADD SWAP1 PUSH1 0x20 ADD DUP1 DUP4 GT PUSH2 0x2EB7 JUMPI DUP3 SWAP1 SUB PUSH1 0x1F AND DUP3 ADD SWAP2 JUMPDEST POP POP POP POP POP SWAP1 DUP1 PUSH1 0x4 ADD DUP1 SLOAD PUSH2 0x2EE9 SWAP1 PUSH2 0x4A7F JUMP JUMPDEST DUP1 PUSH1 0x1F ADD PUSH1 0x20 DUP1 SWAP2 DIV MUL PUSH1 0x20 ADD PUSH1 0x40 MLOAD SWAP1 DUP2 ADD PUSH1 0x40 MSTORE DUP1 SWAP3 SWAP2 SWAP1 DUP2 DUP2 MSTORE PUSH1 0x20 ADD DUP3 DUP1 SLOAD PUSH2 0x2F15 SWAP1 PUSH2 0x4A7F JUMP JUMPDEST DUP1 ISZERO PUSH2 0x2F62 JUMPI DUP1 PUSH1 0x1F LT PUSH2 0x2F37 JUMPI PUSH2 0x100 DUP1 DUP4 SLOAD DIV MUL DUP4 MSTORE SWAP2 PUSH1 0x20 ADD SWAP2 PUSH2 0x2F62 JUMP JUMPDEST DUP3 ADD SWAP2 SWAP1 PUSH1 0x0 MSTORE PUSH1 0x20 PUSH1 0x0 KECCAK256 SWAP1 JUMPDEST DUP2 SLOAD DUP2 MSTORE SWAP1 PUSH1 0x1 ADD SWAP1 PUSH1 0x20 ADD DUP1 DUP4 GT PUSH2 0x2F45 JUMPI DUP3 SWAP1 SUB PUSH1 0x1F AND DUP3 ADD SWAP2 JUMPDEST POP POP POP PUSH1 0x5 SWAP1 SWAP4 ADD SLOAD SWAP2 SWAP3 POP POP PUSH1 0xFF AND DUP7 JUMP JUMPDEST PUSH1 0x0 DUP1 DUP1 JUMPDEST PUSH1 0xF SLOAD DUP2 LT ISZERO PUSH2 0x303A JUMPI PUSH1 0x0 PUSH1 0xF DUP3 DUP2 SLOAD DUP2 LT PUSH2 0x2F99 JUMPI PUSH2 0x2F99 PUSH2 0x4B00 JUMP JUMPDEST PUSH1 0x0 SWAP2 DUP3 MSTORE PUSH1 0x20 SWAP2 DUP3 SWAP1 KECCAK256 PUSH1 0x40 DUP1 MLOAD PUSH1 0xE0 DUP2 ADD DUP3 MSTORE PUSH1 0x7 SWAP1 SWAP4 MUL SWAP1 SWAP2 ADD DUP1 SLOAD DUP4 MSTORE PUSH1 0x1 DUP2 ADD SLOAD SWAP4 DUP4 ADD SWAP4 SWAP1 SWAP4 MSTORE PUSH1 0x2 DUP4 ADD SLOAD SWAP1 DUP3 ADD MSTORE PUSH1 0x3 DUP3 ADD SLOAD PUSH1 0x60 DUP3 ADD MSTORE PUSH1 0x4 DUP3 ADD SLOAD PUSH1 0x1 PUSH1 0x1 PUSH1 0xA0 SHL SUB SWAP1 DUP2 AND PUSH1 0x80 DUP4 ADD DUP2 SWAP1 MSTORE PUSH1 0x5 DUP5 ADD SLOAD PUSH1 0xA0 DUP5 ADD MSTORE PUSH1 0x6 SWAP1 SWAP4 ADD SLOAD PUSH1 0xFF AND ISZERO ISZERO PUSH1 0xC0 DUP4 ADD MSTORE SWAP1 SWAP3 POP DUP7 AND SWAP1 SUB PUSH2 0x3027 JUMPI PUSH1 0xA0 DUP2 ADD MLOAD PUSH2 0x3024 SWAP1 DUP5 PUSH2 0x4ACF JUMP JUMPDEST SWAP3 POP JUMPDEST POP DUP1 PUSH2 0x3032 DUP2 PUSH2 0x4AE7 JUMP JUMPDEST SWAP2 POP POP PUSH2 0x2F7A JUMP JUMPDEST POP SWAP3 SWAP2 POP POP JUMP JUMPDEST PUSH1 0x0 DUP5 DUP2 MSTORE PUSH1 0x12 PUSH1 0x20 SWAP1 DUP2 MSTORE PUSH1 0x40 DUP1 DUP4 KECCAK256 PUSH1 0x1 PUSH1 0x1 PUSH1 0xA0 SHL SUB DUP6 AND DUP5 MSTORE SWAP1 SWAP2 MSTORE SWAP1 KECCAK256 SLOAD PUSH1 0xFF AND ISZERO PUSH2 0x3071 JUMPI PUSH1 0x0 DUP1 REVERT JUMPDEST PUSH1 0x0 PUSH2 0x307C DUP6 PUSH2 0x1EB0 JUMP JUMPDEST SWAP1 POP PUSH1 0x0 PUSH2 0x3089 DUP6 PUSH2 0xFE0 JUMP JUMPDEST SWAP1 POP DUP2 PUSH2 0x120 ADD MLOAD ISZERO PUSH2 0x309B JUMPI PUSH1 0x0 DUP1 REVERT JUMPDEST PUSH1 0x18 SLOAD PUSH1 0x0 PUSH2 0x30A9 DUP6 PUSH2 0x23B4 JUMP JUMPDEST SWAP1 POP PUSH2 0x30B3 PUSH2 0x3EF7 JUMP JUMPDEST DUP3 DUP2 MSTORE DUP2 MLOAD PUSH1 0x20 DUP1 DUP4 ADD SWAP2 SWAP1 SWAP2 MSTORE DUP5 DUP2 ADD MLOAD PUSH1 0x40 DUP1 DUP5 ADD SWAP2 SWAP1 SWAP2 MSTORE PUSH1 0x60 DUP4 ADD DUP12 SWAP1 MSTORE PUSH1 0x1 PUSH1 0xA0 DUP5 ADD DUP2 SWAP1 MSTORE DUP8 MLOAD PUSH1 0x0 DUP2 DUP2 MSTORE PUSH1 0x12 DUP6 MSTORE DUP4 DUP2 KECCAK256 DUP6 DUP9 ADD DUP1 MLOAD PUSH1 0x1 PUSH1 0x1 PUSH1 0xA0 SHL SUB AND DUP4 MSTORE SWAP6 MSTORE SWAP3 SWAP1 SWAP3 KECCAK256 DUP1 SLOAD PUSH1 0xFF NOT AND SWAP1 SWAP2 OR SWAP1 SSTORE SWAP1 MLOAD PUSH2 0x311A SWAP1 DUP3 SWAP1 PUSH2 0x3827 JUMP JUMPDEST PUSH1 0x0 DUP2 DUP2 MSTORE PUSH1 0x6 PUSH1 0x20 MSTORE PUSH1 0x40 DUP2 KECCAK256 SLOAD SWAP1 PUSH2 0x3135 DUP3 PUSH1 0x1 PUSH2 0x4ACF JUMP JUMPDEST PUSH1 0x0 DUP5 DUP2 MSTORE PUSH1 0x6 PUSH1 0x20 SWAP1 DUP2 MSTORE PUSH1 0x40 DUP1 DUP4 KECCAK256 DUP5 SWAP1 SSTORE DUP9 DUP3 ADD MLOAD PUSH1 0x1 PUSH1 0x1 PUSH1 0xA0 SHL SUB AND DUP4 MSTORE PUSH1 0xA SWAP1 SWAP2 MSTORE DUP2 KECCAK256 SLOAD SWAP2 SWAP3 POP PUSH2 0x316E DUP3 PUSH1 0x1 PUSH2 0x4ACF JUMP JUMPDEST SWAP1 POP DUP1 PUSH1 0xA PUSH1 0x0 DUP10 PUSH1 0x20 ADD MLOAD PUSH1 0x1 PUSH1 0x1 PUSH1 0xA0 SHL SUB AND PUSH1 0x1 PUSH1 0x1 PUSH1 0xA0 SHL SUB AND DUP2 MSTORE PUSH1 0x20 ADD SWAP1 DUP2 MSTORE PUSH1 0x20 ADD PUSH1 0x0 KECCAK256 DUP2 SWAP1 SSTORE POP PUSH1 0x0 PUSH1 0xE PUSH1 0x0 DUP8 DUP2 MSTORE PUSH1 0x20 ADD SWAP1 DUP2 MSTORE PUSH1 0x20 ADD PUSH1 0x0 KECCAK256 PUSH1 0x0 DUP15 PUSH1 0x1 PUSH1 0x1 PUSH1 0xA0 SHL SUB AND PUSH1 0x1 PUSH1 0x1 PUSH1 0xA0 SHL SUB AND DUP2 MSTORE PUSH1 0x20 ADD SWAP1 DUP2 MSTORE PUSH1 0x20 ADD PUSH1 0x0 KECCAK256 SLOAD SWAP1 POP PUSH1 0x0 DUP2 PUSH1 0x1 PUSH2 0x31E8 SWAP2 SWAP1 PUSH2 0x4ACF JUMP JUMPDEST SWAP1 POP DUP1 PUSH1 0xE PUSH1 0x0 DUP10 DUP2 MSTORE PUSH1 0x20 ADD SWAP1 DUP2 MSTORE PUSH1 0x20 ADD PUSH1 0x0 KECCAK256 PUSH1 0x0 DUP16 PUSH1 0x1 PUSH1 0x1 PUSH1 0xA0 SHL SUB AND PUSH1 0x1 PUSH1 0x1 PUSH1 0xA0 SHL SUB AND DUP2 MSTORE PUSH1 0x20 ADD SWAP1 DUP2 MSTORE PUSH1 0x20 ADD PUSH1 0x0 KECCAK256 DUP2 SWAP1 SSTORE POP DUP12 PUSH1 0xC0 ADD MLOAD DUP6 SUB PUSH2 0x3247 JUMPI PUSH2 0x3239 DUP8 PUSH2 0x39AE JUMP JUMPDEST PUSH2 0x3247 DUP8 DUP13 PUSH1 0x20 ADD MLOAD PUSH2 0x3AC6 JUMP JUMPDEST POP POP POP POP POP POP POP POP POP POP POP POP POP POP POP POP JUMP JUMPDEST PUSH1 0xD DUP2 DUP2 SLOAD DUP2 LT PUSH2 0x3269 JUMPI PUSH1 0x0 DUP1 REVERT JUMPDEST PUSH1 0x0 SWAP2 DUP3 MSTORE PUSH1 0x20 SWAP1 SWAP2 KECCAK256 PUSH1 0x5 SWAP1 SWAP2 MUL ADD DUP1 SLOAD PUSH1 0x1 DUP3 ADD SLOAD PUSH1 0x2 DUP4 ADD SLOAD PUSH1 0x3 DUP5 ADD SLOAD PUSH1 0x4 SWAP1 SWAP5 ADD SLOAD SWAP3 SWAP5 POP SWAP1 SWAP3 SWAP1 SWAP2 PUSH1 0xFF DUP1 DUP3 AND SWAP2 PUSH2 0x100 SWAP1 DIV AND DUP7 JUMP JUMPDEST PUSH2 0x32AE PUSH2 0x3F31 JUMP JUMPDEST PUSH1 0x1 PUSH1 0x1 PUSH1 0xA0 SHL SUB DUP1 DUP4 AND PUSH1 0x0 SWAP1 DUP2 MSTORE PUSH1 0x2 PUSH1 0x20 DUP2 DUP2 MSTORE PUSH1 0x40 SWAP3 DUP4 SWAP1 KECCAK256 DUP4 MLOAD PUSH1 0xC0 DUP2 ADD DUP6 MSTORE DUP2 SLOAD DUP2 MSTORE PUSH1 0x1 DUP3 ADD SLOAD SWAP1 SWAP6 AND SWAP2 DUP6 ADD SWAP2 SWAP1 SWAP2 MSTORE SWAP1 DUP2 ADD DUP1 SLOAD SWAP2 SWAP3 DUP5 ADD SWAP2 PUSH2 0x32F9 SWAP1 PUSH2 0x4A7F JUMP JUMPDEST DUP1 PUSH1 0x1F ADD PUSH1 0x20 DUP1 SWAP2 DIV MUL PUSH1 0x20 ADD PUSH1 0x40 MLOAD SWAP1 DUP2 ADD PUSH1 0x40 MSTORE DUP1 SWAP3 SWAP2 SWAP1 DUP2 DUP2 MSTORE PUSH1 0x20 ADD DUP3 DUP1 SLOAD PUSH2 0x3325 SWAP1 PUSH2 0x4A7F JUMP JUMPDEST DUP1 ISZERO PUSH2 0x3372 JUMPI DUP1 PUSH1 0x1F LT PUSH2 0x3347 JUMPI PUSH2 0x100 DUP1 DUP4 SLOAD DIV MUL DUP4 MSTORE SWAP2 PUSH1 0x20 ADD SWAP2 PUSH2 0x3372 JUMP JUMPDEST DUP3 ADD SWAP2 SWAP1 PUSH1 0x0 MSTORE PUSH1 0x20 PUSH1 0x0 KECCAK256 SWAP1 JUMPDEST DUP2 SLOAD DUP2 MSTORE SWAP1 PUSH1 0x1 ADD SWAP1 PUSH1 0x20 ADD DUP1 DUP4 GT PUSH2 0x3355 JUMPI DUP3 SWAP1 SUB PUSH1 0x1F AND DUP3 ADD SWAP2 JUMPDEST POP POP POP POP POP DUP2 MSTORE PUSH1 0x20 ADD PUSH1 0x3 DUP3 ADD DUP1 SLOAD PUSH2 0x338B SWAP1 PUSH2 0x4A7F JUMP JUMPDEST DUP1 PUSH1 0x1F ADD PUSH1 0x20 DUP1 SWAP2 DIV MUL PUSH1 0x20 ADD PUSH1 0x40 MLOAD SWAP1 DUP2 ADD PUSH1 0x40 MSTORE DUP1 SWAP3 SWAP2 SWAP1 DUP2 DUP2 MSTORE PUSH1 0x20 ADD DUP3 DUP1 SLOAD PUSH2 0x33B7 SWAP1 PUSH2 0x4A7F JUMP JUMPDEST DUP1 ISZERO PUSH2 0x3404 JUMPI DUP1 PUSH1 0x1F LT PUSH2 0x33D9 JUMPI PUSH2 0x100 DUP1 DUP4 SLOAD DIV MUL DUP4 MSTORE SWAP2 PUSH1 0x20 ADD SWAP2 PUSH2 0x3404 JUMP JUMPDEST DUP3 ADD SWAP2 SWAP1 PUSH1 0x0 MSTORE PUSH1 0x20 PUSH1 0x0 KECCAK256 SWAP1 JUMPDEST DUP2 SLOAD DUP2 MSTORE SWAP1 PUSH1 0x1 ADD SWAP1 PUSH1 0x20 ADD DUP1 DUP4 GT PUSH2 0x33E7 JUMPI DUP3 SWAP1 SUB PUSH1 0x1F AND DUP3 ADD SWAP2 JUMPDEST POP POP POP SWAP2 DUP4 MSTORE POP POP PUSH1 0x4 DUP3 ADD SLOAD PUSH1 0x20 DUP3 ADD MSTORE PUSH1 0x5 SWAP1 SWAP2 ADD SLOAD PUSH1 0xFF AND ISZERO ISZERO PUSH1 0x40 SWAP1 SWAP2 ADD MSTORE SWAP3 SWAP2 POP POP JUMP JUMPDEST PUSH2 0x3435 PUSH2 0x3E66 JUMP JUMPDEST PUSH1 0x0 PUSH2 0x343F PUSH2 0x3E66 JUMP JUMPDEST PUSH1 0x0 PUSH2 0x344A DUP6 PUSH2 0x21AA JUMP JUMPDEST SWAP1 POP PUSH1 0x0 JUMPDEST DUP2 MLOAD DUP2 LT ISZERO PUSH2 0x1C76 JUMPI PUSH1 0x0 DUP3 DUP3 DUP2 MLOAD DUP2 LT PUSH2 0x346C JUMPI PUSH2 0x346C PUSH2 0x4B00 JUMP JUMPDEST PUSH1 0x20 SWAP1 DUP2 MUL SWAP2 SWAP1 SWAP2 ADD DUP2 ADD MLOAD PUSH1 0x0 DUP10 DUP2 MSTORE PUSH1 0xE DUP4 MSTORE PUSH1 0x40 DUP1 DUP3 KECCAK256 DUP2 DUP5 ADD MLOAD PUSH1 0x1 PUSH1 0x1 PUSH1 0xA0 SHL SUB AND DUP4 MSTORE SWAP1 SWAP4 MSTORE SWAP2 SWAP1 SWAP2 KECCAK256 SLOAD SWAP1 SWAP2 POP DUP6 DUP2 GT ISZERO PUSH2 0x34C8 JUMPI DUP1 SWAP6 POP DUP4 DUP4 DUP2 MLOAD DUP2 LT PUSH2 0x34BD JUMPI PUSH2 0x34BD PUSH2 0x4B00 JUMP JUMPDEST PUSH1 0x20 MUL PUSH1 0x20 ADD ADD MLOAD SWAP5 POP JUMPDEST POP POP DUP1 DUP1 PUSH2 0x34D5 SWAP1 PUSH2 0x4AE7 JUMP JUMPDEST SWAP2 POP POP PUSH2 0x344F JUMP JUMPDEST PUSH2 0x34E5 PUSH2 0x3E1C JUMP JUMPDEST PUSH1 0x0 PUSH2 0x34F0 DUP4 PUSH2 0x270D JUMP JUMPDEST SWAP1 POP PUSH2 0x34FA PUSH2 0x3E1C JUMP JUMPDEST PUSH1 0x0 JUMPDEST DUP3 MLOAD DUP2 LT ISZERO PUSH2 0x3553 JUMPI PUSH1 0x0 DUP4 DUP3 DUP2 MLOAD DUP2 LT PUSH2 0x351A JUMPI PUSH2 0x351A PUSH2 0x4B00 JUMP JUMPDEST PUSH1 0x20 MUL PUSH1 0x20 ADD ADD MLOAD SWAP1 POP DUP8 DUP2 PUSH1 0x60 ADD MLOAD EQ DUP1 ISZERO PUSH2 0x3537 JUMPI POP DUP1 MLOAD DUP8 EQ JUMPDEST ISZERO PUSH2 0x3540 JUMPI DUP1 SWAP3 POP JUMPDEST POP DUP1 PUSH2 0x354B DUP2 PUSH2 0x4AE7 JUMP JUMPDEST SWAP2 POP POP PUSH2 0x34FD JUMP JUMPDEST POP SWAP6 SWAP5 POP POP POP POP POP JUMP JUMPDEST PUSH1 0x1 PUSH1 0x1 PUSH1 0xA0 SHL SUB DUP2 AND PUSH1 0x0 SWAP1 DUP2 MSTORE PUSH1 0x3 PUSH1 0x20 MSTORE PUSH1 0x40 DUP2 KECCAK256 SLOAD PUSH1 0x60 SWAP2 DUP2 PUSH8 0xFFFFFFFFFFFFFFFF DUP2 GT ISZERO PUSH2 0x3592 JUMPI PUSH2 0x3592 PUSH2 0x40A7 JUMP JUMPDEST PUSH1 0x40 MLOAD SWAP1 DUP1 DUP3 MSTORE DUP1 PUSH1 0x20 MUL PUSH1 0x20 ADD DUP3 ADD PUSH1 0x40 MSTORE DUP1 ISZERO PUSH2 0x35CB JUMPI DUP2 PUSH1 0x20 ADD JUMPDEST PUSH2 0x35B8 PUSH2 0x3D2F JUMP JUMPDEST DUP2 MSTORE PUSH1 0x20 ADD SWAP1 PUSH1 0x1 SWAP1 SUB SWAP1 DUP2 PUSH2 0x35B0 JUMPI SWAP1 POP JUMPDEST POP SWAP1 POP PUSH1 0x0 DUP1 JUMPDEST PUSH1 0x4 SLOAD DUP2 LT ISZERO PUSH2 0x1C76 JUMPI PUSH1 0x0 PUSH1 0x4 DUP3 DUP2 SLOAD DUP2 LT PUSH2 0x35F1 JUMPI PUSH2 0x35F1 PUSH2 0x4B00 JUMP JUMPDEST SWAP1 PUSH1 0x0 MSTORE PUSH1 0x20 PUSH1 0x0 KECCAK256 SWAP1 PUSH1 0x9 MUL ADD PUSH1 0x40 MLOAD DUP1 PUSH2 0x160 ADD PUSH1 0x40 MSTORE SWAP1 DUP2 PUSH1 0x0 DUP3 ADD SLOAD DUP2 MSTORE PUSH1 0x20 ADD PUSH1 0x1 DUP3 ADD SLOAD DUP2 MSTORE PUSH1 0x20 ADD PUSH1 0x2 DUP3 ADD PUSH1 0x0 SWAP1 SLOAD SWAP1 PUSH2 0x100 EXP SWAP1 DIV PUSH1 0x1 PUSH1 0x1 PUSH1 0xA0 SHL SUB AND PUSH1 0x1 PUSH1 0x1 PUSH1 0xA0 SHL SUB AND PUSH1 0x1 PUSH1 0x1 PUSH1 0xA0 SHL SUB AND DUP2 MSTORE PUSH1 0x20 ADD PUSH1 0x3 DUP3 ADD DUP1 SLOAD PUSH2 0x365E SWAP1 PUSH2 0x4A7F JUMP JUMPDEST DUP1 PUSH1 0x1F ADD PUSH1 0x20 DUP1 SWAP2 DIV MUL PUSH1 0x20 ADD PUSH1 0x40 MLOAD SWAP1 DUP2 ADD PUSH1 0x40 MSTORE DUP1 SWAP3 SWAP2 SWAP1 DUP2 DUP2 MSTORE PUSH1 0x20 ADD DUP3 DUP1 SLOAD PUSH2 0x368A SWAP1 PUSH2 0x4A7F JUMP JUMPDEST DUP1 ISZERO PUSH2 0x36D7 JUMPI DUP1 PUSH1 0x1F LT PUSH2 0x36AC JUMPI PUSH2 0x100 DUP1 DUP4 SLOAD DIV MUL DUP4 MSTORE SWAP2 PUSH1 0x20 ADD SWAP2 PUSH2 0x36D7 JUMP JUMPDEST DUP3 ADD SWAP2 SWAP1 PUSH1 0x0 MSTORE PUSH1 0x20 PUSH1 0x0 KECCAK256 SWAP1 JUMPDEST DUP2 SLOAD DUP2 MSTORE SWAP1 PUSH1 0x1 ADD SWAP1 PUSH1 0x20 ADD DUP1 DUP4 GT PUSH2 0x36BA JUMPI DUP3 SWAP1 SUB PUSH1 0x1F AND DUP3 ADD SWAP2 JUMPDEST POP POP POP POP POP DUP2 MSTORE PUSH1 0x20 ADD PUSH1 0x4 DUP3 ADD DUP1 SLOAD PUSH2 0x36F0 SWAP1 PUSH2 0x4A7F JUMP JUMPDEST DUP1 PUSH1 0x1F ADD PUSH1 0x20 DUP1 SWAP2 DIV MUL PUSH1 0x20 ADD PUSH1 0x40 MLOAD SWAP1 DUP2 ADD PUSH1 0x40 MSTORE DUP1 SWAP3 SWAP2 SWAP1 DUP2 DUP2 MSTORE PUSH1 0x20 ADD DUP3 DUP1 SLOAD PUSH2 0x371C SWAP1 PUSH2 0x4A7F JUMP JUMPDEST DUP1 ISZERO PUSH2 0x3769 JUMPI DUP1 PUSH1 0x1F LT PUSH2 0x373E JUMPI PUSH2 0x100 DUP1 DUP4 SLOAD DIV MUL DUP4 MSTORE SWAP2 PUSH1 0x20 ADD SWAP2 PUSH2 0x3769 JUMP JUMPDEST DUP3 ADD SWAP2 SWAP1 PUSH1 0x0 MSTORE PUSH1 0x20 PUSH1 0x0 KECCAK256 SWAP1 JUMPDEST DUP2 SLOAD DUP2 MSTORE SWAP1 PUSH1 0x1 ADD SWAP1 PUSH1 0x20 ADD DUP1 DUP4 GT PUSH2 0x374C JUMPI DUP3 SWAP1 SUB PUSH1 0x1F AND DUP3 ADD SWAP2 JUMPDEST POP POP POP SWAP2 DUP4 MSTORE POP POP PUSH1 0x5 DUP3 ADD SLOAD PUSH1 0x20 DUP3 ADD MSTORE PUSH1 0x6 DUP3 ADD SLOAD PUSH1 0x40 DUP1 DUP4 ADD SWAP2 SWAP1 SWAP2 MSTORE PUSH1 0x7 DUP4 ADD SLOAD PUSH1 0x60 DUP4 ADD MSTORE PUSH1 0x8 SWAP1 SWAP3 ADD SLOAD PUSH1 0xFF DUP1 DUP3 AND ISZERO ISZERO PUSH1 0x80 DUP5 ADD MSTORE PUSH2 0x100 DUP3 DIV DUP2 AND ISZERO ISZERO PUSH1 0xA0 DUP5 ADD MSTORE PUSH3 0x10000 SWAP1 SWAP2 DIV AND ISZERO ISZERO PUSH1 0xC0 SWAP1 SWAP2 ADD MSTORE DUP2 ADD MLOAD SWAP1 SWAP2 POP PUSH1 0x1 PUSH1 0x1 PUSH1 0xA0 SHL SUB DUP1 DUP10 AND SWAP2 AND SUB PUSH2 0x3814 JUMPI DUP1 DUP5 DUP5 DUP2 MLOAD DUP2 LT PUSH2 0x37EE JUMPI PUSH2 0x37EE PUSH2 0x4B00 JUMP JUMPDEST PUSH1 0x20 MUL PUSH1 0x20 ADD ADD DUP2 SWAP1 MSTORE POP DUP3 DUP1 PUSH2 0x3804 SWAP1 PUSH2 0x4AE7 JUMP JUMPDEST SWAP4 POP POP DUP5 DUP4 SUB PUSH2 0x3814 JUMPI POP PUSH2 0x1C76 JUMP JUMPDEST POP DUP1 PUSH2 0x381F DUP2 PUSH2 0x4AE7 JUMP JUMPDEST SWAP2 POP POP PUSH2 0x35D2 JUMP JUMPDEST PUSH1 0x1A SLOAD PUSH1 0x0 PUSH2 0x3835 DUP4 PUSH2 0x23B4 JUMP JUMPDEST SWAP1 POP PUSH1 0x0 PUSH2 0x3842 DUP6 PUSH2 0x1B5D JUMP JUMPDEST SWAP1 POP PUSH2 0x3888 PUSH1 0x40 MLOAD DUP1 PUSH1 0xC0 ADD PUSH1 0x40 MSTORE DUP1 PUSH1 0x0 DUP2 MSTORE PUSH1 0x20 ADD PUSH1 0x0 DUP2 MSTORE PUSH1 0x20 ADD PUSH1 0x0 PUSH1 0x1 PUSH1 0x1 PUSH1 0xA0 SHL SUB AND DUP2 MSTORE PUSH1 0x20 ADD PUSH1 0x0 DUP2 MSTORE PUSH1 0x20 ADD PUSH1 0x0 DUP2 MSTORE PUSH1 0x20 ADD PUSH1 0x0 ISZERO ISZERO DUP2 MSTORE POP SWAP1 JUMP JUMPDEST DUP4 DUP2 MSTORE DUP3 MLOAD PUSH1 0x20 DUP1 DUP4 ADD SWAP2 DUP3 MSTORE DUP1 DUP6 ADD MLOAD PUSH1 0x1 PUSH1 0x1 PUSH1 0xA0 SHL SUB SWAP1 DUP2 AND PUSH1 0x40 DUP1 DUP7 ADD SWAP2 DUP3 MSTORE PUSH1 0x60 DUP7 ADD DUP12 DUP2 MSTORE PUSH1 0x80 DUP8 ADD DUP9 DUP2 MSTORE PUSH1 0x1 PUSH1 0xA0 DUP10 ADD DUP2 DUP2 MSTORE DUP14 DUP8 AND PUSH1 0x0 DUP2 DUP2 MSTORE PUSH1 0x10 DUP11 MSTORE DUP7 DUP2 KECCAK256 DUP1 SLOAD DUP1 DUP7 ADD DUP3 SSTORE SWAP1 DUP3 MSTORE SWAP10 SWAP1 KECCAK256 DUP12 MLOAD PUSH1 0x6 SWAP1 SWAP11 MUL ADD SWAP9 DUP10 SSTORE SWAP9 MLOAD DUP9 DUP4 ADD SSTORE SWAP5 MLOAD PUSH1 0x2 DUP9 ADD DUP1 SLOAD PUSH1 0x1 PUSH1 0x1 PUSH1 0xA0 SHL SUB NOT AND SWAP2 DUP9 AND SWAP2 SWAP1 SWAP2 OR SWAP1 SSTORE SWAP2 MLOAD PUSH1 0x3 DUP8 ADD SSTORE MLOAD PUSH1 0x4 DUP1 DUP8 ADD SWAP2 SWAP1 SWAP2 SSTORE SWAP3 MLOAD PUSH1 0x5 SWAP1 SWAP6 ADD DUP1 SLOAD PUSH1 0xFF NOT AND SWAP6 ISZERO ISZERO SWAP6 SWAP1 SWAP6 OR SWAP1 SWAP5 SSTORE SWAP3 SLOAD SWAP3 MLOAD PUSH4 0xA9059CBB PUSH1 0xE0 SHL DUP2 MSTORE SWAP1 DUP2 ADD SWAP4 SWAP1 SWAP4 MSTORE PUSH1 0x24 DUP4 ADD DUP6 SWAP1 MSTORE AND SWAP1 PUSH4 0xA9059CBB SWAP1 PUSH1 0x44 ADD PUSH1 0x20 PUSH1 0x40 MLOAD DUP1 DUP4 SUB DUP2 PUSH1 0x0 DUP8 GAS CALL ISZERO DUP1 ISZERO PUSH2 0x3979 JUMPI RETURNDATASIZE PUSH1 0x0 DUP1 RETURNDATACOPY RETURNDATASIZE PUSH1 0x0 REVERT JUMPDEST POP POP POP POP PUSH1 0x40 MLOAD RETURNDATASIZE PUSH1 0x1F NOT PUSH1 0x1F DUP3 ADD AND DUP3 ADD DUP1 PUSH1 0x40 MSTORE POP DUP2 ADD SWAP1 PUSH2 0x399D SWAP2 SWAP1 PUSH2 0x4B57 JUMP JUMPDEST POP PUSH1 0x1A DUP1 SLOAD SWAP1 PUSH1 0x0 PUSH2 0x1B50 DUP4 PUSH2 0x4AE7 JUMP JUMPDEST PUSH1 0x0 PUSH2 0x39B9 DUP3 PUSH2 0x1EB0 JUMP JUMPDEST PUSH1 0x1 PUSH2 0x120 DUP3 ADD MSTORE PUSH1 0x4 DUP1 SLOAD SWAP2 SWAP3 POP DUP3 SWAP2 DUP5 SWAP1 DUP2 LT PUSH2 0x39DA JUMPI PUSH2 0x39DA PUSH2 0x4B00 JUMP JUMPDEST PUSH1 0x0 SWAP2 DUP3 MSTORE PUSH1 0x20 SWAP2 DUP3 SWAP1 KECCAK256 DUP4 MLOAD PUSH1 0x9 SWAP3 SWAP1 SWAP3 MUL ADD SWAP1 DUP2 SSTORE DUP3 DUP3 ADD MLOAD PUSH1 0x1 DUP3 ADD SSTORE PUSH1 0x40 DUP4 ADD MLOAD PUSH1 0x2 DUP3 ADD DUP1 SLOAD PUSH1 0x1 PUSH1 0x1 PUSH1 0xA0 SHL SUB NOT AND PUSH1 0x1 PUSH1 0x1 PUSH1 0xA0 SHL SUB SWAP1 SWAP3 AND SWAP2 SWAP1 SWAP2 OR SWAP1 SSTORE PUSH1 0x60 DUP4 ADD MLOAD DUP1 MLOAD SWAP2 SWAP3 PUSH2 0x3A3B SWAP3 PUSH1 0x3 DUP6 ADD SWAP3 SWAP1 SWAP2 ADD SWAP1 PUSH2 0x3D98 JUMP JUMPDEST POP PUSH1 0x80 DUP3 ADD MLOAD DUP1 MLOAD PUSH2 0x3A57 SWAP2 PUSH1 0x4 DUP5 ADD SWAP2 PUSH1 0x20 SWAP1 SWAP2 ADD SWAP1 PUSH2 0x3D98 JUMP JUMPDEST POP PUSH1 0xA0 DUP3 ADD MLOAD PUSH1 0x5 DUP3 ADD SSTORE PUSH1 0xC0 DUP3 ADD MLOAD PUSH1 0x6 DUP3 ADD SSTORE PUSH1 0xE0 DUP3 ADD MLOAD PUSH1 0x7 DUP3 ADD SSTORE PUSH2 0x100 DUP1 DUP4 ADD MLOAD PUSH1 0x8 SWAP1 SWAP3 ADD DUP1 SLOAD PUSH2 0x120 DUP6 ADD MLOAD PUSH2 0x140 SWAP1 SWAP6 ADD MLOAD PUSH2 0xFFFF NOT SWAP1 SWAP2 AND SWAP4 ISZERO ISZERO PUSH2 0xFF00 NOT AND SWAP4 SWAP1 SWAP4 OR SWAP4 ISZERO ISZERO SWAP1 SWAP2 MUL SWAP3 SWAP1 SWAP3 OR PUSH3 0xFF0000 NOT AND PUSH3 0x10000 SWAP2 ISZERO ISZERO SWAP2 SWAP1 SWAP2 MUL OR SWAP1 SSTORE POP POP JUMP JUMPDEST PUSH1 0x0 PUSH2 0x3AD1 DUP4 PUSH2 0x342D JUMP JUMPDEST SWAP1 POP PUSH1 0x0 PUSH2 0x3ADE DUP5 PUSH2 0x217E JUMP JUMPDEST SWAP1 POP PUSH1 0x0 PUSH1 0x19 SLOAD SWAP1 POP PUSH2 0x3B32 PUSH1 0x40 MLOAD DUP1 PUSH1 0xE0 ADD PUSH1 0x40 MSTORE DUP1 PUSH1 0x0 DUP2 MSTORE PUSH1 0x20 ADD PUSH1 0x0 DUP2 MSTORE PUSH1 0x20 ADD PUSH1 0x0 DUP2 MSTORE PUSH1 0x20 ADD PUSH1 0x0 DUP2 MSTORE PUSH1 0x20 ADD PUSH1 0x0 PUSH1 0x1 PUSH1 0x1 PUSH1 0xA0 SHL SUB AND DUP2 MSTORE PUSH1 0x20 ADD PUSH1 0x0 DUP2 MSTORE PUSH1 0x20 ADD PUSH1 0x0 ISZERO ISZERO DUP2 MSTORE POP SWAP1 JUMP JUMPDEST DUP2 DUP2 MSTORE PUSH1 0x20 DUP2 ADD DUP7 DUP2 MSTORE PUSH1 0x60 DUP3 ADD DUP7 DUP2 MSTORE PUSH1 0x40 DUP7 DUP2 ADD DUP1 MLOAD PUSH1 0x1 PUSH1 0x1 PUSH1 0xA0 SHL SUB SWAP1 DUP2 AND PUSH1 0x80 DUP8 ADD SWAP1 DUP2 MSTORE PUSH1 0xA0 DUP8 ADD DUP10 DUP2 MSTORE PUSH1 0x1 PUSH1 0xC0 DUP10 ADD DUP2 DUP2 MSTORE PUSH1 0xF DUP1 SLOAD DUP1 DUP5 ADD DUP3 SSTORE PUSH1 0x0 SWAP2 SWAP1 SWAP2 MSTORE DUP11 MLOAD PUSH32 0x8D1108E10BCB7C27DDDFC02ED9D693A074039D026CF4EA4240B40F7D581AC802 PUSH1 0x7 SWAP1 SWAP3 MUL SWAP2 DUP3 ADD SSTORE SWAP9 MLOAD PUSH32 0x8D1108E10BCB7C27DDDFC02ED9D693A074039D026CF4EA4240B40F7D581AC803 DUP11 ADD SSTORE DUP7 DUP11 ADD MLOAD PUSH32 0x8D1108E10BCB7C27DDDFC02ED9D693A074039D026CF4EA4240B40F7D581AC804 DUP11 ADD SSTORE SWAP7 MLOAD PUSH32 0x8D1108E10BCB7C27DDDFC02ED9D693A074039D026CF4EA4240B40F7D581AC805 DUP10 ADD SSTORE SWAP2 MLOAD PUSH32 0x8D1108E10BCB7C27DDDFC02ED9D693A074039D026CF4EA4240B40F7D581AC806 DUP9 ADD DUP1 SLOAD PUSH1 0x1 PUSH1 0x1 PUSH1 0xA0 SHL SUB NOT AND SWAP2 DUP6 AND SWAP2 SWAP1 SWAP2 OR SWAP1 SSTORE MLOAD PUSH32 0x8D1108E10BCB7C27DDDFC02ED9D693A074039D026CF4EA4240B40F7D581AC807 DUP8 ADD SSTORE SWAP4 MLOAD PUSH32 0x8D1108E10BCB7C27DDDFC02ED9D693A074039D026CF4EA4240B40F7D581AC808 SWAP1 SWAP6 ADD DUP1 SLOAD PUSH1 0xFF NOT AND SWAP6 ISZERO ISZERO SWAP6 SWAP1 SWAP6 OR SWAP1 SWAP5 SSTORE SWAP2 SLOAD SWAP2 MLOAD SWAP1 MLOAD PUSH4 0xA9059CBB PUSH1 0xE0 SHL DUP2 MSTORE SWAP1 DUP4 AND PUSH1 0x4 DUP3 ADD MSTORE PUSH1 0x24 DUP2 ADD DUP7 SWAP1 MSTORE SWAP2 AND SWAP1 PUSH4 0xA9059CBB SWAP1 PUSH1 0x44 ADD PUSH1 0x20 PUSH1 0x40 MLOAD DUP1 DUP4 SUB DUP2 PUSH1 0x0 DUP8 GAS CALL ISZERO DUP1 ISZERO PUSH2 0x3CFA JUMPI RETURNDATASIZE PUSH1 0x0 DUP1 RETURNDATACOPY RETURNDATASIZE PUSH1 0x0 REVERT JUMPDEST POP POP POP POP PUSH1 0x40 MLOAD RETURNDATASIZE PUSH1 0x1F NOT PUSH1 0x1F DUP3 ADD AND DUP3 ADD DUP1 PUSH1 0x40 MSTORE POP DUP2 ADD SWAP1 PUSH2 0x3D1E SWAP2 SWAP1 PUSH2 0x4B57 JUMP JUMPDEST POP PUSH1 0x19 DUP1 SLOAD SWAP1 PUSH1 0x0 PUSH2 0x1B50 DUP4 PUSH2 0x4AE7 JUMP JUMPDEST PUSH1 0x40 MLOAD DUP1 PUSH2 0x160 ADD PUSH1 0x40 MSTORE DUP1 PUSH1 0x0 DUP2 MSTORE PUSH1 0x20 ADD PUSH1 0x0 DUP2 MSTORE PUSH1 0x20 ADD PUSH1 0x0 PUSH1 0x1 PUSH1 0x1 PUSH1 0xA0 SHL SUB AND DUP2 MSTORE PUSH1 0x20 ADD PUSH1 0x60 DUP2 MSTORE PUSH1 0x20 ADD PUSH1 0x60 DUP2 MSTORE PUSH1 0x20 ADD PUSH1 0x0 DUP2 MSTORE PUSH1 0x20 ADD PUSH1 0x0 DUP2 MSTORE PUSH1 0x20 ADD PUSH1 0x0 DUP2 MSTORE PUSH1 0x20 ADD PUSH1 0x0 ISZERO ISZERO DUP2 MSTORE PUSH1 0x20 ADD PUSH1 0x0 ISZERO ISZERO DUP2 MSTORE PUSH1 0x20 ADD PUSH1 0x0 ISZERO ISZERO DUP2 MSTORE POP SWAP1 JUMP JUMPDEST DUP3 DUP1 SLOAD PUSH2 0x3DA4 SWAP1 PUSH2 0x4A7F JUMP JUMPDEST SWAP1 PUSH1 0x0 MSTORE PUSH1 0x20 PUSH1 0x0 KECCAK256 SWAP1 PUSH1 0x1F ADD PUSH1 0x20 SWAP1 DIV DUP2 ADD SWAP3 DUP3 PUSH2 0x3DC6 JUMPI PUSH1 0x0 DUP6 SSTORE PUSH2 0x3E0C JUMP JUMPDEST DUP3 PUSH1 0x1F LT PUSH2 0x3DDF JUMPI DUP1 MLOAD PUSH1 0xFF NOT AND DUP4 DUP1 ADD OR DUP6 SSTORE PUSH2 0x3E0C JUMP JUMPDEST DUP3 DUP1 ADD PUSH1 0x1 ADD DUP6 SSTORE DUP3 ISZERO PUSH2 0x3E0C JUMPI SWAP2 DUP3 ADD JUMPDEST DUP3 DUP2 GT ISZERO PUSH2 0x3E0C JUMPI DUP3 MLOAD DUP3 SSTORE SWAP2 PUSH1 0x20 ADD SWAP2 SWAP1 PUSH1 0x1 ADD SWAP1 PUSH2 0x3DF1 JUMP JUMPDEST POP PUSH2 0x3E18 SWAP3 SWAP2 POP PUSH2 0x3F72 JUMP JUMPDEST POP SWAP1 JUMP JUMPDEST PUSH1 0x40 MLOAD DUP1 PUSH1 0xE0 ADD PUSH1 0x40 MSTORE DUP1 PUSH1 0x0 DUP2 MSTORE PUSH1 0x20 ADD PUSH1 0x0 DUP2 MSTORE PUSH1 0x20 ADD PUSH1 0x0 PUSH1 0x1 PUSH1 0x1 PUSH1 0xA0 SHL SUB AND DUP2 MSTORE PUSH1 0x20 ADD PUSH1 0x0 DUP2 MSTORE PUSH1 0x20 ADD PUSH1 0x60 DUP2 MSTORE PUSH1 0x20 ADD PUSH1 0x0 ISZERO ISZERO DUP2 MSTORE PUSH1 0x20 ADD PUSH1 0x0 ISZERO ISZERO DUP2 MSTORE POP SWAP1 JUMP JUMPDEST PUSH1 0x40 MLOAD DUP1 PUSH2 0x100 ADD PUSH1 0x40 MSTORE DUP1 PUSH1 0x0 DUP2 MSTORE PUSH1 0x20 ADD PUSH1 0x0 DUP2 MSTORE PUSH1 0x20 ADD PUSH1 0x0 PUSH1 0x1 PUSH1 0x1 PUSH1 0xA0 SHL SUB AND DUP2 MSTORE PUSH1 0x20 ADD PUSH1 0x60 DUP2 MSTORE PUSH1 0x20 ADD PUSH1 0x60 DUP2 MSTORE PUSH1 0x20 ADD PUSH1 0x60 DUP2 MSTORE PUSH1 0x20 ADD PUSH1 0x60 DUP2 MSTORE PUSH1 0x20 ADD PUSH1 0x0 ISZERO ISZERO DUP2 MSTORE POP SWAP1 JUMP JUMPDEST PUSH1 0x40 MLOAD DUP1 PUSH1 0xC0 ADD PUSH1 0x40 MSTORE DUP1 PUSH1 0x0 DUP2 MSTORE PUSH1 0x20 ADD PUSH1 0x0 PUSH1 0x1 PUSH1 0x1 PUSH1 0xA0 SHL SUB AND DUP2 MSTORE PUSH1 0x20 ADD PUSH1 0x60 DUP2 MSTORE PUSH1 0x20 ADD PUSH1 0x60 DUP2 MSTORE PUSH1 0x20 ADD PUSH1 0x60 DUP2 MSTORE PUSH1 0x20 ADD PUSH1 0x0 ISZERO ISZERO DUP2 MSTORE POP SWAP1 JUMP JUMPDEST PUSH1 0x40 MLOAD DUP1 PUSH1 0xC0 ADD PUSH1 0x40 MSTORE DUP1 PUSH1 0x0 DUP2 MSTORE PUSH1 0x20 ADD PUSH1 0x0 DUP2 MSTORE PUSH1 0x20 ADD PUSH1 0x0 DUP2 MSTORE PUSH1 0x20 ADD PUSH1 0x0 DUP2 MSTORE PUSH1 0x20 ADD PUSH1 0x0 ISZERO ISZERO DUP2 MSTORE PUSH1 0x20 ADD PUSH1 0x0 ISZERO ISZERO DUP2 MSTORE POP SWAP1 JUMP JUMPDEST PUSH1 0x40 MLOAD DUP1 PUSH1 0xC0 ADD PUSH1 0x40 MSTORE DUP1 PUSH1 0x0 DUP2 MSTORE PUSH1 0x20 ADD PUSH1 0x0 PUSH1 0x1 PUSH1 0x1 PUSH1 0xA0 SHL SUB AND DUP2 MSTORE PUSH1 0x20 ADD PUSH1 0x60 DUP2 MSTORE PUSH1 0x20 ADD PUSH1 0x60 DUP2 MSTORE PUSH1 0x20 ADD PUSH1 0x0 DUP2 MSTORE PUSH1 0x20 ADD PUSH1 0x0 ISZERO ISZERO DUP2 MSTORE POP SWAP1 JUMP JUMPDEST JUMPDEST DUP1 DUP3 GT ISZERO PUSH2 0x3E18 JUMPI PUSH1 0x0 DUP2 SSTORE PUSH1 0x1 ADD PUSH2 0x3F73 JUMP JUMPDEST PUSH1 0x0 PUSH1 0x20 DUP3 DUP5 SUB SLT ISZERO PUSH2 0x3F99 JUMPI PUSH1 0x0 DUP1 REVERT JUMPDEST POP CALLDATALOAD SWAP2 SWAP1 POP JUMP JUMPDEST PUSH1 0x0 DUP2 MLOAD DUP1 DUP5 MSTORE PUSH1 0x0 JUMPDEST DUP2 DUP2 LT ISZERO PUSH2 0x3FC6 JUMPI PUSH1 0x20 DUP2 DUP6 ADD DUP2 ADD MLOAD DUP7 DUP4 ADD DUP3 ADD MSTORE ADD PUSH2 0x3FAA JUMP JUMPDEST DUP2 DUP2 GT ISZERO PUSH2 0x3FD8 JUMPI PUSH1 0x0 PUSH1 0x20 DUP4 DUP8 ADD ADD MSTORE JUMPDEST POP PUSH1 0x1F ADD PUSH1 0x1F NOT AND SWAP3 SWAP1 SWAP3 ADD PUSH1 0x20 ADD SWAP3 SWAP2 POP POP JUMP JUMPDEST DUP12 DUP2 MSTORE PUSH1 0x20 DUP2 ADD DUP12 SWAP1 MSTORE PUSH1 0x1 PUSH1 0x1 PUSH1 0xA0 SHL SUB DUP11 AND PUSH1 0x40 DUP3 ADD MSTORE PUSH2 0x160 PUSH1 0x60 DUP3 ADD DUP2 SWAP1 MSTORE PUSH1 0x0 SWAP1 PUSH2 0x401F DUP4 DUP3 ADD DUP13 PUSH2 0x3FA0 JUMP JUMPDEST SWAP1 POP DUP3 DUP2 SUB PUSH1 0x80 DUP5 ADD MSTORE PUSH2 0x4033 DUP2 DUP12 PUSH2 0x3FA0 JUMP JUMPDEST PUSH1 0xA0 DUP5 ADD SWAP10 SWAP1 SWAP10 MSTORE POP POP PUSH1 0xC0 DUP2 ADD SWAP6 SWAP1 SWAP6 MSTORE PUSH1 0xE0 DUP6 ADD SWAP4 SWAP1 SWAP4 MSTORE SWAP1 ISZERO ISZERO PUSH2 0x100 DUP5 ADD MSTORE ISZERO ISZERO PUSH2 0x120 DUP4 ADD MSTORE ISZERO ISZERO PUSH2 0x140 SWAP1 SWAP2 ADD MSTORE SWAP6 SWAP5 POP POP POP POP POP JUMP JUMPDEST DUP1 CALLDATALOAD PUSH1 0x1 PUSH1 0x1 PUSH1 0xA0 SHL SUB DUP2 AND DUP2 EQ PUSH2 0x4087 JUMPI PUSH1 0x0 DUP1 REVERT JUMPDEST SWAP2 SWAP1 POP JUMP JUMPDEST PUSH1 0x0 PUSH1 0x20 DUP3 DUP5 SUB SLT ISZERO PUSH2 0x409E JUMPI PUSH1 0x0 DUP1 REVERT JUMPDEST PUSH2 0x1B9B DUP3 PUSH2 0x4070 JUMP JUMPDEST PUSH4 0x4E487B71 PUSH1 0xE0 SHL PUSH1 0x0 MSTORE PUSH1 0x41 PUSH1 0x4 MSTORE PUSH1 0x24 PUSH1 0x0 REVERT JUMPDEST PUSH1 0x0 DUP3 PUSH1 0x1F DUP4 ADD SLT PUSH2 0x40CE JUMPI PUSH1 0x0 DUP1 REVERT JUMPDEST DUP2 CALLDATALOAD PUSH8 0xFFFFFFFFFFFFFFFF DUP1 DUP3 GT ISZERO PUSH2 0x40E9 JUMPI PUSH2 0x40E9 PUSH2 0x40A7 JUMP JUMPDEST PUSH1 0x40 MLOAD PUSH1 0x1F DUP4 ADD PUSH1 0x1F NOT SWAP1 DUP2 AND PUSH1 0x3F ADD AND DUP2 ADD SWAP1 DUP3 DUP3 GT DUP2 DUP4 LT OR ISZERO PUSH2 0x4111 JUMPI PUSH2 0x4111 PUSH2 0x40A7 JUMP JUMPDEST DUP2 PUSH1 0x40 MSTORE DUP4 DUP2 MSTORE DUP7 PUSH1 0x20 DUP6 DUP9 ADD ADD GT ISZERO PUSH2 0x412A JUMPI PUSH1 0x0 DUP1 REVERT JUMPDEST DUP4 PUSH1 0x20 DUP8 ADD PUSH1 0x20 DUP4 ADD CALLDATACOPY PUSH1 0x0 PUSH1 0x20 DUP6 DUP4 ADD ADD MSTORE DUP1 SWAP5 POP POP POP POP POP SWAP3 SWAP2 POP POP JUMP JUMPDEST PUSH1 0x0 DUP1 PUSH1 0x0 DUP1 PUSH1 0x0 DUP1 PUSH1 0x0 PUSH1 0xE0 DUP9 DUP11 SUB SLT ISZERO PUSH2 0x4165 JUMPI PUSH1 0x0 DUP1 REVERT JUMPDEST DUP8 CALLDATALOAD SWAP7 POP PUSH2 0x4175 PUSH1 0x20 DUP10 ADD PUSH2 0x4070 JUMP JUMPDEST SWAP6 POP PUSH1 0x40 DUP9 ADD CALLDATALOAD PUSH8 0xFFFFFFFFFFFFFFFF DUP1 DUP3 GT ISZERO PUSH2 0x4192 JUMPI PUSH1 0x0 DUP1 REVERT JUMPDEST PUSH2 0x419E DUP12 DUP4 DUP13 ADD PUSH2 0x40BD JUMP JUMPDEST SWAP7 POP PUSH1 0x60 DUP11 ADD CALLDATALOAD SWAP2 POP DUP1 DUP3 GT ISZERO PUSH2 0x41B4 JUMPI PUSH1 0x0 DUP1 REVERT JUMPDEST POP PUSH2 0x41C1 DUP11 DUP3 DUP12 ADD PUSH2 0x40BD JUMP JUMPDEST SWAP8 SWAP11 SWAP7 SWAP10 POP SWAP5 SWAP8 PUSH1 0x80 DUP2 ADD CALLDATALOAD SWAP7 PUSH1 0xA0 DUP3 ADD CALLDATALOAD SWAP7 POP PUSH1 0xC0 SWAP1 SWAP2 ADD CALLDATALOAD SWAP5 POP SWAP3 POP POP POP JUMP JUMPDEST PUSH1 0x0 DUP1 PUSH1 0x0 DUP1 PUSH1 0x80 DUP6 DUP8 SUB SLT ISZERO PUSH2 0x41F9 JUMPI PUSH1 0x0 DUP1 REVERT JUMPDEST DUP5 CALLDATALOAD SWAP4 POP PUSH1 0x20 DUP6 ADD CALLDATALOAD SWAP3 POP PUSH2 0x4210 PUSH1 0x40 DUP7 ADD PUSH2 0x4070 JUMP JUMPDEST SWAP2 POP PUSH1 0x60 DUP6 ADD CALLDATALOAD PUSH8 0xFFFFFFFFFFFFFFFF DUP2 GT ISZERO PUSH2 0x422C JUMPI PUSH1 0x0 DUP1 REVERT JUMPDEST PUSH2 0x4238 DUP8 DUP3 DUP9 ADD PUSH2 0x40BD JUMP JUMPDEST SWAP2 POP POP SWAP3 SWAP6 SWAP2 SWAP5 POP SWAP3 POP JUMP JUMPDEST DUP1 MLOAD DUP3 MSTORE PUSH1 0x20 DUP2 ADD MLOAD PUSH1 0x20 DUP4 ADD MSTORE PUSH1 0x1 DUP1 PUSH1 0xA0 SHL SUB PUSH1 0x40 DUP3 ADD MLOAD AND PUSH1 0x40 DUP4 ADD MSTORE PUSH1 0x60 DUP2 ADD MLOAD PUSH1 0x60 DUP4 ADD MSTORE PUSH1 0x0 PUSH1 0x80 DUP3 ADD MLOAD PUSH1 0xE0 PUSH1 0x80 DUP6 ADD MSTORE PUSH2 0x4289 PUSH1 0xE0 DUP6 ADD DUP3 PUSH2 0x3FA0 JUMP JUMPDEST SWAP1 POP PUSH1 0xA0 DUP4 ADD MLOAD ISZERO ISZERO PUSH1 0xA0 DUP6 ADD MSTORE PUSH1 0xC0 DUP4 ADD MLOAD ISZERO ISZERO PUSH1 0xC0 DUP6 ADD MSTORE DUP1 SWAP2 POP POP SWAP3 SWAP2 POP POP JUMP JUMPDEST PUSH1 0x20 DUP2 MSTORE PUSH1 0x0 PUSH2 0x1B9B PUSH1 0x20 DUP4 ADD DUP5 PUSH2 0x4244 JUMP JUMPDEST PUSH1 0x0 DUP1 PUSH1 0x40 DUP4 DUP6 SUB SLT ISZERO PUSH2 0x42D3 JUMPI PUSH1 0x0 DUP1 REVERT JUMPDEST DUP3 CALLDATALOAD SWAP2 POP PUSH2 0x42E3 PUSH1 0x20 DUP5 ADD PUSH2 0x4070 JUMP JUMPDEST SWAP1 POP SWAP3 POP SWAP3 SWAP1 POP JUMP JUMPDEST PUSH1 0x0 DUP1 PUSH1 0x40 DUP4 DUP6 SUB SLT ISZERO PUSH2 0x42FF JUMPI PUSH1 0x0 DUP1 REVERT JUMPDEST PUSH2 0x4308 DUP4 PUSH2 0x4070 JUMP JUMPDEST SWAP5 PUSH1 0x20 SWAP4 SWAP1 SWAP4 ADD CALLDATALOAD SWAP4 POP POP POP JUMP JUMPDEST PUSH1 0x0 PUSH2 0x160 DUP3 MLOAD DUP5 MSTORE PUSH1 0x20 DUP4 ADD MLOAD PUSH1 0x20 DUP6 ADD MSTORE PUSH1 0x40 DUP4 ADD MLOAD PUSH2 0x4343 PUSH1 0x40 DUP7 ADD DUP3 PUSH1 0x1 PUSH1 0x1 PUSH1 0xA0 SHL SUB AND SWAP1 MSTORE JUMP JUMPDEST POP PUSH1 0x60 DUP4 ADD MLOAD DUP2 PUSH1 0x60 DUP7 ADD MSTORE PUSH2 0x435B DUP3 DUP7 ADD DUP3 PUSH2 0x3FA0 JUMP JUMPDEST SWAP2 POP POP PUSH1 0x80 DUP4 ADD MLOAD DUP5 DUP3 SUB PUSH1 0x80 DUP7 ADD MSTORE PUSH2 0x4375 DUP3 DUP3 PUSH2 0x3FA0 JUMP JUMPDEST SWAP2 POP POP PUSH1 0xA0 DUP4 ADD MLOAD PUSH1 0xA0 DUP6 ADD MSTORE PUSH1 0xC0 DUP4 ADD MLOAD PUSH1 0xC0 DUP6 ADD MSTORE PUSH1 0xE0 DUP4 ADD MLOAD PUSH1 0xE0 DUP6 ADD MSTORE PUSH2 0x100 DUP1 DUP5 ADD MLOAD PUSH2 0x43AA DUP3 DUP8 ADD DUP3 ISZERO ISZERO SWAP1 MSTORE JUMP JUMPDEST POP POP PUSH2 0x120 DUP4 DUP2 ADD MLOAD ISZERO ISZERO SWAP1 DUP6 ADD MSTORE PUSH2 0x140 DUP1 DUP5 ADD MLOAD DUP1 ISZERO ISZERO DUP3 DUP8 ADD MSTORE PUSH2 0x1C76 JUMP JUMPDEST PUSH1 0x0 PUSH1 0x20 DUP1 DUP4 ADD DUP2 DUP5 MSTORE DUP1 DUP6 MLOAD DUP1 DUP4 MSTORE PUSH1 0x40 DUP7 ADD SWAP2 POP PUSH1 0x40 DUP2 PUSH1 0x5 SHL DUP8 ADD ADD SWAP3 POP DUP4 DUP8 ADD PUSH1 0x0 JUMPDEST DUP3 DUP2 LT ISZERO PUSH2 0x4421 JUMPI PUSH1 0x3F NOT DUP9 DUP7 SUB ADD DUP5 MSTORE PUSH2 0x440F DUP6 DUP4 MLOAD PUSH2 0x4316 JUMP JUMPDEST SWAP5 POP SWAP3 DUP6 ADD SWAP3 SWAP1 DUP6 ADD SWAP1 PUSH1 0x1 ADD PUSH2 0x43F3 JUMP JUMPDEST POP SWAP3 SWAP8 SWAP7 POP POP POP POP POP POP POP JUMP JUMPDEST DUP7 DUP2 MSTORE PUSH1 0x1 PUSH1 0x1 PUSH1 0xA0 SHL SUB DUP7 AND PUSH1 0x20 DUP3 ADD MSTORE PUSH1 0xC0 PUSH1 0x40 DUP3 ADD DUP2 SWAP1 MSTORE PUSH1 0x0 SWAP1 PUSH2 0x4458 SWAP1 DUP4 ADD DUP8 PUSH2 0x3FA0 JUMP JUMPDEST DUP3 DUP2 SUB PUSH1 0x60 DUP5 ADD MSTORE PUSH2 0x446A DUP2 DUP8 PUSH2 0x3FA0 JUMP JUMPDEST PUSH1 0x80 DUP5 ADD SWAP6 SWAP1 SWAP6 MSTORE POP POP SWAP1 ISZERO ISZERO PUSH1 0xA0 SWAP1 SWAP2 ADD MSTORE SWAP5 SWAP4 POP POP POP POP JUMP JUMPDEST PUSH1 0x0 PUSH2 0x100 DUP3 MLOAD DUP5 MSTORE PUSH1 0x20 DUP4 ADD MLOAD PUSH1 0x20 DUP6 ADD MSTORE PUSH1 0x40 DUP4 ADD MLOAD PUSH2 0x44B2 PUSH1 0x40 DUP7 ADD DUP3 PUSH1 0x1 PUSH1 0x1 PUSH1 0xA0 SHL SUB AND SWAP1 MSTORE JUMP JUMPDEST POP PUSH1 0x60 DUP4 ADD MLOAD DUP2 PUSH1 0x60 DUP7 ADD MSTORE PUSH2 0x44CA DUP3 DUP7 ADD DUP3 PUSH2 0x3FA0 JUMP JUMPDEST SWAP2 POP POP PUSH1 0x80 DUP4 ADD MLOAD DUP5 DUP3 SUB PUSH1 0x80 DUP7 ADD MSTORE PUSH2 0x44E4 DUP3 DUP3 PUSH2 0x3FA0 JUMP JUMPDEST SWAP2 POP POP PUSH1 0xA0 DUP4 ADD MLOAD DUP5 DUP3 SUB PUSH1 0xA0 DUP7 ADD MSTORE PUSH2 0x44FE DUP3 DUP3 PUSH2 0x3FA0 JUMP JUMPDEST SWAP2 POP POP PUSH1 0xC0 DUP4 ADD MLOAD DUP5 DUP3 SUB PUSH1 0xC0 DUP7 ADD MSTORE PUSH2 0x4518 DUP3 DUP3 PUSH2 0x3FA0 JUMP JUMPDEST SWAP2 POP POP PUSH1 0xE0 DUP4 ADD MLOAD PUSH2 0x452E PUSH1 0xE0 DUP7 ADD DUP3 ISZERO ISZERO SWAP1 MSTORE JUMP JUMPDEST POP SWAP4 SWAP3 POP POP POP JUMP JUMPDEST PUSH1 0x20 DUP2 MSTORE PUSH1 0x0 PUSH2 0x1B9B PUSH1 0x20 DUP4 ADD DUP5 PUSH2 0x4485 JUMP JUMPDEST PUSH1 0x0 DUP1 PUSH1 0x0 DUP1 PUSH1 0x80 DUP6 DUP8 SUB SLT ISZERO PUSH2 0x455F JUMPI PUSH1 0x0 DUP1 REVERT JUMPDEST PUSH2 0x4568 DUP6 PUSH2 0x4070 JUMP JUMPDEST SWAP4 POP PUSH1 0x20 DUP6 ADD CALLDATALOAD PUSH8 0xFFFFFFFFFFFFFFFF DUP1 DUP3 GT ISZERO PUSH2 0x4585 JUMPI PUSH1 0x0 DUP1 REVERT JUMPDEST PUSH2 0x4591 DUP9 DUP4 DUP10 ADD PUSH2 0x40BD JUMP JUMPDEST SWAP5 POP PUSH1 0x40 DUP8 ADD CALLDATALOAD SWAP2 POP DUP1 DUP3 GT ISZERO PUSH2 0x45A7 JUMPI PUSH1 0x0 DUP1 REVERT JUMPDEST PUSH2 0x45B3 DUP9 DUP4 DUP10 ADD PUSH2 0x40BD JUMP JUMPDEST SWAP4 POP PUSH1 0x60 DUP8 ADD CALLDATALOAD SWAP2 POP DUP1 DUP3 GT ISZERO PUSH2 0x45C9 JUMPI PUSH1 0x0 DUP1 REVERT JUMPDEST POP PUSH2 0x4238 DUP8 DUP3 DUP9 ADD PUSH2 0x40BD JUMP JUMPDEST PUSH1 0x0 PUSH1 0x20 DUP1 DUP4 ADD DUP2 DUP5 MSTORE DUP1 DUP6 MLOAD DUP1 DUP4 MSTORE PUSH1 0x40 DUP7 ADD SWAP2 POP PUSH1 0x40 DUP2 PUSH1 0x5 SHL DUP8 ADD ADD SWAP3 POP DUP4 DUP8 ADD PUSH1 0x0 JUMPDEST DUP3 DUP2 LT ISZERO PUSH2 0x4421 JUMPI PUSH1 0x3F NOT DUP9 DUP7 SUB ADD DUP5 MSTORE PUSH2 0x4619 DUP6 DUP4 MLOAD PUSH2 0x4244 JUMP JUMPDEST SWAP5 POP SWAP3 DUP6 ADD SWAP3 SWAP1 DUP6 ADD SWAP1 PUSH1 0x1 ADD PUSH2 0x45FD JUMP JUMPDEST PUSH1 0x20 DUP2 MSTORE PUSH1 0x0 PUSH2 0x1B9B PUSH1 0x20 DUP4 ADD DUP5 PUSH2 0x4316 JUMP JUMPDEST PUSH1 0x0 DUP1 PUSH1 0x0 PUSH1 0x60 DUP5 DUP7 SUB SLT ISZERO PUSH2 0x4653 JUMPI PUSH1 0x0 DUP1 REVERT JUMPDEST PUSH2 0x465C DUP5 PUSH2 0x4070 JUMP JUMPDEST SWAP3 POP PUSH1 0x20 DUP5 ADD CALLDATALOAD PUSH8 0xFFFFFFFFFFFFFFFF DUP1 DUP3 GT ISZERO PUSH2 0x4679 JUMPI PUSH1 0x0 DUP1 REVERT JUMPDEST PUSH2 0x4685 DUP8 DUP4 DUP9 ADD PUSH2 0x40BD JUMP JUMPDEST SWAP4 POP PUSH1 0x40 DUP7 ADD CALLDATALOAD SWAP2 POP DUP1 DUP3 GT ISZERO PUSH2 0x469B JUMPI PUSH1 0x0 DUP1 REVERT JUMPDEST POP PUSH2 0x46A8 DUP7 DUP3 DUP8 ADD PUSH2 0x40BD JUMP JUMPDEST SWAP2 POP POP SWAP3 POP SWAP3 POP SWAP3 JUMP JUMPDEST PUSH1 0x0 PUSH1 0x20 DUP1 DUP4 ADD DUP2 DUP5 MSTORE DUP1 DUP6 MLOAD DUP1 DUP4 MSTORE PUSH1 0x40 DUP7 ADD SWAP2 POP PUSH1 0x40 DUP2 PUSH1 0x5 SHL DUP8 ADD ADD SWAP3 POP DUP4 DUP8 ADD PUSH1 0x0 JUMPDEST DUP3 DUP2 LT ISZERO PUSH2 0x4421 JUMPI PUSH1 0x3F NOT DUP9 DUP7 SUB ADD DUP5 MSTORE PUSH2 0x46F5 DUP6 DUP4 MLOAD PUSH2 0x4485 JUMP JUMPDEST SWAP5 POP SWAP3 DUP6 ADD SWAP3 SWAP1 DUP6 ADD SWAP1 PUSH1 0x1 ADD PUSH2 0x46D9 JUMP JUMPDEST PUSH1 0x20 DUP2 MSTORE DUP2 MLOAD PUSH1 0x20 DUP3 ADD MSTORE PUSH1 0x1 DUP1 PUSH1 0xA0 SHL SUB PUSH1 0x20 DUP4 ADD MLOAD AND PUSH1 0x40 DUP3 ADD MSTORE PUSH1 0x0 PUSH1 0x40 DUP4 ADD MLOAD PUSH1 0xC0 PUSH1 0x60 DUP5 ADD MSTORE PUSH2 0x473F PUSH1 0xE0 DUP5 ADD DUP3 PUSH2 0x3FA0 JUMP JUMPDEST SWAP1 POP PUSH1 0x60 DUP5 ADD MLOAD PUSH1 0x1F NOT DUP1 DUP6 DUP5 SUB ADD PUSH1 0x80 DUP7 ADD MSTORE PUSH2 0x475D DUP4 DUP4 PUSH2 0x3FA0 JUMP JUMPDEST SWAP3 POP PUSH1 0x80 DUP7 ADD MLOAD SWAP2 POP DUP1 DUP6 DUP5 SUB ADD PUSH1 0xA0 DUP7 ADD MSTORE POP PUSH2 0x477B DUP3 DUP3 PUSH2 0x3FA0 JUMP JUMPDEST SWAP2 POP POP PUSH1 0xA0 DUP5 ADD MLOAD ISZERO ISZERO PUSH1 0xC0 DUP5 ADD MSTORE DUP1 SWAP2 POP POP SWAP3 SWAP2 POP POP JUMP JUMPDEST DUP9 DUP2 MSTORE PUSH1 0x20 DUP2 ADD DUP9 SWAP1 MSTORE PUSH1 0x1 PUSH1 0x1 PUSH1 0xA0 SHL SUB DUP8 AND PUSH1 0x40 DUP3 ADD MSTORE PUSH2 0x100 PUSH1 0x60 DUP3 ADD DUP2 SWAP1 MSTORE PUSH1 0x0 SWAP1 PUSH2 0x47C6 DUP4 DUP3 ADD DUP10 PUSH2 0x3FA0 JUMP JUMPDEST SWAP1 POP DUP3 DUP2 SUB PUSH1 0x80 DUP5 ADD MSTORE PUSH2 0x47DA DUP2 DUP9 PUSH2 0x3FA0 JUMP JUMPDEST SWAP1 POP DUP3 DUP2 SUB PUSH1 0xA0 DUP5 ADD MSTORE PUSH2 0x47EE DUP2 DUP8 PUSH2 0x3FA0 JUMP JUMPDEST SWAP1 POP DUP3 DUP2 SUB PUSH1 0xC0 DUP5 ADD MSTORE PUSH2 0x4802 DUP2 DUP7 PUSH2 0x3FA0 JUMP JUMPDEST SWAP2 POP POP DUP3 ISZERO ISZERO PUSH1 0xE0 DUP4 ADD MSTORE SWAP10 SWAP9 POP POP POP POP POP POP POP POP POP JUMP JUMPDEST PUSH1 0x0 DUP1 PUSH1 0x0 DUP1 PUSH1 0x0 PUSH1 0xA0 DUP7 DUP9 SUB SLT ISZERO PUSH2 0x4832 JUMPI PUSH1 0x0 DUP1 REVERT JUMPDEST PUSH2 0x483B DUP7 PUSH2 0x4070 JUMP JUMPDEST SWAP5 POP PUSH1 0x20 DUP7 ADD CALLDATALOAD PUSH8 0xFFFFFFFFFFFFFFFF DUP1 DUP3 GT ISZERO PUSH2 0x4858 JUMPI PUSH1 0x0 DUP1 REVERT JUMPDEST PUSH2 0x4864 DUP10 DUP4 DUP11 ADD PUSH2 0x40BD JUMP JUMPDEST SWAP6 POP PUSH1 0x40 DUP9 ADD CALLDATALOAD SWAP2 POP DUP1 DUP3 GT ISZERO PUSH2 0x487A JUMPI PUSH1 0x0 DUP1 REVERT JUMPDEST PUSH2 0x4886 DUP10 DUP4 DUP11 ADD PUSH2 0x40BD JUMP JUMPDEST SWAP5 POP PUSH1 0x60 DUP9 ADD CALLDATALOAD SWAP2 POP DUP1 DUP3 GT ISZERO PUSH2 0x489C JUMPI PUSH1 0x0 DUP1 REVERT JUMPDEST PUSH2 0x48A8 DUP10 DUP4 DUP11 ADD PUSH2 0x40BD JUMP JUMPDEST SWAP4 POP PUSH1 0x80 DUP9 ADD CALLDATALOAD SWAP2 POP DUP1 DUP3 GT ISZERO PUSH2 0x48BE JUMPI PUSH1 0x0 DUP1 REVERT JUMPDEST POP PUSH2 0x48CB DUP9 DUP3 DUP10 ADD PUSH2 0x40BD JUMP JUMPDEST SWAP2 POP POP SWAP3 SWAP6 POP SWAP3 SWAP6 SWAP1 SWAP4 POP JUMP JUMPDEST DUP8 DUP2 MSTORE DUP7 PUSH1 0x20 DUP3 ADD MSTORE PUSH1 0x1 DUP1 PUSH1 0xA0 SHL SUB DUP7 AND PUSH1 0x40 DUP3 ADD MSTORE DUP5 PUSH1 0x60 DUP3 ADD MSTORE PUSH1 0xE0 PUSH1 0x80 DUP3 ADD MSTORE PUSH1 0x0 PUSH2 0x490B PUSH1 0xE0 DUP4 ADD DUP7 PUSH2 0x3FA0 JUMP JUMPDEST SWAP4 ISZERO ISZERO PUSH1 0xA0 DUP4 ADD MSTORE POP SWAP1 ISZERO ISZERO PUSH1 0xC0 SWAP1 SWAP2 ADD MSTORE SWAP6 SWAP5 POP POP POP POP POP JUMP JUMPDEST DUP7 DUP2 MSTORE PUSH1 0x1 PUSH1 0x1 PUSH1 0xA0 SHL SUB DUP7 AND PUSH1 0x20 DUP3 ADD MSTORE PUSH1 0xC0 PUSH1 0x40 DUP3 ADD DUP2 SWAP1 MSTORE PUSH1 0x0 SWAP1 PUSH2 0x4950 SWAP1 DUP4 ADD DUP8 PUSH2 0x3FA0 JUMP JUMPDEST DUP3 DUP2 SUB PUSH1 0x60 DUP5 ADD MSTORE PUSH2 0x4962 DUP2 DUP8 PUSH2 0x3FA0 JUMP JUMPDEST SWAP1 POP DUP3 DUP2 SUB PUSH1 0x80 DUP5 ADD MSTORE PUSH2 0x4976 DUP2 DUP7 PUSH2 0x3FA0 JUMP JUMPDEST SWAP2 POP POP DUP3 ISZERO ISZERO PUSH1 0xA0 DUP4 ADD MSTORE SWAP8 SWAP7 POP POP POP POP POP POP POP JUMP JUMPDEST PUSH1 0x0 DUP1 PUSH1 0x0 DUP1 PUSH1 0x80 DUP6 DUP8 SUB SLT ISZERO PUSH2 0x49A2 JUMPI PUSH1 0x0 DUP1 REVERT JUMPDEST DUP5 CALLDATALOAD SWAP4 POP PUSH1 0x20 DUP6 ADD CALLDATALOAD SWAP3 POP PUSH2 0x49B9 PUSH1 0x40 DUP7 ADD PUSH2 0x4070 JUMP JUMPDEST SWAP2 POP PUSH2 0x49C7 PUSH1 0x60 DUP7 ADD PUSH2 0x4070 JUMP JUMPDEST SWAP1 POP SWAP3 SWAP6 SWAP2 SWAP5 POP SWAP3 POP JUMP JUMPDEST PUSH1 0x20 DUP2 MSTORE DUP2 MLOAD PUSH1 0x20 DUP3 ADD MSTORE PUSH1 0x1 DUP1 PUSH1 0xA0 SHL SUB PUSH1 0x20 DUP4 ADD MLOAD AND PUSH1 0x40 DUP3 ADD MSTORE PUSH1 0x0 PUSH1 0x40 DUP4 ADD MLOAD PUSH1 0xC0 PUSH1 0x60 DUP5 ADD MSTORE PUSH2 0x4A0A PUSH1 0xE0 DUP5 ADD DUP3 PUSH2 0x3FA0 JUMP JUMPDEST SWAP1 POP PUSH1 0x60 DUP5 ADD MLOAD PUSH1 0x1F NOT DUP5 DUP4 SUB ADD PUSH1 0x80 DUP6 ADD MSTORE PUSH2 0x4A27 DUP3 DUP3 PUSH2 0x3FA0 JUMP JUMPDEST SWAP2 POP POP PUSH1 0x80 DUP5 ADD MLOAD PUSH1 0xA0 DUP5 ADD MSTORE PUSH1 0xA0 DUP5 ADD MLOAD ISZERO ISZERO PUSH1 0xC0 DUP5 ADD MSTORE DUP1 SWAP2 POP POP SWAP3 SWAP2 POP POP JUMP JUMPDEST PUSH1 0x0 DUP1 PUSH1 0x0 PUSH1 0x60 DUP5 DUP7 SUB SLT ISZERO PUSH2 0x4A5F JUMPI PUSH1 0x0 DUP1 REVERT JUMPDEST DUP4 CALLDATALOAD SWAP3 POP PUSH1 0x20 DUP5 ADD CALLDATALOAD SWAP2 POP PUSH2 0x4A76 PUSH1 0x40 DUP6 ADD PUSH2 0x4070 JUMP JUMPDEST SWAP1 POP SWAP3 POP SWAP3 POP SWAP3 JUMP JUMPDEST PUSH1 0x1 DUP2 DUP2 SHR SWAP1 DUP3 AND DUP1 PUSH2 0x4A93 JUMPI PUSH1 0x7F DUP3 AND SWAP2 POP JUMPDEST PUSH1 0x20 DUP3 LT DUP2 SUB PUSH2 0x4AB3 JUMPI PUSH4 0x4E487B71 PUSH1 0xE0 SHL PUSH1 0x0 MSTORE PUSH1 0x22 PUSH1 0x4 MSTORE PUSH1 0x24 PUSH1 0x0 REVERT JUMPDEST POP SWAP2 SWAP1 POP JUMP JUMPDEST PUSH4 0x4E487B71 PUSH1 0xE0 SHL PUSH1 0x0 MSTORE PUSH1 0x11 PUSH1 0x4 MSTORE PUSH1 0x24 PUSH1 0x0 REVERT JUMPDEST PUSH1 0x0 DUP3 NOT DUP3 GT ISZERO PUSH2 0x4AE2 JUMPI PUSH2 0x4AE2 PUSH2 0x4AB9 JUMP JUMPDEST POP ADD SWAP1 JUMP JUMPDEST PUSH1 0x0 PUSH1 0x1 DUP3 ADD PUSH2 0x4AF9 JUMPI PUSH2 0x4AF9 PUSH2 0x4AB9 JUMP JUMPDEST POP PUSH1 0x1 ADD SWAP1 JUMP JUMPDEST PUSH4 0x4E487B71 PUSH1 0xE0 SHL PUSH1 0x0 MSTORE PUSH1 0x32 PUSH1 0x4 MSTORE PUSH1 0x24 PUSH1 0x0 REVERT JUMPDEST PUSH1 0x0 DUP2 PUSH1 0x0 NOT DIV DUP4 GT DUP3 ISZERO ISZERO AND ISZERO PUSH2 0x4B30 JUMPI PUSH2 0x4B30 PUSH2 0x4AB9 JUMP JUMPDEST POP MUL SWAP1 JUMP JUMPDEST PUSH1 0x0 DUP3 PUSH2 0x4B52 JUMPI PUSH4 0x4E487B71 PUSH1 0xE0 SHL PUSH1 0x0 MSTORE PUSH1 0x12 PUSH1 0x4 MSTORE PUSH1 0x24 PUSH1 0x0 REVERT JUMPDEST POP DIV SWAP1 JUMP JUMPDEST PUSH1 0x0 PUSH1 0x20 DUP3 DUP5 SUB SLT ISZERO PUSH2 0x4B69 JUMPI PUSH1 0x0 DUP1 REVERT JUMPDEST DUP2 MLOAD DUP1 ISZERO ISZERO DUP2 EQ PUSH2 0x1B9B JUMPI PUSH1 0x0 DUP1 REVERT INVALID LOG2 PUSH5 0x6970667358 0x22 SLT KECCAK256 CODESIZE BLOCKHASH SGT 0x2C PUSH17 0xDDC9EC08FF02E34DE14AED4E330191641C 0xC6 PUSH2 0xC336 0x4B DUP9 DIV SWAP3 0xA9 0x4D PUSH5 0x736F6C6343 STOP ADDMOD 0xD STOP CALLER "
		},
		"gasEstimates": {
			"creation": {
				"codeDepositCost": "3875000",
				"executionCost": "52873",
				"totalCost": "3927873"
			},
			"external": {
				"allApplicants(address)": "infinite",
				"allApplications(uint256)": "infinite",
				"allDonations(uint256)": "infinite",
				"allDonors(address)": "infinite",
				"allGrants(uint256)": "17556",
				"allRewards(address,uint256)": "15552",
				"allVoteCountsOfApplicantsOfDonation(uint256,address)": "2707",
				"allVoters(address)": "infinite",
				"allVotes(uint256)": "13294",
				"applicationsToDonations(uint256,address)": "2763",
				"approveApplication(uint256)": "infinite",
				"checkIfApplicantExists(address)": "2628",
				"checkIfApplicantHasAlreadyMadeAnApplicationToDonation(uint256,address)": "2809",
				"checkIfDonorExists(address)": "2600",
				"checkIfVoterExists(address)": "2644",
				"checkIfVoterHasAlreadyMadeAVoteInDonation(uint256,address)": "2721",
				"createApplicantAccount(address,string,string,string,string)": "infinite",
				"createDonation(uint256,address,string,string,uint256,uint256,uint256)": "infinite",
				"createDonorAccount(address,string,string)": "infinite",
				"createVoterAccount(address,string,string,string)": "infinite",
				"getAllApplicantsOfDonation(uint256)": "infinite",
				"getAllApplicationsOfDonation(uint256)": "infinite",
				"getAllDonations()": "infinite",
				"getAllDonationsCreatedByDonor(address)": "infinite",
				"getApplicantByWalletAddress(address)": "infinite",
				"getApplicantOfDonation(uint256)": "infinite",
				"getApplicationById(uint256)": "infinite",
				"getApplicationOfApplicantForDonation(uint256,uint256,address)": "infinite",
				"getApplicationsOfApplicant(address)": "infinite",
				"getDonationById(uint256)": "infinite",
				"getDonorByWalletAddress(address)": "infinite",
				"getGranteeOfDonation(uint256)": "infinite",
				"getPotentialAmountOfGrantOfDonationInWei(uint256)": "infinite",
				"getPotentialAmountOfRewardOfDonationInWei(uint256)": "infinite",
				"getTotalAmountOfGrantsGivenToApplicantInWei(address)": "infinite",
				"getTotalAmountOfRewardsGivenToVoterInWei(uint256,address)": "infinite",
				"getTotalAmountOfVotesForDonation(uint256)": "2594",
				"getTotalAmountOfVotesMadeByVoter(address)": "2606",
				"getVoteCountOfApplicantOfDonation(uint256,address)": "2774",
				"getVoteOfVoterForDonation(uint256,address)": "infinite",
				"getVoterByWalletAddress(address)": "infinite",
				"getWinningApplicantOfDonation(uint256)": "infinite",
				"granteesOfDonations(uint256)": "2589",
				"makeAVote(uint256,uint256,address,address)": "infinite",
				"makeApplication(uint256,uint256,address,string)": "infinite",
				"numbersOfApplicationsForDonations(uint256)": "2484",
				"numbersOfApplicationsOfApplicants(address)": "2586",
				"numbersOfDonationsCreatedByDonors(address)": "2630",
				"numbersOfVotesForDonations(uint256)": "2572",
				"numbersOfVotesOfVoters(address)": "2609",
				"votingInDonation(uint256,address)": "2675"
			},
			"internal": {
				"closeDonation(uint256)": "infinite",
				"sendGrantToWinningApplicant(uint256,uint256)": "infinite",
				"sendRewardToVoter(uint256,address)": "infinite"
			}
		},
		"methodIdentifiers": {
			"allApplicants(address)": "ad9adead",
			"allApplications(uint256)": "b2514292",
			"allDonations(uint256)": "06c49713",
			"allDonors(address)": "4d148f40",
			"allGrants(uint256)": "621d571d",
			"allRewards(address,uint256)": "3755c2b2",
			"allVoteCountsOfApplicantsOfDonation(uint256,address)": "6e93e563",
			"allVoters(address)": "c3703048",
			"allVotes(uint256)": "de63f432",
			"applicationsToDonations(uint256,address)": "6861f01f",
			"approveApplication(uint256)": "213fbf1b",
			"checkIfApplicantExists(address)": "d9ad496d",
			"checkIfApplicantHasAlreadyMadeAnApplicationToDonation(uint256,address)": "431b710a",
			"checkIfDonorExists(address)": "baf3f49e",
			"checkIfVoterExists(address)": "b0344580",
			"checkIfVoterHasAlreadyMadeAVoteInDonation(uint256,address)": "6a098823",
			"createApplicantAccount(address,string,string,string,string)": "b0eebd18",
			"createDonation(uint256,address,string,string,uint256,uint256,uint256)": "0de0350f",
			"createDonorAccount(address,string,string)": "7f868a8e",
			"createVoterAccount(address,string,string,string)": "78c38f3a",
			"getAllApplicantsOfDonation(uint256)": "904716f6",
			"getAllApplicationsOfDonation(uint256)": "79382f00",
			"getAllDonations()": "38a59a07",
			"getAllDonationsCreatedByDonor(address)": "fae0f23f",
			"getApplicantByWalletAddress(address)": "60cdd94a",
			"getApplicantOfDonation(uint256)": "a064dda2",
			"getApplicationById(uint256)": "1d4d3ba4",
			"getApplicationOfApplicantForDonation(uint256,uint256,address)": "e9da1029",
			"getApplicationsOfApplicant(address)": "a382148a",
			"getDonationById(uint256)": "7ddc914a",
			"getDonorByWalletAddress(address)": "e35a8441",
			"getGranteeOfDonation(uint256)": "79f19780",
			"getPotentialAmountOfGrantOfDonationInWei(uint256)": "852c8ea7",
			"getPotentialAmountOfRewardOfDonationInWei(uint256)": "78c5ab69",
			"getTotalAmountOfGrantsGivenToApplicantInWei(address)": "d243b249",
			"getTotalAmountOfRewardsGivenToVoterInWei(uint256,address)": "4217d66f",
			"getTotalAmountOfVotesForDonation(uint256)": "69db2db3",
			"getTotalAmountOfVotesMadeByVoter(address)": "072df68a",
			"getVoteCountOfApplicantOfDonation(uint256,address)": "cca050a1",
			"getVoteOfVoterForDonation(uint256,address)": "78d61865",
			"getVoterByWalletAddress(address)": "9d30dc61",
			"getWinningApplicantOfDonation(uint256)": "e926ca45",
			"granteesOfDonations(uint256)": "3a6a44e2",
			"makeAVote(uint256,uint256,address,address)": "db8ac181",
			"makeApplication(uint256,uint256,address,string)": "0df63082",
			"numbersOfApplicationsForDonations(uint256)": "4464ce95",
			"numbersOfApplicationsOfApplicants(address)": "c1df9e90",
			"numbersOfDonationsCreatedByDonors(address)": "c64d0d85",
			"numbersOfVotesForDonations(uint256)": "8c056233",
			"numbersOfVotesOfVoters(address)": "818d5254",
			"votingInDonation(uint256,address)": "2f8e211e"
		}
	},
	"abi": [
		{
			"inputs": [
				{
					"internalType": "address",
					"name": "",
					"type": "address"
				}
			],
			"name": "allApplicants",
			"outputs": [
				{
					"internalType": "uint256",
					"name": "id",
					"type": "uint256"
				},
				{
					"internalType": "uint256",
					"name": "applicantId",
					"type": "uint256"
				},
				{
					"internalType": "address",
					"name": "walletAddress",
					"type": "address"
				},
				{
					"internalType": "string",
					"name": "adjective",
					"type": "string"
				},
				{
					"internalType": "string",
					"name": "gender",
					"type": "string"
				},
				{
					"internalType": "string",
					"name": "countryOfResidence",
					"type": "string"
				},
				{
					"internalType": "string",
					"name": "ageBracket",
					"type": "string"
				},
				{
					"internalType": "bool",
					"name": "isNotBlank",
					"type": "bool"
				}
			],
			"stateMutability": "view",
			"type": "function"
		},
		{
			"inputs": [
				{
					"internalType": "uint256",
					"name": "",
					"type": "uint256"
				}
			],
			"name": "allApplications",
			"outputs": [
				{
					"internalType": "uint256",
					"name": "id",
					"type": "uint256"
				},
				{
					"internalType": "uint256",
					"name": "applicantId",
					"type": "uint256"
				},
				{
					"internalType": "address",
					"name": "applicantWalletAddress",
					"type": "address"
				},
				{
					"internalType": "uint256",
					"name": "donationId",
					"type": "uint256"
				},
				{
					"internalType": "string",
					"name": "pitchStatement",
					"type": "string"
				},
				{
					"internalType": "bool",
					"name": "isApproved",
					"type": "bool"
				},
				{
					"internalType": "bool",
					"name": "isNotBlank",
					"type": "bool"
				}
			],
			"stateMutability": "view",
			"type": "function"
		},
		{
			"inputs": [
				{
					"internalType": "uint256",
					"name": "",
					"type": "uint256"
				}
			],
			"name": "allDonations",
			"outputs": [
				{
					"internalType": "uint256",
					"name": "id",
					"type": "uint256"
				},
				{
					"internalType": "uint256",
					"name": "donorId",
					"type": "uint256"
				},
				{
					"internalType": "address",
					"name": "donorWalletAddress",
					"type": "address"
				},
				{
					"internalType": "string",
					"name": "topic",
					"type": "string"
				},
				{
					"internalType": "string",
					"name": "industry",
					"type": "string"
				},
				{
					"internalType": "uint256",
					"name": "maxNumberOfApplications",
					"type": "uint256"
				},
				{
					"internalType": "uint256",
					"name": "maxNumberOfVoters",
					"type": "uint256"
				},
				{
					"internalType": "uint256",
					"name": "amountDonatedInWei",
					"type": "uint256"
				},
				{
					"internalType": "bool",
					"name": "applicationIsClosed",
					"type": "bool"
				},
				{
					"internalType": "bool",
					"name": "votingIsClosed",
					"type": "bool"
				},
				{
					"internalType": "bool",
					"name": "isNotBlank",
					"type": "bool"
				}
			],
			"stateMutability": "view",
			"type": "function"
		},
		{
			"inputs": [
				{
					"internalType": "address",
					"name": "",
					"type": "address"
				}
			],
			"name": "allDonors",
			"outputs": [
				{
					"internalType": "uint256",
					"name": "id",
					"type": "uint256"
				},
				{
					"internalType": "address",
					"name": "walletAddress",
					"type": "address"
				},
				{
					"internalType": "string",
					"name": "adjective",
					"type": "string"
				},
				{
					"internalType": "string",
					"name": "mainIndustryOfInterest",
					"type": "string"
				},
				{
					"internalType": "uint256",
					"name": "numberOfDonationsCreated",
					"type": "uint256"
				},
				{
					"internalType": "bool",
					"name": "isNotBlank",
					"type": "bool"
				}
			],
			"stateMutability": "view",
			"type": "function"
		},
		{
			"inputs": [
				{
					"internalType": "uint256",
					"name": "",
					"type": "uint256"
				}
			],
			"name": "allGrants",
			"outputs": [
				{
					"internalType": "uint256",
					"name": "id",
					"type": "uint256"
				},
				{
					"internalType": "uint256",
					"name": "donationId",
					"type": "uint256"
				},
				{
					"internalType": "uint256",
					"name": "applicationId",
					"type": "uint256"
				},
				{
					"internalType": "uint256",
					"name": "applicantId",
					"type": "uint256"
				},
				{
					"internalType": "address",
					"name": "applicantWalletAddress",
					"type": "address"
				},
				{
					"internalType": "uint256",
					"name": "amountGrantedInWei",
					"type": "uint256"
				},
				{
					"internalType": "bool",
					"name": "isNotBlank",
					"type": "bool"
				}
			],
			"stateMutability": "view",
			"type": "function"
		},
		{
			"inputs": [
				{
					"internalType": "address",
					"name": "",
					"type": "address"
				},
				{
					"internalType": "uint256",
					"name": "",
					"type": "uint256"
				}
			],
			"name": "allRewards",
			"outputs": [
				{
					"internalType": "uint256",
					"name": "id",
					"type": "uint256"
				},
				{
					"internalType": "uint256",
					"name": "voterId",
					"type": "uint256"
				},
				{
					"internalType": "address",
					"name": "voterWalletAddress",
					"type": "address"
				},
				{
					"internalType": "uint256",
					"name": "donationId",
					"type": "uint256"
				},
				{
					"internalType": "uint256",
					"name": "amountRewardedInWei",
					"type": "uint256"
				},
				{
					"internalType": "bool",
					"name": "isNotBlank",
					"type": "bool"
				}
			],
			"stateMutability": "view",
			"type": "function"
		},
		{
			"inputs": [
				{
					"internalType": "uint256",
					"name": "",
					"type": "uint256"
				},
				{
					"internalType": "address",
					"name": "",
					"type": "address"
				}
			],
			"name": "allVoteCountsOfApplicantsOfDonation",
			"outputs": [
				{
					"internalType": "uint256",
					"name": "",
					"type": "uint256"
				}
			],
			"stateMutability": "view",
			"type": "function"
		},
		{
			"inputs": [
				{
					"internalType": "address",
					"name": "",
					"type": "address"
				}
			],
			"name": "allVoters",
			"outputs": [
				{
					"internalType": "uint256",
					"name": "id",
					"type": "uint256"
				},
				{
					"internalType": "address",
					"name": "walletAddress",
					"type": "address"
				},
				{
					"internalType": "string",
					"name": "adjective",
					"type": "string"
				},
				{
					"internalType": "string",
					"name": "gender",
					"type": "string"
				},
				{
					"internalType": "string",
					"name": "countryOfResidence",
					"type": "string"
				},
				{
					"internalType": "bool",
					"name": "isNotBlank",
					"type": "bool"
				}
			],
			"stateMutability": "view",
			"type": "function"
		},
		{
			"inputs": [
				{
					"internalType": "uint256",
					"name": "",
					"type": "uint256"
				}
			],
			"name": "allVotes",
			"outputs": [
				{
					"internalType": "uint256",
					"name": "id",
					"type": "uint256"
				},
				{
					"internalType": "uint256",
					"name": "voterId",
					"type": "uint256"
				},
				{
					"internalType": "uint256",
					"name": "applicantId",
					"type": "uint256"
				},
				{
					"internalType": "uint256",
					"name": "donationId",
					"type": "uint256"
				},
				{
					"internalType": "bool",
					"name": "isRewarded",
					"type": "bool"
				},
				{
					"internalType": "bool",
					"name": "isNotBlank",
					"type": "bool"
				}
			],
			"stateMutability": "view",
			"type": "function"
		},
		{
			"inputs": [
				{
					"internalType": "uint256",
					"name": "",
					"type": "uint256"
				},
				{
					"internalType": "address",
					"name": "",
					"type": "address"
				}
			],
			"name": "applicationsToDonations",
			"outputs": [
				{
					"internalType": "bool",
					"name": "",
					"type": "bool"
				}
			],
			"stateMutability": "view",
			"type": "function"
		},
		{
			"inputs": [
				{
					"internalType": "uint256",
					"name": "_applicationId",
					"type": "uint256"
				}
			],
			"name": "approveApplication",
			"outputs": [],
			"stateMutability": "nonpayable",
			"type": "function"
		},
		{
			"inputs": [
				{
					"internalType": "address",
					"name": "_applicantWalletAddress",
					"type": "address"
				}
			],
			"name": "checkIfApplicantExists",
			"outputs": [
				{
					"internalType": "bool",
					"name": "",
					"type": "bool"
				}
			],
			"stateMutability": "view",
			"type": "function"
		},
		{
			"inputs": [
				{
					"internalType": "uint256",
					"name": "_donationId",
					"type": "uint256"
				},
				{
					"internalType": "address",
					"name": "_applicantWalletAddress",
					"type": "address"
				}
			],
			"name": "checkIfApplicantHasAlreadyMadeAnApplicationToDonation",
			"outputs": [
				{
					"internalType": "bool",
					"name": "",
					"type": "bool"
				}
			],
			"stateMutability": "view",
			"type": "function"
		},
		{
			"inputs": [
				{
					"internalType": "address",
					"name": "_donorWalletAddress",
					"type": "address"
				}
			],
			"name": "checkIfDonorExists",
			"outputs": [
				{
					"internalType": "bool",
					"name": "",
					"type": "bool"
				}
			],
			"stateMutability": "view",
			"type": "function"
		},
		{
			"inputs": [
				{
					"internalType": "address",
					"name": "_voterWalletAddress",
					"type": "address"
				}
			],
			"name": "checkIfVoterExists",
			"outputs": [
				{
					"internalType": "bool",
					"name": "",
					"type": "bool"
				}
			],
			"stateMutability": "view",
			"type": "function"
		},
		{
			"inputs": [
				{
					"internalType": "uint256",
					"name": "_donationId",
					"type": "uint256"
				},
				{
					"internalType": "address",
					"name": "_voterWalletAddress",
					"type": "address"
				}
			],
			"name": "checkIfVoterHasAlreadyMadeAVoteInDonation",
			"outputs": [
				{
					"internalType": "bool",
					"name": "",
					"type": "bool"
				}
			],
			"stateMutability": "view",
			"type": "function"
		},
		{
			"inputs": [
				{
					"internalType": "address",
					"name": "_applicantWalletAddress",
					"type": "address"
				},
				{
					"internalType": "string",
					"name": "_adjective",
					"type": "string"
				},
				{
					"internalType": "string",
					"name": "_gender",
					"type": "string"
				},
				{
					"internalType": "string",
					"name": "_countryOfResidence",
					"type": "string"
				},
				{
					"internalType": "string",
					"name": "_ageBracket",
					"type": "string"
				}
			],
			"name": "createApplicantAccount",
			"outputs": [],
			"stateMutability": "nonpayable",
			"type": "function"
		},
		{
			"inputs": [
				{
					"internalType": "uint256",
					"name": "_donorId",
					"type": "uint256"
				},
				{
					"internalType": "address",
					"name": "_donorWalletAddress",
					"type": "address"
				},
				{
					"internalType": "string",
					"name": "_topic",
					"type": "string"
				},
				{
					"internalType": "string",
					"name": "_industry",
					"type": "string"
				},
				{
					"internalType": "uint256",
					"name": "_maxNumberOfApplications",
					"type": "uint256"
				},
				{
					"internalType": "uint256",
					"name": "_maxNumberOfVoters",
					"type": "uint256"
				},
				{
					"internalType": "uint256",
					"name": "_amountDonatedInWei",
					"type": "uint256"
				}
			],
			"name": "createDonation",
			"outputs": [],
			"stateMutability": "nonpayable",
			"type": "function"
		},
		{
			"inputs": [
				{
					"internalType": "address",
					"name": "_donorWalletAddress",
					"type": "address"
				},
				{
					"internalType": "string",
					"name": "_adjective",
					"type": "string"
				},
				{
					"internalType": "string",
					"name": "_mainIndustryOfInterest",
					"type": "string"
				}
			],
			"name": "createDonorAccount",
			"outputs": [],
			"stateMutability": "nonpayable",
			"type": "function"
		},
		{
			"inputs": [
				{
					"internalType": "address",
					"name": "_voterWalletAddress",
					"type": "address"
				},
				{
					"internalType": "string",
					"name": "_adjective",
					"type": "string"
				},
				{
					"internalType": "string",
					"name": "_gender",
					"type": "string"
				},
				{
					"internalType": "string",
					"name": "_countryOfResidence",
					"type": "string"
				}
			],
			"name": "createVoterAccount",
			"outputs": [],
			"stateMutability": "nonpayable",
			"type": "function"
		},
		{
			"inputs": [
				{
					"internalType": "uint256",
					"name": "_donationId",
					"type": "uint256"
				}
			],
			"name": "getAllApplicantsOfDonation",
			"outputs": [
				{
					"components": [
						{
							"internalType": "uint256",
							"name": "id",
							"type": "uint256"
						},
						{
							"internalType": "uint256",
							"name": "applicantId",
							"type": "uint256"
						},
						{
							"internalType": "address",
							"name": "walletAddress",
							"type": "address"
						},
						{
							"internalType": "string",
							"name": "adjective",
							"type": "string"
						},
						{
							"internalType": "string",
							"name": "gender",
							"type": "string"
						},
						{
							"internalType": "string",
							"name": "countryOfResidence",
							"type": "string"
						},
						{
							"internalType": "string",
							"name": "ageBracket",
							"type": "string"
						},
						{
							"internalType": "bool",
							"name": "isNotBlank",
							"type": "bool"
						}
					],
					"internalType": "struct Applicant[]",
					"name": "",
					"type": "tuple[]"
				}
			],
			"stateMutability": "view",
			"type": "function"
		},
		{
			"inputs": [
				{
					"internalType": "uint256",
					"name": "_donationId",
					"type": "uint256"
				}
			],
			"name": "getAllApplicationsOfDonation",
			"outputs": [
				{
					"components": [
						{
							"internalType": "uint256",
							"name": "id",
							"type": "uint256"
						},
						{
							"internalType": "uint256",
							"name": "applicantId",
							"type": "uint256"
						},
						{
							"internalType": "address",
							"name": "applicantWalletAddress",
							"type": "address"
						},
						{
							"internalType": "uint256",
							"name": "donationId",
							"type": "uint256"
						},
						{
							"internalType": "string",
							"name": "pitchStatement",
							"type": "string"
						},
						{
							"internalType": "bool",
							"name": "isApproved",
							"type": "bool"
						},
						{
							"internalType": "bool",
							"name": "isNotBlank",
							"type": "bool"
						}
					],
					"internalType": "struct Application[]",
					"name": "",
					"type": "tuple[]"
				}
			],
			"stateMutability": "view",
			"type": "function"
		},
		{
			"inputs": [],
			"name": "getAllDonations",
			"outputs": [
				{
					"components": [
						{
							"internalType": "uint256",
							"name": "id",
							"type": "uint256"
						},
						{
							"internalType": "uint256",
							"name": "donorId",
							"type": "uint256"
						},
						{
							"internalType": "address",
							"name": "donorWalletAddress",
							"type": "address"
						},
						{
							"internalType": "string",
							"name": "topic",
							"type": "string"
						},
						{
							"internalType": "string",
							"name": "industry",
							"type": "string"
						},
						{
							"internalType": "uint256",
							"name": "maxNumberOfApplications",
							"type": "uint256"
						},
						{
							"internalType": "uint256",
							"name": "maxNumberOfVoters",
							"type": "uint256"
						},
						{
							"internalType": "uint256",
							"name": "amountDonatedInWei",
							"type": "uint256"
						},
						{
							"internalType": "bool",
							"name": "applicationIsClosed",
							"type": "bool"
						},
						{
							"internalType": "bool",
							"name": "votingIsClosed",
							"type": "bool"
						},
						{
							"internalType": "bool",
							"name": "isNotBlank",
							"type": "bool"
						}
					],
					"internalType": "struct Donation[]",
					"name": "",
					"type": "tuple[]"
				}
			],
			"stateMutability": "view",
			"type": "function"
		},
		{
			"inputs": [
				{
					"internalType": "address",
					"name": "_donorWalletAddress",
					"type": "address"
				}
			],
			"name": "getAllDonationsCreatedByDonor",
			"outputs": [
				{
					"components": [
						{
							"internalType": "uint256",
							"name": "id",
							"type": "uint256"
						},
						{
							"internalType": "uint256",
							"name": "donorId",
							"type": "uint256"
						},
						{
							"internalType": "address",
							"name": "donorWalletAddress",
							"type": "address"
						},
						{
							"internalType": "string",
							"name": "topic",
							"type": "string"
						},
						{
							"internalType": "string",
							"name": "industry",
							"type": "string"
						},
						{
							"internalType": "uint256",
							"name": "maxNumberOfApplications",
							"type": "uint256"
						},
						{
							"internalType": "uint256",
							"name": "maxNumberOfVoters",
							"type": "uint256"
						},
						{
							"internalType": "uint256",
							"name": "amountDonatedInWei",
							"type": "uint256"
						},
						{
							"internalType": "bool",
							"name": "applicationIsClosed",
							"type": "bool"
						},
						{
							"internalType": "bool",
							"name": "votingIsClosed",
							"type": "bool"
						},
						{
							"internalType": "bool",
							"name": "isNotBlank",
							"type": "bool"
						}
					],
					"internalType": "struct Donation[]",
					"name": "",
					"type": "tuple[]"
				}
			],
			"stateMutability": "view",
			"type": "function"
		},
		{
			"inputs": [
				{
					"internalType": "address",
					"name": "_applicantWalletAddress",
					"type": "address"
				}
			],
			"name": "getApplicantByWalletAddress",
			"outputs": [
				{
					"components": [
						{
							"internalType": "uint256",
							"name": "id",
							"type": "uint256"
						},
						{
							"internalType": "uint256",
							"name": "applicantId",
							"type": "uint256"
						},
						{
							"internalType": "address",
							"name": "walletAddress",
							"type": "address"
						},
						{
							"internalType": "string",
							"name": "adjective",
							"type": "string"
						},
						{
							"internalType": "string",
							"name": "gender",
							"type": "string"
						},
						{
							"internalType": "string",
							"name": "countryOfResidence",
							"type": "string"
						},
						{
							"internalType": "string",
							"name": "ageBracket",
							"type": "string"
						},
						{
							"internalType": "bool",
							"name": "isNotBlank",
							"type": "bool"
						}
					],
					"internalType": "struct Applicant",
					"name": "",
					"type": "tuple"
				}
			],
			"stateMutability": "view",
			"type": "function"
		},
		{
			"inputs": [
				{
					"internalType": "uint256",
					"name": "_applicationId",
					"type": "uint256"
				}
			],
			"name": "getApplicantOfDonation",
			"outputs": [
				{
					"components": [
						{
							"internalType": "uint256",
							"name": "id",
							"type": "uint256"
						},
						{
							"internalType": "uint256",
							"name": "applicantId",
							"type": "uint256"
						},
						{
							"internalType": "address",
							"name": "walletAddress",
							"type": "address"
						},
						{
							"internalType": "string",
							"name": "adjective",
							"type": "string"
						},
						{
							"internalType": "string",
							"name": "gender",
							"type": "string"
						},
						{
							"internalType": "string",
							"name": "countryOfResidence",
							"type": "string"
						},
						{
							"internalType": "string",
							"name": "ageBracket",
							"type": "string"
						},
						{
							"internalType": "bool",
							"name": "isNotBlank",
							"type": "bool"
						}
					],
					"internalType": "struct Applicant",
					"name": "",
					"type": "tuple"
				}
			],
			"stateMutability": "view",
			"type": "function"
		},
		{
			"inputs": [
				{
					"internalType": "uint256",
					"name": "_applicationId",
					"type": "uint256"
				}
			],
			"name": "getApplicationById",
			"outputs": [
				{
					"components": [
						{
							"internalType": "uint256",
							"name": "id",
							"type": "uint256"
						},
						{
							"internalType": "uint256",
							"name": "applicantId",
							"type": "uint256"
						},
						{
							"internalType": "address",
							"name": "applicantWalletAddress",
							"type": "address"
						},
						{
							"internalType": "uint256",
							"name": "donationId",
							"type": "uint256"
						},
						{
							"internalType": "string",
							"name": "pitchStatement",
							"type": "string"
						},
						{
							"internalType": "bool",
							"name": "isApproved",
							"type": "bool"
						},
						{
							"internalType": "bool",
							"name": "isNotBlank",
							"type": "bool"
						}
					],
					"internalType": "struct Application",
					"name": "",
					"type": "tuple"
				}
			],
			"stateMutability": "view",
			"type": "function"
		},
		{
			"inputs": [
				{
					"internalType": "uint256",
					"name": "_donationId",
					"type": "uint256"
				},
				{
					"internalType": "uint256",
					"name": "_applicationId",
					"type": "uint256"
				},
				{
					"internalType": "address",
					"name": "_applicantWalletAddress",
					"type": "address"
				}
			],
			"name": "getApplicationOfApplicantForDonation",
			"outputs": [
				{
					"components": [
						{
							"internalType": "uint256",
							"name": "id",
							"type": "uint256"
						},
						{
							"internalType": "uint256",
							"name": "applicantId",
							"type": "uint256"
						},
						{
							"internalType": "address",
							"name": "applicantWalletAddress",
							"type": "address"
						},
						{
							"internalType": "uint256",
							"name": "donationId",
							"type": "uint256"
						},
						{
							"internalType": "string",
							"name": "pitchStatement",
							"type": "string"
						},
						{
							"internalType": "bool",
							"name": "isApproved",
							"type": "bool"
						},
						{
							"internalType": "bool",
							"name": "isNotBlank",
							"type": "bool"
						}
					],
					"internalType": "struct Application",
					"name": "",
					"type": "tuple"
				}
			],
			"stateMutability": "view",
			"type": "function"
		},
		{
			"inputs": [
				{
					"internalType": "address",
					"name": "_applicantWalletAddress",
					"type": "address"
				}
			],
			"name": "getApplicationsOfApplicant",
			"outputs": [
				{
					"components": [
						{
							"internalType": "uint256",
							"name": "id",
							"type": "uint256"
						},
						{
							"internalType": "uint256",
							"name": "applicantId",
							"type": "uint256"
						},
						{
							"internalType": "address",
							"name": "applicantWalletAddress",
							"type": "address"
						},
						{
							"internalType": "uint256",
							"name": "donationId",
							"type": "uint256"
						},
						{
							"internalType": "string",
							"name": "pitchStatement",
							"type": "string"
						},
						{
							"internalType": "bool",
							"name": "isApproved",
							"type": "bool"
						},
						{
							"internalType": "bool",
							"name": "isNotBlank",
							"type": "bool"
						}
					],
					"internalType": "struct Application[]",
					"name": "",
					"type": "tuple[]"
				}
			],
			"stateMutability": "view",
			"type": "function"
		},
		{
			"inputs": [
				{
					"internalType": "uint256",
					"name": "_donationId",
					"type": "uint256"
				}
			],
			"name": "getDonationById",
			"outputs": [
				{
					"components": [
						{
							"internalType": "uint256",
							"name": "id",
							"type": "uint256"
						},
						{
							"internalType": "uint256",
							"name": "donorId",
							"type": "uint256"
						},
						{
							"internalType": "address",
							"name": "donorWalletAddress",
							"type": "address"
						},
						{
							"internalType": "string",
							"name": "topic",
							"type": "string"
						},
						{
							"internalType": "string",
							"name": "industry",
							"type": "string"
						},
						{
							"internalType": "uint256",
							"name": "maxNumberOfApplications",
							"type": "uint256"
						},
						{
							"internalType": "uint256",
							"name": "maxNumberOfVoters",
							"type": "uint256"
						},
						{
							"internalType": "uint256",
							"name": "amountDonatedInWei",
							"type": "uint256"
						},
						{
							"internalType": "bool",
							"name": "applicationIsClosed",
							"type": "bool"
						},
						{
							"internalType": "bool",
							"name": "votingIsClosed",
							"type": "bool"
						},
						{
							"internalType": "bool",
							"name": "isNotBlank",
							"type": "bool"
						}
					],
					"internalType": "struct Donation",
					"name": "",
					"type": "tuple"
				}
			],
			"stateMutability": "view",
			"type": "function"
		},
		{
			"inputs": [
				{
					"internalType": "address",
					"name": "_donorWalletAddress",
					"type": "address"
				}
			],
			"name": "getDonorByWalletAddress",
			"outputs": [
				{
					"components": [
						{
							"internalType": "uint256",
							"name": "id",
							"type": "uint256"
						},
						{
							"internalType": "address",
							"name": "walletAddress",
							"type": "address"
						},
						{
							"internalType": "string",
							"name": "adjective",
							"type": "string"
						},
						{
							"internalType": "string",
							"name": "mainIndustryOfInterest",
							"type": "string"
						},
						{
							"internalType": "uint256",
							"name": "numberOfDonationsCreated",
							"type": "uint256"
						},
						{
							"internalType": "bool",
							"name": "isNotBlank",
							"type": "bool"
						}
					],
					"internalType": "struct Donor",
					"name": "",
					"type": "tuple"
				}
			],
			"stateMutability": "view",
			"type": "function"
		},
		{
			"inputs": [
				{
					"internalType": "uint256",
					"name": "_donationId",
					"type": "uint256"
				}
			],
			"name": "getGranteeOfDonation",
			"outputs": [
				{
					"components": [
						{
							"internalType": "uint256",
							"name": "id",
							"type": "uint256"
						},
						{
							"internalType": "uint256",
							"name": "applicantId",
							"type": "uint256"
						},
						{
							"internalType": "address",
							"name": "walletAddress",
							"type": "address"
						},
						{
							"internalType": "string",
							"name": "adjective",
							"type": "string"
						},
						{
							"internalType": "string",
							"name": "gender",
							"type": "string"
						},
						{
							"internalType": "string",
							"name": "countryOfResidence",
							"type": "string"
						},
						{
							"internalType": "string",
							"name": "ageBracket",
							"type": "string"
						},
						{
							"internalType": "bool",
							"name": "isNotBlank",
							"type": "bool"
						}
					],
					"internalType": "struct Applicant",
					"name": "",
					"type": "tuple"
				}
			],
			"stateMutability": "view",
			"type": "function"
		},
		{
			"inputs": [
				{
					"internalType": "uint256",
					"name": "_donationId",
					"type": "uint256"
				}
			],
			"name": "getPotentialAmountOfGrantOfDonationInWei",
			"outputs": [
				{
					"internalType": "uint256",
					"name": "",
					"type": "uint256"
				}
			],
			"stateMutability": "view",
			"type": "function"
		},
		{
			"inputs": [
				{
					"internalType": "uint256",
					"name": "_donationId",
					"type": "uint256"
				}
			],
			"name": "getPotentialAmountOfRewardOfDonationInWei",
			"outputs": [
				{
					"internalType": "uint256",
					"name": "",
					"type": "uint256"
				}
			],
			"stateMutability": "view",
			"type": "function"
		},
		{
			"inputs": [
				{
					"internalType": "address",
					"name": "_applicantWalletAddress",
					"type": "address"
				}
			],
			"name": "getTotalAmountOfGrantsGivenToApplicantInWei",
			"outputs": [
				{
					"internalType": "uint256",
					"name": "",
					"type": "uint256"
				}
			],
			"stateMutability": "view",
			"type": "function"
		},
		{
			"inputs": [
				{
					"internalType": "uint256",
					"name": "_voterId",
					"type": "uint256"
				},
				{
					"internalType": "address",
					"name": "_voterWalletAddress",
					"type": "address"
				}
			],
			"name": "getTotalAmountOfRewardsGivenToVoterInWei",
			"outputs": [
				{
					"internalType": "uint256",
					"name": "",
					"type": "uint256"
				}
			],
			"stateMutability": "view",
			"type": "function"
		},
		{
			"inputs": [
				{
					"internalType": "uint256",
					"name": "_donationId",
					"type": "uint256"
				}
			],
			"name": "getTotalAmountOfVotesForDonation",
			"outputs": [
				{
					"internalType": "uint256",
					"name": "",
					"type": "uint256"
				}
			],
			"stateMutability": "view",
			"type": "function"
		},
		{
			"inputs": [
				{
					"internalType": "address",
					"name": "_voterWalletAddress",
					"type": "address"
				}
			],
			"name": "getTotalAmountOfVotesMadeByVoter",
			"outputs": [
				{
					"internalType": "uint256",
					"name": "",
					"type": "uint256"
				}
			],
			"stateMutability": "view",
			"type": "function"
		},
		{
			"inputs": [
				{
					"internalType": "uint256",
					"name": "_donationId",
					"type": "uint256"
				},
				{
					"internalType": "address",
					"name": "_applicantWalletAddress",
					"type": "address"
				}
			],
			"name": "getVoteCountOfApplicantOfDonation",
			"outputs": [
				{
					"internalType": "uint256",
					"name": "",
					"type": "uint256"
				}
			],
			"stateMutability": "view",
			"type": "function"
		},
		{
			"inputs": [
				{
					"internalType": "uint256",
					"name": "_donationId",
					"type": "uint256"
				},
				{
					"internalType": "address",
					"name": "_voterWalletAddress",
					"type": "address"
				}
			],
			"name": "getVoteOfVoterForDonation",
			"outputs": [
				{
					"components": [
						{
							"internalType": "uint256",
							"name": "id",
							"type": "uint256"
						},
						{
							"internalType": "uint256",
							"name": "voterId",
							"type": "uint256"
						},
						{
							"internalType": "uint256",
							"name": "applicantId",
							"type": "uint256"
						},
						{
							"internalType": "uint256",
							"name": "donationId",
							"type": "uint256"
						},
						{
							"internalType": "bool",
							"name": "isRewarded",
							"type": "bool"
						},
						{
							"internalType": "bool",
							"name": "isNotBlank",
							"type": "bool"
						}
					],
					"internalType": "struct Vote",
					"name": "",
					"type": "tuple"
				}
			],
			"stateMutability": "view",
			"type": "function"
		},
		{
			"inputs": [
				{
					"internalType": "address",
					"name": "_voterWalletAddress",
					"type": "address"
				}
			],
			"name": "getVoterByWalletAddress",
			"outputs": [
				{
					"components": [
						{
							"internalType": "uint256",
							"name": "id",
							"type": "uint256"
						},
						{
							"internalType": "address",
							"name": "walletAddress",
							"type": "address"
						},
						{
							"internalType": "string",
							"name": "adjective",
							"type": "string"
						},
						{
							"internalType": "string",
							"name": "gender",
							"type": "string"
						},
						{
							"internalType": "string",
							"name": "countryOfResidence",
							"type": "string"
						},
						{
							"internalType": "bool",
							"name": "isNotBlank",
							"type": "bool"
						}
					],
					"internalType": "struct Voter",
					"name": "",
					"type": "tuple"
				}
			],
			"stateMutability": "view",
			"type": "function"
		},
		{
			"inputs": [
				{
					"internalType": "uint256",
					"name": "_donationId",
					"type": "uint256"
				}
			],
			"name": "getWinningApplicantOfDonation",
			"outputs": [
				{
					"components": [
						{
							"internalType": "uint256",
							"name": "id",
							"type": "uint256"
						},
						{
							"internalType": "uint256",
							"name": "applicantId",
							"type": "uint256"
						},
						{
							"internalType": "address",
							"name": "walletAddress",
							"type": "address"
						},
						{
							"internalType": "string",
							"name": "adjective",
							"type": "string"
						},
						{
							"internalType": "string",
							"name": "gender",
							"type": "string"
						},
						{
							"internalType": "string",
							"name": "countryOfResidence",
							"type": "string"
						},
						{
							"internalType": "string",
							"name": "ageBracket",
							"type": "string"
						},
						{
							"internalType": "bool",
							"name": "isNotBlank",
							"type": "bool"
						}
					],
					"internalType": "struct Applicant",
					"name": "",
					"type": "tuple"
				}
			],
			"stateMutability": "view",
			"type": "function"
		},
		{
			"inputs": [
				{
					"internalType": "uint256",
					"name": "",
					"type": "uint256"
				}
			],
			"name": "granteesOfDonations",
			"outputs": [
				{
					"internalType": "address",
					"name": "",
					"type": "address"
				}
			],
			"stateMutability": "view",
			"type": "function"
		},
		{
			"inputs": [
				{
					"internalType": "uint256",
					"name": "_donationId",
					"type": "uint256"
				},
				{
					"internalType": "uint256",
					"name": "_applicationId",
					"type": "uint256"
				},
				{
					"internalType": "address",
					"name": "_applicantWalletAddress",
					"type": "address"
				},
				{
					"internalType": "address",
					"name": "_voterWalletAddress",
					"type": "address"
				}
			],
			"name": "makeAVote",
			"outputs": [],
			"stateMutability": "nonpayable",
			"type": "function"
		},
		{
			"inputs": [
				{
					"internalType": "uint256",
					"name": "_donationId",
					"type": "uint256"
				},
				{
					"internalType": "uint256",
					"name": "_applicantId",
					"type": "uint256"
				},
				{
					"internalType": "address",
					"name": "_applicantWalletAddress",
					"type": "address"
				},
				{
					"internalType": "string",
					"name": "_pitchStatement",
					"type": "string"
				}
			],
			"name": "makeApplication",
			"outputs": [],
			"stateMutability": "nonpayable",
			"type": "function"
		},
		{
			"inputs": [
				{
					"internalType": "uint256",
					"name": "",
					"type": "uint256"
				}
			],
			"name": "numbersOfApplicationsForDonations",
			"outputs": [
				{
					"internalType": "uint256",
					"name": "",
					"type": "uint256"
				}
			],
			"stateMutability": "view",
			"type": "function"
		},
		{
			"inputs": [
				{
					"internalType": "address",
					"name": "",
					"type": "address"
				}
			],
			"name": "numbersOfApplicationsOfApplicants",
			"outputs": [
				{
					"internalType": "uint256",
					"name": "",
					"type": "uint256"
				}
			],
			"stateMutability": "view",
			"type": "function"
		},
		{
			"inputs": [
				{
					"internalType": "address",
					"name": "",
					"type": "address"
				}
			],
			"name": "numbersOfDonationsCreatedByDonors",
			"outputs": [
				{
					"internalType": "uint256",
					"name": "",
					"type": "uint256"
				}
			],
			"stateMutability": "view",
			"type": "function"
		},
		{
			"inputs": [
				{
					"internalType": "uint256",
					"name": "",
					"type": "uint256"
				}
			],
			"name": "numbersOfVotesForDonations",
			"outputs": [
				{
					"internalType": "uint256",
					"name": "",
					"type": "uint256"
				}
			],
			"stateMutability": "view",
			"type": "function"
		},
		{
			"inputs": [
				{
					"internalType": "address",
					"name": "",
					"type": "address"
				}
			],
			"name": "numbersOfVotesOfVoters",
			"outputs": [
				{
					"internalType": "uint256",
					"name": "",
					"type": "uint256"
				}
			],
			"stateMutability": "view",
			"type": "function"
		},
		{
			"inputs": [
				{
					"internalType": "uint256",
					"name": "",
					"type": "uint256"
				},
				{
					"internalType": "address",
					"name": "",
					"type": "address"
				}
			],
			"name": "votingInDonation",
			"outputs": [
				{
					"internalType": "bool",
					"name": "",
					"type": "bool"
				}
			],
			"stateMutability": "view",
			"type": "function"
		}
	]
}