{
	"data": {
		"bytecode": {
			"linkReferences": {},
			"object": "608060408190526000805473e49b05f2c7dd51f61e415e1dfac10b80074b001a6001600160a01b0319918216179091556001805473874069fa1eb16d44d622f2e0ca25eea172369bc192168217905563313ce56760e01b82529063313ce56790608490602090600481865afa1580156200007d573d6000803e3d6000fd5b505050506040513d601f19601f82011682018060405250810190620000a39190620000c7565b620000b090600a62000208565b600255348015620000c057600080fd5b5062000219565b600060208284031215620000da57600080fd5b815160ff81168114620000ec57600080fd5b9392505050565b634e487b7160e01b600052601160045260246000fd5b600181815b808511156200014a5781600019048211156200012e576200012e620000f3565b808516156200013c57918102915b93841c93908002906200010e565b509250929050565b600082620001635750600162000202565b81620001725750600062000202565b81600181146200018b57600281146200019657620001b6565b600191505062000202565b60ff841115620001aa57620001aa620000f3565b50506001821b62000202565b5060208310610133831016604e8410600b8410161715620001db575081810a62000202565b620001e7838362000109565b8060001904821115620001fe57620001fe620000f3565b0290505b92915050565b6000620000ec60ff84168362000152565b614fdf80620002296000396000f3fe608060405234801561001057600080fd5b50600436106103a45760003560e01c80638c056233116101e9578063c37030481161010f578063de63f432116100ad578063e9d3ac501161007c578063e9d3ac5014610b14578063e9da102914610b27578063ed04470c14610b3a578063fae0f23f14610b4357600080fd5b8063de63f43214610a94578063e1ff3fb714610ad8578063e35a844114610ae1578063e926ca4514610b0157600080fd5b8063d243b249116100e9578063d243b24914610a36578063d39f622a14610a49578063d9ad496d14610a52578063db8ac18114610a8157600080fd5b8063c3703048146109bb578063c64d0d85146109e0578063cca050a114610a0057600080fd5b8063a4bfaddf11610187578063b251429211610156578063b25142921461093d578063baf3f49e14610963578063bd7863fd14610992578063c1df9e901461099b57600080fd5b8063a4bfaddf146108cb578063ad9adead146108d4578063b0344580146108fb578063b0eebd181461092a57600080fd5b80639100b5dd116101c35780639100b5dd1461087c5780639d30dc6114610885578063a064dda2146108a5578063a382148a146108b857600080fd5b80638c056233146108335780638e1afc9514610853578063904716f61461085c57600080fd5b806360cdd94a116102ce57806378c5ab691161026c5780637ddc914a1161023b5780637ddc914a146107cd5780637f868a8e146107ed578063818d525414610800578063852c8ea71461082057600080fd5b806378c5ab691461072457806378d618651461073757806379382f001461079a57806379f19780146107ba57600080fd5b806369db2db3116102a857806369db2db31461068d5780636a098823146106ad5780636e93e563146106e657806378c38f3a1461071157600080fd5b806360cdd94a146105ec578063621d571d1461060c5780636861f01f1461065f57600080fd5b806338a59a07116103465780634464ce95116103155780634464ce951461058b5780634633f488146105ab5780634d148f40146105be5780635bf35e66146105e357600080fd5b806338a59a07146104e95780633a6a44e2146104fe5780634217d66f1461053f578063431b710a1461055257600080fd5b80630df63082116103825780630df63082146104285780631d4d3ba41461043b5780632f8e211e1461045b5780633755c2b21461049957600080fd5b806306c49713146103a9578063072df68a146103dc5780630de0350f14610413575b600080fd5b6103bc6103b7366004614395565b610b56565b6040516103d39b9a999897969594939291906143fb565b60405180910390f35b6104056103ea36600461449a565b6001600160a01b03166000908152600b602052604090205490565b6040519081526020016103d3565b610426610421366004614558565b610ce5565b005b6104266104363660046145f1565b610f1a565b61044e610449366004614395565b61116d565b6040516103d391906146bb565b6104896104693660046146ce565b601360209081526000928352604080842090915290825290205460ff1681565b60405190151581526020016103d3565b6104ac6104a73660046146fa565b6112a7565b6040805196875260208701959095526001600160a01b039093169385019390935260608401526080830191909152151560a082015260c0016103d3565b6104f1611307565b6040516103d391906147da565b61052761050c366004614395565b600c602052600090815260409020546001600160a01b031681565b6040516001600160a01b0390911681526020016103d3565b61040561054d3660046146ce565b611508565b6104896105603660046146ce565b60009182526012602090815260408084206001600160a01b0393909316845291905290205460ff1690565b610405610599366004614395565b60066020526000908152604090205481565b6104266105b936600461483c565b611642565b6105d16105cc36600461449a565b611844565b6040516103d39695949392919061485e565b610405601a5481565b6105ff6105fa36600461449a565b611997565b6040516103d39190614966565b61061f61061a366004614395565b611c4b565b6040805197885260208801969096529486019390935260608501919091526001600160a01b0316608084015260a0830152151560c082015260e0016103d3565b61048961066d3660046146ce565b601260209081526000928352604080842090915290825290205460ff1681565b61040561069b366004614395565b60009081526007602052604090205490565b6104896106bb3660046146ce565b60009182526013602090815260408084206001600160a01b0393909316845291905290205460ff1690565b6104056106f43660046146ce565b600f60209081526000928352604080842090915290825290205481565b61042661071f366004614979565b611ca6565b610405610732366004614395565b611d99565b61074a6107453660046146ce565b611dda565b6040516103d39190600060c0820190508251825260208301516020830152604083015160408301526060830151606083015260808301511515608083015260a0830151151560a083015292915050565b6107ad6107a8366004614395565b611eb8565b6040516103d39190614a06565b6105ff6107c8366004614395565b6120b6565b6107e06107db366004614395565b6120e8565b6040516103d39190614a5b565b6104266107fb366004614a6e565b6122d7565b61040561080e36600461449a565b600b6020526000908152604090205481565b61040561082e366004614395565b6123b9565b610405610841366004614395565b60076020526000908152604090205481565b61040560175481565b61086f61086a366004614395565b6123e5565b6040516103d39190614ae2565b61040560195481565b61089861089336600461449a565b6125ef565b6040516103d39190614b37565b6105ff6108b3366004614395565b612800565b6107ad6108c636600461449a565b612948565b610405601b5481565b6108e76108e236600461449a565b612b59565b6040516103d3989796959493929190614bc4565b61048961090936600461449a565b6001600160a01b03166000908152600d602052604090206005015460ff1690565b610426610938366004614c4a565b612dc9565b61095061094b366004614395565b612eed565b6040516103d39796959493929190614d08565b61048961097136600461449a565b6001600160a01b031660009081526003602052604090206005015460ff1690565b61040560155481565b6104056109a936600461449a565b600a6020526000908152604090205481565b6109ce6109c936600461449a565b612fd6565b6040516103d396959493929190614d56565b6104056109ee36600461449a565b60046020526000908152604090205481565b610405610a0e3660046146ce565b6000918252600f602090815260408084206001600160a01b0393909316845291905290205490565b610405610a4436600461449a565b6131b0565b61040560165481565b610489610a6036600461449a565b6001600160a01b031660009081526008602052604090206007015460ff1690565b610426610a8f366004614dbc565b61327c565b610aa7610aa2366004614395565b613598565b60408051968752602087019590955293850192909252606084015215156080830152151560a082015260c0016103d3565b61040560185481565b610af4610aef36600461449a565b6135e5565b6040516103d39190614e02565b6105ff610b0f366004614395565b61376d565b610405610b22366004614395565b61381d565b61044e610b35366004614e7a565b613839565b61040560145481565b6104f1610b5136600461449a565b6138b9565b60058181548110610b6657600080fd5b6000918252602090912060099091020180546001820154600283015460038401805493955091936001600160a01b0390911692909190610ba590614eaf565b80601f0160208091040260200160405190810160405280929190818152602001828054610bd190614eaf565b8015610c1e5780601f10610bf357610100808354040283529160200191610c1e565b820191906000526020600020905b815481529060010190602001808311610c0157829003601f168201915b505050505090806004018054610c3390614eaf565b80601f0160208091040260200160405190810160405280929190818152602001828054610c5f90614eaf565b8015610cac5780601f10610c8157610100808354040283529160200191610cac565b820191906000526020600020905b815481529060010190602001808311610c8f57829003601f168201915b505050506005830154600684015460078501546008909501549394919390925060ff80821691610100810482169162010000909104168b565b601554610cf061413d565b818152602081018990526001600160a01b0388166040820152606081018790526080810186905260a0810185905260c081018490526001610140820152600254600090610d3d9085614eff565b60e0830181905260058054600181018255600091909152835160099091027f036b6384b5eca791c62761152d0c79bb0604c104a5fb6f4eb0703f3154bb3db081019182556020808601517f036b6384b5eca791c62761152d0c79bb0604c104a5fb6f4eb0703f3154bb3db183015560408601517f036b6384b5eca791c62761152d0c79bb0604c104a5fb6f4eb0703f3154bb3db2830180546001600160a01b039092166001600160a01b0319909216919091179055606086015180519495508694610e2f937f036b6384b5eca791c62761152d0c79bb0604c104a5fb6f4eb0703f3154bb3db3019291909101906141a6565b5060808201518051610e4b9160048401916020909101906141a6565b5060a0820151600582015560c0820151600682015560e0820151600782015561010080830151600890920180546101208501516101409095015161ffff1990911693151561ff001916939093179315159091029290921762ff0000191662010000911515919091021790556001600160a01b03891660009081526004602052604081205490610edb826001614f1e565b6001600160a01b038c1660009081526004602052604081208290556015805492935090610f0783614f36565b9190505550505050505050505050505050565b6000610f25856120e8565b905080610100015115610f3757600080fd5b60008581526012602090815260408083206001600160a01b038716845290915290205460ff1615610f6757600080fd5b601754610f7261422a565b81815260208082018781526001600160a01b0387811660408501908152606085018b815260808601898152600160c0880181905260098054918201815560005287517f6e1540171b6c0c960b71a7020d9f60077f6af931a8bbf590da0223dacf75c7af600690920291820190815595517f6e1540171b6c0c960b71a7020d9f60077f6af931a8bbf590da0223dacf75c7b082015592517f6e1540171b6c0c960b71a7020d9f60077f6af931a8bbf590da0223dacf75c7b1840180546001600160a01b0319169190951617909355517f6e1540171b6c0c960b71a7020d9f60077f6af931a8bbf590da0223dacf75c7b2820155905180518594611098937f6e1540171b6c0c960b71a7020d9f60077f6af931a8bbf590da0223dacf75c7b3019201906141a6565b5060a08201516005909101805460c09093015115156101000261ff00199215159290921661ffff1990931692909217179055600087815260066020526040812054906110e5826001614f1e565b60008a81526006602090815260408083208490556001600160a01b038b168352600a90915281205491925061111b826001614f1e565b6001600160a01b038a166000908152600a60205260408120829055601780549293509061114783614f36565b91905055508660a001518303611160576111608b613b83565b5050505050505050505050565b61117561422a565b6009828154811061118857611188614f4f565b90600052602060002090600602016040518060e001604052908160008201548152602001600182015481526020016002820160009054906101000a90046001600160a01b03166001600160a01b03166001600160a01b03168152602001600382015481526020016004820180546111fe90614eaf565b80601f016020809104026020016040519081016040528092919081815260200182805461122a90614eaf565b80156112775780601f1061124c57610100808354040283529160200191611277565b820191906000526020600020905b81548152906001019060200180831161125a57829003601f168201915b50505091835250506005919091015460ff8082161515602084015261010090910416151560409091015292915050565b601160205281600052604060002081815481106112c357600080fd5b60009182526020909120600690910201805460018201546002830154600384015460048501546005909501549396509194506001600160a01b031692909160ff1686565b60606005805480602002602001604051908101604052809291908181526020016000905b828210156114ff5760008481526020908190206040805161016081018252600986029092018054835260018101549383019390935260028301546001600160a01b03169082015260038201805491929160608401919061138a90614eaf565b80601f01602080910402602001604051908101604052809291908181526020018280546113b690614eaf565b80156114035780601f106113d857610100808354040283529160200191611403565b820191906000526020600020905b8154815290600101906020018083116113e657829003601f168201915b5050505050815260200160048201805461141c90614eaf565b80601f016020809104026020016040519081016040528092919081815260200182805461144890614eaf565b80156114955780601f1061146a57610100808354040283529160200191611495565b820191906000526020600020905b81548152906001019060200180831161147857829003601f168201915b50505091835250506005820154602080830191909152600683015460408301526007830154606083015260089092015460ff8082161515608084015261010082048116151560a08401526201000090910416151560c090910152908252600192909201910161132b565b50505050905090565b6001600160a01b038116600090815260116020908152604080832080548251818502810185019093528083528493849084015b828210156115b15760008481526020908190206040805160c08101825260068602909201805483526001808201548486015260028201546001600160a01b03169284019290925260038101546060840152600481015460808401526005015460ff16151560a0830152908352909201910161153b565b5050505090506000805b82518110156116395760008382815181106115d8576115d8614f4f565b6020026020010151905086816020015114801561160a5750856001600160a01b031681604001516001600160a01b0316145b1561162657608081015161161e9084614f1e565b925050611639565b508061163181614f36565b9150506115bb565b50949350505050565b60006009838154811061165757611657614f4f565b90600052602060002090600602016040518060e001604052908160008201548152602001600182015481526020016002820160009054906101000a90046001600160a01b03166001600160a01b03166001600160a01b03168152602001600382015481526020016004820180546116cd90614eaf565b80601f01602080910402602001604051908101604052809291908181526020018280546116f990614eaf565b80156117465780601f1061171b57610100808354040283529160200191611746565b820191906000526020600020905b81548152906001019060200180831161172957829003601f168201915b50505091835250506005919091015460ff8082161515602084015261010090910416151560409091015260608101519091508290036103a457600160a0820152600980548291908590811061179d5761179d614f4f565b600091825260209182902083516006929092020190815582820151600182015560408301516002820180546001600160a01b0319166001600160a01b0390921691909117905560608301516003820155608083015180519192611808926004850192909101906141a6565b5060a08201516005909101805460c09093015115156101000261ff00199215159290921661ffff1990931692909217179055505050565b505050565b60036020526000908152604090208054600182015460028301805492936001600160a01b039092169261187690614eaf565b80601f01602080910402602001604051908101604052809291908181526020018280546118a290614eaf565b80156118ef5780601f106118c4576101008083540402835291602001916118ef565b820191906000526020600020905b8154815290600101906020018083116118d257829003601f168201915b50505050509080600301805461190490614eaf565b80601f016020809104026020016040519081016040528092919081815260200182805461193090614eaf565b801561197d5780601f106119525761010080835404028352916020019161197d565b820191906000526020600020905b81548152906001019060200180831161196057829003601f168201915b50505050600483015460059093015491929160ff16905086565b61199f614274565b6001600160a01b03808316600090815260086020908152604091829020825161010081018452815481526001820154928101929092526002810154909316918101919091526003820180549192916060840191906119fc90614eaf565b80601f0160208091040260200160405190810160405280929190818152602001828054611a2890614eaf565b8015611a755780601f10611a4a57610100808354040283529160200191611a75565b820191906000526020600020905b815481529060010190602001808311611a5857829003601f168201915b50505050508152602001600482018054611a8e90614eaf565b80601f0160208091040260200160405190810160405280929190818152602001828054611aba90614eaf565b8015611b075780601f10611adc57610100808354040283529160200191611b07565b820191906000526020600020905b815481529060010190602001808311611aea57829003601f168201915b50505050508152602001600582018054611b2090614eaf565b80601f0160208091040260200160405190810160405280929190818152602001828054611b4c90614eaf565b8015611b995780601f10611b6e57610100808354040283529160200191611b99565b820191906000526020600020905b815481529060010190602001808311611b7c57829003601f168201915b50505050508152602001600682018054611bb290614eaf565b80601f0160208091040260200160405190810160405280929190818152602001828054611bde90614eaf565b8015611c2b5780601f10611c0057610100808354040283529160200191611c2b565b820191906000526020600020905b815481529060010190602001808311611c0e57829003601f168201915b50505091835250506007919091015460ff16151560209091015292915050565b60108181548110611c5b57600080fd5b600091825260209091206007909102018054600182015460028301546003840154600485015460058601546006909601549496509294919390926001600160a01b0316919060ff1687565b601854611cb16142c4565b8181526001600160a01b03868116602080840182815260408086018a8152606087018a905260808701899052600160a088018190526000958652600d85529190942086518155915190820180546001600160a01b031916919095161790935590518051849392611d289260028501929101906141a6565b5060608201518051611d449160038401916020909101906141a6565b5060808201518051611d609160048401916020909101906141a6565b5060a091909101516005909101805460ff191691151591909117905560188054906000611d8c83614f36565b9190505550505050505050565b600080611da5836120e8565b90508060c0015160648260e00151600f611dbf9190614eff565b611dc99190614f65565b611dd39190614f65565b9392505050565b611de2614305565b611dea614305565b6000611df5846125ef565b905060005b600e54811015611eae576000600e8281548110611e1957611e19614f4f565b60009182526020918290206040805160c08101825260059093029091018054835260018101549383019390935260028301549082015260038201546060820181905260049092015460ff8082161515608084015261010090910416151560a0820152915087148015611e8f575082516020820151145b15611e9b579250611eae565b5080611ea681614f36565b915050611dfa565b5090949350505050565b6000818152600660205260408120546060918167ffffffffffffffff811115611ee357611ee36144b5565b604051908082528060200260200182016040528015611f1c57816020015b611f0961422a565b815260200190600190039081611f015790505b5090506000805b600954811015611eae57600060098281548110611f4257611f42614f4f565b90600052602060002090600602016040518060e001604052908160008201548152602001600182015481526020016002820160009054906101000a90046001600160a01b03166001600160a01b03166001600160a01b0316815260200160038201548152602001600482018054611fb890614eaf565b80601f0160208091040260200160405190810160405280929190818152602001828054611fe490614eaf565b80156120315780601f1061200657610100808354040283529160200191612031565b820191906000526020600020905b81548152906001019060200180831161201457829003601f168201915b50505091835250506005919091015460ff8082161515602084015261010090910416151560409091015260608101519091508790036120a3578084848151811061207d5761207d614f4f565b6020026020010181905250828061209390614f36565b9350508483036120a35750611eae565b50806120ae81614f36565b915050611f23565b6120be614274565b6000828152600c60205260408120546001600160a01b0316906120e082611997565b949350505050565b6120f061413d565b6005828154811061210357612103614f4f565b90600052602060002090600902016040518061016001604052908160008201548152602001600182015481526020016002820160009054906101000a90046001600160a01b03166001600160a01b03166001600160a01b0316815260200160038201805461217090614eaf565b80601f016020809104026020016040519081016040528092919081815260200182805461219c90614eaf565b80156121e95780601f106121be576101008083540402835291602001916121e9565b820191906000526020600020905b8154815290600101906020018083116121cc57829003601f168201915b5050505050815260200160048201805461220290614eaf565b80601f016020809104026020016040519081016040528092919081815260200182805461222e90614eaf565b801561227b5780601f106122505761010080835404028352916020019161227b565b820191906000526020600020905b81548152906001019060200180831161225e57829003601f168201915b505050918352505060058201546020820152600682015460408201526007820154606082015260089091015460ff8082161515608084015261010082048116151560a08401526201000090910416151560c09091015292915050565b6014546122e261433f565b8181526001600160a01b038581166020808401828152604080860189815260608701899052600060808801819052600160a08901819052958152600385529190912086518155915193820180546001600160a01b03191694909516939093179093559051805184939261235c9260028501929101906141a6565b50606082015180516123789160038401916020909101906141a6565b506080820151600482015560a0909101516005909101805460ff1916911515919091179055601480549060006123ad83614f36565b91905055505050505050565b600060646123c6836120e8565b60e001516123d590604b614eff565b6123df9190614f65565b92915050565b6000818152600660205260408120546060918167ffffffffffffffff811115612410576124106144b5565b60405190808252806020026020018201604052801561244957816020015b612436614274565b81526020019060019003908161242e5790505b5090506000805b600954811015611eae5760006009828154811061246f5761246f614f4f565b90600052602060002090600602016040518060e001604052908160008201548152602001600182015481526020016002820160009054906101000a90046001600160a01b03166001600160a01b03166001600160a01b03168152602001600382015481526020016004820180546124e590614eaf565b80601f016020809104026020016040519081016040528092919081815260200182805461251190614eaf565b801561255e5780601f106125335761010080835404028352916020019161255e565b820191906000526020600020905b81548152906001019060200180831161254157829003601f168201915b50505091835250506005919091015460ff8082161515602084015261010090910416151560409091015260608101519091508790036125dc576125a48160400151611997565b8484815181106125b6576125b6614f4f565b602002602001018190525082806125cc90614f36565b9350508483036125dc5750611eae565b50806125e781614f36565b915050612450565b6125f76142c4565b6001600160a01b038083166000908152600d6020908152604091829020825160c08101845281548152600182015490941691840191909152600281018054919284019161264390614eaf565b80601f016020809104026020016040519081016040528092919081815260200182805461266f90614eaf565b80156126bc5780601f10612691576101008083540402835291602001916126bc565b820191906000526020600020905b81548152906001019060200180831161269f57829003601f168201915b505050505081526020016003820180546126d590614eaf565b80601f016020809104026020016040519081016040528092919081815260200182805461270190614eaf565b801561274e5780601f106127235761010080835404028352916020019161274e565b820191906000526020600020905b81548152906001019060200180831161273157829003601f168201915b5050505050815260200160048201805461276790614eaf565b80601f016020809104026020016040519081016040528092919081815260200182805461279390614eaf565b80156127e05780601f106127b5576101008083540402835291602001916127e0565b820191906000526020600020905b8154815290600101906020018083116127c357829003601f168201915b50505091835250506005919091015460ff16151560209091015292915050565b612808614274565b60006009838154811061281d5761281d614f4f565b90600052602060002090600602016040518060e001604052908160008201548152602001600182015481526020016002820160009054906101000a90046001600160a01b03166001600160a01b03166001600160a01b031681526020016003820154815260200160048201805461289390614eaf565b80601f01602080910402602001604051908101604052809291908181526020018280546128bf90614eaf565b801561290c5780601f106128e15761010080835404028352916020019161290c565b820191906000526020600020905b8154815290600101906020018083116128ef57829003601f168201915b50505091835250506005919091015460ff808216151560208401526101009091041615156040918201528101519091506000906120e090611997565b6001600160a01b0381166000908152600a60205260408120546060918167ffffffffffffffff81111561297d5761297d6144b5565b6040519080825280602002602001820160405280156129b657816020015b6129a361422a565b81526020019060019003908161299b5790505b5090506000805b600954811015611eae576000600982815481106129dc576129dc614f4f565b90600052602060002090600602016040518060e001604052908160008201548152602001600182015481526020016002820160009054906101000a90046001600160a01b03166001600160a01b03166001600160a01b0316815260200160038201548152602001600482018054612a5290614eaf565b80601f0160208091040260200160405190810160405280929190818152602001828054612a7e90614eaf565b8015612acb5780601f10612aa057610100808354040283529160200191612acb565b820191906000526020600020905b815481529060010190602001808311612aae57829003601f168201915b50505091835250506005919091015460ff808216151560208401526101009091041615156040918201528101519091506001600160a01b03808916911603612b465780848481518110612b2057612b20614f4f565b60200260200101819052508280612b3690614f36565b935050848303612b465750611eae565b5080612b5181614f36565b9150506129bd565b6008602052600090815260409020805460018201546002830154600384018054939492936001600160a01b039092169291612b9390614eaf565b80601f0160208091040260200160405190810160405280929190818152602001828054612bbf90614eaf565b8015612c0c5780601f10612be157610100808354040283529160200191612c0c565b820191906000526020600020905b815481529060010190602001808311612bef57829003601f168201915b505050505090806004018054612c2190614eaf565b80601f0160208091040260200160405190810160405280929190818152602001828054612c4d90614eaf565b8015612c9a5780601f10612c6f57610100808354040283529160200191612c9a565b820191906000526020600020905b815481529060010190602001808311612c7d57829003601f168201915b505050505090806005018054612caf90614eaf565b80601f0160208091040260200160405190810160405280929190818152602001828054612cdb90614eaf565b8015612d285780601f10612cfd57610100808354040283529160200191612d28565b820191906000526020600020905b815481529060010190602001808311612d0b57829003601f168201915b505050505090806006018054612d3d90614eaf565b80601f0160208091040260200160405190810160405280929190818152602001828054612d6990614eaf565b8015612db65780601f10612d8b57610100808354040283529160200191612db6565b820191906000526020600020905b815481529060010190602001808311612d9957829003601f168201915b5050506007909301549192505060ff1688565b601654612dd4614274565b8181526001600160a01b038781166040808401828152606085018a8152608086018a905260a0860189905260c08601889052600160e087018190526000948552600860209081529390942086518155838701519481019490945590516002840180546001600160a01b0319169190951617909355915180518493612e5f9260038501929101906141a6565b5060808201518051612e7b9160048401916020909101906141a6565b5060a08201518051612e979160058401916020909101906141a6565b5060c08201518051612eb39160068401916020909101906141a6565b5060e091909101516007909101805460ff191691151591909117905560168054906000612edf83614f36565b919050555050505050505050565b60098181548110612efd57600080fd5b60009182526020909120600690910201805460018201546002830154600384015460048501805494965092946001600160a01b0390921693909290612f4190614eaf565b80601f0160208091040260200160405190810160405280929190818152602001828054612f6d90614eaf565b8015612fba5780601f10612f8f57610100808354040283529160200191612fba565b820191906000526020600020905b815481529060010190602001808311612f9d57829003601f168201915b5050506005909301549192505060ff8082169161010090041687565b600d6020526000908152604090208054600182015460028301805492936001600160a01b039092169261300890614eaf565b80601f016020809104026020016040519081016040528092919081815260200182805461303490614eaf565b80156130815780601f1061305657610100808354040283529160200191613081565b820191906000526020600020905b81548152906001019060200180831161306457829003601f168201915b50505050509080600301805461309690614eaf565b80601f01602080910402602001604051908101604052809291908181526020018280546130c290614eaf565b801561310f5780601f106130e45761010080835404028352916020019161310f565b820191906000526020600020905b8154815290600101906020018083116130f257829003601f168201915b50505050509080600401805461312490614eaf565b80601f016020809104026020016040519081016040528092919081815260200182805461315090614eaf565b801561319d5780601f106131725761010080835404028352916020019161319d565b820191906000526020600020905b81548152906001019060200180831161318057829003601f168201915b5050506005909301549192505060ff1686565b600080805b601054811015613275576000601082815481106131d4576131d4614f4f565b60009182526020918290206040805160e0810182526007909302909101805483526001810154938301939093526002830154908201526003820154606082015260048201546001600160a01b0390811660808301819052600584015460a084015260069093015460ff16151560c0830152909250861690036132625760a081015161325f9084614f1e565b92505b508061326d81614f36565b9150506131b5565b5092915050565b6000613287856120e8565b90508061012001511561329957600080fd5b60008581526013602090815260408083206001600160a01b038616845290915290205460ff16156132c957600080fd5b60006132d48561116d565b60195490915060006132e5856125ef565b90506132ef614305565b82815281516020808301918252858101516040808501918252606085018d8152600160a08701818152600e805480840182556000918252895160059091027fbb7b4a454dc3493923482f07822329ed19e8244eff582cc204f8554c3620c3fd81019190915597517fbb7b4a454dc3493923482f07822329ed19e8244eff582cc204f8554c3620c3fe89015594517fbb7b4a454dc3493923482f07822329ed19e8244eff582cc204f8554c3620c3ff88015591517fbb7b4a454dc3493923482f07822329ed19e8244eff582cc204f8554c3620c40087015560808701517fbb7b4a454dc3493923482f07822329ed19e8244eff582cc204f8554c3620c4019096018054925115156101000261ff00199715159790971661ffff199093169290921795909517905588518083526013845281832084880180516001600160a01b0316855294529120805460ff19169093179092555161344d908290613c9b565b60008181526007602052604081205490613468826001614f1e565b6000848152600760209081526040808320849055888201516001600160a01b03168352600b9091528120549192506134a1826001614f1e565b905080600b600089602001516001600160a01b03166001600160a01b03168152602001908152602001600020819055506000600f600087815260200190815260200160002060008e6001600160a01b03166001600160a01b03168152602001908152602001600020549050600081600161351b9190614f1e565b6000888152600f602090815260408083208f8201516001600160a01b03168452909152902081905560c08d015190915085036135715761355a87613e22565b613568878c60200151613e4e565b613571876140b7565b6019805490600061358183614f36565b919050555050505050505050505050505050505050565b600e81815481106135a857600080fd5b6000918252602090912060059091020180546001820154600283015460038401546004909401549294509092909160ff8082169161010090041686565b6135ed61433f565b6001600160a01b03808316600090815260036020908152604091829020825160c08101845281548152600182015490941691840191909152600281018054919284019161363990614eaf565b80601f016020809104026020016040519081016040528092919081815260200182805461366590614eaf565b80156136b25780601f10613687576101008083540402835291602001916136b2565b820191906000526020600020905b81548152906001019060200180831161369557829003601f168201915b505050505081526020016003820180546136cb90614eaf565b80601f01602080910402602001604051908101604052809291908181526020018280546136f790614eaf565b80156137445780601f1061371957610100808354040283529160200191613744565b820191906000526020600020905b81548152906001019060200180831161372757829003601f168201915b50505091835250506004820154602082015260059091015460ff16151560409091015292915050565b613775614274565b600061377f614274565b600061378a856123e5565b905060005b8151811015611eae5760008282815181106137ac576137ac614f4f565b6020908102919091018101516000898152600f83526040808220818401516001600160a01b03168352909352919091205490915085811115613808578095508383815181106137fd576137fd614f4f565b602002602001015194505b5050808061381590614f36565b91505061378f565b6000606461382a836120e8565b60e001516123d590600a614eff565b61384161422a565b600061384c83612948565b905061385661422a565b60005b82518110156138af57600083828151811061387657613876614f4f565b602002602001015190508781606001511480156138935750805187145b1561389c578092505b50806138a781614f36565b915050613859565b5095945050505050565b6001600160a01b0381166000908152600460205260408120546060918167ffffffffffffffff8111156138ee576138ee6144b5565b60405190808252806020026020018201604052801561392757816020015b61391461413d565b81526020019060019003908161390c5790505b5090506000805b600554811015611eae5760006005828154811061394d5761394d614f4f565b90600052602060002090600902016040518061016001604052908160008201548152602001600182015481526020016002820160009054906101000a90046001600160a01b03166001600160a01b03166001600160a01b031681526020016003820180546139ba90614eaf565b80601f01602080910402602001604051908101604052809291908181526020018280546139e690614eaf565b8015613a335780601f10613a0857610100808354040283529160200191613a33565b820191906000526020600020905b815481529060010190602001808311613a1657829003601f168201915b50505050508152602001600482018054613a4c90614eaf565b80601f0160208091040260200160405190810160405280929190818152602001828054613a7890614eaf565b8015613ac55780601f10613a9a57610100808354040283529160200191613ac5565b820191906000526020600020905b815481529060010190602001808311613aa857829003601f168201915b50505091835250506005820154602082015260068201546040808301919091526007830154606083015260089092015460ff8082161515608084015261010082048116151560a08401526201000090910416151560c0909101528101519091506001600160a01b03808916911603613b705780848481518110613b4a57613b4a614f4f565b60200260200101819052508280613b6090614f36565b935050848303613b705750611eae565b5080613b7b81614f36565b91505061392e565b6000613b8e826120e8565b600161010082015260058054919250829184908110613baf57613baf614f4f565b600091825260209182902083516009929092020190815582820151600182015560408301516002820180546001600160a01b0319166001600160a01b03909216919091179055606083015180519192613c10926003850192909101906141a6565b5060808201518051613c2c9160048401916020909101906141a6565b5060a0820151600582015560c0820151600682015560e0820151600782015561010080830151600890920180546101208501516101409095015161ffff1990911693151561ff001916939093179315159091029290921762ff0000191662010000911515919091021790555050565b601b546000613ca9836125ef565b90506000613cb685611d99565b9050613cfc6040518060c00160405280600081526020016000815260200160006001600160a01b0316815260200160008152602001600081526020016000151581525090565b83815282516020808301918252808501516001600160a01b039081166040808601918252606086018b815260808701888152600160a089018181528d8716600081815260118a52868120805480860182559082529990208b516006909a020198895598518883015594516002880180546001600160a01b031916918816919091179055915160038701555160048087019190915592516005909501805460ff1916951515959095179094559254925163a9059cbb60e01b81529081019390935260248301859052169063a9059cbb906044016020604051808303816000875af1158015613ded573d6000803e3d6000fd5b505050506040513d601f19601f82011682018060405250810190613e119190614f87565b50601b8054906000611d8c83614f36565b6000613e2d826120e8565b600161012082015260058054919250829184908110613baf57613baf614f4f565b6000613e598361376d565b90506000613e66846123b9565b90506000601a549050613eba6040518060e001604052806000815260200160008152602001600081526020016000815260200160006001600160a01b03168152602001600081526020016000151581525090565b8181526020810186815260608201868152604086810180516001600160a01b039081166080870190815260a08701898152600160c089018181526010805480840182556000919091528a517f1b6847dc741a1b0cd08d278845f9d819d87b734759afb55fe2de5cb82a9ae67260079092029182015598517f1b6847dc741a1b0cd08d278845f9d819d87b734759afb55fe2de5cb82a9ae6738a0155868a01517f1b6847dc741a1b0cd08d278845f9d819d87b734759afb55fe2de5cb82a9ae6748a015596517f1b6847dc741a1b0cd08d278845f9d819d87b734759afb55fe2de5cb82a9ae67589015591517f1b6847dc741a1b0cd08d278845f9d819d87b734759afb55fe2de5cb82a9ae676880180546001600160a01b031916918516919091179055517f1b6847dc741a1b0cd08d278845f9d819d87b734759afb55fe2de5cb82a9ae67787015593517f1b6847dc741a1b0cd08d278845f9d819d87b734759afb55fe2de5cb82a9ae678909501805460ff19169515159590951790945591549151905163a9059cbb60e01b815290831660048201526024810186905291169063a9059cbb906044016020604051808303816000875af1158015614082573d6000803e3d6000fd5b505050506040513d601f19601f820116820180604052508101906140a69190614f87565b50601a8054906000611d8c83614f36565b60006140c28261381d565b60015460005460405163a9059cbb60e01b81526001600160a01b03918216600482015260248101849052929350169063a9059cbb906044016020604051808303816000875af1158015614119573d6000803e3d6000fd5b505050506040513d601f19601f8201168201806040525081019061183f9190614f87565b604051806101600160405280600081526020016000815260200160006001600160a01b0316815260200160608152602001606081526020016000815260200160008152602001600081526020016000151581526020016000151581526020016000151581525090565b8280546141b290614eaf565b90600052602060002090601f0160209004810192826141d4576000855561421a565b82601f106141ed57805160ff191683800117855561421a565b8280016001018555821561421a579182015b8281111561421a5782518255916020019190600101906141ff565b50614226929150614380565b5090565b6040518060e00160405280600081526020016000815260200160006001600160a01b0316815260200160008152602001606081526020016000151581526020016000151581525090565b604051806101000160405280600081526020016000815260200160006001600160a01b03168152602001606081526020016060815260200160608152602001606081526020016000151581525090565b6040518060c001604052806000815260200160006001600160a01b031681526020016060815260200160608152602001606081526020016000151581525090565b6040518060c00160405280600081526020016000815260200160008152602001600081526020016000151581526020016000151581525090565b6040518060c001604052806000815260200160006001600160a01b031681526020016060815260200160608152602001600081526020016000151581525090565b5b808211156142265760008155600101614381565b6000602082840312156143a757600080fd5b5035919050565b6000815180845260005b818110156143d4576020818501810151868301820152016143b8565b818111156143e6576000602083870101525b50601f01601f19169290920160200192915050565b8b8152602081018b90526001600160a01b038a1660408201526101606060820181905260009061442d8382018c6143ae565b90508281036080840152614441818b6143ae565b60a0840199909952505060c081019590955260e0850193909352901515610100840152151561012083015215156101409091015295945050505050565b80356001600160a01b038116811461449557600080fd5b919050565b6000602082840312156144ac57600080fd5b611dd38261447e565b634e487b7160e01b600052604160045260246000fd5b600082601f8301126144dc57600080fd5b813567ffffffffffffffff808211156144f7576144f76144b5565b604051601f8301601f19908116603f0116810190828211818310171561451f5761451f6144b5565b8160405283815286602085880101111561453857600080fd5b836020870160208301376000602085830101528094505050505092915050565b600080600080600080600060e0888a03121561457357600080fd5b873596506145836020890161447e565b9550604088013567ffffffffffffffff808211156145a057600080fd5b6145ac8b838c016144cb565b965060608a01359150808211156145c257600080fd5b506145cf8a828b016144cb565b979a969950949760808101359660a0820135965060c090910135945092505050565b6000806000806080858703121561460757600080fd5b843593506020850135925061461e6040860161447e565b9150606085013567ffffffffffffffff81111561463a57600080fd5b614646878288016144cb565b91505092959194509250565b805182526020810151602083015260018060a01b036040820151166040830152606081015160608301526000608082015160e0608085015261469760e08501826143ae565b905060a0830151151560a085015260c0830151151560c08501528091505092915050565b602081526000611dd36020830184614652565b600080604083850312156146e157600080fd5b823591506146f16020840161447e565b90509250929050565b6000806040838503121561470d57600080fd5b6147168361447e565b946020939093013593505050565b60006101608251845260208301516020850152604083015161475160408601826001600160a01b03169052565b506060830151816060860152614769828601826143ae565b9150506080830151848203608086015261478382826143ae565b91505060a083015160a085015260c083015160c085015260e083015160e0850152610100808401516147b88287018215159052565b5050610120838101511515908501526101408084015180151582870152611eae565b6000602080830181845280855180835260408601915060408160051b870101925083870160005b8281101561482f57603f1988860301845261481d858351614724565b94509285019290850190600101614801565b5092979650505050505050565b6000806040838503121561484f57600080fd5b50508035926020909101359150565b8681526001600160a01b038616602082015260c060408201819052600090614888908301876143ae565b828103606084015261489a81876143ae565b6080840195909552505090151560a090910152949350505050565b6000610100825184526020830151602085015260408301516148e260408601826001600160a01b03169052565b5060608301518160608601526148fa828601826143ae565b9150506080830151848203608086015261491482826143ae565b91505060a083015184820360a086015261492e82826143ae565b91505060c083015184820360c086015261494882826143ae565b91505060e083015161495e60e086018215159052565b509392505050565b602081526000611dd360208301846148b5565b6000806000806080858703121561498f57600080fd5b6149988561447e565b9350602085013567ffffffffffffffff808211156149b557600080fd5b6149c1888389016144cb565b945060408701359150808211156149d757600080fd5b6149e3888389016144cb565b935060608701359150808211156149f957600080fd5b50614646878288016144cb565b6000602080830181845280855180835260408601915060408160051b870101925083870160005b8281101561482f57603f19888603018452614a49858351614652565b94509285019290850190600101614a2d565b602081526000611dd36020830184614724565b600080600060608486031215614a8357600080fd5b614a8c8461447e565b9250602084013567ffffffffffffffff80821115614aa957600080fd5b614ab5878388016144cb565b93506040860135915080821115614acb57600080fd5b50614ad8868287016144cb565b9150509250925092565b6000602080830181845280855180835260408601915060408160051b870101925083870160005b8281101561482f57603f19888603018452614b258583516148b5565b94509285019290850190600101614b09565b602081528151602082015260018060a01b0360208301511660408201526000604083015160c06060840152614b6f60e08401826143ae565b90506060840151601f1980858403016080860152614b8d83836143ae565b925060808601519150808584030160a086015250614bab82826143ae565b91505060a0840151151560c08401528091505092915050565b888152602081018890526001600160a01b038716604082015261010060608201819052600090614bf6838201896143ae565b90508281036080840152614c0a81886143ae565b905082810360a0840152614c1e81876143ae565b905082810360c0840152614c3281866143ae565b91505082151560e08301529998505050505050505050565b600080600080600060a08688031215614c6257600080fd5b614c6b8661447e565b9450602086013567ffffffffffffffff80821115614c8857600080fd5b614c9489838a016144cb565b95506040880135915080821115614caa57600080fd5b614cb689838a016144cb565b94506060880135915080821115614ccc57600080fd5b614cd889838a016144cb565b93506080880135915080821115614cee57600080fd5b50614cfb888289016144cb565b9150509295509295909350565b87815286602082015260018060a01b038616604082015284606082015260e060808201526000614d3b60e08301866143ae565b93151560a08301525090151560c09091015295945050505050565b8681526001600160a01b038616602082015260c060408201819052600090614d80908301876143ae565b8281036060840152614d9281876143ae565b90508281036080840152614da681866143ae565b91505082151560a0830152979650505050505050565b60008060008060808587031215614dd257600080fd5b8435935060208501359250614de96040860161447e565b9150614df76060860161447e565b905092959194509250565b602081528151602082015260018060a01b0360208301511660408201526000604083015160c06060840152614e3a60e08401826143ae565b90506060840151601f19848303016080850152614e5782826143ae565b915050608084015160a084015260a0840151151560c08401528091505092915050565b600080600060608486031215614e8f57600080fd5b8335925060208401359150614ea66040850161447e565b90509250925092565b600181811c90821680614ec357607f821691505b602082108103614ee357634e487b7160e01b600052602260045260246000fd5b50919050565b634e487b7160e01b600052601160045260246000fd5b6000816000190483118215151615614f1957614f19614ee9565b500290565b60008219821115614f3157614f31614ee9565b500190565b600060018201614f4857614f48614ee9565b5060010190565b634e487b7160e01b600052603260045260246000fd5b600082614f8257634e487b7160e01b600052601260045260246000fd5b500490565b600060208284031215614f9957600080fd5b81518015158114611dd357600080fdfea2646970667358221220e06d7ba4885a9994a369c7da0e918aada2ee793c3e903e96d4e05c8b39535c1a64736f6c634300080d0033",
			"opcodes": "PUSH1 0x80 PUSH1 0x40 DUP2 SWAP1 MSTORE PUSH1 0x0 DUP1 SLOAD PUSH20 0xE49B05F2C7DD51F61E415E1DFAC10B80074B001A PUSH1 0x1 PUSH1 0x1 PUSH1 0xA0 SHL SUB NOT SWAP2 DUP3 AND OR SWAP1 SWAP2 SSTORE PUSH1 0x1 DUP1 SLOAD PUSH20 0x874069FA1EB16D44D622F2E0CA25EEA172369BC1 SWAP3 AND DUP3 OR SWAP1 SSTORE PUSH4 0x313CE567 PUSH1 0xE0 SHL DUP3 MSTORE SWAP1 PUSH4 0x313CE567 SWAP1 PUSH1 0x84 SWAP1 PUSH1 0x20 SWAP1 PUSH1 0x4 DUP2 DUP7 GAS STATICCALL ISZERO DUP1 ISZERO PUSH3 0x7D JUMPI RETURNDATASIZE PUSH1 0x0 DUP1 RETURNDATACOPY RETURNDATASIZE PUSH1 0x0 REVERT JUMPDEST POP POP POP POP PUSH1 0x40 MLOAD RETURNDATASIZE PUSH1 0x1F NOT PUSH1 0x1F DUP3 ADD AND DUP3 ADD DUP1 PUSH1 0x40 MSTORE POP DUP2 ADD SWAP1 PUSH3 0xA3 SWAP2 SWAP1 PUSH3 0xC7 JUMP JUMPDEST PUSH3 0xB0 SWAP1 PUSH1 0xA PUSH3 0x208 JUMP JUMPDEST PUSH1 0x2 SSTORE CALLVALUE DUP1 ISZERO PUSH3 0xC0 JUMPI PUSH1 0x0 DUP1 REVERT JUMPDEST POP PUSH3 0x219 JUMP JUMPDEST PUSH1 0x0 PUSH1 0x20 DUP3 DUP5 SUB SLT ISZERO PUSH3 0xDA JUMPI PUSH1 0x0 DUP1 REVERT JUMPDEST DUP2 MLOAD PUSH1 0xFF DUP2 AND DUP2 EQ PUSH3 0xEC JUMPI PUSH1 0x0 DUP1 REVERT JUMPDEST SWAP4 SWAP3 POP POP POP JUMP JUMPDEST PUSH4 0x4E487B71 PUSH1 0xE0 SHL PUSH1 0x0 MSTORE PUSH1 0x11 PUSH1 0x4 MSTORE PUSH1 0x24 PUSH1 0x0 REVERT JUMPDEST PUSH1 0x1 DUP2 DUP2 JUMPDEST DUP1 DUP6 GT ISZERO PUSH3 0x14A JUMPI DUP2 PUSH1 0x0 NOT DIV DUP3 GT ISZERO PUSH3 0x12E JUMPI PUSH3 0x12E PUSH3 0xF3 JUMP JUMPDEST DUP1 DUP6 AND ISZERO PUSH3 0x13C JUMPI SWAP2 DUP2 MUL SWAP2 JUMPDEST SWAP4 DUP5 SHR SWAP4 SWAP1 DUP1 MUL SWAP1 PUSH3 0x10E JUMP JUMPDEST POP SWAP3 POP SWAP3 SWAP1 POP JUMP JUMPDEST PUSH1 0x0 DUP3 PUSH3 0x163 JUMPI POP PUSH1 0x1 PUSH3 0x202 JUMP JUMPDEST DUP2 PUSH3 0x172 JUMPI POP PUSH1 0x0 PUSH3 0x202 JUMP JUMPDEST DUP2 PUSH1 0x1 DUP2 EQ PUSH3 0x18B JUMPI PUSH1 0x2 DUP2 EQ PUSH3 0x196 JUMPI PUSH3 0x1B6 JUMP JUMPDEST PUSH1 0x1 SWAP2 POP POP PUSH3 0x202 JUMP JUMPDEST PUSH1 0xFF DUP5 GT ISZERO PUSH3 0x1AA JUMPI PUSH3 0x1AA PUSH3 0xF3 JUMP JUMPDEST POP POP PUSH1 0x1 DUP3 SHL PUSH3 0x202 JUMP JUMPDEST POP PUSH1 0x20 DUP4 LT PUSH2 0x133 DUP4 LT AND PUSH1 0x4E DUP5 LT PUSH1 0xB DUP5 LT AND OR ISZERO PUSH3 0x1DB JUMPI POP DUP2 DUP2 EXP PUSH3 0x202 JUMP JUMPDEST PUSH3 0x1E7 DUP4 DUP4 PUSH3 0x109 JUMP JUMPDEST DUP1 PUSH1 0x0 NOT DIV DUP3 GT ISZERO PUSH3 0x1FE JUMPI PUSH3 0x1FE PUSH3 0xF3 JUMP JUMPDEST MUL SWAP1 POP JUMPDEST SWAP3 SWAP2 POP POP JUMP JUMPDEST PUSH1 0x0 PUSH3 0xEC PUSH1 0xFF DUP5 AND DUP4 PUSH3 0x152 JUMP JUMPDEST PUSH2 0x4FDF DUP1 PUSH3 0x229 PUSH1 0x0 CODECOPY PUSH1 0x0 RETURN INVALID PUSH1 0x80 PUSH1 0x40 MSTORE CALLVALUE DUP1 ISZERO PUSH2 0x10 JUMPI PUSH1 0x0 DUP1 REVERT JUMPDEST POP PUSH1 0x4 CALLDATASIZE LT PUSH2 0x3A4 JUMPI PUSH1 0x0 CALLDATALOAD PUSH1 0xE0 SHR DUP1 PUSH4 0x8C056233 GT PUSH2 0x1E9 JUMPI DUP1 PUSH4 0xC3703048 GT PUSH2 0x10F JUMPI DUP1 PUSH4 0xDE63F432 GT PUSH2 0xAD JUMPI DUP1 PUSH4 0xE9D3AC50 GT PUSH2 0x7C JUMPI DUP1 PUSH4 0xE9D3AC50 EQ PUSH2 0xB14 JUMPI DUP1 PUSH4 0xE9DA1029 EQ PUSH2 0xB27 JUMPI DUP1 PUSH4 0xED04470C EQ PUSH2 0xB3A JUMPI DUP1 PUSH4 0xFAE0F23F EQ PUSH2 0xB43 JUMPI PUSH1 0x0 DUP1 REVERT JUMPDEST DUP1 PUSH4 0xDE63F432 EQ PUSH2 0xA94 JUMPI DUP1 PUSH4 0xE1FF3FB7 EQ PUSH2 0xAD8 JUMPI DUP1 PUSH4 0xE35A8441 EQ PUSH2 0xAE1 JUMPI DUP1 PUSH4 0xE926CA45 EQ PUSH2 0xB01 JUMPI PUSH1 0x0 DUP1 REVERT JUMPDEST DUP1 PUSH4 0xD243B249 GT PUSH2 0xE9 JUMPI DUP1 PUSH4 0xD243B249 EQ PUSH2 0xA36 JUMPI DUP1 PUSH4 0xD39F622A EQ PUSH2 0xA49 JUMPI DUP1 PUSH4 0xD9AD496D EQ PUSH2 0xA52 JUMPI DUP1 PUSH4 0xDB8AC181 EQ PUSH2 0xA81 JUMPI PUSH1 0x0 DUP1 REVERT JUMPDEST DUP1 PUSH4 0xC3703048 EQ PUSH2 0x9BB JUMPI DUP1 PUSH4 0xC64D0D85 EQ PUSH2 0x9E0 JUMPI DUP1 PUSH4 0xCCA050A1 EQ PUSH2 0xA00 JUMPI PUSH1 0x0 DUP1 REVERT JUMPDEST DUP1 PUSH4 0xA4BFADDF GT PUSH2 0x187 JUMPI DUP1 PUSH4 0xB2514292 GT PUSH2 0x156 JUMPI DUP1 PUSH4 0xB2514292 EQ PUSH2 0x93D JUMPI DUP1 PUSH4 0xBAF3F49E EQ PUSH2 0x963 JUMPI DUP1 PUSH4 0xBD7863FD EQ PUSH2 0x992 JUMPI DUP1 PUSH4 0xC1DF9E90 EQ PUSH2 0x99B JUMPI PUSH1 0x0 DUP1 REVERT JUMPDEST DUP1 PUSH4 0xA4BFADDF EQ PUSH2 0x8CB JUMPI DUP1 PUSH4 0xAD9ADEAD EQ PUSH2 0x8D4 JUMPI DUP1 PUSH4 0xB0344580 EQ PUSH2 0x8FB JUMPI DUP1 PUSH4 0xB0EEBD18 EQ PUSH2 0x92A JUMPI PUSH1 0x0 DUP1 REVERT JUMPDEST DUP1 PUSH4 0x9100B5DD GT PUSH2 0x1C3 JUMPI DUP1 PUSH4 0x9100B5DD EQ PUSH2 0x87C JUMPI DUP1 PUSH4 0x9D30DC61 EQ PUSH2 0x885 JUMPI DUP1 PUSH4 0xA064DDA2 EQ PUSH2 0x8A5 JUMPI DUP1 PUSH4 0xA382148A EQ PUSH2 0x8B8 JUMPI PUSH1 0x0 DUP1 REVERT JUMPDEST DUP1 PUSH4 0x8C056233 EQ PUSH2 0x833 JUMPI DUP1 PUSH4 0x8E1AFC95 EQ PUSH2 0x853 JUMPI DUP1 PUSH4 0x904716F6 EQ PUSH2 0x85C JUMPI PUSH1 0x0 DUP1 REVERT JUMPDEST DUP1 PUSH4 0x60CDD94A GT PUSH2 0x2CE JUMPI DUP1 PUSH4 0x78C5AB69 GT PUSH2 0x26C JUMPI DUP1 PUSH4 0x7DDC914A GT PUSH2 0x23B JUMPI DUP1 PUSH4 0x7DDC914A EQ PUSH2 0x7CD JUMPI DUP1 PUSH4 0x7F868A8E EQ PUSH2 0x7ED JUMPI DUP1 PUSH4 0x818D5254 EQ PUSH2 0x800 JUMPI DUP1 PUSH4 0x852C8EA7 EQ PUSH2 0x820 JUMPI PUSH1 0x0 DUP1 REVERT JUMPDEST DUP1 PUSH4 0x78C5AB69 EQ PUSH2 0x724 JUMPI DUP1 PUSH4 0x78D61865 EQ PUSH2 0x737 JUMPI DUP1 PUSH4 0x79382F00 EQ PUSH2 0x79A JUMPI DUP1 PUSH4 0x79F19780 EQ PUSH2 0x7BA JUMPI PUSH1 0x0 DUP1 REVERT JUMPDEST DUP1 PUSH4 0x69DB2DB3 GT PUSH2 0x2A8 JUMPI DUP1 PUSH4 0x69DB2DB3 EQ PUSH2 0x68D JUMPI DUP1 PUSH4 0x6A098823 EQ PUSH2 0x6AD JUMPI DUP1 PUSH4 0x6E93E563 EQ PUSH2 0x6E6 JUMPI DUP1 PUSH4 0x78C38F3A EQ PUSH2 0x711 JUMPI PUSH1 0x0 DUP1 REVERT JUMPDEST DUP1 PUSH4 0x60CDD94A EQ PUSH2 0x5EC JUMPI DUP1 PUSH4 0x621D571D EQ PUSH2 0x60C JUMPI DUP1 PUSH4 0x6861F01F EQ PUSH2 0x65F JUMPI PUSH1 0x0 DUP1 REVERT JUMPDEST DUP1 PUSH4 0x38A59A07 GT PUSH2 0x346 JUMPI DUP1 PUSH4 0x4464CE95 GT PUSH2 0x315 JUMPI DUP1 PUSH4 0x4464CE95 EQ PUSH2 0x58B JUMPI DUP1 PUSH4 0x4633F488 EQ PUSH2 0x5AB JUMPI DUP1 PUSH4 0x4D148F40 EQ PUSH2 0x5BE JUMPI DUP1 PUSH4 0x5BF35E66 EQ PUSH2 0x5E3 JUMPI PUSH1 0x0 DUP1 REVERT JUMPDEST DUP1 PUSH4 0x38A59A07 EQ PUSH2 0x4E9 JUMPI DUP1 PUSH4 0x3A6A44E2 EQ PUSH2 0x4FE JUMPI DUP1 PUSH4 0x4217D66F EQ PUSH2 0x53F JUMPI DUP1 PUSH4 0x431B710A EQ PUSH2 0x552 JUMPI PUSH1 0x0 DUP1 REVERT JUMPDEST DUP1 PUSH4 0xDF63082 GT PUSH2 0x382 JUMPI DUP1 PUSH4 0xDF63082 EQ PUSH2 0x428 JUMPI DUP1 PUSH4 0x1D4D3BA4 EQ PUSH2 0x43B JUMPI DUP1 PUSH4 0x2F8E211E EQ PUSH2 0x45B JUMPI DUP1 PUSH4 0x3755C2B2 EQ PUSH2 0x499 JUMPI PUSH1 0x0 DUP1 REVERT JUMPDEST DUP1 PUSH4 0x6C49713 EQ PUSH2 0x3A9 JUMPI DUP1 PUSH4 0x72DF68A EQ PUSH2 0x3DC JUMPI DUP1 PUSH4 0xDE0350F EQ PUSH2 0x413 JUMPI JUMPDEST PUSH1 0x0 DUP1 REVERT JUMPDEST PUSH2 0x3BC PUSH2 0x3B7 CALLDATASIZE PUSH1 0x4 PUSH2 0x4395 JUMP JUMPDEST PUSH2 0xB56 JUMP JUMPDEST PUSH1 0x40 MLOAD PUSH2 0x3D3 SWAP12 SWAP11 SWAP10 SWAP9 SWAP8 SWAP7 SWAP6 SWAP5 SWAP4 SWAP3 SWAP2 SWAP1 PUSH2 0x43FB JUMP JUMPDEST PUSH1 0x40 MLOAD DUP1 SWAP2 SUB SWAP1 RETURN JUMPDEST PUSH2 0x405 PUSH2 0x3EA CALLDATASIZE PUSH1 0x4 PUSH2 0x449A JUMP JUMPDEST PUSH1 0x1 PUSH1 0x1 PUSH1 0xA0 SHL SUB AND PUSH1 0x0 SWAP1 DUP2 MSTORE PUSH1 0xB PUSH1 0x20 MSTORE PUSH1 0x40 SWAP1 KECCAK256 SLOAD SWAP1 JUMP JUMPDEST PUSH1 0x40 MLOAD SWAP1 DUP2 MSTORE PUSH1 0x20 ADD PUSH2 0x3D3 JUMP JUMPDEST PUSH2 0x426 PUSH2 0x421 CALLDATASIZE PUSH1 0x4 PUSH2 0x4558 JUMP JUMPDEST PUSH2 0xCE5 JUMP JUMPDEST STOP JUMPDEST PUSH2 0x426 PUSH2 0x436 CALLDATASIZE PUSH1 0x4 PUSH2 0x45F1 JUMP JUMPDEST PUSH2 0xF1A JUMP JUMPDEST PUSH2 0x44E PUSH2 0x449 CALLDATASIZE PUSH1 0x4 PUSH2 0x4395 JUMP JUMPDEST PUSH2 0x116D JUMP JUMPDEST PUSH1 0x40 MLOAD PUSH2 0x3D3 SWAP2 SWAP1 PUSH2 0x46BB JUMP JUMPDEST PUSH2 0x489 PUSH2 0x469 CALLDATASIZE PUSH1 0x4 PUSH2 0x46CE JUMP JUMPDEST PUSH1 0x13 PUSH1 0x20 SWAP1 DUP2 MSTORE PUSH1 0x0 SWAP3 DUP4 MSTORE PUSH1 0x40 DUP1 DUP5 KECCAK256 SWAP1 SWAP2 MSTORE SWAP1 DUP3 MSTORE SWAP1 KECCAK256 SLOAD PUSH1 0xFF AND DUP2 JUMP JUMPDEST PUSH1 0x40 MLOAD SWAP1 ISZERO ISZERO DUP2 MSTORE PUSH1 0x20 ADD PUSH2 0x3D3 JUMP JUMPDEST PUSH2 0x4AC PUSH2 0x4A7 CALLDATASIZE PUSH1 0x4 PUSH2 0x46FA JUMP JUMPDEST PUSH2 0x12A7 JUMP JUMPDEST PUSH1 0x40 DUP1 MLOAD SWAP7 DUP8 MSTORE PUSH1 0x20 DUP8 ADD SWAP6 SWAP1 SWAP6 MSTORE PUSH1 0x1 PUSH1 0x1 PUSH1 0xA0 SHL SUB SWAP1 SWAP4 AND SWAP4 DUP6 ADD SWAP4 SWAP1 SWAP4 MSTORE PUSH1 0x60 DUP5 ADD MSTORE PUSH1 0x80 DUP4 ADD SWAP2 SWAP1 SWAP2 MSTORE ISZERO ISZERO PUSH1 0xA0 DUP3 ADD MSTORE PUSH1 0xC0 ADD PUSH2 0x3D3 JUMP JUMPDEST PUSH2 0x4F1 PUSH2 0x1307 JUMP JUMPDEST PUSH1 0x40 MLOAD PUSH2 0x3D3 SWAP2 SWAP1 PUSH2 0x47DA JUMP JUMPDEST PUSH2 0x527 PUSH2 0x50C CALLDATASIZE PUSH1 0x4 PUSH2 0x4395 JUMP JUMPDEST PUSH1 0xC PUSH1 0x20 MSTORE PUSH1 0x0 SWAP1 DUP2 MSTORE PUSH1 0x40 SWAP1 KECCAK256 SLOAD PUSH1 0x1 PUSH1 0x1 PUSH1 0xA0 SHL SUB AND DUP2 JUMP JUMPDEST PUSH1 0x40 MLOAD PUSH1 0x1 PUSH1 0x1 PUSH1 0xA0 SHL SUB SWAP1 SWAP2 AND DUP2 MSTORE PUSH1 0x20 ADD PUSH2 0x3D3 JUMP JUMPDEST PUSH2 0x405 PUSH2 0x54D CALLDATASIZE PUSH1 0x4 PUSH2 0x46CE JUMP JUMPDEST PUSH2 0x1508 JUMP JUMPDEST PUSH2 0x489 PUSH2 0x560 CALLDATASIZE PUSH1 0x4 PUSH2 0x46CE JUMP JUMPDEST PUSH1 0x0 SWAP2 DUP3 MSTORE PUSH1 0x12 PUSH1 0x20 SWAP1 DUP2 MSTORE PUSH1 0x40 DUP1 DUP5 KECCAK256 PUSH1 0x1 PUSH1 0x1 PUSH1 0xA0 SHL SUB SWAP4 SWAP1 SWAP4 AND DUP5 MSTORE SWAP2 SWAP1 MSTORE SWAP1 KECCAK256 SLOAD PUSH1 0xFF AND SWAP1 JUMP JUMPDEST PUSH2 0x405 PUSH2 0x599 CALLDATASIZE PUSH1 0x4 PUSH2 0x4395 JUMP JUMPDEST PUSH1 0x6 PUSH1 0x20 MSTORE PUSH1 0x0 SWAP1 DUP2 MSTORE PUSH1 0x40 SWAP1 KECCAK256 SLOAD DUP2 JUMP JUMPDEST PUSH2 0x426 PUSH2 0x5B9 CALLDATASIZE PUSH1 0x4 PUSH2 0x483C JUMP JUMPDEST PUSH2 0x1642 JUMP JUMPDEST PUSH2 0x5D1 PUSH2 0x5CC CALLDATASIZE PUSH1 0x4 PUSH2 0x449A JUMP JUMPDEST PUSH2 0x1844 JUMP JUMPDEST PUSH1 0x40 MLOAD PUSH2 0x3D3 SWAP7 SWAP6 SWAP5 SWAP4 SWAP3 SWAP2 SWAP1 PUSH2 0x485E JUMP JUMPDEST PUSH2 0x405 PUSH1 0x1A SLOAD DUP2 JUMP JUMPDEST PUSH2 0x5FF PUSH2 0x5FA CALLDATASIZE PUSH1 0x4 PUSH2 0x449A JUMP JUMPDEST PUSH2 0x1997 JUMP JUMPDEST PUSH1 0x40 MLOAD PUSH2 0x3D3 SWAP2 SWAP1 PUSH2 0x4966 JUMP JUMPDEST PUSH2 0x61F PUSH2 0x61A CALLDATASIZE PUSH1 0x4 PUSH2 0x4395 JUMP JUMPDEST PUSH2 0x1C4B JUMP JUMPDEST PUSH1 0x40 DUP1 MLOAD SWAP8 DUP9 MSTORE PUSH1 0x20 DUP9 ADD SWAP7 SWAP1 SWAP7 MSTORE SWAP5 DUP7 ADD SWAP4 SWAP1 SWAP4 MSTORE PUSH1 0x60 DUP6 ADD SWAP2 SWAP1 SWAP2 MSTORE PUSH1 0x1 PUSH1 0x1 PUSH1 0xA0 SHL SUB AND PUSH1 0x80 DUP5 ADD MSTORE PUSH1 0xA0 DUP4 ADD MSTORE ISZERO ISZERO PUSH1 0xC0 DUP3 ADD MSTORE PUSH1 0xE0 ADD PUSH2 0x3D3 JUMP JUMPDEST PUSH2 0x489 PUSH2 0x66D CALLDATASIZE PUSH1 0x4 PUSH2 0x46CE JUMP JUMPDEST PUSH1 0x12 PUSH1 0x20 SWAP1 DUP2 MSTORE PUSH1 0x0 SWAP3 DUP4 MSTORE PUSH1 0x40 DUP1 DUP5 KECCAK256 SWAP1 SWAP2 MSTORE SWAP1 DUP3 MSTORE SWAP1 KECCAK256 SLOAD PUSH1 0xFF AND DUP2 JUMP JUMPDEST PUSH2 0x405 PUSH2 0x69B CALLDATASIZE PUSH1 0x4 PUSH2 0x4395 JUMP JUMPDEST PUSH1 0x0 SWAP1 DUP2 MSTORE PUSH1 0x7 PUSH1 0x20 MSTORE PUSH1 0x40 SWAP1 KECCAK256 SLOAD SWAP1 JUMP JUMPDEST PUSH2 0x489 PUSH2 0x6BB CALLDATASIZE PUSH1 0x4 PUSH2 0x46CE JUMP JUMPDEST PUSH1 0x0 SWAP2 DUP3 MSTORE PUSH1 0x13 PUSH1 0x20 SWAP1 DUP2 MSTORE PUSH1 0x40 DUP1 DUP5 KECCAK256 PUSH1 0x1 PUSH1 0x1 PUSH1 0xA0 SHL SUB SWAP4 SWAP1 SWAP4 AND DUP5 MSTORE SWAP2 SWAP1 MSTORE SWAP1 KECCAK256 SLOAD PUSH1 0xFF AND SWAP1 JUMP JUMPDEST PUSH2 0x405 PUSH2 0x6F4 CALLDATASIZE PUSH1 0x4 PUSH2 0x46CE JUMP JUMPDEST PUSH1 0xF PUSH1 0x20 SWAP1 DUP2 MSTORE PUSH1 0x0 SWAP3 DUP4 MSTORE PUSH1 0x40 DUP1 DUP5 KECCAK256 SWAP1 SWAP2 MSTORE SWAP1 DUP3 MSTORE SWAP1 KECCAK256 SLOAD DUP2 JUMP JUMPDEST PUSH2 0x426 PUSH2 0x71F CALLDATASIZE PUSH1 0x4 PUSH2 0x4979 JUMP JUMPDEST PUSH2 0x1CA6 JUMP JUMPDEST PUSH2 0x405 PUSH2 0x732 CALLDATASIZE PUSH1 0x4 PUSH2 0x4395 JUMP JUMPDEST PUSH2 0x1D99 JUMP JUMPDEST PUSH2 0x74A PUSH2 0x745 CALLDATASIZE PUSH1 0x4 PUSH2 0x46CE JUMP JUMPDEST PUSH2 0x1DDA JUMP JUMPDEST PUSH1 0x40 MLOAD PUSH2 0x3D3 SWAP2 SWAP1 PUSH1 0x0 PUSH1 0xC0 DUP3 ADD SWAP1 POP DUP3 MLOAD DUP3 MSTORE PUSH1 0x20 DUP4 ADD MLOAD PUSH1 0x20 DUP4 ADD MSTORE PUSH1 0x40 DUP4 ADD MLOAD PUSH1 0x40 DUP4 ADD MSTORE PUSH1 0x60 DUP4 ADD MLOAD PUSH1 0x60 DUP4 ADD MSTORE PUSH1 0x80 DUP4 ADD MLOAD ISZERO ISZERO PUSH1 0x80 DUP4 ADD MSTORE PUSH1 0xA0 DUP4 ADD MLOAD ISZERO ISZERO PUSH1 0xA0 DUP4 ADD MSTORE SWAP3 SWAP2 POP POP JUMP JUMPDEST PUSH2 0x7AD PUSH2 0x7A8 CALLDATASIZE PUSH1 0x4 PUSH2 0x4395 JUMP JUMPDEST PUSH2 0x1EB8 JUMP JUMPDEST PUSH1 0x40 MLOAD PUSH2 0x3D3 SWAP2 SWAP1 PUSH2 0x4A06 JUMP JUMPDEST PUSH2 0x5FF PUSH2 0x7C8 CALLDATASIZE PUSH1 0x4 PUSH2 0x4395 JUMP JUMPDEST PUSH2 0x20B6 JUMP JUMPDEST PUSH2 0x7E0 PUSH2 0x7DB CALLDATASIZE PUSH1 0x4 PUSH2 0x4395 JUMP JUMPDEST PUSH2 0x20E8 JUMP JUMPDEST PUSH1 0x40 MLOAD PUSH2 0x3D3 SWAP2 SWAP1 PUSH2 0x4A5B JUMP JUMPDEST PUSH2 0x426 PUSH2 0x7FB CALLDATASIZE PUSH1 0x4 PUSH2 0x4A6E JUMP JUMPDEST PUSH2 0x22D7 JUMP JUMPDEST PUSH2 0x405 PUSH2 0x80E CALLDATASIZE PUSH1 0x4 PUSH2 0x449A JUMP JUMPDEST PUSH1 0xB PUSH1 0x20 MSTORE PUSH1 0x0 SWAP1 DUP2 MSTORE PUSH1 0x40 SWAP1 KECCAK256 SLOAD DUP2 JUMP JUMPDEST PUSH2 0x405 PUSH2 0x82E CALLDATASIZE PUSH1 0x4 PUSH2 0x4395 JUMP JUMPDEST PUSH2 0x23B9 JUMP JUMPDEST PUSH2 0x405 PUSH2 0x841 CALLDATASIZE PUSH1 0x4 PUSH2 0x4395 JUMP JUMPDEST PUSH1 0x7 PUSH1 0x20 MSTORE PUSH1 0x0 SWAP1 DUP2 MSTORE PUSH1 0x40 SWAP1 KECCAK256 SLOAD DUP2 JUMP JUMPDEST PUSH2 0x405 PUSH1 0x17 SLOAD DUP2 JUMP JUMPDEST PUSH2 0x86F PUSH2 0x86A CALLDATASIZE PUSH1 0x4 PUSH2 0x4395 JUMP JUMPDEST PUSH2 0x23E5 JUMP JUMPDEST PUSH1 0x40 MLOAD PUSH2 0x3D3 SWAP2 SWAP1 PUSH2 0x4AE2 JUMP JUMPDEST PUSH2 0x405 PUSH1 0x19 SLOAD DUP2 JUMP JUMPDEST PUSH2 0x898 PUSH2 0x893 CALLDATASIZE PUSH1 0x4 PUSH2 0x449A JUMP JUMPDEST PUSH2 0x25EF JUMP JUMPDEST PUSH1 0x40 MLOAD PUSH2 0x3D3 SWAP2 SWAP1 PUSH2 0x4B37 JUMP JUMPDEST PUSH2 0x5FF PUSH2 0x8B3 CALLDATASIZE PUSH1 0x4 PUSH2 0x4395 JUMP JUMPDEST PUSH2 0x2800 JUMP JUMPDEST PUSH2 0x7AD PUSH2 0x8C6 CALLDATASIZE PUSH1 0x4 PUSH2 0x449A JUMP JUMPDEST PUSH2 0x2948 JUMP JUMPDEST PUSH2 0x405 PUSH1 0x1B SLOAD DUP2 JUMP JUMPDEST PUSH2 0x8E7 PUSH2 0x8E2 CALLDATASIZE PUSH1 0x4 PUSH2 0x449A JUMP JUMPDEST PUSH2 0x2B59 JUMP JUMPDEST PUSH1 0x40 MLOAD PUSH2 0x3D3 SWAP9 SWAP8 SWAP7 SWAP6 SWAP5 SWAP4 SWAP3 SWAP2 SWAP1 PUSH2 0x4BC4 JUMP JUMPDEST PUSH2 0x489 PUSH2 0x909 CALLDATASIZE PUSH1 0x4 PUSH2 0x449A JUMP JUMPDEST PUSH1 0x1 PUSH1 0x1 PUSH1 0xA0 SHL SUB AND PUSH1 0x0 SWAP1 DUP2 MSTORE PUSH1 0xD PUSH1 0x20 MSTORE PUSH1 0x40 SWAP1 KECCAK256 PUSH1 0x5 ADD SLOAD PUSH1 0xFF AND SWAP1 JUMP JUMPDEST PUSH2 0x426 PUSH2 0x938 CALLDATASIZE PUSH1 0x4 PUSH2 0x4C4A JUMP JUMPDEST PUSH2 0x2DC9 JUMP JUMPDEST PUSH2 0x950 PUSH2 0x94B CALLDATASIZE PUSH1 0x4 PUSH2 0x4395 JUMP JUMPDEST PUSH2 0x2EED JUMP JUMPDEST PUSH1 0x40 MLOAD PUSH2 0x3D3 SWAP8 SWAP7 SWAP6 SWAP5 SWAP4 SWAP3 SWAP2 SWAP1 PUSH2 0x4D08 JUMP JUMPDEST PUSH2 0x489 PUSH2 0x971 CALLDATASIZE PUSH1 0x4 PUSH2 0x449A JUMP JUMPDEST PUSH1 0x1 PUSH1 0x1 PUSH1 0xA0 SHL SUB AND PUSH1 0x0 SWAP1 DUP2 MSTORE PUSH1 0x3 PUSH1 0x20 MSTORE PUSH1 0x40 SWAP1 KECCAK256 PUSH1 0x5 ADD SLOAD PUSH1 0xFF AND SWAP1 JUMP JUMPDEST PUSH2 0x405 PUSH1 0x15 SLOAD DUP2 JUMP JUMPDEST PUSH2 0x405 PUSH2 0x9A9 CALLDATASIZE PUSH1 0x4 PUSH2 0x449A JUMP JUMPDEST PUSH1 0xA PUSH1 0x20 MSTORE PUSH1 0x0 SWAP1 DUP2 MSTORE PUSH1 0x40 SWAP1 KECCAK256 SLOAD DUP2 JUMP JUMPDEST PUSH2 0x9CE PUSH2 0x9C9 CALLDATASIZE PUSH1 0x4 PUSH2 0x449A JUMP JUMPDEST PUSH2 0x2FD6 JUMP JUMPDEST PUSH1 0x40 MLOAD PUSH2 0x3D3 SWAP7 SWAP6 SWAP5 SWAP4 SWAP3 SWAP2 SWAP1 PUSH2 0x4D56 JUMP JUMPDEST PUSH2 0x405 PUSH2 0x9EE CALLDATASIZE PUSH1 0x4 PUSH2 0x449A JUMP JUMPDEST PUSH1 0x4 PUSH1 0x20 MSTORE PUSH1 0x0 SWAP1 DUP2 MSTORE PUSH1 0x40 SWAP1 KECCAK256 SLOAD DUP2 JUMP JUMPDEST PUSH2 0x405 PUSH2 0xA0E CALLDATASIZE PUSH1 0x4 PUSH2 0x46CE JUMP JUMPDEST PUSH1 0x0 SWAP2 DUP3 MSTORE PUSH1 0xF PUSH1 0x20 SWAP1 DUP2 MSTORE PUSH1 0x40 DUP1 DUP5 KECCAK256 PUSH1 0x1 PUSH1 0x1 PUSH1 0xA0 SHL SUB SWAP4 SWAP1 SWAP4 AND DUP5 MSTORE SWAP2 SWAP1 MSTORE SWAP1 KECCAK256 SLOAD SWAP1 JUMP JUMPDEST PUSH2 0x405 PUSH2 0xA44 CALLDATASIZE PUSH1 0x4 PUSH2 0x449A JUMP JUMPDEST PUSH2 0x31B0 JUMP JUMPDEST PUSH2 0x405 PUSH1 0x16 SLOAD DUP2 JUMP JUMPDEST PUSH2 0x489 PUSH2 0xA60 CALLDATASIZE PUSH1 0x4 PUSH2 0x449A JUMP JUMPDEST PUSH1 0x1 PUSH1 0x1 PUSH1 0xA0 SHL SUB AND PUSH1 0x0 SWAP1 DUP2 MSTORE PUSH1 0x8 PUSH1 0x20 MSTORE PUSH1 0x40 SWAP1 KECCAK256 PUSH1 0x7 ADD SLOAD PUSH1 0xFF AND SWAP1 JUMP JUMPDEST PUSH2 0x426 PUSH2 0xA8F CALLDATASIZE PUSH1 0x4 PUSH2 0x4DBC JUMP JUMPDEST PUSH2 0x327C JUMP JUMPDEST PUSH2 0xAA7 PUSH2 0xAA2 CALLDATASIZE PUSH1 0x4 PUSH2 0x4395 JUMP JUMPDEST PUSH2 0x3598 JUMP JUMPDEST PUSH1 0x40 DUP1 MLOAD SWAP7 DUP8 MSTORE PUSH1 0x20 DUP8 ADD SWAP6 SWAP1 SWAP6 MSTORE SWAP4 DUP6 ADD SWAP3 SWAP1 SWAP3 MSTORE PUSH1 0x60 DUP5 ADD MSTORE ISZERO ISZERO PUSH1 0x80 DUP4 ADD MSTORE ISZERO ISZERO PUSH1 0xA0 DUP3 ADD MSTORE PUSH1 0xC0 ADD PUSH2 0x3D3 JUMP JUMPDEST PUSH2 0x405 PUSH1 0x18 SLOAD DUP2 JUMP JUMPDEST PUSH2 0xAF4 PUSH2 0xAEF CALLDATASIZE PUSH1 0x4 PUSH2 0x449A JUMP JUMPDEST PUSH2 0x35E5 JUMP JUMPDEST PUSH1 0x40 MLOAD PUSH2 0x3D3 SWAP2 SWAP1 PUSH2 0x4E02 JUMP JUMPDEST PUSH2 0x5FF PUSH2 0xB0F CALLDATASIZE PUSH1 0x4 PUSH2 0x4395 JUMP JUMPDEST PUSH2 0x376D JUMP JUMPDEST PUSH2 0x405 PUSH2 0xB22 CALLDATASIZE PUSH1 0x4 PUSH2 0x4395 JUMP JUMPDEST PUSH2 0x381D JUMP JUMPDEST PUSH2 0x44E PUSH2 0xB35 CALLDATASIZE PUSH1 0x4 PUSH2 0x4E7A JUMP JUMPDEST PUSH2 0x3839 JUMP JUMPDEST PUSH2 0x405 PUSH1 0x14 SLOAD DUP2 JUMP JUMPDEST PUSH2 0x4F1 PUSH2 0xB51 CALLDATASIZE PUSH1 0x4 PUSH2 0x449A JUMP JUMPDEST PUSH2 0x38B9 JUMP JUMPDEST PUSH1 0x5 DUP2 DUP2 SLOAD DUP2 LT PUSH2 0xB66 JUMPI PUSH1 0x0 DUP1 REVERT JUMPDEST PUSH1 0x0 SWAP2 DUP3 MSTORE PUSH1 0x20 SWAP1 SWAP2 KECCAK256 PUSH1 0x9 SWAP1 SWAP2 MUL ADD DUP1 SLOAD PUSH1 0x1 DUP3 ADD SLOAD PUSH1 0x2 DUP4 ADD SLOAD PUSH1 0x3 DUP5 ADD DUP1 SLOAD SWAP4 SWAP6 POP SWAP2 SWAP4 PUSH1 0x1 PUSH1 0x1 PUSH1 0xA0 SHL SUB SWAP1 SWAP2 AND SWAP3 SWAP1 SWAP2 SWAP1 PUSH2 0xBA5 SWAP1 PUSH2 0x4EAF JUMP JUMPDEST DUP1 PUSH1 0x1F ADD PUSH1 0x20 DUP1 SWAP2 DIV MUL PUSH1 0x20 ADD PUSH1 0x40 MLOAD SWAP1 DUP2 ADD PUSH1 0x40 MSTORE DUP1 SWAP3 SWAP2 SWAP1 DUP2 DUP2 MSTORE PUSH1 0x20 ADD DUP3 DUP1 SLOAD PUSH2 0xBD1 SWAP1 PUSH2 0x4EAF JUMP JUMPDEST DUP1 ISZERO PUSH2 0xC1E JUMPI DUP1 PUSH1 0x1F LT PUSH2 0xBF3 JUMPI PUSH2 0x100 DUP1 DUP4 SLOAD DIV MUL DUP4 MSTORE SWAP2 PUSH1 0x20 ADD SWAP2 PUSH2 0xC1E JUMP JUMPDEST DUP3 ADD SWAP2 SWAP1 PUSH1 0x0 MSTORE PUSH1 0x20 PUSH1 0x0 KECCAK256 SWAP1 JUMPDEST DUP2 SLOAD DUP2 MSTORE SWAP1 PUSH1 0x1 ADD SWAP1 PUSH1 0x20 ADD DUP1 DUP4 GT PUSH2 0xC01 JUMPI DUP3 SWAP1 SUB PUSH1 0x1F AND DUP3 ADD SWAP2 JUMPDEST POP POP POP POP POP SWAP1 DUP1 PUSH1 0x4 ADD DUP1 SLOAD PUSH2 0xC33 SWAP1 PUSH2 0x4EAF JUMP JUMPDEST DUP1 PUSH1 0x1F ADD PUSH1 0x20 DUP1 SWAP2 DIV MUL PUSH1 0x20 ADD PUSH1 0x40 MLOAD SWAP1 DUP2 ADD PUSH1 0x40 MSTORE DUP1 SWAP3 SWAP2 SWAP1 DUP2 DUP2 MSTORE PUSH1 0x20 ADD DUP3 DUP1 SLOAD PUSH2 0xC5F SWAP1 PUSH2 0x4EAF JUMP JUMPDEST DUP1 ISZERO PUSH2 0xCAC JUMPI DUP1 PUSH1 0x1F LT PUSH2 0xC81 JUMPI PUSH2 0x100 DUP1 DUP4 SLOAD DIV MUL DUP4 MSTORE SWAP2 PUSH1 0x20 ADD SWAP2 PUSH2 0xCAC JUMP JUMPDEST DUP3 ADD SWAP2 SWAP1 PUSH1 0x0 MSTORE PUSH1 0x20 PUSH1 0x0 KECCAK256 SWAP1 JUMPDEST DUP2 SLOAD DUP2 MSTORE SWAP1 PUSH1 0x1 ADD SWAP1 PUSH1 0x20 ADD DUP1 DUP4 GT PUSH2 0xC8F JUMPI DUP3 SWAP1 SUB PUSH1 0x1F AND DUP3 ADD SWAP2 JUMPDEST POP POP POP POP PUSH1 0x5 DUP4 ADD SLOAD PUSH1 0x6 DUP5 ADD SLOAD PUSH1 0x7 DUP6 ADD SLOAD PUSH1 0x8 SWAP1 SWAP6 ADD SLOAD SWAP4 SWAP5 SWAP2 SWAP4 SWAP1 SWAP3 POP PUSH1 0xFF DUP1 DUP3 AND SWAP2 PUSH2 0x100 DUP2 DIV DUP3 AND SWAP2 PUSH3 0x10000 SWAP1 SWAP2 DIV AND DUP12 JUMP JUMPDEST PUSH1 0x15 SLOAD PUSH2 0xCF0 PUSH2 0x413D JUMP JUMPDEST DUP2 DUP2 MSTORE PUSH1 0x20 DUP2 ADD DUP10 SWAP1 MSTORE PUSH1 0x1 PUSH1 0x1 PUSH1 0xA0 SHL SUB DUP9 AND PUSH1 0x40 DUP3 ADD MSTORE PUSH1 0x60 DUP2 ADD DUP8 SWAP1 MSTORE PUSH1 0x80 DUP2 ADD DUP7 SWAP1 MSTORE PUSH1 0xA0 DUP2 ADD DUP6 SWAP1 MSTORE PUSH1 0xC0 DUP2 ADD DUP5 SWAP1 MSTORE PUSH1 0x1 PUSH2 0x140 DUP3 ADD MSTORE PUSH1 0x2 SLOAD PUSH1 0x0 SWAP1 PUSH2 0xD3D SWAP1 DUP6 PUSH2 0x4EFF JUMP JUMPDEST PUSH1 0xE0 DUP4 ADD DUP2 SWAP1 MSTORE PUSH1 0x5 DUP1 SLOAD PUSH1 0x1 DUP2 ADD DUP3 SSTORE PUSH1 0x0 SWAP2 SWAP1 SWAP2 MSTORE DUP4 MLOAD PUSH1 0x9 SWAP1 SWAP2 MUL PUSH32 0x36B6384B5ECA791C62761152D0C79BB0604C104A5FB6F4EB0703F3154BB3DB0 DUP2 ADD SWAP2 DUP3 SSTORE PUSH1 0x20 DUP1 DUP7 ADD MLOAD PUSH32 0x36B6384B5ECA791C62761152D0C79BB0604C104A5FB6F4EB0703F3154BB3DB1 DUP4 ADD SSTORE PUSH1 0x40 DUP7 ADD MLOAD PUSH32 0x36B6384B5ECA791C62761152D0C79BB0604C104A5FB6F4EB0703F3154BB3DB2 DUP4 ADD DUP1 SLOAD PUSH1 0x1 PUSH1 0x1 PUSH1 0xA0 SHL SUB SWAP1 SWAP3 AND PUSH1 0x1 PUSH1 0x1 PUSH1 0xA0 SHL SUB NOT SWAP1 SWAP3 AND SWAP2 SWAP1 SWAP2 OR SWAP1 SSTORE PUSH1 0x60 DUP7 ADD MLOAD DUP1 MLOAD SWAP5 SWAP6 POP DUP7 SWAP5 PUSH2 0xE2F SWAP4 PUSH32 0x36B6384B5ECA791C62761152D0C79BB0604C104A5FB6F4EB0703F3154BB3DB3 ADD SWAP3 SWAP2 SWAP1 SWAP2 ADD SWAP1 PUSH2 0x41A6 JUMP JUMPDEST POP PUSH1 0x80 DUP3 ADD MLOAD DUP1 MLOAD PUSH2 0xE4B SWAP2 PUSH1 0x4 DUP5 ADD SWAP2 PUSH1 0x20 SWAP1 SWAP2 ADD SWAP1 PUSH2 0x41A6 JUMP JUMPDEST POP PUSH1 0xA0 DUP3 ADD MLOAD PUSH1 0x5 DUP3 ADD SSTORE PUSH1 0xC0 DUP3 ADD MLOAD PUSH1 0x6 DUP3 ADD SSTORE PUSH1 0xE0 DUP3 ADD MLOAD PUSH1 0x7 DUP3 ADD SSTORE PUSH2 0x100 DUP1 DUP4 ADD MLOAD PUSH1 0x8 SWAP1 SWAP3 ADD DUP1 SLOAD PUSH2 0x120 DUP6 ADD MLOAD PUSH2 0x140 SWAP1 SWAP6 ADD MLOAD PUSH2 0xFFFF NOT SWAP1 SWAP2 AND SWAP4 ISZERO ISZERO PUSH2 0xFF00 NOT AND SWAP4 SWAP1 SWAP4 OR SWAP4 ISZERO ISZERO SWAP1 SWAP2 MUL SWAP3 SWAP1 SWAP3 OR PUSH3 0xFF0000 NOT AND PUSH3 0x10000 SWAP2 ISZERO ISZERO SWAP2 SWAP1 SWAP2 MUL OR SWAP1 SSTORE PUSH1 0x1 PUSH1 0x1 PUSH1 0xA0 SHL SUB DUP10 AND PUSH1 0x0 SWAP1 DUP2 MSTORE PUSH1 0x4 PUSH1 0x20 MSTORE PUSH1 0x40 DUP2 KECCAK256 SLOAD SWAP1 PUSH2 0xEDB DUP3 PUSH1 0x1 PUSH2 0x4F1E JUMP JUMPDEST PUSH1 0x1 PUSH1 0x1 PUSH1 0xA0 SHL SUB DUP13 AND PUSH1 0x0 SWAP1 DUP2 MSTORE PUSH1 0x4 PUSH1 0x20 MSTORE PUSH1 0x40 DUP2 KECCAK256 DUP3 SWAP1 SSTORE PUSH1 0x15 DUP1 SLOAD SWAP3 SWAP4 POP SWAP1 PUSH2 0xF07 DUP4 PUSH2 0x4F36 JUMP JUMPDEST SWAP2 SWAP1 POP SSTORE POP POP POP POP POP POP POP POP POP POP POP POP POP JUMP JUMPDEST PUSH1 0x0 PUSH2 0xF25 DUP6 PUSH2 0x20E8 JUMP JUMPDEST SWAP1 POP DUP1 PUSH2 0x100 ADD MLOAD ISZERO PUSH2 0xF37 JUMPI PUSH1 0x0 DUP1 REVERT JUMPDEST PUSH1 0x0 DUP6 DUP2 MSTORE PUSH1 0x12 PUSH1 0x20 SWAP1 DUP2 MSTORE PUSH1 0x40 DUP1 DUP4 KECCAK256 PUSH1 0x1 PUSH1 0x1 PUSH1 0xA0 SHL SUB DUP8 AND DUP5 MSTORE SWAP1 SWAP2 MSTORE SWAP1 KECCAK256 SLOAD PUSH1 0xFF AND ISZERO PUSH2 0xF67 JUMPI PUSH1 0x0 DUP1 REVERT JUMPDEST PUSH1 0x17 SLOAD PUSH2 0xF72 PUSH2 0x422A JUMP JUMPDEST DUP2 DUP2 MSTORE PUSH1 0x20 DUP1 DUP3 ADD DUP8 DUP2 MSTORE PUSH1 0x1 PUSH1 0x1 PUSH1 0xA0 SHL SUB DUP8 DUP2 AND PUSH1 0x40 DUP6 ADD SWAP1 DUP2 MSTORE PUSH1 0x60 DUP6 ADD DUP12 DUP2 MSTORE PUSH1 0x80 DUP7 ADD DUP10 DUP2 MSTORE PUSH1 0x1 PUSH1 0xC0 DUP9 ADD DUP2 SWAP1 MSTORE PUSH1 0x9 DUP1 SLOAD SWAP2 DUP3 ADD DUP2 SSTORE PUSH1 0x0 MSTORE DUP8 MLOAD PUSH32 0x6E1540171B6C0C960B71A7020D9F60077F6AF931A8BBF590DA0223DACF75C7AF PUSH1 0x6 SWAP1 SWAP3 MUL SWAP2 DUP3 ADD SWAP1 DUP2 SSTORE SWAP6 MLOAD PUSH32 0x6E1540171B6C0C960B71A7020D9F60077F6AF931A8BBF590DA0223DACF75C7B0 DUP3 ADD SSTORE SWAP3 MLOAD PUSH32 0x6E1540171B6C0C960B71A7020D9F60077F6AF931A8BBF590DA0223DACF75C7B1 DUP5 ADD DUP1 SLOAD PUSH1 0x1 PUSH1 0x1 PUSH1 0xA0 SHL SUB NOT AND SWAP2 SWAP1 SWAP6 AND OR SWAP1 SWAP4 SSTORE MLOAD PUSH32 0x6E1540171B6C0C960B71A7020D9F60077F6AF931A8BBF590DA0223DACF75C7B2 DUP3 ADD SSTORE SWAP1 MLOAD DUP1 MLOAD DUP6 SWAP5 PUSH2 0x1098 SWAP4 PUSH32 0x6E1540171B6C0C960B71A7020D9F60077F6AF931A8BBF590DA0223DACF75C7B3 ADD SWAP3 ADD SWAP1 PUSH2 0x41A6 JUMP JUMPDEST POP PUSH1 0xA0 DUP3 ADD MLOAD PUSH1 0x5 SWAP1 SWAP2 ADD DUP1 SLOAD PUSH1 0xC0 SWAP1 SWAP4 ADD MLOAD ISZERO ISZERO PUSH2 0x100 MUL PUSH2 0xFF00 NOT SWAP3 ISZERO ISZERO SWAP3 SWAP1 SWAP3 AND PUSH2 0xFFFF NOT SWAP1 SWAP4 AND SWAP3 SWAP1 SWAP3 OR OR SWAP1 SSTORE PUSH1 0x0 DUP8 DUP2 MSTORE PUSH1 0x6 PUSH1 0x20 MSTORE PUSH1 0x40 DUP2 KECCAK256 SLOAD SWAP1 PUSH2 0x10E5 DUP3 PUSH1 0x1 PUSH2 0x4F1E JUMP JUMPDEST PUSH1 0x0 DUP11 DUP2 MSTORE PUSH1 0x6 PUSH1 0x20 SWAP1 DUP2 MSTORE PUSH1 0x40 DUP1 DUP4 KECCAK256 DUP5 SWAP1 SSTORE PUSH1 0x1 PUSH1 0x1 PUSH1 0xA0 SHL SUB DUP12 AND DUP4 MSTORE PUSH1 0xA SWAP1 SWAP2 MSTORE DUP2 KECCAK256 SLOAD SWAP2 SWAP3 POP PUSH2 0x111B DUP3 PUSH1 0x1 PUSH2 0x4F1E JUMP JUMPDEST PUSH1 0x1 PUSH1 0x1 PUSH1 0xA0 SHL SUB DUP11 AND PUSH1 0x0 SWAP1 DUP2 MSTORE PUSH1 0xA PUSH1 0x20 MSTORE PUSH1 0x40 DUP2 KECCAK256 DUP3 SWAP1 SSTORE PUSH1 0x17 DUP1 SLOAD SWAP3 SWAP4 POP SWAP1 PUSH2 0x1147 DUP4 PUSH2 0x4F36 JUMP JUMPDEST SWAP2 SWAP1 POP SSTORE POP DUP7 PUSH1 0xA0 ADD MLOAD DUP4 SUB PUSH2 0x1160 JUMPI PUSH2 0x1160 DUP12 PUSH2 0x3B83 JUMP JUMPDEST POP POP POP POP POP POP POP POP POP POP POP JUMP JUMPDEST PUSH2 0x1175 PUSH2 0x422A JUMP JUMPDEST PUSH1 0x9 DUP3 DUP2 SLOAD DUP2 LT PUSH2 0x1188 JUMPI PUSH2 0x1188 PUSH2 0x4F4F JUMP JUMPDEST SWAP1 PUSH1 0x0 MSTORE PUSH1 0x20 PUSH1 0x0 KECCAK256 SWAP1 PUSH1 0x6 MUL ADD PUSH1 0x40 MLOAD DUP1 PUSH1 0xE0 ADD PUSH1 0x40 MSTORE SWAP1 DUP2 PUSH1 0x0 DUP3 ADD SLOAD DUP2 MSTORE PUSH1 0x20 ADD PUSH1 0x1 DUP3 ADD SLOAD DUP2 MSTORE PUSH1 0x20 ADD PUSH1 0x2 DUP3 ADD PUSH1 0x0 SWAP1 SLOAD SWAP1 PUSH2 0x100 EXP SWAP1 DIV PUSH1 0x1 PUSH1 0x1 PUSH1 0xA0 SHL SUB AND PUSH1 0x1 PUSH1 0x1 PUSH1 0xA0 SHL SUB AND PUSH1 0x1 PUSH1 0x1 PUSH1 0xA0 SHL SUB AND DUP2 MSTORE PUSH1 0x20 ADD PUSH1 0x3 DUP3 ADD SLOAD DUP2 MSTORE PUSH1 0x20 ADD PUSH1 0x4 DUP3 ADD DUP1 SLOAD PUSH2 0x11FE SWAP1 PUSH2 0x4EAF JUMP JUMPDEST DUP1 PUSH1 0x1F ADD PUSH1 0x20 DUP1 SWAP2 DIV MUL PUSH1 0x20 ADD PUSH1 0x40 MLOAD SWAP1 DUP2 ADD PUSH1 0x40 MSTORE DUP1 SWAP3 SWAP2 SWAP1 DUP2 DUP2 MSTORE PUSH1 0x20 ADD DUP3 DUP1 SLOAD PUSH2 0x122A SWAP1 PUSH2 0x4EAF JUMP JUMPDEST DUP1 ISZERO PUSH2 0x1277 JUMPI DUP1 PUSH1 0x1F LT PUSH2 0x124C JUMPI PUSH2 0x100 DUP1 DUP4 SLOAD DIV MUL DUP4 MSTORE SWAP2 PUSH1 0x20 ADD SWAP2 PUSH2 0x1277 JUMP JUMPDEST DUP3 ADD SWAP2 SWAP1 PUSH1 0x0 MSTORE PUSH1 0x20 PUSH1 0x0 KECCAK256 SWAP1 JUMPDEST DUP2 SLOAD DUP2 MSTORE SWAP1 PUSH1 0x1 ADD SWAP1 PUSH1 0x20 ADD DUP1 DUP4 GT PUSH2 0x125A JUMPI DUP3 SWAP1 SUB PUSH1 0x1F AND DUP3 ADD SWAP2 JUMPDEST POP POP POP SWAP2 DUP4 MSTORE POP POP PUSH1 0x5 SWAP2 SWAP1 SWAP2 ADD SLOAD PUSH1 0xFF DUP1 DUP3 AND ISZERO ISZERO PUSH1 0x20 DUP5 ADD MSTORE PUSH2 0x100 SWAP1 SWAP2 DIV AND ISZERO ISZERO PUSH1 0x40 SWAP1 SWAP2 ADD MSTORE SWAP3 SWAP2 POP POP JUMP JUMPDEST PUSH1 0x11 PUSH1 0x20 MSTORE DUP2 PUSH1 0x0 MSTORE PUSH1 0x40 PUSH1 0x0 KECCAK256 DUP2 DUP2 SLOAD DUP2 LT PUSH2 0x12C3 JUMPI PUSH1 0x0 DUP1 REVERT JUMPDEST PUSH1 0x0 SWAP2 DUP3 MSTORE PUSH1 0x20 SWAP1 SWAP2 KECCAK256 PUSH1 0x6 SWAP1 SWAP2 MUL ADD DUP1 SLOAD PUSH1 0x1 DUP3 ADD SLOAD PUSH1 0x2 DUP4 ADD SLOAD PUSH1 0x3 DUP5 ADD SLOAD PUSH1 0x4 DUP6 ADD SLOAD PUSH1 0x5 SWAP1 SWAP6 ADD SLOAD SWAP4 SWAP7 POP SWAP2 SWAP5 POP PUSH1 0x1 PUSH1 0x1 PUSH1 0xA0 SHL SUB AND SWAP3 SWAP1 SWAP2 PUSH1 0xFF AND DUP7 JUMP JUMPDEST PUSH1 0x60 PUSH1 0x5 DUP1 SLOAD DUP1 PUSH1 0x20 MUL PUSH1 0x20 ADD PUSH1 0x40 MLOAD SWAP1 DUP2 ADD PUSH1 0x40 MSTORE DUP1 SWAP3 SWAP2 SWAP1 DUP2 DUP2 MSTORE PUSH1 0x20 ADD PUSH1 0x0 SWAP1 JUMPDEST DUP3 DUP3 LT ISZERO PUSH2 0x14FF JUMPI PUSH1 0x0 DUP5 DUP2 MSTORE PUSH1 0x20 SWAP1 DUP2 SWAP1 KECCAK256 PUSH1 0x40 DUP1 MLOAD PUSH2 0x160 DUP2 ADD DUP3 MSTORE PUSH1 0x9 DUP7 MUL SWAP1 SWAP3 ADD DUP1 SLOAD DUP4 MSTORE PUSH1 0x1 DUP2 ADD SLOAD SWAP4 DUP4 ADD SWAP4 SWAP1 SWAP4 MSTORE PUSH1 0x2 DUP4 ADD SLOAD PUSH1 0x1 PUSH1 0x1 PUSH1 0xA0 SHL SUB AND SWAP1 DUP3 ADD MSTORE PUSH1 0x3 DUP3 ADD DUP1 SLOAD SWAP2 SWAP3 SWAP2 PUSH1 0x60 DUP5 ADD SWAP2 SWAP1 PUSH2 0x138A SWAP1 PUSH2 0x4EAF JUMP JUMPDEST DUP1 PUSH1 0x1F ADD PUSH1 0x20 DUP1 SWAP2 DIV MUL PUSH1 0x20 ADD PUSH1 0x40 MLOAD SWAP1 DUP2 ADD PUSH1 0x40 MSTORE DUP1 SWAP3 SWAP2 SWAP1 DUP2 DUP2 MSTORE PUSH1 0x20 ADD DUP3 DUP1 SLOAD PUSH2 0x13B6 SWAP1 PUSH2 0x4EAF JUMP JUMPDEST DUP1 ISZERO PUSH2 0x1403 JUMPI DUP1 PUSH1 0x1F LT PUSH2 0x13D8 JUMPI PUSH2 0x100 DUP1 DUP4 SLOAD DIV MUL DUP4 MSTORE SWAP2 PUSH1 0x20 ADD SWAP2 PUSH2 0x1403 JUMP JUMPDEST DUP3 ADD SWAP2 SWAP1 PUSH1 0x0 MSTORE PUSH1 0x20 PUSH1 0x0 KECCAK256 SWAP1 JUMPDEST DUP2 SLOAD DUP2 MSTORE SWAP1 PUSH1 0x1 ADD SWAP1 PUSH1 0x20 ADD DUP1 DUP4 GT PUSH2 0x13E6 JUMPI DUP3 SWAP1 SUB PUSH1 0x1F AND DUP3 ADD SWAP2 JUMPDEST POP POP POP POP POP DUP2 MSTORE PUSH1 0x20 ADD PUSH1 0x4 DUP3 ADD DUP1 SLOAD PUSH2 0x141C SWAP1 PUSH2 0x4EAF JUMP JUMPDEST DUP1 PUSH1 0x1F ADD PUSH1 0x20 DUP1 SWAP2 DIV MUL PUSH1 0x20 ADD PUSH1 0x40 MLOAD SWAP1 DUP2 ADD PUSH1 0x40 MSTORE DUP1 SWAP3 SWAP2 SWAP1 DUP2 DUP2 MSTORE PUSH1 0x20 ADD DUP3 DUP1 SLOAD PUSH2 0x1448 SWAP1 PUSH2 0x4EAF JUMP JUMPDEST DUP1 ISZERO PUSH2 0x1495 JUMPI DUP1 PUSH1 0x1F LT PUSH2 0x146A JUMPI PUSH2 0x100 DUP1 DUP4 SLOAD DIV MUL DUP4 MSTORE SWAP2 PUSH1 0x20 ADD SWAP2 PUSH2 0x1495 JUMP JUMPDEST DUP3 ADD SWAP2 SWAP1 PUSH1 0x0 MSTORE PUSH1 0x20 PUSH1 0x0 KECCAK256 SWAP1 JUMPDEST DUP2 SLOAD DUP2 MSTORE SWAP1 PUSH1 0x1 ADD SWAP1 PUSH1 0x20 ADD DUP1 DUP4 GT PUSH2 0x1478 JUMPI DUP3 SWAP1 SUB PUSH1 0x1F AND DUP3 ADD SWAP2 JUMPDEST POP POP POP SWAP2 DUP4 MSTORE POP POP PUSH1 0x5 DUP3 ADD SLOAD PUSH1 0x20 DUP1 DUP4 ADD SWAP2 SWAP1 SWAP2 MSTORE PUSH1 0x6 DUP4 ADD SLOAD PUSH1 0x40 DUP4 ADD MSTORE PUSH1 0x7 DUP4 ADD SLOAD PUSH1 0x60 DUP4 ADD MSTORE PUSH1 0x8 SWAP1 SWAP3 ADD SLOAD PUSH1 0xFF DUP1 DUP3 AND ISZERO ISZERO PUSH1 0x80 DUP5 ADD MSTORE PUSH2 0x100 DUP3 DIV DUP2 AND ISZERO ISZERO PUSH1 0xA0 DUP5 ADD MSTORE PUSH3 0x10000 SWAP1 SWAP2 DIV AND ISZERO ISZERO PUSH1 0xC0 SWAP1 SWAP2 ADD MSTORE SWAP1 DUP3 MSTORE PUSH1 0x1 SWAP3 SWAP1 SWAP3 ADD SWAP2 ADD PUSH2 0x132B JUMP JUMPDEST POP POP POP POP SWAP1 POP SWAP1 JUMP JUMPDEST PUSH1 0x1 PUSH1 0x1 PUSH1 0xA0 SHL SUB DUP2 AND PUSH1 0x0 SWAP1 DUP2 MSTORE PUSH1 0x11 PUSH1 0x20 SWAP1 DUP2 MSTORE PUSH1 0x40 DUP1 DUP4 KECCAK256 DUP1 SLOAD DUP3 MLOAD DUP2 DUP6 MUL DUP2 ADD DUP6 ADD SWAP1 SWAP4 MSTORE DUP1 DUP4 MSTORE DUP5 SWAP4 DUP5 SWAP1 DUP5 ADD JUMPDEST DUP3 DUP3 LT ISZERO PUSH2 0x15B1 JUMPI PUSH1 0x0 DUP5 DUP2 MSTORE PUSH1 0x20 SWAP1 DUP2 SWAP1 KECCAK256 PUSH1 0x40 DUP1 MLOAD PUSH1 0xC0 DUP2 ADD DUP3 MSTORE PUSH1 0x6 DUP7 MUL SWAP1 SWAP3 ADD DUP1 SLOAD DUP4 MSTORE PUSH1 0x1 DUP1 DUP3 ADD SLOAD DUP5 DUP7 ADD MSTORE PUSH1 0x2 DUP3 ADD SLOAD PUSH1 0x1 PUSH1 0x1 PUSH1 0xA0 SHL SUB AND SWAP3 DUP5 ADD SWAP3 SWAP1 SWAP3 MSTORE PUSH1 0x3 DUP2 ADD SLOAD PUSH1 0x60 DUP5 ADD MSTORE PUSH1 0x4 DUP2 ADD SLOAD PUSH1 0x80 DUP5 ADD MSTORE PUSH1 0x5 ADD SLOAD PUSH1 0xFF AND ISZERO ISZERO PUSH1 0xA0 DUP4 ADD MSTORE SWAP1 DUP4 MSTORE SWAP1 SWAP3 ADD SWAP2 ADD PUSH2 0x153B JUMP JUMPDEST POP POP POP POP SWAP1 POP PUSH1 0x0 DUP1 JUMPDEST DUP3 MLOAD DUP2 LT ISZERO PUSH2 0x1639 JUMPI PUSH1 0x0 DUP4 DUP3 DUP2 MLOAD DUP2 LT PUSH2 0x15D8 JUMPI PUSH2 0x15D8 PUSH2 0x4F4F JUMP JUMPDEST PUSH1 0x20 MUL PUSH1 0x20 ADD ADD MLOAD SWAP1 POP DUP7 DUP2 PUSH1 0x20 ADD MLOAD EQ DUP1 ISZERO PUSH2 0x160A JUMPI POP DUP6 PUSH1 0x1 PUSH1 0x1 PUSH1 0xA0 SHL SUB AND DUP2 PUSH1 0x40 ADD MLOAD PUSH1 0x1 PUSH1 0x1 PUSH1 0xA0 SHL SUB AND EQ JUMPDEST ISZERO PUSH2 0x1626 JUMPI PUSH1 0x80 DUP2 ADD MLOAD PUSH2 0x161E SWAP1 DUP5 PUSH2 0x4F1E JUMP JUMPDEST SWAP3 POP POP PUSH2 0x1639 JUMP JUMPDEST POP DUP1 PUSH2 0x1631 DUP2 PUSH2 0x4F36 JUMP JUMPDEST SWAP2 POP POP PUSH2 0x15BB JUMP JUMPDEST POP SWAP5 SWAP4 POP POP POP POP JUMP JUMPDEST PUSH1 0x0 PUSH1 0x9 DUP4 DUP2 SLOAD DUP2 LT PUSH2 0x1657 JUMPI PUSH2 0x1657 PUSH2 0x4F4F JUMP JUMPDEST SWAP1 PUSH1 0x0 MSTORE PUSH1 0x20 PUSH1 0x0 KECCAK256 SWAP1 PUSH1 0x6 MUL ADD PUSH1 0x40 MLOAD DUP1 PUSH1 0xE0 ADD PUSH1 0x40 MSTORE SWAP1 DUP2 PUSH1 0x0 DUP3 ADD SLOAD DUP2 MSTORE PUSH1 0x20 ADD PUSH1 0x1 DUP3 ADD SLOAD DUP2 MSTORE PUSH1 0x20 ADD PUSH1 0x2 DUP3 ADD PUSH1 0x0 SWAP1 SLOAD SWAP1 PUSH2 0x100 EXP SWAP1 DIV PUSH1 0x1 PUSH1 0x1 PUSH1 0xA0 SHL SUB AND PUSH1 0x1 PUSH1 0x1 PUSH1 0xA0 SHL SUB AND PUSH1 0x1 PUSH1 0x1 PUSH1 0xA0 SHL SUB AND DUP2 MSTORE PUSH1 0x20 ADD PUSH1 0x3 DUP3 ADD SLOAD DUP2 MSTORE PUSH1 0x20 ADD PUSH1 0x4 DUP3 ADD DUP1 SLOAD PUSH2 0x16CD SWAP1 PUSH2 0x4EAF JUMP JUMPDEST DUP1 PUSH1 0x1F ADD PUSH1 0x20 DUP1 SWAP2 DIV MUL PUSH1 0x20 ADD PUSH1 0x40 MLOAD SWAP1 DUP2 ADD PUSH1 0x40 MSTORE DUP1 SWAP3 SWAP2 SWAP1 DUP2 DUP2 MSTORE PUSH1 0x20 ADD DUP3 DUP1 SLOAD PUSH2 0x16F9 SWAP1 PUSH2 0x4EAF JUMP JUMPDEST DUP1 ISZERO PUSH2 0x1746 JUMPI DUP1 PUSH1 0x1F LT PUSH2 0x171B JUMPI PUSH2 0x100 DUP1 DUP4 SLOAD DIV MUL DUP4 MSTORE SWAP2 PUSH1 0x20 ADD SWAP2 PUSH2 0x1746 JUMP JUMPDEST DUP3 ADD SWAP2 SWAP1 PUSH1 0x0 MSTORE PUSH1 0x20 PUSH1 0x0 KECCAK256 SWAP1 JUMPDEST DUP2 SLOAD DUP2 MSTORE SWAP1 PUSH1 0x1 ADD SWAP1 PUSH1 0x20 ADD DUP1 DUP4 GT PUSH2 0x1729 JUMPI DUP3 SWAP1 SUB PUSH1 0x1F AND DUP3 ADD SWAP2 JUMPDEST POP POP POP SWAP2 DUP4 MSTORE POP POP PUSH1 0x5 SWAP2 SWAP1 SWAP2 ADD SLOAD PUSH1 0xFF DUP1 DUP3 AND ISZERO ISZERO PUSH1 0x20 DUP5 ADD MSTORE PUSH2 0x100 SWAP1 SWAP2 DIV AND ISZERO ISZERO PUSH1 0x40 SWAP1 SWAP2 ADD MSTORE PUSH1 0x60 DUP2 ADD MLOAD SWAP1 SWAP2 POP DUP3 SWAP1 SUB PUSH2 0x3A4 JUMPI PUSH1 0x1 PUSH1 0xA0 DUP3 ADD MSTORE PUSH1 0x9 DUP1 SLOAD DUP3 SWAP2 SWAP1 DUP6 SWAP1 DUP2 LT PUSH2 0x179D JUMPI PUSH2 0x179D PUSH2 0x4F4F JUMP JUMPDEST PUSH1 0x0 SWAP2 DUP3 MSTORE PUSH1 0x20 SWAP2 DUP3 SWAP1 KECCAK256 DUP4 MLOAD PUSH1 0x6 SWAP3 SWAP1 SWAP3 MUL ADD SWAP1 DUP2 SSTORE DUP3 DUP3 ADD MLOAD PUSH1 0x1 DUP3 ADD SSTORE PUSH1 0x40 DUP4 ADD MLOAD PUSH1 0x2 DUP3 ADD DUP1 SLOAD PUSH1 0x1 PUSH1 0x1 PUSH1 0xA0 SHL SUB NOT AND PUSH1 0x1 PUSH1 0x1 PUSH1 0xA0 SHL SUB SWAP1 SWAP3 AND SWAP2 SWAP1 SWAP2 OR SWAP1 SSTORE PUSH1 0x60 DUP4 ADD MLOAD PUSH1 0x3 DUP3 ADD SSTORE PUSH1 0x80 DUP4 ADD MLOAD DUP1 MLOAD SWAP2 SWAP3 PUSH2 0x1808 SWAP3 PUSH1 0x4 DUP6 ADD SWAP3 SWAP1 SWAP2 ADD SWAP1 PUSH2 0x41A6 JUMP JUMPDEST POP PUSH1 0xA0 DUP3 ADD MLOAD PUSH1 0x5 SWAP1 SWAP2 ADD DUP1 SLOAD PUSH1 0xC0 SWAP1 SWAP4 ADD MLOAD ISZERO ISZERO PUSH2 0x100 MUL PUSH2 0xFF00 NOT SWAP3 ISZERO ISZERO SWAP3 SWAP1 SWAP3 AND PUSH2 0xFFFF NOT SWAP1 SWAP4 AND SWAP3 SWAP1 SWAP3 OR OR SWAP1 SSTORE POP POP POP JUMP JUMPDEST POP POP POP JUMP JUMPDEST PUSH1 0x3 PUSH1 0x20 MSTORE PUSH1 0x0 SWAP1 DUP2 MSTORE PUSH1 0x40 SWAP1 KECCAK256 DUP1 SLOAD PUSH1 0x1 DUP3 ADD SLOAD PUSH1 0x2 DUP4 ADD DUP1 SLOAD SWAP3 SWAP4 PUSH1 0x1 PUSH1 0x1 PUSH1 0xA0 SHL SUB SWAP1 SWAP3 AND SWAP3 PUSH2 0x1876 SWAP1 PUSH2 0x4EAF JUMP JUMPDEST DUP1 PUSH1 0x1F ADD PUSH1 0x20 DUP1 SWAP2 DIV MUL PUSH1 0x20 ADD PUSH1 0x40 MLOAD SWAP1 DUP2 ADD PUSH1 0x40 MSTORE DUP1 SWAP3 SWAP2 SWAP1 DUP2 DUP2 MSTORE PUSH1 0x20 ADD DUP3 DUP1 SLOAD PUSH2 0x18A2 SWAP1 PUSH2 0x4EAF JUMP JUMPDEST DUP1 ISZERO PUSH2 0x18EF JUMPI DUP1 PUSH1 0x1F LT PUSH2 0x18C4 JUMPI PUSH2 0x100 DUP1 DUP4 SLOAD DIV MUL DUP4 MSTORE SWAP2 PUSH1 0x20 ADD SWAP2 PUSH2 0x18EF JUMP JUMPDEST DUP3 ADD SWAP2 SWAP1 PUSH1 0x0 MSTORE PUSH1 0x20 PUSH1 0x0 KECCAK256 SWAP1 JUMPDEST DUP2 SLOAD DUP2 MSTORE SWAP1 PUSH1 0x1 ADD SWAP1 PUSH1 0x20 ADD DUP1 DUP4 GT PUSH2 0x18D2 JUMPI DUP3 SWAP1 SUB PUSH1 0x1F AND DUP3 ADD SWAP2 JUMPDEST POP POP POP POP POP SWAP1 DUP1 PUSH1 0x3 ADD DUP1 SLOAD PUSH2 0x1904 SWAP1 PUSH2 0x4EAF JUMP JUMPDEST DUP1 PUSH1 0x1F ADD PUSH1 0x20 DUP1 SWAP2 DIV MUL PUSH1 0x20 ADD PUSH1 0x40 MLOAD SWAP1 DUP2 ADD PUSH1 0x40 MSTORE DUP1 SWAP3 SWAP2 SWAP1 DUP2 DUP2 MSTORE PUSH1 0x20 ADD DUP3 DUP1 SLOAD PUSH2 0x1930 SWAP1 PUSH2 0x4EAF JUMP JUMPDEST DUP1 ISZERO PUSH2 0x197D JUMPI DUP1 PUSH1 0x1F LT PUSH2 0x1952 JUMPI PUSH2 0x100 DUP1 DUP4 SLOAD DIV MUL DUP4 MSTORE SWAP2 PUSH1 0x20 ADD SWAP2 PUSH2 0x197D JUMP JUMPDEST DUP3 ADD SWAP2 SWAP1 PUSH1 0x0 MSTORE PUSH1 0x20 PUSH1 0x0 KECCAK256 SWAP1 JUMPDEST DUP2 SLOAD DUP2 MSTORE SWAP1 PUSH1 0x1 ADD SWAP1 PUSH1 0x20 ADD DUP1 DUP4 GT PUSH2 0x1960 JUMPI DUP3 SWAP1 SUB PUSH1 0x1F AND DUP3 ADD SWAP2 JUMPDEST POP POP POP POP PUSH1 0x4 DUP4 ADD SLOAD PUSH1 0x5 SWAP1 SWAP4 ADD SLOAD SWAP2 SWAP3 SWAP2 PUSH1 0xFF AND SWAP1 POP DUP7 JUMP JUMPDEST PUSH2 0x199F PUSH2 0x4274 JUMP JUMPDEST PUSH1 0x1 PUSH1 0x1 PUSH1 0xA0 SHL SUB DUP1 DUP4 AND PUSH1 0x0 SWAP1 DUP2 MSTORE PUSH1 0x8 PUSH1 0x20 SWAP1 DUP2 MSTORE PUSH1 0x40 SWAP2 DUP3 SWAP1 KECCAK256 DUP3 MLOAD PUSH2 0x100 DUP2 ADD DUP5 MSTORE DUP2 SLOAD DUP2 MSTORE PUSH1 0x1 DUP3 ADD SLOAD SWAP3 DUP2 ADD SWAP3 SWAP1 SWAP3 MSTORE PUSH1 0x2 DUP2 ADD SLOAD SWAP1 SWAP4 AND SWAP2 DUP2 ADD SWAP2 SWAP1 SWAP2 MSTORE PUSH1 0x3 DUP3 ADD DUP1 SLOAD SWAP2 SWAP3 SWAP2 PUSH1 0x60 DUP5 ADD SWAP2 SWAP1 PUSH2 0x19FC SWAP1 PUSH2 0x4EAF JUMP JUMPDEST DUP1 PUSH1 0x1F ADD PUSH1 0x20 DUP1 SWAP2 DIV MUL PUSH1 0x20 ADD PUSH1 0x40 MLOAD SWAP1 DUP2 ADD PUSH1 0x40 MSTORE DUP1 SWAP3 SWAP2 SWAP1 DUP2 DUP2 MSTORE PUSH1 0x20 ADD DUP3 DUP1 SLOAD PUSH2 0x1A28 SWAP1 PUSH2 0x4EAF JUMP JUMPDEST DUP1 ISZERO PUSH2 0x1A75 JUMPI DUP1 PUSH1 0x1F LT PUSH2 0x1A4A JUMPI PUSH2 0x100 DUP1 DUP4 SLOAD DIV MUL DUP4 MSTORE SWAP2 PUSH1 0x20 ADD SWAP2 PUSH2 0x1A75 JUMP JUMPDEST DUP3 ADD SWAP2 SWAP1 PUSH1 0x0 MSTORE PUSH1 0x20 PUSH1 0x0 KECCAK256 SWAP1 JUMPDEST DUP2 SLOAD DUP2 MSTORE SWAP1 PUSH1 0x1 ADD SWAP1 PUSH1 0x20 ADD DUP1 DUP4 GT PUSH2 0x1A58 JUMPI DUP3 SWAP1 SUB PUSH1 0x1F AND DUP3 ADD SWAP2 JUMPDEST POP POP POP POP POP DUP2 MSTORE PUSH1 0x20 ADD PUSH1 0x4 DUP3 ADD DUP1 SLOAD PUSH2 0x1A8E SWAP1 PUSH2 0x4EAF JUMP JUMPDEST DUP1 PUSH1 0x1F ADD PUSH1 0x20 DUP1 SWAP2 DIV MUL PUSH1 0x20 ADD PUSH1 0x40 MLOAD SWAP1 DUP2 ADD PUSH1 0x40 MSTORE DUP1 SWAP3 SWAP2 SWAP1 DUP2 DUP2 MSTORE PUSH1 0x20 ADD DUP3 DUP1 SLOAD PUSH2 0x1ABA SWAP1 PUSH2 0x4EAF JUMP JUMPDEST DUP1 ISZERO PUSH2 0x1B07 JUMPI DUP1 PUSH1 0x1F LT PUSH2 0x1ADC JUMPI PUSH2 0x100 DUP1 DUP4 SLOAD DIV MUL DUP4 MSTORE SWAP2 PUSH1 0x20 ADD SWAP2 PUSH2 0x1B07 JUMP JUMPDEST DUP3 ADD SWAP2 SWAP1 PUSH1 0x0 MSTORE PUSH1 0x20 PUSH1 0x0 KECCAK256 SWAP1 JUMPDEST DUP2 SLOAD DUP2 MSTORE SWAP1 PUSH1 0x1 ADD SWAP1 PUSH1 0x20 ADD DUP1 DUP4 GT PUSH2 0x1AEA JUMPI DUP3 SWAP1 SUB PUSH1 0x1F AND DUP3 ADD SWAP2 JUMPDEST POP POP POP POP POP DUP2 MSTORE PUSH1 0x20 ADD PUSH1 0x5 DUP3 ADD DUP1 SLOAD PUSH2 0x1B20 SWAP1 PUSH2 0x4EAF JUMP JUMPDEST DUP1 PUSH1 0x1F ADD PUSH1 0x20 DUP1 SWAP2 DIV MUL PUSH1 0x20 ADD PUSH1 0x40 MLOAD SWAP1 DUP2 ADD PUSH1 0x40 MSTORE DUP1 SWAP3 SWAP2 SWAP1 DUP2 DUP2 MSTORE PUSH1 0x20 ADD DUP3 DUP1 SLOAD PUSH2 0x1B4C SWAP1 PUSH2 0x4EAF JUMP JUMPDEST DUP1 ISZERO PUSH2 0x1B99 JUMPI DUP1 PUSH1 0x1F LT PUSH2 0x1B6E JUMPI PUSH2 0x100 DUP1 DUP4 SLOAD DIV MUL DUP4 MSTORE SWAP2 PUSH1 0x20 ADD SWAP2 PUSH2 0x1B99 JUMP JUMPDEST DUP3 ADD SWAP2 SWAP1 PUSH1 0x0 MSTORE PUSH1 0x20 PUSH1 0x0 KECCAK256 SWAP1 JUMPDEST DUP2 SLOAD DUP2 MSTORE SWAP1 PUSH1 0x1 ADD SWAP1 PUSH1 0x20 ADD DUP1 DUP4 GT PUSH2 0x1B7C JUMPI DUP3 SWAP1 SUB PUSH1 0x1F AND DUP3 ADD SWAP2 JUMPDEST POP POP POP POP POP DUP2 MSTORE PUSH1 0x20 ADD PUSH1 0x6 DUP3 ADD DUP1 SLOAD PUSH2 0x1BB2 SWAP1 PUSH2 0x4EAF JUMP JUMPDEST DUP1 PUSH1 0x1F ADD PUSH1 0x20 DUP1 SWAP2 DIV MUL PUSH1 0x20 ADD PUSH1 0x40 MLOAD SWAP1 DUP2 ADD PUSH1 0x40 MSTORE DUP1 SWAP3 SWAP2 SWAP1 DUP2 DUP2 MSTORE PUSH1 0x20 ADD DUP3 DUP1 SLOAD PUSH2 0x1BDE SWAP1 PUSH2 0x4EAF JUMP JUMPDEST DUP1 ISZERO PUSH2 0x1C2B JUMPI DUP1 PUSH1 0x1F LT PUSH2 0x1C00 JUMPI PUSH2 0x100 DUP1 DUP4 SLOAD DIV MUL DUP4 MSTORE SWAP2 PUSH1 0x20 ADD SWAP2 PUSH2 0x1C2B JUMP JUMPDEST DUP3 ADD SWAP2 SWAP1 PUSH1 0x0 MSTORE PUSH1 0x20 PUSH1 0x0 KECCAK256 SWAP1 JUMPDEST DUP2 SLOAD DUP2 MSTORE SWAP1 PUSH1 0x1 ADD SWAP1 PUSH1 0x20 ADD DUP1 DUP4 GT PUSH2 0x1C0E JUMPI DUP3 SWAP1 SUB PUSH1 0x1F AND DUP3 ADD SWAP2 JUMPDEST POP POP POP SWAP2 DUP4 MSTORE POP POP PUSH1 0x7 SWAP2 SWAP1 SWAP2 ADD SLOAD PUSH1 0xFF AND ISZERO ISZERO PUSH1 0x20 SWAP1 SWAP2 ADD MSTORE SWAP3 SWAP2 POP POP JUMP JUMPDEST PUSH1 0x10 DUP2 DUP2 SLOAD DUP2 LT PUSH2 0x1C5B JUMPI PUSH1 0x0 DUP1 REVERT JUMPDEST PUSH1 0x0 SWAP2 DUP3 MSTORE PUSH1 0x20 SWAP1 SWAP2 KECCAK256 PUSH1 0x7 SWAP1 SWAP2 MUL ADD DUP1 SLOAD PUSH1 0x1 DUP3 ADD SLOAD PUSH1 0x2 DUP4 ADD SLOAD PUSH1 0x3 DUP5 ADD SLOAD PUSH1 0x4 DUP6 ADD SLOAD PUSH1 0x5 DUP7 ADD SLOAD PUSH1 0x6 SWAP1 SWAP7 ADD SLOAD SWAP5 SWAP7 POP SWAP3 SWAP5 SWAP2 SWAP4 SWAP1 SWAP3 PUSH1 0x1 PUSH1 0x1 PUSH1 0xA0 SHL SUB AND SWAP2 SWAP1 PUSH1 0xFF AND DUP8 JUMP JUMPDEST PUSH1 0x18 SLOAD PUSH2 0x1CB1 PUSH2 0x42C4 JUMP JUMPDEST DUP2 DUP2 MSTORE PUSH1 0x1 PUSH1 0x1 PUSH1 0xA0 SHL SUB DUP7 DUP2 AND PUSH1 0x20 DUP1 DUP5 ADD DUP3 DUP2 MSTORE PUSH1 0x40 DUP1 DUP7 ADD DUP11 DUP2 MSTORE PUSH1 0x60 DUP8 ADD DUP11 SWAP1 MSTORE PUSH1 0x80 DUP8 ADD DUP10 SWAP1 MSTORE PUSH1 0x1 PUSH1 0xA0 DUP9 ADD DUP2 SWAP1 MSTORE PUSH1 0x0 SWAP6 DUP7 MSTORE PUSH1 0xD DUP6 MSTORE SWAP2 SWAP1 SWAP5 KECCAK256 DUP7 MLOAD DUP2 SSTORE SWAP2 MLOAD SWAP1 DUP3 ADD DUP1 SLOAD PUSH1 0x1 PUSH1 0x1 PUSH1 0xA0 SHL SUB NOT AND SWAP2 SWAP1 SWAP6 AND OR SWAP1 SWAP4 SSTORE SWAP1 MLOAD DUP1 MLOAD DUP5 SWAP4 SWAP3 PUSH2 0x1D28 SWAP3 PUSH1 0x2 DUP6 ADD SWAP3 SWAP2 ADD SWAP1 PUSH2 0x41A6 JUMP JUMPDEST POP PUSH1 0x60 DUP3 ADD MLOAD DUP1 MLOAD PUSH2 0x1D44 SWAP2 PUSH1 0x3 DUP5 ADD SWAP2 PUSH1 0x20 SWAP1 SWAP2 ADD SWAP1 PUSH2 0x41A6 JUMP JUMPDEST POP PUSH1 0x80 DUP3 ADD MLOAD DUP1 MLOAD PUSH2 0x1D60 SWAP2 PUSH1 0x4 DUP5 ADD SWAP2 PUSH1 0x20 SWAP1 SWAP2 ADD SWAP1 PUSH2 0x41A6 JUMP JUMPDEST POP PUSH1 0xA0 SWAP2 SWAP1 SWAP2 ADD MLOAD PUSH1 0x5 SWAP1 SWAP2 ADD DUP1 SLOAD PUSH1 0xFF NOT AND SWAP2 ISZERO ISZERO SWAP2 SWAP1 SWAP2 OR SWAP1 SSTORE PUSH1 0x18 DUP1 SLOAD SWAP1 PUSH1 0x0 PUSH2 0x1D8C DUP4 PUSH2 0x4F36 JUMP JUMPDEST SWAP2 SWAP1 POP SSTORE POP POP POP POP POP POP POP JUMP JUMPDEST PUSH1 0x0 DUP1 PUSH2 0x1DA5 DUP4 PUSH2 0x20E8 JUMP JUMPDEST SWAP1 POP DUP1 PUSH1 0xC0 ADD MLOAD PUSH1 0x64 DUP3 PUSH1 0xE0 ADD MLOAD PUSH1 0xF PUSH2 0x1DBF SWAP2 SWAP1 PUSH2 0x4EFF JUMP JUMPDEST PUSH2 0x1DC9 SWAP2 SWAP1 PUSH2 0x4F65 JUMP JUMPDEST PUSH2 0x1DD3 SWAP2 SWAP1 PUSH2 0x4F65 JUMP JUMPDEST SWAP4 SWAP3 POP POP POP JUMP JUMPDEST PUSH2 0x1DE2 PUSH2 0x4305 JUMP JUMPDEST PUSH2 0x1DEA PUSH2 0x4305 JUMP JUMPDEST PUSH1 0x0 PUSH2 0x1DF5 DUP5 PUSH2 0x25EF JUMP JUMPDEST SWAP1 POP PUSH1 0x0 JUMPDEST PUSH1 0xE SLOAD DUP2 LT ISZERO PUSH2 0x1EAE JUMPI PUSH1 0x0 PUSH1 0xE DUP3 DUP2 SLOAD DUP2 LT PUSH2 0x1E19 JUMPI PUSH2 0x1E19 PUSH2 0x4F4F JUMP JUMPDEST PUSH1 0x0 SWAP2 DUP3 MSTORE PUSH1 0x20 SWAP2 DUP3 SWAP1 KECCAK256 PUSH1 0x40 DUP1 MLOAD PUSH1 0xC0 DUP2 ADD DUP3 MSTORE PUSH1 0x5 SWAP1 SWAP4 MUL SWAP1 SWAP2 ADD DUP1 SLOAD DUP4 MSTORE PUSH1 0x1 DUP2 ADD SLOAD SWAP4 DUP4 ADD SWAP4 SWAP1 SWAP4 MSTORE PUSH1 0x2 DUP4 ADD SLOAD SWAP1 DUP3 ADD MSTORE PUSH1 0x3 DUP3 ADD SLOAD PUSH1 0x60 DUP3 ADD DUP2 SWAP1 MSTORE PUSH1 0x4 SWAP1 SWAP3 ADD SLOAD PUSH1 0xFF DUP1 DUP3 AND ISZERO ISZERO PUSH1 0x80 DUP5 ADD MSTORE PUSH2 0x100 SWAP1 SWAP2 DIV AND ISZERO ISZERO PUSH1 0xA0 DUP3 ADD MSTORE SWAP2 POP DUP8 EQ DUP1 ISZERO PUSH2 0x1E8F JUMPI POP DUP3 MLOAD PUSH1 0x20 DUP3 ADD MLOAD EQ JUMPDEST ISZERO PUSH2 0x1E9B JUMPI SWAP3 POP PUSH2 0x1EAE JUMP JUMPDEST POP DUP1 PUSH2 0x1EA6 DUP2 PUSH2 0x4F36 JUMP JUMPDEST SWAP2 POP POP PUSH2 0x1DFA JUMP JUMPDEST POP SWAP1 SWAP5 SWAP4 POP POP POP POP JUMP JUMPDEST PUSH1 0x0 DUP2 DUP2 MSTORE PUSH1 0x6 PUSH1 0x20 MSTORE PUSH1 0x40 DUP2 KECCAK256 SLOAD PUSH1 0x60 SWAP2 DUP2 PUSH8 0xFFFFFFFFFFFFFFFF DUP2 GT ISZERO PUSH2 0x1EE3 JUMPI PUSH2 0x1EE3 PUSH2 0x44B5 JUMP JUMPDEST PUSH1 0x40 MLOAD SWAP1 DUP1 DUP3 MSTORE DUP1 PUSH1 0x20 MUL PUSH1 0x20 ADD DUP3 ADD PUSH1 0x40 MSTORE DUP1 ISZERO PUSH2 0x1F1C JUMPI DUP2 PUSH1 0x20 ADD JUMPDEST PUSH2 0x1F09 PUSH2 0x422A JUMP JUMPDEST DUP2 MSTORE PUSH1 0x20 ADD SWAP1 PUSH1 0x1 SWAP1 SUB SWAP1 DUP2 PUSH2 0x1F01 JUMPI SWAP1 POP JUMPDEST POP SWAP1 POP PUSH1 0x0 DUP1 JUMPDEST PUSH1 0x9 SLOAD DUP2 LT ISZERO PUSH2 0x1EAE JUMPI PUSH1 0x0 PUSH1 0x9 DUP3 DUP2 SLOAD DUP2 LT PUSH2 0x1F42 JUMPI PUSH2 0x1F42 PUSH2 0x4F4F JUMP JUMPDEST SWAP1 PUSH1 0x0 MSTORE PUSH1 0x20 PUSH1 0x0 KECCAK256 SWAP1 PUSH1 0x6 MUL ADD PUSH1 0x40 MLOAD DUP1 PUSH1 0xE0 ADD PUSH1 0x40 MSTORE SWAP1 DUP2 PUSH1 0x0 DUP3 ADD SLOAD DUP2 MSTORE PUSH1 0x20 ADD PUSH1 0x1 DUP3 ADD SLOAD DUP2 MSTORE PUSH1 0x20 ADD PUSH1 0x2 DUP3 ADD PUSH1 0x0 SWAP1 SLOAD SWAP1 PUSH2 0x100 EXP SWAP1 DIV PUSH1 0x1 PUSH1 0x1 PUSH1 0xA0 SHL SUB AND PUSH1 0x1 PUSH1 0x1 PUSH1 0xA0 SHL SUB AND PUSH1 0x1 PUSH1 0x1 PUSH1 0xA0 SHL SUB AND DUP2 MSTORE PUSH1 0x20 ADD PUSH1 0x3 DUP3 ADD SLOAD DUP2 MSTORE PUSH1 0x20 ADD PUSH1 0x4 DUP3 ADD DUP1 SLOAD PUSH2 0x1FB8 SWAP1 PUSH2 0x4EAF JUMP JUMPDEST DUP1 PUSH1 0x1F ADD PUSH1 0x20 DUP1 SWAP2 DIV MUL PUSH1 0x20 ADD PUSH1 0x40 MLOAD SWAP1 DUP2 ADD PUSH1 0x40 MSTORE DUP1 SWAP3 SWAP2 SWAP1 DUP2 DUP2 MSTORE PUSH1 0x20 ADD DUP3 DUP1 SLOAD PUSH2 0x1FE4 SWAP1 PUSH2 0x4EAF JUMP JUMPDEST DUP1 ISZERO PUSH2 0x2031 JUMPI DUP1 PUSH1 0x1F LT PUSH2 0x2006 JUMPI PUSH2 0x100 DUP1 DUP4 SLOAD DIV MUL DUP4 MSTORE SWAP2 PUSH1 0x20 ADD SWAP2 PUSH2 0x2031 JUMP JUMPDEST DUP3 ADD SWAP2 SWAP1 PUSH1 0x0 MSTORE PUSH1 0x20 PUSH1 0x0 KECCAK256 SWAP1 JUMPDEST DUP2 SLOAD DUP2 MSTORE SWAP1 PUSH1 0x1 ADD SWAP1 PUSH1 0x20 ADD DUP1 DUP4 GT PUSH2 0x2014 JUMPI DUP3 SWAP1 SUB PUSH1 0x1F AND DUP3 ADD SWAP2 JUMPDEST POP POP POP SWAP2 DUP4 MSTORE POP POP PUSH1 0x5 SWAP2 SWAP1 SWAP2 ADD SLOAD PUSH1 0xFF DUP1 DUP3 AND ISZERO ISZERO PUSH1 0x20 DUP5 ADD MSTORE PUSH2 0x100 SWAP1 SWAP2 DIV AND ISZERO ISZERO PUSH1 0x40 SWAP1 SWAP2 ADD MSTORE PUSH1 0x60 DUP2 ADD MLOAD SWAP1 SWAP2 POP DUP8 SWAP1 SUB PUSH2 0x20A3 JUMPI DUP1 DUP5 DUP5 DUP2 MLOAD DUP2 LT PUSH2 0x207D JUMPI PUSH2 0x207D PUSH2 0x4F4F JUMP JUMPDEST PUSH1 0x20 MUL PUSH1 0x20 ADD ADD DUP2 SWAP1 MSTORE POP DUP3 DUP1 PUSH2 0x2093 SWAP1 PUSH2 0x4F36 JUMP JUMPDEST SWAP4 POP POP DUP5 DUP4 SUB PUSH2 0x20A3 JUMPI POP PUSH2 0x1EAE JUMP JUMPDEST POP DUP1 PUSH2 0x20AE DUP2 PUSH2 0x4F36 JUMP JUMPDEST SWAP2 POP POP PUSH2 0x1F23 JUMP JUMPDEST PUSH2 0x20BE PUSH2 0x4274 JUMP JUMPDEST PUSH1 0x0 DUP3 DUP2 MSTORE PUSH1 0xC PUSH1 0x20 MSTORE PUSH1 0x40 DUP2 KECCAK256 SLOAD PUSH1 0x1 PUSH1 0x1 PUSH1 0xA0 SHL SUB AND SWAP1 PUSH2 0x20E0 DUP3 PUSH2 0x1997 JUMP JUMPDEST SWAP5 SWAP4 POP POP POP POP JUMP JUMPDEST PUSH2 0x20F0 PUSH2 0x413D JUMP JUMPDEST PUSH1 0x5 DUP3 DUP2 SLOAD DUP2 LT PUSH2 0x2103 JUMPI PUSH2 0x2103 PUSH2 0x4F4F JUMP JUMPDEST SWAP1 PUSH1 0x0 MSTORE PUSH1 0x20 PUSH1 0x0 KECCAK256 SWAP1 PUSH1 0x9 MUL ADD PUSH1 0x40 MLOAD DUP1 PUSH2 0x160 ADD PUSH1 0x40 MSTORE SWAP1 DUP2 PUSH1 0x0 DUP3 ADD SLOAD DUP2 MSTORE PUSH1 0x20 ADD PUSH1 0x1 DUP3 ADD SLOAD DUP2 MSTORE PUSH1 0x20 ADD PUSH1 0x2 DUP3 ADD PUSH1 0x0 SWAP1 SLOAD SWAP1 PUSH2 0x100 EXP SWAP1 DIV PUSH1 0x1 PUSH1 0x1 PUSH1 0xA0 SHL SUB AND PUSH1 0x1 PUSH1 0x1 PUSH1 0xA0 SHL SUB AND PUSH1 0x1 PUSH1 0x1 PUSH1 0xA0 SHL SUB AND DUP2 MSTORE PUSH1 0x20 ADD PUSH1 0x3 DUP3 ADD DUP1 SLOAD PUSH2 0x2170 SWAP1 PUSH2 0x4EAF JUMP JUMPDEST DUP1 PUSH1 0x1F ADD PUSH1 0x20 DUP1 SWAP2 DIV MUL PUSH1 0x20 ADD PUSH1 0x40 MLOAD SWAP1 DUP2 ADD PUSH1 0x40 MSTORE DUP1 SWAP3 SWAP2 SWAP1 DUP2 DUP2 MSTORE PUSH1 0x20 ADD DUP3 DUP1 SLOAD PUSH2 0x219C SWAP1 PUSH2 0x4EAF JUMP JUMPDEST DUP1 ISZERO PUSH2 0x21E9 JUMPI DUP1 PUSH1 0x1F LT PUSH2 0x21BE JUMPI PUSH2 0x100 DUP1 DUP4 SLOAD DIV MUL DUP4 MSTORE SWAP2 PUSH1 0x20 ADD SWAP2 PUSH2 0x21E9 JUMP JUMPDEST DUP3 ADD SWAP2 SWAP1 PUSH1 0x0 MSTORE PUSH1 0x20 PUSH1 0x0 KECCAK256 SWAP1 JUMPDEST DUP2 SLOAD DUP2 MSTORE SWAP1 PUSH1 0x1 ADD SWAP1 PUSH1 0x20 ADD DUP1 DUP4 GT PUSH2 0x21CC JUMPI DUP3 SWAP1 SUB PUSH1 0x1F AND DUP3 ADD SWAP2 JUMPDEST POP POP POP POP POP DUP2 MSTORE PUSH1 0x20 ADD PUSH1 0x4 DUP3 ADD DUP1 SLOAD PUSH2 0x2202 SWAP1 PUSH2 0x4EAF JUMP JUMPDEST DUP1 PUSH1 0x1F ADD PUSH1 0x20 DUP1 SWAP2 DIV MUL PUSH1 0x20 ADD PUSH1 0x40 MLOAD SWAP1 DUP2 ADD PUSH1 0x40 MSTORE DUP1 SWAP3 SWAP2 SWAP1 DUP2 DUP2 MSTORE PUSH1 0x20 ADD DUP3 DUP1 SLOAD PUSH2 0x222E SWAP1 PUSH2 0x4EAF JUMP JUMPDEST DUP1 ISZERO PUSH2 0x227B JUMPI DUP1 PUSH1 0x1F LT PUSH2 0x2250 JUMPI PUSH2 0x100 DUP1 DUP4 SLOAD DIV MUL DUP4 MSTORE SWAP2 PUSH1 0x20 ADD SWAP2 PUSH2 0x227B JUMP JUMPDEST DUP3 ADD SWAP2 SWAP1 PUSH1 0x0 MSTORE PUSH1 0x20 PUSH1 0x0 KECCAK256 SWAP1 JUMPDEST DUP2 SLOAD DUP2 MSTORE SWAP1 PUSH1 0x1 ADD SWAP1 PUSH1 0x20 ADD DUP1 DUP4 GT PUSH2 0x225E JUMPI DUP3 SWAP1 SUB PUSH1 0x1F AND DUP3 ADD SWAP2 JUMPDEST POP POP POP SWAP2 DUP4 MSTORE POP POP PUSH1 0x5 DUP3 ADD SLOAD PUSH1 0x20 DUP3 ADD MSTORE PUSH1 0x6 DUP3 ADD SLOAD PUSH1 0x40 DUP3 ADD MSTORE PUSH1 0x7 DUP3 ADD SLOAD PUSH1 0x60 DUP3 ADD MSTORE PUSH1 0x8 SWAP1 SWAP2 ADD SLOAD PUSH1 0xFF DUP1 DUP3 AND ISZERO ISZERO PUSH1 0x80 DUP5 ADD MSTORE PUSH2 0x100 DUP3 DIV DUP2 AND ISZERO ISZERO PUSH1 0xA0 DUP5 ADD MSTORE PUSH3 0x10000 SWAP1 SWAP2 DIV AND ISZERO ISZERO PUSH1 0xC0 SWAP1 SWAP2 ADD MSTORE SWAP3 SWAP2 POP POP JUMP JUMPDEST PUSH1 0x14 SLOAD PUSH2 0x22E2 PUSH2 0x433F JUMP JUMPDEST DUP2 DUP2 MSTORE PUSH1 0x1 PUSH1 0x1 PUSH1 0xA0 SHL SUB DUP6 DUP2 AND PUSH1 0x20 DUP1 DUP5 ADD DUP3 DUP2 MSTORE PUSH1 0x40 DUP1 DUP7 ADD DUP10 DUP2 MSTORE PUSH1 0x60 DUP8 ADD DUP10 SWAP1 MSTORE PUSH1 0x0 PUSH1 0x80 DUP9 ADD DUP2 SWAP1 MSTORE PUSH1 0x1 PUSH1 0xA0 DUP10 ADD DUP2 SWAP1 MSTORE SWAP6 DUP2 MSTORE PUSH1 0x3 DUP6 MSTORE SWAP2 SWAP1 SWAP2 KECCAK256 DUP7 MLOAD DUP2 SSTORE SWAP2 MLOAD SWAP4 DUP3 ADD DUP1 SLOAD PUSH1 0x1 PUSH1 0x1 PUSH1 0xA0 SHL SUB NOT AND SWAP5 SWAP1 SWAP6 AND SWAP4 SWAP1 SWAP4 OR SWAP1 SWAP4 SSTORE SWAP1 MLOAD DUP1 MLOAD DUP5 SWAP4 SWAP3 PUSH2 0x235C SWAP3 PUSH1 0x2 DUP6 ADD SWAP3 SWAP2 ADD SWAP1 PUSH2 0x41A6 JUMP JUMPDEST POP PUSH1 0x60 DUP3 ADD MLOAD DUP1 MLOAD PUSH2 0x2378 SWAP2 PUSH1 0x3 DUP5 ADD SWAP2 PUSH1 0x20 SWAP1 SWAP2 ADD SWAP1 PUSH2 0x41A6 JUMP JUMPDEST POP PUSH1 0x80 DUP3 ADD MLOAD PUSH1 0x4 DUP3 ADD SSTORE PUSH1 0xA0 SWAP1 SWAP2 ADD MLOAD PUSH1 0x5 SWAP1 SWAP2 ADD DUP1 SLOAD PUSH1 0xFF NOT AND SWAP2 ISZERO ISZERO SWAP2 SWAP1 SWAP2 OR SWAP1 SSTORE PUSH1 0x14 DUP1 SLOAD SWAP1 PUSH1 0x0 PUSH2 0x23AD DUP4 PUSH2 0x4F36 JUMP JUMPDEST SWAP2 SWAP1 POP SSTORE POP POP POP POP POP POP JUMP JUMPDEST PUSH1 0x0 PUSH1 0x64 PUSH2 0x23C6 DUP4 PUSH2 0x20E8 JUMP JUMPDEST PUSH1 0xE0 ADD MLOAD PUSH2 0x23D5 SWAP1 PUSH1 0x4B PUSH2 0x4EFF JUMP JUMPDEST PUSH2 0x23DF SWAP2 SWAP1 PUSH2 0x4F65 JUMP JUMPDEST SWAP3 SWAP2 POP POP JUMP JUMPDEST PUSH1 0x0 DUP2 DUP2 MSTORE PUSH1 0x6 PUSH1 0x20 MSTORE PUSH1 0x40 DUP2 KECCAK256 SLOAD PUSH1 0x60 SWAP2 DUP2 PUSH8 0xFFFFFFFFFFFFFFFF DUP2 GT ISZERO PUSH2 0x2410 JUMPI PUSH2 0x2410 PUSH2 0x44B5 JUMP JUMPDEST PUSH1 0x40 MLOAD SWAP1 DUP1 DUP3 MSTORE DUP1 PUSH1 0x20 MUL PUSH1 0x20 ADD DUP3 ADD PUSH1 0x40 MSTORE DUP1 ISZERO PUSH2 0x2449 JUMPI DUP2 PUSH1 0x20 ADD JUMPDEST PUSH2 0x2436 PUSH2 0x4274 JUMP JUMPDEST DUP2 MSTORE PUSH1 0x20 ADD SWAP1 PUSH1 0x1 SWAP1 SUB SWAP1 DUP2 PUSH2 0x242E JUMPI SWAP1 POP JUMPDEST POP SWAP1 POP PUSH1 0x0 DUP1 JUMPDEST PUSH1 0x9 SLOAD DUP2 LT ISZERO PUSH2 0x1EAE JUMPI PUSH1 0x0 PUSH1 0x9 DUP3 DUP2 SLOAD DUP2 LT PUSH2 0x246F JUMPI PUSH2 0x246F PUSH2 0x4F4F JUMP JUMPDEST SWAP1 PUSH1 0x0 MSTORE PUSH1 0x20 PUSH1 0x0 KECCAK256 SWAP1 PUSH1 0x6 MUL ADD PUSH1 0x40 MLOAD DUP1 PUSH1 0xE0 ADD PUSH1 0x40 MSTORE SWAP1 DUP2 PUSH1 0x0 DUP3 ADD SLOAD DUP2 MSTORE PUSH1 0x20 ADD PUSH1 0x1 DUP3 ADD SLOAD DUP2 MSTORE PUSH1 0x20 ADD PUSH1 0x2 DUP3 ADD PUSH1 0x0 SWAP1 SLOAD SWAP1 PUSH2 0x100 EXP SWAP1 DIV PUSH1 0x1 PUSH1 0x1 PUSH1 0xA0 SHL SUB AND PUSH1 0x1 PUSH1 0x1 PUSH1 0xA0 SHL SUB AND PUSH1 0x1 PUSH1 0x1 PUSH1 0xA0 SHL SUB AND DUP2 MSTORE PUSH1 0x20 ADD PUSH1 0x3 DUP3 ADD SLOAD DUP2 MSTORE PUSH1 0x20 ADD PUSH1 0x4 DUP3 ADD DUP1 SLOAD PUSH2 0x24E5 SWAP1 PUSH2 0x4EAF JUMP JUMPDEST DUP1 PUSH1 0x1F ADD PUSH1 0x20 DUP1 SWAP2 DIV MUL PUSH1 0x20 ADD PUSH1 0x40 MLOAD SWAP1 DUP2 ADD PUSH1 0x40 MSTORE DUP1 SWAP3 SWAP2 SWAP1 DUP2 DUP2 MSTORE PUSH1 0x20 ADD DUP3 DUP1 SLOAD PUSH2 0x2511 SWAP1 PUSH2 0x4EAF JUMP JUMPDEST DUP1 ISZERO PUSH2 0x255E JUMPI DUP1 PUSH1 0x1F LT PUSH2 0x2533 JUMPI PUSH2 0x100 DUP1 DUP4 SLOAD DIV MUL DUP4 MSTORE SWAP2 PUSH1 0x20 ADD SWAP2 PUSH2 0x255E JUMP JUMPDEST DUP3 ADD SWAP2 SWAP1 PUSH1 0x0 MSTORE PUSH1 0x20 PUSH1 0x0 KECCAK256 SWAP1 JUMPDEST DUP2 SLOAD DUP2 MSTORE SWAP1 PUSH1 0x1 ADD SWAP1 PUSH1 0x20 ADD DUP1 DUP4 GT PUSH2 0x2541 JUMPI DUP3 SWAP1 SUB PUSH1 0x1F AND DUP3 ADD SWAP2 JUMPDEST POP POP POP SWAP2 DUP4 MSTORE POP POP PUSH1 0x5 SWAP2 SWAP1 SWAP2 ADD SLOAD PUSH1 0xFF DUP1 DUP3 AND ISZERO ISZERO PUSH1 0x20 DUP5 ADD MSTORE PUSH2 0x100 SWAP1 SWAP2 DIV AND ISZERO ISZERO PUSH1 0x40 SWAP1 SWAP2 ADD MSTORE PUSH1 0x60 DUP2 ADD MLOAD SWAP1 SWAP2 POP DUP8 SWAP1 SUB PUSH2 0x25DC JUMPI PUSH2 0x25A4 DUP2 PUSH1 0x40 ADD MLOAD PUSH2 0x1997 JUMP JUMPDEST DUP5 DUP5 DUP2 MLOAD DUP2 LT PUSH2 0x25B6 JUMPI PUSH2 0x25B6 PUSH2 0x4F4F JUMP JUMPDEST PUSH1 0x20 MUL PUSH1 0x20 ADD ADD DUP2 SWAP1 MSTORE POP DUP3 DUP1 PUSH2 0x25CC SWAP1 PUSH2 0x4F36 JUMP JUMPDEST SWAP4 POP POP DUP5 DUP4 SUB PUSH2 0x25DC JUMPI POP PUSH2 0x1EAE JUMP JUMPDEST POP DUP1 PUSH2 0x25E7 DUP2 PUSH2 0x4F36 JUMP JUMPDEST SWAP2 POP POP PUSH2 0x2450 JUMP JUMPDEST PUSH2 0x25F7 PUSH2 0x42C4 JUMP JUMPDEST PUSH1 0x1 PUSH1 0x1 PUSH1 0xA0 SHL SUB DUP1 DUP4 AND PUSH1 0x0 SWAP1 DUP2 MSTORE PUSH1 0xD PUSH1 0x20 SWAP1 DUP2 MSTORE PUSH1 0x40 SWAP2 DUP3 SWAP1 KECCAK256 DUP3 MLOAD PUSH1 0xC0 DUP2 ADD DUP5 MSTORE DUP2 SLOAD DUP2 MSTORE PUSH1 0x1 DUP3 ADD SLOAD SWAP1 SWAP5 AND SWAP2 DUP5 ADD SWAP2 SWAP1 SWAP2 MSTORE PUSH1 0x2 DUP2 ADD DUP1 SLOAD SWAP2 SWAP3 DUP5 ADD SWAP2 PUSH2 0x2643 SWAP1 PUSH2 0x4EAF JUMP JUMPDEST DUP1 PUSH1 0x1F ADD PUSH1 0x20 DUP1 SWAP2 DIV MUL PUSH1 0x20 ADD PUSH1 0x40 MLOAD SWAP1 DUP2 ADD PUSH1 0x40 MSTORE DUP1 SWAP3 SWAP2 SWAP1 DUP2 DUP2 MSTORE PUSH1 0x20 ADD DUP3 DUP1 SLOAD PUSH2 0x266F SWAP1 PUSH2 0x4EAF JUMP JUMPDEST DUP1 ISZERO PUSH2 0x26BC JUMPI DUP1 PUSH1 0x1F LT PUSH2 0x2691 JUMPI PUSH2 0x100 DUP1 DUP4 SLOAD DIV MUL DUP4 MSTORE SWAP2 PUSH1 0x20 ADD SWAP2 PUSH2 0x26BC JUMP JUMPDEST DUP3 ADD SWAP2 SWAP1 PUSH1 0x0 MSTORE PUSH1 0x20 PUSH1 0x0 KECCAK256 SWAP1 JUMPDEST DUP2 SLOAD DUP2 MSTORE SWAP1 PUSH1 0x1 ADD SWAP1 PUSH1 0x20 ADD DUP1 DUP4 GT PUSH2 0x269F JUMPI DUP3 SWAP1 SUB PUSH1 0x1F AND DUP3 ADD SWAP2 JUMPDEST POP POP POP POP POP DUP2 MSTORE PUSH1 0x20 ADD PUSH1 0x3 DUP3 ADD DUP1 SLOAD PUSH2 0x26D5 SWAP1 PUSH2 0x4EAF JUMP JUMPDEST DUP1 PUSH1 0x1F ADD PUSH1 0x20 DUP1 SWAP2 DIV MUL PUSH1 0x20 ADD PUSH1 0x40 MLOAD SWAP1 DUP2 ADD PUSH1 0x40 MSTORE DUP1 SWAP3 SWAP2 SWAP1 DUP2 DUP2 MSTORE PUSH1 0x20 ADD DUP3 DUP1 SLOAD PUSH2 0x2701 SWAP1 PUSH2 0x4EAF JUMP JUMPDEST DUP1 ISZERO PUSH2 0x274E JUMPI DUP1 PUSH1 0x1F LT PUSH2 0x2723 JUMPI PUSH2 0x100 DUP1 DUP4 SLOAD DIV MUL DUP4 MSTORE SWAP2 PUSH1 0x20 ADD SWAP2 PUSH2 0x274E JUMP JUMPDEST DUP3 ADD SWAP2 SWAP1 PUSH1 0x0 MSTORE PUSH1 0x20 PUSH1 0x0 KECCAK256 SWAP1 JUMPDEST DUP2 SLOAD DUP2 MSTORE SWAP1 PUSH1 0x1 ADD SWAP1 PUSH1 0x20 ADD DUP1 DUP4 GT PUSH2 0x2731 JUMPI DUP3 SWAP1 SUB PUSH1 0x1F AND DUP3 ADD SWAP2 JUMPDEST POP POP POP POP POP DUP2 MSTORE PUSH1 0x20 ADD PUSH1 0x4 DUP3 ADD DUP1 SLOAD PUSH2 0x2767 SWAP1 PUSH2 0x4EAF JUMP JUMPDEST DUP1 PUSH1 0x1F ADD PUSH1 0x20 DUP1 SWAP2 DIV MUL PUSH1 0x20 ADD PUSH1 0x40 MLOAD SWAP1 DUP2 ADD PUSH1 0x40 MSTORE DUP1 SWAP3 SWAP2 SWAP1 DUP2 DUP2 MSTORE PUSH1 0x20 ADD DUP3 DUP1 SLOAD PUSH2 0x2793 SWAP1 PUSH2 0x4EAF JUMP JUMPDEST DUP1 ISZERO PUSH2 0x27E0 JUMPI DUP1 PUSH1 0x1F LT PUSH2 0x27B5 JUMPI PUSH2 0x100 DUP1 DUP4 SLOAD DIV MUL DUP4 MSTORE SWAP2 PUSH1 0x20 ADD SWAP2 PUSH2 0x27E0 JUMP JUMPDEST DUP3 ADD SWAP2 SWAP1 PUSH1 0x0 MSTORE PUSH1 0x20 PUSH1 0x0 KECCAK256 SWAP1 JUMPDEST DUP2 SLOAD DUP2 MSTORE SWAP1 PUSH1 0x1 ADD SWAP1 PUSH1 0x20 ADD DUP1 DUP4 GT PUSH2 0x27C3 JUMPI DUP3 SWAP1 SUB PUSH1 0x1F AND DUP3 ADD SWAP2 JUMPDEST POP POP POP SWAP2 DUP4 MSTORE POP POP PUSH1 0x5 SWAP2 SWAP1 SWAP2 ADD SLOAD PUSH1 0xFF AND ISZERO ISZERO PUSH1 0x20 SWAP1 SWAP2 ADD MSTORE SWAP3 SWAP2 POP POP JUMP JUMPDEST PUSH2 0x2808 PUSH2 0x4274 JUMP JUMPDEST PUSH1 0x0 PUSH1 0x9 DUP4 DUP2 SLOAD DUP2 LT PUSH2 0x281D JUMPI PUSH2 0x281D PUSH2 0x4F4F JUMP JUMPDEST SWAP1 PUSH1 0x0 MSTORE PUSH1 0x20 PUSH1 0x0 KECCAK256 SWAP1 PUSH1 0x6 MUL ADD PUSH1 0x40 MLOAD DUP1 PUSH1 0xE0 ADD PUSH1 0x40 MSTORE SWAP1 DUP2 PUSH1 0x0 DUP3 ADD SLOAD DUP2 MSTORE PUSH1 0x20 ADD PUSH1 0x1 DUP3 ADD SLOAD DUP2 MSTORE PUSH1 0x20 ADD PUSH1 0x2 DUP3 ADD PUSH1 0x0 SWAP1 SLOAD SWAP1 PUSH2 0x100 EXP SWAP1 DIV PUSH1 0x1 PUSH1 0x1 PUSH1 0xA0 SHL SUB AND PUSH1 0x1 PUSH1 0x1 PUSH1 0xA0 SHL SUB AND PUSH1 0x1 PUSH1 0x1 PUSH1 0xA0 SHL SUB AND DUP2 MSTORE PUSH1 0x20 ADD PUSH1 0x3 DUP3 ADD SLOAD DUP2 MSTORE PUSH1 0x20 ADD PUSH1 0x4 DUP3 ADD DUP1 SLOAD PUSH2 0x2893 SWAP1 PUSH2 0x4EAF JUMP JUMPDEST DUP1 PUSH1 0x1F ADD PUSH1 0x20 DUP1 SWAP2 DIV MUL PUSH1 0x20 ADD PUSH1 0x40 MLOAD SWAP1 DUP2 ADD PUSH1 0x40 MSTORE DUP1 SWAP3 SWAP2 SWAP1 DUP2 DUP2 MSTORE PUSH1 0x20 ADD DUP3 DUP1 SLOAD PUSH2 0x28BF SWAP1 PUSH2 0x4EAF JUMP JUMPDEST DUP1 ISZERO PUSH2 0x290C JUMPI DUP1 PUSH1 0x1F LT PUSH2 0x28E1 JUMPI PUSH2 0x100 DUP1 DUP4 SLOAD DIV MUL DUP4 MSTORE SWAP2 PUSH1 0x20 ADD SWAP2 PUSH2 0x290C JUMP JUMPDEST DUP3 ADD SWAP2 SWAP1 PUSH1 0x0 MSTORE PUSH1 0x20 PUSH1 0x0 KECCAK256 SWAP1 JUMPDEST DUP2 SLOAD DUP2 MSTORE SWAP1 PUSH1 0x1 ADD SWAP1 PUSH1 0x20 ADD DUP1 DUP4 GT PUSH2 0x28EF JUMPI DUP3 SWAP1 SUB PUSH1 0x1F AND DUP3 ADD SWAP2 JUMPDEST POP POP POP SWAP2 DUP4 MSTORE POP POP PUSH1 0x5 SWAP2 SWAP1 SWAP2 ADD SLOAD PUSH1 0xFF DUP1 DUP3 AND ISZERO ISZERO PUSH1 0x20 DUP5 ADD MSTORE PUSH2 0x100 SWAP1 SWAP2 DIV AND ISZERO ISZERO PUSH1 0x40 SWAP2 DUP3 ADD MSTORE DUP2 ADD MLOAD SWAP1 SWAP2 POP PUSH1 0x0 SWAP1 PUSH2 0x20E0 SWAP1 PUSH2 0x1997 JUMP JUMPDEST PUSH1 0x1 PUSH1 0x1 PUSH1 0xA0 SHL SUB DUP2 AND PUSH1 0x0 SWAP1 DUP2 MSTORE PUSH1 0xA PUSH1 0x20 MSTORE PUSH1 0x40 DUP2 KECCAK256 SLOAD PUSH1 0x60 SWAP2 DUP2 PUSH8 0xFFFFFFFFFFFFFFFF DUP2 GT ISZERO PUSH2 0x297D JUMPI PUSH2 0x297D PUSH2 0x44B5 JUMP JUMPDEST PUSH1 0x40 MLOAD SWAP1 DUP1 DUP3 MSTORE DUP1 PUSH1 0x20 MUL PUSH1 0x20 ADD DUP3 ADD PUSH1 0x40 MSTORE DUP1 ISZERO PUSH2 0x29B6 JUMPI DUP2 PUSH1 0x20 ADD JUMPDEST PUSH2 0x29A3 PUSH2 0x422A JUMP JUMPDEST DUP2 MSTORE PUSH1 0x20 ADD SWAP1 PUSH1 0x1 SWAP1 SUB SWAP1 DUP2 PUSH2 0x299B JUMPI SWAP1 POP JUMPDEST POP SWAP1 POP PUSH1 0x0 DUP1 JUMPDEST PUSH1 0x9 SLOAD DUP2 LT ISZERO PUSH2 0x1EAE JUMPI PUSH1 0x0 PUSH1 0x9 DUP3 DUP2 SLOAD DUP2 LT PUSH2 0x29DC JUMPI PUSH2 0x29DC PUSH2 0x4F4F JUMP JUMPDEST SWAP1 PUSH1 0x0 MSTORE PUSH1 0x20 PUSH1 0x0 KECCAK256 SWAP1 PUSH1 0x6 MUL ADD PUSH1 0x40 MLOAD DUP1 PUSH1 0xE0 ADD PUSH1 0x40 MSTORE SWAP1 DUP2 PUSH1 0x0 DUP3 ADD SLOAD DUP2 MSTORE PUSH1 0x20 ADD PUSH1 0x1 DUP3 ADD SLOAD DUP2 MSTORE PUSH1 0x20 ADD PUSH1 0x2 DUP3 ADD PUSH1 0x0 SWAP1 SLOAD SWAP1 PUSH2 0x100 EXP SWAP1 DIV PUSH1 0x1 PUSH1 0x1 PUSH1 0xA0 SHL SUB AND PUSH1 0x1 PUSH1 0x1 PUSH1 0xA0 SHL SUB AND PUSH1 0x1 PUSH1 0x1 PUSH1 0xA0 SHL SUB AND DUP2 MSTORE PUSH1 0x20 ADD PUSH1 0x3 DUP3 ADD SLOAD DUP2 MSTORE PUSH1 0x20 ADD PUSH1 0x4 DUP3 ADD DUP1 SLOAD PUSH2 0x2A52 SWAP1 PUSH2 0x4EAF JUMP JUMPDEST DUP1 PUSH1 0x1F ADD PUSH1 0x20 DUP1 SWAP2 DIV MUL PUSH1 0x20 ADD PUSH1 0x40 MLOAD SWAP1 DUP2 ADD PUSH1 0x40 MSTORE DUP1 SWAP3 SWAP2 SWAP1 DUP2 DUP2 MSTORE PUSH1 0x20 ADD DUP3 DUP1 SLOAD PUSH2 0x2A7E SWAP1 PUSH2 0x4EAF JUMP JUMPDEST DUP1 ISZERO PUSH2 0x2ACB JUMPI DUP1 PUSH1 0x1F LT PUSH2 0x2AA0 JUMPI PUSH2 0x100 DUP1 DUP4 SLOAD DIV MUL DUP4 MSTORE SWAP2 PUSH1 0x20 ADD SWAP2 PUSH2 0x2ACB JUMP JUMPDEST DUP3 ADD SWAP2 SWAP1 PUSH1 0x0 MSTORE PUSH1 0x20 PUSH1 0x0 KECCAK256 SWAP1 JUMPDEST DUP2 SLOAD DUP2 MSTORE SWAP1 PUSH1 0x1 ADD SWAP1 PUSH1 0x20 ADD DUP1 DUP4 GT PUSH2 0x2AAE JUMPI DUP3 SWAP1 SUB PUSH1 0x1F AND DUP3 ADD SWAP2 JUMPDEST POP POP POP SWAP2 DUP4 MSTORE POP POP PUSH1 0x5 SWAP2 SWAP1 SWAP2 ADD SLOAD PUSH1 0xFF DUP1 DUP3 AND ISZERO ISZERO PUSH1 0x20 DUP5 ADD MSTORE PUSH2 0x100 SWAP1 SWAP2 DIV AND ISZERO ISZERO PUSH1 0x40 SWAP2 DUP3 ADD MSTORE DUP2 ADD MLOAD SWAP1 SWAP2 POP PUSH1 0x1 PUSH1 0x1 PUSH1 0xA0 SHL SUB DUP1 DUP10 AND SWAP2 AND SUB PUSH2 0x2B46 JUMPI DUP1 DUP5 DUP5 DUP2 MLOAD DUP2 LT PUSH2 0x2B20 JUMPI PUSH2 0x2B20 PUSH2 0x4F4F JUMP JUMPDEST PUSH1 0x20 MUL PUSH1 0x20 ADD ADD DUP2 SWAP1 MSTORE POP DUP3 DUP1 PUSH2 0x2B36 SWAP1 PUSH2 0x4F36 JUMP JUMPDEST SWAP4 POP POP DUP5 DUP4 SUB PUSH2 0x2B46 JUMPI POP PUSH2 0x1EAE JUMP JUMPDEST POP DUP1 PUSH2 0x2B51 DUP2 PUSH2 0x4F36 JUMP JUMPDEST SWAP2 POP POP PUSH2 0x29BD JUMP JUMPDEST PUSH1 0x8 PUSH1 0x20 MSTORE PUSH1 0x0 SWAP1 DUP2 MSTORE PUSH1 0x40 SWAP1 KECCAK256 DUP1 SLOAD PUSH1 0x1 DUP3 ADD SLOAD PUSH1 0x2 DUP4 ADD SLOAD PUSH1 0x3 DUP5 ADD DUP1 SLOAD SWAP4 SWAP5 SWAP3 SWAP4 PUSH1 0x1 PUSH1 0x1 PUSH1 0xA0 SHL SUB SWAP1 SWAP3 AND SWAP3 SWAP2 PUSH2 0x2B93 SWAP1 PUSH2 0x4EAF JUMP JUMPDEST DUP1 PUSH1 0x1F ADD PUSH1 0x20 DUP1 SWAP2 DIV MUL PUSH1 0x20 ADD PUSH1 0x40 MLOAD SWAP1 DUP2 ADD PUSH1 0x40 MSTORE DUP1 SWAP3 SWAP2 SWAP1 DUP2 DUP2 MSTORE PUSH1 0x20 ADD DUP3 DUP1 SLOAD PUSH2 0x2BBF SWAP1 PUSH2 0x4EAF JUMP JUMPDEST DUP1 ISZERO PUSH2 0x2C0C JUMPI DUP1 PUSH1 0x1F LT PUSH2 0x2BE1 JUMPI PUSH2 0x100 DUP1 DUP4 SLOAD DIV MUL DUP4 MSTORE SWAP2 PUSH1 0x20 ADD SWAP2 PUSH2 0x2C0C JUMP JUMPDEST DUP3 ADD SWAP2 SWAP1 PUSH1 0x0 MSTORE PUSH1 0x20 PUSH1 0x0 KECCAK256 SWAP1 JUMPDEST DUP2 SLOAD DUP2 MSTORE SWAP1 PUSH1 0x1 ADD SWAP1 PUSH1 0x20 ADD DUP1 DUP4 GT PUSH2 0x2BEF JUMPI DUP3 SWAP1 SUB PUSH1 0x1F AND DUP3 ADD SWAP2 JUMPDEST POP POP POP POP POP SWAP1 DUP1 PUSH1 0x4 ADD DUP1 SLOAD PUSH2 0x2C21 SWAP1 PUSH2 0x4EAF JUMP JUMPDEST DUP1 PUSH1 0x1F ADD PUSH1 0x20 DUP1 SWAP2 DIV MUL PUSH1 0x20 ADD PUSH1 0x40 MLOAD SWAP1 DUP2 ADD PUSH1 0x40 MSTORE DUP1 SWAP3 SWAP2 SWAP1 DUP2 DUP2 MSTORE PUSH1 0x20 ADD DUP3 DUP1 SLOAD PUSH2 0x2C4D SWAP1 PUSH2 0x4EAF JUMP JUMPDEST DUP1 ISZERO PUSH2 0x2C9A JUMPI DUP1 PUSH1 0x1F LT PUSH2 0x2C6F JUMPI PUSH2 0x100 DUP1 DUP4 SLOAD DIV MUL DUP4 MSTORE SWAP2 PUSH1 0x20 ADD SWAP2 PUSH2 0x2C9A JUMP JUMPDEST DUP3 ADD SWAP2 SWAP1 PUSH1 0x0 MSTORE PUSH1 0x20 PUSH1 0x0 KECCAK256 SWAP1 JUMPDEST DUP2 SLOAD DUP2 MSTORE SWAP1 PUSH1 0x1 ADD SWAP1 PUSH1 0x20 ADD DUP1 DUP4 GT PUSH2 0x2C7D JUMPI DUP3 SWAP1 SUB PUSH1 0x1F AND DUP3 ADD SWAP2 JUMPDEST POP POP POP POP POP SWAP1 DUP1 PUSH1 0x5 ADD DUP1 SLOAD PUSH2 0x2CAF SWAP1 PUSH2 0x4EAF JUMP JUMPDEST DUP1 PUSH1 0x1F ADD PUSH1 0x20 DUP1 SWAP2 DIV MUL PUSH1 0x20 ADD PUSH1 0x40 MLOAD SWAP1 DUP2 ADD PUSH1 0x40 MSTORE DUP1 SWAP3 SWAP2 SWAP1 DUP2 DUP2 MSTORE PUSH1 0x20 ADD DUP3 DUP1 SLOAD PUSH2 0x2CDB SWAP1 PUSH2 0x4EAF JUMP JUMPDEST DUP1 ISZERO PUSH2 0x2D28 JUMPI DUP1 PUSH1 0x1F LT PUSH2 0x2CFD JUMPI PUSH2 0x100 DUP1 DUP4 SLOAD DIV MUL DUP4 MSTORE SWAP2 PUSH1 0x20 ADD SWAP2 PUSH2 0x2D28 JUMP JUMPDEST DUP3 ADD SWAP2 SWAP1 PUSH1 0x0 MSTORE PUSH1 0x20 PUSH1 0x0 KECCAK256 SWAP1 JUMPDEST DUP2 SLOAD DUP2 MSTORE SWAP1 PUSH1 0x1 ADD SWAP1 PUSH1 0x20 ADD DUP1 DUP4 GT PUSH2 0x2D0B JUMPI DUP3 SWAP1 SUB PUSH1 0x1F AND DUP3 ADD SWAP2 JUMPDEST POP POP POP POP POP SWAP1 DUP1 PUSH1 0x6 ADD DUP1 SLOAD PUSH2 0x2D3D SWAP1 PUSH2 0x4EAF JUMP JUMPDEST DUP1 PUSH1 0x1F ADD PUSH1 0x20 DUP1 SWAP2 DIV MUL PUSH1 0x20 ADD PUSH1 0x40 MLOAD SWAP1 DUP2 ADD PUSH1 0x40 MSTORE DUP1 SWAP3 SWAP2 SWAP1 DUP2 DUP2 MSTORE PUSH1 0x20 ADD DUP3 DUP1 SLOAD PUSH2 0x2D69 SWAP1 PUSH2 0x4EAF JUMP JUMPDEST DUP1 ISZERO PUSH2 0x2DB6 JUMPI DUP1 PUSH1 0x1F LT PUSH2 0x2D8B JUMPI PUSH2 0x100 DUP1 DUP4 SLOAD DIV MUL DUP4 MSTORE SWAP2 PUSH1 0x20 ADD SWAP2 PUSH2 0x2DB6 JUMP JUMPDEST DUP3 ADD SWAP2 SWAP1 PUSH1 0x0 MSTORE PUSH1 0x20 PUSH1 0x0 KECCAK256 SWAP1 JUMPDEST DUP2 SLOAD DUP2 MSTORE SWAP1 PUSH1 0x1 ADD SWAP1 PUSH1 0x20 ADD DUP1 DUP4 GT PUSH2 0x2D99 JUMPI DUP3 SWAP1 SUB PUSH1 0x1F AND DUP3 ADD SWAP2 JUMPDEST POP POP POP PUSH1 0x7 SWAP1 SWAP4 ADD SLOAD SWAP2 SWAP3 POP POP PUSH1 0xFF AND DUP9 JUMP JUMPDEST PUSH1 0x16 SLOAD PUSH2 0x2DD4 PUSH2 0x4274 JUMP JUMPDEST DUP2 DUP2 MSTORE PUSH1 0x1 PUSH1 0x1 PUSH1 0xA0 SHL SUB DUP8 DUP2 AND PUSH1 0x40 DUP1 DUP5 ADD DUP3 DUP2 MSTORE PUSH1 0x60 DUP6 ADD DUP11 DUP2 MSTORE PUSH1 0x80 DUP7 ADD DUP11 SWAP1 MSTORE PUSH1 0xA0 DUP7 ADD DUP10 SWAP1 MSTORE PUSH1 0xC0 DUP7 ADD DUP9 SWAP1 MSTORE PUSH1 0x1 PUSH1 0xE0 DUP8 ADD DUP2 SWAP1 MSTORE PUSH1 0x0 SWAP5 DUP6 MSTORE PUSH1 0x8 PUSH1 0x20 SWAP1 DUP2 MSTORE SWAP4 SWAP1 SWAP5 KECCAK256 DUP7 MLOAD DUP2 SSTORE DUP4 DUP8 ADD MLOAD SWAP5 DUP2 ADD SWAP5 SWAP1 SWAP5 SSTORE SWAP1 MLOAD PUSH1 0x2 DUP5 ADD DUP1 SLOAD PUSH1 0x1 PUSH1 0x1 PUSH1 0xA0 SHL SUB NOT AND SWAP2 SWAP1 SWAP6 AND OR SWAP1 SWAP4 SSTORE SWAP2 MLOAD DUP1 MLOAD DUP5 SWAP4 PUSH2 0x2E5F SWAP3 PUSH1 0x3 DUP6 ADD SWAP3 SWAP2 ADD SWAP1 PUSH2 0x41A6 JUMP JUMPDEST POP PUSH1 0x80 DUP3 ADD MLOAD DUP1 MLOAD PUSH2 0x2E7B SWAP2 PUSH1 0x4 DUP5 ADD SWAP2 PUSH1 0x20 SWAP1 SWAP2 ADD SWAP1 PUSH2 0x41A6 JUMP JUMPDEST POP PUSH1 0xA0 DUP3 ADD MLOAD DUP1 MLOAD PUSH2 0x2E97 SWAP2 PUSH1 0x5 DUP5 ADD SWAP2 PUSH1 0x20 SWAP1 SWAP2 ADD SWAP1 PUSH2 0x41A6 JUMP JUMPDEST POP PUSH1 0xC0 DUP3 ADD MLOAD DUP1 MLOAD PUSH2 0x2EB3 SWAP2 PUSH1 0x6 DUP5 ADD SWAP2 PUSH1 0x20 SWAP1 SWAP2 ADD SWAP1 PUSH2 0x41A6 JUMP JUMPDEST POP PUSH1 0xE0 SWAP2 SWAP1 SWAP2 ADD MLOAD PUSH1 0x7 SWAP1 SWAP2 ADD DUP1 SLOAD PUSH1 0xFF NOT AND SWAP2 ISZERO ISZERO SWAP2 SWAP1 SWAP2 OR SWAP1 SSTORE PUSH1 0x16 DUP1 SLOAD SWAP1 PUSH1 0x0 PUSH2 0x2EDF DUP4 PUSH2 0x4F36 JUMP JUMPDEST SWAP2 SWAP1 POP SSTORE POP POP POP POP POP POP POP POP JUMP JUMPDEST PUSH1 0x9 DUP2 DUP2 SLOAD DUP2 LT PUSH2 0x2EFD JUMPI PUSH1 0x0 DUP1 REVERT JUMPDEST PUSH1 0x0 SWAP2 DUP3 MSTORE PUSH1 0x20 SWAP1 SWAP2 KECCAK256 PUSH1 0x6 SWAP1 SWAP2 MUL ADD DUP1 SLOAD PUSH1 0x1 DUP3 ADD SLOAD PUSH1 0x2 DUP4 ADD SLOAD PUSH1 0x3 DUP5 ADD SLOAD PUSH1 0x4 DUP6 ADD DUP1 SLOAD SWAP5 SWAP7 POP SWAP3 SWAP5 PUSH1 0x1 PUSH1 0x1 PUSH1 0xA0 SHL SUB SWAP1 SWAP3 AND SWAP4 SWAP1 SWAP3 SWAP1 PUSH2 0x2F41 SWAP1 PUSH2 0x4EAF JUMP JUMPDEST DUP1 PUSH1 0x1F ADD PUSH1 0x20 DUP1 SWAP2 DIV MUL PUSH1 0x20 ADD PUSH1 0x40 MLOAD SWAP1 DUP2 ADD PUSH1 0x40 MSTORE DUP1 SWAP3 SWAP2 SWAP1 DUP2 DUP2 MSTORE PUSH1 0x20 ADD DUP3 DUP1 SLOAD PUSH2 0x2F6D SWAP1 PUSH2 0x4EAF JUMP JUMPDEST DUP1 ISZERO PUSH2 0x2FBA JUMPI DUP1 PUSH1 0x1F LT PUSH2 0x2F8F JUMPI PUSH2 0x100 DUP1 DUP4 SLOAD DIV MUL DUP4 MSTORE SWAP2 PUSH1 0x20 ADD SWAP2 PUSH2 0x2FBA JUMP JUMPDEST DUP3 ADD SWAP2 SWAP1 PUSH1 0x0 MSTORE PUSH1 0x20 PUSH1 0x0 KECCAK256 SWAP1 JUMPDEST DUP2 SLOAD DUP2 MSTORE SWAP1 PUSH1 0x1 ADD SWAP1 PUSH1 0x20 ADD DUP1 DUP4 GT PUSH2 0x2F9D JUMPI DUP3 SWAP1 SUB PUSH1 0x1F AND DUP3 ADD SWAP2 JUMPDEST POP POP POP PUSH1 0x5 SWAP1 SWAP4 ADD SLOAD SWAP2 SWAP3 POP POP PUSH1 0xFF DUP1 DUP3 AND SWAP2 PUSH2 0x100 SWAP1 DIV AND DUP8 JUMP JUMPDEST PUSH1 0xD PUSH1 0x20 MSTORE PUSH1 0x0 SWAP1 DUP2 MSTORE PUSH1 0x40 SWAP1 KECCAK256 DUP1 SLOAD PUSH1 0x1 DUP3 ADD SLOAD PUSH1 0x2 DUP4 ADD DUP1 SLOAD SWAP3 SWAP4 PUSH1 0x1 PUSH1 0x1 PUSH1 0xA0 SHL SUB SWAP1 SWAP3 AND SWAP3 PUSH2 0x3008 SWAP1 PUSH2 0x4EAF JUMP JUMPDEST DUP1 PUSH1 0x1F ADD PUSH1 0x20 DUP1 SWAP2 DIV MUL PUSH1 0x20 ADD PUSH1 0x40 MLOAD SWAP1 DUP2 ADD PUSH1 0x40 MSTORE DUP1 SWAP3 SWAP2 SWAP1 DUP2 DUP2 MSTORE PUSH1 0x20 ADD DUP3 DUP1 SLOAD PUSH2 0x3034 SWAP1 PUSH2 0x4EAF JUMP JUMPDEST DUP1 ISZERO PUSH2 0x3081 JUMPI DUP1 PUSH1 0x1F LT PUSH2 0x3056 JUMPI PUSH2 0x100 DUP1 DUP4 SLOAD DIV MUL DUP4 MSTORE SWAP2 PUSH1 0x20 ADD SWAP2 PUSH2 0x3081 JUMP JUMPDEST DUP3 ADD SWAP2 SWAP1 PUSH1 0x0 MSTORE PUSH1 0x20 PUSH1 0x0 KECCAK256 SWAP1 JUMPDEST DUP2 SLOAD DUP2 MSTORE SWAP1 PUSH1 0x1 ADD SWAP1 PUSH1 0x20 ADD DUP1 DUP4 GT PUSH2 0x3064 JUMPI DUP3 SWAP1 SUB PUSH1 0x1F AND DUP3 ADD SWAP2 JUMPDEST POP POP POP POP POP SWAP1 DUP1 PUSH1 0x3 ADD DUP1 SLOAD PUSH2 0x3096 SWAP1 PUSH2 0x4EAF JUMP JUMPDEST DUP1 PUSH1 0x1F ADD PUSH1 0x20 DUP1 SWAP2 DIV MUL PUSH1 0x20 ADD PUSH1 0x40 MLOAD SWAP1 DUP2 ADD PUSH1 0x40 MSTORE DUP1 SWAP3 SWAP2 SWAP1 DUP2 DUP2 MSTORE PUSH1 0x20 ADD DUP3 DUP1 SLOAD PUSH2 0x30C2 SWAP1 PUSH2 0x4EAF JUMP JUMPDEST DUP1 ISZERO PUSH2 0x310F JUMPI DUP1 PUSH1 0x1F LT PUSH2 0x30E4 JUMPI PUSH2 0x100 DUP1 DUP4 SLOAD DIV MUL DUP4 MSTORE SWAP2 PUSH1 0x20 ADD SWAP2 PUSH2 0x310F JUMP JUMPDEST DUP3 ADD SWAP2 SWAP1 PUSH1 0x0 MSTORE PUSH1 0x20 PUSH1 0x0 KECCAK256 SWAP1 JUMPDEST DUP2 SLOAD DUP2 MSTORE SWAP1 PUSH1 0x1 ADD SWAP1 PUSH1 0x20 ADD DUP1 DUP4 GT PUSH2 0x30F2 JUMPI DUP3 SWAP1 SUB PUSH1 0x1F AND DUP3 ADD SWAP2 JUMPDEST POP POP POP POP POP SWAP1 DUP1 PUSH1 0x4 ADD DUP1 SLOAD PUSH2 0x3124 SWAP1 PUSH2 0x4EAF JUMP JUMPDEST DUP1 PUSH1 0x1F ADD PUSH1 0x20 DUP1 SWAP2 DIV MUL PUSH1 0x20 ADD PUSH1 0x40 MLOAD SWAP1 DUP2 ADD PUSH1 0x40 MSTORE DUP1 SWAP3 SWAP2 SWAP1 DUP2 DUP2 MSTORE PUSH1 0x20 ADD DUP3 DUP1 SLOAD PUSH2 0x3150 SWAP1 PUSH2 0x4EAF JUMP JUMPDEST DUP1 ISZERO PUSH2 0x319D JUMPI DUP1 PUSH1 0x1F LT PUSH2 0x3172 JUMPI PUSH2 0x100 DUP1 DUP4 SLOAD DIV MUL DUP4 MSTORE SWAP2 PUSH1 0x20 ADD SWAP2 PUSH2 0x319D JUMP JUMPDEST DUP3 ADD SWAP2 SWAP1 PUSH1 0x0 MSTORE PUSH1 0x20 PUSH1 0x0 KECCAK256 SWAP1 JUMPDEST DUP2 SLOAD DUP2 MSTORE SWAP1 PUSH1 0x1 ADD SWAP1 PUSH1 0x20 ADD DUP1 DUP4 GT PUSH2 0x3180 JUMPI DUP3 SWAP1 SUB PUSH1 0x1F AND DUP3 ADD SWAP2 JUMPDEST POP POP POP PUSH1 0x5 SWAP1 SWAP4 ADD SLOAD SWAP2 SWAP3 POP POP PUSH1 0xFF AND DUP7 JUMP JUMPDEST PUSH1 0x0 DUP1 DUP1 JUMPDEST PUSH1 0x10 SLOAD DUP2 LT ISZERO PUSH2 0x3275 JUMPI PUSH1 0x0 PUSH1 0x10 DUP3 DUP2 SLOAD DUP2 LT PUSH2 0x31D4 JUMPI PUSH2 0x31D4 PUSH2 0x4F4F JUMP JUMPDEST PUSH1 0x0 SWAP2 DUP3 MSTORE PUSH1 0x20 SWAP2 DUP3 SWAP1 KECCAK256 PUSH1 0x40 DUP1 MLOAD PUSH1 0xE0 DUP2 ADD DUP3 MSTORE PUSH1 0x7 SWAP1 SWAP4 MUL SWAP1 SWAP2 ADD DUP1 SLOAD DUP4 MSTORE PUSH1 0x1 DUP2 ADD SLOAD SWAP4 DUP4 ADD SWAP4 SWAP1 SWAP4 MSTORE PUSH1 0x2 DUP4 ADD SLOAD SWAP1 DUP3 ADD MSTORE PUSH1 0x3 DUP3 ADD SLOAD PUSH1 0x60 DUP3 ADD MSTORE PUSH1 0x4 DUP3 ADD SLOAD PUSH1 0x1 PUSH1 0x1 PUSH1 0xA0 SHL SUB SWAP1 DUP2 AND PUSH1 0x80 DUP4 ADD DUP2 SWAP1 MSTORE PUSH1 0x5 DUP5 ADD SLOAD PUSH1 0xA0 DUP5 ADD MSTORE PUSH1 0x6 SWAP1 SWAP4 ADD SLOAD PUSH1 0xFF AND ISZERO ISZERO PUSH1 0xC0 DUP4 ADD MSTORE SWAP1 SWAP3 POP DUP7 AND SWAP1 SUB PUSH2 0x3262 JUMPI PUSH1 0xA0 DUP2 ADD MLOAD PUSH2 0x325F SWAP1 DUP5 PUSH2 0x4F1E JUMP JUMPDEST SWAP3 POP JUMPDEST POP DUP1 PUSH2 0x326D DUP2 PUSH2 0x4F36 JUMP JUMPDEST SWAP2 POP POP PUSH2 0x31B5 JUMP JUMPDEST POP SWAP3 SWAP2 POP POP JUMP JUMPDEST PUSH1 0x0 PUSH2 0x3287 DUP6 PUSH2 0x20E8 JUMP JUMPDEST SWAP1 POP DUP1 PUSH2 0x120 ADD MLOAD ISZERO PUSH2 0x3299 JUMPI PUSH1 0x0 DUP1 REVERT JUMPDEST PUSH1 0x0 DUP6 DUP2 MSTORE PUSH1 0x13 PUSH1 0x20 SWAP1 DUP2 MSTORE PUSH1 0x40 DUP1 DUP4 KECCAK256 PUSH1 0x1 PUSH1 0x1 PUSH1 0xA0 SHL SUB DUP7 AND DUP5 MSTORE SWAP1 SWAP2 MSTORE SWAP1 KECCAK256 SLOAD PUSH1 0xFF AND ISZERO PUSH2 0x32C9 JUMPI PUSH1 0x0 DUP1 REVERT JUMPDEST PUSH1 0x0 PUSH2 0x32D4 DUP6 PUSH2 0x116D JUMP JUMPDEST PUSH1 0x19 SLOAD SWAP1 SWAP2 POP PUSH1 0x0 PUSH2 0x32E5 DUP6 PUSH2 0x25EF JUMP JUMPDEST SWAP1 POP PUSH2 0x32EF PUSH2 0x4305 JUMP JUMPDEST DUP3 DUP2 MSTORE DUP2 MLOAD PUSH1 0x20 DUP1 DUP4 ADD SWAP2 DUP3 MSTORE DUP6 DUP2 ADD MLOAD PUSH1 0x40 DUP1 DUP6 ADD SWAP2 DUP3 MSTORE PUSH1 0x60 DUP6 ADD DUP14 DUP2 MSTORE PUSH1 0x1 PUSH1 0xA0 DUP8 ADD DUP2 DUP2 MSTORE PUSH1 0xE DUP1 SLOAD DUP1 DUP5 ADD DUP3 SSTORE PUSH1 0x0 SWAP2 DUP3 MSTORE DUP10 MLOAD PUSH1 0x5 SWAP1 SWAP2 MUL PUSH32 0xBB7B4A454DC3493923482F07822329ED19E8244EFF582CC204F8554C3620C3FD DUP2 ADD SWAP2 SWAP1 SWAP2 SSTORE SWAP8 MLOAD PUSH32 0xBB7B4A454DC3493923482F07822329ED19E8244EFF582CC204F8554C3620C3FE DUP10 ADD SSTORE SWAP5 MLOAD PUSH32 0xBB7B4A454DC3493923482F07822329ED19E8244EFF582CC204F8554C3620C3FF DUP9 ADD SSTORE SWAP2 MLOAD PUSH32 0xBB7B4A454DC3493923482F07822329ED19E8244EFF582CC204F8554C3620C400 DUP8 ADD SSTORE PUSH1 0x80 DUP8 ADD MLOAD PUSH32 0xBB7B4A454DC3493923482F07822329ED19E8244EFF582CC204F8554C3620C401 SWAP1 SWAP7 ADD DUP1 SLOAD SWAP3 MLOAD ISZERO ISZERO PUSH2 0x100 MUL PUSH2 0xFF00 NOT SWAP8 ISZERO ISZERO SWAP8 SWAP1 SWAP8 AND PUSH2 0xFFFF NOT SWAP1 SWAP4 AND SWAP3 SWAP1 SWAP3 OR SWAP6 SWAP1 SWAP6 OR SWAP1 SSTORE DUP9 MLOAD DUP1 DUP4 MSTORE PUSH1 0x13 DUP5 MSTORE DUP2 DUP4 KECCAK256 DUP5 DUP9 ADD DUP1 MLOAD PUSH1 0x1 PUSH1 0x1 PUSH1 0xA0 SHL SUB AND DUP6 MSTORE SWAP5 MSTORE SWAP2 KECCAK256 DUP1 SLOAD PUSH1 0xFF NOT AND SWAP1 SWAP4 OR SWAP1 SWAP3 SSTORE MLOAD PUSH2 0x344D SWAP1 DUP3 SWAP1 PUSH2 0x3C9B JUMP JUMPDEST PUSH1 0x0 DUP2 DUP2 MSTORE PUSH1 0x7 PUSH1 0x20 MSTORE PUSH1 0x40 DUP2 KECCAK256 SLOAD SWAP1 PUSH2 0x3468 DUP3 PUSH1 0x1 PUSH2 0x4F1E JUMP JUMPDEST PUSH1 0x0 DUP5 DUP2 MSTORE PUSH1 0x7 PUSH1 0x20 SWAP1 DUP2 MSTORE PUSH1 0x40 DUP1 DUP4 KECCAK256 DUP5 SWAP1 SSTORE DUP9 DUP3 ADD MLOAD PUSH1 0x1 PUSH1 0x1 PUSH1 0xA0 SHL SUB AND DUP4 MSTORE PUSH1 0xB SWAP1 SWAP2 MSTORE DUP2 KECCAK256 SLOAD SWAP2 SWAP3 POP PUSH2 0x34A1 DUP3 PUSH1 0x1 PUSH2 0x4F1E JUMP JUMPDEST SWAP1 POP DUP1 PUSH1 0xB PUSH1 0x0 DUP10 PUSH1 0x20 ADD MLOAD PUSH1 0x1 PUSH1 0x1 PUSH1 0xA0 SHL SUB AND PUSH1 0x1 PUSH1 0x1 PUSH1 0xA0 SHL SUB AND DUP2 MSTORE PUSH1 0x20 ADD SWAP1 DUP2 MSTORE PUSH1 0x20 ADD PUSH1 0x0 KECCAK256 DUP2 SWAP1 SSTORE POP PUSH1 0x0 PUSH1 0xF PUSH1 0x0 DUP8 DUP2 MSTORE PUSH1 0x20 ADD SWAP1 DUP2 MSTORE PUSH1 0x20 ADD PUSH1 0x0 KECCAK256 PUSH1 0x0 DUP15 PUSH1 0x1 PUSH1 0x1 PUSH1 0xA0 SHL SUB AND PUSH1 0x1 PUSH1 0x1 PUSH1 0xA0 SHL SUB AND DUP2 MSTORE PUSH1 0x20 ADD SWAP1 DUP2 MSTORE PUSH1 0x20 ADD PUSH1 0x0 KECCAK256 SLOAD SWAP1 POP PUSH1 0x0 DUP2 PUSH1 0x1 PUSH2 0x351B SWAP2 SWAP1 PUSH2 0x4F1E JUMP JUMPDEST PUSH1 0x0 DUP9 DUP2 MSTORE PUSH1 0xF PUSH1 0x20 SWAP1 DUP2 MSTORE PUSH1 0x40 DUP1 DUP4 KECCAK256 DUP16 DUP3 ADD MLOAD PUSH1 0x1 PUSH1 0x1 PUSH1 0xA0 SHL SUB AND DUP5 MSTORE SWAP1 SWAP2 MSTORE SWAP1 KECCAK256 DUP2 SWAP1 SSTORE PUSH1 0xC0 DUP14 ADD MLOAD SWAP1 SWAP2 POP DUP6 SUB PUSH2 0x3571 JUMPI PUSH2 0x355A DUP8 PUSH2 0x3E22 JUMP JUMPDEST PUSH2 0x3568 DUP8 DUP13 PUSH1 0x20 ADD MLOAD PUSH2 0x3E4E JUMP JUMPDEST PUSH2 0x3571 DUP8 PUSH2 0x40B7 JUMP JUMPDEST PUSH1 0x19 DUP1 SLOAD SWAP1 PUSH1 0x0 PUSH2 0x3581 DUP4 PUSH2 0x4F36 JUMP JUMPDEST SWAP2 SWAP1 POP SSTORE POP POP POP POP POP POP POP POP POP POP POP POP POP POP POP POP POP JUMP JUMPDEST PUSH1 0xE DUP2 DUP2 SLOAD DUP2 LT PUSH2 0x35A8 JUMPI PUSH1 0x0 DUP1 REVERT JUMPDEST PUSH1 0x0 SWAP2 DUP3 MSTORE PUSH1 0x20 SWAP1 SWAP2 KECCAK256 PUSH1 0x5 SWAP1 SWAP2 MUL ADD DUP1 SLOAD PUSH1 0x1 DUP3 ADD SLOAD PUSH1 0x2 DUP4 ADD SLOAD PUSH1 0x3 DUP5 ADD SLOAD PUSH1 0x4 SWAP1 SWAP5 ADD SLOAD SWAP3 SWAP5 POP SWAP1 SWAP3 SWAP1 SWAP2 PUSH1 0xFF DUP1 DUP3 AND SWAP2 PUSH2 0x100 SWAP1 DIV AND DUP7 JUMP JUMPDEST PUSH2 0x35ED PUSH2 0x433F JUMP JUMPDEST PUSH1 0x1 PUSH1 0x1 PUSH1 0xA0 SHL SUB DUP1 DUP4 AND PUSH1 0x0 SWAP1 DUP2 MSTORE PUSH1 0x3 PUSH1 0x20 SWAP1 DUP2 MSTORE PUSH1 0x40 SWAP2 DUP3 SWAP1 KECCAK256 DUP3 MLOAD PUSH1 0xC0 DUP2 ADD DUP5 MSTORE DUP2 SLOAD DUP2 MSTORE PUSH1 0x1 DUP3 ADD SLOAD SWAP1 SWAP5 AND SWAP2 DUP5 ADD SWAP2 SWAP1 SWAP2 MSTORE PUSH1 0x2 DUP2 ADD DUP1 SLOAD SWAP2 SWAP3 DUP5 ADD SWAP2 PUSH2 0x3639 SWAP1 PUSH2 0x4EAF JUMP JUMPDEST DUP1 PUSH1 0x1F ADD PUSH1 0x20 DUP1 SWAP2 DIV MUL PUSH1 0x20 ADD PUSH1 0x40 MLOAD SWAP1 DUP2 ADD PUSH1 0x40 MSTORE DUP1 SWAP3 SWAP2 SWAP1 DUP2 DUP2 MSTORE PUSH1 0x20 ADD DUP3 DUP1 SLOAD PUSH2 0x3665 SWAP1 PUSH2 0x4EAF JUMP JUMPDEST DUP1 ISZERO PUSH2 0x36B2 JUMPI DUP1 PUSH1 0x1F LT PUSH2 0x3687 JUMPI PUSH2 0x100 DUP1 DUP4 SLOAD DIV MUL DUP4 MSTORE SWAP2 PUSH1 0x20 ADD SWAP2 PUSH2 0x36B2 JUMP JUMPDEST DUP3 ADD SWAP2 SWAP1 PUSH1 0x0 MSTORE PUSH1 0x20 PUSH1 0x0 KECCAK256 SWAP1 JUMPDEST DUP2 SLOAD DUP2 MSTORE SWAP1 PUSH1 0x1 ADD SWAP1 PUSH1 0x20 ADD DUP1 DUP4 GT PUSH2 0x3695 JUMPI DUP3 SWAP1 SUB PUSH1 0x1F AND DUP3 ADD SWAP2 JUMPDEST POP POP POP POP POP DUP2 MSTORE PUSH1 0x20 ADD PUSH1 0x3 DUP3 ADD DUP1 SLOAD PUSH2 0x36CB SWAP1 PUSH2 0x4EAF JUMP JUMPDEST DUP1 PUSH1 0x1F ADD PUSH1 0x20 DUP1 SWAP2 DIV MUL PUSH1 0x20 ADD PUSH1 0x40 MLOAD SWAP1 DUP2 ADD PUSH1 0x40 MSTORE DUP1 SWAP3 SWAP2 SWAP1 DUP2 DUP2 MSTORE PUSH1 0x20 ADD DUP3 DUP1 SLOAD PUSH2 0x36F7 SWAP1 PUSH2 0x4EAF JUMP JUMPDEST DUP1 ISZERO PUSH2 0x3744 JUMPI DUP1 PUSH1 0x1F LT PUSH2 0x3719 JUMPI PUSH2 0x100 DUP1 DUP4 SLOAD DIV MUL DUP4 MSTORE SWAP2 PUSH1 0x20 ADD SWAP2 PUSH2 0x3744 JUMP JUMPDEST DUP3 ADD SWAP2 SWAP1 PUSH1 0x0 MSTORE PUSH1 0x20 PUSH1 0x0 KECCAK256 SWAP1 JUMPDEST DUP2 SLOAD DUP2 MSTORE SWAP1 PUSH1 0x1 ADD SWAP1 PUSH1 0x20 ADD DUP1 DUP4 GT PUSH2 0x3727 JUMPI DUP3 SWAP1 SUB PUSH1 0x1F AND DUP3 ADD SWAP2 JUMPDEST POP POP POP SWAP2 DUP4 MSTORE POP POP PUSH1 0x4 DUP3 ADD SLOAD PUSH1 0x20 DUP3 ADD MSTORE PUSH1 0x5 SWAP1 SWAP2 ADD SLOAD PUSH1 0xFF AND ISZERO ISZERO PUSH1 0x40 SWAP1 SWAP2 ADD MSTORE SWAP3 SWAP2 POP POP JUMP JUMPDEST PUSH2 0x3775 PUSH2 0x4274 JUMP JUMPDEST PUSH1 0x0 PUSH2 0x377F PUSH2 0x4274 JUMP JUMPDEST PUSH1 0x0 PUSH2 0x378A DUP6 PUSH2 0x23E5 JUMP JUMPDEST SWAP1 POP PUSH1 0x0 JUMPDEST DUP2 MLOAD DUP2 LT ISZERO PUSH2 0x1EAE JUMPI PUSH1 0x0 DUP3 DUP3 DUP2 MLOAD DUP2 LT PUSH2 0x37AC JUMPI PUSH2 0x37AC PUSH2 0x4F4F JUMP JUMPDEST PUSH1 0x20 SWAP1 DUP2 MUL SWAP2 SWAP1 SWAP2 ADD DUP2 ADD MLOAD PUSH1 0x0 DUP10 DUP2 MSTORE PUSH1 0xF DUP4 MSTORE PUSH1 0x40 DUP1 DUP3 KECCAK256 DUP2 DUP5 ADD MLOAD PUSH1 0x1 PUSH1 0x1 PUSH1 0xA0 SHL SUB AND DUP4 MSTORE SWAP1 SWAP4 MSTORE SWAP2 SWAP1 SWAP2 KECCAK256 SLOAD SWAP1 SWAP2 POP DUP6 DUP2 GT ISZERO PUSH2 0x3808 JUMPI DUP1 SWAP6 POP DUP4 DUP4 DUP2 MLOAD DUP2 LT PUSH2 0x37FD JUMPI PUSH2 0x37FD PUSH2 0x4F4F JUMP JUMPDEST PUSH1 0x20 MUL PUSH1 0x20 ADD ADD MLOAD SWAP5 POP JUMPDEST POP POP DUP1 DUP1 PUSH2 0x3815 SWAP1 PUSH2 0x4F36 JUMP JUMPDEST SWAP2 POP POP PUSH2 0x378F JUMP JUMPDEST PUSH1 0x0 PUSH1 0x64 PUSH2 0x382A DUP4 PUSH2 0x20E8 JUMP JUMPDEST PUSH1 0xE0 ADD MLOAD PUSH2 0x23D5 SWAP1 PUSH1 0xA PUSH2 0x4EFF JUMP JUMPDEST PUSH2 0x3841 PUSH2 0x422A JUMP JUMPDEST PUSH1 0x0 PUSH2 0x384C DUP4 PUSH2 0x2948 JUMP JUMPDEST SWAP1 POP PUSH2 0x3856 PUSH2 0x422A JUMP JUMPDEST PUSH1 0x0 JUMPDEST DUP3 MLOAD DUP2 LT ISZERO PUSH2 0x38AF JUMPI PUSH1 0x0 DUP4 DUP3 DUP2 MLOAD DUP2 LT PUSH2 0x3876 JUMPI PUSH2 0x3876 PUSH2 0x4F4F JUMP JUMPDEST PUSH1 0x20 MUL PUSH1 0x20 ADD ADD MLOAD SWAP1 POP DUP8 DUP2 PUSH1 0x60 ADD MLOAD EQ DUP1 ISZERO PUSH2 0x3893 JUMPI POP DUP1 MLOAD DUP8 EQ JUMPDEST ISZERO PUSH2 0x389C JUMPI DUP1 SWAP3 POP JUMPDEST POP DUP1 PUSH2 0x38A7 DUP2 PUSH2 0x4F36 JUMP JUMPDEST SWAP2 POP POP PUSH2 0x3859 JUMP JUMPDEST POP SWAP6 SWAP5 POP POP POP POP POP JUMP JUMPDEST PUSH1 0x1 PUSH1 0x1 PUSH1 0xA0 SHL SUB DUP2 AND PUSH1 0x0 SWAP1 DUP2 MSTORE PUSH1 0x4 PUSH1 0x20 MSTORE PUSH1 0x40 DUP2 KECCAK256 SLOAD PUSH1 0x60 SWAP2 DUP2 PUSH8 0xFFFFFFFFFFFFFFFF DUP2 GT ISZERO PUSH2 0x38EE JUMPI PUSH2 0x38EE PUSH2 0x44B5 JUMP JUMPDEST PUSH1 0x40 MLOAD SWAP1 DUP1 DUP3 MSTORE DUP1 PUSH1 0x20 MUL PUSH1 0x20 ADD DUP3 ADD PUSH1 0x40 MSTORE DUP1 ISZERO PUSH2 0x3927 JUMPI DUP2 PUSH1 0x20 ADD JUMPDEST PUSH2 0x3914 PUSH2 0x413D JUMP JUMPDEST DUP2 MSTORE PUSH1 0x20 ADD SWAP1 PUSH1 0x1 SWAP1 SUB SWAP1 DUP2 PUSH2 0x390C JUMPI SWAP1 POP JUMPDEST POP SWAP1 POP PUSH1 0x0 DUP1 JUMPDEST PUSH1 0x5 SLOAD DUP2 LT ISZERO PUSH2 0x1EAE JUMPI PUSH1 0x0 PUSH1 0x5 DUP3 DUP2 SLOAD DUP2 LT PUSH2 0x394D JUMPI PUSH2 0x394D PUSH2 0x4F4F JUMP JUMPDEST SWAP1 PUSH1 0x0 MSTORE PUSH1 0x20 PUSH1 0x0 KECCAK256 SWAP1 PUSH1 0x9 MUL ADD PUSH1 0x40 MLOAD DUP1 PUSH2 0x160 ADD PUSH1 0x40 MSTORE SWAP1 DUP2 PUSH1 0x0 DUP3 ADD SLOAD DUP2 MSTORE PUSH1 0x20 ADD PUSH1 0x1 DUP3 ADD SLOAD DUP2 MSTORE PUSH1 0x20 ADD PUSH1 0x2 DUP3 ADD PUSH1 0x0 SWAP1 SLOAD SWAP1 PUSH2 0x100 EXP SWAP1 DIV PUSH1 0x1 PUSH1 0x1 PUSH1 0xA0 SHL SUB AND PUSH1 0x1 PUSH1 0x1 PUSH1 0xA0 SHL SUB AND PUSH1 0x1 PUSH1 0x1 PUSH1 0xA0 SHL SUB AND DUP2 MSTORE PUSH1 0x20 ADD PUSH1 0x3 DUP3 ADD DUP1 SLOAD PUSH2 0x39BA SWAP1 PUSH2 0x4EAF JUMP JUMPDEST DUP1 PUSH1 0x1F ADD PUSH1 0x20 DUP1 SWAP2 DIV MUL PUSH1 0x20 ADD PUSH1 0x40 MLOAD SWAP1 DUP2 ADD PUSH1 0x40 MSTORE DUP1 SWAP3 SWAP2 SWAP1 DUP2 DUP2 MSTORE PUSH1 0x20 ADD DUP3 DUP1 SLOAD PUSH2 0x39E6 SWAP1 PUSH2 0x4EAF JUMP JUMPDEST DUP1 ISZERO PUSH2 0x3A33 JUMPI DUP1 PUSH1 0x1F LT PUSH2 0x3A08 JUMPI PUSH2 0x100 DUP1 DUP4 SLOAD DIV MUL DUP4 MSTORE SWAP2 PUSH1 0x20 ADD SWAP2 PUSH2 0x3A33 JUMP JUMPDEST DUP3 ADD SWAP2 SWAP1 PUSH1 0x0 MSTORE PUSH1 0x20 PUSH1 0x0 KECCAK256 SWAP1 JUMPDEST DUP2 SLOAD DUP2 MSTORE SWAP1 PUSH1 0x1 ADD SWAP1 PUSH1 0x20 ADD DUP1 DUP4 GT PUSH2 0x3A16 JUMPI DUP3 SWAP1 SUB PUSH1 0x1F AND DUP3 ADD SWAP2 JUMPDEST POP POP POP POP POP DUP2 MSTORE PUSH1 0x20 ADD PUSH1 0x4 DUP3 ADD DUP1 SLOAD PUSH2 0x3A4C SWAP1 PUSH2 0x4EAF JUMP JUMPDEST DUP1 PUSH1 0x1F ADD PUSH1 0x20 DUP1 SWAP2 DIV MUL PUSH1 0x20 ADD PUSH1 0x40 MLOAD SWAP1 DUP2 ADD PUSH1 0x40 MSTORE DUP1 SWAP3 SWAP2 SWAP1 DUP2 DUP2 MSTORE PUSH1 0x20 ADD DUP3 DUP1 SLOAD PUSH2 0x3A78 SWAP1 PUSH2 0x4EAF JUMP JUMPDEST DUP1 ISZERO PUSH2 0x3AC5 JUMPI DUP1 PUSH1 0x1F LT PUSH2 0x3A9A JUMPI PUSH2 0x100 DUP1 DUP4 SLOAD DIV MUL DUP4 MSTORE SWAP2 PUSH1 0x20 ADD SWAP2 PUSH2 0x3AC5 JUMP JUMPDEST DUP3 ADD SWAP2 SWAP1 PUSH1 0x0 MSTORE PUSH1 0x20 PUSH1 0x0 KECCAK256 SWAP1 JUMPDEST DUP2 SLOAD DUP2 MSTORE SWAP1 PUSH1 0x1 ADD SWAP1 PUSH1 0x20 ADD DUP1 DUP4 GT PUSH2 0x3AA8 JUMPI DUP3 SWAP1 SUB PUSH1 0x1F AND DUP3 ADD SWAP2 JUMPDEST POP POP POP SWAP2 DUP4 MSTORE POP POP PUSH1 0x5 DUP3 ADD SLOAD PUSH1 0x20 DUP3 ADD MSTORE PUSH1 0x6 DUP3 ADD SLOAD PUSH1 0x40 DUP1 DUP4 ADD SWAP2 SWAP1 SWAP2 MSTORE PUSH1 0x7 DUP4 ADD SLOAD PUSH1 0x60 DUP4 ADD MSTORE PUSH1 0x8 SWAP1 SWAP3 ADD SLOAD PUSH1 0xFF DUP1 DUP3 AND ISZERO ISZERO PUSH1 0x80 DUP5 ADD MSTORE PUSH2 0x100 DUP3 DIV DUP2 AND ISZERO ISZERO PUSH1 0xA0 DUP5 ADD MSTORE PUSH3 0x10000 SWAP1 SWAP2 DIV AND ISZERO ISZERO PUSH1 0xC0 SWAP1 SWAP2 ADD MSTORE DUP2 ADD MLOAD SWAP1 SWAP2 POP PUSH1 0x1 PUSH1 0x1 PUSH1 0xA0 SHL SUB DUP1 DUP10 AND SWAP2 AND SUB PUSH2 0x3B70 JUMPI DUP1 DUP5 DUP5 DUP2 MLOAD DUP2 LT PUSH2 0x3B4A JUMPI PUSH2 0x3B4A PUSH2 0x4F4F JUMP JUMPDEST PUSH1 0x20 MUL PUSH1 0x20 ADD ADD DUP2 SWAP1 MSTORE POP DUP3 DUP1 PUSH2 0x3B60 SWAP1 PUSH2 0x4F36 JUMP JUMPDEST SWAP4 POP POP DUP5 DUP4 SUB PUSH2 0x3B70 JUMPI POP PUSH2 0x1EAE JUMP JUMPDEST POP DUP1 PUSH2 0x3B7B DUP2 PUSH2 0x4F36 JUMP JUMPDEST SWAP2 POP POP PUSH2 0x392E JUMP JUMPDEST PUSH1 0x0 PUSH2 0x3B8E DUP3 PUSH2 0x20E8 JUMP JUMPDEST PUSH1 0x1 PUSH2 0x100 DUP3 ADD MSTORE PUSH1 0x5 DUP1 SLOAD SWAP2 SWAP3 POP DUP3 SWAP2 DUP5 SWAP1 DUP2 LT PUSH2 0x3BAF JUMPI PUSH2 0x3BAF PUSH2 0x4F4F JUMP JUMPDEST PUSH1 0x0 SWAP2 DUP3 MSTORE PUSH1 0x20 SWAP2 DUP3 SWAP1 KECCAK256 DUP4 MLOAD PUSH1 0x9 SWAP3 SWAP1 SWAP3 MUL ADD SWAP1 DUP2 SSTORE DUP3 DUP3 ADD MLOAD PUSH1 0x1 DUP3 ADD SSTORE PUSH1 0x40 DUP4 ADD MLOAD PUSH1 0x2 DUP3 ADD DUP1 SLOAD PUSH1 0x1 PUSH1 0x1 PUSH1 0xA0 SHL SUB NOT AND PUSH1 0x1 PUSH1 0x1 PUSH1 0xA0 SHL SUB SWAP1 SWAP3 AND SWAP2 SWAP1 SWAP2 OR SWAP1 SSTORE PUSH1 0x60 DUP4 ADD MLOAD DUP1 MLOAD SWAP2 SWAP3 PUSH2 0x3C10 SWAP3 PUSH1 0x3 DUP6 ADD SWAP3 SWAP1 SWAP2 ADD SWAP1 PUSH2 0x41A6 JUMP JUMPDEST POP PUSH1 0x80 DUP3 ADD MLOAD DUP1 MLOAD PUSH2 0x3C2C SWAP2 PUSH1 0x4 DUP5 ADD SWAP2 PUSH1 0x20 SWAP1 SWAP2 ADD SWAP1 PUSH2 0x41A6 JUMP JUMPDEST POP PUSH1 0xA0 DUP3 ADD MLOAD PUSH1 0x5 DUP3 ADD SSTORE PUSH1 0xC0 DUP3 ADD MLOAD PUSH1 0x6 DUP3 ADD SSTORE PUSH1 0xE0 DUP3 ADD MLOAD PUSH1 0x7 DUP3 ADD SSTORE PUSH2 0x100 DUP1 DUP4 ADD MLOAD PUSH1 0x8 SWAP1 SWAP3 ADD DUP1 SLOAD PUSH2 0x120 DUP6 ADD MLOAD PUSH2 0x140 SWAP1 SWAP6 ADD MLOAD PUSH2 0xFFFF NOT SWAP1 SWAP2 AND SWAP4 ISZERO ISZERO PUSH2 0xFF00 NOT AND SWAP4 SWAP1 SWAP4 OR SWAP4 ISZERO ISZERO SWAP1 SWAP2 MUL SWAP3 SWAP1 SWAP3 OR PUSH3 0xFF0000 NOT AND PUSH3 0x10000 SWAP2 ISZERO ISZERO SWAP2 SWAP1 SWAP2 MUL OR SWAP1 SSTORE POP POP JUMP JUMPDEST PUSH1 0x1B SLOAD PUSH1 0x0 PUSH2 0x3CA9 DUP4 PUSH2 0x25EF JUMP JUMPDEST SWAP1 POP PUSH1 0x0 PUSH2 0x3CB6 DUP6 PUSH2 0x1D99 JUMP JUMPDEST SWAP1 POP PUSH2 0x3CFC PUSH1 0x40 MLOAD DUP1 PUSH1 0xC0 ADD PUSH1 0x40 MSTORE DUP1 PUSH1 0x0 DUP2 MSTORE PUSH1 0x20 ADD PUSH1 0x0 DUP2 MSTORE PUSH1 0x20 ADD PUSH1 0x0 PUSH1 0x1 PUSH1 0x1 PUSH1 0xA0 SHL SUB AND DUP2 MSTORE PUSH1 0x20 ADD PUSH1 0x0 DUP2 MSTORE PUSH1 0x20 ADD PUSH1 0x0 DUP2 MSTORE PUSH1 0x20 ADD PUSH1 0x0 ISZERO ISZERO DUP2 MSTORE POP SWAP1 JUMP JUMPDEST DUP4 DUP2 MSTORE DUP3 MLOAD PUSH1 0x20 DUP1 DUP4 ADD SWAP2 DUP3 MSTORE DUP1 DUP6 ADD MLOAD PUSH1 0x1 PUSH1 0x1 PUSH1 0xA0 SHL SUB SWAP1 DUP2 AND PUSH1 0x40 DUP1 DUP7 ADD SWAP2 DUP3 MSTORE PUSH1 0x60 DUP7 ADD DUP12 DUP2 MSTORE PUSH1 0x80 DUP8 ADD DUP9 DUP2 MSTORE PUSH1 0x1 PUSH1 0xA0 DUP10 ADD DUP2 DUP2 MSTORE DUP14 DUP8 AND PUSH1 0x0 DUP2 DUP2 MSTORE PUSH1 0x11 DUP11 MSTORE DUP7 DUP2 KECCAK256 DUP1 SLOAD DUP1 DUP7 ADD DUP3 SSTORE SWAP1 DUP3 MSTORE SWAP10 SWAP1 KECCAK256 DUP12 MLOAD PUSH1 0x6 SWAP1 SWAP11 MUL ADD SWAP9 DUP10 SSTORE SWAP9 MLOAD DUP9 DUP4 ADD SSTORE SWAP5 MLOAD PUSH1 0x2 DUP9 ADD DUP1 SLOAD PUSH1 0x1 PUSH1 0x1 PUSH1 0xA0 SHL SUB NOT AND SWAP2 DUP9 AND SWAP2 SWAP1 SWAP2 OR SWAP1 SSTORE SWAP2 MLOAD PUSH1 0x3 DUP8 ADD SSTORE MLOAD PUSH1 0x4 DUP1 DUP8 ADD SWAP2 SWAP1 SWAP2 SSTORE SWAP3 MLOAD PUSH1 0x5 SWAP1 SWAP6 ADD DUP1 SLOAD PUSH1 0xFF NOT AND SWAP6 ISZERO ISZERO SWAP6 SWAP1 SWAP6 OR SWAP1 SWAP5 SSTORE SWAP3 SLOAD SWAP3 MLOAD PUSH4 0xA9059CBB PUSH1 0xE0 SHL DUP2 MSTORE SWAP1 DUP2 ADD SWAP4 SWAP1 SWAP4 MSTORE PUSH1 0x24 DUP4 ADD DUP6 SWAP1 MSTORE AND SWAP1 PUSH4 0xA9059CBB SWAP1 PUSH1 0x44 ADD PUSH1 0x20 PUSH1 0x40 MLOAD DUP1 DUP4 SUB DUP2 PUSH1 0x0 DUP8 GAS CALL ISZERO DUP1 ISZERO PUSH2 0x3DED JUMPI RETURNDATASIZE PUSH1 0x0 DUP1 RETURNDATACOPY RETURNDATASIZE PUSH1 0x0 REVERT JUMPDEST POP POP POP POP PUSH1 0x40 MLOAD RETURNDATASIZE PUSH1 0x1F NOT PUSH1 0x1F DUP3 ADD AND DUP3 ADD DUP1 PUSH1 0x40 MSTORE POP DUP2 ADD SWAP1 PUSH2 0x3E11 SWAP2 SWAP1 PUSH2 0x4F87 JUMP JUMPDEST POP PUSH1 0x1B DUP1 SLOAD SWAP1 PUSH1 0x0 PUSH2 0x1D8C DUP4 PUSH2 0x4F36 JUMP JUMPDEST PUSH1 0x0 PUSH2 0x3E2D DUP3 PUSH2 0x20E8 JUMP JUMPDEST PUSH1 0x1 PUSH2 0x120 DUP3 ADD MSTORE PUSH1 0x5 DUP1 SLOAD SWAP2 SWAP3 POP DUP3 SWAP2 DUP5 SWAP1 DUP2 LT PUSH2 0x3BAF JUMPI PUSH2 0x3BAF PUSH2 0x4F4F JUMP JUMPDEST PUSH1 0x0 PUSH2 0x3E59 DUP4 PUSH2 0x376D JUMP JUMPDEST SWAP1 POP PUSH1 0x0 PUSH2 0x3E66 DUP5 PUSH2 0x23B9 JUMP JUMPDEST SWAP1 POP PUSH1 0x0 PUSH1 0x1A SLOAD SWAP1 POP PUSH2 0x3EBA PUSH1 0x40 MLOAD DUP1 PUSH1 0xE0 ADD PUSH1 0x40 MSTORE DUP1 PUSH1 0x0 DUP2 MSTORE PUSH1 0x20 ADD PUSH1 0x0 DUP2 MSTORE PUSH1 0x20 ADD PUSH1 0x0 DUP2 MSTORE PUSH1 0x20 ADD PUSH1 0x0 DUP2 MSTORE PUSH1 0x20 ADD PUSH1 0x0 PUSH1 0x1 PUSH1 0x1 PUSH1 0xA0 SHL SUB AND DUP2 MSTORE PUSH1 0x20 ADD PUSH1 0x0 DUP2 MSTORE PUSH1 0x20 ADD PUSH1 0x0 ISZERO ISZERO DUP2 MSTORE POP SWAP1 JUMP JUMPDEST DUP2 DUP2 MSTORE PUSH1 0x20 DUP2 ADD DUP7 DUP2 MSTORE PUSH1 0x60 DUP3 ADD DUP7 DUP2 MSTORE PUSH1 0x40 DUP7 DUP2 ADD DUP1 MLOAD PUSH1 0x1 PUSH1 0x1 PUSH1 0xA0 SHL SUB SWAP1 DUP2 AND PUSH1 0x80 DUP8 ADD SWAP1 DUP2 MSTORE PUSH1 0xA0 DUP8 ADD DUP10 DUP2 MSTORE PUSH1 0x1 PUSH1 0xC0 DUP10 ADD DUP2 DUP2 MSTORE PUSH1 0x10 DUP1 SLOAD DUP1 DUP5 ADD DUP3 SSTORE PUSH1 0x0 SWAP2 SWAP1 SWAP2 MSTORE DUP11 MLOAD PUSH32 0x1B6847DC741A1B0CD08D278845F9D819D87B734759AFB55FE2DE5CB82A9AE672 PUSH1 0x7 SWAP1 SWAP3 MUL SWAP2 DUP3 ADD SSTORE SWAP9 MLOAD PUSH32 0x1B6847DC741A1B0CD08D278845F9D819D87B734759AFB55FE2DE5CB82A9AE673 DUP11 ADD SSTORE DUP7 DUP11 ADD MLOAD PUSH32 0x1B6847DC741A1B0CD08D278845F9D819D87B734759AFB55FE2DE5CB82A9AE674 DUP11 ADD SSTORE SWAP7 MLOAD PUSH32 0x1B6847DC741A1B0CD08D278845F9D819D87B734759AFB55FE2DE5CB82A9AE675 DUP10 ADD SSTORE SWAP2 MLOAD PUSH32 0x1B6847DC741A1B0CD08D278845F9D819D87B734759AFB55FE2DE5CB82A9AE676 DUP9 ADD DUP1 SLOAD PUSH1 0x1 PUSH1 0x1 PUSH1 0xA0 SHL SUB NOT AND SWAP2 DUP6 AND SWAP2 SWAP1 SWAP2 OR SWAP1 SSTORE MLOAD PUSH32 0x1B6847DC741A1B0CD08D278845F9D819D87B734759AFB55FE2DE5CB82A9AE677 DUP8 ADD SSTORE SWAP4 MLOAD PUSH32 0x1B6847DC741A1B0CD08D278845F9D819D87B734759AFB55FE2DE5CB82A9AE678 SWAP1 SWAP6 ADD DUP1 SLOAD PUSH1 0xFF NOT AND SWAP6 ISZERO ISZERO SWAP6 SWAP1 SWAP6 OR SWAP1 SWAP5 SSTORE SWAP2 SLOAD SWAP2 MLOAD SWAP1 MLOAD PUSH4 0xA9059CBB PUSH1 0xE0 SHL DUP2 MSTORE SWAP1 DUP4 AND PUSH1 0x4 DUP3 ADD MSTORE PUSH1 0x24 DUP2 ADD DUP7 SWAP1 MSTORE SWAP2 AND SWAP1 PUSH4 0xA9059CBB SWAP1 PUSH1 0x44 ADD PUSH1 0x20 PUSH1 0x40 MLOAD DUP1 DUP4 SUB DUP2 PUSH1 0x0 DUP8 GAS CALL ISZERO DUP1 ISZERO PUSH2 0x4082 JUMPI RETURNDATASIZE PUSH1 0x0 DUP1 RETURNDATACOPY RETURNDATASIZE PUSH1 0x0 REVERT JUMPDEST POP POP POP POP PUSH1 0x40 MLOAD RETURNDATASIZE PUSH1 0x1F NOT PUSH1 0x1F DUP3 ADD AND DUP3 ADD DUP1 PUSH1 0x40 MSTORE POP DUP2 ADD SWAP1 PUSH2 0x40A6 SWAP2 SWAP1 PUSH2 0x4F87 JUMP JUMPDEST POP PUSH1 0x1A DUP1 SLOAD SWAP1 PUSH1 0x0 PUSH2 0x1D8C DUP4 PUSH2 0x4F36 JUMP JUMPDEST PUSH1 0x0 PUSH2 0x40C2 DUP3 PUSH2 0x381D JUMP JUMPDEST PUSH1 0x1 SLOAD PUSH1 0x0 SLOAD PUSH1 0x40 MLOAD PUSH4 0xA9059CBB PUSH1 0xE0 SHL DUP2 MSTORE PUSH1 0x1 PUSH1 0x1 PUSH1 0xA0 SHL SUB SWAP2 DUP3 AND PUSH1 0x4 DUP3 ADD MSTORE PUSH1 0x24 DUP2 ADD DUP5 SWAP1 MSTORE SWAP3 SWAP4 POP AND SWAP1 PUSH4 0xA9059CBB SWAP1 PUSH1 0x44 ADD PUSH1 0x20 PUSH1 0x40 MLOAD DUP1 DUP4 SUB DUP2 PUSH1 0x0 DUP8 GAS CALL ISZERO DUP1 ISZERO PUSH2 0x4119 JUMPI RETURNDATASIZE PUSH1 0x0 DUP1 RETURNDATACOPY RETURNDATASIZE PUSH1 0x0 REVERT JUMPDEST POP POP POP POP PUSH1 0x40 MLOAD RETURNDATASIZE PUSH1 0x1F NOT PUSH1 0x1F DUP3 ADD AND DUP3 ADD DUP1 PUSH1 0x40 MSTORE POP DUP2 ADD SWAP1 PUSH2 0x183F SWAP2 SWAP1 PUSH2 0x4F87 JUMP JUMPDEST PUSH1 0x40 MLOAD DUP1 PUSH2 0x160 ADD PUSH1 0x40 MSTORE DUP1 PUSH1 0x0 DUP2 MSTORE PUSH1 0x20 ADD PUSH1 0x0 DUP2 MSTORE PUSH1 0x20 ADD PUSH1 0x0 PUSH1 0x1 PUSH1 0x1 PUSH1 0xA0 SHL SUB AND DUP2 MSTORE PUSH1 0x20 ADD PUSH1 0x60 DUP2 MSTORE PUSH1 0x20 ADD PUSH1 0x60 DUP2 MSTORE PUSH1 0x20 ADD PUSH1 0x0 DUP2 MSTORE PUSH1 0x20 ADD PUSH1 0x0 DUP2 MSTORE PUSH1 0x20 ADD PUSH1 0x0 DUP2 MSTORE PUSH1 0x20 ADD PUSH1 0x0 ISZERO ISZERO DUP2 MSTORE PUSH1 0x20 ADD PUSH1 0x0 ISZERO ISZERO DUP2 MSTORE PUSH1 0x20 ADD PUSH1 0x0 ISZERO ISZERO DUP2 MSTORE POP SWAP1 JUMP JUMPDEST DUP3 DUP1 SLOAD PUSH2 0x41B2 SWAP1 PUSH2 0x4EAF JUMP JUMPDEST SWAP1 PUSH1 0x0 MSTORE PUSH1 0x20 PUSH1 0x0 KECCAK256 SWAP1 PUSH1 0x1F ADD PUSH1 0x20 SWAP1 DIV DUP2 ADD SWAP3 DUP3 PUSH2 0x41D4 JUMPI PUSH1 0x0 DUP6 SSTORE PUSH2 0x421A JUMP JUMPDEST DUP3 PUSH1 0x1F LT PUSH2 0x41ED JUMPI DUP1 MLOAD PUSH1 0xFF NOT AND DUP4 DUP1 ADD OR DUP6 SSTORE PUSH2 0x421A JUMP JUMPDEST DUP3 DUP1 ADD PUSH1 0x1 ADD DUP6 SSTORE DUP3 ISZERO PUSH2 0x421A JUMPI SWAP2 DUP3 ADD JUMPDEST DUP3 DUP2 GT ISZERO PUSH2 0x421A JUMPI DUP3 MLOAD DUP3 SSTORE SWAP2 PUSH1 0x20 ADD SWAP2 SWAP1 PUSH1 0x1 ADD SWAP1 PUSH2 0x41FF JUMP JUMPDEST POP PUSH2 0x4226 SWAP3 SWAP2 POP PUSH2 0x4380 JUMP JUMPDEST POP SWAP1 JUMP JUMPDEST PUSH1 0x40 MLOAD DUP1 PUSH1 0xE0 ADD PUSH1 0x40 MSTORE DUP1 PUSH1 0x0 DUP2 MSTORE PUSH1 0x20 ADD PUSH1 0x0 DUP2 MSTORE PUSH1 0x20 ADD PUSH1 0x0 PUSH1 0x1 PUSH1 0x1 PUSH1 0xA0 SHL SUB AND DUP2 MSTORE PUSH1 0x20 ADD PUSH1 0x0 DUP2 MSTORE PUSH1 0x20 ADD PUSH1 0x60 DUP2 MSTORE PUSH1 0x20 ADD PUSH1 0x0 ISZERO ISZERO DUP2 MSTORE PUSH1 0x20 ADD PUSH1 0x0 ISZERO ISZERO DUP2 MSTORE POP SWAP1 JUMP JUMPDEST PUSH1 0x40 MLOAD DUP1 PUSH2 0x100 ADD PUSH1 0x40 MSTORE DUP1 PUSH1 0x0 DUP2 MSTORE PUSH1 0x20 ADD PUSH1 0x0 DUP2 MSTORE PUSH1 0x20 ADD PUSH1 0x0 PUSH1 0x1 PUSH1 0x1 PUSH1 0xA0 SHL SUB AND DUP2 MSTORE PUSH1 0x20 ADD PUSH1 0x60 DUP2 MSTORE PUSH1 0x20 ADD PUSH1 0x60 DUP2 MSTORE PUSH1 0x20 ADD PUSH1 0x60 DUP2 MSTORE PUSH1 0x20 ADD PUSH1 0x60 DUP2 MSTORE PUSH1 0x20 ADD PUSH1 0x0 ISZERO ISZERO DUP2 MSTORE POP SWAP1 JUMP JUMPDEST PUSH1 0x40 MLOAD DUP1 PUSH1 0xC0 ADD PUSH1 0x40 MSTORE DUP1 PUSH1 0x0 DUP2 MSTORE PUSH1 0x20 ADD PUSH1 0x0 PUSH1 0x1 PUSH1 0x1 PUSH1 0xA0 SHL SUB AND DUP2 MSTORE PUSH1 0x20 ADD PUSH1 0x60 DUP2 MSTORE PUSH1 0x20 ADD PUSH1 0x60 DUP2 MSTORE PUSH1 0x20 ADD PUSH1 0x60 DUP2 MSTORE PUSH1 0x20 ADD PUSH1 0x0 ISZERO ISZERO DUP2 MSTORE POP SWAP1 JUMP JUMPDEST PUSH1 0x40 MLOAD DUP1 PUSH1 0xC0 ADD PUSH1 0x40 MSTORE DUP1 PUSH1 0x0 DUP2 MSTORE PUSH1 0x20 ADD PUSH1 0x0 DUP2 MSTORE PUSH1 0x20 ADD PUSH1 0x0 DUP2 MSTORE PUSH1 0x20 ADD PUSH1 0x0 DUP2 MSTORE PUSH1 0x20 ADD PUSH1 0x0 ISZERO ISZERO DUP2 MSTORE PUSH1 0x20 ADD PUSH1 0x0 ISZERO ISZERO DUP2 MSTORE POP SWAP1 JUMP JUMPDEST PUSH1 0x40 MLOAD DUP1 PUSH1 0xC0 ADD PUSH1 0x40 MSTORE DUP1 PUSH1 0x0 DUP2 MSTORE PUSH1 0x20 ADD PUSH1 0x0 PUSH1 0x1 PUSH1 0x1 PUSH1 0xA0 SHL SUB AND DUP2 MSTORE PUSH1 0x20 ADD PUSH1 0x60 DUP2 MSTORE PUSH1 0x20 ADD PUSH1 0x60 DUP2 MSTORE PUSH1 0x20 ADD PUSH1 0x0 DUP2 MSTORE PUSH1 0x20 ADD PUSH1 0x0 ISZERO ISZERO DUP2 MSTORE POP SWAP1 JUMP JUMPDEST JUMPDEST DUP1 DUP3 GT ISZERO PUSH2 0x4226 JUMPI PUSH1 0x0 DUP2 SSTORE PUSH1 0x1 ADD PUSH2 0x4381 JUMP JUMPDEST PUSH1 0x0 PUSH1 0x20 DUP3 DUP5 SUB SLT ISZERO PUSH2 0x43A7 JUMPI PUSH1 0x0 DUP1 REVERT JUMPDEST POP CALLDATALOAD SWAP2 SWAP1 POP JUMP JUMPDEST PUSH1 0x0 DUP2 MLOAD DUP1 DUP5 MSTORE PUSH1 0x0 JUMPDEST DUP2 DUP2 LT ISZERO PUSH2 0x43D4 JUMPI PUSH1 0x20 DUP2 DUP6 ADD DUP2 ADD MLOAD DUP7 DUP4 ADD DUP3 ADD MSTORE ADD PUSH2 0x43B8 JUMP JUMPDEST DUP2 DUP2 GT ISZERO PUSH2 0x43E6 JUMPI PUSH1 0x0 PUSH1 0x20 DUP4 DUP8 ADD ADD MSTORE JUMPDEST POP PUSH1 0x1F ADD PUSH1 0x1F NOT AND SWAP3 SWAP1 SWAP3 ADD PUSH1 0x20 ADD SWAP3 SWAP2 POP POP JUMP JUMPDEST DUP12 DUP2 MSTORE PUSH1 0x20 DUP2 ADD DUP12 SWAP1 MSTORE PUSH1 0x1 PUSH1 0x1 PUSH1 0xA0 SHL SUB DUP11 AND PUSH1 0x40 DUP3 ADD MSTORE PUSH2 0x160 PUSH1 0x60 DUP3 ADD DUP2 SWAP1 MSTORE PUSH1 0x0 SWAP1 PUSH2 0x442D DUP4 DUP3 ADD DUP13 PUSH2 0x43AE JUMP JUMPDEST SWAP1 POP DUP3 DUP2 SUB PUSH1 0x80 DUP5 ADD MSTORE PUSH2 0x4441 DUP2 DUP12 PUSH2 0x43AE JUMP JUMPDEST PUSH1 0xA0 DUP5 ADD SWAP10 SWAP1 SWAP10 MSTORE POP POP PUSH1 0xC0 DUP2 ADD SWAP6 SWAP1 SWAP6 MSTORE PUSH1 0xE0 DUP6 ADD SWAP4 SWAP1 SWAP4 MSTORE SWAP1 ISZERO ISZERO PUSH2 0x100 DUP5 ADD MSTORE ISZERO ISZERO PUSH2 0x120 DUP4 ADD MSTORE ISZERO ISZERO PUSH2 0x140 SWAP1 SWAP2 ADD MSTORE SWAP6 SWAP5 POP POP POP POP POP JUMP JUMPDEST DUP1 CALLDATALOAD PUSH1 0x1 PUSH1 0x1 PUSH1 0xA0 SHL SUB DUP2 AND DUP2 EQ PUSH2 0x4495 JUMPI PUSH1 0x0 DUP1 REVERT JUMPDEST SWAP2 SWAP1 POP JUMP JUMPDEST PUSH1 0x0 PUSH1 0x20 DUP3 DUP5 SUB SLT ISZERO PUSH2 0x44AC JUMPI PUSH1 0x0 DUP1 REVERT JUMPDEST PUSH2 0x1DD3 DUP3 PUSH2 0x447E JUMP JUMPDEST PUSH4 0x4E487B71 PUSH1 0xE0 SHL PUSH1 0x0 MSTORE PUSH1 0x41 PUSH1 0x4 MSTORE PUSH1 0x24 PUSH1 0x0 REVERT JUMPDEST PUSH1 0x0 DUP3 PUSH1 0x1F DUP4 ADD SLT PUSH2 0x44DC JUMPI PUSH1 0x0 DUP1 REVERT JUMPDEST DUP2 CALLDATALOAD PUSH8 0xFFFFFFFFFFFFFFFF DUP1 DUP3 GT ISZERO PUSH2 0x44F7 JUMPI PUSH2 0x44F7 PUSH2 0x44B5 JUMP JUMPDEST PUSH1 0x40 MLOAD PUSH1 0x1F DUP4 ADD PUSH1 0x1F NOT SWAP1 DUP2 AND PUSH1 0x3F ADD AND DUP2 ADD SWAP1 DUP3 DUP3 GT DUP2 DUP4 LT OR ISZERO PUSH2 0x451F JUMPI PUSH2 0x451F PUSH2 0x44B5 JUMP JUMPDEST DUP2 PUSH1 0x40 MSTORE DUP4 DUP2 MSTORE DUP7 PUSH1 0x20 DUP6 DUP9 ADD ADD GT ISZERO PUSH2 0x4538 JUMPI PUSH1 0x0 DUP1 REVERT JUMPDEST DUP4 PUSH1 0x20 DUP8 ADD PUSH1 0x20 DUP4 ADD CALLDATACOPY PUSH1 0x0 PUSH1 0x20 DUP6 DUP4 ADD ADD MSTORE DUP1 SWAP5 POP POP POP POP POP SWAP3 SWAP2 POP POP JUMP JUMPDEST PUSH1 0x0 DUP1 PUSH1 0x0 DUP1 PUSH1 0x0 DUP1 PUSH1 0x0 PUSH1 0xE0 DUP9 DUP11 SUB SLT ISZERO PUSH2 0x4573 JUMPI PUSH1 0x0 DUP1 REVERT JUMPDEST DUP8 CALLDATALOAD SWAP7 POP PUSH2 0x4583 PUSH1 0x20 DUP10 ADD PUSH2 0x447E JUMP JUMPDEST SWAP6 POP PUSH1 0x40 DUP9 ADD CALLDATALOAD PUSH8 0xFFFFFFFFFFFFFFFF DUP1 DUP3 GT ISZERO PUSH2 0x45A0 JUMPI PUSH1 0x0 DUP1 REVERT JUMPDEST PUSH2 0x45AC DUP12 DUP4 DUP13 ADD PUSH2 0x44CB JUMP JUMPDEST SWAP7 POP PUSH1 0x60 DUP11 ADD CALLDATALOAD SWAP2 POP DUP1 DUP3 GT ISZERO PUSH2 0x45C2 JUMPI PUSH1 0x0 DUP1 REVERT JUMPDEST POP PUSH2 0x45CF DUP11 DUP3 DUP12 ADD PUSH2 0x44CB JUMP JUMPDEST SWAP8 SWAP11 SWAP7 SWAP10 POP SWAP5 SWAP8 PUSH1 0x80 DUP2 ADD CALLDATALOAD SWAP7 PUSH1 0xA0 DUP3 ADD CALLDATALOAD SWAP7 POP PUSH1 0xC0 SWAP1 SWAP2 ADD CALLDATALOAD SWAP5 POP SWAP3 POP POP POP JUMP JUMPDEST PUSH1 0x0 DUP1 PUSH1 0x0 DUP1 PUSH1 0x80 DUP6 DUP8 SUB SLT ISZERO PUSH2 0x4607 JUMPI PUSH1 0x0 DUP1 REVERT JUMPDEST DUP5 CALLDATALOAD SWAP4 POP PUSH1 0x20 DUP6 ADD CALLDATALOAD SWAP3 POP PUSH2 0x461E PUSH1 0x40 DUP7 ADD PUSH2 0x447E JUMP JUMPDEST SWAP2 POP PUSH1 0x60 DUP6 ADD CALLDATALOAD PUSH8 0xFFFFFFFFFFFFFFFF DUP2 GT ISZERO PUSH2 0x463A JUMPI PUSH1 0x0 DUP1 REVERT JUMPDEST PUSH2 0x4646 DUP8 DUP3 DUP9 ADD PUSH2 0x44CB JUMP JUMPDEST SWAP2 POP POP SWAP3 SWAP6 SWAP2 SWAP5 POP SWAP3 POP JUMP JUMPDEST DUP1 MLOAD DUP3 MSTORE PUSH1 0x20 DUP2 ADD MLOAD PUSH1 0x20 DUP4 ADD MSTORE PUSH1 0x1 DUP1 PUSH1 0xA0 SHL SUB PUSH1 0x40 DUP3 ADD MLOAD AND PUSH1 0x40 DUP4 ADD MSTORE PUSH1 0x60 DUP2 ADD MLOAD PUSH1 0x60 DUP4 ADD MSTORE PUSH1 0x0 PUSH1 0x80 DUP3 ADD MLOAD PUSH1 0xE0 PUSH1 0x80 DUP6 ADD MSTORE PUSH2 0x4697 PUSH1 0xE0 DUP6 ADD DUP3 PUSH2 0x43AE JUMP JUMPDEST SWAP1 POP PUSH1 0xA0 DUP4 ADD MLOAD ISZERO ISZERO PUSH1 0xA0 DUP6 ADD MSTORE PUSH1 0xC0 DUP4 ADD MLOAD ISZERO ISZERO PUSH1 0xC0 DUP6 ADD MSTORE DUP1 SWAP2 POP POP SWAP3 SWAP2 POP POP JUMP JUMPDEST PUSH1 0x20 DUP2 MSTORE PUSH1 0x0 PUSH2 0x1DD3 PUSH1 0x20 DUP4 ADD DUP5 PUSH2 0x4652 JUMP JUMPDEST PUSH1 0x0 DUP1 PUSH1 0x40 DUP4 DUP6 SUB SLT ISZERO PUSH2 0x46E1 JUMPI PUSH1 0x0 DUP1 REVERT JUMPDEST DUP3 CALLDATALOAD SWAP2 POP PUSH2 0x46F1 PUSH1 0x20 DUP5 ADD PUSH2 0x447E JUMP JUMPDEST SWAP1 POP SWAP3 POP SWAP3 SWAP1 POP JUMP JUMPDEST PUSH1 0x0 DUP1 PUSH1 0x40 DUP4 DUP6 SUB SLT ISZERO PUSH2 0x470D JUMPI PUSH1 0x0 DUP1 REVERT JUMPDEST PUSH2 0x4716 DUP4 PUSH2 0x447E JUMP JUMPDEST SWAP5 PUSH1 0x20 SWAP4 SWAP1 SWAP4 ADD CALLDATALOAD SWAP4 POP POP POP JUMP JUMPDEST PUSH1 0x0 PUSH2 0x160 DUP3 MLOAD DUP5 MSTORE PUSH1 0x20 DUP4 ADD MLOAD PUSH1 0x20 DUP6 ADD MSTORE PUSH1 0x40 DUP4 ADD MLOAD PUSH2 0x4751 PUSH1 0x40 DUP7 ADD DUP3 PUSH1 0x1 PUSH1 0x1 PUSH1 0xA0 SHL SUB AND SWAP1 MSTORE JUMP JUMPDEST POP PUSH1 0x60 DUP4 ADD MLOAD DUP2 PUSH1 0x60 DUP7 ADD MSTORE PUSH2 0x4769 DUP3 DUP7 ADD DUP3 PUSH2 0x43AE JUMP JUMPDEST SWAP2 POP POP PUSH1 0x80 DUP4 ADD MLOAD DUP5 DUP3 SUB PUSH1 0x80 DUP7 ADD MSTORE PUSH2 0x4783 DUP3 DUP3 PUSH2 0x43AE JUMP JUMPDEST SWAP2 POP POP PUSH1 0xA0 DUP4 ADD MLOAD PUSH1 0xA0 DUP6 ADD MSTORE PUSH1 0xC0 DUP4 ADD MLOAD PUSH1 0xC0 DUP6 ADD MSTORE PUSH1 0xE0 DUP4 ADD MLOAD PUSH1 0xE0 DUP6 ADD MSTORE PUSH2 0x100 DUP1 DUP5 ADD MLOAD PUSH2 0x47B8 DUP3 DUP8 ADD DUP3 ISZERO ISZERO SWAP1 MSTORE JUMP JUMPDEST POP POP PUSH2 0x120 DUP4 DUP2 ADD MLOAD ISZERO ISZERO SWAP1 DUP6 ADD MSTORE PUSH2 0x140 DUP1 DUP5 ADD MLOAD DUP1 ISZERO ISZERO DUP3 DUP8 ADD MSTORE PUSH2 0x1EAE JUMP JUMPDEST PUSH1 0x0 PUSH1 0x20 DUP1 DUP4 ADD DUP2 DUP5 MSTORE DUP1 DUP6 MLOAD DUP1 DUP4 MSTORE PUSH1 0x40 DUP7 ADD SWAP2 POP PUSH1 0x40 DUP2 PUSH1 0x5 SHL DUP8 ADD ADD SWAP3 POP DUP4 DUP8 ADD PUSH1 0x0 JUMPDEST DUP3 DUP2 LT ISZERO PUSH2 0x482F JUMPI PUSH1 0x3F NOT DUP9 DUP7 SUB ADD DUP5 MSTORE PUSH2 0x481D DUP6 DUP4 MLOAD PUSH2 0x4724 JUMP JUMPDEST SWAP5 POP SWAP3 DUP6 ADD SWAP3 SWAP1 DUP6 ADD SWAP1 PUSH1 0x1 ADD PUSH2 0x4801 JUMP JUMPDEST POP SWAP3 SWAP8 SWAP7 POP POP POP POP POP POP POP JUMP JUMPDEST PUSH1 0x0 DUP1 PUSH1 0x40 DUP4 DUP6 SUB SLT ISZERO PUSH2 0x484F JUMPI PUSH1 0x0 DUP1 REVERT JUMPDEST POP POP DUP1 CALLDATALOAD SWAP3 PUSH1 0x20 SWAP1 SWAP2 ADD CALLDATALOAD SWAP2 POP JUMP JUMPDEST DUP7 DUP2 MSTORE PUSH1 0x1 PUSH1 0x1 PUSH1 0xA0 SHL SUB DUP7 AND PUSH1 0x20 DUP3 ADD MSTORE PUSH1 0xC0 PUSH1 0x40 DUP3 ADD DUP2 SWAP1 MSTORE PUSH1 0x0 SWAP1 PUSH2 0x4888 SWAP1 DUP4 ADD DUP8 PUSH2 0x43AE JUMP JUMPDEST DUP3 DUP2 SUB PUSH1 0x60 DUP5 ADD MSTORE PUSH2 0x489A DUP2 DUP8 PUSH2 0x43AE JUMP JUMPDEST PUSH1 0x80 DUP5 ADD SWAP6 SWAP1 SWAP6 MSTORE POP POP SWAP1 ISZERO ISZERO PUSH1 0xA0 SWAP1 SWAP2 ADD MSTORE SWAP5 SWAP4 POP POP POP POP JUMP JUMPDEST PUSH1 0x0 PUSH2 0x100 DUP3 MLOAD DUP5 MSTORE PUSH1 0x20 DUP4 ADD MLOAD PUSH1 0x20 DUP6 ADD MSTORE PUSH1 0x40 DUP4 ADD MLOAD PUSH2 0x48E2 PUSH1 0x40 DUP7 ADD DUP3 PUSH1 0x1 PUSH1 0x1 PUSH1 0xA0 SHL SUB AND SWAP1 MSTORE JUMP JUMPDEST POP PUSH1 0x60 DUP4 ADD MLOAD DUP2 PUSH1 0x60 DUP7 ADD MSTORE PUSH2 0x48FA DUP3 DUP7 ADD DUP3 PUSH2 0x43AE JUMP JUMPDEST SWAP2 POP POP PUSH1 0x80 DUP4 ADD MLOAD DUP5 DUP3 SUB PUSH1 0x80 DUP7 ADD MSTORE PUSH2 0x4914 DUP3 DUP3 PUSH2 0x43AE JUMP JUMPDEST SWAP2 POP POP PUSH1 0xA0 DUP4 ADD MLOAD DUP5 DUP3 SUB PUSH1 0xA0 DUP7 ADD MSTORE PUSH2 0x492E DUP3 DUP3 PUSH2 0x43AE JUMP JUMPDEST SWAP2 POP POP PUSH1 0xC0 DUP4 ADD MLOAD DUP5 DUP3 SUB PUSH1 0xC0 DUP7 ADD MSTORE PUSH2 0x4948 DUP3 DUP3 PUSH2 0x43AE JUMP JUMPDEST SWAP2 POP POP PUSH1 0xE0 DUP4 ADD MLOAD PUSH2 0x495E PUSH1 0xE0 DUP7 ADD DUP3 ISZERO ISZERO SWAP1 MSTORE JUMP JUMPDEST POP SWAP4 SWAP3 POP POP POP JUMP JUMPDEST PUSH1 0x20 DUP2 MSTORE PUSH1 0x0 PUSH2 0x1DD3 PUSH1 0x20 DUP4 ADD DUP5 PUSH2 0x48B5 JUMP JUMPDEST PUSH1 0x0 DUP1 PUSH1 0x0 DUP1 PUSH1 0x80 DUP6 DUP8 SUB SLT ISZERO PUSH2 0x498F JUMPI PUSH1 0x0 DUP1 REVERT JUMPDEST PUSH2 0x4998 DUP6 PUSH2 0x447E JUMP JUMPDEST SWAP4 POP PUSH1 0x20 DUP6 ADD CALLDATALOAD PUSH8 0xFFFFFFFFFFFFFFFF DUP1 DUP3 GT ISZERO PUSH2 0x49B5 JUMPI PUSH1 0x0 DUP1 REVERT JUMPDEST PUSH2 0x49C1 DUP9 DUP4 DUP10 ADD PUSH2 0x44CB JUMP JUMPDEST SWAP5 POP PUSH1 0x40 DUP8 ADD CALLDATALOAD SWAP2 POP DUP1 DUP3 GT ISZERO PUSH2 0x49D7 JUMPI PUSH1 0x0 DUP1 REVERT JUMPDEST PUSH2 0x49E3 DUP9 DUP4 DUP10 ADD PUSH2 0x44CB JUMP JUMPDEST SWAP4 POP PUSH1 0x60 DUP8 ADD CALLDATALOAD SWAP2 POP DUP1 DUP3 GT ISZERO PUSH2 0x49F9 JUMPI PUSH1 0x0 DUP1 REVERT JUMPDEST POP PUSH2 0x4646 DUP8 DUP3 DUP9 ADD PUSH2 0x44CB JUMP JUMPDEST PUSH1 0x0 PUSH1 0x20 DUP1 DUP4 ADD DUP2 DUP5 MSTORE DUP1 DUP6 MLOAD DUP1 DUP4 MSTORE PUSH1 0x40 DUP7 ADD SWAP2 POP PUSH1 0x40 DUP2 PUSH1 0x5 SHL DUP8 ADD ADD SWAP3 POP DUP4 DUP8 ADD PUSH1 0x0 JUMPDEST DUP3 DUP2 LT ISZERO PUSH2 0x482F JUMPI PUSH1 0x3F NOT DUP9 DUP7 SUB ADD DUP5 MSTORE PUSH2 0x4A49 DUP6 DUP4 MLOAD PUSH2 0x4652 JUMP JUMPDEST SWAP5 POP SWAP3 DUP6 ADD SWAP3 SWAP1 DUP6 ADD SWAP1 PUSH1 0x1 ADD PUSH2 0x4A2D JUMP JUMPDEST PUSH1 0x20 DUP2 MSTORE PUSH1 0x0 PUSH2 0x1DD3 PUSH1 0x20 DUP4 ADD DUP5 PUSH2 0x4724 JUMP JUMPDEST PUSH1 0x0 DUP1 PUSH1 0x0 PUSH1 0x60 DUP5 DUP7 SUB SLT ISZERO PUSH2 0x4A83 JUMPI PUSH1 0x0 DUP1 REVERT JUMPDEST PUSH2 0x4A8C DUP5 PUSH2 0x447E JUMP JUMPDEST SWAP3 POP PUSH1 0x20 DUP5 ADD CALLDATALOAD PUSH8 0xFFFFFFFFFFFFFFFF DUP1 DUP3 GT ISZERO PUSH2 0x4AA9 JUMPI PUSH1 0x0 DUP1 REVERT JUMPDEST PUSH2 0x4AB5 DUP8 DUP4 DUP9 ADD PUSH2 0x44CB JUMP JUMPDEST SWAP4 POP PUSH1 0x40 DUP7 ADD CALLDATALOAD SWAP2 POP DUP1 DUP3 GT ISZERO PUSH2 0x4ACB JUMPI PUSH1 0x0 DUP1 REVERT JUMPDEST POP PUSH2 0x4AD8 DUP7 DUP3 DUP8 ADD PUSH2 0x44CB JUMP JUMPDEST SWAP2 POP POP SWAP3 POP SWAP3 POP SWAP3 JUMP JUMPDEST PUSH1 0x0 PUSH1 0x20 DUP1 DUP4 ADD DUP2 DUP5 MSTORE DUP1 DUP6 MLOAD DUP1 DUP4 MSTORE PUSH1 0x40 DUP7 ADD SWAP2 POP PUSH1 0x40 DUP2 PUSH1 0x5 SHL DUP8 ADD ADD SWAP3 POP DUP4 DUP8 ADD PUSH1 0x0 JUMPDEST DUP3 DUP2 LT ISZERO PUSH2 0x482F JUMPI PUSH1 0x3F NOT DUP9 DUP7 SUB ADD DUP5 MSTORE PUSH2 0x4B25 DUP6 DUP4 MLOAD PUSH2 0x48B5 JUMP JUMPDEST SWAP5 POP SWAP3 DUP6 ADD SWAP3 SWAP1 DUP6 ADD SWAP1 PUSH1 0x1 ADD PUSH2 0x4B09 JUMP JUMPDEST PUSH1 0x20 DUP2 MSTORE DUP2 MLOAD PUSH1 0x20 DUP3 ADD MSTORE PUSH1 0x1 DUP1 PUSH1 0xA0 SHL SUB PUSH1 0x20 DUP4 ADD MLOAD AND PUSH1 0x40 DUP3 ADD MSTORE PUSH1 0x0 PUSH1 0x40 DUP4 ADD MLOAD PUSH1 0xC0 PUSH1 0x60 DUP5 ADD MSTORE PUSH2 0x4B6F PUSH1 0xE0 DUP5 ADD DUP3 PUSH2 0x43AE JUMP JUMPDEST SWAP1 POP PUSH1 0x60 DUP5 ADD MLOAD PUSH1 0x1F NOT DUP1 DUP6 DUP5 SUB ADD PUSH1 0x80 DUP7 ADD MSTORE PUSH2 0x4B8D DUP4 DUP4 PUSH2 0x43AE JUMP JUMPDEST SWAP3 POP PUSH1 0x80 DUP7 ADD MLOAD SWAP2 POP DUP1 DUP6 DUP5 SUB ADD PUSH1 0xA0 DUP7 ADD MSTORE POP PUSH2 0x4BAB DUP3 DUP3 PUSH2 0x43AE JUMP JUMPDEST SWAP2 POP POP PUSH1 0xA0 DUP5 ADD MLOAD ISZERO ISZERO PUSH1 0xC0 DUP5 ADD MSTORE DUP1 SWAP2 POP POP SWAP3 SWAP2 POP POP JUMP JUMPDEST DUP9 DUP2 MSTORE PUSH1 0x20 DUP2 ADD DUP9 SWAP1 MSTORE PUSH1 0x1 PUSH1 0x1 PUSH1 0xA0 SHL SUB DUP8 AND PUSH1 0x40 DUP3 ADD MSTORE PUSH2 0x100 PUSH1 0x60 DUP3 ADD DUP2 SWAP1 MSTORE PUSH1 0x0 SWAP1 PUSH2 0x4BF6 DUP4 DUP3 ADD DUP10 PUSH2 0x43AE JUMP JUMPDEST SWAP1 POP DUP3 DUP2 SUB PUSH1 0x80 DUP5 ADD MSTORE PUSH2 0x4C0A DUP2 DUP9 PUSH2 0x43AE JUMP JUMPDEST SWAP1 POP DUP3 DUP2 SUB PUSH1 0xA0 DUP5 ADD MSTORE PUSH2 0x4C1E DUP2 DUP8 PUSH2 0x43AE JUMP JUMPDEST SWAP1 POP DUP3 DUP2 SUB PUSH1 0xC0 DUP5 ADD MSTORE PUSH2 0x4C32 DUP2 DUP7 PUSH2 0x43AE JUMP JUMPDEST SWAP2 POP POP DUP3 ISZERO ISZERO PUSH1 0xE0 DUP4 ADD MSTORE SWAP10 SWAP9 POP POP POP POP POP POP POP POP POP JUMP JUMPDEST PUSH1 0x0 DUP1 PUSH1 0x0 DUP1 PUSH1 0x0 PUSH1 0xA0 DUP7 DUP9 SUB SLT ISZERO PUSH2 0x4C62 JUMPI PUSH1 0x0 DUP1 REVERT JUMPDEST PUSH2 0x4C6B DUP7 PUSH2 0x447E JUMP JUMPDEST SWAP5 POP PUSH1 0x20 DUP7 ADD CALLDATALOAD PUSH8 0xFFFFFFFFFFFFFFFF DUP1 DUP3 GT ISZERO PUSH2 0x4C88 JUMPI PUSH1 0x0 DUP1 REVERT JUMPDEST PUSH2 0x4C94 DUP10 DUP4 DUP11 ADD PUSH2 0x44CB JUMP JUMPDEST SWAP6 POP PUSH1 0x40 DUP9 ADD CALLDATALOAD SWAP2 POP DUP1 DUP3 GT ISZERO PUSH2 0x4CAA JUMPI PUSH1 0x0 DUP1 REVERT JUMPDEST PUSH2 0x4CB6 DUP10 DUP4 DUP11 ADD PUSH2 0x44CB JUMP JUMPDEST SWAP5 POP PUSH1 0x60 DUP9 ADD CALLDATALOAD SWAP2 POP DUP1 DUP3 GT ISZERO PUSH2 0x4CCC JUMPI PUSH1 0x0 DUP1 REVERT JUMPDEST PUSH2 0x4CD8 DUP10 DUP4 DUP11 ADD PUSH2 0x44CB JUMP JUMPDEST SWAP4 POP PUSH1 0x80 DUP9 ADD CALLDATALOAD SWAP2 POP DUP1 DUP3 GT ISZERO PUSH2 0x4CEE JUMPI PUSH1 0x0 DUP1 REVERT JUMPDEST POP PUSH2 0x4CFB DUP9 DUP3 DUP10 ADD PUSH2 0x44CB JUMP JUMPDEST SWAP2 POP POP SWAP3 SWAP6 POP SWAP3 SWAP6 SWAP1 SWAP4 POP JUMP JUMPDEST DUP8 DUP2 MSTORE DUP7 PUSH1 0x20 DUP3 ADD MSTORE PUSH1 0x1 DUP1 PUSH1 0xA0 SHL SUB DUP7 AND PUSH1 0x40 DUP3 ADD MSTORE DUP5 PUSH1 0x60 DUP3 ADD MSTORE PUSH1 0xE0 PUSH1 0x80 DUP3 ADD MSTORE PUSH1 0x0 PUSH2 0x4D3B PUSH1 0xE0 DUP4 ADD DUP7 PUSH2 0x43AE JUMP JUMPDEST SWAP4 ISZERO ISZERO PUSH1 0xA0 DUP4 ADD MSTORE POP SWAP1 ISZERO ISZERO PUSH1 0xC0 SWAP1 SWAP2 ADD MSTORE SWAP6 SWAP5 POP POP POP POP POP JUMP JUMPDEST DUP7 DUP2 MSTORE PUSH1 0x1 PUSH1 0x1 PUSH1 0xA0 SHL SUB DUP7 AND PUSH1 0x20 DUP3 ADD MSTORE PUSH1 0xC0 PUSH1 0x40 DUP3 ADD DUP2 SWAP1 MSTORE PUSH1 0x0 SWAP1 PUSH2 0x4D80 SWAP1 DUP4 ADD DUP8 PUSH2 0x43AE JUMP JUMPDEST DUP3 DUP2 SUB PUSH1 0x60 DUP5 ADD MSTORE PUSH2 0x4D92 DUP2 DUP8 PUSH2 0x43AE JUMP JUMPDEST SWAP1 POP DUP3 DUP2 SUB PUSH1 0x80 DUP5 ADD MSTORE PUSH2 0x4DA6 DUP2 DUP7 PUSH2 0x43AE JUMP JUMPDEST SWAP2 POP POP DUP3 ISZERO ISZERO PUSH1 0xA0 DUP4 ADD MSTORE SWAP8 SWAP7 POP POP POP POP POP POP POP JUMP JUMPDEST PUSH1 0x0 DUP1 PUSH1 0x0 DUP1 PUSH1 0x80 DUP6 DUP8 SUB SLT ISZERO PUSH2 0x4DD2 JUMPI PUSH1 0x0 DUP1 REVERT JUMPDEST DUP5 CALLDATALOAD SWAP4 POP PUSH1 0x20 DUP6 ADD CALLDATALOAD SWAP3 POP PUSH2 0x4DE9 PUSH1 0x40 DUP7 ADD PUSH2 0x447E JUMP JUMPDEST SWAP2 POP PUSH2 0x4DF7 PUSH1 0x60 DUP7 ADD PUSH2 0x447E JUMP JUMPDEST SWAP1 POP SWAP3 SWAP6 SWAP2 SWAP5 POP SWAP3 POP JUMP JUMPDEST PUSH1 0x20 DUP2 MSTORE DUP2 MLOAD PUSH1 0x20 DUP3 ADD MSTORE PUSH1 0x1 DUP1 PUSH1 0xA0 SHL SUB PUSH1 0x20 DUP4 ADD MLOAD AND PUSH1 0x40 DUP3 ADD MSTORE PUSH1 0x0 PUSH1 0x40 DUP4 ADD MLOAD PUSH1 0xC0 PUSH1 0x60 DUP5 ADD MSTORE PUSH2 0x4E3A PUSH1 0xE0 DUP5 ADD DUP3 PUSH2 0x43AE JUMP JUMPDEST SWAP1 POP PUSH1 0x60 DUP5 ADD MLOAD PUSH1 0x1F NOT DUP5 DUP4 SUB ADD PUSH1 0x80 DUP6 ADD MSTORE PUSH2 0x4E57 DUP3 DUP3 PUSH2 0x43AE JUMP JUMPDEST SWAP2 POP POP PUSH1 0x80 DUP5 ADD MLOAD PUSH1 0xA0 DUP5 ADD MSTORE PUSH1 0xA0 DUP5 ADD MLOAD ISZERO ISZERO PUSH1 0xC0 DUP5 ADD MSTORE DUP1 SWAP2 POP POP SWAP3 SWAP2 POP POP JUMP JUMPDEST PUSH1 0x0 DUP1 PUSH1 0x0 PUSH1 0x60 DUP5 DUP7 SUB SLT ISZERO PUSH2 0x4E8F JUMPI PUSH1 0x0 DUP1 REVERT JUMPDEST DUP4 CALLDATALOAD SWAP3 POP PUSH1 0x20 DUP5 ADD CALLDATALOAD SWAP2 POP PUSH2 0x4EA6 PUSH1 0x40 DUP6 ADD PUSH2 0x447E JUMP JUMPDEST SWAP1 POP SWAP3 POP SWAP3 POP SWAP3 JUMP JUMPDEST PUSH1 0x1 DUP2 DUP2 SHR SWAP1 DUP3 AND DUP1 PUSH2 0x4EC3 JUMPI PUSH1 0x7F DUP3 AND SWAP2 POP JUMPDEST PUSH1 0x20 DUP3 LT DUP2 SUB PUSH2 0x4EE3 JUMPI PUSH4 0x4E487B71 PUSH1 0xE0 SHL PUSH1 0x0 MSTORE PUSH1 0x22 PUSH1 0x4 MSTORE PUSH1 0x24 PUSH1 0x0 REVERT JUMPDEST POP SWAP2 SWAP1 POP JUMP JUMPDEST PUSH4 0x4E487B71 PUSH1 0xE0 SHL PUSH1 0x0 MSTORE PUSH1 0x11 PUSH1 0x4 MSTORE PUSH1 0x24 PUSH1 0x0 REVERT JUMPDEST PUSH1 0x0 DUP2 PUSH1 0x0 NOT DIV DUP4 GT DUP3 ISZERO ISZERO AND ISZERO PUSH2 0x4F19 JUMPI PUSH2 0x4F19 PUSH2 0x4EE9 JUMP JUMPDEST POP MUL SWAP1 JUMP JUMPDEST PUSH1 0x0 DUP3 NOT DUP3 GT ISZERO PUSH2 0x4F31 JUMPI PUSH2 0x4F31 PUSH2 0x4EE9 JUMP JUMPDEST POP ADD SWAP1 JUMP JUMPDEST PUSH1 0x0 PUSH1 0x1 DUP3 ADD PUSH2 0x4F48 JUMPI PUSH2 0x4F48 PUSH2 0x4EE9 JUMP JUMPDEST POP PUSH1 0x1 ADD SWAP1 JUMP JUMPDEST PUSH4 0x4E487B71 PUSH1 0xE0 SHL PUSH1 0x0 MSTORE PUSH1 0x32 PUSH1 0x4 MSTORE PUSH1 0x24 PUSH1 0x0 REVERT JUMPDEST PUSH1 0x0 DUP3 PUSH2 0x4F82 JUMPI PUSH4 0x4E487B71 PUSH1 0xE0 SHL PUSH1 0x0 MSTORE PUSH1 0x12 PUSH1 0x4 MSTORE PUSH1 0x24 PUSH1 0x0 REVERT JUMPDEST POP DIV SWAP1 JUMP JUMPDEST PUSH1 0x0 PUSH1 0x20 DUP3 DUP5 SUB SLT ISZERO PUSH2 0x4F99 JUMPI PUSH1 0x0 DUP1 REVERT JUMPDEST DUP2 MLOAD DUP1 ISZERO ISZERO DUP2 EQ PUSH2 0x1DD3 JUMPI PUSH1 0x0 DUP1 REVERT INVALID LOG2 PUSH5 0x6970667358 0x22 SLT KECCAK256 0xE0 PUSH14 0x7BA4885A9994A369C7DA0E918AAD LOG2 0xEE PUSH26 0x3C3E903E96D4E05C8B39535C1A64736F6C634300080D00330000 "
		},
		"gasEstimates": {
			"creation": {
				"codeDepositCost": "4089400",
				"executionCost": "infinite",
				"totalCost": "infinite"
			},
			"external": {
				"allApplicants(address)": "infinite",
				"allApplications(uint256)": "infinite",
				"allDonations(uint256)": "infinite",
				"allDonors(address)": "infinite",
				"allGrants(uint256)": "17535",
				"allRewards(address,uint256)": "15619",
				"allVoteCountsOfApplicantsOfDonation(uint256,address)": "2729",
				"allVoters(address)": "infinite",
				"allVotes(uint256)": "13250",
				"applicationsToDonations(uint256,address)": "2742",
				"approveApplication(uint256,uint256)": "infinite",
				"checkIfApplicantExists(address)": "2666",
				"checkIfApplicantHasAlreadyMadeAnApplicationToDonation(uint256,address)": "2788",
				"checkIfDonorExists(address)": "2644",
				"checkIfVoterExists(address)": "2667",
				"checkIfVoterHasAlreadyMadeAVoteInDonation(uint256,address)": "2743",
				"createApplicantAccount(address,string,string,string,string)": "infinite",
				"createDonation(uint256,address,string,string,uint256,uint256,uint256)": "infinite",
				"createDonorAccount(address,string,string)": "infinite",
				"createVoterAccount(address,string,string,string)": "infinite",
				"currentApplicantId()": "2384",
				"currentApplicationId()": "2386",
				"currentDonationId()": "2406",
				"currentDonorId()": "2405",
				"currentGrantId()": "2429",
				"currentRewardId()": "2363",
				"currentVoteId()": "2363",
				"currentVoterId()": "2384",
				"getAllApplicantsOfDonation(uint256)": "infinite",
				"getAllApplicationsOfDonation(uint256)": "infinite",
				"getAllDonations()": "infinite",
				"getAllDonationsCreatedByDonor(address)": "infinite",
				"getApplicantByWalletAddress(address)": "infinite",
				"getApplicantOfDonation(uint256)": "infinite",
				"getApplicationById(uint256)": "infinite",
				"getApplicationOfApplicantForDonation(uint256,uint256,address)": "infinite",
				"getApplicationsOfApplicant(address)": "infinite",
				"getDonationById(uint256)": "infinite",
				"getDonorByWalletAddress(address)": "infinite",
				"getGranteeOfDonation(uint256)": "infinite",
				"getPotentialAmountOfGrantOfDonationInWei(uint256)": "infinite",
				"getPotentialAmountOfRewardOfDonationInWei(uint256)": "infinite",
				"getPotentialAmountOfRewardToBekwest(uint256)": "infinite",
				"getTotalAmountOfGrantsGivenToApplicantInWei(address)": "infinite",
				"getTotalAmountOfRewardsGivenToVoterInWei(uint256,address)": "infinite",
				"getTotalAmountOfVotesForDonation(uint256)": "2506",
				"getTotalAmountOfVotesMadeByVoter(address)": "2629",
				"getVoteCountOfApplicantOfDonation(uint256,address)": "2753",
				"getVoteOfVoterForDonation(uint256,address)": "infinite",
				"getVoterByWalletAddress(address)": "infinite",
				"getWinningApplicantOfDonation(uint256)": "infinite",
				"granteesOfDonations(uint256)": "2568",
				"makeAVote(uint256,uint256,address,address)": "infinite",
				"makeApplication(uint256,uint256,address,string)": "infinite",
				"numbersOfApplicationsForDonations(uint256)": "2506",
				"numbersOfApplicationsOfApplicants(address)": "2652",
				"numbersOfDonationsCreatedByDonors(address)": "2609",
				"numbersOfVotesForDonations(uint256)": "2507",
				"numbersOfVotesOfVoters(address)": "2630",
				"votingInDonation(uint256,address)": "2742"
			},
			"internal": {
				"closeApplicationOfDonation(uint256)": "infinite",
				"closeVotingOfDonation(uint256)": "infinite",
				"sendGrantToWinningApplicant(uint256,uint256)": "infinite",
				"sendRewardToBekwest(uint256)": "infinite",
				"sendRewardToVoter(uint256,address)": "infinite"
			}
		},
		"methodIdentifiers": {
			"allApplicants(address)": "ad9adead",
			"allApplications(uint256)": "b2514292",
			"allDonations(uint256)": "06c49713",
			"allDonors(address)": "4d148f40",
			"allGrants(uint256)": "621d571d",
			"allRewards(address,uint256)": "3755c2b2",
			"allVoteCountsOfApplicantsOfDonation(uint256,address)": "6e93e563",
			"allVoters(address)": "c3703048",
			"allVotes(uint256)": "de63f432",
			"applicationsToDonations(uint256,address)": "6861f01f",
			"approveApplication(uint256,uint256)": "4633f488",
			"checkIfApplicantExists(address)": "d9ad496d",
			"checkIfApplicantHasAlreadyMadeAnApplicationToDonation(uint256,address)": "431b710a",
			"checkIfDonorExists(address)": "baf3f49e",
			"checkIfVoterExists(address)": "b0344580",
			"checkIfVoterHasAlreadyMadeAVoteInDonation(uint256,address)": "6a098823",
			"createApplicantAccount(address,string,string,string,string)": "b0eebd18",
			"createDonation(uint256,address,string,string,uint256,uint256,uint256)": "0de0350f",
			"createDonorAccount(address,string,string)": "7f868a8e",
			"createVoterAccount(address,string,string,string)": "78c38f3a",
			"currentApplicantId()": "d39f622a",
			"currentApplicationId()": "8e1afc95",
			"currentDonationId()": "bd7863fd",
			"currentDonorId()": "ed04470c",
			"currentGrantId()": "5bf35e66",
			"currentRewardId()": "a4bfaddf",
			"currentVoteId()": "9100b5dd",
			"currentVoterId()": "e1ff3fb7",
			"getAllApplicantsOfDonation(uint256)": "904716f6",
			"getAllApplicationsOfDonation(uint256)": "79382f00",
			"getAllDonations()": "38a59a07",
			"getAllDonationsCreatedByDonor(address)": "fae0f23f",
			"getApplicantByWalletAddress(address)": "60cdd94a",
			"getApplicantOfDonation(uint256)": "a064dda2",
			"getApplicationById(uint256)": "1d4d3ba4",
			"getApplicationOfApplicantForDonation(uint256,uint256,address)": "e9da1029",
			"getApplicationsOfApplicant(address)": "a382148a",
			"getDonationById(uint256)": "7ddc914a",
			"getDonorByWalletAddress(address)": "e35a8441",
			"getGranteeOfDonation(uint256)": "79f19780",
			"getPotentialAmountOfGrantOfDonationInWei(uint256)": "852c8ea7",
			"getPotentialAmountOfRewardOfDonationInWei(uint256)": "78c5ab69",
			"getPotentialAmountOfRewardToBekwest(uint256)": "e9d3ac50",
			"getTotalAmountOfGrantsGivenToApplicantInWei(address)": "d243b249",
			"getTotalAmountOfRewardsGivenToVoterInWei(uint256,address)": "4217d66f",
			"getTotalAmountOfVotesForDonation(uint256)": "69db2db3",
			"getTotalAmountOfVotesMadeByVoter(address)": "072df68a",
			"getVoteCountOfApplicantOfDonation(uint256,address)": "cca050a1",
			"getVoteOfVoterForDonation(uint256,address)": "78d61865",
			"getVoterByWalletAddress(address)": "9d30dc61",
			"getWinningApplicantOfDonation(uint256)": "e926ca45",
			"granteesOfDonations(uint256)": "3a6a44e2",
			"makeAVote(uint256,uint256,address,address)": "db8ac181",
			"makeApplication(uint256,uint256,address,string)": "0df63082",
			"numbersOfApplicationsForDonations(uint256)": "4464ce95",
			"numbersOfApplicationsOfApplicants(address)": "c1df9e90",
			"numbersOfDonationsCreatedByDonors(address)": "c64d0d85",
			"numbersOfVotesForDonations(uint256)": "8c056233",
			"numbersOfVotesOfVoters(address)": "818d5254",
			"votingInDonation(uint256,address)": "2f8e211e"
		}
	},
	"abi": [
		{
			"inputs": [
				{
					"internalType": "address",
					"name": "",
					"type": "address"
				}
			],
			"name": "allApplicants",
			"outputs": [
				{
					"internalType": "uint256",
					"name": "id",
					"type": "uint256"
				},
				{
					"internalType": "uint256",
					"name": "applicantId",
					"type": "uint256"
				},
				{
					"internalType": "address",
					"name": "walletAddress",
					"type": "address"
				},
				{
					"internalType": "string",
					"name": "adjective",
					"type": "string"
				},
				{
					"internalType": "string",
					"name": "gender",
					"type": "string"
				},
				{
					"internalType": "string",
					"name": "countryOfResidence",
					"type": "string"
				},
				{
					"internalType": "string",
					"name": "ageBracket",
					"type": "string"
				},
				{
					"internalType": "bool",
					"name": "isNotBlank",
					"type": "bool"
				}
			],
			"stateMutability": "view",
			"type": "function"
		},
		{
			"inputs": [
				{
					"internalType": "uint256",
					"name": "",
					"type": "uint256"
				}
			],
			"name": "allApplications",
			"outputs": [
				{
					"internalType": "uint256",
					"name": "id",
					"type": "uint256"
				},
				{
					"internalType": "uint256",
					"name": "applicantId",
					"type": "uint256"
				},
				{
					"internalType": "address",
					"name": "applicantWalletAddress",
					"type": "address"
				},
				{
					"internalType": "uint256",
					"name": "donationId",
					"type": "uint256"
				},
				{
					"internalType": "string",
					"name": "pitchStatement",
					"type": "string"
				},
				{
					"internalType": "bool",
					"name": "isApproved",
					"type": "bool"
				},
				{
					"internalType": "bool",
					"name": "isNotBlank",
					"type": "bool"
				}
			],
			"stateMutability": "view",
			"type": "function"
		},
		{
			"inputs": [
				{
					"internalType": "uint256",
					"name": "",
					"type": "uint256"
				}
			],
			"name": "allDonations",
			"outputs": [
				{
					"internalType": "uint256",
					"name": "id",
					"type": "uint256"
				},
				{
					"internalType": "uint256",
					"name": "donorId",
					"type": "uint256"
				},
				{
					"internalType": "address",
					"name": "donorWalletAddress",
					"type": "address"
				},
				{
					"internalType": "string",
					"name": "topic",
					"type": "string"
				},
				{
					"internalType": "string",
					"name": "industry",
					"type": "string"
				},
				{
					"internalType": "uint256",
					"name": "maxNumberOfApplications",
					"type": "uint256"
				},
				{
					"internalType": "uint256",
					"name": "maxNumberOfVotes",
					"type": "uint256"
				},
				{
					"internalType": "uint256",
					"name": "amountDonatedInWei",
					"type": "uint256"
				},
				{
					"internalType": "bool",
					"name": "applicationIsClosed",
					"type": "bool"
				},
				{
					"internalType": "bool",
					"name": "votingIsClosed",
					"type": "bool"
				},
				{
					"internalType": "bool",
					"name": "isNotBlank",
					"type": "bool"
				}
			],
			"stateMutability": "view",
			"type": "function"
		},
		{
			"inputs": [
				{
					"internalType": "address",
					"name": "",
					"type": "address"
				}
			],
			"name": "allDonors",
			"outputs": [
				{
					"internalType": "uint256",
					"name": "id",
					"type": "uint256"
				},
				{
					"internalType": "address",
					"name": "walletAddress",
					"type": "address"
				},
				{
					"internalType": "string",
					"name": "adjective",
					"type": "string"
				},
				{
					"internalType": "string",
					"name": "mainIndustryOfInterest",
					"type": "string"
				},
				{
					"internalType": "uint256",
					"name": "numberOfDonationsCreated",
					"type": "uint256"
				},
				{
					"internalType": "bool",
					"name": "isNotBlank",
					"type": "bool"
				}
			],
			"stateMutability": "view",
			"type": "function"
		},
		{
			"inputs": [
				{
					"internalType": "uint256",
					"name": "",
					"type": "uint256"
				}
			],
			"name": "allGrants",
			"outputs": [
				{
					"internalType": "uint256",
					"name": "id",
					"type": "uint256"
				},
				{
					"internalType": "uint256",
					"name": "donationId",
					"type": "uint256"
				},
				{
					"internalType": "uint256",
					"name": "applicationId",
					"type": "uint256"
				},
				{
					"internalType": "uint256",
					"name": "applicantId",
					"type": "uint256"
				},
				{
					"internalType": "address",
					"name": "applicantWalletAddress",
					"type": "address"
				},
				{
					"internalType": "uint256",
					"name": "amountGrantedInWei",
					"type": "uint256"
				},
				{
					"internalType": "bool",
					"name": "isNotBlank",
					"type": "bool"
				}
			],
			"stateMutability": "view",
			"type": "function"
		},
		{
			"inputs": [
				{
					"internalType": "address",
					"name": "",
					"type": "address"
				},
				{
					"internalType": "uint256",
					"name": "",
					"type": "uint256"
				}
			],
			"name": "allRewards",
			"outputs": [
				{
					"internalType": "uint256",
					"name": "id",
					"type": "uint256"
				},
				{
					"internalType": "uint256",
					"name": "voterId",
					"type": "uint256"
				},
				{
					"internalType": "address",
					"name": "voterWalletAddress",
					"type": "address"
				},
				{
					"internalType": "uint256",
					"name": "donationId",
					"type": "uint256"
				},
				{
					"internalType": "uint256",
					"name": "amountRewardedInWei",
					"type": "uint256"
				},
				{
					"internalType": "bool",
					"name": "isNotBlank",
					"type": "bool"
				}
			],
			"stateMutability": "view",
			"type": "function"
		},
		{
			"inputs": [
				{
					"internalType": "uint256",
					"name": "",
					"type": "uint256"
				},
				{
					"internalType": "address",
					"name": "",
					"type": "address"
				}
			],
			"name": "allVoteCountsOfApplicantsOfDonation",
			"outputs": [
				{
					"internalType": "uint256",
					"name": "",
					"type": "uint256"
				}
			],
			"stateMutability": "view",
			"type": "function"
		},
		{
			"inputs": [
				{
					"internalType": "address",
					"name": "",
					"type": "address"
				}
			],
			"name": "allVoters",
			"outputs": [
				{
					"internalType": "uint256",
					"name": "id",
					"type": "uint256"
				},
				{
					"internalType": "address",
					"name": "walletAddress",
					"type": "address"
				},
				{
					"internalType": "string",
					"name": "adjective",
					"type": "string"
				},
				{
					"internalType": "string",
					"name": "gender",
					"type": "string"
				},
				{
					"internalType": "string",
					"name": "countryOfResidence",
					"type": "string"
				},
				{
					"internalType": "bool",
					"name": "isNotBlank",
					"type": "bool"
				}
			],
			"stateMutability": "view",
			"type": "function"
		},
		{
			"inputs": [
				{
					"internalType": "uint256",
					"name": "",
					"type": "uint256"
				}
			],
			"name": "allVotes",
			"outputs": [
				{
					"internalType": "uint256",
					"name": "id",
					"type": "uint256"
				},
				{
					"internalType": "uint256",
					"name": "voterId",
					"type": "uint256"
				},
				{
					"internalType": "uint256",
					"name": "applicantId",
					"type": "uint256"
				},
				{
					"internalType": "uint256",
					"name": "donationId",
					"type": "uint256"
				},
				{
					"internalType": "bool",
					"name": "isRewarded",
					"type": "bool"
				},
				{
					"internalType": "bool",
					"name": "isNotBlank",
					"type": "bool"
				}
			],
			"stateMutability": "view",
			"type": "function"
		},
		{
			"inputs": [
				{
					"internalType": "uint256",
					"name": "",
					"type": "uint256"
				},
				{
					"internalType": "address",
					"name": "",
					"type": "address"
				}
			],
			"name": "applicationsToDonations",
			"outputs": [
				{
					"internalType": "bool",
					"name": "",
					"type": "bool"
				}
			],
			"stateMutability": "view",
			"type": "function"
		},
		{
			"inputs": [
				{
					"internalType": "uint256",
					"name": "_applicationId",
					"type": "uint256"
				},
				{
					"internalType": "uint256",
					"name": "_donationId",
					"type": "uint256"
				}
			],
			"name": "approveApplication",
			"outputs": [],
			"stateMutability": "nonpayable",
			"type": "function"
		},
		{
			"inputs": [
				{
					"internalType": "address",
					"name": "_applicantWalletAddress",
					"type": "address"
				}
			],
			"name": "checkIfApplicantExists",
			"outputs": [
				{
					"internalType": "bool",
					"name": "",
					"type": "bool"
				}
			],
			"stateMutability": "view",
			"type": "function"
		},
		{
			"inputs": [
				{
					"internalType": "uint256",
					"name": "_donationId",
					"type": "uint256"
				},
				{
					"internalType": "address",
					"name": "_applicantWalletAddress",
					"type": "address"
				}
			],
			"name": "checkIfApplicantHasAlreadyMadeAnApplicationToDonation",
			"outputs": [
				{
					"internalType": "bool",
					"name": "",
					"type": "bool"
				}
			],
			"stateMutability": "view",
			"type": "function"
		},
		{
			"inputs": [
				{
					"internalType": "address",
					"name": "_donorWalletAddress",
					"type": "address"
				}
			],
			"name": "checkIfDonorExists",
			"outputs": [
				{
					"internalType": "bool",
					"name": "",
					"type": "bool"
				}
			],
			"stateMutability": "view",
			"type": "function"
		},
		{
			"inputs": [
				{
					"internalType": "address",
					"name": "_voterWalletAddress",
					"type": "address"
				}
			],
			"name": "checkIfVoterExists",
			"outputs": [
				{
					"internalType": "bool",
					"name": "",
					"type": "bool"
				}
			],
			"stateMutability": "view",
			"type": "function"
		},
		{
			"inputs": [
				{
					"internalType": "uint256",
					"name": "_donationId",
					"type": "uint256"
				},
				{
					"internalType": "address",
					"name": "_voterWalletAddress",
					"type": "address"
				}
			],
			"name": "checkIfVoterHasAlreadyMadeAVoteInDonation",
			"outputs": [
				{
					"internalType": "bool",
					"name": "",
					"type": "bool"
				}
			],
			"stateMutability": "view",
			"type": "function"
		},
		{
			"inputs": [
				{
					"internalType": "address",
					"name": "_applicantWalletAddress",
					"type": "address"
				},
				{
					"internalType": "string",
					"name": "_adjective",
					"type": "string"
				},
				{
					"internalType": "string",
					"name": "_gender",
					"type": "string"
				},
				{
					"internalType": "string",
					"name": "_countryOfResidence",
					"type": "string"
				},
				{
					"internalType": "string",
					"name": "_ageBracket",
					"type": "string"
				}
			],
			"name": "createApplicantAccount",
			"outputs": [],
			"stateMutability": "nonpayable",
			"type": "function"
		},
		{
			"inputs": [
				{
					"internalType": "uint256",
					"name": "_donorId",
					"type": "uint256"
				},
				{
					"internalType": "address",
					"name": "_donorWalletAddress",
					"type": "address"
				},
				{
					"internalType": "string",
					"name": "_topic",
					"type": "string"
				},
				{
					"internalType": "string",
					"name": "_industry",
					"type": "string"
				},
				{
					"internalType": "uint256",
					"name": "_maxNumberOfApplications",
					"type": "uint256"
				},
				{
					"internalType": "uint256",
					"name": "_maxNumberOfVotes",
					"type": "uint256"
				},
				{
					"internalType": "uint256",
					"name": "_amountDonated",
					"type": "uint256"
				}
			],
			"name": "createDonation",
			"outputs": [],
			"stateMutability": "nonpayable",
			"type": "function"
		},
		{
			"inputs": [
				{
					"internalType": "address",
					"name": "_donorWalletAddress",
					"type": "address"
				},
				{
					"internalType": "string",
					"name": "_adjective",
					"type": "string"
				},
				{
					"internalType": "string",
					"name": "_mainIndustryOfInterest",
					"type": "string"
				}
			],
			"name": "createDonorAccount",
			"outputs": [],
			"stateMutability": "nonpayable",
			"type": "function"
		},
		{
			"inputs": [
				{
					"internalType": "address",
					"name": "_voterWalletAddress",
					"type": "address"
				},
				{
					"internalType": "string",
					"name": "_adjective",
					"type": "string"
				},
				{
					"internalType": "string",
					"name": "_gender",
					"type": "string"
				},
				{
					"internalType": "string",
					"name": "_countryOfResidence",
					"type": "string"
				}
			],
			"name": "createVoterAccount",
			"outputs": [],
			"stateMutability": "nonpayable",
			"type": "function"
		},
		{
			"inputs": [],
			"name": "currentApplicantId",
			"outputs": [
				{
					"internalType": "uint256",
					"name": "",
					"type": "uint256"
				}
			],
			"stateMutability": "view",
			"type": "function"
		},
		{
			"inputs": [],
			"name": "currentApplicationId",
			"outputs": [
				{
					"internalType": "uint256",
					"name": "",
					"type": "uint256"
				}
			],
			"stateMutability": "view",
			"type": "function"
		},
		{
			"inputs": [],
			"name": "currentDonationId",
			"outputs": [
				{
					"internalType": "uint256",
					"name": "",
					"type": "uint256"
				}
			],
			"stateMutability": "view",
			"type": "function"
		},
		{
			"inputs": [],
			"name": "currentDonorId",
			"outputs": [
				{
					"internalType": "uint256",
					"name": "",
					"type": "uint256"
				}
			],
			"stateMutability": "view",
			"type": "function"
		},
		{
			"inputs": [],
			"name": "currentGrantId",
			"outputs": [
				{
					"internalType": "uint256",
					"name": "",
					"type": "uint256"
				}
			],
			"stateMutability": "view",
			"type": "function"
		},
		{
			"inputs": [],
			"name": "currentRewardId",
			"outputs": [
				{
					"internalType": "uint256",
					"name": "",
					"type": "uint256"
				}
			],
			"stateMutability": "view",
			"type": "function"
		},
		{
			"inputs": [],
			"name": "currentVoteId",
			"outputs": [
				{
					"internalType": "uint256",
					"name": "",
					"type": "uint256"
				}
			],
			"stateMutability": "view",
			"type": "function"
		},
		{
			"inputs": [],
			"name": "currentVoterId",
			"outputs": [
				{
					"internalType": "uint256",
					"name": "",
					"type": "uint256"
				}
			],
			"stateMutability": "view",
			"type": "function"
		},
		{
			"inputs": [
				{
					"internalType": "uint256",
					"name": "_donationId",
					"type": "uint256"
				}
			],
			"name": "getAllApplicantsOfDonation",
			"outputs": [
				{
					"components": [
						{
							"internalType": "uint256",
							"name": "id",
							"type": "uint256"
						},
						{
							"internalType": "uint256",
							"name": "applicantId",
							"type": "uint256"
						},
						{
							"internalType": "address",
							"name": "walletAddress",
							"type": "address"
						},
						{
							"internalType": "string",
							"name": "adjective",
							"type": "string"
						},
						{
							"internalType": "string",
							"name": "gender",
							"type": "string"
						},
						{
							"internalType": "string",
							"name": "countryOfResidence",
							"type": "string"
						},
						{
							"internalType": "string",
							"name": "ageBracket",
							"type": "string"
						},
						{
							"internalType": "bool",
							"name": "isNotBlank",
							"type": "bool"
						}
					],
					"internalType": "struct Applicant[]",
					"name": "",
					"type": "tuple[]"
				}
			],
			"stateMutability": "view",
			"type": "function"
		},
		{
			"inputs": [
				{
					"internalType": "uint256",
					"name": "_donationId",
					"type": "uint256"
				}
			],
			"name": "getAllApplicationsOfDonation",
			"outputs": [
				{
					"components": [
						{
							"internalType": "uint256",
							"name": "id",
							"type": "uint256"
						},
						{
							"internalType": "uint256",
							"name": "applicantId",
							"type": "uint256"
						},
						{
							"internalType": "address",
							"name": "applicantWalletAddress",
							"type": "address"
						},
						{
							"internalType": "uint256",
							"name": "donationId",
							"type": "uint256"
						},
						{
							"internalType": "string",
							"name": "pitchStatement",
							"type": "string"
						},
						{
							"internalType": "bool",
							"name": "isApproved",
							"type": "bool"
						},
						{
							"internalType": "bool",
							"name": "isNotBlank",
							"type": "bool"
						}
					],
					"internalType": "struct Application[]",
					"name": "",
					"type": "tuple[]"
				}
			],
			"stateMutability": "view",
			"type": "function"
		},
		{
			"inputs": [],
			"name": "getAllDonations",
			"outputs": [
				{
					"components": [
						{
							"internalType": "uint256",
							"name": "id",
							"type": "uint256"
						},
						{
							"internalType": "uint256",
							"name": "donorId",
							"type": "uint256"
						},
						{
							"internalType": "address",
							"name": "donorWalletAddress",
							"type": "address"
						},
						{
							"internalType": "string",
							"name": "topic",
							"type": "string"
						},
						{
							"internalType": "string",
							"name": "industry",
							"type": "string"
						},
						{
							"internalType": "uint256",
							"name": "maxNumberOfApplications",
							"type": "uint256"
						},
						{
							"internalType": "uint256",
							"name": "maxNumberOfVotes",
							"type": "uint256"
						},
						{
							"internalType": "uint256",
							"name": "amountDonatedInWei",
							"type": "uint256"
						},
						{
							"internalType": "bool",
							"name": "applicationIsClosed",
							"type": "bool"
						},
						{
							"internalType": "bool",
							"name": "votingIsClosed",
							"type": "bool"
						},
						{
							"internalType": "bool",
							"name": "isNotBlank",
							"type": "bool"
						}
					],
					"internalType": "struct Donation[]",
					"name": "",
					"type": "tuple[]"
				}
			],
			"stateMutability": "view",
			"type": "function"
		},
		{
			"inputs": [
				{
					"internalType": "address",
					"name": "_donorWalletAddress",
					"type": "address"
				}
			],
			"name": "getAllDonationsCreatedByDonor",
			"outputs": [
				{
					"components": [
						{
							"internalType": "uint256",
							"name": "id",
							"type": "uint256"
						},
						{
							"internalType": "uint256",
							"name": "donorId",
							"type": "uint256"
						},
						{
							"internalType": "address",
							"name": "donorWalletAddress",
							"type": "address"
						},
						{
							"internalType": "string",
							"name": "topic",
							"type": "string"
						},
						{
							"internalType": "string",
							"name": "industry",
							"type": "string"
						},
						{
							"internalType": "uint256",
							"name": "maxNumberOfApplications",
							"type": "uint256"
						},
						{
							"internalType": "uint256",
							"name": "maxNumberOfVotes",
							"type": "uint256"
						},
						{
							"internalType": "uint256",
							"name": "amountDonatedInWei",
							"type": "uint256"
						},
						{
							"internalType": "bool",
							"name": "applicationIsClosed",
							"type": "bool"
						},
						{
							"internalType": "bool",
							"name": "votingIsClosed",
							"type": "bool"
						},
						{
							"internalType": "bool",
							"name": "isNotBlank",
							"type": "bool"
						}
					],
					"internalType": "struct Donation[]",
					"name": "",
					"type": "tuple[]"
				}
			],
			"stateMutability": "view",
			"type": "function"
		},
		{
			"inputs": [
				{
					"internalType": "address",
					"name": "_applicantWalletAddress",
					"type": "address"
				}
			],
			"name": "getApplicantByWalletAddress",
			"outputs": [
				{
					"components": [
						{
							"internalType": "uint256",
							"name": "id",
							"type": "uint256"
						},
						{
							"internalType": "uint256",
							"name": "applicantId",
							"type": "uint256"
						},
						{
							"internalType": "address",
							"name": "walletAddress",
							"type": "address"
						},
						{
							"internalType": "string",
							"name": "adjective",
							"type": "string"
						},
						{
							"internalType": "string",
							"name": "gender",
							"type": "string"
						},
						{
							"internalType": "string",
							"name": "countryOfResidence",
							"type": "string"
						},
						{
							"internalType": "string",
							"name": "ageBracket",
							"type": "string"
						},
						{
							"internalType": "bool",
							"name": "isNotBlank",
							"type": "bool"
						}
					],
					"internalType": "struct Applicant",
					"name": "",
					"type": "tuple"
				}
			],
			"stateMutability": "view",
			"type": "function"
		},
		{
			"inputs": [
				{
					"internalType": "uint256",
					"name": "_applicationId",
					"type": "uint256"
				}
			],
			"name": "getApplicantOfDonation",
			"outputs": [
				{
					"components": [
						{
							"internalType": "uint256",
							"name": "id",
							"type": "uint256"
						},
						{
							"internalType": "uint256",
							"name": "applicantId",
							"type": "uint256"
						},
						{
							"internalType": "address",
							"name": "walletAddress",
							"type": "address"
						},
						{
							"internalType": "string",
							"name": "adjective",
							"type": "string"
						},
						{
							"internalType": "string",
							"name": "gender",
							"type": "string"
						},
						{
							"internalType": "string",
							"name": "countryOfResidence",
							"type": "string"
						},
						{
							"internalType": "string",
							"name": "ageBracket",
							"type": "string"
						},
						{
							"internalType": "bool",
							"name": "isNotBlank",
							"type": "bool"
						}
					],
					"internalType": "struct Applicant",
					"name": "",
					"type": "tuple"
				}
			],
			"stateMutability": "view",
			"type": "function"
		},
		{
			"inputs": [
				{
					"internalType": "uint256",
					"name": "_applicationId",
					"type": "uint256"
				}
			],
			"name": "getApplicationById",
			"outputs": [
				{
					"components": [
						{
							"internalType": "uint256",
							"name": "id",
							"type": "uint256"
						},
						{
							"internalType": "uint256",
							"name": "applicantId",
							"type": "uint256"
						},
						{
							"internalType": "address",
							"name": "applicantWalletAddress",
							"type": "address"
						},
						{
							"internalType": "uint256",
							"name": "donationId",
							"type": "uint256"
						},
						{
							"internalType": "string",
							"name": "pitchStatement",
							"type": "string"
						},
						{
							"internalType": "bool",
							"name": "isApproved",
							"type": "bool"
						},
						{
							"internalType": "bool",
							"name": "isNotBlank",
							"type": "bool"
						}
					],
					"internalType": "struct Application",
					"name": "",
					"type": "tuple"
				}
			],
			"stateMutability": "view",
			"type": "function"
		},
		{
			"inputs": [
				{
					"internalType": "uint256",
					"name": "_donationId",
					"type": "uint256"
				},
				{
					"internalType": "uint256",
					"name": "_applicationId",
					"type": "uint256"
				},
				{
					"internalType": "address",
					"name": "_applicantWalletAddress",
					"type": "address"
				}
			],
			"name": "getApplicationOfApplicantForDonation",
			"outputs": [
				{
					"components": [
						{
							"internalType": "uint256",
							"name": "id",
							"type": "uint256"
						},
						{
							"internalType": "uint256",
							"name": "applicantId",
							"type": "uint256"
						},
						{
							"internalType": "address",
							"name": "applicantWalletAddress",
							"type": "address"
						},
						{
							"internalType": "uint256",
							"name": "donationId",
							"type": "uint256"
						},
						{
							"internalType": "string",
							"name": "pitchStatement",
							"type": "string"
						},
						{
							"internalType": "bool",
							"name": "isApproved",
							"type": "bool"
						},
						{
							"internalType": "bool",
							"name": "isNotBlank",
							"type": "bool"
						}
					],
					"internalType": "struct Application",
					"name": "",
					"type": "tuple"
				}
			],
			"stateMutability": "view",
			"type": "function"
		},
		{
			"inputs": [
				{
					"internalType": "address",
					"name": "_applicantWalletAddress",
					"type": "address"
				}
			],
			"name": "getApplicationsOfApplicant",
			"outputs": [
				{
					"components": [
						{
							"internalType": "uint256",
							"name": "id",
							"type": "uint256"
						},
						{
							"internalType": "uint256",
							"name": "applicantId",
							"type": "uint256"
						},
						{
							"internalType": "address",
							"name": "applicantWalletAddress",
							"type": "address"
						},
						{
							"internalType": "uint256",
							"name": "donationId",
							"type": "uint256"
						},
						{
							"internalType": "string",
							"name": "pitchStatement",
							"type": "string"
						},
						{
							"internalType": "bool",
							"name": "isApproved",
							"type": "bool"
						},
						{
							"internalType": "bool",
							"name": "isNotBlank",
							"type": "bool"
						}
					],
					"internalType": "struct Application[]",
					"name": "",
					"type": "tuple[]"
				}
			],
			"stateMutability": "view",
			"type": "function"
		},
		{
			"inputs": [
				{
					"internalType": "uint256",
					"name": "_donationId",
					"type": "uint256"
				}
			],
			"name": "getDonationById",
			"outputs": [
				{
					"components": [
						{
							"internalType": "uint256",
							"name": "id",
							"type": "uint256"
						},
						{
							"internalType": "uint256",
							"name": "donorId",
							"type": "uint256"
						},
						{
							"internalType": "address",
							"name": "donorWalletAddress",
							"type": "address"
						},
						{
							"internalType": "string",
							"name": "topic",
							"type": "string"
						},
						{
							"internalType": "string",
							"name": "industry",
							"type": "string"
						},
						{
							"internalType": "uint256",
							"name": "maxNumberOfApplications",
							"type": "uint256"
						},
						{
							"internalType": "uint256",
							"name": "maxNumberOfVotes",
							"type": "uint256"
						},
						{
							"internalType": "uint256",
							"name": "amountDonatedInWei",
							"type": "uint256"
						},
						{
							"internalType": "bool",
							"name": "applicationIsClosed",
							"type": "bool"
						},
						{
							"internalType": "bool",
							"name": "votingIsClosed",
							"type": "bool"
						},
						{
							"internalType": "bool",
							"name": "isNotBlank",
							"type": "bool"
						}
					],
					"internalType": "struct Donation",
					"name": "",
					"type": "tuple"
				}
			],
			"stateMutability": "view",
			"type": "function"
		},
		{
			"inputs": [
				{
					"internalType": "address",
					"name": "_donorWalletAddress",
					"type": "address"
				}
			],
			"name": "getDonorByWalletAddress",
			"outputs": [
				{
					"components": [
						{
							"internalType": "uint256",
							"name": "id",
							"type": "uint256"
						},
						{
							"internalType": "address",
							"name": "walletAddress",
							"type": "address"
						},
						{
							"internalType": "string",
							"name": "adjective",
							"type": "string"
						},
						{
							"internalType": "string",
							"name": "mainIndustryOfInterest",
							"type": "string"
						},
						{
							"internalType": "uint256",
							"name": "numberOfDonationsCreated",
							"type": "uint256"
						},
						{
							"internalType": "bool",
							"name": "isNotBlank",
							"type": "bool"
						}
					],
					"internalType": "struct Donor",
					"name": "",
					"type": "tuple"
				}
			],
			"stateMutability": "view",
			"type": "function"
		},
		{
			"inputs": [
				{
					"internalType": "uint256",
					"name": "_donationId",
					"type": "uint256"
				}
			],
			"name": "getGranteeOfDonation",
			"outputs": [
				{
					"components": [
						{
							"internalType": "uint256",
							"name": "id",
							"type": "uint256"
						},
						{
							"internalType": "uint256",
							"name": "applicantId",
							"type": "uint256"
						},
						{
							"internalType": "address",
							"name": "walletAddress",
							"type": "address"
						},
						{
							"internalType": "string",
							"name": "adjective",
							"type": "string"
						},
						{
							"internalType": "string",
							"name": "gender",
							"type": "string"
						},
						{
							"internalType": "string",
							"name": "countryOfResidence",
							"type": "string"
						},
						{
							"internalType": "string",
							"name": "ageBracket",
							"type": "string"
						},
						{
							"internalType": "bool",
							"name": "isNotBlank",
							"type": "bool"
						}
					],
					"internalType": "struct Applicant",
					"name": "",
					"type": "tuple"
				}
			],
			"stateMutability": "view",
			"type": "function"
		},
		{
			"inputs": [
				{
					"internalType": "uint256",
					"name": "_donationId",
					"type": "uint256"
				}
			],
			"name": "getPotentialAmountOfGrantOfDonationInWei",
			"outputs": [
				{
					"internalType": "uint256",
					"name": "",
					"type": "uint256"
				}
			],
			"stateMutability": "view",
			"type": "function"
		},
		{
			"inputs": [
				{
					"internalType": "uint256",
					"name": "_donationId",
					"type": "uint256"
				}
			],
			"name": "getPotentialAmountOfRewardOfDonationInWei",
			"outputs": [
				{
					"internalType": "uint256",
					"name": "",
					"type": "uint256"
				}
			],
			"stateMutability": "view",
			"type": "function"
		},
		{
			"inputs": [
				{
					"internalType": "uint256",
					"name": "_donationId",
					"type": "uint256"
				}
			],
			"name": "getPotentialAmountOfRewardToBekwest",
			"outputs": [
				{
					"internalType": "uint256",
					"name": "",
					"type": "uint256"
				}
			],
			"stateMutability": "view",
			"type": "function"
		},
		{
			"inputs": [
				{
					"internalType": "address",
					"name": "_applicantWalletAddress",
					"type": "address"
				}
			],
			"name": "getTotalAmountOfGrantsGivenToApplicantInWei",
			"outputs": [
				{
					"internalType": "uint256",
					"name": "",
					"type": "uint256"
				}
			],
			"stateMutability": "view",
			"type": "function"
		},
		{
			"inputs": [
				{
					"internalType": "uint256",
					"name": "_voterId",
					"type": "uint256"
				},
				{
					"internalType": "address",
					"name": "_voterWalletAddress",
					"type": "address"
				}
			],
			"name": "getTotalAmountOfRewardsGivenToVoterInWei",
			"outputs": [
				{
					"internalType": "uint256",
					"name": "",
					"type": "uint256"
				}
			],
			"stateMutability": "view",
			"type": "function"
		},
		{
			"inputs": [
				{
					"internalType": "uint256",
					"name": "_donationId",
					"type": "uint256"
				}
			],
			"name": "getTotalAmountOfVotesForDonation",
			"outputs": [
				{
					"internalType": "uint256",
					"name": "",
					"type": "uint256"
				}
			],
			"stateMutability": "view",
			"type": "function"
		},
		{
			"inputs": [
				{
					"internalType": "address",
					"name": "_voterWalletAddress",
					"type": "address"
				}
			],
			"name": "getTotalAmountOfVotesMadeByVoter",
			"outputs": [
				{
					"internalType": "uint256",
					"name": "",
					"type": "uint256"
				}
			],
			"stateMutability": "view",
			"type": "function"
		},
		{
			"inputs": [
				{
					"internalType": "uint256",
					"name": "_donationId",
					"type": "uint256"
				},
				{
					"internalType": "address",
					"name": "_applicantWalletAddress",
					"type": "address"
				}
			],
			"name": "getVoteCountOfApplicantOfDonation",
			"outputs": [
				{
					"internalType": "uint256",
					"name": "",
					"type": "uint256"
				}
			],
			"stateMutability": "view",
			"type": "function"
		},
		{
			"inputs": [
				{
					"internalType": "uint256",
					"name": "_donationId",
					"type": "uint256"
				},
				{
					"internalType": "address",
					"name": "_voterWalletAddress",
					"type": "address"
				}
			],
			"name": "getVoteOfVoterForDonation",
			"outputs": [
				{
					"components": [
						{
							"internalType": "uint256",
							"name": "id",
							"type": "uint256"
						},
						{
							"internalType": "uint256",
							"name": "voterId",
							"type": "uint256"
						},
						{
							"internalType": "uint256",
							"name": "applicantId",
							"type": "uint256"
						},
						{
							"internalType": "uint256",
							"name": "donationId",
							"type": "uint256"
						},
						{
							"internalType": "bool",
							"name": "isRewarded",
							"type": "bool"
						},
						{
							"internalType": "bool",
							"name": "isNotBlank",
							"type": "bool"
						}
					],
					"internalType": "struct Vote",
					"name": "",
					"type": "tuple"
				}
			],
			"stateMutability": "view",
			"type": "function"
		},
		{
			"inputs": [
				{
					"internalType": "address",
					"name": "_voterWalletAddress",
					"type": "address"
				}
			],
			"name": "getVoterByWalletAddress",
			"outputs": [
				{
					"components": [
						{
							"internalType": "uint256",
							"name": "id",
							"type": "uint256"
						},
						{
							"internalType": "address",
							"name": "walletAddress",
							"type": "address"
						},
						{
							"internalType": "string",
							"name": "adjective",
							"type": "string"
						},
						{
							"internalType": "string",
							"name": "gender",
							"type": "string"
						},
						{
							"internalType": "string",
							"name": "countryOfResidence",
							"type": "string"
						},
						{
							"internalType": "bool",
							"name": "isNotBlank",
							"type": "bool"
						}
					],
					"internalType": "struct Voter",
					"name": "",
					"type": "tuple"
				}
			],
			"stateMutability": "view",
			"type": "function"
		},
		{
			"inputs": [
				{
					"internalType": "uint256",
					"name": "_donationId",
					"type": "uint256"
				}
			],
			"name": "getWinningApplicantOfDonation",
			"outputs": [
				{
					"components": [
						{
							"internalType": "uint256",
							"name": "id",
							"type": "uint256"
						},
						{
							"internalType": "uint256",
							"name": "applicantId",
							"type": "uint256"
						},
						{
							"internalType": "address",
							"name": "walletAddress",
							"type": "address"
						},
						{
							"internalType": "string",
							"name": "adjective",
							"type": "string"
						},
						{
							"internalType": "string",
							"name": "gender",
							"type": "string"
						},
						{
							"internalType": "string",
							"name": "countryOfResidence",
							"type": "string"
						},
						{
							"internalType": "string",
							"name": "ageBracket",
							"type": "string"
						},
						{
							"internalType": "bool",
							"name": "isNotBlank",
							"type": "bool"
						}
					],
					"internalType": "struct Applicant",
					"name": "",
					"type": "tuple"
				}
			],
			"stateMutability": "view",
			"type": "function"
		},
		{
			"inputs": [
				{
					"internalType": "uint256",
					"name": "",
					"type": "uint256"
				}
			],
			"name": "granteesOfDonations",
			"outputs": [
				{
					"internalType": "address",
					"name": "",
					"type": "address"
				}
			],
			"stateMutability": "view",
			"type": "function"
		},
		{
			"inputs": [
				{
					"internalType": "uint256",
					"name": "_donationId",
					"type": "uint256"
				},
				{
					"internalType": "uint256",
					"name": "_applicationId",
					"type": "uint256"
				},
				{
					"internalType": "address",
					"name": "_applicantWalletAddress",
					"type": "address"
				},
				{
					"internalType": "address",
					"name": "_voterWalletAddress",
					"type": "address"
				}
			],
			"name": "makeAVote",
			"outputs": [],
			"stateMutability": "nonpayable",
			"type": "function"
		},
		{
			"inputs": [
				{
					"internalType": "uint256",
					"name": "_donationId",
					"type": "uint256"
				},
				{
					"internalType": "uint256",
					"name": "_applicantId",
					"type": "uint256"
				},
				{
					"internalType": "address",
					"name": "_applicantWalletAddress",
					"type": "address"
				},
				{
					"internalType": "string",
					"name": "_pitchStatement",
					"type": "string"
				}
			],
			"name": "makeApplication",
			"outputs": [],
			"stateMutability": "nonpayable",
			"type": "function"
		},
		{
			"inputs": [
				{
					"internalType": "uint256",
					"name": "",
					"type": "uint256"
				}
			],
			"name": "numbersOfApplicationsForDonations",
			"outputs": [
				{
					"internalType": "uint256",
					"name": "",
					"type": "uint256"
				}
			],
			"stateMutability": "view",
			"type": "function"
		},
		{
			"inputs": [
				{
					"internalType": "address",
					"name": "",
					"type": "address"
				}
			],
			"name": "numbersOfApplicationsOfApplicants",
			"outputs": [
				{
					"internalType": "uint256",
					"name": "",
					"type": "uint256"
				}
			],
			"stateMutability": "view",
			"type": "function"
		},
		{
			"inputs": [
				{
					"internalType": "address",
					"name": "",
					"type": "address"
				}
			],
			"name": "numbersOfDonationsCreatedByDonors",
			"outputs": [
				{
					"internalType": "uint256",
					"name": "",
					"type": "uint256"
				}
			],
			"stateMutability": "view",
			"type": "function"
		},
		{
			"inputs": [
				{
					"internalType": "uint256",
					"name": "",
					"type": "uint256"
				}
			],
			"name": "numbersOfVotesForDonations",
			"outputs": [
				{
					"internalType": "uint256",
					"name": "",
					"type": "uint256"
				}
			],
			"stateMutability": "view",
			"type": "function"
		},
		{
			"inputs": [
				{
					"internalType": "address",
					"name": "",
					"type": "address"
				}
			],
			"name": "numbersOfVotesOfVoters",
			"outputs": [
				{
					"internalType": "uint256",
					"name": "",
					"type": "uint256"
				}
			],
			"stateMutability": "view",
			"type": "function"
		},
		{
			"inputs": [
				{
					"internalType": "uint256",
					"name": "",
					"type": "uint256"
				},
				{
					"internalType": "address",
					"name": "",
					"type": "address"
				}
			],
			"name": "votingInDonation",
			"outputs": [
				{
					"internalType": "bool",
					"name": "",
					"type": "bool"
				}
			],
			"stateMutability": "view",
			"type": "function"
		}
	]
}