{
	"data": {
		"bytecode": {
			"linkReferences": {},
			"object": "6080604052600080546001600160a01b0319908116736dce6e80b113607babf97041a0c8c5accc4d1a4e179091556001805490911673874069fa1eb16d44d622f2e0ca25eea172369bc117905534801561005857600080fd5b50614cd7806100686000396000f3fe608060405234801561001057600080fd5b50600436106103995760003560e01c8063852c8ea7116101e9578063c1df9e901161010f578063db8ac181116100ad578063e926ca451161007c578063e926ca4514610af7578063e9da102914610b0a578063ed04470c14610b1d578063fae0f23f14610b2657600080fd5b8063db8ac18114610a77578063de63f43214610a8a578063e1ff3fb714610ace578063e35a844114610ad757600080fd5b8063cca050a1116100e9578063cca050a1146109f5578063d243b24914610a2b578063d39f622a14610a3e578063d9ad496d14610a4757600080fd5b8063c1df9e9014610990578063c3703048146109b0578063c64d0d85146109d557600080fd5b8063a382148a11610187578063b0eebd1811610156578063b0eebd181461091f578063b251429214610932578063baf3f49e14610958578063bd7863fd1461098757600080fd5b8063a382148a146108ad578063a4bfaddf146108c0578063ad9adead146108c9578063b0344580146108f057600080fd5b8063904716f6116101c3578063904716f6146108515780639100b5dd146108715780639d30dc611461087a578063a064dda21461089a57600080fd5b8063852c8ea7146108155780638c056233146108285780638e1afc951461084857600080fd5b80635bf35e66116102ce57806378c38f3a1161026c57806379f197801161023b57806379f19780146107af5780637ddc914a146107c25780637f868a8e146107e2578063818d5254146107f557600080fd5b806378c38f3a1461070657806378c5ab691461071957806378d618651461072c57806379382f001461078f57600080fd5b80636861f01f116102a85780636861f01f1461065457806369db2db3146106825780636a098823146106a25780636e93e563146106db57600080fd5b80635bf35e66146105d857806360cdd94a146105e1578063621d571d1461060157600080fd5b80633755c2b21161033b5780634217d66f116103155780634217d66f14610547578063431b710a1461055a5780634464ce95146105935780634d148f40146105b357600080fd5b80633755c2b2146104a157806338a59a07146104f15780633a6a44e21461050657600080fd5b80630df63082116103775780630df630821461041d5780631d4d3ba414610430578063213fbf1b146104505780632f8e211e1461046357600080fd5b806306c497131461039e578063072df68a146103d15780630de0350f14610408575b600080fd5b6103b16103ac3660046140af565b610b39565b6040516103c89b9a99989796959493929190614115565b60405180910390f35b6103fa6103df3660046141b4565b6001600160a01b03166000908152600a602052604090205490565b6040519081526020016103c8565b61041b610416366004614272565b610cc8565b005b61041b61042b36600461430b565b610ecf565b61044361043e3660046140af565b6110f2565b6040516103c891906143d5565b61041b61045e3660046140af565b61122c565b6104916104713660046143e8565b601260209081526000928352604080842090915290825290205460ff1681565b60405190151581526020016103c8565b6104b46104af366004614414565b61141b565b6040805196875260208701959095526001600160a01b039093169385019390935260608401526080830191909152151560a082015260c0016103c8565b6104f961147b565b6040516103c891906144f4565b61052f6105143660046140af565b600b602052600090815260409020546001600160a01b031681565b6040516001600160a01b0390911681526020016103c8565b6103fa6105553660046143e8565b61167c565b6104916105683660046143e8565b60009182526011602090815260408084206001600160a01b0393909316845291905290205460ff1690565b6103fa6105a13660046140af565b60056020526000908152604090205481565b6105c66105c13660046141b4565b6117b6565b6040516103c896959493929190614556565b6103fa60195481565b6105f46105ef3660046141b4565b61190a565b6040516103c8919061465e565b61061461060f3660046140af565b611bbe565b6040805197885260208801969096529486019390935260608501919091526001600160a01b0316608084015260a0830152151560c082015260e0016103c8565b6104916106623660046143e8565b601160209081526000928352604080842090915290825290205460ff1681565b6103fa6106903660046140af565b60009081526006602052604090205490565b6104916106b03660046143e8565b60009182526012602090815260408084206001600160a01b0393909316845291905290205460ff1690565b6103fa6106e93660046143e8565b600e60209081526000928352604080842090915290825290205481565b61041b610714366004614671565b611c19565b6103fa6107273660046140af565b611c6f565b61073f61073a3660046143e8565b611cb4565b6040516103c89190600060c0820190508251825260208301516020830152604083015160408301526060830151606083015260808301511515608083015260a0830151151560a083015292915050565b6107a261079d3660046140af565b611d92565b6040516103c891906146fe565b6105f46107bd3660046140af565b611f90565b6107d56107d03660046140af565b611fc2565b6040516103c89190614753565b61041b6107f0366004614766565b6121b1565b6103fa6108033660046141b4565b600a6020526000908152604090205481565b6103fa6108233660046140af565b612290565b6103fa6108363660046140af565b60066020526000908152604090205481565b6103fa60165481565b61086461085f3660046140af565b6122bc565b6040516103c891906147da565b6103fa60185481565b61088d6108883660046141b4565b6124c6565b6040516103c8919061482f565b6105f46108a83660046140af565b6126d7565b6107a26108bb3660046141b4565b61281f565b6103fa601a5481565b6108dc6108d73660046141b4565b612a30565b6040516103c89897969594939291906148bc565b6104916108fe3660046141b4565b6001600160a01b03166000908152600c602052604090206005015460ff1690565b61041b61092d366004614942565b612ca0565b6109456109403660046140af565b612dc4565b6040516103c89796959493929190614a00565b6104916109663660046141b4565b6001600160a01b031660009081526002602052604090206005015460ff1690565b6103fa60145481565b6103fa61099e3660046141b4565b60096020526000908152604090205481565b6109c36109be3660046141b4565b612ead565b6040516103c896959493929190614a4e565b6103fa6109e33660046141b4565b60036020526000908152604090205481565b6103fa610a033660046143e8565b6000918252600e602090815260408084206001600160a01b0393909316845291905290205490565b6103fa610a393660046141b4565b613087565b6103fa60155481565b610491610a553660046141b4565b6001600160a01b03166000908152600760208190526040909120015460ff1690565b61041b610a85366004614ab4565b613153565b610a9d610a983660046140af565b613381565b60408051968752602087019590955293850192909252606084015215156080830152151560a082015260c0016103c8565b6103fa60175481565b610aea610ae53660046141b4565b6133ce565b6040516103c89190614afa565b6105f4610b053660046140af565b613555565b610443610b18366004614b72565b613605565b6103fa60135481565b6104f9610b343660046141b4565b613685565b60048181548110610b4957600080fd5b6000918252602090912060099091020180546001820154600283015460038401805493955091936001600160a01b0390911692909190610b8890614ba7565b80601f0160208091040260200160405190810160405280929190818152602001828054610bb490614ba7565b8015610c015780601f10610bd657610100808354040283529160200191610c01565b820191906000526020600020905b815481529060010190602001808311610be457829003601f168201915b505050505090806004018054610c1690614ba7565b80601f0160208091040260200160405190810160405280929190818152602001828054610c4290614ba7565b8015610c8f5780601f10610c6457610100808354040283529160200191610c8f565b820191906000526020600020905b815481529060010190602001808311610c7257829003601f168201915b505050506005830154600684015460078501546008909501549394919390925060ff80821691610100810482169162010000909104168b565b601454610cd3613e57565b81815260208082018a90526001600160a01b0389166040808401829052606084018a90526080840189905260a0840188905260c0840187905260e08401869052600091825260039092529081205490610d2d826001614bf7565b6001600160a01b038b8116600090815260036020908152604080832085905560048054600181018255935287517f8a35acfbc15ff81a39ae7d344fd709f28e8600b4aa8c65c6b64bfe7fe36bd19b6009909402938401908155888301517f8a35acfbc15ff81a39ae7d344fd709f28e8600b4aa8c65c6b64bfe7fe36bd19c850155908801517f8a35acfbc15ff81a39ae7d344fd709f28e8600b4aa8c65c6b64bfe7fe36bd19d840180546001600160a01b0319169190951617909355606087015180519495508794610e26937f8a35acfbc15ff81a39ae7d344fd709f28e8600b4aa8c65c6b64bfe7fe36bd19e01929190910190613ec0565b5060808201518051610e42916004840191602090910190613ec0565b5060a0820151600582015560c0820151600682015560e0820151600782015561010080830151600890920180546101208501516101409095015161ffff1990911693151561ff001916939093179315159091029290921762ff00001916620100009115159190910217905560148054906000610ebd83614c0f565b91905055505050505050505050505050565b60008481526011602090815260408083206001600160a01b038616845290915290205460ff1615610eff57600080fd5b601654610f0a613f44565b81815260208082018681526001600160a01b0386811660408501908152606085018a815260808601888152600160c0880181905260088054918201815560005287517ff3f7a9fe364faab93b216da50a3214154f22a0a2b415b23a84c8169e8b636ee3600690920291820190815595517ff3f7a9fe364faab93b216da50a3214154f22a0a2b415b23a84c8169e8b636ee482015592517ff3f7a9fe364faab93b216da50a3214154f22a0a2b415b23a84c8169e8b636ee5840180546001600160a01b0319169190951617909355517ff3f7a9fe364faab93b216da50a3214154f22a0a2b415b23a84c8169e8b636ee6820155905180518594611030937ff3f7a9fe364faab93b216da50a3214154f22a0a2b415b23a84c8169e8b636ee701920190613ec0565b5060a08201516005918201805460c09094015115156101000261ff00199215159290921661ffff199094169390931717909155600087815260209190915260408120549061107f826001614bf7565b60008981526005602090815260408083208490556001600160a01b038a16835260099091528120549192506110b5826001614bf7565b6001600160a01b038916600090815260096020526040812082905560168054929350906110e183614c0f565b919050555050505050505050505050565b6110fa613f44565b6008828154811061110d5761110d614c28565b90600052602060002090600602016040518060e001604052908160008201548152602001600182015481526020016002820160009054906101000a90046001600160a01b03166001600160a01b03166001600160a01b031681526020016003820154815260200160048201805461118390614ba7565b80601f01602080910402602001604051908101604052809291908181526020018280546111af90614ba7565b80156111fc5780601f106111d1576101008083540402835291602001916111fc565b820191906000526020600020905b8154815290600101906020018083116111df57829003601f168201915b50505091835250506005919091015460ff8082161515602084015261010090910416151560409091015292915050565b60006008828154811061124157611241614c28565b90600052602060002090600602016040518060e001604052908160008201548152602001600182015481526020016002820160009054906101000a90046001600160a01b03166001600160a01b03166001600160a01b03168152602001600382015481526020016004820180546112b790614ba7565b80601f01602080910402602001604051908101604052809291908181526020018280546112e390614ba7565b80156113305780601f1061130557610100808354040283529160200191611330565b820191906000526020600020905b81548152906001019060200180831161131357829003601f168201915b50505091835250506005919091015460ff80821615156020840152610100909104161515604090910152600160a08201526008805491925082918490811061137a5761137a614c28565b600091825260209182902083516006929092020190815582820151600182015560408301516002820180546001600160a01b0319166001600160a01b03909216919091179055606083015160038201556080830151805191926113e592600485019290910190613ec0565b5060a08201516005909101805460c09093015115156101000261ff00199215159290921661ffff19909316929092171790555050565b6010602052816000526040600020818154811061143757600080fd5b60009182526020909120600690910201805460018201546002830154600384015460048501546005909501549396509194506001600160a01b031692909160ff1686565b60606004805480602002602001604051908101604052809291908181526020016000905b828210156116735760008481526020908190206040805161016081018252600986029092018054835260018101549383019390935260028301546001600160a01b0316908201526003820180549192916060840191906114fe90614ba7565b80601f016020809104026020016040519081016040528092919081815260200182805461152a90614ba7565b80156115775780601f1061154c57610100808354040283529160200191611577565b820191906000526020600020905b81548152906001019060200180831161155a57829003601f168201915b5050505050815260200160048201805461159090614ba7565b80601f01602080910402602001604051908101604052809291908181526020018280546115bc90614ba7565b80156116095780601f106115de57610100808354040283529160200191611609565b820191906000526020600020905b8154815290600101906020018083116115ec57829003601f168201915b50505091835250506005820154602080830191909152600683015460408301526007830154606083015260089092015460ff8082161515608084015261010082048116151560a08401526201000090910416151560c090910152908252600192909201910161149f565b50505050905090565b6001600160a01b038116600090815260106020908152604080832080548251818502810185019093528083528493849084015b828210156117255760008481526020908190206040805160c08101825260068602909201805483526001808201548486015260028201546001600160a01b03169284019290925260038101546060840152600481015460808401526005015460ff16151560a083015290835290920191016116af565b5050505090506000805b82518110156117ad57600083828151811061174c5761174c614c28565b6020026020010151905086816020015114801561177e5750856001600160a01b031681604001516001600160a01b0316145b1561179a5760808101516117929084614bf7565b9250506117ad565b50806117a581614c0f565b91505061172f565b50949350505050565b600260208190526000918252604090912080546001820154928201805491936001600160a01b031692916117e990614ba7565b80601f016020809104026020016040519081016040528092919081815260200182805461181590614ba7565b80156118625780601f1061183757610100808354040283529160200191611862565b820191906000526020600020905b81548152906001019060200180831161184557829003601f168201915b50505050509080600301805461187790614ba7565b80601f01602080910402602001604051908101604052809291908181526020018280546118a390614ba7565b80156118f05780601f106118c5576101008083540402835291602001916118f0565b820191906000526020600020905b8154815290600101906020018083116118d357829003601f168201915b50505050600483015460059093015491929160ff16905086565b611912613f8e565b6001600160a01b038083166000908152600760209081526040918290208251610100810184528154815260018201549281019290925260028101549093169181019190915260038201805491929160608401919061196f90614ba7565b80601f016020809104026020016040519081016040528092919081815260200182805461199b90614ba7565b80156119e85780601f106119bd576101008083540402835291602001916119e8565b820191906000526020600020905b8154815290600101906020018083116119cb57829003601f168201915b50505050508152602001600482018054611a0190614ba7565b80601f0160208091040260200160405190810160405280929190818152602001828054611a2d90614ba7565b8015611a7a5780601f10611a4f57610100808354040283529160200191611a7a565b820191906000526020600020905b815481529060010190602001808311611a5d57829003601f168201915b50505050508152602001600582018054611a9390614ba7565b80601f0160208091040260200160405190810160405280929190818152602001828054611abf90614ba7565b8015611b0c5780601f10611ae157610100808354040283529160200191611b0c565b820191906000526020600020905b815481529060010190602001808311611aef57829003601f168201915b50505050508152602001600682018054611b2590614ba7565b80601f0160208091040260200160405190810160405280929190818152602001828054611b5190614ba7565b8015611b9e5780601f10611b7357610100808354040283529160200191611b9e565b820191906000526020600020905b815481529060010190602001808311611b8157829003601f168201915b50505091835250506007919091015460ff16151560209091015292915050565b600f8181548110611bce57600080fd5b600091825260209091206007909102018054600182015460028301546003840154600485015460058601546006909601549496509294919390926001600160a01b0316919060ff1687565b601754611c24613fde565b8181526001600160a01b0386166020820152604081018590526060810184905260808101839052600160a082015260178054906000611c6283614c0f565b9190505550505050505050565b600081815260066020526040812054806064611c8a85611fc2565b60e00151611c9990600a614c3e565b611ca39190614c5d565b611cad9190614c5d565b9392505050565b611cbc61401f565b611cc461401f565b6000611ccf846124c6565b905060005b600d54811015611d88576000600d8281548110611cf357611cf3614c28565b60009182526020918290206040805160c08101825260059093029091018054835260018101549383019390935260028301549082015260038201546060820181905260049092015460ff8082161515608084015261010090910416151560a0820152915087148015611d69575082516020820151145b15611d75579250611d88565b5080611d8081614c0f565b915050611cd4565b5090949350505050565b6000818152600560205260408120546060918167ffffffffffffffff811115611dbd57611dbd6141cf565b604051908082528060200260200182016040528015611df657816020015b611de3613f44565b815260200190600190039081611ddb5790505b5090506000805b600854811015611d8857600060088281548110611e1c57611e1c614c28565b90600052602060002090600602016040518060e001604052908160008201548152602001600182015481526020016002820160009054906101000a90046001600160a01b03166001600160a01b03166001600160a01b0316815260200160038201548152602001600482018054611e9290614ba7565b80601f0160208091040260200160405190810160405280929190818152602001828054611ebe90614ba7565b8015611f0b5780601f10611ee057610100808354040283529160200191611f0b565b820191906000526020600020905b815481529060010190602001808311611eee57829003601f168201915b50505091835250506005919091015460ff808216151560208401526101009091041615156040909101526060810151909150879003611f7d5780848481518110611f5757611f57614c28565b60200260200101819052508280611f6d90614c0f565b935050848303611f7d5750611d88565b5080611f8881614c0f565b915050611dfd565b611f98613f8e565b6000828152600b60205260408120546001600160a01b031690611fba8261190a565b949350505050565b611fca613e57565b60048281548110611fdd57611fdd614c28565b90600052602060002090600902016040518061016001604052908160008201548152602001600182015481526020016002820160009054906101000a90046001600160a01b03166001600160a01b03166001600160a01b0316815260200160038201805461204a90614ba7565b80601f016020809104026020016040519081016040528092919081815260200182805461207690614ba7565b80156120c35780601f10612098576101008083540402835291602001916120c3565b820191906000526020600020905b8154815290600101906020018083116120a657829003601f168201915b505050505081526020016004820180546120dc90614ba7565b80601f016020809104026020016040519081016040528092919081815260200182805461210890614ba7565b80156121555780601f1061212a57610100808354040283529160200191612155565b820191906000526020600020905b81548152906001019060200180831161213857829003601f168201915b505050918352505060058201546020820152600682015460408201526007820154606082015260089091015460ff8082161515608084015261010082048116151560a08401526201000090910416151560c09091015292915050565b6013546121bc614059565b8181526001600160a01b038581166020808401828152604080860189815260608701899052600060808801819052600160a08901819052958152600280865292902087518155925194830180546001600160a01b031916959096169490941790945591518051859461223393908501920190613ec0565b506060820151805161224f916003840191602090910190613ec0565b506080820151600482015560a0909101516005909101805460ff19169115159190911790556013805490600061228483614c0f565b91905055505050505050565b6000606461229d83611fc2565b60e001516122ac906050614c3e565b6122b69190614c5d565b92915050565b6000818152600560205260408120546060918167ffffffffffffffff8111156122e7576122e76141cf565b60405190808252806020026020018201604052801561232057816020015b61230d613f8e565b8152602001906001900390816123055790505b5090506000805b600854811015611d885760006008828154811061234657612346614c28565b90600052602060002090600602016040518060e001604052908160008201548152602001600182015481526020016002820160009054906101000a90046001600160a01b03166001600160a01b03166001600160a01b03168152602001600382015481526020016004820180546123bc90614ba7565b80601f01602080910402602001604051908101604052809291908181526020018280546123e890614ba7565b80156124355780601f1061240a57610100808354040283529160200191612435565b820191906000526020600020905b81548152906001019060200180831161241857829003601f168201915b50505091835250506005919091015460ff8082161515602084015261010090910416151560409091015260608101519091508790036124b35761247b816040015161190a565b84848151811061248d5761248d614c28565b602002602001018190525082806124a390614c0f565b9350508483036124b35750611d88565b50806124be81614c0f565b915050612327565b6124ce613fde565b6001600160a01b038083166000908152600c6020908152604091829020825160c08101845281548152600182015490941691840191909152600281018054919284019161251a90614ba7565b80601f016020809104026020016040519081016040528092919081815260200182805461254690614ba7565b80156125935780601f1061256857610100808354040283529160200191612593565b820191906000526020600020905b81548152906001019060200180831161257657829003601f168201915b505050505081526020016003820180546125ac90614ba7565b80601f01602080910402602001604051908101604052809291908181526020018280546125d890614ba7565b80156126255780601f106125fa57610100808354040283529160200191612625565b820191906000526020600020905b81548152906001019060200180831161260857829003601f168201915b5050505050815260200160048201805461263e90614ba7565b80601f016020809104026020016040519081016040528092919081815260200182805461266a90614ba7565b80156126b75780601f1061268c576101008083540402835291602001916126b7565b820191906000526020600020905b81548152906001019060200180831161269a57829003601f168201915b50505091835250506005919091015460ff16151560209091015292915050565b6126df613f8e565b6000600883815481106126f4576126f4614c28565b90600052602060002090600602016040518060e001604052908160008201548152602001600182015481526020016002820160009054906101000a90046001600160a01b03166001600160a01b03166001600160a01b031681526020016003820154815260200160048201805461276a90614ba7565b80601f016020809104026020016040519081016040528092919081815260200182805461279690614ba7565b80156127e35780601f106127b8576101008083540402835291602001916127e3565b820191906000526020600020905b8154815290600101906020018083116127c657829003601f168201915b50505091835250506005919091015460ff80821615156020840152610100909104161515604091820152810151909150600090611fba9061190a565b6001600160a01b0381166000908152600960205260408120546060918167ffffffffffffffff811115612854576128546141cf565b60405190808252806020026020018201604052801561288d57816020015b61287a613f44565b8152602001906001900390816128725790505b5090506000805b600854811015611d88576000600882815481106128b3576128b3614c28565b90600052602060002090600602016040518060e001604052908160008201548152602001600182015481526020016002820160009054906101000a90046001600160a01b03166001600160a01b03166001600160a01b031681526020016003820154815260200160048201805461292990614ba7565b80601f016020809104026020016040519081016040528092919081815260200182805461295590614ba7565b80156129a25780601f10612977576101008083540402835291602001916129a2565b820191906000526020600020905b81548152906001019060200180831161298557829003601f168201915b50505091835250506005919091015460ff808216151560208401526101009091041615156040918201528101519091506001600160a01b03808916911603612a1d57808484815181106129f7576129f7614c28565b60200260200101819052508280612a0d90614c0f565b935050848303612a1d5750611d88565b5080612a2881614c0f565b915050612894565b6007602052600090815260409020805460018201546002830154600384018054939492936001600160a01b039092169291612a6a90614ba7565b80601f0160208091040260200160405190810160405280929190818152602001828054612a9690614ba7565b8015612ae35780601f10612ab857610100808354040283529160200191612ae3565b820191906000526020600020905b815481529060010190602001808311612ac657829003601f168201915b505050505090806004018054612af890614ba7565b80601f0160208091040260200160405190810160405280929190818152602001828054612b2490614ba7565b8015612b715780601f10612b4657610100808354040283529160200191612b71565b820191906000526020600020905b815481529060010190602001808311612b5457829003601f168201915b505050505090806005018054612b8690614ba7565b80601f0160208091040260200160405190810160405280929190818152602001828054612bb290614ba7565b8015612bff5780601f10612bd457610100808354040283529160200191612bff565b820191906000526020600020905b815481529060010190602001808311612be257829003601f168201915b505050505090806006018054612c1490614ba7565b80601f0160208091040260200160405190810160405280929190818152602001828054612c4090614ba7565b8015612c8d5780601f10612c6257610100808354040283529160200191612c8d565b820191906000526020600020905b815481529060010190602001808311612c7057829003601f168201915b5050506007909301549192505060ff1688565b601554612cab613f8e565b8181526001600160a01b038781166040808401828152606085018a8152608086018a905260a0860189905260c08601889052600160e087018190526000948552600760209081529390942086518155838701519481019490945590516002840180546001600160a01b0319169190951617909355915180518493612d36926003850192910190613ec0565b5060808201518051612d52916004840191602090910190613ec0565b5060a08201518051612d6e916005840191602090910190613ec0565b5060c08201518051612d8a916006840191602090910190613ec0565b5060e091909101516007909101805460ff191691151591909117905560158054906000612db683614c0f565b919050555050505050505050565b60088181548110612dd457600080fd5b60009182526020909120600690910201805460018201546002830154600384015460048501805494965092946001600160a01b0390921693909290612e1890614ba7565b80601f0160208091040260200160405190810160405280929190818152602001828054612e4490614ba7565b8015612e915780601f10612e6657610100808354040283529160200191612e91565b820191906000526020600020905b815481529060010190602001808311612e7457829003601f168201915b5050506005909301549192505060ff8082169161010090041687565b600c6020526000908152604090208054600182015460028301805492936001600160a01b0390921692612edf90614ba7565b80601f0160208091040260200160405190810160405280929190818152602001828054612f0b90614ba7565b8015612f585780601f10612f2d57610100808354040283529160200191612f58565b820191906000526020600020905b815481529060010190602001808311612f3b57829003601f168201915b505050505090806003018054612f6d90614ba7565b80601f0160208091040260200160405190810160405280929190818152602001828054612f9990614ba7565b8015612fe65780601f10612fbb57610100808354040283529160200191612fe6565b820191906000526020600020905b815481529060010190602001808311612fc957829003601f168201915b505050505090806004018054612ffb90614ba7565b80601f016020809104026020016040519081016040528092919081815260200182805461302790614ba7565b80156130745780601f1061304957610100808354040283529160200191613074565b820191906000526020600020905b81548152906001019060200180831161305757829003601f168201915b5050506005909301549192505060ff1686565b600080805b600f5481101561314c576000600f82815481106130ab576130ab614c28565b60009182526020918290206040805160e0810182526007909302909101805483526001810154938301939093526002830154908201526003820154606082015260048201546001600160a01b0390811660808301819052600584015460a084015260069093015460ff16151560c0830152909250861690036131395760a08101516131369084614bf7565b92505b508061314481614c0f565b91505061308c565b5092915050565b600061315e85611fc2565b90508061012001511561317057600080fd5b60008581526012602090815260408083206001600160a01b038616845290915290205460ff16156131a057600080fd5b60006131ab856110f2565b60185490915060006131bc856124c6565b90506131c661401f565b828152815160208083019190915284810151604080840191909152606083018b9052600160a08401819052875160008181526012855283812085880180516001600160a01b03168352955292909220805460ff19169091179055905161322d90829061394f565b60008181526006602052604081205490613248826001614bf7565b6000848152600660209081526040808320849055888201516001600160a01b03168352600a909152812054919250613281826001614bf7565b905080600a600089602001516001600160a01b03166001600160a01b03168152602001908152602001600020819055506000600e600087815260200190815260200160002060008e6001600160a01b03166001600160a01b0316815260200190815260200160002054905060008160016132fb9190614bf7565b905080600e600089815260200190815260200160002060008f6001600160a01b03166001600160a01b03168152602001908152602001600020819055508b60c00151850361335a5761334c87613ad6565b61335a878c60200151613bee565b6018805490600061336a83614c0f565b919050555050505050505050505050505050505050565b600d818154811061339157600080fd5b6000918252602090912060059091020180546001820154600283015460038401546004909401549294509092909160ff8082169161010090041686565b6133d6614059565b6001600160a01b03808316600090815260026020818152604092839020835160c081018552815481526001820154909516918501919091529081018054919284019161342190614ba7565b80601f016020809104026020016040519081016040528092919081815260200182805461344d90614ba7565b801561349a5780601f1061346f5761010080835404028352916020019161349a565b820191906000526020600020905b81548152906001019060200180831161347d57829003601f168201915b505050505081526020016003820180546134b390614ba7565b80601f01602080910402602001604051908101604052809291908181526020018280546134df90614ba7565b801561352c5780601f106135015761010080835404028352916020019161352c565b820191906000526020600020905b81548152906001019060200180831161350f57829003601f168201915b50505091835250506004820154602082015260059091015460ff16151560409091015292915050565b61355d613f8e565b6000613567613f8e565b6000613572856122bc565b905060005b8151811015611d8857600082828151811061359457613594614c28565b6020908102919091018101516000898152600e83526040808220818401516001600160a01b031683529093529190912054909150858111156135f0578095508383815181106135e5576135e5614c28565b602002602001015194505b505080806135fd90614c0f565b915050613577565b61360d613f44565b60006136188361281f565b9050613622613f44565b60005b825181101561367b57600083828151811061364257613642614c28565b6020026020010151905087816060015114801561365f5750805187145b15613668578092505b508061367381614c0f565b915050613625565b5095945050505050565b6001600160a01b0381166000908152600360205260408120546060918167ffffffffffffffff8111156136ba576136ba6141cf565b6040519080825280602002602001820160405280156136f357816020015b6136e0613e57565b8152602001906001900390816136d85790505b5090506000805b600454811015611d885760006004828154811061371957613719614c28565b90600052602060002090600902016040518061016001604052908160008201548152602001600182015481526020016002820160009054906101000a90046001600160a01b03166001600160a01b03166001600160a01b0316815260200160038201805461378690614ba7565b80601f01602080910402602001604051908101604052809291908181526020018280546137b290614ba7565b80156137ff5780601f106137d4576101008083540402835291602001916137ff565b820191906000526020600020905b8154815290600101906020018083116137e257829003601f168201915b5050505050815260200160048201805461381890614ba7565b80601f016020809104026020016040519081016040528092919081815260200182805461384490614ba7565b80156138915780601f1061386657610100808354040283529160200191613891565b820191906000526020600020905b81548152906001019060200180831161387457829003601f168201915b50505091835250506005820154602082015260068201546040808301919091526007830154606083015260089092015460ff8082161515608084015261010082048116151560a08401526201000090910416151560c0909101528101519091506001600160a01b0380891691160361393c578084848151811061391657613916614c28565b6020026020010181905250828061392c90614c0f565b93505084830361393c5750611d88565b508061394781614c0f565b9150506136fa565b601a54600061395d836124c6565b9050600061396a85611c6f565b90506139b06040518060c00160405280600081526020016000815260200160006001600160a01b0316815260200160008152602001600081526020016000151581525090565b83815282516020808301918252808501516001600160a01b039081166040808601918252606086018b815260808701888152600160a089018181528d8716600081815260108a52868120805480860182559082529990208b516006909a020198895598518883015594516002880180546001600160a01b031916918816919091179055915160038701555160048087019190915592516005909501805460ff1916951515959095179094559254925163a9059cbb60e01b81529081019390935260248301859052169063a9059cbb906044016020604051808303816000875af1158015613aa1573d6000803e3d6000fd5b505050506040513d601f19601f82011682018060405250810190613ac59190614c7f565b50601a8054906000611c6283614c0f565b6000613ae182611fc2565b600161012082015260048054919250829184908110613b0257613b02614c28565b600091825260209182902083516009929092020190815582820151600182015560408301516002820180546001600160a01b0319166001600160a01b03909216919091179055606083015180519192613b6392600385019290910190613ec0565b5060808201518051613b7f916004840191602090910190613ec0565b5060a0820151600582015560c0820151600682015560e0820151600782015561010080830151600890920180546101208501516101409095015161ffff1990911693151561ff001916939093179315159091029290921762ff0000191662010000911515919091021790555050565b6000613bf983613555565b90506000613c0684612290565b905060006019549050613c5a6040518060e001604052806000815260200160008152602001600081526020016000815260200160006001600160a01b03168152602001600081526020016000151581525090565b8181526020810186815260608201868152604086810180516001600160a01b039081166080870190815260a08701898152600160c08901818152600f805480840182556000919091528a517f8d1108e10bcb7c27dddfc02ed9d693a074039d026cf4ea4240b40f7d581ac80260079092029182015598517f8d1108e10bcb7c27dddfc02ed9d693a074039d026cf4ea4240b40f7d581ac8038a0155868a01517f8d1108e10bcb7c27dddfc02ed9d693a074039d026cf4ea4240b40f7d581ac8048a015596517f8d1108e10bcb7c27dddfc02ed9d693a074039d026cf4ea4240b40f7d581ac80589015591517f8d1108e10bcb7c27dddfc02ed9d693a074039d026cf4ea4240b40f7d581ac806880180546001600160a01b031916918516919091179055517f8d1108e10bcb7c27dddfc02ed9d693a074039d026cf4ea4240b40f7d581ac80787015593517f8d1108e10bcb7c27dddfc02ed9d693a074039d026cf4ea4240b40f7d581ac808909501805460ff19169515159590951790945591549151905163a9059cbb60e01b815290831660048201526024810186905291169063a9059cbb906044016020604051808303816000875af1158015613e22573d6000803e3d6000fd5b505050506040513d601f19601f82011682018060405250810190613e469190614c7f565b5060198054906000611c6283614c0f565b604051806101600160405280600081526020016000815260200160006001600160a01b0316815260200160608152602001606081526020016000815260200160008152602001600081526020016000151581526020016000151581526020016000151581525090565b828054613ecc90614ba7565b90600052602060002090601f016020900481019282613eee5760008555613f34565b82601f10613f0757805160ff1916838001178555613f34565b82800160010185558215613f34579182015b82811115613f34578251825591602001919060010190613f19565b50613f4092915061409a565b5090565b6040518060e00160405280600081526020016000815260200160006001600160a01b0316815260200160008152602001606081526020016000151581526020016000151581525090565b604051806101000160405280600081526020016000815260200160006001600160a01b03168152602001606081526020016060815260200160608152602001606081526020016000151581525090565b6040518060c001604052806000815260200160006001600160a01b031681526020016060815260200160608152602001606081526020016000151581525090565b6040518060c00160405280600081526020016000815260200160008152602001600081526020016000151581526020016000151581525090565b6040518060c001604052806000815260200160006001600160a01b031681526020016060815260200160608152602001600081526020016000151581525090565b5b80821115613f40576000815560010161409b565b6000602082840312156140c157600080fd5b5035919050565b6000815180845260005b818110156140ee576020818501810151868301820152016140d2565b81811115614100576000602083870101525b50601f01601f19169290920160200192915050565b8b8152602081018b90526001600160a01b038a166040820152610160606082018190526000906141478382018c6140c8565b9050828103608084015261415b818b6140c8565b60a0840199909952505060c081019590955260e0850193909352901515610100840152151561012083015215156101409091015295945050505050565b80356001600160a01b03811681146141af57600080fd5b919050565b6000602082840312156141c657600080fd5b611cad82614198565b634e487b7160e01b600052604160045260246000fd5b600082601f8301126141f657600080fd5b813567ffffffffffffffff80821115614211576142116141cf565b604051601f8301601f19908116603f01168101908282118183101715614239576142396141cf565b8160405283815286602085880101111561425257600080fd5b836020870160208301376000602085830101528094505050505092915050565b600080600080600080600060e0888a03121561428d57600080fd5b8735965061429d60208901614198565b9550604088013567ffffffffffffffff808211156142ba57600080fd5b6142c68b838c016141e5565b965060608a01359150808211156142dc57600080fd5b506142e98a828b016141e5565b979a969950949760808101359660a0820135965060c090910135945092505050565b6000806000806080858703121561432157600080fd5b843593506020850135925061433860408601614198565b9150606085013567ffffffffffffffff81111561435457600080fd5b614360878288016141e5565b91505092959194509250565b805182526020810151602083015260018060a01b036040820151166040830152606081015160608301526000608082015160e060808501526143b160e08501826140c8565b905060a0830151151560a085015260c0830151151560c08501528091505092915050565b602081526000611cad602083018461436c565b600080604083850312156143fb57600080fd5b8235915061440b60208401614198565b90509250929050565b6000806040838503121561442757600080fd5b61443083614198565b946020939093013593505050565b60006101608251845260208301516020850152604083015161446b60408601826001600160a01b03169052565b506060830151816060860152614483828601826140c8565b9150506080830151848203608086015261449d82826140c8565b91505060a083015160a085015260c083015160c085015260e083015160e0850152610100808401516144d28287018215159052565b5050610120838101511515908501526101408084015180151582870152611d88565b6000602080830181845280855180835260408601915060408160051b870101925083870160005b8281101561454957603f1988860301845261453785835161443e565b9450928501929085019060010161451b565b5092979650505050505050565b8681526001600160a01b038616602082015260c060408201819052600090614580908301876140c8565b828103606084015261459281876140c8565b6080840195909552505090151560a090910152949350505050565b6000610100825184526020830151602085015260408301516145da60408601826001600160a01b03169052565b5060608301518160608601526145f2828601826140c8565b9150506080830151848203608086015261460c82826140c8565b91505060a083015184820360a086015261462682826140c8565b91505060c083015184820360c086015261464082826140c8565b91505060e083015161465660e086018215159052565b509392505050565b602081526000611cad60208301846145ad565b6000806000806080858703121561468757600080fd5b61469085614198565b9350602085013567ffffffffffffffff808211156146ad57600080fd5b6146b9888389016141e5565b945060408701359150808211156146cf57600080fd5b6146db888389016141e5565b935060608701359150808211156146f157600080fd5b50614360878288016141e5565b6000602080830181845280855180835260408601915060408160051b870101925083870160005b8281101561454957603f1988860301845261474185835161436c565b94509285019290850190600101614725565b602081526000611cad602083018461443e565b60008060006060848603121561477b57600080fd5b61478484614198565b9250602084013567ffffffffffffffff808211156147a157600080fd5b6147ad878388016141e5565b935060408601359150808211156147c357600080fd5b506147d0868287016141e5565b9150509250925092565b6000602080830181845280855180835260408601915060408160051b870101925083870160005b8281101561454957603f1988860301845261481d8583516145ad565b94509285019290850190600101614801565b602081528151602082015260018060a01b0360208301511660408201526000604083015160c0606084015261486760e08401826140c8565b90506060840151601f198085840301608086015261488583836140c8565b925060808601519150808584030160a0860152506148a382826140c8565b91505060a0840151151560c08401528091505092915050565b888152602081018890526001600160a01b0387166040820152610100606082018190526000906148ee838201896140c8565b9050828103608084015261490281886140c8565b905082810360a084015261491681876140c8565b905082810360c084015261492a81866140c8565b91505082151560e08301529998505050505050505050565b600080600080600060a0868803121561495a57600080fd5b61496386614198565b9450602086013567ffffffffffffffff8082111561498057600080fd5b61498c89838a016141e5565b955060408801359150808211156149a257600080fd5b6149ae89838a016141e5565b945060608801359150808211156149c457600080fd5b6149d089838a016141e5565b935060808801359150808211156149e657600080fd5b506149f3888289016141e5565b9150509295509295909350565b87815286602082015260018060a01b038616604082015284606082015260e060808201526000614a3360e08301866140c8565b93151560a08301525090151560c09091015295945050505050565b8681526001600160a01b038616602082015260c060408201819052600090614a78908301876140c8565b8281036060840152614a8a81876140c8565b90508281036080840152614a9e81866140c8565b91505082151560a0830152979650505050505050565b60008060008060808587031215614aca57600080fd5b8435935060208501359250614ae160408601614198565b9150614aef60608601614198565b905092959194509250565b602081528151602082015260018060a01b0360208301511660408201526000604083015160c06060840152614b3260e08401826140c8565b90506060840151601f19848303016080850152614b4f82826140c8565b915050608084015160a084015260a0840151151560c08401528091505092915050565b600080600060608486031215614b8757600080fd5b8335925060208401359150614b9e60408501614198565b90509250925092565b600181811c90821680614bbb57607f821691505b602082108103614bdb57634e487b7160e01b600052602260045260246000fd5b50919050565b634e487b7160e01b600052601160045260246000fd5b60008219821115614c0a57614c0a614be1565b500190565b600060018201614c2157614c21614be1565b5060010190565b634e487b7160e01b600052603260045260246000fd5b6000816000190483118215151615614c5857614c58614be1565b500290565b600082614c7a57634e487b7160e01b600052601260045260246000fd5b500490565b600060208284031215614c9157600080fd5b81518015158114611cad57600080fdfea26469706673582212200f12b0d2a4f4991fe178e7547aa11a91294844ff6b9599bf14d4786949bc037264736f6c634300080d0033",
			"opcodes": "PUSH1 0x80 PUSH1 0x40 MSTORE PUSH1 0x0 DUP1 SLOAD PUSH1 0x1 PUSH1 0x1 PUSH1 0xA0 SHL SUB NOT SWAP1 DUP2 AND PUSH20 0x6DCE6E80B113607BABF97041A0C8C5ACCC4D1A4E OR SWAP1 SWAP2 SSTORE PUSH1 0x1 DUP1 SLOAD SWAP1 SWAP2 AND PUSH20 0x874069FA1EB16D44D622F2E0CA25EEA172369BC1 OR SWAP1 SSTORE CALLVALUE DUP1 ISZERO PUSH2 0x58 JUMPI PUSH1 0x0 DUP1 REVERT JUMPDEST POP PUSH2 0x4CD7 DUP1 PUSH2 0x68 PUSH1 0x0 CODECOPY PUSH1 0x0 RETURN INVALID PUSH1 0x80 PUSH1 0x40 MSTORE CALLVALUE DUP1 ISZERO PUSH2 0x10 JUMPI PUSH1 0x0 DUP1 REVERT JUMPDEST POP PUSH1 0x4 CALLDATASIZE LT PUSH2 0x399 JUMPI PUSH1 0x0 CALLDATALOAD PUSH1 0xE0 SHR DUP1 PUSH4 0x852C8EA7 GT PUSH2 0x1E9 JUMPI DUP1 PUSH4 0xC1DF9E90 GT PUSH2 0x10F JUMPI DUP1 PUSH4 0xDB8AC181 GT PUSH2 0xAD JUMPI DUP1 PUSH4 0xE926CA45 GT PUSH2 0x7C JUMPI DUP1 PUSH4 0xE926CA45 EQ PUSH2 0xAF7 JUMPI DUP1 PUSH4 0xE9DA1029 EQ PUSH2 0xB0A JUMPI DUP1 PUSH4 0xED04470C EQ PUSH2 0xB1D JUMPI DUP1 PUSH4 0xFAE0F23F EQ PUSH2 0xB26 JUMPI PUSH1 0x0 DUP1 REVERT JUMPDEST DUP1 PUSH4 0xDB8AC181 EQ PUSH2 0xA77 JUMPI DUP1 PUSH4 0xDE63F432 EQ PUSH2 0xA8A JUMPI DUP1 PUSH4 0xE1FF3FB7 EQ PUSH2 0xACE JUMPI DUP1 PUSH4 0xE35A8441 EQ PUSH2 0xAD7 JUMPI PUSH1 0x0 DUP1 REVERT JUMPDEST DUP1 PUSH4 0xCCA050A1 GT PUSH2 0xE9 JUMPI DUP1 PUSH4 0xCCA050A1 EQ PUSH2 0x9F5 JUMPI DUP1 PUSH4 0xD243B249 EQ PUSH2 0xA2B JUMPI DUP1 PUSH4 0xD39F622A EQ PUSH2 0xA3E JUMPI DUP1 PUSH4 0xD9AD496D EQ PUSH2 0xA47 JUMPI PUSH1 0x0 DUP1 REVERT JUMPDEST DUP1 PUSH4 0xC1DF9E90 EQ PUSH2 0x990 JUMPI DUP1 PUSH4 0xC3703048 EQ PUSH2 0x9B0 JUMPI DUP1 PUSH4 0xC64D0D85 EQ PUSH2 0x9D5 JUMPI PUSH1 0x0 DUP1 REVERT JUMPDEST DUP1 PUSH4 0xA382148A GT PUSH2 0x187 JUMPI DUP1 PUSH4 0xB0EEBD18 GT PUSH2 0x156 JUMPI DUP1 PUSH4 0xB0EEBD18 EQ PUSH2 0x91F JUMPI DUP1 PUSH4 0xB2514292 EQ PUSH2 0x932 JUMPI DUP1 PUSH4 0xBAF3F49E EQ PUSH2 0x958 JUMPI DUP1 PUSH4 0xBD7863FD EQ PUSH2 0x987 JUMPI PUSH1 0x0 DUP1 REVERT JUMPDEST DUP1 PUSH4 0xA382148A EQ PUSH2 0x8AD JUMPI DUP1 PUSH4 0xA4BFADDF EQ PUSH2 0x8C0 JUMPI DUP1 PUSH4 0xAD9ADEAD EQ PUSH2 0x8C9 JUMPI DUP1 PUSH4 0xB0344580 EQ PUSH2 0x8F0 JUMPI PUSH1 0x0 DUP1 REVERT JUMPDEST DUP1 PUSH4 0x904716F6 GT PUSH2 0x1C3 JUMPI DUP1 PUSH4 0x904716F6 EQ PUSH2 0x851 JUMPI DUP1 PUSH4 0x9100B5DD EQ PUSH2 0x871 JUMPI DUP1 PUSH4 0x9D30DC61 EQ PUSH2 0x87A JUMPI DUP1 PUSH4 0xA064DDA2 EQ PUSH2 0x89A JUMPI PUSH1 0x0 DUP1 REVERT JUMPDEST DUP1 PUSH4 0x852C8EA7 EQ PUSH2 0x815 JUMPI DUP1 PUSH4 0x8C056233 EQ PUSH2 0x828 JUMPI DUP1 PUSH4 0x8E1AFC95 EQ PUSH2 0x848 JUMPI PUSH1 0x0 DUP1 REVERT JUMPDEST DUP1 PUSH4 0x5BF35E66 GT PUSH2 0x2CE JUMPI DUP1 PUSH4 0x78C38F3A GT PUSH2 0x26C JUMPI DUP1 PUSH4 0x79F19780 GT PUSH2 0x23B JUMPI DUP1 PUSH4 0x79F19780 EQ PUSH2 0x7AF JUMPI DUP1 PUSH4 0x7DDC914A EQ PUSH2 0x7C2 JUMPI DUP1 PUSH4 0x7F868A8E EQ PUSH2 0x7E2 JUMPI DUP1 PUSH4 0x818D5254 EQ PUSH2 0x7F5 JUMPI PUSH1 0x0 DUP1 REVERT JUMPDEST DUP1 PUSH4 0x78C38F3A EQ PUSH2 0x706 JUMPI DUP1 PUSH4 0x78C5AB69 EQ PUSH2 0x719 JUMPI DUP1 PUSH4 0x78D61865 EQ PUSH2 0x72C JUMPI DUP1 PUSH4 0x79382F00 EQ PUSH2 0x78F JUMPI PUSH1 0x0 DUP1 REVERT JUMPDEST DUP1 PUSH4 0x6861F01F GT PUSH2 0x2A8 JUMPI DUP1 PUSH4 0x6861F01F EQ PUSH2 0x654 JUMPI DUP1 PUSH4 0x69DB2DB3 EQ PUSH2 0x682 JUMPI DUP1 PUSH4 0x6A098823 EQ PUSH2 0x6A2 JUMPI DUP1 PUSH4 0x6E93E563 EQ PUSH2 0x6DB JUMPI PUSH1 0x0 DUP1 REVERT JUMPDEST DUP1 PUSH4 0x5BF35E66 EQ PUSH2 0x5D8 JUMPI DUP1 PUSH4 0x60CDD94A EQ PUSH2 0x5E1 JUMPI DUP1 PUSH4 0x621D571D EQ PUSH2 0x601 JUMPI PUSH1 0x0 DUP1 REVERT JUMPDEST DUP1 PUSH4 0x3755C2B2 GT PUSH2 0x33B JUMPI DUP1 PUSH4 0x4217D66F GT PUSH2 0x315 JUMPI DUP1 PUSH4 0x4217D66F EQ PUSH2 0x547 JUMPI DUP1 PUSH4 0x431B710A EQ PUSH2 0x55A JUMPI DUP1 PUSH4 0x4464CE95 EQ PUSH2 0x593 JUMPI DUP1 PUSH4 0x4D148F40 EQ PUSH2 0x5B3 JUMPI PUSH1 0x0 DUP1 REVERT JUMPDEST DUP1 PUSH4 0x3755C2B2 EQ PUSH2 0x4A1 JUMPI DUP1 PUSH4 0x38A59A07 EQ PUSH2 0x4F1 JUMPI DUP1 PUSH4 0x3A6A44E2 EQ PUSH2 0x506 JUMPI PUSH1 0x0 DUP1 REVERT JUMPDEST DUP1 PUSH4 0xDF63082 GT PUSH2 0x377 JUMPI DUP1 PUSH4 0xDF63082 EQ PUSH2 0x41D JUMPI DUP1 PUSH4 0x1D4D3BA4 EQ PUSH2 0x430 JUMPI DUP1 PUSH4 0x213FBF1B EQ PUSH2 0x450 JUMPI DUP1 PUSH4 0x2F8E211E EQ PUSH2 0x463 JUMPI PUSH1 0x0 DUP1 REVERT JUMPDEST DUP1 PUSH4 0x6C49713 EQ PUSH2 0x39E JUMPI DUP1 PUSH4 0x72DF68A EQ PUSH2 0x3D1 JUMPI DUP1 PUSH4 0xDE0350F EQ PUSH2 0x408 JUMPI JUMPDEST PUSH1 0x0 DUP1 REVERT JUMPDEST PUSH2 0x3B1 PUSH2 0x3AC CALLDATASIZE PUSH1 0x4 PUSH2 0x40AF JUMP JUMPDEST PUSH2 0xB39 JUMP JUMPDEST PUSH1 0x40 MLOAD PUSH2 0x3C8 SWAP12 SWAP11 SWAP10 SWAP9 SWAP8 SWAP7 SWAP6 SWAP5 SWAP4 SWAP3 SWAP2 SWAP1 PUSH2 0x4115 JUMP JUMPDEST PUSH1 0x40 MLOAD DUP1 SWAP2 SUB SWAP1 RETURN JUMPDEST PUSH2 0x3FA PUSH2 0x3DF CALLDATASIZE PUSH1 0x4 PUSH2 0x41B4 JUMP JUMPDEST PUSH1 0x1 PUSH1 0x1 PUSH1 0xA0 SHL SUB AND PUSH1 0x0 SWAP1 DUP2 MSTORE PUSH1 0xA PUSH1 0x20 MSTORE PUSH1 0x40 SWAP1 KECCAK256 SLOAD SWAP1 JUMP JUMPDEST PUSH1 0x40 MLOAD SWAP1 DUP2 MSTORE PUSH1 0x20 ADD PUSH2 0x3C8 JUMP JUMPDEST PUSH2 0x41B PUSH2 0x416 CALLDATASIZE PUSH1 0x4 PUSH2 0x4272 JUMP JUMPDEST PUSH2 0xCC8 JUMP JUMPDEST STOP JUMPDEST PUSH2 0x41B PUSH2 0x42B CALLDATASIZE PUSH1 0x4 PUSH2 0x430B JUMP JUMPDEST PUSH2 0xECF JUMP JUMPDEST PUSH2 0x443 PUSH2 0x43E CALLDATASIZE PUSH1 0x4 PUSH2 0x40AF JUMP JUMPDEST PUSH2 0x10F2 JUMP JUMPDEST PUSH1 0x40 MLOAD PUSH2 0x3C8 SWAP2 SWAP1 PUSH2 0x43D5 JUMP JUMPDEST PUSH2 0x41B PUSH2 0x45E CALLDATASIZE PUSH1 0x4 PUSH2 0x40AF JUMP JUMPDEST PUSH2 0x122C JUMP JUMPDEST PUSH2 0x491 PUSH2 0x471 CALLDATASIZE PUSH1 0x4 PUSH2 0x43E8 JUMP JUMPDEST PUSH1 0x12 PUSH1 0x20 SWAP1 DUP2 MSTORE PUSH1 0x0 SWAP3 DUP4 MSTORE PUSH1 0x40 DUP1 DUP5 KECCAK256 SWAP1 SWAP2 MSTORE SWAP1 DUP3 MSTORE SWAP1 KECCAK256 SLOAD PUSH1 0xFF AND DUP2 JUMP JUMPDEST PUSH1 0x40 MLOAD SWAP1 ISZERO ISZERO DUP2 MSTORE PUSH1 0x20 ADD PUSH2 0x3C8 JUMP JUMPDEST PUSH2 0x4B4 PUSH2 0x4AF CALLDATASIZE PUSH1 0x4 PUSH2 0x4414 JUMP JUMPDEST PUSH2 0x141B JUMP JUMPDEST PUSH1 0x40 DUP1 MLOAD SWAP7 DUP8 MSTORE PUSH1 0x20 DUP8 ADD SWAP6 SWAP1 SWAP6 MSTORE PUSH1 0x1 PUSH1 0x1 PUSH1 0xA0 SHL SUB SWAP1 SWAP4 AND SWAP4 DUP6 ADD SWAP4 SWAP1 SWAP4 MSTORE PUSH1 0x60 DUP5 ADD MSTORE PUSH1 0x80 DUP4 ADD SWAP2 SWAP1 SWAP2 MSTORE ISZERO ISZERO PUSH1 0xA0 DUP3 ADD MSTORE PUSH1 0xC0 ADD PUSH2 0x3C8 JUMP JUMPDEST PUSH2 0x4F9 PUSH2 0x147B JUMP JUMPDEST PUSH1 0x40 MLOAD PUSH2 0x3C8 SWAP2 SWAP1 PUSH2 0x44F4 JUMP JUMPDEST PUSH2 0x52F PUSH2 0x514 CALLDATASIZE PUSH1 0x4 PUSH2 0x40AF JUMP JUMPDEST PUSH1 0xB PUSH1 0x20 MSTORE PUSH1 0x0 SWAP1 DUP2 MSTORE PUSH1 0x40 SWAP1 KECCAK256 SLOAD PUSH1 0x1 PUSH1 0x1 PUSH1 0xA0 SHL SUB AND DUP2 JUMP JUMPDEST PUSH1 0x40 MLOAD PUSH1 0x1 PUSH1 0x1 PUSH1 0xA0 SHL SUB SWAP1 SWAP2 AND DUP2 MSTORE PUSH1 0x20 ADD PUSH2 0x3C8 JUMP JUMPDEST PUSH2 0x3FA PUSH2 0x555 CALLDATASIZE PUSH1 0x4 PUSH2 0x43E8 JUMP JUMPDEST PUSH2 0x167C JUMP JUMPDEST PUSH2 0x491 PUSH2 0x568 CALLDATASIZE PUSH1 0x4 PUSH2 0x43E8 JUMP JUMPDEST PUSH1 0x0 SWAP2 DUP3 MSTORE PUSH1 0x11 PUSH1 0x20 SWAP1 DUP2 MSTORE PUSH1 0x40 DUP1 DUP5 KECCAK256 PUSH1 0x1 PUSH1 0x1 PUSH1 0xA0 SHL SUB SWAP4 SWAP1 SWAP4 AND DUP5 MSTORE SWAP2 SWAP1 MSTORE SWAP1 KECCAK256 SLOAD PUSH1 0xFF AND SWAP1 JUMP JUMPDEST PUSH2 0x3FA PUSH2 0x5A1 CALLDATASIZE PUSH1 0x4 PUSH2 0x40AF JUMP JUMPDEST PUSH1 0x5 PUSH1 0x20 MSTORE PUSH1 0x0 SWAP1 DUP2 MSTORE PUSH1 0x40 SWAP1 KECCAK256 SLOAD DUP2 JUMP JUMPDEST PUSH2 0x5C6 PUSH2 0x5C1 CALLDATASIZE PUSH1 0x4 PUSH2 0x41B4 JUMP JUMPDEST PUSH2 0x17B6 JUMP JUMPDEST PUSH1 0x40 MLOAD PUSH2 0x3C8 SWAP7 SWAP6 SWAP5 SWAP4 SWAP3 SWAP2 SWAP1 PUSH2 0x4556 JUMP JUMPDEST PUSH2 0x3FA PUSH1 0x19 SLOAD DUP2 JUMP JUMPDEST PUSH2 0x5F4 PUSH2 0x5EF CALLDATASIZE PUSH1 0x4 PUSH2 0x41B4 JUMP JUMPDEST PUSH2 0x190A JUMP JUMPDEST PUSH1 0x40 MLOAD PUSH2 0x3C8 SWAP2 SWAP1 PUSH2 0x465E JUMP JUMPDEST PUSH2 0x614 PUSH2 0x60F CALLDATASIZE PUSH1 0x4 PUSH2 0x40AF JUMP JUMPDEST PUSH2 0x1BBE JUMP JUMPDEST PUSH1 0x40 DUP1 MLOAD SWAP8 DUP9 MSTORE PUSH1 0x20 DUP9 ADD SWAP7 SWAP1 SWAP7 MSTORE SWAP5 DUP7 ADD SWAP4 SWAP1 SWAP4 MSTORE PUSH1 0x60 DUP6 ADD SWAP2 SWAP1 SWAP2 MSTORE PUSH1 0x1 PUSH1 0x1 PUSH1 0xA0 SHL SUB AND PUSH1 0x80 DUP5 ADD MSTORE PUSH1 0xA0 DUP4 ADD MSTORE ISZERO ISZERO PUSH1 0xC0 DUP3 ADD MSTORE PUSH1 0xE0 ADD PUSH2 0x3C8 JUMP JUMPDEST PUSH2 0x491 PUSH2 0x662 CALLDATASIZE PUSH1 0x4 PUSH2 0x43E8 JUMP JUMPDEST PUSH1 0x11 PUSH1 0x20 SWAP1 DUP2 MSTORE PUSH1 0x0 SWAP3 DUP4 MSTORE PUSH1 0x40 DUP1 DUP5 KECCAK256 SWAP1 SWAP2 MSTORE SWAP1 DUP3 MSTORE SWAP1 KECCAK256 SLOAD PUSH1 0xFF AND DUP2 JUMP JUMPDEST PUSH2 0x3FA PUSH2 0x690 CALLDATASIZE PUSH1 0x4 PUSH2 0x40AF JUMP JUMPDEST PUSH1 0x0 SWAP1 DUP2 MSTORE PUSH1 0x6 PUSH1 0x20 MSTORE PUSH1 0x40 SWAP1 KECCAK256 SLOAD SWAP1 JUMP JUMPDEST PUSH2 0x491 PUSH2 0x6B0 CALLDATASIZE PUSH1 0x4 PUSH2 0x43E8 JUMP JUMPDEST PUSH1 0x0 SWAP2 DUP3 MSTORE PUSH1 0x12 PUSH1 0x20 SWAP1 DUP2 MSTORE PUSH1 0x40 DUP1 DUP5 KECCAK256 PUSH1 0x1 PUSH1 0x1 PUSH1 0xA0 SHL SUB SWAP4 SWAP1 SWAP4 AND DUP5 MSTORE SWAP2 SWAP1 MSTORE SWAP1 KECCAK256 SLOAD PUSH1 0xFF AND SWAP1 JUMP JUMPDEST PUSH2 0x3FA PUSH2 0x6E9 CALLDATASIZE PUSH1 0x4 PUSH2 0x43E8 JUMP JUMPDEST PUSH1 0xE PUSH1 0x20 SWAP1 DUP2 MSTORE PUSH1 0x0 SWAP3 DUP4 MSTORE PUSH1 0x40 DUP1 DUP5 KECCAK256 SWAP1 SWAP2 MSTORE SWAP1 DUP3 MSTORE SWAP1 KECCAK256 SLOAD DUP2 JUMP JUMPDEST PUSH2 0x41B PUSH2 0x714 CALLDATASIZE PUSH1 0x4 PUSH2 0x4671 JUMP JUMPDEST PUSH2 0x1C19 JUMP JUMPDEST PUSH2 0x3FA PUSH2 0x727 CALLDATASIZE PUSH1 0x4 PUSH2 0x40AF JUMP JUMPDEST PUSH2 0x1C6F JUMP JUMPDEST PUSH2 0x73F PUSH2 0x73A CALLDATASIZE PUSH1 0x4 PUSH2 0x43E8 JUMP JUMPDEST PUSH2 0x1CB4 JUMP JUMPDEST PUSH1 0x40 MLOAD PUSH2 0x3C8 SWAP2 SWAP1 PUSH1 0x0 PUSH1 0xC0 DUP3 ADD SWAP1 POP DUP3 MLOAD DUP3 MSTORE PUSH1 0x20 DUP4 ADD MLOAD PUSH1 0x20 DUP4 ADD MSTORE PUSH1 0x40 DUP4 ADD MLOAD PUSH1 0x40 DUP4 ADD MSTORE PUSH1 0x60 DUP4 ADD MLOAD PUSH1 0x60 DUP4 ADD MSTORE PUSH1 0x80 DUP4 ADD MLOAD ISZERO ISZERO PUSH1 0x80 DUP4 ADD MSTORE PUSH1 0xA0 DUP4 ADD MLOAD ISZERO ISZERO PUSH1 0xA0 DUP4 ADD MSTORE SWAP3 SWAP2 POP POP JUMP JUMPDEST PUSH2 0x7A2 PUSH2 0x79D CALLDATASIZE PUSH1 0x4 PUSH2 0x40AF JUMP JUMPDEST PUSH2 0x1D92 JUMP JUMPDEST PUSH1 0x40 MLOAD PUSH2 0x3C8 SWAP2 SWAP1 PUSH2 0x46FE JUMP JUMPDEST PUSH2 0x5F4 PUSH2 0x7BD CALLDATASIZE PUSH1 0x4 PUSH2 0x40AF JUMP JUMPDEST PUSH2 0x1F90 JUMP JUMPDEST PUSH2 0x7D5 PUSH2 0x7D0 CALLDATASIZE PUSH1 0x4 PUSH2 0x40AF JUMP JUMPDEST PUSH2 0x1FC2 JUMP JUMPDEST PUSH1 0x40 MLOAD PUSH2 0x3C8 SWAP2 SWAP1 PUSH2 0x4753 JUMP JUMPDEST PUSH2 0x41B PUSH2 0x7F0 CALLDATASIZE PUSH1 0x4 PUSH2 0x4766 JUMP JUMPDEST PUSH2 0x21B1 JUMP JUMPDEST PUSH2 0x3FA PUSH2 0x803 CALLDATASIZE PUSH1 0x4 PUSH2 0x41B4 JUMP JUMPDEST PUSH1 0xA PUSH1 0x20 MSTORE PUSH1 0x0 SWAP1 DUP2 MSTORE PUSH1 0x40 SWAP1 KECCAK256 SLOAD DUP2 JUMP JUMPDEST PUSH2 0x3FA PUSH2 0x823 CALLDATASIZE PUSH1 0x4 PUSH2 0x40AF JUMP JUMPDEST PUSH2 0x2290 JUMP JUMPDEST PUSH2 0x3FA PUSH2 0x836 CALLDATASIZE PUSH1 0x4 PUSH2 0x40AF JUMP JUMPDEST PUSH1 0x6 PUSH1 0x20 MSTORE PUSH1 0x0 SWAP1 DUP2 MSTORE PUSH1 0x40 SWAP1 KECCAK256 SLOAD DUP2 JUMP JUMPDEST PUSH2 0x3FA PUSH1 0x16 SLOAD DUP2 JUMP JUMPDEST PUSH2 0x864 PUSH2 0x85F CALLDATASIZE PUSH1 0x4 PUSH2 0x40AF JUMP JUMPDEST PUSH2 0x22BC JUMP JUMPDEST PUSH1 0x40 MLOAD PUSH2 0x3C8 SWAP2 SWAP1 PUSH2 0x47DA JUMP JUMPDEST PUSH2 0x3FA PUSH1 0x18 SLOAD DUP2 JUMP JUMPDEST PUSH2 0x88D PUSH2 0x888 CALLDATASIZE PUSH1 0x4 PUSH2 0x41B4 JUMP JUMPDEST PUSH2 0x24C6 JUMP JUMPDEST PUSH1 0x40 MLOAD PUSH2 0x3C8 SWAP2 SWAP1 PUSH2 0x482F JUMP JUMPDEST PUSH2 0x5F4 PUSH2 0x8A8 CALLDATASIZE PUSH1 0x4 PUSH2 0x40AF JUMP JUMPDEST PUSH2 0x26D7 JUMP JUMPDEST PUSH2 0x7A2 PUSH2 0x8BB CALLDATASIZE PUSH1 0x4 PUSH2 0x41B4 JUMP JUMPDEST PUSH2 0x281F JUMP JUMPDEST PUSH2 0x3FA PUSH1 0x1A SLOAD DUP2 JUMP JUMPDEST PUSH2 0x8DC PUSH2 0x8D7 CALLDATASIZE PUSH1 0x4 PUSH2 0x41B4 JUMP JUMPDEST PUSH2 0x2A30 JUMP JUMPDEST PUSH1 0x40 MLOAD PUSH2 0x3C8 SWAP9 SWAP8 SWAP7 SWAP6 SWAP5 SWAP4 SWAP3 SWAP2 SWAP1 PUSH2 0x48BC JUMP JUMPDEST PUSH2 0x491 PUSH2 0x8FE CALLDATASIZE PUSH1 0x4 PUSH2 0x41B4 JUMP JUMPDEST PUSH1 0x1 PUSH1 0x1 PUSH1 0xA0 SHL SUB AND PUSH1 0x0 SWAP1 DUP2 MSTORE PUSH1 0xC PUSH1 0x20 MSTORE PUSH1 0x40 SWAP1 KECCAK256 PUSH1 0x5 ADD SLOAD PUSH1 0xFF AND SWAP1 JUMP JUMPDEST PUSH2 0x41B PUSH2 0x92D CALLDATASIZE PUSH1 0x4 PUSH2 0x4942 JUMP JUMPDEST PUSH2 0x2CA0 JUMP JUMPDEST PUSH2 0x945 PUSH2 0x940 CALLDATASIZE PUSH1 0x4 PUSH2 0x40AF JUMP JUMPDEST PUSH2 0x2DC4 JUMP JUMPDEST PUSH1 0x40 MLOAD PUSH2 0x3C8 SWAP8 SWAP7 SWAP6 SWAP5 SWAP4 SWAP3 SWAP2 SWAP1 PUSH2 0x4A00 JUMP JUMPDEST PUSH2 0x491 PUSH2 0x966 CALLDATASIZE PUSH1 0x4 PUSH2 0x41B4 JUMP JUMPDEST PUSH1 0x1 PUSH1 0x1 PUSH1 0xA0 SHL SUB AND PUSH1 0x0 SWAP1 DUP2 MSTORE PUSH1 0x2 PUSH1 0x20 MSTORE PUSH1 0x40 SWAP1 KECCAK256 PUSH1 0x5 ADD SLOAD PUSH1 0xFF AND SWAP1 JUMP JUMPDEST PUSH2 0x3FA PUSH1 0x14 SLOAD DUP2 JUMP JUMPDEST PUSH2 0x3FA PUSH2 0x99E CALLDATASIZE PUSH1 0x4 PUSH2 0x41B4 JUMP JUMPDEST PUSH1 0x9 PUSH1 0x20 MSTORE PUSH1 0x0 SWAP1 DUP2 MSTORE PUSH1 0x40 SWAP1 KECCAK256 SLOAD DUP2 JUMP JUMPDEST PUSH2 0x9C3 PUSH2 0x9BE CALLDATASIZE PUSH1 0x4 PUSH2 0x41B4 JUMP JUMPDEST PUSH2 0x2EAD JUMP JUMPDEST PUSH1 0x40 MLOAD PUSH2 0x3C8 SWAP7 SWAP6 SWAP5 SWAP4 SWAP3 SWAP2 SWAP1 PUSH2 0x4A4E JUMP JUMPDEST PUSH2 0x3FA PUSH2 0x9E3 CALLDATASIZE PUSH1 0x4 PUSH2 0x41B4 JUMP JUMPDEST PUSH1 0x3 PUSH1 0x20 MSTORE PUSH1 0x0 SWAP1 DUP2 MSTORE PUSH1 0x40 SWAP1 KECCAK256 SLOAD DUP2 JUMP JUMPDEST PUSH2 0x3FA PUSH2 0xA03 CALLDATASIZE PUSH1 0x4 PUSH2 0x43E8 JUMP JUMPDEST PUSH1 0x0 SWAP2 DUP3 MSTORE PUSH1 0xE PUSH1 0x20 SWAP1 DUP2 MSTORE PUSH1 0x40 DUP1 DUP5 KECCAK256 PUSH1 0x1 PUSH1 0x1 PUSH1 0xA0 SHL SUB SWAP4 SWAP1 SWAP4 AND DUP5 MSTORE SWAP2 SWAP1 MSTORE SWAP1 KECCAK256 SLOAD SWAP1 JUMP JUMPDEST PUSH2 0x3FA PUSH2 0xA39 CALLDATASIZE PUSH1 0x4 PUSH2 0x41B4 JUMP JUMPDEST PUSH2 0x3087 JUMP JUMPDEST PUSH2 0x3FA PUSH1 0x15 SLOAD DUP2 JUMP JUMPDEST PUSH2 0x491 PUSH2 0xA55 CALLDATASIZE PUSH1 0x4 PUSH2 0x41B4 JUMP JUMPDEST PUSH1 0x1 PUSH1 0x1 PUSH1 0xA0 SHL SUB AND PUSH1 0x0 SWAP1 DUP2 MSTORE PUSH1 0x7 PUSH1 0x20 DUP2 SWAP1 MSTORE PUSH1 0x40 SWAP1 SWAP2 KECCAK256 ADD SLOAD PUSH1 0xFF AND SWAP1 JUMP JUMPDEST PUSH2 0x41B PUSH2 0xA85 CALLDATASIZE PUSH1 0x4 PUSH2 0x4AB4 JUMP JUMPDEST PUSH2 0x3153 JUMP JUMPDEST PUSH2 0xA9D PUSH2 0xA98 CALLDATASIZE PUSH1 0x4 PUSH2 0x40AF JUMP JUMPDEST PUSH2 0x3381 JUMP JUMPDEST PUSH1 0x40 DUP1 MLOAD SWAP7 DUP8 MSTORE PUSH1 0x20 DUP8 ADD SWAP6 SWAP1 SWAP6 MSTORE SWAP4 DUP6 ADD SWAP3 SWAP1 SWAP3 MSTORE PUSH1 0x60 DUP5 ADD MSTORE ISZERO ISZERO PUSH1 0x80 DUP4 ADD MSTORE ISZERO ISZERO PUSH1 0xA0 DUP3 ADD MSTORE PUSH1 0xC0 ADD PUSH2 0x3C8 JUMP JUMPDEST PUSH2 0x3FA PUSH1 0x17 SLOAD DUP2 JUMP JUMPDEST PUSH2 0xAEA PUSH2 0xAE5 CALLDATASIZE PUSH1 0x4 PUSH2 0x41B4 JUMP JUMPDEST PUSH2 0x33CE JUMP JUMPDEST PUSH1 0x40 MLOAD PUSH2 0x3C8 SWAP2 SWAP1 PUSH2 0x4AFA JUMP JUMPDEST PUSH2 0x5F4 PUSH2 0xB05 CALLDATASIZE PUSH1 0x4 PUSH2 0x40AF JUMP JUMPDEST PUSH2 0x3555 JUMP JUMPDEST PUSH2 0x443 PUSH2 0xB18 CALLDATASIZE PUSH1 0x4 PUSH2 0x4B72 JUMP JUMPDEST PUSH2 0x3605 JUMP JUMPDEST PUSH2 0x3FA PUSH1 0x13 SLOAD DUP2 JUMP JUMPDEST PUSH2 0x4F9 PUSH2 0xB34 CALLDATASIZE PUSH1 0x4 PUSH2 0x41B4 JUMP JUMPDEST PUSH2 0x3685 JUMP JUMPDEST PUSH1 0x4 DUP2 DUP2 SLOAD DUP2 LT PUSH2 0xB49 JUMPI PUSH1 0x0 DUP1 REVERT JUMPDEST PUSH1 0x0 SWAP2 DUP3 MSTORE PUSH1 0x20 SWAP1 SWAP2 KECCAK256 PUSH1 0x9 SWAP1 SWAP2 MUL ADD DUP1 SLOAD PUSH1 0x1 DUP3 ADD SLOAD PUSH1 0x2 DUP4 ADD SLOAD PUSH1 0x3 DUP5 ADD DUP1 SLOAD SWAP4 SWAP6 POP SWAP2 SWAP4 PUSH1 0x1 PUSH1 0x1 PUSH1 0xA0 SHL SUB SWAP1 SWAP2 AND SWAP3 SWAP1 SWAP2 SWAP1 PUSH2 0xB88 SWAP1 PUSH2 0x4BA7 JUMP JUMPDEST DUP1 PUSH1 0x1F ADD PUSH1 0x20 DUP1 SWAP2 DIV MUL PUSH1 0x20 ADD PUSH1 0x40 MLOAD SWAP1 DUP2 ADD PUSH1 0x40 MSTORE DUP1 SWAP3 SWAP2 SWAP1 DUP2 DUP2 MSTORE PUSH1 0x20 ADD DUP3 DUP1 SLOAD PUSH2 0xBB4 SWAP1 PUSH2 0x4BA7 JUMP JUMPDEST DUP1 ISZERO PUSH2 0xC01 JUMPI DUP1 PUSH1 0x1F LT PUSH2 0xBD6 JUMPI PUSH2 0x100 DUP1 DUP4 SLOAD DIV MUL DUP4 MSTORE SWAP2 PUSH1 0x20 ADD SWAP2 PUSH2 0xC01 JUMP JUMPDEST DUP3 ADD SWAP2 SWAP1 PUSH1 0x0 MSTORE PUSH1 0x20 PUSH1 0x0 KECCAK256 SWAP1 JUMPDEST DUP2 SLOAD DUP2 MSTORE SWAP1 PUSH1 0x1 ADD SWAP1 PUSH1 0x20 ADD DUP1 DUP4 GT PUSH2 0xBE4 JUMPI DUP3 SWAP1 SUB PUSH1 0x1F AND DUP3 ADD SWAP2 JUMPDEST POP POP POP POP POP SWAP1 DUP1 PUSH1 0x4 ADD DUP1 SLOAD PUSH2 0xC16 SWAP1 PUSH2 0x4BA7 JUMP JUMPDEST DUP1 PUSH1 0x1F ADD PUSH1 0x20 DUP1 SWAP2 DIV MUL PUSH1 0x20 ADD PUSH1 0x40 MLOAD SWAP1 DUP2 ADD PUSH1 0x40 MSTORE DUP1 SWAP3 SWAP2 SWAP1 DUP2 DUP2 MSTORE PUSH1 0x20 ADD DUP3 DUP1 SLOAD PUSH2 0xC42 SWAP1 PUSH2 0x4BA7 JUMP JUMPDEST DUP1 ISZERO PUSH2 0xC8F JUMPI DUP1 PUSH1 0x1F LT PUSH2 0xC64 JUMPI PUSH2 0x100 DUP1 DUP4 SLOAD DIV MUL DUP4 MSTORE SWAP2 PUSH1 0x20 ADD SWAP2 PUSH2 0xC8F JUMP JUMPDEST DUP3 ADD SWAP2 SWAP1 PUSH1 0x0 MSTORE PUSH1 0x20 PUSH1 0x0 KECCAK256 SWAP1 JUMPDEST DUP2 SLOAD DUP2 MSTORE SWAP1 PUSH1 0x1 ADD SWAP1 PUSH1 0x20 ADD DUP1 DUP4 GT PUSH2 0xC72 JUMPI DUP3 SWAP1 SUB PUSH1 0x1F AND DUP3 ADD SWAP2 JUMPDEST POP POP POP POP PUSH1 0x5 DUP4 ADD SLOAD PUSH1 0x6 DUP5 ADD SLOAD PUSH1 0x7 DUP6 ADD SLOAD PUSH1 0x8 SWAP1 SWAP6 ADD SLOAD SWAP4 SWAP5 SWAP2 SWAP4 SWAP1 SWAP3 POP PUSH1 0xFF DUP1 DUP3 AND SWAP2 PUSH2 0x100 DUP2 DIV DUP3 AND SWAP2 PUSH3 0x10000 SWAP1 SWAP2 DIV AND DUP12 JUMP JUMPDEST PUSH1 0x14 SLOAD PUSH2 0xCD3 PUSH2 0x3E57 JUMP JUMPDEST DUP2 DUP2 MSTORE PUSH1 0x20 DUP1 DUP3 ADD DUP11 SWAP1 MSTORE PUSH1 0x1 PUSH1 0x1 PUSH1 0xA0 SHL SUB DUP10 AND PUSH1 0x40 DUP1 DUP5 ADD DUP3 SWAP1 MSTORE PUSH1 0x60 DUP5 ADD DUP11 SWAP1 MSTORE PUSH1 0x80 DUP5 ADD DUP10 SWAP1 MSTORE PUSH1 0xA0 DUP5 ADD DUP9 SWAP1 MSTORE PUSH1 0xC0 DUP5 ADD DUP8 SWAP1 MSTORE PUSH1 0xE0 DUP5 ADD DUP7 SWAP1 MSTORE PUSH1 0x0 SWAP2 DUP3 MSTORE PUSH1 0x3 SWAP1 SWAP3 MSTORE SWAP1 DUP2 KECCAK256 SLOAD SWAP1 PUSH2 0xD2D DUP3 PUSH1 0x1 PUSH2 0x4BF7 JUMP JUMPDEST PUSH1 0x1 PUSH1 0x1 PUSH1 0xA0 SHL SUB DUP12 DUP2 AND PUSH1 0x0 SWAP1 DUP2 MSTORE PUSH1 0x3 PUSH1 0x20 SWAP1 DUP2 MSTORE PUSH1 0x40 DUP1 DUP4 KECCAK256 DUP6 SWAP1 SSTORE PUSH1 0x4 DUP1 SLOAD PUSH1 0x1 DUP2 ADD DUP3 SSTORE SWAP4 MSTORE DUP8 MLOAD PUSH32 0x8A35ACFBC15FF81A39AE7D344FD709F28E8600B4AA8C65C6B64BFE7FE36BD19B PUSH1 0x9 SWAP1 SWAP5 MUL SWAP4 DUP5 ADD SWAP1 DUP2 SSTORE DUP9 DUP4 ADD MLOAD PUSH32 0x8A35ACFBC15FF81A39AE7D344FD709F28E8600B4AA8C65C6B64BFE7FE36BD19C DUP6 ADD SSTORE SWAP1 DUP9 ADD MLOAD PUSH32 0x8A35ACFBC15FF81A39AE7D344FD709F28E8600B4AA8C65C6B64BFE7FE36BD19D DUP5 ADD DUP1 SLOAD PUSH1 0x1 PUSH1 0x1 PUSH1 0xA0 SHL SUB NOT AND SWAP2 SWAP1 SWAP6 AND OR SWAP1 SWAP4 SSTORE PUSH1 0x60 DUP8 ADD MLOAD DUP1 MLOAD SWAP5 SWAP6 POP DUP8 SWAP5 PUSH2 0xE26 SWAP4 PUSH32 0x8A35ACFBC15FF81A39AE7D344FD709F28E8600B4AA8C65C6B64BFE7FE36BD19E ADD SWAP3 SWAP2 SWAP1 SWAP2 ADD SWAP1 PUSH2 0x3EC0 JUMP JUMPDEST POP PUSH1 0x80 DUP3 ADD MLOAD DUP1 MLOAD PUSH2 0xE42 SWAP2 PUSH1 0x4 DUP5 ADD SWAP2 PUSH1 0x20 SWAP1 SWAP2 ADD SWAP1 PUSH2 0x3EC0 JUMP JUMPDEST POP PUSH1 0xA0 DUP3 ADD MLOAD PUSH1 0x5 DUP3 ADD SSTORE PUSH1 0xC0 DUP3 ADD MLOAD PUSH1 0x6 DUP3 ADD SSTORE PUSH1 0xE0 DUP3 ADD MLOAD PUSH1 0x7 DUP3 ADD SSTORE PUSH2 0x100 DUP1 DUP4 ADD MLOAD PUSH1 0x8 SWAP1 SWAP3 ADD DUP1 SLOAD PUSH2 0x120 DUP6 ADD MLOAD PUSH2 0x140 SWAP1 SWAP6 ADD MLOAD PUSH2 0xFFFF NOT SWAP1 SWAP2 AND SWAP4 ISZERO ISZERO PUSH2 0xFF00 NOT AND SWAP4 SWAP1 SWAP4 OR SWAP4 ISZERO ISZERO SWAP1 SWAP2 MUL SWAP3 SWAP1 SWAP3 OR PUSH3 0xFF0000 NOT AND PUSH3 0x10000 SWAP2 ISZERO ISZERO SWAP2 SWAP1 SWAP2 MUL OR SWAP1 SSTORE PUSH1 0x14 DUP1 SLOAD SWAP1 PUSH1 0x0 PUSH2 0xEBD DUP4 PUSH2 0x4C0F JUMP JUMPDEST SWAP2 SWAP1 POP SSTORE POP POP POP POP POP POP POP POP POP POP POP POP JUMP JUMPDEST PUSH1 0x0 DUP5 DUP2 MSTORE PUSH1 0x11 PUSH1 0x20 SWAP1 DUP2 MSTORE PUSH1 0x40 DUP1 DUP4 KECCAK256 PUSH1 0x1 PUSH1 0x1 PUSH1 0xA0 SHL SUB DUP7 AND DUP5 MSTORE SWAP1 SWAP2 MSTORE SWAP1 KECCAK256 SLOAD PUSH1 0xFF AND ISZERO PUSH2 0xEFF JUMPI PUSH1 0x0 DUP1 REVERT JUMPDEST PUSH1 0x16 SLOAD PUSH2 0xF0A PUSH2 0x3F44 JUMP JUMPDEST DUP2 DUP2 MSTORE PUSH1 0x20 DUP1 DUP3 ADD DUP7 DUP2 MSTORE PUSH1 0x1 PUSH1 0x1 PUSH1 0xA0 SHL SUB DUP7 DUP2 AND PUSH1 0x40 DUP6 ADD SWAP1 DUP2 MSTORE PUSH1 0x60 DUP6 ADD DUP11 DUP2 MSTORE PUSH1 0x80 DUP7 ADD DUP9 DUP2 MSTORE PUSH1 0x1 PUSH1 0xC0 DUP9 ADD DUP2 SWAP1 MSTORE PUSH1 0x8 DUP1 SLOAD SWAP2 DUP3 ADD DUP2 SSTORE PUSH1 0x0 MSTORE DUP8 MLOAD PUSH32 0xF3F7A9FE364FAAB93B216DA50A3214154F22A0A2B415B23A84C8169E8B636EE3 PUSH1 0x6 SWAP1 SWAP3 MUL SWAP2 DUP3 ADD SWAP1 DUP2 SSTORE SWAP6 MLOAD PUSH32 0xF3F7A9FE364FAAB93B216DA50A3214154F22A0A2B415B23A84C8169E8B636EE4 DUP3 ADD SSTORE SWAP3 MLOAD PUSH32 0xF3F7A9FE364FAAB93B216DA50A3214154F22A0A2B415B23A84C8169E8B636EE5 DUP5 ADD DUP1 SLOAD PUSH1 0x1 PUSH1 0x1 PUSH1 0xA0 SHL SUB NOT AND SWAP2 SWAP1 SWAP6 AND OR SWAP1 SWAP4 SSTORE MLOAD PUSH32 0xF3F7A9FE364FAAB93B216DA50A3214154F22A0A2B415B23A84C8169E8B636EE6 DUP3 ADD SSTORE SWAP1 MLOAD DUP1 MLOAD DUP6 SWAP5 PUSH2 0x1030 SWAP4 PUSH32 0xF3F7A9FE364FAAB93B216DA50A3214154F22A0A2B415B23A84C8169E8B636EE7 ADD SWAP3 ADD SWAP1 PUSH2 0x3EC0 JUMP JUMPDEST POP PUSH1 0xA0 DUP3 ADD MLOAD PUSH1 0x5 SWAP2 DUP3 ADD DUP1 SLOAD PUSH1 0xC0 SWAP1 SWAP5 ADD MLOAD ISZERO ISZERO PUSH2 0x100 MUL PUSH2 0xFF00 NOT SWAP3 ISZERO ISZERO SWAP3 SWAP1 SWAP3 AND PUSH2 0xFFFF NOT SWAP1 SWAP5 AND SWAP4 SWAP1 SWAP4 OR OR SWAP1 SWAP2 SSTORE PUSH1 0x0 DUP8 DUP2 MSTORE PUSH1 0x20 SWAP2 SWAP1 SWAP2 MSTORE PUSH1 0x40 DUP2 KECCAK256 SLOAD SWAP1 PUSH2 0x107F DUP3 PUSH1 0x1 PUSH2 0x4BF7 JUMP JUMPDEST PUSH1 0x0 DUP10 DUP2 MSTORE PUSH1 0x5 PUSH1 0x20 SWAP1 DUP2 MSTORE PUSH1 0x40 DUP1 DUP4 KECCAK256 DUP5 SWAP1 SSTORE PUSH1 0x1 PUSH1 0x1 PUSH1 0xA0 SHL SUB DUP11 AND DUP4 MSTORE PUSH1 0x9 SWAP1 SWAP2 MSTORE DUP2 KECCAK256 SLOAD SWAP2 SWAP3 POP PUSH2 0x10B5 DUP3 PUSH1 0x1 PUSH2 0x4BF7 JUMP JUMPDEST PUSH1 0x1 PUSH1 0x1 PUSH1 0xA0 SHL SUB DUP10 AND PUSH1 0x0 SWAP1 DUP2 MSTORE PUSH1 0x9 PUSH1 0x20 MSTORE PUSH1 0x40 DUP2 KECCAK256 DUP3 SWAP1 SSTORE PUSH1 0x16 DUP1 SLOAD SWAP3 SWAP4 POP SWAP1 PUSH2 0x10E1 DUP4 PUSH2 0x4C0F JUMP JUMPDEST SWAP2 SWAP1 POP SSTORE POP POP POP POP POP POP POP POP POP POP POP JUMP JUMPDEST PUSH2 0x10FA PUSH2 0x3F44 JUMP JUMPDEST PUSH1 0x8 DUP3 DUP2 SLOAD DUP2 LT PUSH2 0x110D JUMPI PUSH2 0x110D PUSH2 0x4C28 JUMP JUMPDEST SWAP1 PUSH1 0x0 MSTORE PUSH1 0x20 PUSH1 0x0 KECCAK256 SWAP1 PUSH1 0x6 MUL ADD PUSH1 0x40 MLOAD DUP1 PUSH1 0xE0 ADD PUSH1 0x40 MSTORE SWAP1 DUP2 PUSH1 0x0 DUP3 ADD SLOAD DUP2 MSTORE PUSH1 0x20 ADD PUSH1 0x1 DUP3 ADD SLOAD DUP2 MSTORE PUSH1 0x20 ADD PUSH1 0x2 DUP3 ADD PUSH1 0x0 SWAP1 SLOAD SWAP1 PUSH2 0x100 EXP SWAP1 DIV PUSH1 0x1 PUSH1 0x1 PUSH1 0xA0 SHL SUB AND PUSH1 0x1 PUSH1 0x1 PUSH1 0xA0 SHL SUB AND PUSH1 0x1 PUSH1 0x1 PUSH1 0xA0 SHL SUB AND DUP2 MSTORE PUSH1 0x20 ADD PUSH1 0x3 DUP3 ADD SLOAD DUP2 MSTORE PUSH1 0x20 ADD PUSH1 0x4 DUP3 ADD DUP1 SLOAD PUSH2 0x1183 SWAP1 PUSH2 0x4BA7 JUMP JUMPDEST DUP1 PUSH1 0x1F ADD PUSH1 0x20 DUP1 SWAP2 DIV MUL PUSH1 0x20 ADD PUSH1 0x40 MLOAD SWAP1 DUP2 ADD PUSH1 0x40 MSTORE DUP1 SWAP3 SWAP2 SWAP1 DUP2 DUP2 MSTORE PUSH1 0x20 ADD DUP3 DUP1 SLOAD PUSH2 0x11AF SWAP1 PUSH2 0x4BA7 JUMP JUMPDEST DUP1 ISZERO PUSH2 0x11FC JUMPI DUP1 PUSH1 0x1F LT PUSH2 0x11D1 JUMPI PUSH2 0x100 DUP1 DUP4 SLOAD DIV MUL DUP4 MSTORE SWAP2 PUSH1 0x20 ADD SWAP2 PUSH2 0x11FC JUMP JUMPDEST DUP3 ADD SWAP2 SWAP1 PUSH1 0x0 MSTORE PUSH1 0x20 PUSH1 0x0 KECCAK256 SWAP1 JUMPDEST DUP2 SLOAD DUP2 MSTORE SWAP1 PUSH1 0x1 ADD SWAP1 PUSH1 0x20 ADD DUP1 DUP4 GT PUSH2 0x11DF JUMPI DUP3 SWAP1 SUB PUSH1 0x1F AND DUP3 ADD SWAP2 JUMPDEST POP POP POP SWAP2 DUP4 MSTORE POP POP PUSH1 0x5 SWAP2 SWAP1 SWAP2 ADD SLOAD PUSH1 0xFF DUP1 DUP3 AND ISZERO ISZERO PUSH1 0x20 DUP5 ADD MSTORE PUSH2 0x100 SWAP1 SWAP2 DIV AND ISZERO ISZERO PUSH1 0x40 SWAP1 SWAP2 ADD MSTORE SWAP3 SWAP2 POP POP JUMP JUMPDEST PUSH1 0x0 PUSH1 0x8 DUP3 DUP2 SLOAD DUP2 LT PUSH2 0x1241 JUMPI PUSH2 0x1241 PUSH2 0x4C28 JUMP JUMPDEST SWAP1 PUSH1 0x0 MSTORE PUSH1 0x20 PUSH1 0x0 KECCAK256 SWAP1 PUSH1 0x6 MUL ADD PUSH1 0x40 MLOAD DUP1 PUSH1 0xE0 ADD PUSH1 0x40 MSTORE SWAP1 DUP2 PUSH1 0x0 DUP3 ADD SLOAD DUP2 MSTORE PUSH1 0x20 ADD PUSH1 0x1 DUP3 ADD SLOAD DUP2 MSTORE PUSH1 0x20 ADD PUSH1 0x2 DUP3 ADD PUSH1 0x0 SWAP1 SLOAD SWAP1 PUSH2 0x100 EXP SWAP1 DIV PUSH1 0x1 PUSH1 0x1 PUSH1 0xA0 SHL SUB AND PUSH1 0x1 PUSH1 0x1 PUSH1 0xA0 SHL SUB AND PUSH1 0x1 PUSH1 0x1 PUSH1 0xA0 SHL SUB AND DUP2 MSTORE PUSH1 0x20 ADD PUSH1 0x3 DUP3 ADD SLOAD DUP2 MSTORE PUSH1 0x20 ADD PUSH1 0x4 DUP3 ADD DUP1 SLOAD PUSH2 0x12B7 SWAP1 PUSH2 0x4BA7 JUMP JUMPDEST DUP1 PUSH1 0x1F ADD PUSH1 0x20 DUP1 SWAP2 DIV MUL PUSH1 0x20 ADD PUSH1 0x40 MLOAD SWAP1 DUP2 ADD PUSH1 0x40 MSTORE DUP1 SWAP3 SWAP2 SWAP1 DUP2 DUP2 MSTORE PUSH1 0x20 ADD DUP3 DUP1 SLOAD PUSH2 0x12E3 SWAP1 PUSH2 0x4BA7 JUMP JUMPDEST DUP1 ISZERO PUSH2 0x1330 JUMPI DUP1 PUSH1 0x1F LT PUSH2 0x1305 JUMPI PUSH2 0x100 DUP1 DUP4 SLOAD DIV MUL DUP4 MSTORE SWAP2 PUSH1 0x20 ADD SWAP2 PUSH2 0x1330 JUMP JUMPDEST DUP3 ADD SWAP2 SWAP1 PUSH1 0x0 MSTORE PUSH1 0x20 PUSH1 0x0 KECCAK256 SWAP1 JUMPDEST DUP2 SLOAD DUP2 MSTORE SWAP1 PUSH1 0x1 ADD SWAP1 PUSH1 0x20 ADD DUP1 DUP4 GT PUSH2 0x1313 JUMPI DUP3 SWAP1 SUB PUSH1 0x1F AND DUP3 ADD SWAP2 JUMPDEST POP POP POP SWAP2 DUP4 MSTORE POP POP PUSH1 0x5 SWAP2 SWAP1 SWAP2 ADD SLOAD PUSH1 0xFF DUP1 DUP3 AND ISZERO ISZERO PUSH1 0x20 DUP5 ADD MSTORE PUSH2 0x100 SWAP1 SWAP2 DIV AND ISZERO ISZERO PUSH1 0x40 SWAP1 SWAP2 ADD MSTORE PUSH1 0x1 PUSH1 0xA0 DUP3 ADD MSTORE PUSH1 0x8 DUP1 SLOAD SWAP2 SWAP3 POP DUP3 SWAP2 DUP5 SWAP1 DUP2 LT PUSH2 0x137A JUMPI PUSH2 0x137A PUSH2 0x4C28 JUMP JUMPDEST PUSH1 0x0 SWAP2 DUP3 MSTORE PUSH1 0x20 SWAP2 DUP3 SWAP1 KECCAK256 DUP4 MLOAD PUSH1 0x6 SWAP3 SWAP1 SWAP3 MUL ADD SWAP1 DUP2 SSTORE DUP3 DUP3 ADD MLOAD PUSH1 0x1 DUP3 ADD SSTORE PUSH1 0x40 DUP4 ADD MLOAD PUSH1 0x2 DUP3 ADD DUP1 SLOAD PUSH1 0x1 PUSH1 0x1 PUSH1 0xA0 SHL SUB NOT AND PUSH1 0x1 PUSH1 0x1 PUSH1 0xA0 SHL SUB SWAP1 SWAP3 AND SWAP2 SWAP1 SWAP2 OR SWAP1 SSTORE PUSH1 0x60 DUP4 ADD MLOAD PUSH1 0x3 DUP3 ADD SSTORE PUSH1 0x80 DUP4 ADD MLOAD DUP1 MLOAD SWAP2 SWAP3 PUSH2 0x13E5 SWAP3 PUSH1 0x4 DUP6 ADD SWAP3 SWAP1 SWAP2 ADD SWAP1 PUSH2 0x3EC0 JUMP JUMPDEST POP PUSH1 0xA0 DUP3 ADD MLOAD PUSH1 0x5 SWAP1 SWAP2 ADD DUP1 SLOAD PUSH1 0xC0 SWAP1 SWAP4 ADD MLOAD ISZERO ISZERO PUSH2 0x100 MUL PUSH2 0xFF00 NOT SWAP3 ISZERO ISZERO SWAP3 SWAP1 SWAP3 AND PUSH2 0xFFFF NOT SWAP1 SWAP4 AND SWAP3 SWAP1 SWAP3 OR OR SWAP1 SSTORE POP POP JUMP JUMPDEST PUSH1 0x10 PUSH1 0x20 MSTORE DUP2 PUSH1 0x0 MSTORE PUSH1 0x40 PUSH1 0x0 KECCAK256 DUP2 DUP2 SLOAD DUP2 LT PUSH2 0x1437 JUMPI PUSH1 0x0 DUP1 REVERT JUMPDEST PUSH1 0x0 SWAP2 DUP3 MSTORE PUSH1 0x20 SWAP1 SWAP2 KECCAK256 PUSH1 0x6 SWAP1 SWAP2 MUL ADD DUP1 SLOAD PUSH1 0x1 DUP3 ADD SLOAD PUSH1 0x2 DUP4 ADD SLOAD PUSH1 0x3 DUP5 ADD SLOAD PUSH1 0x4 DUP6 ADD SLOAD PUSH1 0x5 SWAP1 SWAP6 ADD SLOAD SWAP4 SWAP7 POP SWAP2 SWAP5 POP PUSH1 0x1 PUSH1 0x1 PUSH1 0xA0 SHL SUB AND SWAP3 SWAP1 SWAP2 PUSH1 0xFF AND DUP7 JUMP JUMPDEST PUSH1 0x60 PUSH1 0x4 DUP1 SLOAD DUP1 PUSH1 0x20 MUL PUSH1 0x20 ADD PUSH1 0x40 MLOAD SWAP1 DUP2 ADD PUSH1 0x40 MSTORE DUP1 SWAP3 SWAP2 SWAP1 DUP2 DUP2 MSTORE PUSH1 0x20 ADD PUSH1 0x0 SWAP1 JUMPDEST DUP3 DUP3 LT ISZERO PUSH2 0x1673 JUMPI PUSH1 0x0 DUP5 DUP2 MSTORE PUSH1 0x20 SWAP1 DUP2 SWAP1 KECCAK256 PUSH1 0x40 DUP1 MLOAD PUSH2 0x160 DUP2 ADD DUP3 MSTORE PUSH1 0x9 DUP7 MUL SWAP1 SWAP3 ADD DUP1 SLOAD DUP4 MSTORE PUSH1 0x1 DUP2 ADD SLOAD SWAP4 DUP4 ADD SWAP4 SWAP1 SWAP4 MSTORE PUSH1 0x2 DUP4 ADD SLOAD PUSH1 0x1 PUSH1 0x1 PUSH1 0xA0 SHL SUB AND SWAP1 DUP3 ADD MSTORE PUSH1 0x3 DUP3 ADD DUP1 SLOAD SWAP2 SWAP3 SWAP2 PUSH1 0x60 DUP5 ADD SWAP2 SWAP1 PUSH2 0x14FE SWAP1 PUSH2 0x4BA7 JUMP JUMPDEST DUP1 PUSH1 0x1F ADD PUSH1 0x20 DUP1 SWAP2 DIV MUL PUSH1 0x20 ADD PUSH1 0x40 MLOAD SWAP1 DUP2 ADD PUSH1 0x40 MSTORE DUP1 SWAP3 SWAP2 SWAP1 DUP2 DUP2 MSTORE PUSH1 0x20 ADD DUP3 DUP1 SLOAD PUSH2 0x152A SWAP1 PUSH2 0x4BA7 JUMP JUMPDEST DUP1 ISZERO PUSH2 0x1577 JUMPI DUP1 PUSH1 0x1F LT PUSH2 0x154C JUMPI PUSH2 0x100 DUP1 DUP4 SLOAD DIV MUL DUP4 MSTORE SWAP2 PUSH1 0x20 ADD SWAP2 PUSH2 0x1577 JUMP JUMPDEST DUP3 ADD SWAP2 SWAP1 PUSH1 0x0 MSTORE PUSH1 0x20 PUSH1 0x0 KECCAK256 SWAP1 JUMPDEST DUP2 SLOAD DUP2 MSTORE SWAP1 PUSH1 0x1 ADD SWAP1 PUSH1 0x20 ADD DUP1 DUP4 GT PUSH2 0x155A JUMPI DUP3 SWAP1 SUB PUSH1 0x1F AND DUP3 ADD SWAP2 JUMPDEST POP POP POP POP POP DUP2 MSTORE PUSH1 0x20 ADD PUSH1 0x4 DUP3 ADD DUP1 SLOAD PUSH2 0x1590 SWAP1 PUSH2 0x4BA7 JUMP JUMPDEST DUP1 PUSH1 0x1F ADD PUSH1 0x20 DUP1 SWAP2 DIV MUL PUSH1 0x20 ADD PUSH1 0x40 MLOAD SWAP1 DUP2 ADD PUSH1 0x40 MSTORE DUP1 SWAP3 SWAP2 SWAP1 DUP2 DUP2 MSTORE PUSH1 0x20 ADD DUP3 DUP1 SLOAD PUSH2 0x15BC SWAP1 PUSH2 0x4BA7 JUMP JUMPDEST DUP1 ISZERO PUSH2 0x1609 JUMPI DUP1 PUSH1 0x1F LT PUSH2 0x15DE JUMPI PUSH2 0x100 DUP1 DUP4 SLOAD DIV MUL DUP4 MSTORE SWAP2 PUSH1 0x20 ADD SWAP2 PUSH2 0x1609 JUMP JUMPDEST DUP3 ADD SWAP2 SWAP1 PUSH1 0x0 MSTORE PUSH1 0x20 PUSH1 0x0 KECCAK256 SWAP1 JUMPDEST DUP2 SLOAD DUP2 MSTORE SWAP1 PUSH1 0x1 ADD SWAP1 PUSH1 0x20 ADD DUP1 DUP4 GT PUSH2 0x15EC JUMPI DUP3 SWAP1 SUB PUSH1 0x1F AND DUP3 ADD SWAP2 JUMPDEST POP POP POP SWAP2 DUP4 MSTORE POP POP PUSH1 0x5 DUP3 ADD SLOAD PUSH1 0x20 DUP1 DUP4 ADD SWAP2 SWAP1 SWAP2 MSTORE PUSH1 0x6 DUP4 ADD SLOAD PUSH1 0x40 DUP4 ADD MSTORE PUSH1 0x7 DUP4 ADD SLOAD PUSH1 0x60 DUP4 ADD MSTORE PUSH1 0x8 SWAP1 SWAP3 ADD SLOAD PUSH1 0xFF DUP1 DUP3 AND ISZERO ISZERO PUSH1 0x80 DUP5 ADD MSTORE PUSH2 0x100 DUP3 DIV DUP2 AND ISZERO ISZERO PUSH1 0xA0 DUP5 ADD MSTORE PUSH3 0x10000 SWAP1 SWAP2 DIV AND ISZERO ISZERO PUSH1 0xC0 SWAP1 SWAP2 ADD MSTORE SWAP1 DUP3 MSTORE PUSH1 0x1 SWAP3 SWAP1 SWAP3 ADD SWAP2 ADD PUSH2 0x149F JUMP JUMPDEST POP POP POP POP SWAP1 POP SWAP1 JUMP JUMPDEST PUSH1 0x1 PUSH1 0x1 PUSH1 0xA0 SHL SUB DUP2 AND PUSH1 0x0 SWAP1 DUP2 MSTORE PUSH1 0x10 PUSH1 0x20 SWAP1 DUP2 MSTORE PUSH1 0x40 DUP1 DUP4 KECCAK256 DUP1 SLOAD DUP3 MLOAD DUP2 DUP6 MUL DUP2 ADD DUP6 ADD SWAP1 SWAP4 MSTORE DUP1 DUP4 MSTORE DUP5 SWAP4 DUP5 SWAP1 DUP5 ADD JUMPDEST DUP3 DUP3 LT ISZERO PUSH2 0x1725 JUMPI PUSH1 0x0 DUP5 DUP2 MSTORE PUSH1 0x20 SWAP1 DUP2 SWAP1 KECCAK256 PUSH1 0x40 DUP1 MLOAD PUSH1 0xC0 DUP2 ADD DUP3 MSTORE PUSH1 0x6 DUP7 MUL SWAP1 SWAP3 ADD DUP1 SLOAD DUP4 MSTORE PUSH1 0x1 DUP1 DUP3 ADD SLOAD DUP5 DUP7 ADD MSTORE PUSH1 0x2 DUP3 ADD SLOAD PUSH1 0x1 PUSH1 0x1 PUSH1 0xA0 SHL SUB AND SWAP3 DUP5 ADD SWAP3 SWAP1 SWAP3 MSTORE PUSH1 0x3 DUP2 ADD SLOAD PUSH1 0x60 DUP5 ADD MSTORE PUSH1 0x4 DUP2 ADD SLOAD PUSH1 0x80 DUP5 ADD MSTORE PUSH1 0x5 ADD SLOAD PUSH1 0xFF AND ISZERO ISZERO PUSH1 0xA0 DUP4 ADD MSTORE SWAP1 DUP4 MSTORE SWAP1 SWAP3 ADD SWAP2 ADD PUSH2 0x16AF JUMP JUMPDEST POP POP POP POP SWAP1 POP PUSH1 0x0 DUP1 JUMPDEST DUP3 MLOAD DUP2 LT ISZERO PUSH2 0x17AD JUMPI PUSH1 0x0 DUP4 DUP3 DUP2 MLOAD DUP2 LT PUSH2 0x174C JUMPI PUSH2 0x174C PUSH2 0x4C28 JUMP JUMPDEST PUSH1 0x20 MUL PUSH1 0x20 ADD ADD MLOAD SWAP1 POP DUP7 DUP2 PUSH1 0x20 ADD MLOAD EQ DUP1 ISZERO PUSH2 0x177E JUMPI POP DUP6 PUSH1 0x1 PUSH1 0x1 PUSH1 0xA0 SHL SUB AND DUP2 PUSH1 0x40 ADD MLOAD PUSH1 0x1 PUSH1 0x1 PUSH1 0xA0 SHL SUB AND EQ JUMPDEST ISZERO PUSH2 0x179A JUMPI PUSH1 0x80 DUP2 ADD MLOAD PUSH2 0x1792 SWAP1 DUP5 PUSH2 0x4BF7 JUMP JUMPDEST SWAP3 POP POP PUSH2 0x17AD JUMP JUMPDEST POP DUP1 PUSH2 0x17A5 DUP2 PUSH2 0x4C0F JUMP JUMPDEST SWAP2 POP POP PUSH2 0x172F JUMP JUMPDEST POP SWAP5 SWAP4 POP POP POP POP JUMP JUMPDEST PUSH1 0x2 PUSH1 0x20 DUP2 SWAP1 MSTORE PUSH1 0x0 SWAP2 DUP3 MSTORE PUSH1 0x40 SWAP1 SWAP2 KECCAK256 DUP1 SLOAD PUSH1 0x1 DUP3 ADD SLOAD SWAP3 DUP3 ADD DUP1 SLOAD SWAP2 SWAP4 PUSH1 0x1 PUSH1 0x1 PUSH1 0xA0 SHL SUB AND SWAP3 SWAP2 PUSH2 0x17E9 SWAP1 PUSH2 0x4BA7 JUMP JUMPDEST DUP1 PUSH1 0x1F ADD PUSH1 0x20 DUP1 SWAP2 DIV MUL PUSH1 0x20 ADD PUSH1 0x40 MLOAD SWAP1 DUP2 ADD PUSH1 0x40 MSTORE DUP1 SWAP3 SWAP2 SWAP1 DUP2 DUP2 MSTORE PUSH1 0x20 ADD DUP3 DUP1 SLOAD PUSH2 0x1815 SWAP1 PUSH2 0x4BA7 JUMP JUMPDEST DUP1 ISZERO PUSH2 0x1862 JUMPI DUP1 PUSH1 0x1F LT PUSH2 0x1837 JUMPI PUSH2 0x100 DUP1 DUP4 SLOAD DIV MUL DUP4 MSTORE SWAP2 PUSH1 0x20 ADD SWAP2 PUSH2 0x1862 JUMP JUMPDEST DUP3 ADD SWAP2 SWAP1 PUSH1 0x0 MSTORE PUSH1 0x20 PUSH1 0x0 KECCAK256 SWAP1 JUMPDEST DUP2 SLOAD DUP2 MSTORE SWAP1 PUSH1 0x1 ADD SWAP1 PUSH1 0x20 ADD DUP1 DUP4 GT PUSH2 0x1845 JUMPI DUP3 SWAP1 SUB PUSH1 0x1F AND DUP3 ADD SWAP2 JUMPDEST POP POP POP POP POP SWAP1 DUP1 PUSH1 0x3 ADD DUP1 SLOAD PUSH2 0x1877 SWAP1 PUSH2 0x4BA7 JUMP JUMPDEST DUP1 PUSH1 0x1F ADD PUSH1 0x20 DUP1 SWAP2 DIV MUL PUSH1 0x20 ADD PUSH1 0x40 MLOAD SWAP1 DUP2 ADD PUSH1 0x40 MSTORE DUP1 SWAP3 SWAP2 SWAP1 DUP2 DUP2 MSTORE PUSH1 0x20 ADD DUP3 DUP1 SLOAD PUSH2 0x18A3 SWAP1 PUSH2 0x4BA7 JUMP JUMPDEST DUP1 ISZERO PUSH2 0x18F0 JUMPI DUP1 PUSH1 0x1F LT PUSH2 0x18C5 JUMPI PUSH2 0x100 DUP1 DUP4 SLOAD DIV MUL DUP4 MSTORE SWAP2 PUSH1 0x20 ADD SWAP2 PUSH2 0x18F0 JUMP JUMPDEST DUP3 ADD SWAP2 SWAP1 PUSH1 0x0 MSTORE PUSH1 0x20 PUSH1 0x0 KECCAK256 SWAP1 JUMPDEST DUP2 SLOAD DUP2 MSTORE SWAP1 PUSH1 0x1 ADD SWAP1 PUSH1 0x20 ADD DUP1 DUP4 GT PUSH2 0x18D3 JUMPI DUP3 SWAP1 SUB PUSH1 0x1F AND DUP3 ADD SWAP2 JUMPDEST POP POP POP POP PUSH1 0x4 DUP4 ADD SLOAD PUSH1 0x5 SWAP1 SWAP4 ADD SLOAD SWAP2 SWAP3 SWAP2 PUSH1 0xFF AND SWAP1 POP DUP7 JUMP JUMPDEST PUSH2 0x1912 PUSH2 0x3F8E JUMP JUMPDEST PUSH1 0x1 PUSH1 0x1 PUSH1 0xA0 SHL SUB DUP1 DUP4 AND PUSH1 0x0 SWAP1 DUP2 MSTORE PUSH1 0x7 PUSH1 0x20 SWAP1 DUP2 MSTORE PUSH1 0x40 SWAP2 DUP3 SWAP1 KECCAK256 DUP3 MLOAD PUSH2 0x100 DUP2 ADD DUP5 MSTORE DUP2 SLOAD DUP2 MSTORE PUSH1 0x1 DUP3 ADD SLOAD SWAP3 DUP2 ADD SWAP3 SWAP1 SWAP3 MSTORE PUSH1 0x2 DUP2 ADD SLOAD SWAP1 SWAP4 AND SWAP2 DUP2 ADD SWAP2 SWAP1 SWAP2 MSTORE PUSH1 0x3 DUP3 ADD DUP1 SLOAD SWAP2 SWAP3 SWAP2 PUSH1 0x60 DUP5 ADD SWAP2 SWAP1 PUSH2 0x196F SWAP1 PUSH2 0x4BA7 JUMP JUMPDEST DUP1 PUSH1 0x1F ADD PUSH1 0x20 DUP1 SWAP2 DIV MUL PUSH1 0x20 ADD PUSH1 0x40 MLOAD SWAP1 DUP2 ADD PUSH1 0x40 MSTORE DUP1 SWAP3 SWAP2 SWAP1 DUP2 DUP2 MSTORE PUSH1 0x20 ADD DUP3 DUP1 SLOAD PUSH2 0x199B SWAP1 PUSH2 0x4BA7 JUMP JUMPDEST DUP1 ISZERO PUSH2 0x19E8 JUMPI DUP1 PUSH1 0x1F LT PUSH2 0x19BD JUMPI PUSH2 0x100 DUP1 DUP4 SLOAD DIV MUL DUP4 MSTORE SWAP2 PUSH1 0x20 ADD SWAP2 PUSH2 0x19E8 JUMP JUMPDEST DUP3 ADD SWAP2 SWAP1 PUSH1 0x0 MSTORE PUSH1 0x20 PUSH1 0x0 KECCAK256 SWAP1 JUMPDEST DUP2 SLOAD DUP2 MSTORE SWAP1 PUSH1 0x1 ADD SWAP1 PUSH1 0x20 ADD DUP1 DUP4 GT PUSH2 0x19CB JUMPI DUP3 SWAP1 SUB PUSH1 0x1F AND DUP3 ADD SWAP2 JUMPDEST POP POP POP POP POP DUP2 MSTORE PUSH1 0x20 ADD PUSH1 0x4 DUP3 ADD DUP1 SLOAD PUSH2 0x1A01 SWAP1 PUSH2 0x4BA7 JUMP JUMPDEST DUP1 PUSH1 0x1F ADD PUSH1 0x20 DUP1 SWAP2 DIV MUL PUSH1 0x20 ADD PUSH1 0x40 MLOAD SWAP1 DUP2 ADD PUSH1 0x40 MSTORE DUP1 SWAP3 SWAP2 SWAP1 DUP2 DUP2 MSTORE PUSH1 0x20 ADD DUP3 DUP1 SLOAD PUSH2 0x1A2D SWAP1 PUSH2 0x4BA7 JUMP JUMPDEST DUP1 ISZERO PUSH2 0x1A7A JUMPI DUP1 PUSH1 0x1F LT PUSH2 0x1A4F JUMPI PUSH2 0x100 DUP1 DUP4 SLOAD DIV MUL DUP4 MSTORE SWAP2 PUSH1 0x20 ADD SWAP2 PUSH2 0x1A7A JUMP JUMPDEST DUP3 ADD SWAP2 SWAP1 PUSH1 0x0 MSTORE PUSH1 0x20 PUSH1 0x0 KECCAK256 SWAP1 JUMPDEST DUP2 SLOAD DUP2 MSTORE SWAP1 PUSH1 0x1 ADD SWAP1 PUSH1 0x20 ADD DUP1 DUP4 GT PUSH2 0x1A5D JUMPI DUP3 SWAP1 SUB PUSH1 0x1F AND DUP3 ADD SWAP2 JUMPDEST POP POP POP POP POP DUP2 MSTORE PUSH1 0x20 ADD PUSH1 0x5 DUP3 ADD DUP1 SLOAD PUSH2 0x1A93 SWAP1 PUSH2 0x4BA7 JUMP JUMPDEST DUP1 PUSH1 0x1F ADD PUSH1 0x20 DUP1 SWAP2 DIV MUL PUSH1 0x20 ADD PUSH1 0x40 MLOAD SWAP1 DUP2 ADD PUSH1 0x40 MSTORE DUP1 SWAP3 SWAP2 SWAP1 DUP2 DUP2 MSTORE PUSH1 0x20 ADD DUP3 DUP1 SLOAD PUSH2 0x1ABF SWAP1 PUSH2 0x4BA7 JUMP JUMPDEST DUP1 ISZERO PUSH2 0x1B0C JUMPI DUP1 PUSH1 0x1F LT PUSH2 0x1AE1 JUMPI PUSH2 0x100 DUP1 DUP4 SLOAD DIV MUL DUP4 MSTORE SWAP2 PUSH1 0x20 ADD SWAP2 PUSH2 0x1B0C JUMP JUMPDEST DUP3 ADD SWAP2 SWAP1 PUSH1 0x0 MSTORE PUSH1 0x20 PUSH1 0x0 KECCAK256 SWAP1 JUMPDEST DUP2 SLOAD DUP2 MSTORE SWAP1 PUSH1 0x1 ADD SWAP1 PUSH1 0x20 ADD DUP1 DUP4 GT PUSH2 0x1AEF JUMPI DUP3 SWAP1 SUB PUSH1 0x1F AND DUP3 ADD SWAP2 JUMPDEST POP POP POP POP POP DUP2 MSTORE PUSH1 0x20 ADD PUSH1 0x6 DUP3 ADD DUP1 SLOAD PUSH2 0x1B25 SWAP1 PUSH2 0x4BA7 JUMP JUMPDEST DUP1 PUSH1 0x1F ADD PUSH1 0x20 DUP1 SWAP2 DIV MUL PUSH1 0x20 ADD PUSH1 0x40 MLOAD SWAP1 DUP2 ADD PUSH1 0x40 MSTORE DUP1 SWAP3 SWAP2 SWAP1 DUP2 DUP2 MSTORE PUSH1 0x20 ADD DUP3 DUP1 SLOAD PUSH2 0x1B51 SWAP1 PUSH2 0x4BA7 JUMP JUMPDEST DUP1 ISZERO PUSH2 0x1B9E JUMPI DUP1 PUSH1 0x1F LT PUSH2 0x1B73 JUMPI PUSH2 0x100 DUP1 DUP4 SLOAD DIV MUL DUP4 MSTORE SWAP2 PUSH1 0x20 ADD SWAP2 PUSH2 0x1B9E JUMP JUMPDEST DUP3 ADD SWAP2 SWAP1 PUSH1 0x0 MSTORE PUSH1 0x20 PUSH1 0x0 KECCAK256 SWAP1 JUMPDEST DUP2 SLOAD DUP2 MSTORE SWAP1 PUSH1 0x1 ADD SWAP1 PUSH1 0x20 ADD DUP1 DUP4 GT PUSH2 0x1B81 JUMPI DUP3 SWAP1 SUB PUSH1 0x1F AND DUP3 ADD SWAP2 JUMPDEST POP POP POP SWAP2 DUP4 MSTORE POP POP PUSH1 0x7 SWAP2 SWAP1 SWAP2 ADD SLOAD PUSH1 0xFF AND ISZERO ISZERO PUSH1 0x20 SWAP1 SWAP2 ADD MSTORE SWAP3 SWAP2 POP POP JUMP JUMPDEST PUSH1 0xF DUP2 DUP2 SLOAD DUP2 LT PUSH2 0x1BCE JUMPI PUSH1 0x0 DUP1 REVERT JUMPDEST PUSH1 0x0 SWAP2 DUP3 MSTORE PUSH1 0x20 SWAP1 SWAP2 KECCAK256 PUSH1 0x7 SWAP1 SWAP2 MUL ADD DUP1 SLOAD PUSH1 0x1 DUP3 ADD SLOAD PUSH1 0x2 DUP4 ADD SLOAD PUSH1 0x3 DUP5 ADD SLOAD PUSH1 0x4 DUP6 ADD SLOAD PUSH1 0x5 DUP7 ADD SLOAD PUSH1 0x6 SWAP1 SWAP7 ADD SLOAD SWAP5 SWAP7 POP SWAP3 SWAP5 SWAP2 SWAP4 SWAP1 SWAP3 PUSH1 0x1 PUSH1 0x1 PUSH1 0xA0 SHL SUB AND SWAP2 SWAP1 PUSH1 0xFF AND DUP8 JUMP JUMPDEST PUSH1 0x17 SLOAD PUSH2 0x1C24 PUSH2 0x3FDE JUMP JUMPDEST DUP2 DUP2 MSTORE PUSH1 0x1 PUSH1 0x1 PUSH1 0xA0 SHL SUB DUP7 AND PUSH1 0x20 DUP3 ADD MSTORE PUSH1 0x40 DUP2 ADD DUP6 SWAP1 MSTORE PUSH1 0x60 DUP2 ADD DUP5 SWAP1 MSTORE PUSH1 0x80 DUP2 ADD DUP4 SWAP1 MSTORE PUSH1 0x1 PUSH1 0xA0 DUP3 ADD MSTORE PUSH1 0x17 DUP1 SLOAD SWAP1 PUSH1 0x0 PUSH2 0x1C62 DUP4 PUSH2 0x4C0F JUMP JUMPDEST SWAP2 SWAP1 POP SSTORE POP POP POP POP POP POP POP JUMP JUMPDEST PUSH1 0x0 DUP2 DUP2 MSTORE PUSH1 0x6 PUSH1 0x20 MSTORE PUSH1 0x40 DUP2 KECCAK256 SLOAD DUP1 PUSH1 0x64 PUSH2 0x1C8A DUP6 PUSH2 0x1FC2 JUMP JUMPDEST PUSH1 0xE0 ADD MLOAD PUSH2 0x1C99 SWAP1 PUSH1 0xA PUSH2 0x4C3E JUMP JUMPDEST PUSH2 0x1CA3 SWAP2 SWAP1 PUSH2 0x4C5D JUMP JUMPDEST PUSH2 0x1CAD SWAP2 SWAP1 PUSH2 0x4C5D JUMP JUMPDEST SWAP4 SWAP3 POP POP POP JUMP JUMPDEST PUSH2 0x1CBC PUSH2 0x401F JUMP JUMPDEST PUSH2 0x1CC4 PUSH2 0x401F JUMP JUMPDEST PUSH1 0x0 PUSH2 0x1CCF DUP5 PUSH2 0x24C6 JUMP JUMPDEST SWAP1 POP PUSH1 0x0 JUMPDEST PUSH1 0xD SLOAD DUP2 LT ISZERO PUSH2 0x1D88 JUMPI PUSH1 0x0 PUSH1 0xD DUP3 DUP2 SLOAD DUP2 LT PUSH2 0x1CF3 JUMPI PUSH2 0x1CF3 PUSH2 0x4C28 JUMP JUMPDEST PUSH1 0x0 SWAP2 DUP3 MSTORE PUSH1 0x20 SWAP2 DUP3 SWAP1 KECCAK256 PUSH1 0x40 DUP1 MLOAD PUSH1 0xC0 DUP2 ADD DUP3 MSTORE PUSH1 0x5 SWAP1 SWAP4 MUL SWAP1 SWAP2 ADD DUP1 SLOAD DUP4 MSTORE PUSH1 0x1 DUP2 ADD SLOAD SWAP4 DUP4 ADD SWAP4 SWAP1 SWAP4 MSTORE PUSH1 0x2 DUP4 ADD SLOAD SWAP1 DUP3 ADD MSTORE PUSH1 0x3 DUP3 ADD SLOAD PUSH1 0x60 DUP3 ADD DUP2 SWAP1 MSTORE PUSH1 0x4 SWAP1 SWAP3 ADD SLOAD PUSH1 0xFF DUP1 DUP3 AND ISZERO ISZERO PUSH1 0x80 DUP5 ADD MSTORE PUSH2 0x100 SWAP1 SWAP2 DIV AND ISZERO ISZERO PUSH1 0xA0 DUP3 ADD MSTORE SWAP2 POP DUP8 EQ DUP1 ISZERO PUSH2 0x1D69 JUMPI POP DUP3 MLOAD PUSH1 0x20 DUP3 ADD MLOAD EQ JUMPDEST ISZERO PUSH2 0x1D75 JUMPI SWAP3 POP PUSH2 0x1D88 JUMP JUMPDEST POP DUP1 PUSH2 0x1D80 DUP2 PUSH2 0x4C0F JUMP JUMPDEST SWAP2 POP POP PUSH2 0x1CD4 JUMP JUMPDEST POP SWAP1 SWAP5 SWAP4 POP POP POP POP JUMP JUMPDEST PUSH1 0x0 DUP2 DUP2 MSTORE PUSH1 0x5 PUSH1 0x20 MSTORE PUSH1 0x40 DUP2 KECCAK256 SLOAD PUSH1 0x60 SWAP2 DUP2 PUSH8 0xFFFFFFFFFFFFFFFF DUP2 GT ISZERO PUSH2 0x1DBD JUMPI PUSH2 0x1DBD PUSH2 0x41CF JUMP JUMPDEST PUSH1 0x40 MLOAD SWAP1 DUP1 DUP3 MSTORE DUP1 PUSH1 0x20 MUL PUSH1 0x20 ADD DUP3 ADD PUSH1 0x40 MSTORE DUP1 ISZERO PUSH2 0x1DF6 JUMPI DUP2 PUSH1 0x20 ADD JUMPDEST PUSH2 0x1DE3 PUSH2 0x3F44 JUMP JUMPDEST DUP2 MSTORE PUSH1 0x20 ADD SWAP1 PUSH1 0x1 SWAP1 SUB SWAP1 DUP2 PUSH2 0x1DDB JUMPI SWAP1 POP JUMPDEST POP SWAP1 POP PUSH1 0x0 DUP1 JUMPDEST PUSH1 0x8 SLOAD DUP2 LT ISZERO PUSH2 0x1D88 JUMPI PUSH1 0x0 PUSH1 0x8 DUP3 DUP2 SLOAD DUP2 LT PUSH2 0x1E1C JUMPI PUSH2 0x1E1C PUSH2 0x4C28 JUMP JUMPDEST SWAP1 PUSH1 0x0 MSTORE PUSH1 0x20 PUSH1 0x0 KECCAK256 SWAP1 PUSH1 0x6 MUL ADD PUSH1 0x40 MLOAD DUP1 PUSH1 0xE0 ADD PUSH1 0x40 MSTORE SWAP1 DUP2 PUSH1 0x0 DUP3 ADD SLOAD DUP2 MSTORE PUSH1 0x20 ADD PUSH1 0x1 DUP3 ADD SLOAD DUP2 MSTORE PUSH1 0x20 ADD PUSH1 0x2 DUP3 ADD PUSH1 0x0 SWAP1 SLOAD SWAP1 PUSH2 0x100 EXP SWAP1 DIV PUSH1 0x1 PUSH1 0x1 PUSH1 0xA0 SHL SUB AND PUSH1 0x1 PUSH1 0x1 PUSH1 0xA0 SHL SUB AND PUSH1 0x1 PUSH1 0x1 PUSH1 0xA0 SHL SUB AND DUP2 MSTORE PUSH1 0x20 ADD PUSH1 0x3 DUP3 ADD SLOAD DUP2 MSTORE PUSH1 0x20 ADD PUSH1 0x4 DUP3 ADD DUP1 SLOAD PUSH2 0x1E92 SWAP1 PUSH2 0x4BA7 JUMP JUMPDEST DUP1 PUSH1 0x1F ADD PUSH1 0x20 DUP1 SWAP2 DIV MUL PUSH1 0x20 ADD PUSH1 0x40 MLOAD SWAP1 DUP2 ADD PUSH1 0x40 MSTORE DUP1 SWAP3 SWAP2 SWAP1 DUP2 DUP2 MSTORE PUSH1 0x20 ADD DUP3 DUP1 SLOAD PUSH2 0x1EBE SWAP1 PUSH2 0x4BA7 JUMP JUMPDEST DUP1 ISZERO PUSH2 0x1F0B JUMPI DUP1 PUSH1 0x1F LT PUSH2 0x1EE0 JUMPI PUSH2 0x100 DUP1 DUP4 SLOAD DIV MUL DUP4 MSTORE SWAP2 PUSH1 0x20 ADD SWAP2 PUSH2 0x1F0B JUMP JUMPDEST DUP3 ADD SWAP2 SWAP1 PUSH1 0x0 MSTORE PUSH1 0x20 PUSH1 0x0 KECCAK256 SWAP1 JUMPDEST DUP2 SLOAD DUP2 MSTORE SWAP1 PUSH1 0x1 ADD SWAP1 PUSH1 0x20 ADD DUP1 DUP4 GT PUSH2 0x1EEE JUMPI DUP3 SWAP1 SUB PUSH1 0x1F AND DUP3 ADD SWAP2 JUMPDEST POP POP POP SWAP2 DUP4 MSTORE POP POP PUSH1 0x5 SWAP2 SWAP1 SWAP2 ADD SLOAD PUSH1 0xFF DUP1 DUP3 AND ISZERO ISZERO PUSH1 0x20 DUP5 ADD MSTORE PUSH2 0x100 SWAP1 SWAP2 DIV AND ISZERO ISZERO PUSH1 0x40 SWAP1 SWAP2 ADD MSTORE PUSH1 0x60 DUP2 ADD MLOAD SWAP1 SWAP2 POP DUP8 SWAP1 SUB PUSH2 0x1F7D JUMPI DUP1 DUP5 DUP5 DUP2 MLOAD DUP2 LT PUSH2 0x1F57 JUMPI PUSH2 0x1F57 PUSH2 0x4C28 JUMP JUMPDEST PUSH1 0x20 MUL PUSH1 0x20 ADD ADD DUP2 SWAP1 MSTORE POP DUP3 DUP1 PUSH2 0x1F6D SWAP1 PUSH2 0x4C0F JUMP JUMPDEST SWAP4 POP POP DUP5 DUP4 SUB PUSH2 0x1F7D JUMPI POP PUSH2 0x1D88 JUMP JUMPDEST POP DUP1 PUSH2 0x1F88 DUP2 PUSH2 0x4C0F JUMP JUMPDEST SWAP2 POP POP PUSH2 0x1DFD JUMP JUMPDEST PUSH2 0x1F98 PUSH2 0x3F8E JUMP JUMPDEST PUSH1 0x0 DUP3 DUP2 MSTORE PUSH1 0xB PUSH1 0x20 MSTORE PUSH1 0x40 DUP2 KECCAK256 SLOAD PUSH1 0x1 PUSH1 0x1 PUSH1 0xA0 SHL SUB AND SWAP1 PUSH2 0x1FBA DUP3 PUSH2 0x190A JUMP JUMPDEST SWAP5 SWAP4 POP POP POP POP JUMP JUMPDEST PUSH2 0x1FCA PUSH2 0x3E57 JUMP JUMPDEST PUSH1 0x4 DUP3 DUP2 SLOAD DUP2 LT PUSH2 0x1FDD JUMPI PUSH2 0x1FDD PUSH2 0x4C28 JUMP JUMPDEST SWAP1 PUSH1 0x0 MSTORE PUSH1 0x20 PUSH1 0x0 KECCAK256 SWAP1 PUSH1 0x9 MUL ADD PUSH1 0x40 MLOAD DUP1 PUSH2 0x160 ADD PUSH1 0x40 MSTORE SWAP1 DUP2 PUSH1 0x0 DUP3 ADD SLOAD DUP2 MSTORE PUSH1 0x20 ADD PUSH1 0x1 DUP3 ADD SLOAD DUP2 MSTORE PUSH1 0x20 ADD PUSH1 0x2 DUP3 ADD PUSH1 0x0 SWAP1 SLOAD SWAP1 PUSH2 0x100 EXP SWAP1 DIV PUSH1 0x1 PUSH1 0x1 PUSH1 0xA0 SHL SUB AND PUSH1 0x1 PUSH1 0x1 PUSH1 0xA0 SHL SUB AND PUSH1 0x1 PUSH1 0x1 PUSH1 0xA0 SHL SUB AND DUP2 MSTORE PUSH1 0x20 ADD PUSH1 0x3 DUP3 ADD DUP1 SLOAD PUSH2 0x204A SWAP1 PUSH2 0x4BA7 JUMP JUMPDEST DUP1 PUSH1 0x1F ADD PUSH1 0x20 DUP1 SWAP2 DIV MUL PUSH1 0x20 ADD PUSH1 0x40 MLOAD SWAP1 DUP2 ADD PUSH1 0x40 MSTORE DUP1 SWAP3 SWAP2 SWAP1 DUP2 DUP2 MSTORE PUSH1 0x20 ADD DUP3 DUP1 SLOAD PUSH2 0x2076 SWAP1 PUSH2 0x4BA7 JUMP JUMPDEST DUP1 ISZERO PUSH2 0x20C3 JUMPI DUP1 PUSH1 0x1F LT PUSH2 0x2098 JUMPI PUSH2 0x100 DUP1 DUP4 SLOAD DIV MUL DUP4 MSTORE SWAP2 PUSH1 0x20 ADD SWAP2 PUSH2 0x20C3 JUMP JUMPDEST DUP3 ADD SWAP2 SWAP1 PUSH1 0x0 MSTORE PUSH1 0x20 PUSH1 0x0 KECCAK256 SWAP1 JUMPDEST DUP2 SLOAD DUP2 MSTORE SWAP1 PUSH1 0x1 ADD SWAP1 PUSH1 0x20 ADD DUP1 DUP4 GT PUSH2 0x20A6 JUMPI DUP3 SWAP1 SUB PUSH1 0x1F AND DUP3 ADD SWAP2 JUMPDEST POP POP POP POP POP DUP2 MSTORE PUSH1 0x20 ADD PUSH1 0x4 DUP3 ADD DUP1 SLOAD PUSH2 0x20DC SWAP1 PUSH2 0x4BA7 JUMP JUMPDEST DUP1 PUSH1 0x1F ADD PUSH1 0x20 DUP1 SWAP2 DIV MUL PUSH1 0x20 ADD PUSH1 0x40 MLOAD SWAP1 DUP2 ADD PUSH1 0x40 MSTORE DUP1 SWAP3 SWAP2 SWAP1 DUP2 DUP2 MSTORE PUSH1 0x20 ADD DUP3 DUP1 SLOAD PUSH2 0x2108 SWAP1 PUSH2 0x4BA7 JUMP JUMPDEST DUP1 ISZERO PUSH2 0x2155 JUMPI DUP1 PUSH1 0x1F LT PUSH2 0x212A JUMPI PUSH2 0x100 DUP1 DUP4 SLOAD DIV MUL DUP4 MSTORE SWAP2 PUSH1 0x20 ADD SWAP2 PUSH2 0x2155 JUMP JUMPDEST DUP3 ADD SWAP2 SWAP1 PUSH1 0x0 MSTORE PUSH1 0x20 PUSH1 0x0 KECCAK256 SWAP1 JUMPDEST DUP2 SLOAD DUP2 MSTORE SWAP1 PUSH1 0x1 ADD SWAP1 PUSH1 0x20 ADD DUP1 DUP4 GT PUSH2 0x2138 JUMPI DUP3 SWAP1 SUB PUSH1 0x1F AND DUP3 ADD SWAP2 JUMPDEST POP POP POP SWAP2 DUP4 MSTORE POP POP PUSH1 0x5 DUP3 ADD SLOAD PUSH1 0x20 DUP3 ADD MSTORE PUSH1 0x6 DUP3 ADD SLOAD PUSH1 0x40 DUP3 ADD MSTORE PUSH1 0x7 DUP3 ADD SLOAD PUSH1 0x60 DUP3 ADD MSTORE PUSH1 0x8 SWAP1 SWAP2 ADD SLOAD PUSH1 0xFF DUP1 DUP3 AND ISZERO ISZERO PUSH1 0x80 DUP5 ADD MSTORE PUSH2 0x100 DUP3 DIV DUP2 AND ISZERO ISZERO PUSH1 0xA0 DUP5 ADD MSTORE PUSH3 0x10000 SWAP1 SWAP2 DIV AND ISZERO ISZERO PUSH1 0xC0 SWAP1 SWAP2 ADD MSTORE SWAP3 SWAP2 POP POP JUMP JUMPDEST PUSH1 0x13 SLOAD PUSH2 0x21BC PUSH2 0x4059 JUMP JUMPDEST DUP2 DUP2 MSTORE PUSH1 0x1 PUSH1 0x1 PUSH1 0xA0 SHL SUB DUP6 DUP2 AND PUSH1 0x20 DUP1 DUP5 ADD DUP3 DUP2 MSTORE PUSH1 0x40 DUP1 DUP7 ADD DUP10 DUP2 MSTORE PUSH1 0x60 DUP8 ADD DUP10 SWAP1 MSTORE PUSH1 0x0 PUSH1 0x80 DUP9 ADD DUP2 SWAP1 MSTORE PUSH1 0x1 PUSH1 0xA0 DUP10 ADD DUP2 SWAP1 MSTORE SWAP6 DUP2 MSTORE PUSH1 0x2 DUP1 DUP7 MSTORE SWAP3 SWAP1 KECCAK256 DUP8 MLOAD DUP2 SSTORE SWAP3 MLOAD SWAP5 DUP4 ADD DUP1 SLOAD PUSH1 0x1 PUSH1 0x1 PUSH1 0xA0 SHL SUB NOT AND SWAP6 SWAP1 SWAP7 AND SWAP5 SWAP1 SWAP5 OR SWAP1 SWAP5 SSTORE SWAP2 MLOAD DUP1 MLOAD DUP6 SWAP5 PUSH2 0x2233 SWAP4 SWAP1 DUP6 ADD SWAP3 ADD SWAP1 PUSH2 0x3EC0 JUMP JUMPDEST POP PUSH1 0x60 DUP3 ADD MLOAD DUP1 MLOAD PUSH2 0x224F SWAP2 PUSH1 0x3 DUP5 ADD SWAP2 PUSH1 0x20 SWAP1 SWAP2 ADD SWAP1 PUSH2 0x3EC0 JUMP JUMPDEST POP PUSH1 0x80 DUP3 ADD MLOAD PUSH1 0x4 DUP3 ADD SSTORE PUSH1 0xA0 SWAP1 SWAP2 ADD MLOAD PUSH1 0x5 SWAP1 SWAP2 ADD DUP1 SLOAD PUSH1 0xFF NOT AND SWAP2 ISZERO ISZERO SWAP2 SWAP1 SWAP2 OR SWAP1 SSTORE PUSH1 0x13 DUP1 SLOAD SWAP1 PUSH1 0x0 PUSH2 0x2284 DUP4 PUSH2 0x4C0F JUMP JUMPDEST SWAP2 SWAP1 POP SSTORE POP POP POP POP POP POP JUMP JUMPDEST PUSH1 0x0 PUSH1 0x64 PUSH2 0x229D DUP4 PUSH2 0x1FC2 JUMP JUMPDEST PUSH1 0xE0 ADD MLOAD PUSH2 0x22AC SWAP1 PUSH1 0x50 PUSH2 0x4C3E JUMP JUMPDEST PUSH2 0x22B6 SWAP2 SWAP1 PUSH2 0x4C5D JUMP JUMPDEST SWAP3 SWAP2 POP POP JUMP JUMPDEST PUSH1 0x0 DUP2 DUP2 MSTORE PUSH1 0x5 PUSH1 0x20 MSTORE PUSH1 0x40 DUP2 KECCAK256 SLOAD PUSH1 0x60 SWAP2 DUP2 PUSH8 0xFFFFFFFFFFFFFFFF DUP2 GT ISZERO PUSH2 0x22E7 JUMPI PUSH2 0x22E7 PUSH2 0x41CF JUMP JUMPDEST PUSH1 0x40 MLOAD SWAP1 DUP1 DUP3 MSTORE DUP1 PUSH1 0x20 MUL PUSH1 0x20 ADD DUP3 ADD PUSH1 0x40 MSTORE DUP1 ISZERO PUSH2 0x2320 JUMPI DUP2 PUSH1 0x20 ADD JUMPDEST PUSH2 0x230D PUSH2 0x3F8E JUMP JUMPDEST DUP2 MSTORE PUSH1 0x20 ADD SWAP1 PUSH1 0x1 SWAP1 SUB SWAP1 DUP2 PUSH2 0x2305 JUMPI SWAP1 POP JUMPDEST POP SWAP1 POP PUSH1 0x0 DUP1 JUMPDEST PUSH1 0x8 SLOAD DUP2 LT ISZERO PUSH2 0x1D88 JUMPI PUSH1 0x0 PUSH1 0x8 DUP3 DUP2 SLOAD DUP2 LT PUSH2 0x2346 JUMPI PUSH2 0x2346 PUSH2 0x4C28 JUMP JUMPDEST SWAP1 PUSH1 0x0 MSTORE PUSH1 0x20 PUSH1 0x0 KECCAK256 SWAP1 PUSH1 0x6 MUL ADD PUSH1 0x40 MLOAD DUP1 PUSH1 0xE0 ADD PUSH1 0x40 MSTORE SWAP1 DUP2 PUSH1 0x0 DUP3 ADD SLOAD DUP2 MSTORE PUSH1 0x20 ADD PUSH1 0x1 DUP3 ADD SLOAD DUP2 MSTORE PUSH1 0x20 ADD PUSH1 0x2 DUP3 ADD PUSH1 0x0 SWAP1 SLOAD SWAP1 PUSH2 0x100 EXP SWAP1 DIV PUSH1 0x1 PUSH1 0x1 PUSH1 0xA0 SHL SUB AND PUSH1 0x1 PUSH1 0x1 PUSH1 0xA0 SHL SUB AND PUSH1 0x1 PUSH1 0x1 PUSH1 0xA0 SHL SUB AND DUP2 MSTORE PUSH1 0x20 ADD PUSH1 0x3 DUP3 ADD SLOAD DUP2 MSTORE PUSH1 0x20 ADD PUSH1 0x4 DUP3 ADD DUP1 SLOAD PUSH2 0x23BC SWAP1 PUSH2 0x4BA7 JUMP JUMPDEST DUP1 PUSH1 0x1F ADD PUSH1 0x20 DUP1 SWAP2 DIV MUL PUSH1 0x20 ADD PUSH1 0x40 MLOAD SWAP1 DUP2 ADD PUSH1 0x40 MSTORE DUP1 SWAP3 SWAP2 SWAP1 DUP2 DUP2 MSTORE PUSH1 0x20 ADD DUP3 DUP1 SLOAD PUSH2 0x23E8 SWAP1 PUSH2 0x4BA7 JUMP JUMPDEST DUP1 ISZERO PUSH2 0x2435 JUMPI DUP1 PUSH1 0x1F LT PUSH2 0x240A JUMPI PUSH2 0x100 DUP1 DUP4 SLOAD DIV MUL DUP4 MSTORE SWAP2 PUSH1 0x20 ADD SWAP2 PUSH2 0x2435 JUMP JUMPDEST DUP3 ADD SWAP2 SWAP1 PUSH1 0x0 MSTORE PUSH1 0x20 PUSH1 0x0 KECCAK256 SWAP1 JUMPDEST DUP2 SLOAD DUP2 MSTORE SWAP1 PUSH1 0x1 ADD SWAP1 PUSH1 0x20 ADD DUP1 DUP4 GT PUSH2 0x2418 JUMPI DUP3 SWAP1 SUB PUSH1 0x1F AND DUP3 ADD SWAP2 JUMPDEST POP POP POP SWAP2 DUP4 MSTORE POP POP PUSH1 0x5 SWAP2 SWAP1 SWAP2 ADD SLOAD PUSH1 0xFF DUP1 DUP3 AND ISZERO ISZERO PUSH1 0x20 DUP5 ADD MSTORE PUSH2 0x100 SWAP1 SWAP2 DIV AND ISZERO ISZERO PUSH1 0x40 SWAP1 SWAP2 ADD MSTORE PUSH1 0x60 DUP2 ADD MLOAD SWAP1 SWAP2 POP DUP8 SWAP1 SUB PUSH2 0x24B3 JUMPI PUSH2 0x247B DUP2 PUSH1 0x40 ADD MLOAD PUSH2 0x190A JUMP JUMPDEST DUP5 DUP5 DUP2 MLOAD DUP2 LT PUSH2 0x248D JUMPI PUSH2 0x248D PUSH2 0x4C28 JUMP JUMPDEST PUSH1 0x20 MUL PUSH1 0x20 ADD ADD DUP2 SWAP1 MSTORE POP DUP3 DUP1 PUSH2 0x24A3 SWAP1 PUSH2 0x4C0F JUMP JUMPDEST SWAP4 POP POP DUP5 DUP4 SUB PUSH2 0x24B3 JUMPI POP PUSH2 0x1D88 JUMP JUMPDEST POP DUP1 PUSH2 0x24BE DUP2 PUSH2 0x4C0F JUMP JUMPDEST SWAP2 POP POP PUSH2 0x2327 JUMP JUMPDEST PUSH2 0x24CE PUSH2 0x3FDE JUMP JUMPDEST PUSH1 0x1 PUSH1 0x1 PUSH1 0xA0 SHL SUB DUP1 DUP4 AND PUSH1 0x0 SWAP1 DUP2 MSTORE PUSH1 0xC PUSH1 0x20 SWAP1 DUP2 MSTORE PUSH1 0x40 SWAP2 DUP3 SWAP1 KECCAK256 DUP3 MLOAD PUSH1 0xC0 DUP2 ADD DUP5 MSTORE DUP2 SLOAD DUP2 MSTORE PUSH1 0x1 DUP3 ADD SLOAD SWAP1 SWAP5 AND SWAP2 DUP5 ADD SWAP2 SWAP1 SWAP2 MSTORE PUSH1 0x2 DUP2 ADD DUP1 SLOAD SWAP2 SWAP3 DUP5 ADD SWAP2 PUSH2 0x251A SWAP1 PUSH2 0x4BA7 JUMP JUMPDEST DUP1 PUSH1 0x1F ADD PUSH1 0x20 DUP1 SWAP2 DIV MUL PUSH1 0x20 ADD PUSH1 0x40 MLOAD SWAP1 DUP2 ADD PUSH1 0x40 MSTORE DUP1 SWAP3 SWAP2 SWAP1 DUP2 DUP2 MSTORE PUSH1 0x20 ADD DUP3 DUP1 SLOAD PUSH2 0x2546 SWAP1 PUSH2 0x4BA7 JUMP JUMPDEST DUP1 ISZERO PUSH2 0x2593 JUMPI DUP1 PUSH1 0x1F LT PUSH2 0x2568 JUMPI PUSH2 0x100 DUP1 DUP4 SLOAD DIV MUL DUP4 MSTORE SWAP2 PUSH1 0x20 ADD SWAP2 PUSH2 0x2593 JUMP JUMPDEST DUP3 ADD SWAP2 SWAP1 PUSH1 0x0 MSTORE PUSH1 0x20 PUSH1 0x0 KECCAK256 SWAP1 JUMPDEST DUP2 SLOAD DUP2 MSTORE SWAP1 PUSH1 0x1 ADD SWAP1 PUSH1 0x20 ADD DUP1 DUP4 GT PUSH2 0x2576 JUMPI DUP3 SWAP1 SUB PUSH1 0x1F AND DUP3 ADD SWAP2 JUMPDEST POP POP POP POP POP DUP2 MSTORE PUSH1 0x20 ADD PUSH1 0x3 DUP3 ADD DUP1 SLOAD PUSH2 0x25AC SWAP1 PUSH2 0x4BA7 JUMP JUMPDEST DUP1 PUSH1 0x1F ADD PUSH1 0x20 DUP1 SWAP2 DIV MUL PUSH1 0x20 ADD PUSH1 0x40 MLOAD SWAP1 DUP2 ADD PUSH1 0x40 MSTORE DUP1 SWAP3 SWAP2 SWAP1 DUP2 DUP2 MSTORE PUSH1 0x20 ADD DUP3 DUP1 SLOAD PUSH2 0x25D8 SWAP1 PUSH2 0x4BA7 JUMP JUMPDEST DUP1 ISZERO PUSH2 0x2625 JUMPI DUP1 PUSH1 0x1F LT PUSH2 0x25FA JUMPI PUSH2 0x100 DUP1 DUP4 SLOAD DIV MUL DUP4 MSTORE SWAP2 PUSH1 0x20 ADD SWAP2 PUSH2 0x2625 JUMP JUMPDEST DUP3 ADD SWAP2 SWAP1 PUSH1 0x0 MSTORE PUSH1 0x20 PUSH1 0x0 KECCAK256 SWAP1 JUMPDEST DUP2 SLOAD DUP2 MSTORE SWAP1 PUSH1 0x1 ADD SWAP1 PUSH1 0x20 ADD DUP1 DUP4 GT PUSH2 0x2608 JUMPI DUP3 SWAP1 SUB PUSH1 0x1F AND DUP3 ADD SWAP2 JUMPDEST POP POP POP POP POP DUP2 MSTORE PUSH1 0x20 ADD PUSH1 0x4 DUP3 ADD DUP1 SLOAD PUSH2 0x263E SWAP1 PUSH2 0x4BA7 JUMP JUMPDEST DUP1 PUSH1 0x1F ADD PUSH1 0x20 DUP1 SWAP2 DIV MUL PUSH1 0x20 ADD PUSH1 0x40 MLOAD SWAP1 DUP2 ADD PUSH1 0x40 MSTORE DUP1 SWAP3 SWAP2 SWAP1 DUP2 DUP2 MSTORE PUSH1 0x20 ADD DUP3 DUP1 SLOAD PUSH2 0x266A SWAP1 PUSH2 0x4BA7 JUMP JUMPDEST DUP1 ISZERO PUSH2 0x26B7 JUMPI DUP1 PUSH1 0x1F LT PUSH2 0x268C JUMPI PUSH2 0x100 DUP1 DUP4 SLOAD DIV MUL DUP4 MSTORE SWAP2 PUSH1 0x20 ADD SWAP2 PUSH2 0x26B7 JUMP JUMPDEST DUP3 ADD SWAP2 SWAP1 PUSH1 0x0 MSTORE PUSH1 0x20 PUSH1 0x0 KECCAK256 SWAP1 JUMPDEST DUP2 SLOAD DUP2 MSTORE SWAP1 PUSH1 0x1 ADD SWAP1 PUSH1 0x20 ADD DUP1 DUP4 GT PUSH2 0x269A JUMPI DUP3 SWAP1 SUB PUSH1 0x1F AND DUP3 ADD SWAP2 JUMPDEST POP POP POP SWAP2 DUP4 MSTORE POP POP PUSH1 0x5 SWAP2 SWAP1 SWAP2 ADD SLOAD PUSH1 0xFF AND ISZERO ISZERO PUSH1 0x20 SWAP1 SWAP2 ADD MSTORE SWAP3 SWAP2 POP POP JUMP JUMPDEST PUSH2 0x26DF PUSH2 0x3F8E JUMP JUMPDEST PUSH1 0x0 PUSH1 0x8 DUP4 DUP2 SLOAD DUP2 LT PUSH2 0x26F4 JUMPI PUSH2 0x26F4 PUSH2 0x4C28 JUMP JUMPDEST SWAP1 PUSH1 0x0 MSTORE PUSH1 0x20 PUSH1 0x0 KECCAK256 SWAP1 PUSH1 0x6 MUL ADD PUSH1 0x40 MLOAD DUP1 PUSH1 0xE0 ADD PUSH1 0x40 MSTORE SWAP1 DUP2 PUSH1 0x0 DUP3 ADD SLOAD DUP2 MSTORE PUSH1 0x20 ADD PUSH1 0x1 DUP3 ADD SLOAD DUP2 MSTORE PUSH1 0x20 ADD PUSH1 0x2 DUP3 ADD PUSH1 0x0 SWAP1 SLOAD SWAP1 PUSH2 0x100 EXP SWAP1 DIV PUSH1 0x1 PUSH1 0x1 PUSH1 0xA0 SHL SUB AND PUSH1 0x1 PUSH1 0x1 PUSH1 0xA0 SHL SUB AND PUSH1 0x1 PUSH1 0x1 PUSH1 0xA0 SHL SUB AND DUP2 MSTORE PUSH1 0x20 ADD PUSH1 0x3 DUP3 ADD SLOAD DUP2 MSTORE PUSH1 0x20 ADD PUSH1 0x4 DUP3 ADD DUP1 SLOAD PUSH2 0x276A SWAP1 PUSH2 0x4BA7 JUMP JUMPDEST DUP1 PUSH1 0x1F ADD PUSH1 0x20 DUP1 SWAP2 DIV MUL PUSH1 0x20 ADD PUSH1 0x40 MLOAD SWAP1 DUP2 ADD PUSH1 0x40 MSTORE DUP1 SWAP3 SWAP2 SWAP1 DUP2 DUP2 MSTORE PUSH1 0x20 ADD DUP3 DUP1 SLOAD PUSH2 0x2796 SWAP1 PUSH2 0x4BA7 JUMP JUMPDEST DUP1 ISZERO PUSH2 0x27E3 JUMPI DUP1 PUSH1 0x1F LT PUSH2 0x27B8 JUMPI PUSH2 0x100 DUP1 DUP4 SLOAD DIV MUL DUP4 MSTORE SWAP2 PUSH1 0x20 ADD SWAP2 PUSH2 0x27E3 JUMP JUMPDEST DUP3 ADD SWAP2 SWAP1 PUSH1 0x0 MSTORE PUSH1 0x20 PUSH1 0x0 KECCAK256 SWAP1 JUMPDEST DUP2 SLOAD DUP2 MSTORE SWAP1 PUSH1 0x1 ADD SWAP1 PUSH1 0x20 ADD DUP1 DUP4 GT PUSH2 0x27C6 JUMPI DUP3 SWAP1 SUB PUSH1 0x1F AND DUP3 ADD SWAP2 JUMPDEST POP POP POP SWAP2 DUP4 MSTORE POP POP PUSH1 0x5 SWAP2 SWAP1 SWAP2 ADD SLOAD PUSH1 0xFF DUP1 DUP3 AND ISZERO ISZERO PUSH1 0x20 DUP5 ADD MSTORE PUSH2 0x100 SWAP1 SWAP2 DIV AND ISZERO ISZERO PUSH1 0x40 SWAP2 DUP3 ADD MSTORE DUP2 ADD MLOAD SWAP1 SWAP2 POP PUSH1 0x0 SWAP1 PUSH2 0x1FBA SWAP1 PUSH2 0x190A JUMP JUMPDEST PUSH1 0x1 PUSH1 0x1 PUSH1 0xA0 SHL SUB DUP2 AND PUSH1 0x0 SWAP1 DUP2 MSTORE PUSH1 0x9 PUSH1 0x20 MSTORE PUSH1 0x40 DUP2 KECCAK256 SLOAD PUSH1 0x60 SWAP2 DUP2 PUSH8 0xFFFFFFFFFFFFFFFF DUP2 GT ISZERO PUSH2 0x2854 JUMPI PUSH2 0x2854 PUSH2 0x41CF JUMP JUMPDEST PUSH1 0x40 MLOAD SWAP1 DUP1 DUP3 MSTORE DUP1 PUSH1 0x20 MUL PUSH1 0x20 ADD DUP3 ADD PUSH1 0x40 MSTORE DUP1 ISZERO PUSH2 0x288D JUMPI DUP2 PUSH1 0x20 ADD JUMPDEST PUSH2 0x287A PUSH2 0x3F44 JUMP JUMPDEST DUP2 MSTORE PUSH1 0x20 ADD SWAP1 PUSH1 0x1 SWAP1 SUB SWAP1 DUP2 PUSH2 0x2872 JUMPI SWAP1 POP JUMPDEST POP SWAP1 POP PUSH1 0x0 DUP1 JUMPDEST PUSH1 0x8 SLOAD DUP2 LT ISZERO PUSH2 0x1D88 JUMPI PUSH1 0x0 PUSH1 0x8 DUP3 DUP2 SLOAD DUP2 LT PUSH2 0x28B3 JUMPI PUSH2 0x28B3 PUSH2 0x4C28 JUMP JUMPDEST SWAP1 PUSH1 0x0 MSTORE PUSH1 0x20 PUSH1 0x0 KECCAK256 SWAP1 PUSH1 0x6 MUL ADD PUSH1 0x40 MLOAD DUP1 PUSH1 0xE0 ADD PUSH1 0x40 MSTORE SWAP1 DUP2 PUSH1 0x0 DUP3 ADD SLOAD DUP2 MSTORE PUSH1 0x20 ADD PUSH1 0x1 DUP3 ADD SLOAD DUP2 MSTORE PUSH1 0x20 ADD PUSH1 0x2 DUP3 ADD PUSH1 0x0 SWAP1 SLOAD SWAP1 PUSH2 0x100 EXP SWAP1 DIV PUSH1 0x1 PUSH1 0x1 PUSH1 0xA0 SHL SUB AND PUSH1 0x1 PUSH1 0x1 PUSH1 0xA0 SHL SUB AND PUSH1 0x1 PUSH1 0x1 PUSH1 0xA0 SHL SUB AND DUP2 MSTORE PUSH1 0x20 ADD PUSH1 0x3 DUP3 ADD SLOAD DUP2 MSTORE PUSH1 0x20 ADD PUSH1 0x4 DUP3 ADD DUP1 SLOAD PUSH2 0x2929 SWAP1 PUSH2 0x4BA7 JUMP JUMPDEST DUP1 PUSH1 0x1F ADD PUSH1 0x20 DUP1 SWAP2 DIV MUL PUSH1 0x20 ADD PUSH1 0x40 MLOAD SWAP1 DUP2 ADD PUSH1 0x40 MSTORE DUP1 SWAP3 SWAP2 SWAP1 DUP2 DUP2 MSTORE PUSH1 0x20 ADD DUP3 DUP1 SLOAD PUSH2 0x2955 SWAP1 PUSH2 0x4BA7 JUMP JUMPDEST DUP1 ISZERO PUSH2 0x29A2 JUMPI DUP1 PUSH1 0x1F LT PUSH2 0x2977 JUMPI PUSH2 0x100 DUP1 DUP4 SLOAD DIV MUL DUP4 MSTORE SWAP2 PUSH1 0x20 ADD SWAP2 PUSH2 0x29A2 JUMP JUMPDEST DUP3 ADD SWAP2 SWAP1 PUSH1 0x0 MSTORE PUSH1 0x20 PUSH1 0x0 KECCAK256 SWAP1 JUMPDEST DUP2 SLOAD DUP2 MSTORE SWAP1 PUSH1 0x1 ADD SWAP1 PUSH1 0x20 ADD DUP1 DUP4 GT PUSH2 0x2985 JUMPI DUP3 SWAP1 SUB PUSH1 0x1F AND DUP3 ADD SWAP2 JUMPDEST POP POP POP SWAP2 DUP4 MSTORE POP POP PUSH1 0x5 SWAP2 SWAP1 SWAP2 ADD SLOAD PUSH1 0xFF DUP1 DUP3 AND ISZERO ISZERO PUSH1 0x20 DUP5 ADD MSTORE PUSH2 0x100 SWAP1 SWAP2 DIV AND ISZERO ISZERO PUSH1 0x40 SWAP2 DUP3 ADD MSTORE DUP2 ADD MLOAD SWAP1 SWAP2 POP PUSH1 0x1 PUSH1 0x1 PUSH1 0xA0 SHL SUB DUP1 DUP10 AND SWAP2 AND SUB PUSH2 0x2A1D JUMPI DUP1 DUP5 DUP5 DUP2 MLOAD DUP2 LT PUSH2 0x29F7 JUMPI PUSH2 0x29F7 PUSH2 0x4C28 JUMP JUMPDEST PUSH1 0x20 MUL PUSH1 0x20 ADD ADD DUP2 SWAP1 MSTORE POP DUP3 DUP1 PUSH2 0x2A0D SWAP1 PUSH2 0x4C0F JUMP JUMPDEST SWAP4 POP POP DUP5 DUP4 SUB PUSH2 0x2A1D JUMPI POP PUSH2 0x1D88 JUMP JUMPDEST POP DUP1 PUSH2 0x2A28 DUP2 PUSH2 0x4C0F JUMP JUMPDEST SWAP2 POP POP PUSH2 0x2894 JUMP JUMPDEST PUSH1 0x7 PUSH1 0x20 MSTORE PUSH1 0x0 SWAP1 DUP2 MSTORE PUSH1 0x40 SWAP1 KECCAK256 DUP1 SLOAD PUSH1 0x1 DUP3 ADD SLOAD PUSH1 0x2 DUP4 ADD SLOAD PUSH1 0x3 DUP5 ADD DUP1 SLOAD SWAP4 SWAP5 SWAP3 SWAP4 PUSH1 0x1 PUSH1 0x1 PUSH1 0xA0 SHL SUB SWAP1 SWAP3 AND SWAP3 SWAP2 PUSH2 0x2A6A SWAP1 PUSH2 0x4BA7 JUMP JUMPDEST DUP1 PUSH1 0x1F ADD PUSH1 0x20 DUP1 SWAP2 DIV MUL PUSH1 0x20 ADD PUSH1 0x40 MLOAD SWAP1 DUP2 ADD PUSH1 0x40 MSTORE DUP1 SWAP3 SWAP2 SWAP1 DUP2 DUP2 MSTORE PUSH1 0x20 ADD DUP3 DUP1 SLOAD PUSH2 0x2A96 SWAP1 PUSH2 0x4BA7 JUMP JUMPDEST DUP1 ISZERO PUSH2 0x2AE3 JUMPI DUP1 PUSH1 0x1F LT PUSH2 0x2AB8 JUMPI PUSH2 0x100 DUP1 DUP4 SLOAD DIV MUL DUP4 MSTORE SWAP2 PUSH1 0x20 ADD SWAP2 PUSH2 0x2AE3 JUMP JUMPDEST DUP3 ADD SWAP2 SWAP1 PUSH1 0x0 MSTORE PUSH1 0x20 PUSH1 0x0 KECCAK256 SWAP1 JUMPDEST DUP2 SLOAD DUP2 MSTORE SWAP1 PUSH1 0x1 ADD SWAP1 PUSH1 0x20 ADD DUP1 DUP4 GT PUSH2 0x2AC6 JUMPI DUP3 SWAP1 SUB PUSH1 0x1F AND DUP3 ADD SWAP2 JUMPDEST POP POP POP POP POP SWAP1 DUP1 PUSH1 0x4 ADD DUP1 SLOAD PUSH2 0x2AF8 SWAP1 PUSH2 0x4BA7 JUMP JUMPDEST DUP1 PUSH1 0x1F ADD PUSH1 0x20 DUP1 SWAP2 DIV MUL PUSH1 0x20 ADD PUSH1 0x40 MLOAD SWAP1 DUP2 ADD PUSH1 0x40 MSTORE DUP1 SWAP3 SWAP2 SWAP1 DUP2 DUP2 MSTORE PUSH1 0x20 ADD DUP3 DUP1 SLOAD PUSH2 0x2B24 SWAP1 PUSH2 0x4BA7 JUMP JUMPDEST DUP1 ISZERO PUSH2 0x2B71 JUMPI DUP1 PUSH1 0x1F LT PUSH2 0x2B46 JUMPI PUSH2 0x100 DUP1 DUP4 SLOAD DIV MUL DUP4 MSTORE SWAP2 PUSH1 0x20 ADD SWAP2 PUSH2 0x2B71 JUMP JUMPDEST DUP3 ADD SWAP2 SWAP1 PUSH1 0x0 MSTORE PUSH1 0x20 PUSH1 0x0 KECCAK256 SWAP1 JUMPDEST DUP2 SLOAD DUP2 MSTORE SWAP1 PUSH1 0x1 ADD SWAP1 PUSH1 0x20 ADD DUP1 DUP4 GT PUSH2 0x2B54 JUMPI DUP3 SWAP1 SUB PUSH1 0x1F AND DUP3 ADD SWAP2 JUMPDEST POP POP POP POP POP SWAP1 DUP1 PUSH1 0x5 ADD DUP1 SLOAD PUSH2 0x2B86 SWAP1 PUSH2 0x4BA7 JUMP JUMPDEST DUP1 PUSH1 0x1F ADD PUSH1 0x20 DUP1 SWAP2 DIV MUL PUSH1 0x20 ADD PUSH1 0x40 MLOAD SWAP1 DUP2 ADD PUSH1 0x40 MSTORE DUP1 SWAP3 SWAP2 SWAP1 DUP2 DUP2 MSTORE PUSH1 0x20 ADD DUP3 DUP1 SLOAD PUSH2 0x2BB2 SWAP1 PUSH2 0x4BA7 JUMP JUMPDEST DUP1 ISZERO PUSH2 0x2BFF JUMPI DUP1 PUSH1 0x1F LT PUSH2 0x2BD4 JUMPI PUSH2 0x100 DUP1 DUP4 SLOAD DIV MUL DUP4 MSTORE SWAP2 PUSH1 0x20 ADD SWAP2 PUSH2 0x2BFF JUMP JUMPDEST DUP3 ADD SWAP2 SWAP1 PUSH1 0x0 MSTORE PUSH1 0x20 PUSH1 0x0 KECCAK256 SWAP1 JUMPDEST DUP2 SLOAD DUP2 MSTORE SWAP1 PUSH1 0x1 ADD SWAP1 PUSH1 0x20 ADD DUP1 DUP4 GT PUSH2 0x2BE2 JUMPI DUP3 SWAP1 SUB PUSH1 0x1F AND DUP3 ADD SWAP2 JUMPDEST POP POP POP POP POP SWAP1 DUP1 PUSH1 0x6 ADD DUP1 SLOAD PUSH2 0x2C14 SWAP1 PUSH2 0x4BA7 JUMP JUMPDEST DUP1 PUSH1 0x1F ADD PUSH1 0x20 DUP1 SWAP2 DIV MUL PUSH1 0x20 ADD PUSH1 0x40 MLOAD SWAP1 DUP2 ADD PUSH1 0x40 MSTORE DUP1 SWAP3 SWAP2 SWAP1 DUP2 DUP2 MSTORE PUSH1 0x20 ADD DUP3 DUP1 SLOAD PUSH2 0x2C40 SWAP1 PUSH2 0x4BA7 JUMP JUMPDEST DUP1 ISZERO PUSH2 0x2C8D JUMPI DUP1 PUSH1 0x1F LT PUSH2 0x2C62 JUMPI PUSH2 0x100 DUP1 DUP4 SLOAD DIV MUL DUP4 MSTORE SWAP2 PUSH1 0x20 ADD SWAP2 PUSH2 0x2C8D JUMP JUMPDEST DUP3 ADD SWAP2 SWAP1 PUSH1 0x0 MSTORE PUSH1 0x20 PUSH1 0x0 KECCAK256 SWAP1 JUMPDEST DUP2 SLOAD DUP2 MSTORE SWAP1 PUSH1 0x1 ADD SWAP1 PUSH1 0x20 ADD DUP1 DUP4 GT PUSH2 0x2C70 JUMPI DUP3 SWAP1 SUB PUSH1 0x1F AND DUP3 ADD SWAP2 JUMPDEST POP POP POP PUSH1 0x7 SWAP1 SWAP4 ADD SLOAD SWAP2 SWAP3 POP POP PUSH1 0xFF AND DUP9 JUMP JUMPDEST PUSH1 0x15 SLOAD PUSH2 0x2CAB PUSH2 0x3F8E JUMP JUMPDEST DUP2 DUP2 MSTORE PUSH1 0x1 PUSH1 0x1 PUSH1 0xA0 SHL SUB DUP8 DUP2 AND PUSH1 0x40 DUP1 DUP5 ADD DUP3 DUP2 MSTORE PUSH1 0x60 DUP6 ADD DUP11 DUP2 MSTORE PUSH1 0x80 DUP7 ADD DUP11 SWAP1 MSTORE PUSH1 0xA0 DUP7 ADD DUP10 SWAP1 MSTORE PUSH1 0xC0 DUP7 ADD DUP9 SWAP1 MSTORE PUSH1 0x1 PUSH1 0xE0 DUP8 ADD DUP2 SWAP1 MSTORE PUSH1 0x0 SWAP5 DUP6 MSTORE PUSH1 0x7 PUSH1 0x20 SWAP1 DUP2 MSTORE SWAP4 SWAP1 SWAP5 KECCAK256 DUP7 MLOAD DUP2 SSTORE DUP4 DUP8 ADD MLOAD SWAP5 DUP2 ADD SWAP5 SWAP1 SWAP5 SSTORE SWAP1 MLOAD PUSH1 0x2 DUP5 ADD DUP1 SLOAD PUSH1 0x1 PUSH1 0x1 PUSH1 0xA0 SHL SUB NOT AND SWAP2 SWAP1 SWAP6 AND OR SWAP1 SWAP4 SSTORE SWAP2 MLOAD DUP1 MLOAD DUP5 SWAP4 PUSH2 0x2D36 SWAP3 PUSH1 0x3 DUP6 ADD SWAP3 SWAP2 ADD SWAP1 PUSH2 0x3EC0 JUMP JUMPDEST POP PUSH1 0x80 DUP3 ADD MLOAD DUP1 MLOAD PUSH2 0x2D52 SWAP2 PUSH1 0x4 DUP5 ADD SWAP2 PUSH1 0x20 SWAP1 SWAP2 ADD SWAP1 PUSH2 0x3EC0 JUMP JUMPDEST POP PUSH1 0xA0 DUP3 ADD MLOAD DUP1 MLOAD PUSH2 0x2D6E SWAP2 PUSH1 0x5 DUP5 ADD SWAP2 PUSH1 0x20 SWAP1 SWAP2 ADD SWAP1 PUSH2 0x3EC0 JUMP JUMPDEST POP PUSH1 0xC0 DUP3 ADD MLOAD DUP1 MLOAD PUSH2 0x2D8A SWAP2 PUSH1 0x6 DUP5 ADD SWAP2 PUSH1 0x20 SWAP1 SWAP2 ADD SWAP1 PUSH2 0x3EC0 JUMP JUMPDEST POP PUSH1 0xE0 SWAP2 SWAP1 SWAP2 ADD MLOAD PUSH1 0x7 SWAP1 SWAP2 ADD DUP1 SLOAD PUSH1 0xFF NOT AND SWAP2 ISZERO ISZERO SWAP2 SWAP1 SWAP2 OR SWAP1 SSTORE PUSH1 0x15 DUP1 SLOAD SWAP1 PUSH1 0x0 PUSH2 0x2DB6 DUP4 PUSH2 0x4C0F JUMP JUMPDEST SWAP2 SWAP1 POP SSTORE POP POP POP POP POP POP POP POP JUMP JUMPDEST PUSH1 0x8 DUP2 DUP2 SLOAD DUP2 LT PUSH2 0x2DD4 JUMPI PUSH1 0x0 DUP1 REVERT JUMPDEST PUSH1 0x0 SWAP2 DUP3 MSTORE PUSH1 0x20 SWAP1 SWAP2 KECCAK256 PUSH1 0x6 SWAP1 SWAP2 MUL ADD DUP1 SLOAD PUSH1 0x1 DUP3 ADD SLOAD PUSH1 0x2 DUP4 ADD SLOAD PUSH1 0x3 DUP5 ADD SLOAD PUSH1 0x4 DUP6 ADD DUP1 SLOAD SWAP5 SWAP7 POP SWAP3 SWAP5 PUSH1 0x1 PUSH1 0x1 PUSH1 0xA0 SHL SUB SWAP1 SWAP3 AND SWAP4 SWAP1 SWAP3 SWAP1 PUSH2 0x2E18 SWAP1 PUSH2 0x4BA7 JUMP JUMPDEST DUP1 PUSH1 0x1F ADD PUSH1 0x20 DUP1 SWAP2 DIV MUL PUSH1 0x20 ADD PUSH1 0x40 MLOAD SWAP1 DUP2 ADD PUSH1 0x40 MSTORE DUP1 SWAP3 SWAP2 SWAP1 DUP2 DUP2 MSTORE PUSH1 0x20 ADD DUP3 DUP1 SLOAD PUSH2 0x2E44 SWAP1 PUSH2 0x4BA7 JUMP JUMPDEST DUP1 ISZERO PUSH2 0x2E91 JUMPI DUP1 PUSH1 0x1F LT PUSH2 0x2E66 JUMPI PUSH2 0x100 DUP1 DUP4 SLOAD DIV MUL DUP4 MSTORE SWAP2 PUSH1 0x20 ADD SWAP2 PUSH2 0x2E91 JUMP JUMPDEST DUP3 ADD SWAP2 SWAP1 PUSH1 0x0 MSTORE PUSH1 0x20 PUSH1 0x0 KECCAK256 SWAP1 JUMPDEST DUP2 SLOAD DUP2 MSTORE SWAP1 PUSH1 0x1 ADD SWAP1 PUSH1 0x20 ADD DUP1 DUP4 GT PUSH2 0x2E74 JUMPI DUP3 SWAP1 SUB PUSH1 0x1F AND DUP3 ADD SWAP2 JUMPDEST POP POP POP PUSH1 0x5 SWAP1 SWAP4 ADD SLOAD SWAP2 SWAP3 POP POP PUSH1 0xFF DUP1 DUP3 AND SWAP2 PUSH2 0x100 SWAP1 DIV AND DUP8 JUMP JUMPDEST PUSH1 0xC PUSH1 0x20 MSTORE PUSH1 0x0 SWAP1 DUP2 MSTORE PUSH1 0x40 SWAP1 KECCAK256 DUP1 SLOAD PUSH1 0x1 DUP3 ADD SLOAD PUSH1 0x2 DUP4 ADD DUP1 SLOAD SWAP3 SWAP4 PUSH1 0x1 PUSH1 0x1 PUSH1 0xA0 SHL SUB SWAP1 SWAP3 AND SWAP3 PUSH2 0x2EDF SWAP1 PUSH2 0x4BA7 JUMP JUMPDEST DUP1 PUSH1 0x1F ADD PUSH1 0x20 DUP1 SWAP2 DIV MUL PUSH1 0x20 ADD PUSH1 0x40 MLOAD SWAP1 DUP2 ADD PUSH1 0x40 MSTORE DUP1 SWAP3 SWAP2 SWAP1 DUP2 DUP2 MSTORE PUSH1 0x20 ADD DUP3 DUP1 SLOAD PUSH2 0x2F0B SWAP1 PUSH2 0x4BA7 JUMP JUMPDEST DUP1 ISZERO PUSH2 0x2F58 JUMPI DUP1 PUSH1 0x1F LT PUSH2 0x2F2D JUMPI PUSH2 0x100 DUP1 DUP4 SLOAD DIV MUL DUP4 MSTORE SWAP2 PUSH1 0x20 ADD SWAP2 PUSH2 0x2F58 JUMP JUMPDEST DUP3 ADD SWAP2 SWAP1 PUSH1 0x0 MSTORE PUSH1 0x20 PUSH1 0x0 KECCAK256 SWAP1 JUMPDEST DUP2 SLOAD DUP2 MSTORE SWAP1 PUSH1 0x1 ADD SWAP1 PUSH1 0x20 ADD DUP1 DUP4 GT PUSH2 0x2F3B JUMPI DUP3 SWAP1 SUB PUSH1 0x1F AND DUP3 ADD SWAP2 JUMPDEST POP POP POP POP POP SWAP1 DUP1 PUSH1 0x3 ADD DUP1 SLOAD PUSH2 0x2F6D SWAP1 PUSH2 0x4BA7 JUMP JUMPDEST DUP1 PUSH1 0x1F ADD PUSH1 0x20 DUP1 SWAP2 DIV MUL PUSH1 0x20 ADD PUSH1 0x40 MLOAD SWAP1 DUP2 ADD PUSH1 0x40 MSTORE DUP1 SWAP3 SWAP2 SWAP1 DUP2 DUP2 MSTORE PUSH1 0x20 ADD DUP3 DUP1 SLOAD PUSH2 0x2F99 SWAP1 PUSH2 0x4BA7 JUMP JUMPDEST DUP1 ISZERO PUSH2 0x2FE6 JUMPI DUP1 PUSH1 0x1F LT PUSH2 0x2FBB JUMPI PUSH2 0x100 DUP1 DUP4 SLOAD DIV MUL DUP4 MSTORE SWAP2 PUSH1 0x20 ADD SWAP2 PUSH2 0x2FE6 JUMP JUMPDEST DUP3 ADD SWAP2 SWAP1 PUSH1 0x0 MSTORE PUSH1 0x20 PUSH1 0x0 KECCAK256 SWAP1 JUMPDEST DUP2 SLOAD DUP2 MSTORE SWAP1 PUSH1 0x1 ADD SWAP1 PUSH1 0x20 ADD DUP1 DUP4 GT PUSH2 0x2FC9 JUMPI DUP3 SWAP1 SUB PUSH1 0x1F AND DUP3 ADD SWAP2 JUMPDEST POP POP POP POP POP SWAP1 DUP1 PUSH1 0x4 ADD DUP1 SLOAD PUSH2 0x2FFB SWAP1 PUSH2 0x4BA7 JUMP JUMPDEST DUP1 PUSH1 0x1F ADD PUSH1 0x20 DUP1 SWAP2 DIV MUL PUSH1 0x20 ADD PUSH1 0x40 MLOAD SWAP1 DUP2 ADD PUSH1 0x40 MSTORE DUP1 SWAP3 SWAP2 SWAP1 DUP2 DUP2 MSTORE PUSH1 0x20 ADD DUP3 DUP1 SLOAD PUSH2 0x3027 SWAP1 PUSH2 0x4BA7 JUMP JUMPDEST DUP1 ISZERO PUSH2 0x3074 JUMPI DUP1 PUSH1 0x1F LT PUSH2 0x3049 JUMPI PUSH2 0x100 DUP1 DUP4 SLOAD DIV MUL DUP4 MSTORE SWAP2 PUSH1 0x20 ADD SWAP2 PUSH2 0x3074 JUMP JUMPDEST DUP3 ADD SWAP2 SWAP1 PUSH1 0x0 MSTORE PUSH1 0x20 PUSH1 0x0 KECCAK256 SWAP1 JUMPDEST DUP2 SLOAD DUP2 MSTORE SWAP1 PUSH1 0x1 ADD SWAP1 PUSH1 0x20 ADD DUP1 DUP4 GT PUSH2 0x3057 JUMPI DUP3 SWAP1 SUB PUSH1 0x1F AND DUP3 ADD SWAP2 JUMPDEST POP POP POP PUSH1 0x5 SWAP1 SWAP4 ADD SLOAD SWAP2 SWAP3 POP POP PUSH1 0xFF AND DUP7 JUMP JUMPDEST PUSH1 0x0 DUP1 DUP1 JUMPDEST PUSH1 0xF SLOAD DUP2 LT ISZERO PUSH2 0x314C JUMPI PUSH1 0x0 PUSH1 0xF DUP3 DUP2 SLOAD DUP2 LT PUSH2 0x30AB JUMPI PUSH2 0x30AB PUSH2 0x4C28 JUMP JUMPDEST PUSH1 0x0 SWAP2 DUP3 MSTORE PUSH1 0x20 SWAP2 DUP3 SWAP1 KECCAK256 PUSH1 0x40 DUP1 MLOAD PUSH1 0xE0 DUP2 ADD DUP3 MSTORE PUSH1 0x7 SWAP1 SWAP4 MUL SWAP1 SWAP2 ADD DUP1 SLOAD DUP4 MSTORE PUSH1 0x1 DUP2 ADD SLOAD SWAP4 DUP4 ADD SWAP4 SWAP1 SWAP4 MSTORE PUSH1 0x2 DUP4 ADD SLOAD SWAP1 DUP3 ADD MSTORE PUSH1 0x3 DUP3 ADD SLOAD PUSH1 0x60 DUP3 ADD MSTORE PUSH1 0x4 DUP3 ADD SLOAD PUSH1 0x1 PUSH1 0x1 PUSH1 0xA0 SHL SUB SWAP1 DUP2 AND PUSH1 0x80 DUP4 ADD DUP2 SWAP1 MSTORE PUSH1 0x5 DUP5 ADD SLOAD PUSH1 0xA0 DUP5 ADD MSTORE PUSH1 0x6 SWAP1 SWAP4 ADD SLOAD PUSH1 0xFF AND ISZERO ISZERO PUSH1 0xC0 DUP4 ADD MSTORE SWAP1 SWAP3 POP DUP7 AND SWAP1 SUB PUSH2 0x3139 JUMPI PUSH1 0xA0 DUP2 ADD MLOAD PUSH2 0x3136 SWAP1 DUP5 PUSH2 0x4BF7 JUMP JUMPDEST SWAP3 POP JUMPDEST POP DUP1 PUSH2 0x3144 DUP2 PUSH2 0x4C0F JUMP JUMPDEST SWAP2 POP POP PUSH2 0x308C JUMP JUMPDEST POP SWAP3 SWAP2 POP POP JUMP JUMPDEST PUSH1 0x0 PUSH2 0x315E DUP6 PUSH2 0x1FC2 JUMP JUMPDEST SWAP1 POP DUP1 PUSH2 0x120 ADD MLOAD ISZERO PUSH2 0x3170 JUMPI PUSH1 0x0 DUP1 REVERT JUMPDEST PUSH1 0x0 DUP6 DUP2 MSTORE PUSH1 0x12 PUSH1 0x20 SWAP1 DUP2 MSTORE PUSH1 0x40 DUP1 DUP4 KECCAK256 PUSH1 0x1 PUSH1 0x1 PUSH1 0xA0 SHL SUB DUP7 AND DUP5 MSTORE SWAP1 SWAP2 MSTORE SWAP1 KECCAK256 SLOAD PUSH1 0xFF AND ISZERO PUSH2 0x31A0 JUMPI PUSH1 0x0 DUP1 REVERT JUMPDEST PUSH1 0x0 PUSH2 0x31AB DUP6 PUSH2 0x10F2 JUMP JUMPDEST PUSH1 0x18 SLOAD SWAP1 SWAP2 POP PUSH1 0x0 PUSH2 0x31BC DUP6 PUSH2 0x24C6 JUMP JUMPDEST SWAP1 POP PUSH2 0x31C6 PUSH2 0x401F JUMP JUMPDEST DUP3 DUP2 MSTORE DUP2 MLOAD PUSH1 0x20 DUP1 DUP4 ADD SWAP2 SWAP1 SWAP2 MSTORE DUP5 DUP2 ADD MLOAD PUSH1 0x40 DUP1 DUP5 ADD SWAP2 SWAP1 SWAP2 MSTORE PUSH1 0x60 DUP4 ADD DUP12 SWAP1 MSTORE PUSH1 0x1 PUSH1 0xA0 DUP5 ADD DUP2 SWAP1 MSTORE DUP8 MLOAD PUSH1 0x0 DUP2 DUP2 MSTORE PUSH1 0x12 DUP6 MSTORE DUP4 DUP2 KECCAK256 DUP6 DUP9 ADD DUP1 MLOAD PUSH1 0x1 PUSH1 0x1 PUSH1 0xA0 SHL SUB AND DUP4 MSTORE SWAP6 MSTORE SWAP3 SWAP1 SWAP3 KECCAK256 DUP1 SLOAD PUSH1 0xFF NOT AND SWAP1 SWAP2 OR SWAP1 SSTORE SWAP1 MLOAD PUSH2 0x322D SWAP1 DUP3 SWAP1 PUSH2 0x394F JUMP JUMPDEST PUSH1 0x0 DUP2 DUP2 MSTORE PUSH1 0x6 PUSH1 0x20 MSTORE PUSH1 0x40 DUP2 KECCAK256 SLOAD SWAP1 PUSH2 0x3248 DUP3 PUSH1 0x1 PUSH2 0x4BF7 JUMP JUMPDEST PUSH1 0x0 DUP5 DUP2 MSTORE PUSH1 0x6 PUSH1 0x20 SWAP1 DUP2 MSTORE PUSH1 0x40 DUP1 DUP4 KECCAK256 DUP5 SWAP1 SSTORE DUP9 DUP3 ADD MLOAD PUSH1 0x1 PUSH1 0x1 PUSH1 0xA0 SHL SUB AND DUP4 MSTORE PUSH1 0xA SWAP1 SWAP2 MSTORE DUP2 KECCAK256 SLOAD SWAP2 SWAP3 POP PUSH2 0x3281 DUP3 PUSH1 0x1 PUSH2 0x4BF7 JUMP JUMPDEST SWAP1 POP DUP1 PUSH1 0xA PUSH1 0x0 DUP10 PUSH1 0x20 ADD MLOAD PUSH1 0x1 PUSH1 0x1 PUSH1 0xA0 SHL SUB AND PUSH1 0x1 PUSH1 0x1 PUSH1 0xA0 SHL SUB AND DUP2 MSTORE PUSH1 0x20 ADD SWAP1 DUP2 MSTORE PUSH1 0x20 ADD PUSH1 0x0 KECCAK256 DUP2 SWAP1 SSTORE POP PUSH1 0x0 PUSH1 0xE PUSH1 0x0 DUP8 DUP2 MSTORE PUSH1 0x20 ADD SWAP1 DUP2 MSTORE PUSH1 0x20 ADD PUSH1 0x0 KECCAK256 PUSH1 0x0 DUP15 PUSH1 0x1 PUSH1 0x1 PUSH1 0xA0 SHL SUB AND PUSH1 0x1 PUSH1 0x1 PUSH1 0xA0 SHL SUB AND DUP2 MSTORE PUSH1 0x20 ADD SWAP1 DUP2 MSTORE PUSH1 0x20 ADD PUSH1 0x0 KECCAK256 SLOAD SWAP1 POP PUSH1 0x0 DUP2 PUSH1 0x1 PUSH2 0x32FB SWAP2 SWAP1 PUSH2 0x4BF7 JUMP JUMPDEST SWAP1 POP DUP1 PUSH1 0xE PUSH1 0x0 DUP10 DUP2 MSTORE PUSH1 0x20 ADD SWAP1 DUP2 MSTORE PUSH1 0x20 ADD PUSH1 0x0 KECCAK256 PUSH1 0x0 DUP16 PUSH1 0x1 PUSH1 0x1 PUSH1 0xA0 SHL SUB AND PUSH1 0x1 PUSH1 0x1 PUSH1 0xA0 SHL SUB AND DUP2 MSTORE PUSH1 0x20 ADD SWAP1 DUP2 MSTORE PUSH1 0x20 ADD PUSH1 0x0 KECCAK256 DUP2 SWAP1 SSTORE POP DUP12 PUSH1 0xC0 ADD MLOAD DUP6 SUB PUSH2 0x335A JUMPI PUSH2 0x334C DUP8 PUSH2 0x3AD6 JUMP JUMPDEST PUSH2 0x335A DUP8 DUP13 PUSH1 0x20 ADD MLOAD PUSH2 0x3BEE JUMP JUMPDEST PUSH1 0x18 DUP1 SLOAD SWAP1 PUSH1 0x0 PUSH2 0x336A DUP4 PUSH2 0x4C0F JUMP JUMPDEST SWAP2 SWAP1 POP SSTORE POP POP POP POP POP POP POP POP POP POP POP POP POP POP POP POP POP JUMP JUMPDEST PUSH1 0xD DUP2 DUP2 SLOAD DUP2 LT PUSH2 0x3391 JUMPI PUSH1 0x0 DUP1 REVERT JUMPDEST PUSH1 0x0 SWAP2 DUP3 MSTORE PUSH1 0x20 SWAP1 SWAP2 KECCAK256 PUSH1 0x5 SWAP1 SWAP2 MUL ADD DUP1 SLOAD PUSH1 0x1 DUP3 ADD SLOAD PUSH1 0x2 DUP4 ADD SLOAD PUSH1 0x3 DUP5 ADD SLOAD PUSH1 0x4 SWAP1 SWAP5 ADD SLOAD SWAP3 SWAP5 POP SWAP1 SWAP3 SWAP1 SWAP2 PUSH1 0xFF DUP1 DUP3 AND SWAP2 PUSH2 0x100 SWAP1 DIV AND DUP7 JUMP JUMPDEST PUSH2 0x33D6 PUSH2 0x4059 JUMP JUMPDEST PUSH1 0x1 PUSH1 0x1 PUSH1 0xA0 SHL SUB DUP1 DUP4 AND PUSH1 0x0 SWAP1 DUP2 MSTORE PUSH1 0x2 PUSH1 0x20 DUP2 DUP2 MSTORE PUSH1 0x40 SWAP3 DUP4 SWAP1 KECCAK256 DUP4 MLOAD PUSH1 0xC0 DUP2 ADD DUP6 MSTORE DUP2 SLOAD DUP2 MSTORE PUSH1 0x1 DUP3 ADD SLOAD SWAP1 SWAP6 AND SWAP2 DUP6 ADD SWAP2 SWAP1 SWAP2 MSTORE SWAP1 DUP2 ADD DUP1 SLOAD SWAP2 SWAP3 DUP5 ADD SWAP2 PUSH2 0x3421 SWAP1 PUSH2 0x4BA7 JUMP JUMPDEST DUP1 PUSH1 0x1F ADD PUSH1 0x20 DUP1 SWAP2 DIV MUL PUSH1 0x20 ADD PUSH1 0x40 MLOAD SWAP1 DUP2 ADD PUSH1 0x40 MSTORE DUP1 SWAP3 SWAP2 SWAP1 DUP2 DUP2 MSTORE PUSH1 0x20 ADD DUP3 DUP1 SLOAD PUSH2 0x344D SWAP1 PUSH2 0x4BA7 JUMP JUMPDEST DUP1 ISZERO PUSH2 0x349A JUMPI DUP1 PUSH1 0x1F LT PUSH2 0x346F JUMPI PUSH2 0x100 DUP1 DUP4 SLOAD DIV MUL DUP4 MSTORE SWAP2 PUSH1 0x20 ADD SWAP2 PUSH2 0x349A JUMP JUMPDEST DUP3 ADD SWAP2 SWAP1 PUSH1 0x0 MSTORE PUSH1 0x20 PUSH1 0x0 KECCAK256 SWAP1 JUMPDEST DUP2 SLOAD DUP2 MSTORE SWAP1 PUSH1 0x1 ADD SWAP1 PUSH1 0x20 ADD DUP1 DUP4 GT PUSH2 0x347D JUMPI DUP3 SWAP1 SUB PUSH1 0x1F AND DUP3 ADD SWAP2 JUMPDEST POP POP POP POP POP DUP2 MSTORE PUSH1 0x20 ADD PUSH1 0x3 DUP3 ADD DUP1 SLOAD PUSH2 0x34B3 SWAP1 PUSH2 0x4BA7 JUMP JUMPDEST DUP1 PUSH1 0x1F ADD PUSH1 0x20 DUP1 SWAP2 DIV MUL PUSH1 0x20 ADD PUSH1 0x40 MLOAD SWAP1 DUP2 ADD PUSH1 0x40 MSTORE DUP1 SWAP3 SWAP2 SWAP1 DUP2 DUP2 MSTORE PUSH1 0x20 ADD DUP3 DUP1 SLOAD PUSH2 0x34DF SWAP1 PUSH2 0x4BA7 JUMP JUMPDEST DUP1 ISZERO PUSH2 0x352C JUMPI DUP1 PUSH1 0x1F LT PUSH2 0x3501 JUMPI PUSH2 0x100 DUP1 DUP4 SLOAD DIV MUL DUP4 MSTORE SWAP2 PUSH1 0x20 ADD SWAP2 PUSH2 0x352C JUMP JUMPDEST DUP3 ADD SWAP2 SWAP1 PUSH1 0x0 MSTORE PUSH1 0x20 PUSH1 0x0 KECCAK256 SWAP1 JUMPDEST DUP2 SLOAD DUP2 MSTORE SWAP1 PUSH1 0x1 ADD SWAP1 PUSH1 0x20 ADD DUP1 DUP4 GT PUSH2 0x350F JUMPI DUP3 SWAP1 SUB PUSH1 0x1F AND DUP3 ADD SWAP2 JUMPDEST POP POP POP SWAP2 DUP4 MSTORE POP POP PUSH1 0x4 DUP3 ADD SLOAD PUSH1 0x20 DUP3 ADD MSTORE PUSH1 0x5 SWAP1 SWAP2 ADD SLOAD PUSH1 0xFF AND ISZERO ISZERO PUSH1 0x40 SWAP1 SWAP2 ADD MSTORE SWAP3 SWAP2 POP POP JUMP JUMPDEST PUSH2 0x355D PUSH2 0x3F8E JUMP JUMPDEST PUSH1 0x0 PUSH2 0x3567 PUSH2 0x3F8E JUMP JUMPDEST PUSH1 0x0 PUSH2 0x3572 DUP6 PUSH2 0x22BC JUMP JUMPDEST SWAP1 POP PUSH1 0x0 JUMPDEST DUP2 MLOAD DUP2 LT ISZERO PUSH2 0x1D88 JUMPI PUSH1 0x0 DUP3 DUP3 DUP2 MLOAD DUP2 LT PUSH2 0x3594 JUMPI PUSH2 0x3594 PUSH2 0x4C28 JUMP JUMPDEST PUSH1 0x20 SWAP1 DUP2 MUL SWAP2 SWAP1 SWAP2 ADD DUP2 ADD MLOAD PUSH1 0x0 DUP10 DUP2 MSTORE PUSH1 0xE DUP4 MSTORE PUSH1 0x40 DUP1 DUP3 KECCAK256 DUP2 DUP5 ADD MLOAD PUSH1 0x1 PUSH1 0x1 PUSH1 0xA0 SHL SUB AND DUP4 MSTORE SWAP1 SWAP4 MSTORE SWAP2 SWAP1 SWAP2 KECCAK256 SLOAD SWAP1 SWAP2 POP DUP6 DUP2 GT ISZERO PUSH2 0x35F0 JUMPI DUP1 SWAP6 POP DUP4 DUP4 DUP2 MLOAD DUP2 LT PUSH2 0x35E5 JUMPI PUSH2 0x35E5 PUSH2 0x4C28 JUMP JUMPDEST PUSH1 0x20 MUL PUSH1 0x20 ADD ADD MLOAD SWAP5 POP JUMPDEST POP POP DUP1 DUP1 PUSH2 0x35FD SWAP1 PUSH2 0x4C0F JUMP JUMPDEST SWAP2 POP POP PUSH2 0x3577 JUMP JUMPDEST PUSH2 0x360D PUSH2 0x3F44 JUMP JUMPDEST PUSH1 0x0 PUSH2 0x3618 DUP4 PUSH2 0x281F JUMP JUMPDEST SWAP1 POP PUSH2 0x3622 PUSH2 0x3F44 JUMP JUMPDEST PUSH1 0x0 JUMPDEST DUP3 MLOAD DUP2 LT ISZERO PUSH2 0x367B JUMPI PUSH1 0x0 DUP4 DUP3 DUP2 MLOAD DUP2 LT PUSH2 0x3642 JUMPI PUSH2 0x3642 PUSH2 0x4C28 JUMP JUMPDEST PUSH1 0x20 MUL PUSH1 0x20 ADD ADD MLOAD SWAP1 POP DUP8 DUP2 PUSH1 0x60 ADD MLOAD EQ DUP1 ISZERO PUSH2 0x365F JUMPI POP DUP1 MLOAD DUP8 EQ JUMPDEST ISZERO PUSH2 0x3668 JUMPI DUP1 SWAP3 POP JUMPDEST POP DUP1 PUSH2 0x3673 DUP2 PUSH2 0x4C0F JUMP JUMPDEST SWAP2 POP POP PUSH2 0x3625 JUMP JUMPDEST POP SWAP6 SWAP5 POP POP POP POP POP JUMP JUMPDEST PUSH1 0x1 PUSH1 0x1 PUSH1 0xA0 SHL SUB DUP2 AND PUSH1 0x0 SWAP1 DUP2 MSTORE PUSH1 0x3 PUSH1 0x20 MSTORE PUSH1 0x40 DUP2 KECCAK256 SLOAD PUSH1 0x60 SWAP2 DUP2 PUSH8 0xFFFFFFFFFFFFFFFF DUP2 GT ISZERO PUSH2 0x36BA JUMPI PUSH2 0x36BA PUSH2 0x41CF JUMP JUMPDEST PUSH1 0x40 MLOAD SWAP1 DUP1 DUP3 MSTORE DUP1 PUSH1 0x20 MUL PUSH1 0x20 ADD DUP3 ADD PUSH1 0x40 MSTORE DUP1 ISZERO PUSH2 0x36F3 JUMPI DUP2 PUSH1 0x20 ADD JUMPDEST PUSH2 0x36E0 PUSH2 0x3E57 JUMP JUMPDEST DUP2 MSTORE PUSH1 0x20 ADD SWAP1 PUSH1 0x1 SWAP1 SUB SWAP1 DUP2 PUSH2 0x36D8 JUMPI SWAP1 POP JUMPDEST POP SWAP1 POP PUSH1 0x0 DUP1 JUMPDEST PUSH1 0x4 SLOAD DUP2 LT ISZERO PUSH2 0x1D88 JUMPI PUSH1 0x0 PUSH1 0x4 DUP3 DUP2 SLOAD DUP2 LT PUSH2 0x3719 JUMPI PUSH2 0x3719 PUSH2 0x4C28 JUMP JUMPDEST SWAP1 PUSH1 0x0 MSTORE PUSH1 0x20 PUSH1 0x0 KECCAK256 SWAP1 PUSH1 0x9 MUL ADD PUSH1 0x40 MLOAD DUP1 PUSH2 0x160 ADD PUSH1 0x40 MSTORE SWAP1 DUP2 PUSH1 0x0 DUP3 ADD SLOAD DUP2 MSTORE PUSH1 0x20 ADD PUSH1 0x1 DUP3 ADD SLOAD DUP2 MSTORE PUSH1 0x20 ADD PUSH1 0x2 DUP3 ADD PUSH1 0x0 SWAP1 SLOAD SWAP1 PUSH2 0x100 EXP SWAP1 DIV PUSH1 0x1 PUSH1 0x1 PUSH1 0xA0 SHL SUB AND PUSH1 0x1 PUSH1 0x1 PUSH1 0xA0 SHL SUB AND PUSH1 0x1 PUSH1 0x1 PUSH1 0xA0 SHL SUB AND DUP2 MSTORE PUSH1 0x20 ADD PUSH1 0x3 DUP3 ADD DUP1 SLOAD PUSH2 0x3786 SWAP1 PUSH2 0x4BA7 JUMP JUMPDEST DUP1 PUSH1 0x1F ADD PUSH1 0x20 DUP1 SWAP2 DIV MUL PUSH1 0x20 ADD PUSH1 0x40 MLOAD SWAP1 DUP2 ADD PUSH1 0x40 MSTORE DUP1 SWAP3 SWAP2 SWAP1 DUP2 DUP2 MSTORE PUSH1 0x20 ADD DUP3 DUP1 SLOAD PUSH2 0x37B2 SWAP1 PUSH2 0x4BA7 JUMP JUMPDEST DUP1 ISZERO PUSH2 0x37FF JUMPI DUP1 PUSH1 0x1F LT PUSH2 0x37D4 JUMPI PUSH2 0x100 DUP1 DUP4 SLOAD DIV MUL DUP4 MSTORE SWAP2 PUSH1 0x20 ADD SWAP2 PUSH2 0x37FF JUMP JUMPDEST DUP3 ADD SWAP2 SWAP1 PUSH1 0x0 MSTORE PUSH1 0x20 PUSH1 0x0 KECCAK256 SWAP1 JUMPDEST DUP2 SLOAD DUP2 MSTORE SWAP1 PUSH1 0x1 ADD SWAP1 PUSH1 0x20 ADD DUP1 DUP4 GT PUSH2 0x37E2 JUMPI DUP3 SWAP1 SUB PUSH1 0x1F AND DUP3 ADD SWAP2 JUMPDEST POP POP POP POP POP DUP2 MSTORE PUSH1 0x20 ADD PUSH1 0x4 DUP3 ADD DUP1 SLOAD PUSH2 0x3818 SWAP1 PUSH2 0x4BA7 JUMP JUMPDEST DUP1 PUSH1 0x1F ADD PUSH1 0x20 DUP1 SWAP2 DIV MUL PUSH1 0x20 ADD PUSH1 0x40 MLOAD SWAP1 DUP2 ADD PUSH1 0x40 MSTORE DUP1 SWAP3 SWAP2 SWAP1 DUP2 DUP2 MSTORE PUSH1 0x20 ADD DUP3 DUP1 SLOAD PUSH2 0x3844 SWAP1 PUSH2 0x4BA7 JUMP JUMPDEST DUP1 ISZERO PUSH2 0x3891 JUMPI DUP1 PUSH1 0x1F LT PUSH2 0x3866 JUMPI PUSH2 0x100 DUP1 DUP4 SLOAD DIV MUL DUP4 MSTORE SWAP2 PUSH1 0x20 ADD SWAP2 PUSH2 0x3891 JUMP JUMPDEST DUP3 ADD SWAP2 SWAP1 PUSH1 0x0 MSTORE PUSH1 0x20 PUSH1 0x0 KECCAK256 SWAP1 JUMPDEST DUP2 SLOAD DUP2 MSTORE SWAP1 PUSH1 0x1 ADD SWAP1 PUSH1 0x20 ADD DUP1 DUP4 GT PUSH2 0x3874 JUMPI DUP3 SWAP1 SUB PUSH1 0x1F AND DUP3 ADD SWAP2 JUMPDEST POP POP POP SWAP2 DUP4 MSTORE POP POP PUSH1 0x5 DUP3 ADD SLOAD PUSH1 0x20 DUP3 ADD MSTORE PUSH1 0x6 DUP3 ADD SLOAD PUSH1 0x40 DUP1 DUP4 ADD SWAP2 SWAP1 SWAP2 MSTORE PUSH1 0x7 DUP4 ADD SLOAD PUSH1 0x60 DUP4 ADD MSTORE PUSH1 0x8 SWAP1 SWAP3 ADD SLOAD PUSH1 0xFF DUP1 DUP3 AND ISZERO ISZERO PUSH1 0x80 DUP5 ADD MSTORE PUSH2 0x100 DUP3 DIV DUP2 AND ISZERO ISZERO PUSH1 0xA0 DUP5 ADD MSTORE PUSH3 0x10000 SWAP1 SWAP2 DIV AND ISZERO ISZERO PUSH1 0xC0 SWAP1 SWAP2 ADD MSTORE DUP2 ADD MLOAD SWAP1 SWAP2 POP PUSH1 0x1 PUSH1 0x1 PUSH1 0xA0 SHL SUB DUP1 DUP10 AND SWAP2 AND SUB PUSH2 0x393C JUMPI DUP1 DUP5 DUP5 DUP2 MLOAD DUP2 LT PUSH2 0x3916 JUMPI PUSH2 0x3916 PUSH2 0x4C28 JUMP JUMPDEST PUSH1 0x20 MUL PUSH1 0x20 ADD ADD DUP2 SWAP1 MSTORE POP DUP3 DUP1 PUSH2 0x392C SWAP1 PUSH2 0x4C0F JUMP JUMPDEST SWAP4 POP POP DUP5 DUP4 SUB PUSH2 0x393C JUMPI POP PUSH2 0x1D88 JUMP JUMPDEST POP DUP1 PUSH2 0x3947 DUP2 PUSH2 0x4C0F JUMP JUMPDEST SWAP2 POP POP PUSH2 0x36FA JUMP JUMPDEST PUSH1 0x1A SLOAD PUSH1 0x0 PUSH2 0x395D DUP4 PUSH2 0x24C6 JUMP JUMPDEST SWAP1 POP PUSH1 0x0 PUSH2 0x396A DUP6 PUSH2 0x1C6F JUMP JUMPDEST SWAP1 POP PUSH2 0x39B0 PUSH1 0x40 MLOAD DUP1 PUSH1 0xC0 ADD PUSH1 0x40 MSTORE DUP1 PUSH1 0x0 DUP2 MSTORE PUSH1 0x20 ADD PUSH1 0x0 DUP2 MSTORE PUSH1 0x20 ADD PUSH1 0x0 PUSH1 0x1 PUSH1 0x1 PUSH1 0xA0 SHL SUB AND DUP2 MSTORE PUSH1 0x20 ADD PUSH1 0x0 DUP2 MSTORE PUSH1 0x20 ADD PUSH1 0x0 DUP2 MSTORE PUSH1 0x20 ADD PUSH1 0x0 ISZERO ISZERO DUP2 MSTORE POP SWAP1 JUMP JUMPDEST DUP4 DUP2 MSTORE DUP3 MLOAD PUSH1 0x20 DUP1 DUP4 ADD SWAP2 DUP3 MSTORE DUP1 DUP6 ADD MLOAD PUSH1 0x1 PUSH1 0x1 PUSH1 0xA0 SHL SUB SWAP1 DUP2 AND PUSH1 0x40 DUP1 DUP7 ADD SWAP2 DUP3 MSTORE PUSH1 0x60 DUP7 ADD DUP12 DUP2 MSTORE PUSH1 0x80 DUP8 ADD DUP9 DUP2 MSTORE PUSH1 0x1 PUSH1 0xA0 DUP10 ADD DUP2 DUP2 MSTORE DUP14 DUP8 AND PUSH1 0x0 DUP2 DUP2 MSTORE PUSH1 0x10 DUP11 MSTORE DUP7 DUP2 KECCAK256 DUP1 SLOAD DUP1 DUP7 ADD DUP3 SSTORE SWAP1 DUP3 MSTORE SWAP10 SWAP1 KECCAK256 DUP12 MLOAD PUSH1 0x6 SWAP1 SWAP11 MUL ADD SWAP9 DUP10 SSTORE SWAP9 MLOAD DUP9 DUP4 ADD SSTORE SWAP5 MLOAD PUSH1 0x2 DUP9 ADD DUP1 SLOAD PUSH1 0x1 PUSH1 0x1 PUSH1 0xA0 SHL SUB NOT AND SWAP2 DUP9 AND SWAP2 SWAP1 SWAP2 OR SWAP1 SSTORE SWAP2 MLOAD PUSH1 0x3 DUP8 ADD SSTORE MLOAD PUSH1 0x4 DUP1 DUP8 ADD SWAP2 SWAP1 SWAP2 SSTORE SWAP3 MLOAD PUSH1 0x5 SWAP1 SWAP6 ADD DUP1 SLOAD PUSH1 0xFF NOT AND SWAP6 ISZERO ISZERO SWAP6 SWAP1 SWAP6 OR SWAP1 SWAP5 SSTORE SWAP3 SLOAD SWAP3 MLOAD PUSH4 0xA9059CBB PUSH1 0xE0 SHL DUP2 MSTORE SWAP1 DUP2 ADD SWAP4 SWAP1 SWAP4 MSTORE PUSH1 0x24 DUP4 ADD DUP6 SWAP1 MSTORE AND SWAP1 PUSH4 0xA9059CBB SWAP1 PUSH1 0x44 ADD PUSH1 0x20 PUSH1 0x40 MLOAD DUP1 DUP4 SUB DUP2 PUSH1 0x0 DUP8 GAS CALL ISZERO DUP1 ISZERO PUSH2 0x3AA1 JUMPI RETURNDATASIZE PUSH1 0x0 DUP1 RETURNDATACOPY RETURNDATASIZE PUSH1 0x0 REVERT JUMPDEST POP POP POP POP PUSH1 0x40 MLOAD RETURNDATASIZE PUSH1 0x1F NOT PUSH1 0x1F DUP3 ADD AND DUP3 ADD DUP1 PUSH1 0x40 MSTORE POP DUP2 ADD SWAP1 PUSH2 0x3AC5 SWAP2 SWAP1 PUSH2 0x4C7F JUMP JUMPDEST POP PUSH1 0x1A DUP1 SLOAD SWAP1 PUSH1 0x0 PUSH2 0x1C62 DUP4 PUSH2 0x4C0F JUMP JUMPDEST PUSH1 0x0 PUSH2 0x3AE1 DUP3 PUSH2 0x1FC2 JUMP JUMPDEST PUSH1 0x1 PUSH2 0x120 DUP3 ADD MSTORE PUSH1 0x4 DUP1 SLOAD SWAP2 SWAP3 POP DUP3 SWAP2 DUP5 SWAP1 DUP2 LT PUSH2 0x3B02 JUMPI PUSH2 0x3B02 PUSH2 0x4C28 JUMP JUMPDEST PUSH1 0x0 SWAP2 DUP3 MSTORE PUSH1 0x20 SWAP2 DUP3 SWAP1 KECCAK256 DUP4 MLOAD PUSH1 0x9 SWAP3 SWAP1 SWAP3 MUL ADD SWAP1 DUP2 SSTORE DUP3 DUP3 ADD MLOAD PUSH1 0x1 DUP3 ADD SSTORE PUSH1 0x40 DUP4 ADD MLOAD PUSH1 0x2 DUP3 ADD DUP1 SLOAD PUSH1 0x1 PUSH1 0x1 PUSH1 0xA0 SHL SUB NOT AND PUSH1 0x1 PUSH1 0x1 PUSH1 0xA0 SHL SUB SWAP1 SWAP3 AND SWAP2 SWAP1 SWAP2 OR SWAP1 SSTORE PUSH1 0x60 DUP4 ADD MLOAD DUP1 MLOAD SWAP2 SWAP3 PUSH2 0x3B63 SWAP3 PUSH1 0x3 DUP6 ADD SWAP3 SWAP1 SWAP2 ADD SWAP1 PUSH2 0x3EC0 JUMP JUMPDEST POP PUSH1 0x80 DUP3 ADD MLOAD DUP1 MLOAD PUSH2 0x3B7F SWAP2 PUSH1 0x4 DUP5 ADD SWAP2 PUSH1 0x20 SWAP1 SWAP2 ADD SWAP1 PUSH2 0x3EC0 JUMP JUMPDEST POP PUSH1 0xA0 DUP3 ADD MLOAD PUSH1 0x5 DUP3 ADD SSTORE PUSH1 0xC0 DUP3 ADD MLOAD PUSH1 0x6 DUP3 ADD SSTORE PUSH1 0xE0 DUP3 ADD MLOAD PUSH1 0x7 DUP3 ADD SSTORE PUSH2 0x100 DUP1 DUP4 ADD MLOAD PUSH1 0x8 SWAP1 SWAP3 ADD DUP1 SLOAD PUSH2 0x120 DUP6 ADD MLOAD PUSH2 0x140 SWAP1 SWAP6 ADD MLOAD PUSH2 0xFFFF NOT SWAP1 SWAP2 AND SWAP4 ISZERO ISZERO PUSH2 0xFF00 NOT AND SWAP4 SWAP1 SWAP4 OR SWAP4 ISZERO ISZERO SWAP1 SWAP2 MUL SWAP3 SWAP1 SWAP3 OR PUSH3 0xFF0000 NOT AND PUSH3 0x10000 SWAP2 ISZERO ISZERO SWAP2 SWAP1 SWAP2 MUL OR SWAP1 SSTORE POP POP JUMP JUMPDEST PUSH1 0x0 PUSH2 0x3BF9 DUP4 PUSH2 0x3555 JUMP JUMPDEST SWAP1 POP PUSH1 0x0 PUSH2 0x3C06 DUP5 PUSH2 0x2290 JUMP JUMPDEST SWAP1 POP PUSH1 0x0 PUSH1 0x19 SLOAD SWAP1 POP PUSH2 0x3C5A PUSH1 0x40 MLOAD DUP1 PUSH1 0xE0 ADD PUSH1 0x40 MSTORE DUP1 PUSH1 0x0 DUP2 MSTORE PUSH1 0x20 ADD PUSH1 0x0 DUP2 MSTORE PUSH1 0x20 ADD PUSH1 0x0 DUP2 MSTORE PUSH1 0x20 ADD PUSH1 0x0 DUP2 MSTORE PUSH1 0x20 ADD PUSH1 0x0 PUSH1 0x1 PUSH1 0x1 PUSH1 0xA0 SHL SUB AND DUP2 MSTORE PUSH1 0x20 ADD PUSH1 0x0 DUP2 MSTORE PUSH1 0x20 ADD PUSH1 0x0 ISZERO ISZERO DUP2 MSTORE POP SWAP1 JUMP JUMPDEST DUP2 DUP2 MSTORE PUSH1 0x20 DUP2 ADD DUP7 DUP2 MSTORE PUSH1 0x60 DUP3 ADD DUP7 DUP2 MSTORE PUSH1 0x40 DUP7 DUP2 ADD DUP1 MLOAD PUSH1 0x1 PUSH1 0x1 PUSH1 0xA0 SHL SUB SWAP1 DUP2 AND PUSH1 0x80 DUP8 ADD SWAP1 DUP2 MSTORE PUSH1 0xA0 DUP8 ADD DUP10 DUP2 MSTORE PUSH1 0x1 PUSH1 0xC0 DUP10 ADD DUP2 DUP2 MSTORE PUSH1 0xF DUP1 SLOAD DUP1 DUP5 ADD DUP3 SSTORE PUSH1 0x0 SWAP2 SWAP1 SWAP2 MSTORE DUP11 MLOAD PUSH32 0x8D1108E10BCB7C27DDDFC02ED9D693A074039D026CF4EA4240B40F7D581AC802 PUSH1 0x7 SWAP1 SWAP3 MUL SWAP2 DUP3 ADD SSTORE SWAP9 MLOAD PUSH32 0x8D1108E10BCB7C27DDDFC02ED9D693A074039D026CF4EA4240B40F7D581AC803 DUP11 ADD SSTORE DUP7 DUP11 ADD MLOAD PUSH32 0x8D1108E10BCB7C27DDDFC02ED9D693A074039D026CF4EA4240B40F7D581AC804 DUP11 ADD SSTORE SWAP7 MLOAD PUSH32 0x8D1108E10BCB7C27DDDFC02ED9D693A074039D026CF4EA4240B40F7D581AC805 DUP10 ADD SSTORE SWAP2 MLOAD PUSH32 0x8D1108E10BCB7C27DDDFC02ED9D693A074039D026CF4EA4240B40F7D581AC806 DUP9 ADD DUP1 SLOAD PUSH1 0x1 PUSH1 0x1 PUSH1 0xA0 SHL SUB NOT AND SWAP2 DUP6 AND SWAP2 SWAP1 SWAP2 OR SWAP1 SSTORE MLOAD PUSH32 0x8D1108E10BCB7C27DDDFC02ED9D693A074039D026CF4EA4240B40F7D581AC807 DUP8 ADD SSTORE SWAP4 MLOAD PUSH32 0x8D1108E10BCB7C27DDDFC02ED9D693A074039D026CF4EA4240B40F7D581AC808 SWAP1 SWAP6 ADD DUP1 SLOAD PUSH1 0xFF NOT AND SWAP6 ISZERO ISZERO SWAP6 SWAP1 SWAP6 OR SWAP1 SWAP5 SSTORE SWAP2 SLOAD SWAP2 MLOAD SWAP1 MLOAD PUSH4 0xA9059CBB PUSH1 0xE0 SHL DUP2 MSTORE SWAP1 DUP4 AND PUSH1 0x4 DUP3 ADD MSTORE PUSH1 0x24 DUP2 ADD DUP7 SWAP1 MSTORE SWAP2 AND SWAP1 PUSH4 0xA9059CBB SWAP1 PUSH1 0x44 ADD PUSH1 0x20 PUSH1 0x40 MLOAD DUP1 DUP4 SUB DUP2 PUSH1 0x0 DUP8 GAS CALL ISZERO DUP1 ISZERO PUSH2 0x3E22 JUMPI RETURNDATASIZE PUSH1 0x0 DUP1 RETURNDATACOPY RETURNDATASIZE PUSH1 0x0 REVERT JUMPDEST POP POP POP POP PUSH1 0x40 MLOAD RETURNDATASIZE PUSH1 0x1F NOT PUSH1 0x1F DUP3 ADD AND DUP3 ADD DUP1 PUSH1 0x40 MSTORE POP DUP2 ADD SWAP1 PUSH2 0x3E46 SWAP2 SWAP1 PUSH2 0x4C7F JUMP JUMPDEST POP PUSH1 0x19 DUP1 SLOAD SWAP1 PUSH1 0x0 PUSH2 0x1C62 DUP4 PUSH2 0x4C0F JUMP JUMPDEST PUSH1 0x40 MLOAD DUP1 PUSH2 0x160 ADD PUSH1 0x40 MSTORE DUP1 PUSH1 0x0 DUP2 MSTORE PUSH1 0x20 ADD PUSH1 0x0 DUP2 MSTORE PUSH1 0x20 ADD PUSH1 0x0 PUSH1 0x1 PUSH1 0x1 PUSH1 0xA0 SHL SUB AND DUP2 MSTORE PUSH1 0x20 ADD PUSH1 0x60 DUP2 MSTORE PUSH1 0x20 ADD PUSH1 0x60 DUP2 MSTORE PUSH1 0x20 ADD PUSH1 0x0 DUP2 MSTORE PUSH1 0x20 ADD PUSH1 0x0 DUP2 MSTORE PUSH1 0x20 ADD PUSH1 0x0 DUP2 MSTORE PUSH1 0x20 ADD PUSH1 0x0 ISZERO ISZERO DUP2 MSTORE PUSH1 0x20 ADD PUSH1 0x0 ISZERO ISZERO DUP2 MSTORE PUSH1 0x20 ADD PUSH1 0x0 ISZERO ISZERO DUP2 MSTORE POP SWAP1 JUMP JUMPDEST DUP3 DUP1 SLOAD PUSH2 0x3ECC SWAP1 PUSH2 0x4BA7 JUMP JUMPDEST SWAP1 PUSH1 0x0 MSTORE PUSH1 0x20 PUSH1 0x0 KECCAK256 SWAP1 PUSH1 0x1F ADD PUSH1 0x20 SWAP1 DIV DUP2 ADD SWAP3 DUP3 PUSH2 0x3EEE JUMPI PUSH1 0x0 DUP6 SSTORE PUSH2 0x3F34 JUMP JUMPDEST DUP3 PUSH1 0x1F LT PUSH2 0x3F07 JUMPI DUP1 MLOAD PUSH1 0xFF NOT AND DUP4 DUP1 ADD OR DUP6 SSTORE PUSH2 0x3F34 JUMP JUMPDEST DUP3 DUP1 ADD PUSH1 0x1 ADD DUP6 SSTORE DUP3 ISZERO PUSH2 0x3F34 JUMPI SWAP2 DUP3 ADD JUMPDEST DUP3 DUP2 GT ISZERO PUSH2 0x3F34 JUMPI DUP3 MLOAD DUP3 SSTORE SWAP2 PUSH1 0x20 ADD SWAP2 SWAP1 PUSH1 0x1 ADD SWAP1 PUSH2 0x3F19 JUMP JUMPDEST POP PUSH2 0x3F40 SWAP3 SWAP2 POP PUSH2 0x409A JUMP JUMPDEST POP SWAP1 JUMP JUMPDEST PUSH1 0x40 MLOAD DUP1 PUSH1 0xE0 ADD PUSH1 0x40 MSTORE DUP1 PUSH1 0x0 DUP2 MSTORE PUSH1 0x20 ADD PUSH1 0x0 DUP2 MSTORE PUSH1 0x20 ADD PUSH1 0x0 PUSH1 0x1 PUSH1 0x1 PUSH1 0xA0 SHL SUB AND DUP2 MSTORE PUSH1 0x20 ADD PUSH1 0x0 DUP2 MSTORE PUSH1 0x20 ADD PUSH1 0x60 DUP2 MSTORE PUSH1 0x20 ADD PUSH1 0x0 ISZERO ISZERO DUP2 MSTORE PUSH1 0x20 ADD PUSH1 0x0 ISZERO ISZERO DUP2 MSTORE POP SWAP1 JUMP JUMPDEST PUSH1 0x40 MLOAD DUP1 PUSH2 0x100 ADD PUSH1 0x40 MSTORE DUP1 PUSH1 0x0 DUP2 MSTORE PUSH1 0x20 ADD PUSH1 0x0 DUP2 MSTORE PUSH1 0x20 ADD PUSH1 0x0 PUSH1 0x1 PUSH1 0x1 PUSH1 0xA0 SHL SUB AND DUP2 MSTORE PUSH1 0x20 ADD PUSH1 0x60 DUP2 MSTORE PUSH1 0x20 ADD PUSH1 0x60 DUP2 MSTORE PUSH1 0x20 ADD PUSH1 0x60 DUP2 MSTORE PUSH1 0x20 ADD PUSH1 0x60 DUP2 MSTORE PUSH1 0x20 ADD PUSH1 0x0 ISZERO ISZERO DUP2 MSTORE POP SWAP1 JUMP JUMPDEST PUSH1 0x40 MLOAD DUP1 PUSH1 0xC0 ADD PUSH1 0x40 MSTORE DUP1 PUSH1 0x0 DUP2 MSTORE PUSH1 0x20 ADD PUSH1 0x0 PUSH1 0x1 PUSH1 0x1 PUSH1 0xA0 SHL SUB AND DUP2 MSTORE PUSH1 0x20 ADD PUSH1 0x60 DUP2 MSTORE PUSH1 0x20 ADD PUSH1 0x60 DUP2 MSTORE PUSH1 0x20 ADD PUSH1 0x60 DUP2 MSTORE PUSH1 0x20 ADD PUSH1 0x0 ISZERO ISZERO DUP2 MSTORE POP SWAP1 JUMP JUMPDEST PUSH1 0x40 MLOAD DUP1 PUSH1 0xC0 ADD PUSH1 0x40 MSTORE DUP1 PUSH1 0x0 DUP2 MSTORE PUSH1 0x20 ADD PUSH1 0x0 DUP2 MSTORE PUSH1 0x20 ADD PUSH1 0x0 DUP2 MSTORE PUSH1 0x20 ADD PUSH1 0x0 DUP2 MSTORE PUSH1 0x20 ADD PUSH1 0x0 ISZERO ISZERO DUP2 MSTORE PUSH1 0x20 ADD PUSH1 0x0 ISZERO ISZERO DUP2 MSTORE POP SWAP1 JUMP JUMPDEST PUSH1 0x40 MLOAD DUP1 PUSH1 0xC0 ADD PUSH1 0x40 MSTORE DUP1 PUSH1 0x0 DUP2 MSTORE PUSH1 0x20 ADD PUSH1 0x0 PUSH1 0x1 PUSH1 0x1 PUSH1 0xA0 SHL SUB AND DUP2 MSTORE PUSH1 0x20 ADD PUSH1 0x60 DUP2 MSTORE PUSH1 0x20 ADD PUSH1 0x60 DUP2 MSTORE PUSH1 0x20 ADD PUSH1 0x0 DUP2 MSTORE PUSH1 0x20 ADD PUSH1 0x0 ISZERO ISZERO DUP2 MSTORE POP SWAP1 JUMP JUMPDEST JUMPDEST DUP1 DUP3 GT ISZERO PUSH2 0x3F40 JUMPI PUSH1 0x0 DUP2 SSTORE PUSH1 0x1 ADD PUSH2 0x409B JUMP JUMPDEST PUSH1 0x0 PUSH1 0x20 DUP3 DUP5 SUB SLT ISZERO PUSH2 0x40C1 JUMPI PUSH1 0x0 DUP1 REVERT JUMPDEST POP CALLDATALOAD SWAP2 SWAP1 POP JUMP JUMPDEST PUSH1 0x0 DUP2 MLOAD DUP1 DUP5 MSTORE PUSH1 0x0 JUMPDEST DUP2 DUP2 LT ISZERO PUSH2 0x40EE JUMPI PUSH1 0x20 DUP2 DUP6 ADD DUP2 ADD MLOAD DUP7 DUP4 ADD DUP3 ADD MSTORE ADD PUSH2 0x40D2 JUMP JUMPDEST DUP2 DUP2 GT ISZERO PUSH2 0x4100 JUMPI PUSH1 0x0 PUSH1 0x20 DUP4 DUP8 ADD ADD MSTORE JUMPDEST POP PUSH1 0x1F ADD PUSH1 0x1F NOT AND SWAP3 SWAP1 SWAP3 ADD PUSH1 0x20 ADD SWAP3 SWAP2 POP POP JUMP JUMPDEST DUP12 DUP2 MSTORE PUSH1 0x20 DUP2 ADD DUP12 SWAP1 MSTORE PUSH1 0x1 PUSH1 0x1 PUSH1 0xA0 SHL SUB DUP11 AND PUSH1 0x40 DUP3 ADD MSTORE PUSH2 0x160 PUSH1 0x60 DUP3 ADD DUP2 SWAP1 MSTORE PUSH1 0x0 SWAP1 PUSH2 0x4147 DUP4 DUP3 ADD DUP13 PUSH2 0x40C8 JUMP JUMPDEST SWAP1 POP DUP3 DUP2 SUB PUSH1 0x80 DUP5 ADD MSTORE PUSH2 0x415B DUP2 DUP12 PUSH2 0x40C8 JUMP JUMPDEST PUSH1 0xA0 DUP5 ADD SWAP10 SWAP1 SWAP10 MSTORE POP POP PUSH1 0xC0 DUP2 ADD SWAP6 SWAP1 SWAP6 MSTORE PUSH1 0xE0 DUP6 ADD SWAP4 SWAP1 SWAP4 MSTORE SWAP1 ISZERO ISZERO PUSH2 0x100 DUP5 ADD MSTORE ISZERO ISZERO PUSH2 0x120 DUP4 ADD MSTORE ISZERO ISZERO PUSH2 0x140 SWAP1 SWAP2 ADD MSTORE SWAP6 SWAP5 POP POP POP POP POP JUMP JUMPDEST DUP1 CALLDATALOAD PUSH1 0x1 PUSH1 0x1 PUSH1 0xA0 SHL SUB DUP2 AND DUP2 EQ PUSH2 0x41AF JUMPI PUSH1 0x0 DUP1 REVERT JUMPDEST SWAP2 SWAP1 POP JUMP JUMPDEST PUSH1 0x0 PUSH1 0x20 DUP3 DUP5 SUB SLT ISZERO PUSH2 0x41C6 JUMPI PUSH1 0x0 DUP1 REVERT JUMPDEST PUSH2 0x1CAD DUP3 PUSH2 0x4198 JUMP JUMPDEST PUSH4 0x4E487B71 PUSH1 0xE0 SHL PUSH1 0x0 MSTORE PUSH1 0x41 PUSH1 0x4 MSTORE PUSH1 0x24 PUSH1 0x0 REVERT JUMPDEST PUSH1 0x0 DUP3 PUSH1 0x1F DUP4 ADD SLT PUSH2 0x41F6 JUMPI PUSH1 0x0 DUP1 REVERT JUMPDEST DUP2 CALLDATALOAD PUSH8 0xFFFFFFFFFFFFFFFF DUP1 DUP3 GT ISZERO PUSH2 0x4211 JUMPI PUSH2 0x4211 PUSH2 0x41CF JUMP JUMPDEST PUSH1 0x40 MLOAD PUSH1 0x1F DUP4 ADD PUSH1 0x1F NOT SWAP1 DUP2 AND PUSH1 0x3F ADD AND DUP2 ADD SWAP1 DUP3 DUP3 GT DUP2 DUP4 LT OR ISZERO PUSH2 0x4239 JUMPI PUSH2 0x4239 PUSH2 0x41CF JUMP JUMPDEST DUP2 PUSH1 0x40 MSTORE DUP4 DUP2 MSTORE DUP7 PUSH1 0x20 DUP6 DUP9 ADD ADD GT ISZERO PUSH2 0x4252 JUMPI PUSH1 0x0 DUP1 REVERT JUMPDEST DUP4 PUSH1 0x20 DUP8 ADD PUSH1 0x20 DUP4 ADD CALLDATACOPY PUSH1 0x0 PUSH1 0x20 DUP6 DUP4 ADD ADD MSTORE DUP1 SWAP5 POP POP POP POP POP SWAP3 SWAP2 POP POP JUMP JUMPDEST PUSH1 0x0 DUP1 PUSH1 0x0 DUP1 PUSH1 0x0 DUP1 PUSH1 0x0 PUSH1 0xE0 DUP9 DUP11 SUB SLT ISZERO PUSH2 0x428D JUMPI PUSH1 0x0 DUP1 REVERT JUMPDEST DUP8 CALLDATALOAD SWAP7 POP PUSH2 0x429D PUSH1 0x20 DUP10 ADD PUSH2 0x4198 JUMP JUMPDEST SWAP6 POP PUSH1 0x40 DUP9 ADD CALLDATALOAD PUSH8 0xFFFFFFFFFFFFFFFF DUP1 DUP3 GT ISZERO PUSH2 0x42BA JUMPI PUSH1 0x0 DUP1 REVERT JUMPDEST PUSH2 0x42C6 DUP12 DUP4 DUP13 ADD PUSH2 0x41E5 JUMP JUMPDEST SWAP7 POP PUSH1 0x60 DUP11 ADD CALLDATALOAD SWAP2 POP DUP1 DUP3 GT ISZERO PUSH2 0x42DC JUMPI PUSH1 0x0 DUP1 REVERT JUMPDEST POP PUSH2 0x42E9 DUP11 DUP3 DUP12 ADD PUSH2 0x41E5 JUMP JUMPDEST SWAP8 SWAP11 SWAP7 SWAP10 POP SWAP5 SWAP8 PUSH1 0x80 DUP2 ADD CALLDATALOAD SWAP7 PUSH1 0xA0 DUP3 ADD CALLDATALOAD SWAP7 POP PUSH1 0xC0 SWAP1 SWAP2 ADD CALLDATALOAD SWAP5 POP SWAP3 POP POP POP JUMP JUMPDEST PUSH1 0x0 DUP1 PUSH1 0x0 DUP1 PUSH1 0x80 DUP6 DUP8 SUB SLT ISZERO PUSH2 0x4321 JUMPI PUSH1 0x0 DUP1 REVERT JUMPDEST DUP5 CALLDATALOAD SWAP4 POP PUSH1 0x20 DUP6 ADD CALLDATALOAD SWAP3 POP PUSH2 0x4338 PUSH1 0x40 DUP7 ADD PUSH2 0x4198 JUMP JUMPDEST SWAP2 POP PUSH1 0x60 DUP6 ADD CALLDATALOAD PUSH8 0xFFFFFFFFFFFFFFFF DUP2 GT ISZERO PUSH2 0x4354 JUMPI PUSH1 0x0 DUP1 REVERT JUMPDEST PUSH2 0x4360 DUP8 DUP3 DUP9 ADD PUSH2 0x41E5 JUMP JUMPDEST SWAP2 POP POP SWAP3 SWAP6 SWAP2 SWAP5 POP SWAP3 POP JUMP JUMPDEST DUP1 MLOAD DUP3 MSTORE PUSH1 0x20 DUP2 ADD MLOAD PUSH1 0x20 DUP4 ADD MSTORE PUSH1 0x1 DUP1 PUSH1 0xA0 SHL SUB PUSH1 0x40 DUP3 ADD MLOAD AND PUSH1 0x40 DUP4 ADD MSTORE PUSH1 0x60 DUP2 ADD MLOAD PUSH1 0x60 DUP4 ADD MSTORE PUSH1 0x0 PUSH1 0x80 DUP3 ADD MLOAD PUSH1 0xE0 PUSH1 0x80 DUP6 ADD MSTORE PUSH2 0x43B1 PUSH1 0xE0 DUP6 ADD DUP3 PUSH2 0x40C8 JUMP JUMPDEST SWAP1 POP PUSH1 0xA0 DUP4 ADD MLOAD ISZERO ISZERO PUSH1 0xA0 DUP6 ADD MSTORE PUSH1 0xC0 DUP4 ADD MLOAD ISZERO ISZERO PUSH1 0xC0 DUP6 ADD MSTORE DUP1 SWAP2 POP POP SWAP3 SWAP2 POP POP JUMP JUMPDEST PUSH1 0x20 DUP2 MSTORE PUSH1 0x0 PUSH2 0x1CAD PUSH1 0x20 DUP4 ADD DUP5 PUSH2 0x436C JUMP JUMPDEST PUSH1 0x0 DUP1 PUSH1 0x40 DUP4 DUP6 SUB SLT ISZERO PUSH2 0x43FB JUMPI PUSH1 0x0 DUP1 REVERT JUMPDEST DUP3 CALLDATALOAD SWAP2 POP PUSH2 0x440B PUSH1 0x20 DUP5 ADD PUSH2 0x4198 JUMP JUMPDEST SWAP1 POP SWAP3 POP SWAP3 SWAP1 POP JUMP JUMPDEST PUSH1 0x0 DUP1 PUSH1 0x40 DUP4 DUP6 SUB SLT ISZERO PUSH2 0x4427 JUMPI PUSH1 0x0 DUP1 REVERT JUMPDEST PUSH2 0x4430 DUP4 PUSH2 0x4198 JUMP JUMPDEST SWAP5 PUSH1 0x20 SWAP4 SWAP1 SWAP4 ADD CALLDATALOAD SWAP4 POP POP POP JUMP JUMPDEST PUSH1 0x0 PUSH2 0x160 DUP3 MLOAD DUP5 MSTORE PUSH1 0x20 DUP4 ADD MLOAD PUSH1 0x20 DUP6 ADD MSTORE PUSH1 0x40 DUP4 ADD MLOAD PUSH2 0x446B PUSH1 0x40 DUP7 ADD DUP3 PUSH1 0x1 PUSH1 0x1 PUSH1 0xA0 SHL SUB AND SWAP1 MSTORE JUMP JUMPDEST POP PUSH1 0x60 DUP4 ADD MLOAD DUP2 PUSH1 0x60 DUP7 ADD MSTORE PUSH2 0x4483 DUP3 DUP7 ADD DUP3 PUSH2 0x40C8 JUMP JUMPDEST SWAP2 POP POP PUSH1 0x80 DUP4 ADD MLOAD DUP5 DUP3 SUB PUSH1 0x80 DUP7 ADD MSTORE PUSH2 0x449D DUP3 DUP3 PUSH2 0x40C8 JUMP JUMPDEST SWAP2 POP POP PUSH1 0xA0 DUP4 ADD MLOAD PUSH1 0xA0 DUP6 ADD MSTORE PUSH1 0xC0 DUP4 ADD MLOAD PUSH1 0xC0 DUP6 ADD MSTORE PUSH1 0xE0 DUP4 ADD MLOAD PUSH1 0xE0 DUP6 ADD MSTORE PUSH2 0x100 DUP1 DUP5 ADD MLOAD PUSH2 0x44D2 DUP3 DUP8 ADD DUP3 ISZERO ISZERO SWAP1 MSTORE JUMP JUMPDEST POP POP PUSH2 0x120 DUP4 DUP2 ADD MLOAD ISZERO ISZERO SWAP1 DUP6 ADD MSTORE PUSH2 0x140 DUP1 DUP5 ADD MLOAD DUP1 ISZERO ISZERO DUP3 DUP8 ADD MSTORE PUSH2 0x1D88 JUMP JUMPDEST PUSH1 0x0 PUSH1 0x20 DUP1 DUP4 ADD DUP2 DUP5 MSTORE DUP1 DUP6 MLOAD DUP1 DUP4 MSTORE PUSH1 0x40 DUP7 ADD SWAP2 POP PUSH1 0x40 DUP2 PUSH1 0x5 SHL DUP8 ADD ADD SWAP3 POP DUP4 DUP8 ADD PUSH1 0x0 JUMPDEST DUP3 DUP2 LT ISZERO PUSH2 0x4549 JUMPI PUSH1 0x3F NOT DUP9 DUP7 SUB ADD DUP5 MSTORE PUSH2 0x4537 DUP6 DUP4 MLOAD PUSH2 0x443E JUMP JUMPDEST SWAP5 POP SWAP3 DUP6 ADD SWAP3 SWAP1 DUP6 ADD SWAP1 PUSH1 0x1 ADD PUSH2 0x451B JUMP JUMPDEST POP SWAP3 SWAP8 SWAP7 POP POP POP POP POP POP POP JUMP JUMPDEST DUP7 DUP2 MSTORE PUSH1 0x1 PUSH1 0x1 PUSH1 0xA0 SHL SUB DUP7 AND PUSH1 0x20 DUP3 ADD MSTORE PUSH1 0xC0 PUSH1 0x40 DUP3 ADD DUP2 SWAP1 MSTORE PUSH1 0x0 SWAP1 PUSH2 0x4580 SWAP1 DUP4 ADD DUP8 PUSH2 0x40C8 JUMP JUMPDEST DUP3 DUP2 SUB PUSH1 0x60 DUP5 ADD MSTORE PUSH2 0x4592 DUP2 DUP8 PUSH2 0x40C8 JUMP JUMPDEST PUSH1 0x80 DUP5 ADD SWAP6 SWAP1 SWAP6 MSTORE POP POP SWAP1 ISZERO ISZERO PUSH1 0xA0 SWAP1 SWAP2 ADD MSTORE SWAP5 SWAP4 POP POP POP POP JUMP JUMPDEST PUSH1 0x0 PUSH2 0x100 DUP3 MLOAD DUP5 MSTORE PUSH1 0x20 DUP4 ADD MLOAD PUSH1 0x20 DUP6 ADD MSTORE PUSH1 0x40 DUP4 ADD MLOAD PUSH2 0x45DA PUSH1 0x40 DUP7 ADD DUP3 PUSH1 0x1 PUSH1 0x1 PUSH1 0xA0 SHL SUB AND SWAP1 MSTORE JUMP JUMPDEST POP PUSH1 0x60 DUP4 ADD MLOAD DUP2 PUSH1 0x60 DUP7 ADD MSTORE PUSH2 0x45F2 DUP3 DUP7 ADD DUP3 PUSH2 0x40C8 JUMP JUMPDEST SWAP2 POP POP PUSH1 0x80 DUP4 ADD MLOAD DUP5 DUP3 SUB PUSH1 0x80 DUP7 ADD MSTORE PUSH2 0x460C DUP3 DUP3 PUSH2 0x40C8 JUMP JUMPDEST SWAP2 POP POP PUSH1 0xA0 DUP4 ADD MLOAD DUP5 DUP3 SUB PUSH1 0xA0 DUP7 ADD MSTORE PUSH2 0x4626 DUP3 DUP3 PUSH2 0x40C8 JUMP JUMPDEST SWAP2 POP POP PUSH1 0xC0 DUP4 ADD MLOAD DUP5 DUP3 SUB PUSH1 0xC0 DUP7 ADD MSTORE PUSH2 0x4640 DUP3 DUP3 PUSH2 0x40C8 JUMP JUMPDEST SWAP2 POP POP PUSH1 0xE0 DUP4 ADD MLOAD PUSH2 0x4656 PUSH1 0xE0 DUP7 ADD DUP3 ISZERO ISZERO SWAP1 MSTORE JUMP JUMPDEST POP SWAP4 SWAP3 POP POP POP JUMP JUMPDEST PUSH1 0x20 DUP2 MSTORE PUSH1 0x0 PUSH2 0x1CAD PUSH1 0x20 DUP4 ADD DUP5 PUSH2 0x45AD JUMP JUMPDEST PUSH1 0x0 DUP1 PUSH1 0x0 DUP1 PUSH1 0x80 DUP6 DUP8 SUB SLT ISZERO PUSH2 0x4687 JUMPI PUSH1 0x0 DUP1 REVERT JUMPDEST PUSH2 0x4690 DUP6 PUSH2 0x4198 JUMP JUMPDEST SWAP4 POP PUSH1 0x20 DUP6 ADD CALLDATALOAD PUSH8 0xFFFFFFFFFFFFFFFF DUP1 DUP3 GT ISZERO PUSH2 0x46AD JUMPI PUSH1 0x0 DUP1 REVERT JUMPDEST PUSH2 0x46B9 DUP9 DUP4 DUP10 ADD PUSH2 0x41E5 JUMP JUMPDEST SWAP5 POP PUSH1 0x40 DUP8 ADD CALLDATALOAD SWAP2 POP DUP1 DUP3 GT ISZERO PUSH2 0x46CF JUMPI PUSH1 0x0 DUP1 REVERT JUMPDEST PUSH2 0x46DB DUP9 DUP4 DUP10 ADD PUSH2 0x41E5 JUMP JUMPDEST SWAP4 POP PUSH1 0x60 DUP8 ADD CALLDATALOAD SWAP2 POP DUP1 DUP3 GT ISZERO PUSH2 0x46F1 JUMPI PUSH1 0x0 DUP1 REVERT JUMPDEST POP PUSH2 0x4360 DUP8 DUP3 DUP9 ADD PUSH2 0x41E5 JUMP JUMPDEST PUSH1 0x0 PUSH1 0x20 DUP1 DUP4 ADD DUP2 DUP5 MSTORE DUP1 DUP6 MLOAD DUP1 DUP4 MSTORE PUSH1 0x40 DUP7 ADD SWAP2 POP PUSH1 0x40 DUP2 PUSH1 0x5 SHL DUP8 ADD ADD SWAP3 POP DUP4 DUP8 ADD PUSH1 0x0 JUMPDEST DUP3 DUP2 LT ISZERO PUSH2 0x4549 JUMPI PUSH1 0x3F NOT DUP9 DUP7 SUB ADD DUP5 MSTORE PUSH2 0x4741 DUP6 DUP4 MLOAD PUSH2 0x436C JUMP JUMPDEST SWAP5 POP SWAP3 DUP6 ADD SWAP3 SWAP1 DUP6 ADD SWAP1 PUSH1 0x1 ADD PUSH2 0x4725 JUMP JUMPDEST PUSH1 0x20 DUP2 MSTORE PUSH1 0x0 PUSH2 0x1CAD PUSH1 0x20 DUP4 ADD DUP5 PUSH2 0x443E JUMP JUMPDEST PUSH1 0x0 DUP1 PUSH1 0x0 PUSH1 0x60 DUP5 DUP7 SUB SLT ISZERO PUSH2 0x477B JUMPI PUSH1 0x0 DUP1 REVERT JUMPDEST PUSH2 0x4784 DUP5 PUSH2 0x4198 JUMP JUMPDEST SWAP3 POP PUSH1 0x20 DUP5 ADD CALLDATALOAD PUSH8 0xFFFFFFFFFFFFFFFF DUP1 DUP3 GT ISZERO PUSH2 0x47A1 JUMPI PUSH1 0x0 DUP1 REVERT JUMPDEST PUSH2 0x47AD DUP8 DUP4 DUP9 ADD PUSH2 0x41E5 JUMP JUMPDEST SWAP4 POP PUSH1 0x40 DUP7 ADD CALLDATALOAD SWAP2 POP DUP1 DUP3 GT ISZERO PUSH2 0x47C3 JUMPI PUSH1 0x0 DUP1 REVERT JUMPDEST POP PUSH2 0x47D0 DUP7 DUP3 DUP8 ADD PUSH2 0x41E5 JUMP JUMPDEST SWAP2 POP POP SWAP3 POP SWAP3 POP SWAP3 JUMP JUMPDEST PUSH1 0x0 PUSH1 0x20 DUP1 DUP4 ADD DUP2 DUP5 MSTORE DUP1 DUP6 MLOAD DUP1 DUP4 MSTORE PUSH1 0x40 DUP7 ADD SWAP2 POP PUSH1 0x40 DUP2 PUSH1 0x5 SHL DUP8 ADD ADD SWAP3 POP DUP4 DUP8 ADD PUSH1 0x0 JUMPDEST DUP3 DUP2 LT ISZERO PUSH2 0x4549 JUMPI PUSH1 0x3F NOT DUP9 DUP7 SUB ADD DUP5 MSTORE PUSH2 0x481D DUP6 DUP4 MLOAD PUSH2 0x45AD JUMP JUMPDEST SWAP5 POP SWAP3 DUP6 ADD SWAP3 SWAP1 DUP6 ADD SWAP1 PUSH1 0x1 ADD PUSH2 0x4801 JUMP JUMPDEST PUSH1 0x20 DUP2 MSTORE DUP2 MLOAD PUSH1 0x20 DUP3 ADD MSTORE PUSH1 0x1 DUP1 PUSH1 0xA0 SHL SUB PUSH1 0x20 DUP4 ADD MLOAD AND PUSH1 0x40 DUP3 ADD MSTORE PUSH1 0x0 PUSH1 0x40 DUP4 ADD MLOAD PUSH1 0xC0 PUSH1 0x60 DUP5 ADD MSTORE PUSH2 0x4867 PUSH1 0xE0 DUP5 ADD DUP3 PUSH2 0x40C8 JUMP JUMPDEST SWAP1 POP PUSH1 0x60 DUP5 ADD MLOAD PUSH1 0x1F NOT DUP1 DUP6 DUP5 SUB ADD PUSH1 0x80 DUP7 ADD MSTORE PUSH2 0x4885 DUP4 DUP4 PUSH2 0x40C8 JUMP JUMPDEST SWAP3 POP PUSH1 0x80 DUP7 ADD MLOAD SWAP2 POP DUP1 DUP6 DUP5 SUB ADD PUSH1 0xA0 DUP7 ADD MSTORE POP PUSH2 0x48A3 DUP3 DUP3 PUSH2 0x40C8 JUMP JUMPDEST SWAP2 POP POP PUSH1 0xA0 DUP5 ADD MLOAD ISZERO ISZERO PUSH1 0xC0 DUP5 ADD MSTORE DUP1 SWAP2 POP POP SWAP3 SWAP2 POP POP JUMP JUMPDEST DUP9 DUP2 MSTORE PUSH1 0x20 DUP2 ADD DUP9 SWAP1 MSTORE PUSH1 0x1 PUSH1 0x1 PUSH1 0xA0 SHL SUB DUP8 AND PUSH1 0x40 DUP3 ADD MSTORE PUSH2 0x100 PUSH1 0x60 DUP3 ADD DUP2 SWAP1 MSTORE PUSH1 0x0 SWAP1 PUSH2 0x48EE DUP4 DUP3 ADD DUP10 PUSH2 0x40C8 JUMP JUMPDEST SWAP1 POP DUP3 DUP2 SUB PUSH1 0x80 DUP5 ADD MSTORE PUSH2 0x4902 DUP2 DUP9 PUSH2 0x40C8 JUMP JUMPDEST SWAP1 POP DUP3 DUP2 SUB PUSH1 0xA0 DUP5 ADD MSTORE PUSH2 0x4916 DUP2 DUP8 PUSH2 0x40C8 JUMP JUMPDEST SWAP1 POP DUP3 DUP2 SUB PUSH1 0xC0 DUP5 ADD MSTORE PUSH2 0x492A DUP2 DUP7 PUSH2 0x40C8 JUMP JUMPDEST SWAP2 POP POP DUP3 ISZERO ISZERO PUSH1 0xE0 DUP4 ADD MSTORE SWAP10 SWAP9 POP POP POP POP POP POP POP POP POP JUMP JUMPDEST PUSH1 0x0 DUP1 PUSH1 0x0 DUP1 PUSH1 0x0 PUSH1 0xA0 DUP7 DUP9 SUB SLT ISZERO PUSH2 0x495A JUMPI PUSH1 0x0 DUP1 REVERT JUMPDEST PUSH2 0x4963 DUP7 PUSH2 0x4198 JUMP JUMPDEST SWAP5 POP PUSH1 0x20 DUP7 ADD CALLDATALOAD PUSH8 0xFFFFFFFFFFFFFFFF DUP1 DUP3 GT ISZERO PUSH2 0x4980 JUMPI PUSH1 0x0 DUP1 REVERT JUMPDEST PUSH2 0x498C DUP10 DUP4 DUP11 ADD PUSH2 0x41E5 JUMP JUMPDEST SWAP6 POP PUSH1 0x40 DUP9 ADD CALLDATALOAD SWAP2 POP DUP1 DUP3 GT ISZERO PUSH2 0x49A2 JUMPI PUSH1 0x0 DUP1 REVERT JUMPDEST PUSH2 0x49AE DUP10 DUP4 DUP11 ADD PUSH2 0x41E5 JUMP JUMPDEST SWAP5 POP PUSH1 0x60 DUP9 ADD CALLDATALOAD SWAP2 POP DUP1 DUP3 GT ISZERO PUSH2 0x49C4 JUMPI PUSH1 0x0 DUP1 REVERT JUMPDEST PUSH2 0x49D0 DUP10 DUP4 DUP11 ADD PUSH2 0x41E5 JUMP JUMPDEST SWAP4 POP PUSH1 0x80 DUP9 ADD CALLDATALOAD SWAP2 POP DUP1 DUP3 GT ISZERO PUSH2 0x49E6 JUMPI PUSH1 0x0 DUP1 REVERT JUMPDEST POP PUSH2 0x49F3 DUP9 DUP3 DUP10 ADD PUSH2 0x41E5 JUMP JUMPDEST SWAP2 POP POP SWAP3 SWAP6 POP SWAP3 SWAP6 SWAP1 SWAP4 POP JUMP JUMPDEST DUP8 DUP2 MSTORE DUP7 PUSH1 0x20 DUP3 ADD MSTORE PUSH1 0x1 DUP1 PUSH1 0xA0 SHL SUB DUP7 AND PUSH1 0x40 DUP3 ADD MSTORE DUP5 PUSH1 0x60 DUP3 ADD MSTORE PUSH1 0xE0 PUSH1 0x80 DUP3 ADD MSTORE PUSH1 0x0 PUSH2 0x4A33 PUSH1 0xE0 DUP4 ADD DUP7 PUSH2 0x40C8 JUMP JUMPDEST SWAP4 ISZERO ISZERO PUSH1 0xA0 DUP4 ADD MSTORE POP SWAP1 ISZERO ISZERO PUSH1 0xC0 SWAP1 SWAP2 ADD MSTORE SWAP6 SWAP5 POP POP POP POP POP JUMP JUMPDEST DUP7 DUP2 MSTORE PUSH1 0x1 PUSH1 0x1 PUSH1 0xA0 SHL SUB DUP7 AND PUSH1 0x20 DUP3 ADD MSTORE PUSH1 0xC0 PUSH1 0x40 DUP3 ADD DUP2 SWAP1 MSTORE PUSH1 0x0 SWAP1 PUSH2 0x4A78 SWAP1 DUP4 ADD DUP8 PUSH2 0x40C8 JUMP JUMPDEST DUP3 DUP2 SUB PUSH1 0x60 DUP5 ADD MSTORE PUSH2 0x4A8A DUP2 DUP8 PUSH2 0x40C8 JUMP JUMPDEST SWAP1 POP DUP3 DUP2 SUB PUSH1 0x80 DUP5 ADD MSTORE PUSH2 0x4A9E DUP2 DUP7 PUSH2 0x40C8 JUMP JUMPDEST SWAP2 POP POP DUP3 ISZERO ISZERO PUSH1 0xA0 DUP4 ADD MSTORE SWAP8 SWAP7 POP POP POP POP POP POP POP JUMP JUMPDEST PUSH1 0x0 DUP1 PUSH1 0x0 DUP1 PUSH1 0x80 DUP6 DUP8 SUB SLT ISZERO PUSH2 0x4ACA JUMPI PUSH1 0x0 DUP1 REVERT JUMPDEST DUP5 CALLDATALOAD SWAP4 POP PUSH1 0x20 DUP6 ADD CALLDATALOAD SWAP3 POP PUSH2 0x4AE1 PUSH1 0x40 DUP7 ADD PUSH2 0x4198 JUMP JUMPDEST SWAP2 POP PUSH2 0x4AEF PUSH1 0x60 DUP7 ADD PUSH2 0x4198 JUMP JUMPDEST SWAP1 POP SWAP3 SWAP6 SWAP2 SWAP5 POP SWAP3 POP JUMP JUMPDEST PUSH1 0x20 DUP2 MSTORE DUP2 MLOAD PUSH1 0x20 DUP3 ADD MSTORE PUSH1 0x1 DUP1 PUSH1 0xA0 SHL SUB PUSH1 0x20 DUP4 ADD MLOAD AND PUSH1 0x40 DUP3 ADD MSTORE PUSH1 0x0 PUSH1 0x40 DUP4 ADD MLOAD PUSH1 0xC0 PUSH1 0x60 DUP5 ADD MSTORE PUSH2 0x4B32 PUSH1 0xE0 DUP5 ADD DUP3 PUSH2 0x40C8 JUMP JUMPDEST SWAP1 POP PUSH1 0x60 DUP5 ADD MLOAD PUSH1 0x1F NOT DUP5 DUP4 SUB ADD PUSH1 0x80 DUP6 ADD MSTORE PUSH2 0x4B4F DUP3 DUP3 PUSH2 0x40C8 JUMP JUMPDEST SWAP2 POP POP PUSH1 0x80 DUP5 ADD MLOAD PUSH1 0xA0 DUP5 ADD MSTORE PUSH1 0xA0 DUP5 ADD MLOAD ISZERO ISZERO PUSH1 0xC0 DUP5 ADD MSTORE DUP1 SWAP2 POP POP SWAP3 SWAP2 POP POP JUMP JUMPDEST PUSH1 0x0 DUP1 PUSH1 0x0 PUSH1 0x60 DUP5 DUP7 SUB SLT ISZERO PUSH2 0x4B87 JUMPI PUSH1 0x0 DUP1 REVERT JUMPDEST DUP4 CALLDATALOAD SWAP3 POP PUSH1 0x20 DUP5 ADD CALLDATALOAD SWAP2 POP PUSH2 0x4B9E PUSH1 0x40 DUP6 ADD PUSH2 0x4198 JUMP JUMPDEST SWAP1 POP SWAP3 POP SWAP3 POP SWAP3 JUMP JUMPDEST PUSH1 0x1 DUP2 DUP2 SHR SWAP1 DUP3 AND DUP1 PUSH2 0x4BBB JUMPI PUSH1 0x7F DUP3 AND SWAP2 POP JUMPDEST PUSH1 0x20 DUP3 LT DUP2 SUB PUSH2 0x4BDB JUMPI PUSH4 0x4E487B71 PUSH1 0xE0 SHL PUSH1 0x0 MSTORE PUSH1 0x22 PUSH1 0x4 MSTORE PUSH1 0x24 PUSH1 0x0 REVERT JUMPDEST POP SWAP2 SWAP1 POP JUMP JUMPDEST PUSH4 0x4E487B71 PUSH1 0xE0 SHL PUSH1 0x0 MSTORE PUSH1 0x11 PUSH1 0x4 MSTORE PUSH1 0x24 PUSH1 0x0 REVERT JUMPDEST PUSH1 0x0 DUP3 NOT DUP3 GT ISZERO PUSH2 0x4C0A JUMPI PUSH2 0x4C0A PUSH2 0x4BE1 JUMP JUMPDEST POP ADD SWAP1 JUMP JUMPDEST PUSH1 0x0 PUSH1 0x1 DUP3 ADD PUSH2 0x4C21 JUMPI PUSH2 0x4C21 PUSH2 0x4BE1 JUMP JUMPDEST POP PUSH1 0x1 ADD SWAP1 JUMP JUMPDEST PUSH4 0x4E487B71 PUSH1 0xE0 SHL PUSH1 0x0 MSTORE PUSH1 0x32 PUSH1 0x4 MSTORE PUSH1 0x24 PUSH1 0x0 REVERT JUMPDEST PUSH1 0x0 DUP2 PUSH1 0x0 NOT DIV DUP4 GT DUP3 ISZERO ISZERO AND ISZERO PUSH2 0x4C58 JUMPI PUSH2 0x4C58 PUSH2 0x4BE1 JUMP JUMPDEST POP MUL SWAP1 JUMP JUMPDEST PUSH1 0x0 DUP3 PUSH2 0x4C7A JUMPI PUSH4 0x4E487B71 PUSH1 0xE0 SHL PUSH1 0x0 MSTORE PUSH1 0x12 PUSH1 0x4 MSTORE PUSH1 0x24 PUSH1 0x0 REVERT JUMPDEST POP DIV SWAP1 JUMP JUMPDEST PUSH1 0x0 PUSH1 0x20 DUP3 DUP5 SUB SLT ISZERO PUSH2 0x4C91 JUMPI PUSH1 0x0 DUP1 REVERT JUMPDEST DUP2 MLOAD DUP1 ISZERO ISZERO DUP2 EQ PUSH2 0x1CAD JUMPI PUSH1 0x0 DUP1 REVERT INVALID LOG2 PUSH5 0x6970667358 0x22 SLT KECCAK256 0xF SLT 0xB0 0xD2 LOG4 DELEGATECALL SWAP10 0x1F 0xE1 PUSH25 0xE7547AA11A91294844FF6B9599BF14D4786949BC037264736F PUSH13 0x634300080D0033000000000000 "
		},
		"gasEstimates": {
			"creation": {
				"codeDepositCost": "3934200",
				"executionCost": "52948",
				"totalCost": "3987148"
			},
			"external": {
				"allApplicants(address)": "infinite",
				"allApplications(uint256)": "infinite",
				"allDonations(uint256)": "infinite",
				"allDonors(address)": "infinite",
				"allGrants(uint256)": "17557",
				"allRewards(address,uint256)": "15553",
				"allVoteCountsOfApplicantsOfDonation(uint256,address)": "2751",
				"allVoters(address)": "infinite",
				"allVotes(uint256)": "13272",
				"applicationsToDonations(uint256,address)": "2697",
				"approveApplication(uint256)": "infinite",
				"checkIfApplicantExists(address)": "2694",
				"checkIfApplicantHasAlreadyMadeAnApplicationToDonation(uint256,address)": "2743",
				"checkIfDonorExists(address)": "2666",
				"checkIfVoterExists(address)": "2689",
				"checkIfVoterHasAlreadyMadeAVoteInDonation(uint256,address)": "2765",
				"createApplicantAccount(address,string,string,string,string)": "infinite",
				"createDonation(uint256,address,string,string,uint256,uint256,uint256)": "infinite",
				"createDonorAccount(address,string,string)": "infinite",
				"createVoterAccount(address,string,string,string)": "infinite",
				"currentApplicantId()": "2406",
				"currentApplicationId()": "2408",
				"currentDonationId()": "2428",
				"currentDonorId()": "2405",
				"currentGrantId()": "2364",
				"currentRewardId()": "2385",
				"currentVoteId()": "2385",
				"currentVoterId()": "2406",
				"getAllApplicantsOfDonation(uint256)": "infinite",
				"getAllApplicationsOfDonation(uint256)": "infinite",
				"getAllDonations()": "infinite",
				"getAllDonationsCreatedByDonor(address)": "infinite",
				"getApplicantByWalletAddress(address)": "infinite",
				"getApplicantOfDonation(uint256)": "infinite",
				"getApplicationById(uint256)": "infinite",
				"getApplicationOfApplicantForDonation(uint256,uint256,address)": "infinite",
				"getApplicationsOfApplicant(address)": "infinite",
				"getDonationById(uint256)": "infinite",
				"getDonorByWalletAddress(address)": "infinite",
				"getGranteeOfDonation(uint256)": "infinite",
				"getPotentialAmountOfGrantOfDonationInWei(uint256)": "infinite",
				"getPotentialAmountOfRewardOfDonationInWei(uint256)": "infinite",
				"getTotalAmountOfGrantsGivenToApplicantInWei(address)": "infinite",
				"getTotalAmountOfRewardsGivenToVoterInWei(uint256,address)": "infinite",
				"getTotalAmountOfVotesForDonation(uint256)": "2528",
				"getTotalAmountOfVotesMadeByVoter(address)": "2629",
				"getVoteCountOfApplicantOfDonation(uint256,address)": "2708",
				"getVoteOfVoterForDonation(uint256,address)": "infinite",
				"getVoterByWalletAddress(address)": "infinite",
				"getWinningApplicantOfDonation(uint256)": "infinite",
				"granteesOfDonations(uint256)": "2590",
				"makeAVote(uint256,uint256,address,address)": "infinite",
				"makeApplication(uint256,uint256,address,string)": "infinite",
				"numbersOfApplicationsForDonations(uint256)": "2550",
				"numbersOfApplicationsOfApplicants(address)": "2587",
				"numbersOfDonationsCreatedByDonors(address)": "2631",
				"numbersOfVotesForDonations(uint256)": "2529",
				"numbersOfVotesOfVoters(address)": "2652",
				"votingInDonation(uint256,address)": "2764"
			},
			"internal": {
				"closeDonation(uint256)": "infinite",
				"sendGrantToWinningApplicant(uint256,uint256)": "infinite",
				"sendRewardToVoter(uint256,address)": "infinite"
			}
		},
		"methodIdentifiers": {
			"allApplicants(address)": "ad9adead",
			"allApplications(uint256)": "b2514292",
			"allDonations(uint256)": "06c49713",
			"allDonors(address)": "4d148f40",
			"allGrants(uint256)": "621d571d",
			"allRewards(address,uint256)": "3755c2b2",
			"allVoteCountsOfApplicantsOfDonation(uint256,address)": "6e93e563",
			"allVoters(address)": "c3703048",
			"allVotes(uint256)": "de63f432",
			"applicationsToDonations(uint256,address)": "6861f01f",
			"approveApplication(uint256)": "213fbf1b",
			"checkIfApplicantExists(address)": "d9ad496d",
			"checkIfApplicantHasAlreadyMadeAnApplicationToDonation(uint256,address)": "431b710a",
			"checkIfDonorExists(address)": "baf3f49e",
			"checkIfVoterExists(address)": "b0344580",
			"checkIfVoterHasAlreadyMadeAVoteInDonation(uint256,address)": "6a098823",
			"createApplicantAccount(address,string,string,string,string)": "b0eebd18",
			"createDonation(uint256,address,string,string,uint256,uint256,uint256)": "0de0350f",
			"createDonorAccount(address,string,string)": "7f868a8e",
			"createVoterAccount(address,string,string,string)": "78c38f3a",
			"currentApplicantId()": "d39f622a",
			"currentApplicationId()": "8e1afc95",
			"currentDonationId()": "bd7863fd",
			"currentDonorId()": "ed04470c",
			"currentGrantId()": "5bf35e66",
			"currentRewardId()": "a4bfaddf",
			"currentVoteId()": "9100b5dd",
			"currentVoterId()": "e1ff3fb7",
			"getAllApplicantsOfDonation(uint256)": "904716f6",
			"getAllApplicationsOfDonation(uint256)": "79382f00",
			"getAllDonations()": "38a59a07",
			"getAllDonationsCreatedByDonor(address)": "fae0f23f",
			"getApplicantByWalletAddress(address)": "60cdd94a",
			"getApplicantOfDonation(uint256)": "a064dda2",
			"getApplicationById(uint256)": "1d4d3ba4",
			"getApplicationOfApplicantForDonation(uint256,uint256,address)": "e9da1029",
			"getApplicationsOfApplicant(address)": "a382148a",
			"getDonationById(uint256)": "7ddc914a",
			"getDonorByWalletAddress(address)": "e35a8441",
			"getGranteeOfDonation(uint256)": "79f19780",
			"getPotentialAmountOfGrantOfDonationInWei(uint256)": "852c8ea7",
			"getPotentialAmountOfRewardOfDonationInWei(uint256)": "78c5ab69",
			"getTotalAmountOfGrantsGivenToApplicantInWei(address)": "d243b249",
			"getTotalAmountOfRewardsGivenToVoterInWei(uint256,address)": "4217d66f",
			"getTotalAmountOfVotesForDonation(uint256)": "69db2db3",
			"getTotalAmountOfVotesMadeByVoter(address)": "072df68a",
			"getVoteCountOfApplicantOfDonation(uint256,address)": "cca050a1",
			"getVoteOfVoterForDonation(uint256,address)": "78d61865",
			"getVoterByWalletAddress(address)": "9d30dc61",
			"getWinningApplicantOfDonation(uint256)": "e926ca45",
			"granteesOfDonations(uint256)": "3a6a44e2",
			"makeAVote(uint256,uint256,address,address)": "db8ac181",
			"makeApplication(uint256,uint256,address,string)": "0df63082",
			"numbersOfApplicationsForDonations(uint256)": "4464ce95",
			"numbersOfApplicationsOfApplicants(address)": "c1df9e90",
			"numbersOfDonationsCreatedByDonors(address)": "c64d0d85",
			"numbersOfVotesForDonations(uint256)": "8c056233",
			"numbersOfVotesOfVoters(address)": "818d5254",
			"votingInDonation(uint256,address)": "2f8e211e"
		}
	},
	"abi": [
		{
			"inputs": [
				{
					"internalType": "address",
					"name": "",
					"type": "address"
				}
			],
			"name": "allApplicants",
			"outputs": [
				{
					"internalType": "uint256",
					"name": "id",
					"type": "uint256"
				},
				{
					"internalType": "uint256",
					"name": "applicantId",
					"type": "uint256"
				},
				{
					"internalType": "address",
					"name": "walletAddress",
					"type": "address"
				},
				{
					"internalType": "string",
					"name": "adjective",
					"type": "string"
				},
				{
					"internalType": "string",
					"name": "gender",
					"type": "string"
				},
				{
					"internalType": "string",
					"name": "countryOfResidence",
					"type": "string"
				},
				{
					"internalType": "string",
					"name": "ageBracket",
					"type": "string"
				},
				{
					"internalType": "bool",
					"name": "isNotBlank",
					"type": "bool"
				}
			],
			"stateMutability": "view",
			"type": "function"
		},
		{
			"inputs": [
				{
					"internalType": "uint256",
					"name": "",
					"type": "uint256"
				}
			],
			"name": "allApplications",
			"outputs": [
				{
					"internalType": "uint256",
					"name": "id",
					"type": "uint256"
				},
				{
					"internalType": "uint256",
					"name": "applicantId",
					"type": "uint256"
				},
				{
					"internalType": "address",
					"name": "applicantWalletAddress",
					"type": "address"
				},
				{
					"internalType": "uint256",
					"name": "donationId",
					"type": "uint256"
				},
				{
					"internalType": "string",
					"name": "pitchStatement",
					"type": "string"
				},
				{
					"internalType": "bool",
					"name": "isApproved",
					"type": "bool"
				},
				{
					"internalType": "bool",
					"name": "isNotBlank",
					"type": "bool"
				}
			],
			"stateMutability": "view",
			"type": "function"
		},
		{
			"inputs": [
				{
					"internalType": "uint256",
					"name": "",
					"type": "uint256"
				}
			],
			"name": "allDonations",
			"outputs": [
				{
					"internalType": "uint256",
					"name": "id",
					"type": "uint256"
				},
				{
					"internalType": "uint256",
					"name": "donorId",
					"type": "uint256"
				},
				{
					"internalType": "address",
					"name": "donorWalletAddress",
					"type": "address"
				},
				{
					"internalType": "string",
					"name": "topic",
					"type": "string"
				},
				{
					"internalType": "string",
					"name": "industry",
					"type": "string"
				},
				{
					"internalType": "uint256",
					"name": "maxNumberOfApplications",
					"type": "uint256"
				},
				{
					"internalType": "uint256",
					"name": "maxNumberOfVoters",
					"type": "uint256"
				},
				{
					"internalType": "uint256",
					"name": "amountDonatedInWei",
					"type": "uint256"
				},
				{
					"internalType": "bool",
					"name": "applicationIsClosed",
					"type": "bool"
				},
				{
					"internalType": "bool",
					"name": "votingIsClosed",
					"type": "bool"
				},
				{
					"internalType": "bool",
					"name": "isNotBlank",
					"type": "bool"
				}
			],
			"stateMutability": "view",
			"type": "function"
		},
		{
			"inputs": [
				{
					"internalType": "address",
					"name": "",
					"type": "address"
				}
			],
			"name": "allDonors",
			"outputs": [
				{
					"internalType": "uint256",
					"name": "id",
					"type": "uint256"
				},
				{
					"internalType": "address",
					"name": "walletAddress",
					"type": "address"
				},
				{
					"internalType": "string",
					"name": "adjective",
					"type": "string"
				},
				{
					"internalType": "string",
					"name": "mainIndustryOfInterest",
					"type": "string"
				},
				{
					"internalType": "uint256",
					"name": "numberOfDonationsCreated",
					"type": "uint256"
				},
				{
					"internalType": "bool",
					"name": "isNotBlank",
					"type": "bool"
				}
			],
			"stateMutability": "view",
			"type": "function"
		},
		{
			"inputs": [
				{
					"internalType": "uint256",
					"name": "",
					"type": "uint256"
				}
			],
			"name": "allGrants",
			"outputs": [
				{
					"internalType": "uint256",
					"name": "id",
					"type": "uint256"
				},
				{
					"internalType": "uint256",
					"name": "donationId",
					"type": "uint256"
				},
				{
					"internalType": "uint256",
					"name": "applicationId",
					"type": "uint256"
				},
				{
					"internalType": "uint256",
					"name": "applicantId",
					"type": "uint256"
				},
				{
					"internalType": "address",
					"name": "applicantWalletAddress",
					"type": "address"
				},
				{
					"internalType": "uint256",
					"name": "amountGrantedInWei",
					"type": "uint256"
				},
				{
					"internalType": "bool",
					"name": "isNotBlank",
					"type": "bool"
				}
			],
			"stateMutability": "view",
			"type": "function"
		},
		{
			"inputs": [
				{
					"internalType": "address",
					"name": "",
					"type": "address"
				},
				{
					"internalType": "uint256",
					"name": "",
					"type": "uint256"
				}
			],
			"name": "allRewards",
			"outputs": [
				{
					"internalType": "uint256",
					"name": "id",
					"type": "uint256"
				},
				{
					"internalType": "uint256",
					"name": "voterId",
					"type": "uint256"
				},
				{
					"internalType": "address",
					"name": "voterWalletAddress",
					"type": "address"
				},
				{
					"internalType": "uint256",
					"name": "donationId",
					"type": "uint256"
				},
				{
					"internalType": "uint256",
					"name": "amountRewardedInWei",
					"type": "uint256"
				},
				{
					"internalType": "bool",
					"name": "isNotBlank",
					"type": "bool"
				}
			],
			"stateMutability": "view",
			"type": "function"
		},
		{
			"inputs": [
				{
					"internalType": "uint256",
					"name": "",
					"type": "uint256"
				},
				{
					"internalType": "address",
					"name": "",
					"type": "address"
				}
			],
			"name": "allVoteCountsOfApplicantsOfDonation",
			"outputs": [
				{
					"internalType": "uint256",
					"name": "",
					"type": "uint256"
				}
			],
			"stateMutability": "view",
			"type": "function"
		},
		{
			"inputs": [
				{
					"internalType": "address",
					"name": "",
					"type": "address"
				}
			],
			"name": "allVoters",
			"outputs": [
				{
					"internalType": "uint256",
					"name": "id",
					"type": "uint256"
				},
				{
					"internalType": "address",
					"name": "walletAddress",
					"type": "address"
				},
				{
					"internalType": "string",
					"name": "adjective",
					"type": "string"
				},
				{
					"internalType": "string",
					"name": "gender",
					"type": "string"
				},
				{
					"internalType": "string",
					"name": "countryOfResidence",
					"type": "string"
				},
				{
					"internalType": "bool",
					"name": "isNotBlank",
					"type": "bool"
				}
			],
			"stateMutability": "view",
			"type": "function"
		},
		{
			"inputs": [
				{
					"internalType": "uint256",
					"name": "",
					"type": "uint256"
				}
			],
			"name": "allVotes",
			"outputs": [
				{
					"internalType": "uint256",
					"name": "id",
					"type": "uint256"
				},
				{
					"internalType": "uint256",
					"name": "voterId",
					"type": "uint256"
				},
				{
					"internalType": "uint256",
					"name": "applicantId",
					"type": "uint256"
				},
				{
					"internalType": "uint256",
					"name": "donationId",
					"type": "uint256"
				},
				{
					"internalType": "bool",
					"name": "isRewarded",
					"type": "bool"
				},
				{
					"internalType": "bool",
					"name": "isNotBlank",
					"type": "bool"
				}
			],
			"stateMutability": "view",
			"type": "function"
		},
		{
			"inputs": [
				{
					"internalType": "uint256",
					"name": "",
					"type": "uint256"
				},
				{
					"internalType": "address",
					"name": "",
					"type": "address"
				}
			],
			"name": "applicationsToDonations",
			"outputs": [
				{
					"internalType": "bool",
					"name": "",
					"type": "bool"
				}
			],
			"stateMutability": "view",
			"type": "function"
		},
		{
			"inputs": [
				{
					"internalType": "uint256",
					"name": "_applicationId",
					"type": "uint256"
				}
			],
			"name": "approveApplication",
			"outputs": [],
			"stateMutability": "nonpayable",
			"type": "function"
		},
		{
			"inputs": [
				{
					"internalType": "address",
					"name": "_applicantWalletAddress",
					"type": "address"
				}
			],
			"name": "checkIfApplicantExists",
			"outputs": [
				{
					"internalType": "bool",
					"name": "",
					"type": "bool"
				}
			],
			"stateMutability": "view",
			"type": "function"
		},
		{
			"inputs": [
				{
					"internalType": "uint256",
					"name": "_donationId",
					"type": "uint256"
				},
				{
					"internalType": "address",
					"name": "_applicantWalletAddress",
					"type": "address"
				}
			],
			"name": "checkIfApplicantHasAlreadyMadeAnApplicationToDonation",
			"outputs": [
				{
					"internalType": "bool",
					"name": "",
					"type": "bool"
				}
			],
			"stateMutability": "view",
			"type": "function"
		},
		{
			"inputs": [
				{
					"internalType": "address",
					"name": "_donorWalletAddress",
					"type": "address"
				}
			],
			"name": "checkIfDonorExists",
			"outputs": [
				{
					"internalType": "bool",
					"name": "",
					"type": "bool"
				}
			],
			"stateMutability": "view",
			"type": "function"
		},
		{
			"inputs": [
				{
					"internalType": "address",
					"name": "_voterWalletAddress",
					"type": "address"
				}
			],
			"name": "checkIfVoterExists",
			"outputs": [
				{
					"internalType": "bool",
					"name": "",
					"type": "bool"
				}
			],
			"stateMutability": "view",
			"type": "function"
		},
		{
			"inputs": [
				{
					"internalType": "uint256",
					"name": "_donationId",
					"type": "uint256"
				},
				{
					"internalType": "address",
					"name": "_voterWalletAddress",
					"type": "address"
				}
			],
			"name": "checkIfVoterHasAlreadyMadeAVoteInDonation",
			"outputs": [
				{
					"internalType": "bool",
					"name": "",
					"type": "bool"
				}
			],
			"stateMutability": "view",
			"type": "function"
		},
		{
			"inputs": [
				{
					"internalType": "address",
					"name": "_applicantWalletAddress",
					"type": "address"
				},
				{
					"internalType": "string",
					"name": "_adjective",
					"type": "string"
				},
				{
					"internalType": "string",
					"name": "_gender",
					"type": "string"
				},
				{
					"internalType": "string",
					"name": "_countryOfResidence",
					"type": "string"
				},
				{
					"internalType": "string",
					"name": "_ageBracket",
					"type": "string"
				}
			],
			"name": "createApplicantAccount",
			"outputs": [],
			"stateMutability": "nonpayable",
			"type": "function"
		},
		{
			"inputs": [
				{
					"internalType": "uint256",
					"name": "_donorId",
					"type": "uint256"
				},
				{
					"internalType": "address",
					"name": "_donorWalletAddress",
					"type": "address"
				},
				{
					"internalType": "string",
					"name": "_topic",
					"type": "string"
				},
				{
					"internalType": "string",
					"name": "_industry",
					"type": "string"
				},
				{
					"internalType": "uint256",
					"name": "_maxNumberOfApplications",
					"type": "uint256"
				},
				{
					"internalType": "uint256",
					"name": "_maxNumberOfVoters",
					"type": "uint256"
				},
				{
					"internalType": "uint256",
					"name": "_amountDonatedInWei",
					"type": "uint256"
				}
			],
			"name": "createDonation",
			"outputs": [],
			"stateMutability": "nonpayable",
			"type": "function"
		},
		{
			"inputs": [
				{
					"internalType": "address",
					"name": "_donorWalletAddress",
					"type": "address"
				},
				{
					"internalType": "string",
					"name": "_adjective",
					"type": "string"
				},
				{
					"internalType": "string",
					"name": "_mainIndustryOfInterest",
					"type": "string"
				}
			],
			"name": "createDonorAccount",
			"outputs": [],
			"stateMutability": "nonpayable",
			"type": "function"
		},
		{
			"inputs": [
				{
					"internalType": "address",
					"name": "_voterWalletAddress",
					"type": "address"
				},
				{
					"internalType": "string",
					"name": "_adjective",
					"type": "string"
				},
				{
					"internalType": "string",
					"name": "_gender",
					"type": "string"
				},
				{
					"internalType": "string",
					"name": "_countryOfResidence",
					"type": "string"
				}
			],
			"name": "createVoterAccount",
			"outputs": [],
			"stateMutability": "nonpayable",
			"type": "function"
		},
		{
			"inputs": [],
			"name": "currentApplicantId",
			"outputs": [
				{
					"internalType": "uint256",
					"name": "",
					"type": "uint256"
				}
			],
			"stateMutability": "view",
			"type": "function"
		},
		{
			"inputs": [],
			"name": "currentApplicationId",
			"outputs": [
				{
					"internalType": "uint256",
					"name": "",
					"type": "uint256"
				}
			],
			"stateMutability": "view",
			"type": "function"
		},
		{
			"inputs": [],
			"name": "currentDonationId",
			"outputs": [
				{
					"internalType": "uint256",
					"name": "",
					"type": "uint256"
				}
			],
			"stateMutability": "view",
			"type": "function"
		},
		{
			"inputs": [],
			"name": "currentDonorId",
			"outputs": [
				{
					"internalType": "uint256",
					"name": "",
					"type": "uint256"
				}
			],
			"stateMutability": "view",
			"type": "function"
		},
		{
			"inputs": [],
			"name": "currentGrantId",
			"outputs": [
				{
					"internalType": "uint256",
					"name": "",
					"type": "uint256"
				}
			],
			"stateMutability": "view",
			"type": "function"
		},
		{
			"inputs": [],
			"name": "currentRewardId",
			"outputs": [
				{
					"internalType": "uint256",
					"name": "",
					"type": "uint256"
				}
			],
			"stateMutability": "view",
			"type": "function"
		},
		{
			"inputs": [],
			"name": "currentVoteId",
			"outputs": [
				{
					"internalType": "uint256",
					"name": "",
					"type": "uint256"
				}
			],
			"stateMutability": "view",
			"type": "function"
		},
		{
			"inputs": [],
			"name": "currentVoterId",
			"outputs": [
				{
					"internalType": "uint256",
					"name": "",
					"type": "uint256"
				}
			],
			"stateMutability": "view",
			"type": "function"
		},
		{
			"inputs": [
				{
					"internalType": "uint256",
					"name": "_donationId",
					"type": "uint256"
				}
			],
			"name": "getAllApplicantsOfDonation",
			"outputs": [
				{
					"components": [
						{
							"internalType": "uint256",
							"name": "id",
							"type": "uint256"
						},
						{
							"internalType": "uint256",
							"name": "applicantId",
							"type": "uint256"
						},
						{
							"internalType": "address",
							"name": "walletAddress",
							"type": "address"
						},
						{
							"internalType": "string",
							"name": "adjective",
							"type": "string"
						},
						{
							"internalType": "string",
							"name": "gender",
							"type": "string"
						},
						{
							"internalType": "string",
							"name": "countryOfResidence",
							"type": "string"
						},
						{
							"internalType": "string",
							"name": "ageBracket",
							"type": "string"
						},
						{
							"internalType": "bool",
							"name": "isNotBlank",
							"type": "bool"
						}
					],
					"internalType": "struct Applicant[]",
					"name": "",
					"type": "tuple[]"
				}
			],
			"stateMutability": "view",
			"type": "function"
		},
		{
			"inputs": [
				{
					"internalType": "uint256",
					"name": "_donationId",
					"type": "uint256"
				}
			],
			"name": "getAllApplicationsOfDonation",
			"outputs": [
				{
					"components": [
						{
							"internalType": "uint256",
							"name": "id",
							"type": "uint256"
						},
						{
							"internalType": "uint256",
							"name": "applicantId",
							"type": "uint256"
						},
						{
							"internalType": "address",
							"name": "applicantWalletAddress",
							"type": "address"
						},
						{
							"internalType": "uint256",
							"name": "donationId",
							"type": "uint256"
						},
						{
							"internalType": "string",
							"name": "pitchStatement",
							"type": "string"
						},
						{
							"internalType": "bool",
							"name": "isApproved",
							"type": "bool"
						},
						{
							"internalType": "bool",
							"name": "isNotBlank",
							"type": "bool"
						}
					],
					"internalType": "struct Application[]",
					"name": "",
					"type": "tuple[]"
				}
			],
			"stateMutability": "view",
			"type": "function"
		},
		{
			"inputs": [],
			"name": "getAllDonations",
			"outputs": [
				{
					"components": [
						{
							"internalType": "uint256",
							"name": "id",
							"type": "uint256"
						},
						{
							"internalType": "uint256",
							"name": "donorId",
							"type": "uint256"
						},
						{
							"internalType": "address",
							"name": "donorWalletAddress",
							"type": "address"
						},
						{
							"internalType": "string",
							"name": "topic",
							"type": "string"
						},
						{
							"internalType": "string",
							"name": "industry",
							"type": "string"
						},
						{
							"internalType": "uint256",
							"name": "maxNumberOfApplications",
							"type": "uint256"
						},
						{
							"internalType": "uint256",
							"name": "maxNumberOfVoters",
							"type": "uint256"
						},
						{
							"internalType": "uint256",
							"name": "amountDonatedInWei",
							"type": "uint256"
						},
						{
							"internalType": "bool",
							"name": "applicationIsClosed",
							"type": "bool"
						},
						{
							"internalType": "bool",
							"name": "votingIsClosed",
							"type": "bool"
						},
						{
							"internalType": "bool",
							"name": "isNotBlank",
							"type": "bool"
						}
					],
					"internalType": "struct Donation[]",
					"name": "",
					"type": "tuple[]"
				}
			],
			"stateMutability": "view",
			"type": "function"
		},
		{
			"inputs": [
				{
					"internalType": "address",
					"name": "_donorWalletAddress",
					"type": "address"
				}
			],
			"name": "getAllDonationsCreatedByDonor",
			"outputs": [
				{
					"components": [
						{
							"internalType": "uint256",
							"name": "id",
							"type": "uint256"
						},
						{
							"internalType": "uint256",
							"name": "donorId",
							"type": "uint256"
						},
						{
							"internalType": "address",
							"name": "donorWalletAddress",
							"type": "address"
						},
						{
							"internalType": "string",
							"name": "topic",
							"type": "string"
						},
						{
							"internalType": "string",
							"name": "industry",
							"type": "string"
						},
						{
							"internalType": "uint256",
							"name": "maxNumberOfApplications",
							"type": "uint256"
						},
						{
							"internalType": "uint256",
							"name": "maxNumberOfVoters",
							"type": "uint256"
						},
						{
							"internalType": "uint256",
							"name": "amountDonatedInWei",
							"type": "uint256"
						},
						{
							"internalType": "bool",
							"name": "applicationIsClosed",
							"type": "bool"
						},
						{
							"internalType": "bool",
							"name": "votingIsClosed",
							"type": "bool"
						},
						{
							"internalType": "bool",
							"name": "isNotBlank",
							"type": "bool"
						}
					],
					"internalType": "struct Donation[]",
					"name": "",
					"type": "tuple[]"
				}
			],
			"stateMutability": "view",
			"type": "function"
		},
		{
			"inputs": [
				{
					"internalType": "address",
					"name": "_applicantWalletAddress",
					"type": "address"
				}
			],
			"name": "getApplicantByWalletAddress",
			"outputs": [
				{
					"components": [
						{
							"internalType": "uint256",
							"name": "id",
							"type": "uint256"
						},
						{
							"internalType": "uint256",
							"name": "applicantId",
							"type": "uint256"
						},
						{
							"internalType": "address",
							"name": "walletAddress",
							"type": "address"
						},
						{
							"internalType": "string",
							"name": "adjective",
							"type": "string"
						},
						{
							"internalType": "string",
							"name": "gender",
							"type": "string"
						},
						{
							"internalType": "string",
							"name": "countryOfResidence",
							"type": "string"
						},
						{
							"internalType": "string",
							"name": "ageBracket",
							"type": "string"
						},
						{
							"internalType": "bool",
							"name": "isNotBlank",
							"type": "bool"
						}
					],
					"internalType": "struct Applicant",
					"name": "",
					"type": "tuple"
				}
			],
			"stateMutability": "view",
			"type": "function"
		},
		{
			"inputs": [
				{
					"internalType": "uint256",
					"name": "_applicationId",
					"type": "uint256"
				}
			],
			"name": "getApplicantOfDonation",
			"outputs": [
				{
					"components": [
						{
							"internalType": "uint256",
							"name": "id",
							"type": "uint256"
						},
						{
							"internalType": "uint256",
							"name": "applicantId",
							"type": "uint256"
						},
						{
							"internalType": "address",
							"name": "walletAddress",
							"type": "address"
						},
						{
							"internalType": "string",
							"name": "adjective",
							"type": "string"
						},
						{
							"internalType": "string",
							"name": "gender",
							"type": "string"
						},
						{
							"internalType": "string",
							"name": "countryOfResidence",
							"type": "string"
						},
						{
							"internalType": "string",
							"name": "ageBracket",
							"type": "string"
						},
						{
							"internalType": "bool",
							"name": "isNotBlank",
							"type": "bool"
						}
					],
					"internalType": "struct Applicant",
					"name": "",
					"type": "tuple"
				}
			],
			"stateMutability": "view",
			"type": "function"
		},
		{
			"inputs": [
				{
					"internalType": "uint256",
					"name": "_applicationId",
					"type": "uint256"
				}
			],
			"name": "getApplicationById",
			"outputs": [
				{
					"components": [
						{
							"internalType": "uint256",
							"name": "id",
							"type": "uint256"
						},
						{
							"internalType": "uint256",
							"name": "applicantId",
							"type": "uint256"
						},
						{
							"internalType": "address",
							"name": "applicantWalletAddress",
							"type": "address"
						},
						{
							"internalType": "uint256",
							"name": "donationId",
							"type": "uint256"
						},
						{
							"internalType": "string",
							"name": "pitchStatement",
							"type": "string"
						},
						{
							"internalType": "bool",
							"name": "isApproved",
							"type": "bool"
						},
						{
							"internalType": "bool",
							"name": "isNotBlank",
							"type": "bool"
						}
					],
					"internalType": "struct Application",
					"name": "",
					"type": "tuple"
				}
			],
			"stateMutability": "view",
			"type": "function"
		},
		{
			"inputs": [
				{
					"internalType": "uint256",
					"name": "_donationId",
					"type": "uint256"
				},
				{
					"internalType": "uint256",
					"name": "_applicationId",
					"type": "uint256"
				},
				{
					"internalType": "address",
					"name": "_applicantWalletAddress",
					"type": "address"
				}
			],
			"name": "getApplicationOfApplicantForDonation",
			"outputs": [
				{
					"components": [
						{
							"internalType": "uint256",
							"name": "id",
							"type": "uint256"
						},
						{
							"internalType": "uint256",
							"name": "applicantId",
							"type": "uint256"
						},
						{
							"internalType": "address",
							"name": "applicantWalletAddress",
							"type": "address"
						},
						{
							"internalType": "uint256",
							"name": "donationId",
							"type": "uint256"
						},
						{
							"internalType": "string",
							"name": "pitchStatement",
							"type": "string"
						},
						{
							"internalType": "bool",
							"name": "isApproved",
							"type": "bool"
						},
						{
							"internalType": "bool",
							"name": "isNotBlank",
							"type": "bool"
						}
					],
					"internalType": "struct Application",
					"name": "",
					"type": "tuple"
				}
			],
			"stateMutability": "view",
			"type": "function"
		},
		{
			"inputs": [
				{
					"internalType": "address",
					"name": "_applicantWalletAddress",
					"type": "address"
				}
			],
			"name": "getApplicationsOfApplicant",
			"outputs": [
				{
					"components": [
						{
							"internalType": "uint256",
							"name": "id",
							"type": "uint256"
						},
						{
							"internalType": "uint256",
							"name": "applicantId",
							"type": "uint256"
						},
						{
							"internalType": "address",
							"name": "applicantWalletAddress",
							"type": "address"
						},
						{
							"internalType": "uint256",
							"name": "donationId",
							"type": "uint256"
						},
						{
							"internalType": "string",
							"name": "pitchStatement",
							"type": "string"
						},
						{
							"internalType": "bool",
							"name": "isApproved",
							"type": "bool"
						},
						{
							"internalType": "bool",
							"name": "isNotBlank",
							"type": "bool"
						}
					],
					"internalType": "struct Application[]",
					"name": "",
					"type": "tuple[]"
				}
			],
			"stateMutability": "view",
			"type": "function"
		},
		{
			"inputs": [
				{
					"internalType": "uint256",
					"name": "_donationId",
					"type": "uint256"
				}
			],
			"name": "getDonationById",
			"outputs": [
				{
					"components": [
						{
							"internalType": "uint256",
							"name": "id",
							"type": "uint256"
						},
						{
							"internalType": "uint256",
							"name": "donorId",
							"type": "uint256"
						},
						{
							"internalType": "address",
							"name": "donorWalletAddress",
							"type": "address"
						},
						{
							"internalType": "string",
							"name": "topic",
							"type": "string"
						},
						{
							"internalType": "string",
							"name": "industry",
							"type": "string"
						},
						{
							"internalType": "uint256",
							"name": "maxNumberOfApplications",
							"type": "uint256"
						},
						{
							"internalType": "uint256",
							"name": "maxNumberOfVoters",
							"type": "uint256"
						},
						{
							"internalType": "uint256",
							"name": "amountDonatedInWei",
							"type": "uint256"
						},
						{
							"internalType": "bool",
							"name": "applicationIsClosed",
							"type": "bool"
						},
						{
							"internalType": "bool",
							"name": "votingIsClosed",
							"type": "bool"
						},
						{
							"internalType": "bool",
							"name": "isNotBlank",
							"type": "bool"
						}
					],
					"internalType": "struct Donation",
					"name": "",
					"type": "tuple"
				}
			],
			"stateMutability": "view",
			"type": "function"
		},
		{
			"inputs": [
				{
					"internalType": "address",
					"name": "_donorWalletAddress",
					"type": "address"
				}
			],
			"name": "getDonorByWalletAddress",
			"outputs": [
				{
					"components": [
						{
							"internalType": "uint256",
							"name": "id",
							"type": "uint256"
						},
						{
							"internalType": "address",
							"name": "walletAddress",
							"type": "address"
						},
						{
							"internalType": "string",
							"name": "adjective",
							"type": "string"
						},
						{
							"internalType": "string",
							"name": "mainIndustryOfInterest",
							"type": "string"
						},
						{
							"internalType": "uint256",
							"name": "numberOfDonationsCreated",
							"type": "uint256"
						},
						{
							"internalType": "bool",
							"name": "isNotBlank",
							"type": "bool"
						}
					],
					"internalType": "struct Donor",
					"name": "",
					"type": "tuple"
				}
			],
			"stateMutability": "view",
			"type": "function"
		},
		{
			"inputs": [
				{
					"internalType": "uint256",
					"name": "_donationId",
					"type": "uint256"
				}
			],
			"name": "getGranteeOfDonation",
			"outputs": [
				{
					"components": [
						{
							"internalType": "uint256",
							"name": "id",
							"type": "uint256"
						},
						{
							"internalType": "uint256",
							"name": "applicantId",
							"type": "uint256"
						},
						{
							"internalType": "address",
							"name": "walletAddress",
							"type": "address"
						},
						{
							"internalType": "string",
							"name": "adjective",
							"type": "string"
						},
						{
							"internalType": "string",
							"name": "gender",
							"type": "string"
						},
						{
							"internalType": "string",
							"name": "countryOfResidence",
							"type": "string"
						},
						{
							"internalType": "string",
							"name": "ageBracket",
							"type": "string"
						},
						{
							"internalType": "bool",
							"name": "isNotBlank",
							"type": "bool"
						}
					],
					"internalType": "struct Applicant",
					"name": "",
					"type": "tuple"
				}
			],
			"stateMutability": "view",
			"type": "function"
		},
		{
			"inputs": [
				{
					"internalType": "uint256",
					"name": "_donationId",
					"type": "uint256"
				}
			],
			"name": "getPotentialAmountOfGrantOfDonationInWei",
			"outputs": [
				{
					"internalType": "uint256",
					"name": "",
					"type": "uint256"
				}
			],
			"stateMutability": "view",
			"type": "function"
		},
		{
			"inputs": [
				{
					"internalType": "uint256",
					"name": "_donationId",
					"type": "uint256"
				}
			],
			"name": "getPotentialAmountOfRewardOfDonationInWei",
			"outputs": [
				{
					"internalType": "uint256",
					"name": "",
					"type": "uint256"
				}
			],
			"stateMutability": "view",
			"type": "function"
		},
		{
			"inputs": [
				{
					"internalType": "address",
					"name": "_applicantWalletAddress",
					"type": "address"
				}
			],
			"name": "getTotalAmountOfGrantsGivenToApplicantInWei",
			"outputs": [
				{
					"internalType": "uint256",
					"name": "",
					"type": "uint256"
				}
			],
			"stateMutability": "view",
			"type": "function"
		},
		{
			"inputs": [
				{
					"internalType": "uint256",
					"name": "_voterId",
					"type": "uint256"
				},
				{
					"internalType": "address",
					"name": "_voterWalletAddress",
					"type": "address"
				}
			],
			"name": "getTotalAmountOfRewardsGivenToVoterInWei",
			"outputs": [
				{
					"internalType": "uint256",
					"name": "",
					"type": "uint256"
				}
			],
			"stateMutability": "view",
			"type": "function"
		},
		{
			"inputs": [
				{
					"internalType": "uint256",
					"name": "_donationId",
					"type": "uint256"
				}
			],
			"name": "getTotalAmountOfVotesForDonation",
			"outputs": [
				{
					"internalType": "uint256",
					"name": "",
					"type": "uint256"
				}
			],
			"stateMutability": "view",
			"type": "function"
		},
		{
			"inputs": [
				{
					"internalType": "address",
					"name": "_voterWalletAddress",
					"type": "address"
				}
			],
			"name": "getTotalAmountOfVotesMadeByVoter",
			"outputs": [
				{
					"internalType": "uint256",
					"name": "",
					"type": "uint256"
				}
			],
			"stateMutability": "view",
			"type": "function"
		},
		{
			"inputs": [
				{
					"internalType": "uint256",
					"name": "_donationId",
					"type": "uint256"
				},
				{
					"internalType": "address",
					"name": "_applicantWalletAddress",
					"type": "address"
				}
			],
			"name": "getVoteCountOfApplicantOfDonation",
			"outputs": [
				{
					"internalType": "uint256",
					"name": "",
					"type": "uint256"
				}
			],
			"stateMutability": "view",
			"type": "function"
		},
		{
			"inputs": [
				{
					"internalType": "uint256",
					"name": "_donationId",
					"type": "uint256"
				},
				{
					"internalType": "address",
					"name": "_voterWalletAddress",
					"type": "address"
				}
			],
			"name": "getVoteOfVoterForDonation",
			"outputs": [
				{
					"components": [
						{
							"internalType": "uint256",
							"name": "id",
							"type": "uint256"
						},
						{
							"internalType": "uint256",
							"name": "voterId",
							"type": "uint256"
						},
						{
							"internalType": "uint256",
							"name": "applicantId",
							"type": "uint256"
						},
						{
							"internalType": "uint256",
							"name": "donationId",
							"type": "uint256"
						},
						{
							"internalType": "bool",
							"name": "isRewarded",
							"type": "bool"
						},
						{
							"internalType": "bool",
							"name": "isNotBlank",
							"type": "bool"
						}
					],
					"internalType": "struct Vote",
					"name": "",
					"type": "tuple"
				}
			],
			"stateMutability": "view",
			"type": "function"
		},
		{
			"inputs": [
				{
					"internalType": "address",
					"name": "_voterWalletAddress",
					"type": "address"
				}
			],
			"name": "getVoterByWalletAddress",
			"outputs": [
				{
					"components": [
						{
							"internalType": "uint256",
							"name": "id",
							"type": "uint256"
						},
						{
							"internalType": "address",
							"name": "walletAddress",
							"type": "address"
						},
						{
							"internalType": "string",
							"name": "adjective",
							"type": "string"
						},
						{
							"internalType": "string",
							"name": "gender",
							"type": "string"
						},
						{
							"internalType": "string",
							"name": "countryOfResidence",
							"type": "string"
						},
						{
							"internalType": "bool",
							"name": "isNotBlank",
							"type": "bool"
						}
					],
					"internalType": "struct Voter",
					"name": "",
					"type": "tuple"
				}
			],
			"stateMutability": "view",
			"type": "function"
		},
		{
			"inputs": [
				{
					"internalType": "uint256",
					"name": "_donationId",
					"type": "uint256"
				}
			],
			"name": "getWinningApplicantOfDonation",
			"outputs": [
				{
					"components": [
						{
							"internalType": "uint256",
							"name": "id",
							"type": "uint256"
						},
						{
							"internalType": "uint256",
							"name": "applicantId",
							"type": "uint256"
						},
						{
							"internalType": "address",
							"name": "walletAddress",
							"type": "address"
						},
						{
							"internalType": "string",
							"name": "adjective",
							"type": "string"
						},
						{
							"internalType": "string",
							"name": "gender",
							"type": "string"
						},
						{
							"internalType": "string",
							"name": "countryOfResidence",
							"type": "string"
						},
						{
							"internalType": "string",
							"name": "ageBracket",
							"type": "string"
						},
						{
							"internalType": "bool",
							"name": "isNotBlank",
							"type": "bool"
						}
					],
					"internalType": "struct Applicant",
					"name": "",
					"type": "tuple"
				}
			],
			"stateMutability": "view",
			"type": "function"
		},
		{
			"inputs": [
				{
					"internalType": "uint256",
					"name": "",
					"type": "uint256"
				}
			],
			"name": "granteesOfDonations",
			"outputs": [
				{
					"internalType": "address",
					"name": "",
					"type": "address"
				}
			],
			"stateMutability": "view",
			"type": "function"
		},
		{
			"inputs": [
				{
					"internalType": "uint256",
					"name": "_donationId",
					"type": "uint256"
				},
				{
					"internalType": "uint256",
					"name": "_applicationId",
					"type": "uint256"
				},
				{
					"internalType": "address",
					"name": "_applicantWalletAddress",
					"type": "address"
				},
				{
					"internalType": "address",
					"name": "_voterWalletAddress",
					"type": "address"
				}
			],
			"name": "makeAVote",
			"outputs": [],
			"stateMutability": "nonpayable",
			"type": "function"
		},
		{
			"inputs": [
				{
					"internalType": "uint256",
					"name": "_donationId",
					"type": "uint256"
				},
				{
					"internalType": "uint256",
					"name": "_applicantId",
					"type": "uint256"
				},
				{
					"internalType": "address",
					"name": "_applicantWalletAddress",
					"type": "address"
				},
				{
					"internalType": "string",
					"name": "_pitchStatement",
					"type": "string"
				}
			],
			"name": "makeApplication",
			"outputs": [],
			"stateMutability": "nonpayable",
			"type": "function"
		},
		{
			"inputs": [
				{
					"internalType": "uint256",
					"name": "",
					"type": "uint256"
				}
			],
			"name": "numbersOfApplicationsForDonations",
			"outputs": [
				{
					"internalType": "uint256",
					"name": "",
					"type": "uint256"
				}
			],
			"stateMutability": "view",
			"type": "function"
		},
		{
			"inputs": [
				{
					"internalType": "address",
					"name": "",
					"type": "address"
				}
			],
			"name": "numbersOfApplicationsOfApplicants",
			"outputs": [
				{
					"internalType": "uint256",
					"name": "",
					"type": "uint256"
				}
			],
			"stateMutability": "view",
			"type": "function"
		},
		{
			"inputs": [
				{
					"internalType": "address",
					"name": "",
					"type": "address"
				}
			],
			"name": "numbersOfDonationsCreatedByDonors",
			"outputs": [
				{
					"internalType": "uint256",
					"name": "",
					"type": "uint256"
				}
			],
			"stateMutability": "view",
			"type": "function"
		},
		{
			"inputs": [
				{
					"internalType": "uint256",
					"name": "",
					"type": "uint256"
				}
			],
			"name": "numbersOfVotesForDonations",
			"outputs": [
				{
					"internalType": "uint256",
					"name": "",
					"type": "uint256"
				}
			],
			"stateMutability": "view",
			"type": "function"
		},
		{
			"inputs": [
				{
					"internalType": "address",
					"name": "",
					"type": "address"
				}
			],
			"name": "numbersOfVotesOfVoters",
			"outputs": [
				{
					"internalType": "uint256",
					"name": "",
					"type": "uint256"
				}
			],
			"stateMutability": "view",
			"type": "function"
		},
		{
			"inputs": [
				{
					"internalType": "uint256",
					"name": "",
					"type": "uint256"
				},
				{
					"internalType": "address",
					"name": "",
					"type": "address"
				}
			],
			"name": "votingInDonation",
			"outputs": [
				{
					"internalType": "bool",
					"name": "",
					"type": "bool"
				}
			],
			"stateMutability": "view",
			"type": "function"
		}
	]
}